:020000040800F2
:10400000A81E0020A54100088DB00008458F0008BB
:1040100089B00008296D0008BDC400080000000038
:104020000000000000000000000000000DBB0008C0
:10403000F96D00080000000029B500087FBE0008E7
:10404000BF410008BF410008BF410008BF41000850
:10405000BF410008BF41000899750008BF41000832
:1040600021760008BF41000851760008BF410008D2
:10407000BF410008BF410008BF410008BF41000820
:10408000BF410008BF410008BF410008BF41000810
:10409000BF410008BF410008BF410008F576000895
:1040A000BF410008B5C30008BF410008BF41000878
:1040B000BF4100080000000000000000BF410008F0
:1040C000BF410008BF410008BF410008BF410008D0
:1040D000BF410008DDC30008BF41000841C400081B
:1040E000E175000821B80008000000000000000091
:1040F00000000000000000000000000000000000C0
:1041000000000000BF41000800000000BF4100089F
:104110000000000000000000BF410008BF4100088F
:10412000BF410008BF410008BF410008BF4100086F
:10413000BF41000800000000000000000000000077
:10414000BF41000839A70008BF4100080000000077
:10415000BF410008BF41000871A70008BF41000827
:10416000BF410008BF410008BF4100080000000037
:10417000BF410008BF41000800000000000000002F
:10418000BF410008BF410008BF410008DFF810D060
:1041900000F080FD00480047AD420108AFF3008009
:1041A000A81E00200648804706480047FEE7FEE7B5
:1041B000FEE7FEE7FEE7FEE7FEE7FEE7FEE7FEE7D7
:1041C000CDBF00088D4100082DE9F05F05460020B5
:1041D00092469B4688460646814640241BE0284678
:1041E00041464746224600F042FC53465A46C01A12
:1041F000914110D311461846224600F029FC2D1A91
:1042000067EB01084F4622460120002100F020FC08
:1042100017EB00094E41201EA4F10104DFDC4846E3
:1042200031462A46434600F000B830BCBDE8C09F86
:10423000014900F003B800007C16002010B50068AA
:104240003C22B0FBF2F302FB1303B0FBF2F00B6075
:10425000B0FBF2F302FB1303B0FBF2F018224B6049
:10426000B0FBF2F302FB1303B0FBF2F0021D8B6014
:104270000723B2FBF3F403FB1422800040F2B55392
:1042800000F66C308A61B0FBF3F2B0FBF3F403FB91
:104290001400443280084A61C8613B2802D3920767
:1042A00000D0401C0022074C13460A61E25C8242A7
:1042B00003D8801A5B1C0B61F8E7401CC8600846F5
:1042C00010BD00008484010838B5D0E90221491EE0
:1042D00001EB410102EBC1014268C1EB011102EBAC
:1042E00081010268C1EB011102EB8102D0E90431C6
:1042F00001EB410103EB81013023A1F5527191FBE8
:10430000F3F4174D6C4302EBC41291FBF3F403FB7F
:10431000141100921A2902DB124B1A4400920C224B
:1043200091FBF2F3104C6343009C04EBC313009326
:1043300091FBF2F302FB13110C4A08E0491E40F214
:10434000A324535C6343009C04EBC3130093002934
:10435000F4DC01466846FFF771FF009838BD0000A5
:104360003F0C0F008051010067C2030090840108D8
:1043700010B540EA01040346A40703D009E010C9C0
:10438000121F10C3042AFAD203E011F8014B03F8FC
:10439000014B521EF9D210BDD2B201E000F8012B40
:1043A000491EFBD270470022F6E710B513460A46B5
:1043B00004461946FFF7F0FF204610BD30B505460C
:1043C0002A460B4612F8010B13F8014B08B1A04224
:1043D000F8D01CB1002802D06D1CF1E7284630BD92
:1043E000421C10F8011B0029FBD1801A704710B540
:1043F000002200E0521C835C8C5CA34201D1002BA4
:10440000F8D1D8B2E1B2401A10BD30B50446002050
:10441000034600E05B1C934203D2E05CCD5C401B92
:10442000F8D030BD30B505460020034600E05B1CE7
:10443000934205D2EC5CC85C201A01D1002CF6D165
:1044400030BD000070B50F4D00B92868002412E09F
:104450000A4602E09E4203D0521C1378002BF9D189
:10446000DAB2224305D02BB124B1002100F8011BA0
:1044700004E00446401C0678002EE9D1286020465E
:1044800070BD0000540200200FB400B58DB010A91B
:1044900009900B9000914FF0FF300A9000200C9093
:1044A00005480690054807906A4609A80F9900F04C
:1044B00015FB0DB05DF814FBF94A0008174B000816
:1044C0002DE9FF5F1D464FF0FF3BD5E901469146C0
:1044D0005F464FF00008A9697F1C01988847296A48
:1044E000824688470028F6D1BAF1FF3F0CD024F469
:1044F000C064002E19DD600614D5BAF12B0F09D067
:10450000BAF12D0F0ED103E0584604B000F07EB88A
:1045100044F48064A9697F1C01988847761E82460E
:10452000002E02DDBAF1300F03D0B9F1000F26D012
:1045300032E0A969761E44F400747F1C0198884714
:104540008246002E05DDBAF1780F06D0BAF1580F79
:1045500003D0B9F1000F10D01EE0B9F1000F02D066
:10456000B9F1100F18D1A969761E24F400747F1CCC
:10457000019888478246102002E0082000E00A20C7
:10458000814609E008FB0908A969761E44F4007415
:104590007F1C019888478246002E05DD494650461B
:1045A00000F087FA0028EDDAE96901988847A0054C
:1045B00002D46FF00100A8E7E00725D1600613D50B
:1045C000600502D5C8F1000000E0404629680A1DD8
:1045D0002A600968220501D5087015E0220701D577
:1045E000088011E008600FE02868011D296000685C
:1045F000210502D580F8008006E0210702D5A0F849
:10460000008001E0C0F8008038467EE730BCBDE89D
:10461000C09F70B5064608F06DF8046805460A228A
:104620000021304600F088FA2C6070BD2DE9FE4F65
:10463000804681EA0300C00F0C46009021F0004143
:1046400023F00045B8EB0200A94105D240462146BF
:1046500090461C460B46024623F00040104347D0CC
:10466000270DC7F30A00C3F30A510290401A0190C4
:1046700040286BDAC3F3130040F4801B0098924685
:1046800020B10023D2EB030A63EB0B0B01985946D0
:10469000C0F14002504600F0DBF906460D46504698
:1046A0005946019A00F0F3F910EB0800614100242B
:1046B00087EA115284EAE7731A4340D0009A62B342
:1046C000019A012A4FEA075215DC001B61EB020137
:1046D0004FF0004202EA0752CDE90042001C41F5CA
:1046E000801132462B4600F06EFA03B000F045B858
:1046F00040462146F9E7001B61EB0201001C41F531
:10470000801300185B412018A2F5001747EB030146
:1047100040EAD570B6196D4111E06D084FEA3606D2
:1047200045EAC0754FEA0752001B61EB0201001C0D
:1047300041F5801149084FEA3000001951413246D5
:104740002B4603B000F01CB800F02EBA00980122EE
:1047500040000023D0EB020263EBE0730098214697
:104760004FEAE074B8EB000061EB0401E9E783F085
:1047700000435BE781F0004158E730BCBDE8C08FE3
:1047800030BCBDE8C04FFFF7DFBF2DE9FE4F81EA27
:10479000030404F0004421F0004100944FF0000BAA
:1047A00023F0004350EA01045ED052EA03045BD0D8
:1047B000C3F30A54C1F30A552C44A4F2F334019410
:1047C000A0FB0254C1F3130141F48011C3F313039E
:1047D00043F4801301FB024400FB034E840A970A52
:1047E00044EA815447EA8357A4FB076802958D0A7F
:1047F00005FB07854FEA932C04FB0C542705029D0B
:104800004FEA065847EA1637B5EB08056EEB070C7A
:10481000870E920E47EA811742EA8312A7FB020134
:10482000B6EB0B0164EB00042B0D43EA0C335E186E
:1048300044EB1C50DA465146E7FB0201C5F3130472
:104840004FEA0B3343EA14534FEA0432019C43EA24
:104850000603A4F10C040294009CCDE900B400F01E
:10486000B2F903B000F003B800200146F9E730BC0C
:10487000BDE8C08F2DE9F04D81EA030404F0004B40
:1048800021F0004514464FF0000A23F0004150EAA1
:10489000050220D054EA01021DD0C5F30A57024692
:1048A000C5F31303C1F31300C1F30A5640F4801596
:1048B00043F48013A7EB0608101BD64608F2FD3818
:1048C00073EB050002D308F1010801E092185B4187
:1048D000B8F1000F03DA00200146BDE8F08D00209A
:1048E0004FF48011064684460EE0171B73EB050754
:1048F00005D3121B63EB050306434CEA010C490880
:104900004FEA300092185B4150EA0107EDD152EABC
:10491000030012D082EA040083EA0501084305D0AF
:10492000101BAB4106D20122002306E000224FF00B
:10493000004302E06FF0010253101AEB06004CEB4B
:10494000085110EB0A0041EB0B01BDE8F04D00F0FF
:104950002BB90EB540F2334102910021CDE900118F
:104960000A460B4600F02FF903B000BDC1F30A520E
:1049700010B5C1F3130140F2FF3341F480119A42A4
:1049800001DA002010BD40F233439A42A2F23342D2
:1049900003DC524200F06BF810BD904010BD00F0F7
:1049A000004230F000400AD0C10D01F56071C0F343
:1049B000160042EA0151C208400711437047002027
:1049C0000146704730B5041E71F1000404DB4FF05E
:1049D0000044404264EB0101141E73F1000405DB46
:1049E0001C464FF00043524263EB04038B4208BF66
:1049F000824230BD30B5041E71F1000404DB4FF07B
:104A00000044404264EB0101141E73F1000405DB15
:104A10001C464FF00043524263EB0403994208BF27
:104A2000904230BD30B50B460146002020220124C3
:104A300009E021FA02F59D4205D303FA02F5491B6C
:104A400004FA02F52844151EA2F10102F1DC30BD82
:104A5000202A04DB203A00FA02F10020704791403E
:104A6000C2F1200320FA03F3194390407047202A33
:104A700004DB203A21FA02F00021704721FA02F308
:104A8000D040C2F120029140084319467047202AC5
:104A900006DBCB17203A41FA02F043EAE07306E066
:104AA00041FA02F3D040C2F1200291400843194676
:104AB00070473A2800D2303820F02002412A01D332
:104AC000A2F13700884201D34FF0FF307047000059
:104AD000026811441378016018467047D160044998
:104AE00051610449116200211161114600F0F2B8D0
:104AF000D14A0008C14C0008426842B1016811F86F
:104B0000013B23B1521EC0E9001218467047012133
:104B1000C160881E704742685AB1C368016843B9D2
:104B200083688B4205D0491E521CC0E90012002048
:104B300070474FF0FF3070472DE9F04791460F4620
:104B400080460446002614F8015B2DB100F0B4F84D
:104B50000068405DC007F6D12B2D02D02D2D18D056
:104B6000641E4A463946204600F04FFA27B139689C
:104B7000A14201D1C7F8008071054FF002040BD5A6
:104B80004042002803DD07F0B5FD0460A007BDE842
:104B9000F08746F48066E4E70028F8DA07F0AAFD1B
:104BA00004606FF00040F2E710B5141E73F10004CA
:104BB00008DA401C41F1000192185B411A4301D10F
:104BC00020F0010010BD2DE9F04D92469B4611B139
:104BD000B1FA81F202E0B0FA80F220329046FFF79B
:104BE00037FF04460F4640EA0A0041EA0B015346EC
:104BF0005A46084313D0114653EA010019D0C8F1B0
:104C000040025046FFF733FF05460E4650465946D0
:104C10004246FFF71DFF084305D0012004E020466F
:104C20003946BDE8F08D0020054346EAE0762C4386
:104C300037430A986305E40AA0EB08000022FD0A46
:104C400044EA47540A3002D500200146E9E701054D
:104C500010196941DDE9084500196941BDE8F04DC9
:104C6000A2E7C1F30A52C1F3130140F2FF3341F44A
:104C700080119A4202DA00200146704740F2334325
:104C80009A42A2F2334202DC5242FFF7F0BEFFF733
:104C9000DFBE0000064C074D06E0E06840F001036F
:104CA00094E8070098471034AC42F6D3FFF772FA45
:104CB000C4920108E4920108004870472085010869
:104CC00010B50446FFF7F8FF0068005D00F0010032
:104CD00010BD00002DE9F34F8BB04FF0000801F13B
:104CE0000C000C464FF0010B46460DF1080A0190EE
:104CF0006269012101989047051E2DD0252D2CD0E9
:104D0000216A8847C0B16269012101989047216AF0
:104D100088470028F7D1411E62690198904700E05A
:104D2000761CA1690B988847216A88470028F7D12B
:104D3000E1690B988847DBE7A1690B98884707462C
:104D4000A84201D1761CD3E7E1690B9888477F1C04
:104D500002D1B8F1000F6FD047E1002762693D46EC
:104D60003946019890472A2804D1626901210198A7
:104D700090470125DFF888926269012101989047E8
:104D8000A0F130010A290AD24F45E5DC07EB870183
:104D900000EB4107303FDFD445F01005ECE7E906B2
:104DA00001D46FF000476C280AD04C2814D0682832
:104DB00015D06A280DD074281CD07A281AD01DE08E
:104DC00062690121019890476C2802D045F00405E2
:104DD00014E045F002050DE045F020050AE06269A7
:104DE000012101989047682802D045F0080505E0A8
:104DF00045F400656269012101989047C4E90157B3
:104E000065283DD019DC58287AD00CDC452837D0ED
:104E100004DC252826D0412831D131E046282FD086
:104E200047282CD12CE05B2877D0612828D0632834
:104E30007CD0642823D15AE0D1E06F2848D008DC28
:104E400066281DD067281BD0692821D06E2816D16E
:104E500027E0702845D0732868D0752847D0782877
:104E60000DD14DE0A1690B988847054625283FF4F0
:104E700069AFE1690B9888476D1C3FF46AAFB4E0F5
:104E800023466A466FF001000B99AFF300809FE064
:104E900045F040006060A80723464FF0000236D47A
:104EA0003EE0E8077FF447AF2068011D21600068FD
:104EB000290501D506701BE7290701D5068017E7EC
:104EC000A90703D5F117C0E9006111E706600FE7F4
:104ED00045F040006060A80723464FF0080216D452
:104EE0001EE040F60E0125EA0100606016E045F084
:104EF00040006060A80723464FF00A0207D40FE085
:104F000045F040006060A80708D5234610226FF0E6
:104F100001000B99AFF300805AE007E0234610220E
:104F20006FF001000B99FFF7CBFA51E04FF0000949
:104F30004F464B46632802D05B2807D041E02079DA
:104F4000C00601D40120A06001273AE06269012176
:104F5000019890475E2805D14FF0010962694946E2
:104F600001989047216939B900210A46534643F810
:104F70002120491C0829FADBB0B3216969B9C1179E
:104F800000EBD16253110AEB830122F01F02821A57
:104F900001200B68904003430B6062690121019876
:104FA00090475D28E8D1B9F1000F09D000205146A3
:104FB00051F82020D24341F82020401C0828F7DB7C
:104FC00002AB224600976FF001000B99AFF300800F
:104FD00000280CDA401C08D1BBF1000F05D04FF0BF
:104FE000FF300DB000F00EB8FFE74046F9E7E907E3
:104FF00001D108F1010806444FF0000B78E60000EB
:10500000CCCCCC0C30BCBDE8C08F2DE9F05F824623
:105010000078002715468B460AF10104B94630286E
:1050200001D09DB113E014F8010B0127782803D0BB
:10503000582801D045B10AE00DB1102D07D1002745
:10504000102514F8010B02E0082500E00A250026CF
:10505000B0460EE005FB080005FB06F1012701EB59
:1050600010461FFA80F8B6F5803F00D3B94614F811
:10507000010B2946FFF71DFD0028EBDABBF1000FFD
:1050800005D00FB1641E00E05446CBF80040B9F1E2
:10509000000F06D007F02EFB02210160C81E00F0B1
:1050A00003B848EA0640FAE730BCBDE8C09F70B5D7
:1050B0008C1810F8015B15F0070301D110F8013BC3
:1050C0002A1106D110F8012B03E010F8016B01F84A
:1050D000016B5B1EF9D12B0705D40023521E0DD4A2
:1050E00001F8013BFAE710F8013BCB1A921C03E0F0
:1050F00013F8015B01F8015B521EF9D5A142D8D328
:10510000002070BD10B52DED088B1E480068401CB6
:105110001C4908601C4988422ED81A4909681A4A55
:10512000501AFFF716FC41EC1B0B9FED180B53ECCC
:10513000102BFFF72AFB41EC1A0B9FED160B53ECDB
:10514000102BFFF797FB41EC190B9FED140B53EC61
:10515000102BFFF76BFA41EC180BFFF707FC114916
:1051600008700846007810490978884207D00D4831
:1051700000780D49087002E000200A490870BDEC73
:10518000088B10BD08000020F0490200000000005C
:105190000000594000000000804F02410000000064
:1051A0000000E03F000000200C0000202DE9F04747
:1051B00006460F4614464FF000084FF064090DF004
:1051C00011FD48B939A13BA004F02EF83BA004F032
:1051D0002BF80020BDE8F0870DF032FD40B933A177
:1051E00034A004F021F83AA004F01EF80020F1E702
:1051F000FF213D48FFF7D7F800203C49A1F80602FF
:10520000304605F0D3FE3AA005F0D0FE364D39A168
:105210002046FFF7D3F820B939A12046FFF7CEF892
:1052200000B1ED1D32E021A12846FFF7C7F848B1D3
:105230001EA120A003F0F8FF314634A003F0F4FFD4
:105240000020C7E737A12846FFF7B8F848B117A1F3
:1052500018A003F0E9FF314635A003F0E5FF002078
:10526000B8E709FB08F0B84209DD38A111A003F046
:10527000DBFF314637A003F0D7FF0220AAE74846FC
:1052800005F08EFE08F101001FFA80F8214628463D
:10529000FFF794F80028C6D035A106A003F0C4FF9C
:1052A000314634A003F0C0FF012093E74552524F2E
:1052B000520000000A5B25735D0000004C6F5261D4
:1052C00057414E204D6F6465204552524F45210095
:1052D0004C6F526157414E20537461747573204571
:1052E00052524F4521000000FE0B0020F80A00201A
:1052F0000D0A00002B4C494E4B20494E464F3A00B8
:105300002B52544320494E464F3A00002225732227
:1053100020617420636D6420657865632065727216
:105320006F720000424144205041524D0000000085
:105330002225732220617420636D64206578656383
:1053400020626164207061726D0000005741524E0E
:10535000000000002225732220617420636D642008
:10536000657865632074696D656F75740000000071
:105370004C4F47002225732220617420636D642006
:10538000657865632073756363657373000000005F
:10539000F0B587B0002560E032A240F2DC5132A0C7
:1053A000FFF704FF012852D132A133A003F03CFFE4
:1053B00033A13648FFF702F80746394634A003F018
:1053C00033FF78213348FEF7EEFF2DA12F48FEF77B
:1053D000F5FF064600200690002406AB2D4A2EA1BC
:1053E000304609F098F80AE02A4B611C53F8212056
:1053F0002A4908190223012109F01AF8641C0699A8
:10540000481E06900029EFD11AA11BA003F00CFF43
:1054100022480B38807C21490B39497C1F4A0B3AC2
:10542000127C1E4B0B3BDB7BCDE90132CDE9031037
:105430001A480B38807B009018480B38437B027B5E
:10544000C17A17A003F0F0FE012007B0F0BD681C80
:1054500085B24FF47A7005F0A3FD032D9CDB00208C
:10546000F3E700004F4B000041542B41505045558D
:10547000493F00004C4F47000A5B25735D00000068
:105480002B4150504555493A00000000FE0B0020CA
:105490002573000098130020200000001B1400203A
:1054A0004150504555493A20253032782025303238
:1054B0007820253032782025303278202530327817
:1054C000202530327820253032782025303278007F
:1054D000F0B58FB000257EE041A240F2DC5141A042
:1054E000FFF764FE012870D141A142A003F09CFEA9
:1054F00042A14548FEF762FF0746394643A003F044
:1055000093FE78214248FEF74EFF3CA13E48FEF74D
:1055100055FF064600200E9000240EAB3C4A3DA1EC
:10552000304608F0F8FF0AE0394B611C53F821209F
:10553000394908190223012108F07AFF641C0E99E9
:10554000481E0E900029EFD129A12AA003F06CFE7D
:105550003148133890F822002F49133991F821105F
:105560002D4A133A92F820202B4B133BDB7FCDE9D9
:105570000932CDE90B1028481338807F26491339AA
:105580004A7F097F244B133BDB7ECDE90531CDE912
:10559000072021481338817E427E007E1E4B133B3C
:1055A000DB7DCDE90130CDE903211B481338807D37
:1055B000009019481338437D027DC17C174803F0E1
:1055C00033FE01200FB0F0BDFFE7681C85B24FF439
:1055D0007A7005F0E5FC032DFFF67EAF0020F1E7C1
:1055E0004F4B000041542B4150504B45593F000058
:1055F0004C4F47000A5B25735D0000002B41505063
:105600004B45593A00000000FE0B002025730000B6
:105610009813002020000000231400206885010852
:10562000F0B58FB000258BE048A240F2DC5148A0D5
:10563000FFF7BCFD01287DD148A149A003F0F4FD8E
:1056400049A14C48FEF7BAFE074639464AA003F086
:10565000EBFD78214948FEF7A6FE43A14548FEF739
:10566000ADFE064600200E9000240EAB434A44A136
:10567000304608F050FF0AE0404B611C53F82120EF
:10568000404908190223012108F0D2FE641C0E993A
:10569000481E0E900029EFD130A131A003F0C4FDC7
:1056A0003848273890F836003649273991F83510B0
:1056B000344A273A92F83420324B273B93F8333060
:1056C000CDE90932CDE90B102E48273890F8320089
:1056D0002C49273991F8312091F83010294B273B7C
:1056E00093F82F30CDE90531CDE90720254827383B
:1056F00090F82E1090F82D2090F82C00214B273B8D
:1057000093F82B30CDE90130CDE903211D4827382E
:1057100090F82A0000901B48273890F8293090F81C
:10572000282090F82710184803F07EFD01200FB0C4
:10573000F0BDFFE7681C85B24FF47A7005F030FCCD
:10574000032DFFF671AF0020F1E700004F4B000082
:1057500041542B415050534B45593F004C4F47004B
:105760000A5B25735D0000002B415050534B455997
:105770003A000000FE0B0020257300009813002063
:1057800020000000371400201C86010870B500249A
:105790001CE010A240F2DC510FA0FFF707FD01282A
:1057A0000ED110A110A003F03FFD11A11248FEF789
:1057B00005FE0546294611A003F036FD012070BD07
:1057C000601C84B24FF47A7005F0EAFB032CE0DB36
:1057D0000020F4E74F4B000041542B42414E443F20
:1057E000000000004C4F47000A5B25735D0000007D
:1057F0002B42414E44000000FE0B002025730000A8
:1058000070B500241CE010A240F2DC510FA0FFF79D
:10581000CDFC01280ED110A110A003F005FD11A1AF
:105820001248FEF7CBFD0546294611A003F0FCFC0B
:10583000012070BD601C84B24FF47A7005F0B0FB9B
:10584000032CE0DB0020F4E74F4B000041542B43D6
:105850004C4153533F0000004C4F47000A5B2573F7
:105860005D0000002B434C4153533A00FE0B0020D7
:105870002573000070B500241CE010A240F2DC513A
:105880000FA0FFF793FC01280ED110A110A003F088
:10589000CBFC11A11348FEF791FD0546294612A045
:1058A00003F0C2FC012070BD601C84B24FF47A701A
:1058B00005F076FB032CE0DB0020F4E74F4B000003
:1058C00041542B434F4E4649524D3F004C4F4700E9
:1058D0000A5B25735D0000002B434F4E4649524D35
:1058E0003A000000FE0B0020257300002DE9FC416A
:1058F000002554E02CA240F2DC512CA0FFF756FC0E
:10590000012846D12CA12DA003F08EFC2DA13048FA
:10591000FEF754FD074639462EA003F085FC78219A
:105920002D48FEF740FD27A12948FEF747FD064612
:1059300000200190002401AB274A28A1304608F03E
:10594000EAFD0AE0244B611C53F821202449081980
:105950000223012108F06CFD641C0199481E01908E
:105960000029EFD114A115A003F05EFC1C482338D8
:1059700090F8260000901A48233890F8253090F8C7
:10598000242090F8231017A003F04EFC0120BDE85E
:10599000FC81681C85B24FF47A7005F001FB032D81
:1059A000A8DB0020F3E700004F4B000041542B44DC
:1059B0004556414444523F004C4F47000A5B257313
:1059C0005D0000002B444556414444523A0000001B
:1059D000FE0B00202573000098130020200000001B
:1059E00033140020444556414444523A2025303275
:1059F00078202530327820253032782025303278D2
:105A000000000000F0B587B0002560E032A240F24F
:105A1000DC5134A0FFF7CAFB012852D134A135A0D4
:105A200003F002FC2CA13548FEF7C8FC07463946B6
:105A300033A003F0F9FB78213248FEF7B4FC26A12D
:105A40002E48FEF7BBFC064600200690002406AB5D
:105A50002C4A2DA1304608F05EFD0AE0294B611C5E
:105A600053F82120294908190223012108F0E0FCFC
:105A7000641C0699481E06900029EFD11CA11DA0A8
:105A800003F0D2FB2148C01E807A2049C91E497A02
:105A90001E4AD21E127A1D4BDB1EDB79CDE9013284
:105AA000CDE903101948C01E807900901748C01E28
:105AB00043790279C17816A003F0B6FB012007B044
:105AC000F0BD681C85B24FF47A7005F069FA032DB9
:105AD0009CDB0020F3E700002B4445564555493A2E
:105AE0000000000041542B4445564555493F0000F5
:105AF0004C4F47000A5B25735D000000FE0B002041
:105B000025730000981300202000000013140020CB
:105B10004465764555493A20253032782025303283
:105B200078202530327820253032782025303278A0
:105B30002025303278202530327820253032780008
:105B400070B500241CE010A240F2DC510FA0FFF75A
:105B50002DFB01280ED111A111A003F065FB12A1AC
:105B60001448FEF72BFC0546294613A003F05CFB06
:105B7000012070BD601C84B24FF47A7005F010FAF9
:105B8000032CE0DB0020F4E74F4B000041542B4492
:105B9000415441524154453F000000004C4F4700E2
:105BA0000A5B25735D0000002B444154415241546F
:105BB000453A0000FE0B00202573000070B500245C
:105BC0001CE010A240F2DC510FA0FFF7EFFA012811
:105BD0000ED110A110A003F027FB11A11248FEF76F
:105BE000EDFB0546294611A003F01EFB012070BD08
:105BF000601C84B24FF47A7005F0D2F9032CE0DB1C
:105C00000020F4E74F4B000041542B465245513FD2
:105C1000000000004C4F47000A5B25735D00000048
:105C20002B465245513A0000FE0B00202573000020
:105C3000F0B58FB000258BE048A240F2DC5148A0BF
:105C4000FFF7B4FA01287DD148A149A003F0ECFA8E
:105C500049A14C48FEF7B2FB074639464AA003F07B
:105C6000E3FA78214948FEF79EFB43A14548FEF739
:105C7000A5FB064600200E9000240EAB434A44A12B
:105C8000304608F048FC0AE0404B611C53F82120E4
:105C9000404908190223012108F0CAFB641C0E992F
:105CA000481E0E900029EFD130A131A003F0BCFABC
:105CB0003848373890F846003649373991F845105A
:105CC000344A373A92F84420324B373B93F843300A
:105CD000CDE90932CDE90B102E48373890F8420053
:105CE0002C49373991F8412091F84010294B373B26
:105CF00093F83F30CDE90531CDE907202548373805
:105D000090F83E1090F83D2090F83C00214B373B36
:105D100093F83B30CDE90130CDE903211D483738F8
:105D200090F83A0000901B48373890F8393090F8D6
:105D3000382090F83710184803F076FA01200FB099
:105D4000F0BDFFE7681C85B24FF47A7005F028F9C2
:105D5000032DFFF671AF0020F1E700004F4B00006C
:105D600041542B4E574B534B45593F004C4F470026
:105D70000A5B25735D0000002B4E574B534B455972
:105D80003A000000FE0B002025730000981300204D
:105D90002000000047140020C085010870B50024D1
:105DA0001CE010A240F2DC510FA0FFF7FFF9012820
:105DB0000ED110A110A003F037FA11A11248FEF77E
:105DC000FDFA0546294611A003F02EFA012070BD08
:105DD000601C84B24FF47A7005F0E2F8032CE0DB2B
:105DE0000020F4E74F4B000041542B504F52543FDA
:105DF000000000004C4F47000A5B25735D00000067
:105E00002B504F52543A0000FE0B00202573000027
:105E100070B500241CE010A240F2DC510FA0FFF787
:105E2000C5F901280ED10FA10FA003F0FDF910A1B3
:105E30001148FEF7C3FA0546294610A003F0F4F90D
:105E4000012070BD601C84B24FF47A7005F0A8F890
:105E5000032CE0DB0020F4E74F4B000041542B52B1
:105E600058323F004C4F47000A5B25735D0000002D
:105E70002B5258323A000000FE0B00202573000020
:105E800070B500241CE010A240F2DC5111A0FFF715
:105E90008DF901280ED112A112A003F0C5F90AA1B3
:105EA0001248FEF78BFA0546294611A003F0BCF90B
:105EB000012070BD601C84B24FF47A7005F070F858
:105EC000032CE0DB0020F4E72B5354415455533AA4
:105ED0000000000041542B5354415455533F0000DF
:105EE0004C4F47000A5B25735D000000FE0B00204D
:105EF0002573000070B500241CE010A240F2DC51B4
:105F000010A0FFF753F901280ED110A110A003F043
:105F10008BF90AA11048FEF751FA054629460FA051
:105F200003F082F9012070BD601C84B24FF47A70D6
:105F300005F036F8032CE0DB0020F4E72B56455241
:105F40000000000041542B5645523F004C4F470083
:105F50000A5B25735D000000FE0B00202573000026
:105F600010B500241AE00FA240F2DC510EA0FFF79A
:105F70001DF901280CD10F48007820F001000D49CF
:105F8000087000BF0CF00CFE0028FBD0012010BDF3
:105F9000601C84B24FF47A7005F002F8032CE2DB47
:105FA0000020F4E74F4B000041542B464143544F2F
:105FB000525900001014002010B500240EE009A270
:105FC00040F2DC5108A0FFF7F1F8012800D110BD24
:105FD000601C84B24FF47A7004F0E2FF032CEEDB15
:105FE0000020F4E74F4B000041542B53415645002D
:105FF00010B590B00024242218A107A8FEF7B8F924
:106000001F48807C1E49497C1D4A127C1C4BDB7B4F
:10601000CDE90232CDE904101948807B1849497B4B
:10602000CDE900101648037BC27A16A107A806F036
:1060300061FA0FE020A240F2DC5107A8FFF7B6F8A2
:10604000012801D110B010BD601C84B24FF47A70E9
:1060500004F0A6FF032CEDDB0020F3E741542B41B5
:1060600050504555493D204646204646204645204D
:1060700030302030302030302030302030310000BF
:106080001014002041542B4150504555493D2025C6
:106090003032782025303278202530327820253073
:1060A0003278202530327820253032782025303261
:1060B00078202530327800004F4B000010B59EB09C
:1060C0000024402225A10EA8FEF752F9334890F88B
:1060D0002200324991F82110304A92F820202F4BAB
:1060E000DB7FCDE90A32CDE90C102C48807F2B49AB
:1060F000497F2A4A127F294BDB7ECDE90632CDE962
:1061000008102648827E407E2449097E234BDB7D91
:10611000CDE90231CDE904022048807D1F49497D47
:10612000CDE900101D48037DC27C1D490EA806F074
:10613000E1F90FE01BA240F2DC510EA8FFF736F8A0
:10614000012801D11EB010BD601C84B24FF47A70DA
:1061500004F026FF032CEDDB0020F3E741542B4134
:1061600050504B45593D2032422037452031352093
:1061700031362032382041452044322041362041FA
:1061800042204637203135203838203039204346E8
:106190002034462033432C3000000000101400202F
:1061A000308A01084F4B00003EB5044600252246C8
:1061B0000BA1684606F09EF90EE00CA240F6C41151
:1061C0006846FEF7F3FF012800D13EBD681C85B28A
:1061D0004FF47A7004F0E4FE032DEEDB0020F4E7C8
:1061E00041542B42414E443D256400004F4B00007A
:1061F0003EB5044600250EA207CA8DE807002246D8
:106200000EA1684606F076F90EE00FA240F2DC51CE
:106210006846FEF7CBFF012800D13EBD681C85B261
:106220004FF47A7004F0BCFE032DEEDB0020F4E79F
:1062300041542B434C4153533D30000041542B43B8
:106240004C4153533D2564004F4B00007FB504463D
:106250000D4600260FA30FCB8DE80F002B462246DC
:1062600010A1684606F046F90FE013A240F2DC5197
:106270006846FEF79BFF012801D104B070BD701C79
:1062800086B24FF47A7004F08BFE032EEDDB002013
:10629000F3E7000041542B434F4E4649524D3D31E8
:1062A0002C33000041542B434F4E4649524D3D255F
:1062B000642C2564000000004F4B000010B5002442
:1062C00017E00EA240F2DC510DA0FEF76FFF01288F
:1062D00009D1FF210F48FEF766F800200E49A1F80A
:1062E0000602012010BD601C84B24FF47A7004F0E5
:1062F00057FE032CE5DB0020F4E700004F4B0000C5
:1063000041542B4A4F494E3D312C312C31322C31E6
:1063100030000000FE0B0020F80A002010B5002419
:106320000EE009A240F2DC5108A0FEF73FFF012871
:1063300000D110BD601C84B24FF47A7004F030FEBE
:10634000032CEEDB0020F4E74F4B000041542B4FB1
:106350005441413D312C30003EB5044600250EA28B
:1063600007CA8DE8070022460EA1684606F0C2F86B
:106370000EE010A240F2DC516846FEF717FF01283C
:1063800000D13EBD681C85B24FF47A7004F008FE5F
:10639000032DEEDB0020F4E741542B504F52543DC7
:1063A0003230000041542B504F52543D253032784A
:1063B000000000004F4B000030B58DB0182107A839
:1063C000FDF7F1FF182101A8FDF7EDFF002040497E
:1063D000096821F4406101433D4A883AC2F88810B7
:1063E00000BF01201146C96D0143D1651146C96D39
:1063F0000140009100BF00BF022002F0BFFF4FF438
:10640000406001900220029003200390002004903D
:10641000012005900820069001A92E4803F05EF99E
:1064200006F0E4F805460022114604F051FE044649
:106430002146462006F00AF9462006F0BDF84FF442
:10644000E13007900020089009900A900C200B90F2
:1064500000200C9007A9204803F0B4FA1E4800BFA2
:1064600000BF00BF50E8002F42F0200140E80012BA
:10647000002AF7D100BF00BF174800BF00BF00BF10
:1064800050E8002F42F4807140E80012002AF7D152
:1064900000BF00BF00BF01200F49086200BF00BF5E
:1064A0000846006840F00100086000BF00BF00BF60
:1064B0000948C069C0F340500028F8D000BF064822
:1064C000C069C0F380500028F1D00DB030BD00008D
:1064D00088100240000400480080004000B589B0E8
:1064E0000EF072F900200690079008901821684677
:1064F000FDF759FF012002F033FF022002F030FFC8
:10650000042002F02DFF01200190032002900020C2
:10651000039004904FF4004000906946F54803F062
:10652000DDF8102000906946F24803F0D7F801200A
:1065300000906946EF4803F0D1F8022000906946C8
:10654000EC4803F0CBF8082000906946EA4803F0D5
:10655000C5F8022000906946E74803F0BFF8042020
:1065600000906946E44803F0B9F84FF48040009089
:106570006946E04803F0B2F84FF480500090694655
:10658000DC4803F0ABF84FF4005000906946D9485E
:1065900003F0A4F8082000906946D64803F09EF85E
:1065A0004FF4807000906946D24803F097F84FF49A
:1065B000007000906946CF4803F090F802200090E8
:1065C00069464FF0904003F089F84FF40041C94804
:1065D00003F01FF94FF40041C64803F01AF90121F6
:1065E000C44803F016F90221C24803F012F9082149
:1065F000C14803F00EF90221BF4803F00AF9042153
:10660000BD4803F006F94FF48041BA4803F001F9A0
:106610004FF48051B74803F0FCF84FF40051B548EF
:1066200003F0F7F80821B34803F0F3F84FF4807152
:10663000B04803F0EEF84FF40071AE4803F0E9F80B
:1066400002214FF0904003F0E4F800200190049004
:106650000120009069464FF0904003F03FF802207F
:106660000490042000906946A24803F037F8002007
:1066700004904020009069464FF0904003F02EF8BF
:106680008020009069464FF0904003F027F81020DA
:10669000009069464FF0904003F020F820200090D1
:1066A00069464FF0904003F019F88021924803F0BA
:1066B000BAF84021904803F0B6F84FF480714FF0DB
:1066C000904003F0B0F8802000900120019000205D
:1066D0000290039004906946874802F0FFFF402033
:1066E00000906946844802F0F9FF4FF480700090F2
:1066F00069464FF0904002F0F1FF4FF48070009037
:1067000000200190049069467B4802F0E7FF4FF4B7
:10671000007000906946784802F0E0FF4FF4702165
:10672000002003F0E7FD002201214FF0904003F02C
:1067300094F8002201214FF0904003F07AF80120F4
:1067400006908DF8200000208DF8210003208DF8A0
:10675000220006A802F0FEFE4FF07061012003F057
:10676000C9FD02220421634803F077F800220421C6
:10677000604803F05EF80420069001208DF82000A8
:1067800000208DF8210003208DF8220006A802F0D9
:10679000E1FE5A49002003F0ADFD012240214FF0F7
:1067A000904003F05AF8002240214FF0904003F04F
:1067B00040F84020069001208DF8200000208DF840
:1067C000210003208DF8220006A802F0C3FE4C49E8
:1067D000002003F08FFD012280214FF0904003F054
:1067E0003CF8002280214FF0904003F022F88020F6
:1067F000069001208DF8200000208DF82100032054
:106800008DF8220006A802F0A5FE3E49002003F004
:1068100071FD022210214FF0904003F01EF800227B
:1068200010214FF0904003F004F810200690012052
:106830008DF8200000208DF8210002208DF8220024
:1068400006A802F087FE3049002003F053FD022223
:1068500020214FF0904003F000F8002220214FF05B
:10686000904002F0E6FF2020069001208DF82000E5
:1068700000208DF8210002208DF8220006A802F0E9
:1068800069FE0021062005F0B9FE062005F072FE23
:106890000021082005F0B2FE082005F06BFE002163
:1068A0000A2005F0ABFE0A2005F064FE0021172047
:1068B00005F0A4FE172005F05DFE012213491448DF
:1068C00007F071F9134A0321114807F051F81048F5
:1068D00007F082F901221049104807F064F9104AC4
:1068E00003210E4807F044F80C4807F075F909B089
:1068F00000BD000000040048000800480100000F2F
:10690000010000F001000F000100F000AD48010897
:10691000540A002019B40008B94801087C0A002074
:10692000A1B4000830B58FB01C2108A8FDF73BFDCD
:10693000182102A8FDF737FD4FF4403003F0A8F905
:106940004FF480402749096E0143264A11661146DB
:10695000096E0140019100BF00BF012002F00EFD51
:106960004FF4C060029002200390032004900020A6
:106970000590012006900720079002A94FF0904053
:1069800002F0ACFE05F032FE05460122002104F0C3
:106990009FFB04462146252005F058FE252005F0E2
:1069A0000BFE4FF416500890002009900A900B90AF
:1069B0000C200C9000200D900E9008A90A4803F0BE
:1069C00037FE094803F0D5FD074803F013FE0648DB
:1069D00003F021FE044803F012FE034803F0C6FD55
:1069E0000FB030BD001002400038014030B58FB00C
:1069F0001C2108A8FDF7D7FC182102A8FDF7D3FC3D
:106A00004FF4401003F044F94FF480202E49896D73
:106A100001432D4A91651146896D0140019100BFE6
:106A200000BF042002F0AAFC302002900220039054
:106A30000320049000200590012006900720079075
:106A400002A9224802F04AFE05F0D0FD05460022C8
:106A5000012104F03DFB04462146272005F0F6FD08
:106A6000272005F0A9FD4FF4E1300890002009909F
:106A70000A900B900C200C9000200D900E9008A90D
:106A8000134803F0D5FD124803F073FD00BF104812
:106A9000806840F480500E49886000BF00BF0846FF
:106AA000806820F40050886000BF084603F0A2FD13
:106AB000074803F0B0FD064803F0A1FD044803F0C9
:106AC00055FD0FB030BD0000001002400008004826
:106AD0000048004000B587B0224803F053FD00BFD6
:106AE0002048006820F001001E49086000BF4FF4F4
:106AF00080201D49896C81431B4A916400BF272077
:106B0000002817DB00F01F0201219140174A4309BA
:106B100042F8231000BF00BF00BFBFF34F8F00BF7C
:106B200000BF00BF00BF00BF00BFBFF36F8F00BF3B
:106B300000BF00BF00BF182101A8FDF734FC0420EE
:106B400002F01CFC302001900320029000200590F0
:106B500001A9074802F0C2FD30200549886200BF44
:106B600007B000BD004800400010024080E100E096
:106B70000008004830B595B004460D46142110A811
:106B8000FDF711FC202108A8FDF70DFC182102A833
:106B9000FDF709FC012002F01BFC681E80B2ADF875
:106BA000400000201190601E12900020139010A948
:106BB0004FF0804003F01AFC00BF4FF080400068A7
:106BC00020F080004FF08041086000BF00208968FD
:106BD0002A4A114001434FF08042916000BF60207B
:106BE00008900120099000200A900B900C9008AAB0
:106BF0001021880603F076FC1021880603F038FC8B
:106C000000204FF08041496821F0700101434FF0AE
:106C10008042516000BF00BF1046806820F08000B5
:106C20001146886000BF01201549C96C0143144A10
:106C3000D1641146C96C0140019100BF00BF022020
:106C400002900390032004900020059006900120FC
:106C5000079002A94FF0904002F040FD01211C2056
:106C600005F0E0FC1C2005F096FC10208106096A66
:106C700001438206116200BF15B030BDF8BFFEFFB0
:106C8000001002402DE9F04105460E464FF4FA642B
:106C900004FB06F06421B0FBF1F720460421FFF766
:106CA00069FF3846A106886300BF084603F094FBDD
:106CB000A00603F096FBA8B20DF0ECFA00BFA00608
:106CC000C06820F00400A106C86000BF084603F0B9
:106CD00033FB02204FF09041886200BFBDE8F08195
:106CE00070B504462046FDF77BFB85B22946204659
:106CF00000F002F870BD0000F0B5002205460EE07D
:106D0000084B1646571CBAB2AC5D1C8500BF00BFCD
:106D100000BF044BDB69C3F38013002BF8D08A4219
:106D2000EEDBF0BD0080004000BFFEE72DE9F04142
:106D300005460E4600240027A046002002E0295CFC
:106D40000C44401C711E8142F9DC2046E11704EB23
:106D500011610912A4EB0121CFB2701E285CB84268
:106D60000BD007A108A002F05FFA701E2A5C39461A
:106D700007A002F059FA4FF001084046BDE8F08143
:106D80005741524E000000000A5B25735D00000071
:106D900063616C206572726F722073756D5B256420
:106DA0002D25645D000000002DE9F04105460E46EA
:106DB0001746294608A002F037FA002404E0315DA6
:106DC0000AA002F031FA641CBC42F8DB09A002F010
:106DD0002BFABDE8F08100000A556172742044610D
:106DE0007461205B25735D3A00000000202530327D
:106DF000780000000A000000704701B5002106E09D
:106E0000642100BF081EA1F1010291B2FAD1BDF8C0
:106E10000000421E92B200920028F1D108BD00008D
:106E200010B5AA480079C0F38010002836D0A748D2
:106E3000007920F04000A549087108468079C0F328
:106E4000C000A3490968C1F38001884226D01420FC
:106E50000DF020FA9D488079C0F3C0009C49096874
:106E6000C1F38001884219D0994800688008974989
:106E7000897960F3C30195488171807B052802DA26
:106E800005209249887393A193A002F0CDF98F4811
:106E90008079C0F3C00192A002F0C6F98B48007956
:106EA000C0F3001000283FD08848007920F010007F
:106EB0008649087108468079C0F300104FF0904170
:106EC0000969C1F3801188422ED014200DF0E2F937
:106ED0007E488079C0F300104FF090410969C1F3FA
:106EE0008011884220D04FF0904000698009774996
:106EF000897960F3041175488171807920F001006F
:106F0000401C724988710846807B052801DA0520FB
:106F1000887370A170A002F087F96C488079C0F383
:106F2000001177A002F080F968480079C0F34010A2
:106F300000283FD06548007920F02000634908719F
:106F400008468079C0F340104FF090410969C1F3C1
:106F5000C01188422ED014200DF09CF95B48807936
:106F6000C0F340104FF090410969C1F3C01188424D
:106F700020D04FF090400069C0095449897960F3EE
:106F8000451152488171807920F00100401C4F4921
:106F900088710846807B052801DA052088734DA199
:106FA0004DA002F041F949488079C0F340115DA03D
:106FB00002F03AF945488079C0F300104FF0904153
:106FC0000969C1F38011884206D04048007920F059
:106FD000100010303D4908713C488079C0F34010E2
:106FE0004FF090410969C1F3C011884206D037487B
:106FF000007920F020002030344908713348807A2D
:10700000002838D031488079C0F3001020B92F48CB
:107010008079C0F34010C0B12C488079C0F3800063
:10702000002828D12948807920F00400001D274934
:10703000887128A128A002F0F7F824488079C0F3CD
:10704000800141A002F0F0F815E020488079C0F3FB
:10705000800080B11D48807920F004001B498871B0
:107060001CA11DA002F0E0F818488079C0F380014F
:1070700035A002F0D9F83B4800683B4909688842CE
:1070800010D81248408AC0EB00103749096801EB5C
:107090008000344908600D48807920F00100401CD0
:1070A0000A4988710948C07A78B100200749C87236
:1070B00008A109A002F0B8F82CA002F0B5F80CF075
:1070C000E7FA002001498882C88210BD340A0020F6
:1070D000100400484C4F47000A5B25735D00000018
:1070E000424C4520436F6E6E656374205374617427
:1070F00065204368616E676520546F202564000039
:10710000496E736572743120436F6E6E65637420CF
:107110005374617465204368616E676520546F2005
:1071200025640000496E736572743220436F6E6E81
:10713000656374205374617465204368616E67658C
:1071400020546F2025640000506F776572205374BF
:10715000617465204368616E676520546F20256403
:1071600000000000140000204400002044657669FF
:107170006365205A65726F204576656E7400000065
:1071800010B52848007800F00100002844D02648B7
:10719000B0F8040100283FD12448007828B3FF212B
:1071A0002148FDF700F9DC212148FDF7FCF8204CCF
:1071B0000122204920480CF089FF1E480278214610
:1071C0001D480CF083FF0EF061FC18480078401E4B
:1071D000C0B21649087038B94FF47A711748FDF7F4
:1071E000E2F815480CF0CCFF16E01548807900F065
:1071F000010088B11248807920F00100104988719F
:1072000000F024F80E48408AC0EB00100D490968D0
:1072100001EB80000C49086001F058F9FFF700FE0F
:1072200010BD000010140020F80A002010000020FB
:10723000640700201C000020440600205C0200209F
:10724000340A0020440000201400002070B5474D8F
:107250000024DC212846FDF7A6F8002044490870E8
:10726000294601200EF042FD04462544404800789E
:1072700020443F490870294603200EF037FD04469C
:1072800025443B48007820443949087029463C2071
:107290000EF02CFD0446254435480078204434493E
:1072A0000870294640200EF021FD04462544304850
:1072B000007820442E490870294641200EF016FD22
:1072C000044625442A480078204429490870294664
:1072D00042200EF00BFD044625442548007820444A
:1072E00023490870294643200EF000FD044625443A
:1072F0001F48007820441E490870294686200EF059
:10730000F5FC044625441A480078204418490870C2
:1073100029468A200EF0EAFC0446254414480078E9
:1073200020441349087013480CF060FE06461048CC
:107330000078401C864210DB01220D490D480CF0FC
:107340004FFF0B48027809490A480CF049FF0A48E8
:107350000078401C0849087006E008A109A001F067
:1073600063FF0AA001F060FF70BD00006407002009
:107370001C00002044060020100000204552524FFF
:10738000520000000A5B25735D0000004C777262BA
:1073900020416C72656164792046756C6C00000058
:1073A0002DE9F04102250026DC216D48FCF7FBFFAA
:1073B00000206C4908706C480CF018FE07463D2010
:1073C000674908700024A4E004EB4401674800EB1F
:1073D0008100007A00287DD0701CC6B204EB440105
:1073E000624810F821202846691CCDB25C490A5435
:1073F00004EB44015D4800EB810042782846691C9B
:10740000CDB257490A5404EB4401584800EB8100BF
:1074100082782846691CCDB251490A5404EB4401D4
:10742000524800EB81004089020A2846691CCDB20F
:107430004B490A5404EB44014C4800EB8100827A2A
:107440002846691CCDB246490A5404EB440147481A
:1074500000EB8100C2782846691CCDB240490A542D
:1074600004EB4401414800EB810002792846691C85
:10747000CDB23B490A5404EB44013C4800EB810087
:1074800042792846691CCDB235490A5404EB4401BF
:10749000364800EB810082792846691CCDB230491C
:1074A0000A5404EB4401314800EB8100C2792846BC
:1074B000691CCDB22A490A54042E28D108464670C8
:1074C0002848057028480CF091FD074625480078AB
:1074D000401C00E01BE0874210DB012221492248CA
:1074E0000CF07EFE1F4802781D491F480CF078FE04
:1074F0001F480078401C1E49087006E01DA11FA00F
:1075000001F092FE1FA001F08FFE02250026601CF4
:10751000C4B2102CFFF658AF002E1FDD1048467085
:10752000104805700078401C874210DB01220D498D
:107530000D480CF055FE0B48027809490A480CF03A
:107540004FFE0B480078401C0949087006E009A16D
:107550000AA001F069FE0BA001F066FEBDE8F08113
:10756000640700201C000020440600206406002060
:10757000100000204552524F520000000A5B257354
:107580005D0000004C77726220416C726561647925
:107590002046756C6C00000010B5012002F092F8D6
:1075A000D0B1012001F070FF0C484079C0F34000D9
:1075B00058B10A48407920F002000849487108464D
:1075C000007920F00200801C08710448807B0528A7
:1075D00002DA05200149887310BD0000340A00203A
:1075E00010B54FF4006002F06DF8B0B14FF40060D8
:1075F00001F04AFF09484079C0F3400030B1074824
:10760000407920F00100401C044948710348807B08
:10761000052802DA05200149887310BD340A0020CC
:1076200010B5042002F04EF878B1042001F02CFFD0
:107630000648007920F040004030044908710846AF
:10764000807B052801DA0520887310BD340A0020EC
:1076500010B5102002F036F8002843D0102001F0B9
:1076600013FF21484079C0F34000A0B31E48407981
:1076700020F002001C4948710846007920F00400FF
:10768000001D087119480068408958B11748006802
:10769000407A012806D11548B0F8E800401C13498B
:1076A000A1F8E8001248807838B11148808820B1EC
:1076B0000F48C088401C0E49C8800B48007A00F073
:1076C000010020B90848808A401C074988824FF48D
:1076D000FA70054908820448807B052802DA0520F3
:1076E0000149887310BD0000340A002060060020A4
:1076F0005407002010B5202001F0E4FF002843D0FB
:10770000202001F0C1FE35484079C0F34000A0B30D
:107710003248407920F0020030494871084600792B
:1077200020F00800083008712D480068408958B1E1
:107730002B480068407A012806D12948B0F8E800B3
:10774000401C2749A1F8E8002648807838B1254830
:10775000808820B12348C088401C2249C8801F4827
:10776000007A00F0020020B91C48C08A401C1B4966
:10777000C8824FF4FA70194908821848807B05289E
:1077800002DA052015498873402001F09BFF78B18B
:10779000402001F079FE1148007920F010001030EF
:1077A0000E4908710846807B052801DA0520887398
:1077B000802001F087FF78B1802001F065FE074846
:1077C000007920F020002030044908710846807BB1
:1077D000052801DA0520887310BD0000340A002056
:1077E000600600205407002010B54FF0805001F0D3
:1077F000FDFD4FF400400D49896821F4004101432B
:107800000A4A916000BF02200949096821F0070176
:107810000143074A116000BF00BF0648006840F0FE
:1078200004000449086000BF30BF10BD00100240D2
:107830000070004010ED00E030B587B00025164C18
:1078400016490020CDE90410012204A9204600F0C9
:10785000ABFADDE9041070EA010119D000200090B4
:10786000019002900390009001200190A4F100602B
:10787000C00A02900120039001F03AFB00BF06A964
:10788000684601F0ADF90028F9D101F099FA00BF7E
:10789000284607B030BD000000F8030878563412BF
:1078A0001B49087F012801D0032816D1194909680E
:1078B00021F40071174A116000BF1146096841F4B4
:1078C000006111601146096821F40061116000BF78
:1078D0001146096841F400711160022801D00328A3
:1078E00011D100BF0B49096841F48051094A116068
:1078F0001146096821F48051116000BF11460968E2
:1079000041F4806111600021014A11777047000045
:10791000640100200020024000F0010129B1064965
:10792000496941F00401044A51610349496941F43C
:107930008031014A516170470020024070B54FF01C
:107940000064057805F0010575B10B4D6D6AC5F34E
:107950000E0304EBC3050D60074DAD6AC5F30E03BE
:1079600004EBC305ED1D1560034E0568B66A06F00D
:1079700000463543056070BD002002400648006A9D
:10798000C1B2AA2903D0CC2901D0BB20704702483C
:10799000006AC0B2FAE70000002002400249086A0B
:1079A00020F0FF00704700000020024050B90C4B4F
:1079B000DB6A03F07F030B60094BDB6AC3F306430A
:1079C00013600BE0012809D1054B1B6B03F07F030B
:1079D0000B60034B1B6BC3F306431360704700003F
:1079E000002002402DE9F04704460E4617464CF2AF
:1079F000503000F09DFB8046B8F1000F30D14FF0C1
:107A0000006504F00100A0B1701B4FEAD0091648D0
:107A1000406A6FF30E0040EA090013494862781B80
:107A20004FEAD0090846806A6FF30E0040EA090069
:107A300088620D48816A204661F31E000A49886207
:107A40000846406940F4003048614CF2503000F084
:107A50006FFB80460448406920F4003002494861C9
:107A60004046BDE8F08700000020024070B50446A3
:107A70004CF2503000F05CFB0546B5B90C48006A8A
:107A800020F0FF0020430A4908620846406940F49C
:107A9000003048614CF2503000F04AFB0546044883
:107AA000406920F4003002494861284670BD00005A
:107AB000002002402DE9F04104460D460026002733
:107AC0004CF2503000F034FB8046B8F1000F7FD10B
:107AD00004F0010020B105F4E060064347F4E067DC
:107AE00004F0020020B105F48050064347F48057AB
:107AF00004F0040020B105F40050064347F4005799
:107B000004F4805020B105F48040064347F48047D8
:107B100004F0080020B105F48030064347F48037B4
:107B200004F0100020B105F40030064347F400379C
:107B300004F0200020B105F48020064347F480279C
:107B400004F0400020B105F40020064347F400276C
:107B500004F4007020B105F40000064347F4000768
:107B600004F4806020B105F08070064347F0807710
:107B700004F4006020B105F00070064347F0007780
:107B800004F4005020B105F08060064347F08067A0
:107B900004F4804020B105F00060064347F0006720
:107BA0000D48006AB84330430B49086208464069F3
:107BB00040F4003048614CF2503000F0B9FA804691
:107BC0000548406920F40030034900E000E04861C6
:107BD0004046BDE8F0810000002002402DE9F04160
:107BE00004460D4616464CF2503000F0A1FA074606
:107BF00037BB4CB91448C06A20F07F1045EA0641F3
:107C000008431149C8620AE0012C08D10E48006BF4
:107C100020F07F1045EA064108430B4908630A48F3
:107C2000406940F40030084948614CF2503000F09F
:107C30007FFA07460448406920F400300249486151
:107C40003846BDE8F081000000200240094A526930
:107C500022F47E72C3B242EAC302064B5A611A464C
:107C6000526942F002025A611A46526942F4803265
:107C70005A6170470020024010B50849496941F037
:107C80000101064C6161026000BF00BF00BFBFF38D
:107C90006F8F00BF00BF00BF436010BD00200240D7
:107CA000F0B50246402314460D460C4E766946F464
:107CB00080260A4F7E6100BFEFF31086304672B611
:107CC00000BF2E682660241D2D1D5E1EF3B2002B02
:107CD000F7D100BF80F3108800BFF0BD0020024044
:107CE00010B596B01D4C0A2202A9204600F05CF89F
:107CF0001A23DDE90210594001430FD118490498B5
:107D0000C87106980872089848720A98887289792A
:107D10000C9860F38201124881710CE00020104938
:107D2000C87108722820487200208872084680793D
:107D300020F0040088710BA10CA001F075FA08482E
:107D40008079C0F3800000900548437A027AC179B7
:107D5000084801F069FA16B010BD000000100308D1
:107D6000340A0020464C4153480000000A5B25734A
:107D70005D000000C488010810B5094C18220949AB
:107D8000204600F011F80748001F0079FF2803D1B2
:107D9000C0210448FCF707FB0BF07AFC10BD000083
:107DA0000008030864060020F0B503461C460020C6
:107DB00006E02568666801EBC00760C70834401C10
:107DC0009042F6DBF0BD000010B52DA001F02CFABA
:107DD0003BA001F029FA4AA001F026FA0D22114633
:107DE00057A001F021FA00F01DF90DF047FD0DF04C
:107DF0000FFA0FF029FB00F0D3F8FFF7BDFFFFF7F4
:107E00006FFFFFF719FD10225D495E48FCF7B0FADD
:107E10005C4808385C490A680260496841600B3870
:107E20005A490968C0F82310102259492730FCF735
:107E30009FFA1022574953482430FCF799FA5648C4
:107E40008079C0F3800020B101204E49133981F8B8
:107E500048000020514908704F48007920F0400048
:107E600040304D4908710846007920F0100010306C
:107E700008710846007920F020002030087110BDFC
:107E80000A2A2A2A2A2A2A2A2A2A2A2A2A2A2A2A72
:107E90002A2A2A2A2A2A2A2A2A2A2A2A2A2A2A2A42
:107EA0002A2A2A2A2A2A2A2A2A2A2A2A2A2A2A2A32
:107EB0002A2A2A2A2A2A2A2A2A2A2A2A2A0A000096
:107EC0002A2A2A2A2A2A2A2A2A2A2A2A2A2A2A2A12
:107ED0002A2A2A2A2A2A2A2A2A2A2A2A2A2A2A2A02
:107EE0002A2A2A2A2A2A2A2A2A2A2A2A2A2A2A2AF2
:107EF0002A2A2A2A2A2A2A2A2A2A2A2A0A00000080
:107F00002A2A2A2A2A2A2A2A2A2A2A2A2A2A2048BD
:107F10004B543A20536F6C656E6F69642056616CE8
:107F2000766520436F6E74726F6C6C6572202A2ABE
:107F30002A2A2A2A2A2A2A2A2A2A2A2A0A0000003F
:107F40002A2A2A2A2A2A2A2A2A20484152445741E0
:107F500052455F5645523A20307825303258202C11
:107F6000534F4654574152455F5645523A20307858
:107F700025303258202A2A2A2A2A2A2A2A2A0A007E
:107F800014010020231400200C01002024010020F3
:107F90002801002038010020340A00201D000020A4
:107FA0001CB50F4C012269462046FFF7FDFE0D4926
:107FB000009848820846408AB0F5B46F03DC084652
:107FC000408A012802DA3C200649488206A108A01E
:107FD00001F02AF90348418A07A001F025F91CBDE8
:107FE00000000308340A0020464C415348000000BA
:107FF0000A5B25735D0000005265616420466C6178
:10800000736820446576696365205265706F727489
:1080100020496E74657276616C203A2025646D6922
:108020006E0D0A0030B52DED028B83B0244D012278
:1080300069462846FFF7B8FE009C1A2C05DDB2EE13
:10804000000A204880ED060A22E0192C05D1B0EE86
:108050000C0A1C4880ED060A1AE01A2C05D1B1EE74
:10806000060A184880ED060A12E00D2C07DA00EE29
:10807000104AB8EEC00A134880ED060A08E0C4F1C1
:108080000C0000EE100AB8EEC00A0E4880ED060A99
:108090000DA10FA001F0C8F80A4890ED060A10EEF5
:1080A000101A0846FCF77BFC41EC180B53EC182B1C
:1080B00009A001F0B9F803B0BDEC028B30BD00009F
:1080C00000180308340A0020464C415348000000C1
:1080D0000A5B25735D0000005265616420466C6197
:1080E00073682054696D65205A6F6E653A20252E9D
:1080F0003166000010B53C200B4948820020C87151
:1081000008722820487200208872F4210748FCF782
:108110004AF900200549086000F0F2F800F09AF8EA
:1081200000F04EF810BD0000340A00206006002068
:1081300070B5054600F0F4FE064608E0681C30B154
:1081400000F0EEFE801BA84201D3032070BD194849
:10815000006900F480300028F0D116480069164903
:1081600000EA0104CCB11548406820431349486037
:1081700000BF04F0404030B10E48806904F0404137
:1081800008430C49886124F0404018B124F0404075
:108190000849086100BF0120D8E70648006900F0DF
:1081A000010020B100BF01200249086100BF00208A
:1081B000CCE7000000200240FAC302006401002066
:1081C00030B59BB00025214C502106A8FCF7EBF8F8
:1081D0001A210020CDE906101D48C0790021CDE903
:1081E00008011B48007ACDE90A011948407ACDE917
:1081F0000C011748807ACDE90E0115488079C0F34B
:108200008000CDE9100100200190029003900490BD
:10821000019001200290A4F10060C00A03900120A7
:10822000049000F065FE00BF05A901A800F0D8FC8D
:108230000028F9D10A2206A9204600F035F80546A3
:1082400000F0BEFD28461BB030BD00000010030842
:10825000340A002030B585B00025114C0020009074
:10826000019002900390009001200190A4F1006021
:10827000C00A02900120039000F03AFE00BF04A95A
:10828000684600F0ADFC0028F9D1182205492046C7
:1082900000F00AF8054600F093FD284605B030BD11
:1082A00000080308640600202DE9F05F81460D46B2
:1082B00092464FF0000B4E4600241AE005EBC40036
:1082C000D0E900733A463146002000F0B1FD834604
:1082D000BBF1000F08D13168706805EBC4030CCB0B
:1082E00051405840014302D0012000F006B8083642
:1082F000641C5445E2DB0020F7E730BCBDE8C09FBA
:1083000030B589B00025144C1448408A0021CDE9CD
:10831000060100200190029003900490019001203A
:108320000290A4F10060C00A03900120049000F0C4
:10833000DFFD00BF05A901A800F052FC0028F9D11B
:10834000012206A92046FFF7AFFF054600F038FDE1
:10835000284609B030BD000000000308340A0020A0
:1083600070B52DED028B88B000263B4D00243B48B4
:1083700090ED060A10EE101A0846FCF710FB41ECCF
:10838000180B9FED370B53EC102BFCF71BFB01D1A7
:1083900019243BE0314890ED060A10EE101A084609
:1083A000FCF7FDFA41EC180B9FED2F0B53EC102B53
:1083B000FCF708FB01D11A2428E0284890ED060AB2
:1083C000F2EE0A0AB4EEE00AF1EE10FA07D290EDEE
:1083D000060ABCEEC00A10EE100AC4B216E01F482E
:1083E00090ED060AF3EE080AB4EEE00AF1EE10FA98
:1083F0000CD290ED060AF2EE080A30EE600AB1EEF9
:10840000400ABCEEC00A10EE100AC4B20020CDE94A
:108410000640019002900390049001900120029088
:10842000A5F10060C00A03900120049000F060FDF7
:1084300000BF05A901A800F0D3FB0028F9D1012253
:1084400006A92846FFF730FF064600F0B9FC304683
:1084500008B0BDEC028B70BD00180308340A002080
:108460000000000000000C4000000000000016406A
:1084700030B589B00025134C13490020CDE9061012
:108480000190029003900490019001200290A4F1C9
:108490000060C00A03900120049000F029FD00BF95
:1084A00005A901A800F09CFB0028F9D1012206A92A
:1084B0002046FFF7F9FE054600F082FC284609B089
:1084C00030BD000000F803087856341210B5FE489D
:1084D0008079C0F34000002879D1FB484079C0F38F
:1084E000C00060B1F848407920F00800F6494871B2
:1084F000F6A000F099FE4FF47A70FC490880F2482B
:108500004079C0F30010A0B1EF48407920F010008E
:10851000ED494871F6A000F087FEFD48007800F0B4
:10852000010030B1E848807920F00100401CE649A4
:108530008871E5484079C0F3401048B3E24840797B
:1085400020F02000E0494871F2A000F06DFEDE4806
:108550008079C0F3800058B1DB48807920F00400B6
:10856000D9498871322140F6B830FEF78BFB0FE015
:10857000D548807920F00400001DD349887132214C
:108580004FF47A70FEF77EFB0120E14981F8480044
:10859000CD484079C0F3801050B3CB48407920F0EB
:1085A0004000C9494871E2A000F03EFEC64880790B
:1085B000C0F3800060B1C448807920F00400C24953
:1085C0008871322140F6B830FEF75CFB10E04BE0DA
:1085D000BD48807920F00400001DBB49887132211C
:1085E0004FF47A70FEF74EFB0120C94981F848002C
:1085F000B5484079C0F3801048B3B348407920F0C3
:108600004000B1494871CAA000F00EFEAE48807922
:10861000C0F3800058B1AC48807920F00400AA492A
:108620008871322140F6B830FEF72CFB0FE0A648E7
:10863000807920F00400001DA349887132214FF495
:108640007A70FEF71FFB0120B14981F848009E486F
:108650004079C00940B19C48407920F080009A4997
:108660004871B9A000F0E0FD97484079C0F3800060
:10867000D0B19548407920F0040093494871B9A0E1
:1086800000F0D2FDFFF736FD40F6B830974908807C
:108690003221C820FEF7F6FA4FF4FA700BF0FAFD1B
:1086A0003221C820FEF7EEFA8748007A00287DD0F4
:1086B0008548007A81287AD006DC012809D0022872
:1086C00032D0032874D158E0822872D08328F9D19F
:1086D000C9E17D488079C0F380104FF0904109696D
:1086E000C1F3001188421ED04FF4FA700BF0D2FD96
:1086F00075488079C0F380104FF090410969C1F34B
:10870000001188420FD04FF09040006900096E4977
:10871000897960F386116C488171807920F00100BD
:10872000401C694988714DE24FF090400069C0F3E8
:10873000401065498979B0EBD11F1DD04FF4FA7014
:108740000BF0A8FD4FF090400069C0F340105E4967
:108750008979B0EBD11F0FD04FF0904000694009EC
:108760005949897960F3C71157488171807920F0A0
:108770000100401C5449887124E253488079C0F3B9
:1087800080104FF090410969C1F30011884223D055
:108790004FF4FA700BF07EFD4B488079C0F38010E7
:1087A0004FF090410969C1F3001103E00BE23CE096
:1087B00007E2FAE088420FD04FF0904000690009CC
:1087C0004149897960F386113F488171807920F0B1
:1087D0000100401C3C4988714FF090400069C0F393
:1087E000401039498979B0EBD11F1DD04FF4FA7090
:1087F0000BF050FD4FF090400069C0F3401032493B
:108800008979B0EBD11F0FD04FF09040006940093B
:108810002D49897960F3C7112B488171807920F047
:108820000100401C28498871CCE14FF0904000695C
:10883000C0F3001050490978884207D12248807956
:10884000C0F380104C490978884202D003201E49A9
:1088500088734FF090400069C0F3001046490978D2
:10886000884212D014200BF015FD4FF090400069A3
:10887000C0F3001040490978884206D04FF090407C
:108880000069C0F300103C4908700AF035FA3B4912
:108890000968884276D90AF02FFA00F57A703749CC
:1088A000086009488079C0F380103349097888420C
:1088B0007AD033480078401CC0B231490870024970
:1088C000497A884270DB5EE0340A00200A427574FF
:1088D000746F6E2050726573732053686F727420CA
:1088E00048616E646C65720A000000002000002080
:1088F0000A427574746F6E20507265737320446FF2
:1089000075626C652048616E646C65720A000000D7
:10891000101400200A427574746F6E2050726573D3
:1089200073204C6F6E672048616E646C65720A003C
:108930000A53656E7365204C6F6E672048616E64E4
:108940006C65720A000000000A427574746F6E2034
:10895000507265737320486F6C642048616E646C5C
:1089600065720A000A44657669636520446566613C
:10897000756C740A00000000320000202C000020FA
:108980003000002010E0904801789048807961F331
:1089900086108E4988710846807920F00100401CBD
:1089A000887100208A4908700CE14FF090400069FE
:1089B000C0F3401087490978884206D183488079FE
:1089C00084490978B1EBD01F02D003207F49887316
:1089D0004FF090400069C0F340107E49097888420A
:1089E00012D014200BF056FC4FF090400069C0F3F9
:1089F000401078490978884206D04FF090400069CD
:108A0000C0F34010734908700AF076F9724909689A
:108A1000884227D90AF070F900F57A706E4908602B
:108A20006A4880796B490978B1EBD01F1AD06B483E
:108A30000078401CC0B2694908706449497A88428C
:108A400010DB644801786148807961F3C7105F49A1
:108A500088710846807920F00100401C8871002050
:108A60005E490870AEE04FF090400069C0F300101E
:108A700055490978884217D154488079C0F380104D
:108A80005149097888420FD14FF090400069C0F3F6
:108A9000401050490978884206D14C4880794D49A8
:108AA0000978B1EBD01F02D00320484988734FF0FA
:108AB00090400069C0F3001043490978884212D001
:108AC00014200BF0E7FB4FF090400069C0F300105A
:108AD0003D490978884206D04FF090400069C0F3C4
:108AE0000010394908704FF090400069C0F3401001
:108AF00038490978884212D014200BF0CBFB4FF094
:108B000090400069C0F3401032490978884206D08D
:108B10004FF090400069C0F340102E4908700AF0F1
:108B2000EBF82D49096888424AD90AF0E5F800F5C2
:108B30007A702949086025488079C0F3801022495D
:108B4000097888421AD022480078401CC0B22049D7
:108B500008701E49497A884210DB1B4801781B487F
:108B6000807961F38610194988710846807920F070
:108B70000100401C88710020154908701348807955
:108B800014490978B1EBD01F1AD014480078401C62
:108B9000C0B2124908700D49497A884210DB0D486D
:108BA00001780A48807961F3C7100849887108463E
:108BB000807920F00100401C88710020074908706E
:108BC00000E000BF00BF10BD32000020340A0020CA
:108BD00030000020330000202C0000203100002055
:108BE0002DE9F04104460F4600BF3C4800780128BB
:108BF00002D10220BDE8F08101203849087000BF91
:108C00004CF25030FFF794FA0646002E5ED13349FD
:108C100048603348006800F4007090B13048006844
:108C200000F4806048B12E48006820F480602C4930
:108C3000086003202949087715E0012027490877B3
:108C400011E02748006800F4806048B124480068BB
:108C500020F480602249086002202049087702E061
:108C600000201E490877206801280ED16068FEF7B1
:108C700053FE4CF25030FFF75BFA06461848406945
:108C800020F00400164948611EE04FF0FF303860C4
:108C9000A56813E028466168FEF7D8FF4CF2503013
:108CA000FFF746FA06460E48406940F2FA3188431B
:108CB0000B4948610EB13D6005E06D1CD4E902012D
:108CC0000844A842E6D800BFFEF7EAFD00BF002036
:108CD0000249087000BF30468CE7000064010020A4
:108CE0000020024010B5044606202060606810B1E4
:108CF0006068012809D1206840F00100206004F17B
:108D00000C02111F6068FEF751FEFEF737FE20616E
:108D1000FEF744FEA061E069012809D1206840F017
:108D20000800206004F12402111F081FFEF706FE50
:108D300010BD000070B50446002500BF1F48007834
:108D4000012801D1022070BD01201C49087000BF1C
:108D500000204860207800F0010028B1201D07C8DD
:108D6000FEF73CFF00B10125207800F0020020B1A1
:108D70002069FEF77BFE00B10125207800F0040099
:108D800028B1D4E90501FEF795FE00B10125207850
:108D900000F0080050B1D4E90801884206D0D4E9B7
:108DA0000812E069FEF71EFE00B1012500BF002099
:108DB0000249087000BF2846C5E700006401002092
:108DC0000348406940F00040014948610020704775
:108DD0000020024010B50548406940F0006003499A
:108DE00048614CF25030FFF7A3F910BD002002405B
:108DF0000348406940F080400149486100207047C5
:108E0000002002400748406900F0804028B1064831
:108E10000449C8600548C86001E00120704700208F
:108E2000FCE70000002002403B2A19087F6E5D4CE1
:108E30002DE9F0470446884615461E464FF00009C6
:108E400000BF29480078012802D10220BDE8F08740
:108E500001202549087000BF4CF25030FFF768F937
:108E60000746002F38D1204948602048006800F4A8
:108E7000806048B11D48006820F480601B4908608C
:108E800002201949087702E00020174908773CB909
:108E90002A4633464046FEF7EFFE4FF001090BE04D
:108EA000012C01D0022C07D129464046FEF7F8FEDE
:108EB000022C01D14FF480294CF25030FFF738F9E1
:108EC0000746B9F1000F05D00848406920EA0900BB
:108ED00006494861FEF7E4FC00BF00200249087023
:108EE00000BF3846B2E700006401002000200240C5
:108EF00000200849496901F0004151B10649054A7D
:108F00009160064991601146496901F0004101B143
:108F1000012070470020024023016745AB89EFCD57
:108F200001480068704700005801002003480068AD
:108F30000349097808440149086070475801002036
:108F40006001002000BFFEE710B58EB01C2107A80D
:108F5000FBF729FA182101A8FBF725FA4FF4402066
:108F6000344A02EB10610A68040C0323A3409A43BD
:108F7000C3B2040CA3401A430A6000BF022000F0F1
:108F800019FA4FF400102B498839896D0143294A99
:108F9000883A91651146896D0140009100BF00BF7C
:108FA000C020019002200290032003900120049031
:108FB000002005900420069001A91F4800F08EFBB8
:108FC00000BF1E48406840F000701C49486000BF68
:108FD00000BF0846C06820F40040C86000BF00BF62
:108FE0000846006820F40020086000BF00BF084663
:108FF000006820F40030086000BF0020079010488F
:109000000890002009900A900B900C900D9007A9F1
:109010000A4800F060FC00210846084AD26840F285
:10902000FE739A4341EA00031A43044BDA6000BF1F
:109030000EB010BD881002400004004800540040EB
:109040005B3D30002DE9FC4104460E4615461F46A7
:10905000DDF8208000BF224800F081FC0028FAD112
:109060001F4800F095FC10B91D4800F00FFC1D488A
:109070000021CDE9001061002B460022184800F0C5
:109080000AFC00BF164800F079FC0028FAD02946F7
:10909000304600F093F800BF00BF11488069C0F36C
:1090A00080100028F8D010484FF00071CDE9001072
:1090B000012000EB440143460022094800F0EBFB8D
:1090C0004146384600F062F800BF054800F051FC08
:1090D0000028FAD0024800F0D4FBBDE8FC81000073
:1090E0000054004000200080002400802DE9FC4155
:1090F00004460E4615461F46DDF8208000BF214875
:1091000000F02DFC0028FAD11E4800F041FC10B9F7
:109110001C4800F0BBFB1C48C102CDE900106100F7
:109120002B460022174800F0B6FB00BF154800F0A0
:1091300025FC0028FAD02946304600F03FF800BF51
:1091400000BF10488069C0F3C0100028F8D000208C
:109150004FF00071CDE90010610043460246094816
:1091600000F099FB4146384600F048F800BF05483A
:1091700000F0FFFB0028FAD0024800F082FBBDE8B7
:10918000FC810000005400400020008070B50546BE
:109190000E4600240CE000BF074800F0E5FB002865
:1091A000FAD000BF0448406AC0B22855601CC4B25F
:1091B000B442F0DB70BD0000005400402DE9F041E6
:1091C00004460D46E6B2C4F30727012D04D131460B
:1091D000094800F0E2FB0DE03946074800F0DDFBEE
:1091E00000BF054800F0CFFB0028FAD03146024806
:1091F00000F0D3FBBDE8F0810054004070B5054697
:109200000E4600240BE000BF064800F0BCFB00281F
:10921000FAD0295D034800F0C0FB601CC4B2B44220
:10922000F1DB70BD005400400FB438B5049818B19C
:109230000498FBF7D5F810B938BC5DF814FB05A805
:1092400000900748009A049903F082F9054600202F
:109250000090034CA9B2204600F004F800BFEBE7F1
:10926000161100202DE9F04104460D460026274640
:109270000CE03046721C96B2395C064801F05AFA8E
:1092800000BF044801F04CFA0028FAD0AE42F0DBEF
:10929000BDE8F0810048004000B58BB000BF4CF63F
:1092A000CC402C49086000BF00BF45F25550086013
:1092B00000BF0620486000BF4FF6FF70C0F30B01EF
:1092C000244A916000BF00BF00BF2248C06800F080
:1092D000070008B9012000E000200128F4D100BFF8
:1092E0004AF6AA201B49086000BF1B48806840F46A
:1092F0000060194988600846806840F480508860A2
:1093000001A8FFF7EFFC079800F4403000B30420F9
:10931000019018200690079820F440300790FFF73E
:10932000E7FD00BF4FF400400C49086100BFFFF7A4
:1093300069FD01A8FFF7FEFC08B103F0BBF9FFF7D8
:1093400049FD08B103F0B6F9FFF752FDFFF738FD0C
:109350000BB000BD00300040002004E000200240BF
:1093600008B50549C96C0143034AD1641146C96C6B
:109370000140009100BF08BD0010024008B505493A
:10938000C96C0143034AD1641146C96C0140009184
:1093900000BF08BD0010024008B50549C96C014373
:1093A000034AD1641146C96C0140009100BF08BD59
:1093B0000010024008B50549C96C0143034AD16455
:1093C0001146C96C0140009100BF08BD0010024069
:1093D00008B50549896D0143034A91651146896DB8
:1093E0000140009100BF08BD0010024008B50549CA
:1093F000896D0143034A91651146896D01400091D1
:1094000000BF08BD001002400249896B0143014AB8
:1094100091637047001002400249896B0143014A81
:1094200091637047001002400249896B0143014A71
:1094300091637047001002400249896B8143014AE1
:1094400091637047001002400249896B8143014AD1
:1094500091637047001002400249896B8143014AC1
:1094600091637047001002400249096C0143014AB0
:1094700011647047001002400249096C8143014A9F
:1094800011647047001002400149086070470000F5
:1094900014040140024909688143014A1160704780
:1094A00004040140024909688143014A1160704780
:1094B00024040140024909688143014A1160704750
:1094C00000040140024909688143014A1160704764
:1094D00020040140024909680143014A11607047B4
:1094E00004040140024909680143014A11607047C0
:1094F00024040140024909680143014A1160704790
:109500000C040140024909680143014A1160704797
:109510002C040140024909680143014A1160704767
:1095200000040140024909680143014A1160704783
:1095300020040140024909680143014A1160704753
:1095400008040140024909680143014A116070475B
:109550002804014070B504460025207A00287BD0FD
:10956000206800284BD0607A20B1012809D0022859
:1095700015D10DE02068FFF78DFF2068FFF7CAFFC7
:109580000FE02068FFF796FF2068FFF7A3FF08E0D1
:109590002068FFF7BFFF2068FFF79CFF01E001256F
:1095A00000BF00BFA07A50B3A07A012804D00228DF
:1095B0000DD003281FD117E0206841490968814375
:1095C0003F4A116000BF2068FFF7B4FF16E0206833
:1095D0003B49091F09688143394A121F116000BFC6
:1095E0002068FFF787FF09E02068FFF7A3FF2068E6
:1095F000FFF780FF02E045F0020500BF00BF606892
:1096000000285AD0607A20B1012809D0022815D14B
:109610000DE06068FFF746FF6068FFF783FF10E02A
:109620006068FFF74FFF6068FFF75CFF09E0606864
:10963000FFF778FF6068FFF755FF02E045F004058B
:1096400000BF00BFA07A58B3A07A012805D0022835
:1096500010D0032822D11AE023E060681849203195
:1096600009688143164A2032116000BF6068FFF725
:1096700069FF15E0606812491C3109688143104A8E
:109680001C32116000BF6068FFF73CFF08E06068B3
:10969000FFF758FF6068FFF735FF01E0012500BFC5
:1096A0000BE02068FFF706FF2068FFF7F3FE606815
:1096B000FFF708FF6068FFF7F5FE284670BD000061
:1096C0000C0401400146044800680840884201D16A
:1096D000012070470020FCE714040140F0B5024669
:1096E0000B46186890FAA0F0B0FA80F487E00120E9
:1096F000A0401D6805EA000100297FD058680128B4
:1097000002D0586802281DD19868956891FAA1F690
:10971000B6FA86F677000326BE40B54391FAA1F665
:10972000B6FA86F6760000FA06F63543956000BF75
:10973000DD6818685668864300FB05F73E435660AF
:1097400000BF00BF1869D56891FAA1F6B6FA86F68F
:1097500077000326BE40B54391FAA1F6B6FA86F625
:10976000760000FA06F63543D56000BF5868022837
:109770002DD1FF2914D85869156A91FAA1F6B6FAC5
:1097800086F6B7000F26BE40B54391FAA1F6B6FAA9
:1097900086F6B60000FA06F63543156200BF16E0FD
:1097A0005869556A0E0A96FAA6F6B6FA86F6B70012
:1097B0000F26BE40B5430E0A96FAA6F6B6FA86F60E
:1097C000B60000FA06F63543556200BF00BF586880
:1097D000156891FAA1F6B6FA86F677000326BE4020
:1097E000B54391FAA1F6B6FA86F6760000FA06F6C7
:1097F0003543156000BF00E000E000BF641C18683E
:10980000E04000287FF473AFF0BD81627047816251
:1098100070478162704781627047816270478161E1
:1098200070478161704781617047816170478161D4
:10983000704730B5036891FAA1F4B4FA84F4650076
:109840000324AC40A34391FAA1F4B4FA84F4640075
:1098500002FA04F42343036030BD30B5C36891FAC3
:10986000A1F4B4FA84F465000324AC40A34391FA54
:10987000A1F4B4FA84F4640002FA04F42343C3604C
:1098800030BDC16941F02001C1617047016841F0FC
:10989000010101607047F0B5DDE9055446684FF4F9
:1098A000806707EA545740F6FF3C47EA0C0747F445
:1098B000C04747F0807747F47F0747F0007747F4C9
:1098C0008057BE4341EA020747EA03472F43274335
:1098D0003E434660F0BD30B5024600BF106820F040
:1098E0000100106000BFD1E90203146824F4F854A9
:1098F00040EA03252C43146000BF4868106100BF94
:1099000000BF106840F00100106000BF00BF906809
:1099100020F40040906000BF8B69086994686FF381
:109920000A0440EA03052C43946000BF086930B183
:1099300000BF906840F40040906000BF00BF08681E
:10994000136823F440130343136000BF486953684E
:1099500023F400430343536000BF002030BD0146A1
:109960008869C0F3C030704701468869C0F3800041
:10997000704701468869C0F3401070470146886906
:1099800000F00100704701468869C0F3400070474D
:109990000146086800F001007047816270474FF48B
:1099A0007A71B0FBF1F2521E4FF0E0235A610022AF
:1099B0009A6105221A6100BF7047416841F00201B7
:1099C000416070472DE9F05F04460D464FF0010BF2
:1099D00000BF206800F00100002838D1E9686868FD
:1099E00008432969084321681A4A11400843206046
:1099F000A868616821F440510143616000BF686953
:109A0000A16821F440710143A16000BF4FF44060A0
:109A100000F030F88146B9F1000F18D02868B0B1D5
:109A20004FF0000BCA462E687EB14FF48070AAFB3F
:109A3000003071085F1840F10001324600233846BB
:109A4000FAF7C2FB04490840E06000BF00BF584677
:109A500000F004B8F3E9FFEFFFFF0F0030BCBDE8F2
:109A6000C09F000002480068C0F30020704700005B
:109A7000007000402DE9F0410446002500BF164863
:109A800000682040C0B1B0F5806F06D0B0F5006F1F
:109A900007D0B0F5406F19D108E001F07BFD054615
:109AA00015E000F0B5F800B10C4D10E000F0B8F88A
:109AB00008B14FF400450AE001F06CFD074601F0E3
:109AC00035FD064601F042FD054600E000BF00BF3F
:109AD0002846BDE8F0810000881002400024F40010
