:020000040000FA
:1040000070190120C142000069A30000E3400000D4
:1040100000000000000000000000000000000000A0
:10402000000000000000000000000000E54000006B
:1040300000000000000000000D4100001F430000D0
:10404000EB400000EB400000A5AA0000EB400000A0
:10405000EB400000EB400000EB400000EB400000B4
:10406000EB40000011B90000EB400000BDB90000BA
:1040700029BA0000A5BA0000E5BA0000EB40000034
:10408000699700000D94000000000000EB40000064
:1040900015970000EB400000EB400000EB400000F3
:1040A000EB400000EB400000EB400000B96B00006B
:1040B000EB400000EB400000398B0000EB400000BB
:1040C0000448854600F02CFF00480047156E0100AB
:1040D000C046C04670190120044880470448004784
:1040E000FEE7FEE7FEE7FEE7FEE7FEE721B600009B
:1040F000C140000000202A4A106062B629482A49BF
:104100000860BFF34F8FBFF36F8FFEE72748284A41
:1041100000230168002915D00360EFF30983103BE9
:10412000F0C344464D4656465F46203BF0C3143B21
:1041300075461D608B601F4C2568002D02D08D6177
:104140000025256072B61168002914D0016062B69E
:104150004F68184C8D697F1C4F6025608B681D6807
:104160001B1DAE46F0CBBB46B246A946A046F0CBDF
:1041700083F30988704772B611680160002909D17C
:104180000FB418F047FA0FBC0FB418F051FA0FBC77
:1041900062B6F0E7084F044D2F6062B6D8E7000022
:1041A000BC0300200000001004ED00E0A00300208C
:1041B000A4030020FC03002000000008026907237C
:1041C0009A43443A0B4B1360002353609360D360CF
:1041D000136153619361D361136253629362D3623B
:1041E00013635363044B9363D163044B1364826082
:1041F00070470000FDFFFFFFFFFFFFFF0000000111
:1042000023490868401C0860224B1A68002A06D01F
:10421000521E1A60002A02D11F4B012018601F494C
:1042200008680268002A03D01D4B01221A6007E0CB
:10423000001D1C4B1A68904201D11B4B1868086086
:10424000154B1A68002A03D11549086800281BD0AD
:1042500001B513490868002801D00AF085FF0E4B0C
:104260001A68002A0ED00AF051FE10480168002991
:1042700008D10F4801680F4A13680F480F4A994246
:1042800000D0026003BC8E46BFF34F8F7047000022
:10429000CC030020FC030020D0030020DC0300201E
:1042A000E0030020D8030020D4030020BC0300203A
:1042B000A0030020A403002004ED00E00000001093
:1042C00072B61B48004772B61A481B49091D0160A7
:1042D0001A481B4901601B481B4A104418490160D9
:1042E0001A481749096801601648194941610721B0
:1042F000016118491348184A1044016017491148D0
:10430000174A1044016017490E48174A10440160CB
:104310007047FEE7FEE701B503BC8E46704701B566
:10432000FFF76EFF03BC8E467047FEE7FEE7000016
:10433000C1400000300300207019012008ED00E0AA
:104340000040000000E000E0080D00009C03002099
:10435000FF7C000000000000180D0000000000FFBE
:104360001C0D00000000FF40200D000030B50B4682
:10437000014600202022012409E00D46D5409D423F
:1043800005D31D469540491B2546954040191546C5
:10439000521E002DF1DC30BD70B5002425460028EA
:1043A00001DA01244042002901DA01254942FFF7E0
:1043B000DDFFAC4200D04042002C00D0494270BD2D
:1043C00010B5024900F004F810BD000040F10020D3
:1043D00070B50C4600683C21FFF7C8FF21603C2106
:1043E000FFF7C4FF61601821FFF7C0FF0546A16019
:1043F0000721001DFFF7BAFFA1610F48A9000818A7
:104400000E49FFF7B3FF0246443288086261E0615B
:104410003B2802D3910700D0401C0021084B0A46DC
:104420002161995C814203D8401A521C2261F8E74D
:10443000401CE060204670BD6C0B0000B50500001C
:10444000C0D7010038B50446C0681821401E484353
:10445000A16840183C214843616840183C2148430A
:104460002168451860690C21484321694018692179
:10447000C900401A3021FFF78FFF114A50434219FB
:10448000084600921A2902DB0E49511800910C21AE
:10449000FFF782FF0C4A5043009A801800900B48A7
:1044A00006E0491E425C074B5A43009BD21800921B
:1044B0000029F6DC21466846FFF78AFF009838BDE0
:1044C000801F8607805101008033E101CCD70100B5
:1044D00010B5441A0346944209D28318891803E0A0
:1044E000491E0C785B1E1C70521EF9D210BD0C4682
:1044F0000443A40703D009E010C9121F10C3042A03
:10450000FAD203E00C781C70491C5B1C521EF9D2D5
:1045100010BDD2B201E00270401C491EFBD27047B0
:104520000022F6E710B513460A4604461946FFF77F
:10453000F0FF204610BD421E5378521C002BFBD1C9
:104540000B781370491C521C002BF9D1704730B501
:1045500005462A460B4610781C78521C5B1C002826
:1045600001D0A042F7D0002C03D0002802D06D1C4F
:10457000EFE7284630BD421C0178401C0029FBD1E2
:10458000801A704710B5002200E0521C835C8C5CDE
:10459000A34201D1002BF8D1D8B2E1B2401A10BD2C
:1045A00030B504460020034600E05B1C934203D272
:1045B000E05CCD5C401BF8D030BD30B50546002036
:1045C000034600E05B1C934205D2EC5CC85C201AF9
:1045D00001D1002CF6D130BD70B5104D002800D1AE
:1045E0002868002414E00A4602E09E4203D0521CD0
:1045F0001378002BF9D1DAB2224307D0002B06D072
:10460000002C04D000210170401C04E00446401C32
:104610000678002EE7D12860204670BD04040020F3
:1046200070B5064608F03AF8046805460A220021EB
:10463000304600F07DFB2C6070BDF8B502464A4064
:10464000D40F42004B0052085B089A4202D2024645
:10465000084611464A0023D0C30D4A00DDB2120EAF
:10466000AD1A202D35DA49020126490AF6058A19C4
:10467000002C00D0524220214F1B1146B9402A4144
:104680001018C20D9A4221D0002C17D0012D08DC41
:10469000DA05801AD20F8019D207DBB200F088FB4E
:1046A000F8BDDA05801A012340001B06C0188018E7
:1046B0005A428018CA0F1043490007E04908C20750
:1046C0001143DA05801A80194008801800F068FB51
:1046D000F8BD61000122511A001BF7E70122D20741
:1046E0005140AAE70122D2075040A6E7024670B522
:1046F0004A40D30FDB0740002DD04A002AD0010EDC
:10470000140E000212020919400A520A8418E50127
:1047100004465443000A120A2E045043A4194219B5
:10472000200CC543AA18120C0125AD03521C5219C6
:1047300012047F39240400D0521C104301D44000DD
:10474000491EC2B20C06C0092018401C4008802A2D
:1047500002D003E0002070BD40084000002900DACC
:104760000020184370BD70B502464A40D50F400086
:104770004A00ED0740085208002814D0002A12D041
:10478000C40DD30D41020120C0055202490A520A4C
:10479000E41A091812187D34914201D3641C00E018
:1047A0004900002C01DA002070BD0023914201D3A2
:1047B000891A0343400849000028F7D100290AD08C
:1047C000914202D10121C90705E0914201D20121A4
:1047D00001E00121C943E005C018401900F0E0FAEA
:1047E00070BD0000F0B507460846584087B0C00FBE
:1047F000049048000E46590040084908BC1A8841F8
:1048000005D2384631461E4617460B46024658002A
:10481000400810434DD0300D039040055900400D25
:10482000490D0590401A0290402873DA18030121BF
:10483000000B09050843019004980092002806D057
:104840001146019A4942002090410091019002983E
:1048500040210A1A0199009800F036FA05460C46E4
:104860006B4607CB00F051FAC0197141039A0E0D47
:104870000023D71756401A467A40164344D0049A6C
:10488000002A2DD0029A012A039A15DC1205C01ABB
:10489000914101263605001C7141D20F059ED207B9
:1048A0000093019202962A46234600F0C7FA07B009
:1048B000F0BD38463146FAE71605234A0F46B218CE
:1048C000C01AB74101210905001C4F4100187F4162
:1048D000114618187941E20F10436D19644113E035
:1048E000E2076D0815436408C2071443039A0126C2
:1048F0001205C01A91413605001C7141CE074008CF
:1049000030434908C01851412A46234600F089FA2D
:10491000CDE7FFE7049801224000C117121A0023D7
:104920008B4104983146C417381AA141EEE730B4E0
:104930000124E407634030BC54E730B40124E407A9
:10494000614030BC4EE700000000E0FFF0B51FB44E
:1049500088B00B990998002448400999C00F490074
:1049600049080991C0070B990090490049080B912B
:1049700009990898A64608431CD00B990A98084341
:1049800018D0099801244000420D4800410D0998B3
:1049900024050003000B204309900B980003000B33
:1049A00020430B9050181C494018002201901446D7
:1049B000104605E0002001460DB0F0BD032801DAE5
:1049C000034600E003239C46C11A0AAE0AE05F00DA
:1049D00008ADED5B4F00F75B7D430027AA187C41D3
:1049E000491C5B1E6145F2DD410004AB5A522104B3
:1049F000120C0A43240C401C0828DFDB01980290AB
:104A00000099704601910090059B049A07990698B9
:104A100000F014FAD0E700000DFCFFFFF0B50C46E3
:104A20005C4085B0E40FE40703944C000026640862
:104A300059009446490802460296224321D0624614
:104A40000A431ED06200570D4A000E032303550D82
:104A5000012402462C492405781B1B0B360B4018F9
:104A600023432643614600901C46501AB44103D3A9
:104A70000098401C009002E0921800985B410028CA
:104A800003DA0020014605B0F0BD00200121090530
:104A90000746864611E064461D46141BB54106D301
:104AA0006546521BB341744607430C43A646CD07E7
:104AB00040084908284392185B4105460D43EAD156
:104AC0001046184313D060461946504071400843C1
:104AD00006D06046101AB34106D20122002306E038
:104AE00000220123DB0702E00122D2435310009889
:104AF00074460105381C6141029C039D00196941FF
:104B000000F08FF9BFE70000FD030000C217C10FDE
:104B1000504010B54018CA079623002100F048F90C
:104B200010BD10B500229623114600F041F910BDCA
:104B3000C20F410040020123400ADB05D207090EE3
:104B4000C0187F2901DA00207047962903DC9623DC
:104B5000591AC84001E096398840002AF4D04042F2
:104B60007047410040020122400AD205090E801818
:104B70007F2901DA00207047962903DC9622511A1A
:104B8000C840704796398840704700004A000903C2
:104B90000123090B1B051943094B10B5520D9A420D
:104BA00001DA002010BD064B34339A4203DC9A1A16
:104BB00000F09AF810BD03495118884010BD00005C
:104BC000FF030000CDFBFFFFC20FD20740004008EB
:104BD0000BD0C10D0723DB01C91840020905400AAB
:104BE0001143C20840071143704700200146704737
:104BF00010B5002904DB0124E40740428C41214622
:104C0000002B04DB1C460123DB075242A3418B42ED
:104C100000D1824210BD000010B5002904DB012440
:104C2000E40740428C412146002B04DB1C46012353
:104C3000DB075242A341994200D1904210BD0000CF
:104C40000122D207002800DB101A002900DB511ACC
:104C5000814270470122D207002800DB101A002988
:104C600000DB511A88427047F0B51FB40646002099
:104C700082B005464024019100901BE00199224634
:104C80000F46304600F030F8049A059B801A99418F
:104C900010D310461946224600F016F8361A8F41F6
:104CA0000197224601200021009F00F00DF83818DE
:104CB0004D4100902046641E0028DFDC019B0098D7
:104CC0002946324607B0F0BD10B5202A04DB014664
:104CD000203A9140002010BD914020239C1A0346A9
:104CE000E3401943904010BD10B5202A04DB08466C
:104CF000203AD040002110BD0B46D340D0402024A4
:104D0000A21A91400843194610BD10B5202A06DBAF
:104D1000CB170846203A1041C1170B4306E00B465B
:104D20001341D0402024A21A91400843194610BDD7
:104D3000F7B5009C0F4600262578641C002D05D091
:104D400000F000F90068405DC007F5D12B2D02D0BE
:104D50002D2D18D0641E39462046029A00F005F920
:104D6000002F04D03968A14201D100993960710542
:104D7000022400290BDA4042002803DD07F08EFCF4
:104D80000460A007FEBD012080020643E3E700287F
:104D9000F8DA07F083FC04600048FEBDFFFFFF7FE8
:104DA000002904DA401C490001D140084000704746
:104DB00070B40024050C05D11024000402D1002990
:104DC00021D01124050E01D100020834050F01D1B4
:104DD0000001241D850F01D18000A41C002801DBE7
:104DE0004000641C002908D020252E1B0D46F540EC
:104DF000A14000D001212943084301061B1B000AE2
:104E0000DB1D02D5002070BC7047DB051818801828
:104E10000029F8DA401C4900F5D170BC4008400078
:104E2000704710B5002B08DA0024401C614192182D
:104E30005B411A4301D14008400010BDF0B51FB4DA
:104E400082B005460C0003D0084607F0A7FA02E03E
:104E500007F0A4FA20300246009021462846FFF7CA
:104E600033FF049B059A04460F4618431143084339
:104E700014D0184610431BD0009840210A1A184637
:104E80000599FFF731FF05460E46009A05990498EB
:104E9000FFF71AFF084305D0012004E020463946F9
:104EA00007B0F0BD0020C11705430E432C43374324
:104EB00000990E986305401A7905E40A00220C4314
:104EC000FD0A0A3002D500200146E9E70105101964
:104ED00069410C9C0D9D00196941FFF7A2FFDFE7B6
:104EE0004A0009030123090B1B0519430A4B10B59E
:104EF000520D9A4202DA0020014610BD064B3433AF
:104F00009A4203DC9A1AFFF7EFFE10BD034BD2184A
:104F1000FFF7DAFE10BD0000FF030000CDFBFFFF2E
:104F2000064C0125064E05E0E36807CC2B430C3CFC
:104F300098471034B442F7D3FFF7C6F8DCE6010017
:104F4000FCE60100004870475CD801003A2800D216
:104F50003038202302469A43412A01D3104637387D
:104F6000884201D30020C0437047F7B582B0029C4D
:104F700000272078641C15460197302802D0002DA8
:104F800015D015E020780127641C782804D0582813
:104F900002D0002D09D00BE0002D01D0102D07D13B
:104FA000002710252078641C02E0082500E00A256F
:104FB0000026009610E00099012769430818020CAA
:104FC000294680B2714300908E183804864201D37E
:104FD000012001902078641C2946FFF7B7FF0028C4
:104FE000E9DA0398002805D0002F01D0641E00E004
:104FF000029C04600198002806D007F04FFB0221B4
:105000000160C81E05B0F0BD009930040843F9E7FF
:1050100070B58C180578401C6B075B0F01D10378C5
:10502000401C2A1106D10278401C03E006780E705D
:10503000401C491C5B1EF9D12B0705D40023521ECE
:105040000DD40B70491CFAE70378401CCB1A921C54
:1050500003E01D780D70491C5B1C521EF9D5A1425E
:10506000D8D3002070BD0000F0B589B09448006826
:1050700094490968884201D909B0F0BD9148006897
:10508000914940188E4908600121904801F0E0FFE5
:105090000022012189038E4805F0B8F90121890316
:1050A0008B4803F095FE0121C903894801F01FFCDC
:1050B0000122D103864803F0E5FF012001F008FE3C
:1050C00007F0BAF8012007F0C9F8022007F0A4F8A9
:1050D000012007F08FF8062000F03EF9012000F0D3
:1050E00029F9002000F06AF97A4800F08FF90020D1
:1050F00000F040F9012000F04FF900F081F9142090
:1051000009F0C6FA0026002400BF15E000F078F987
:105110000020610003AA505200F080F9002809D154
:1051200000F05CF9610003AA5052600003A9085A1C
:10513000861900E002E0641C0C2CE7DB00BF0C2C9D
:1051400027D16846878980890290002417E0600093
:1051500003A9085AB84201DA384602E0600003A900
:10516000085A0746600003A9095A0298814201DDE6
:10517000029802E0600003A9085A0290641C0C2CFB
:10518000E5DBF21B0299501A0A21FFF7EFF80646F9
:1051900007E051A151A004F0B3F9214651A004F059
:1051A000AFF900220121C903494803F06BFF002039
:1051B00000F0C0F8002000F0EFF8002007F04EF8F3
:1051C000002001F085FD0121C903414803F0CCFD19
:1051D000012189033E4803F0F9FD304600F030F923
:1051E000FF218900484349100190FFF7BFF84500AF
:1051F000424885420ED3424885420BD23F49691A44
:105200006422514308464B210901FFF7AFF83D499D
:1052100008700CE03A48854206D33B48854203D2E9
:1052200064203849087002E000203649087035488B
:1052300000780A280EDC3548007800280AD10120C1
:10524000324908703248007902218843801C304975
:10525000087123E02D48007800280ED029480078F6
:1052600019280ADD002029490870294800790221FF
:105270008843801C2649087110E02248007825499F
:10528000097888420AD01F480078224908702048CF
:10529000007902218843801C1D4908711C4800794F
:1052A000022188431A4908710BA10CA004F028F9C7
:1052B00014480278294618A004F022F900BFDBE662
:1052C0002400002048000020805101000700000158
:1052D000800C0040FF0300004C4F47000A5B257321
:1052E0005D00000047657420426174746572792026
:1052F0004661696C5B25645D000000008813000056
:105300003818000004000020581B00000500002091
:10531000D07F00201800002047657420426174741B
:105320006572792025646D562C204C6576656C205D
:1053300025640000012806D106490969202211438D
:10534000044A116105E00349096920229143014A99
:105350001161704700FA01400146054A10690009D1
:1053600000010A07120F1043014A10617047000044
:1053700000FA0140012806D106490968802211433C
:10538000044A116005E00349096880229143014AFB
:105390001160704700FA0140012806D106490968EA
:1053A00001221143044A116005E0034909684908D4
:1053B0004900014A1160704700FA01400146064A5F
:1053C0001068042302469A43104604220A40104300
:1053D000014A10607047000000FA014001488068EF
:1053E00080B2704700FA01400448C068C007C00F8F
:1053F000002801D0012070470020FCE700FA01409E
:1054000001200149C860704700FA01404105490D7B
:10541000014A51607047000000FA014010B50024B5
:1054200009E0FFF7E1FF012801D1002010BD0120B4
:1054300009F02EF9641C0A2CF3DB0120F6E70000CA
:1054400070B50446002509498988614308467D21D5
:10545000C900FEF78BFF064604490620085E64215A
:10546000FEF79AFF3518284670BD000080FAFF1F2E
:10547000F7B582B00E46144600276420019004F070
:1054800085F810F0ADFF002806D134A135A004F056
:1054900037F836A004F034F87D21C9003948FFF709
:1054A0003FF8002038490883029804F085FD37A0B2
:1054B00004F082FD334D36A12046FFF748F800285E
:1054C00005D136A12046FFF742F8002800D0ED1D97
:1054D00033E022A12846FFF73AF800280AD01FA19E
:1054E00020A004F00DF830A0029904F009F8002083
:1054F00005B0F0BD32A12846FFF729F8002809D0F1
:1055000016A118A003F0FCFF30A0029903F0F8FFE9
:105510000020EDE701987843B04209DD32A111A0E7
:1055200003F0EEFF32A0029903F0EAFF0220DFE76A
:10553000019804F03BFD781C87B221462846FFF70E
:1055400006F80028C5D031A106A003F0D9FF30A08D
:10555000029903F0D5FF0120CAE700004552524FDF
:10556000520000000A5B25735D0000004C6F526121
:1055700057414E20537461747573204552524F4504
:1055800021000000CCBD00209CC100200D000000C7
:105590002B4C494E4B20494E464F3A002B52544318
:1055A00020494E464F3A0000222573222061742084
:1055B000636D642065786563206572726F720000A8
:1055C000424144205041524D0000000022257322E8
:1055D00020617420636D6420657865632062616476
:1055E000207061726D0000005741524E00000000B3
:1055F0002225732220617420636D642065786563C1
:105600002074696D656F7574000000004C4F470091
:105610002225732220617420636D642065786563A0
:1056200020737563636573730000000010B586B066
:1056300000243EE021A2224922A0FFF719FF012801
:1056400031D123A123A003F05BFF244924A003F060
:1056500057FF1023214A0E32082122480AF0C4FEC7
:105660001BA11CA003F04CFF1E480B38807C1D4979
:105670000B39497C1B4A0B3A127C1A4B0B3BDB7BE8
:10568000019302920391049016480B38807B00909E
:1056900014480B38437B027BC17A13A003F030FF20
:1056A000012006B010BD601C84B27D20C00004F053
:1056B0007DFC032CBEDB0020F3E700000D0A000098
:1056C000DC05000061742B6170706575693D3F00F9
:1056D0004C4F47000A5B25735D000000CCBD0020E5
:1056E00025730000C3DF00204150504555493A2042
:1056F0002530327820253032782025303278202528
:10570000303278202530327820253032782025300C
:10571000327820253032780010B58EB0002454E065
:105720002CA22D492DA0FFF7A3FE012847D132A1BD
:1057300032A003F0E5FE334933A003F0E1FE20235D
:10574000304A0E32102131480AF04EFE2AA12BA019
:1057500003F0D6FE2D48C27B807B2C49497B2B4B26
:10576000133BDB7F09930C920A910B902748133867
:10577000817F427F007F254B133BDB7E05930792A1
:105780000891069021481338807E204913394A7EBB
:10579000097E1E4B133BDB7D019303920291049023
:1057A0001A481338807D009018481338437D027DD5
:1057B000C17C174803F0A4FE01200EB010BD601C90
:1057C00084B27D20C00004F0F1FB032CA8DB002094
:1057D000F3E700000D0A0000DC05000061742B6196
:1057E00070706B65793D3F7777772E6C616E76656B
:1057F000652E636F6D0000004C4F47000A5B2573F8
:105800005D000000CCBD002025730000CBDF002030
:10581000ECD8010010B5002416E00DA20D490EA031
:10582000FFF726FE012809D10EA10FA003F068FEA4
:105830000F4910A003F064FE012010BD601C84B26B
:105840007D20C00004F0B2FB032CE6DB0020F4E76F
:105850000D0A0000DC05000061742B62616E643D7E
:105860003F0000004C4F47000A5B25735D000000BD
:10587000CCBD00202573000010B5002416E00DA259
:105880000D490EA0FFF7F4FD012809D10DA10EA0CE
:1058900003F036FE0E490FA003F032FE012010BDCA
:1058A000601C84B27D20C00004F080FB032CE6DB8A
:1058B0000020F4E70D0A0000DC05000061742B6392
:1058C000683D3F004C4F47000A5B25735D000000B8
:1058D000CCBD00202573000010B5002416E00DA2F9
:1058E0000D490EA0FFF7C4FD012809D10EA10FA09C
:1058F00003F006FE0F4910A003F002FE012010BDC8
:10590000601C84B27D20C00004F050FB032CE6DB59
:105910000020F4E70D0A0000DC05000061742B6331
:105920006C6173733D3F00004C4F47000A5B257369
:105930005D000000CCBD00202573000038B50024B8
:105940002CE018A2184919A0FFF792FD01281FD1D9
:105950001AA11BA003F0D4FD1B491CA003F0D0FD2D
:105960000823194A0F32042119480AF03DFD13A1FA
:1059700013A003F0C5FD1648C07800901448837842
:105980004278C01EC17813A003F0BAFD012038BDD3
:10599000601C84B27D20C00004F008FB032CD0DB27
:1059A0000020F4E70D0A0000DC05000061742B64A0
:1059B0006576616464723D3F000000004C4F470013
:1059C0000A5B25735D000000CCBD0020257300003C
:1059D000DBDF0020444556414444523A2025303212
:1059E00078202530327820253032782025303278E2
:1059F0000000000010B586B000243EE021A222493C
:105A000022A0FFF735FD012831D123A123A003F007
:105A100077FD244924A003F073FD1023214A0E32A0
:105A2000082122480AF0E0FC1BA11CA003F068FD3D
:105A30001E48C01E807A1D49C91E497A1B4AD21EC3
:105A4000127A1A4BDB1EDB790193029203910490C8
:105A50001648C01E807900901448C01E4379027910
:105A6000C17813A003F04CFD012006B010BD601CEE
:105A700084B27D20C00004F099FA032CBEDB002024
:105A8000F3E700000D0A0000DC05000061742B64E0
:105A900065766575693D3F004C4F47000A5B25738D
:105AA0005D000000CCBD002025730000BBDF00209E
:105AB0004465764555493A202530327820253032E4
:105AC0007820253032782025303278202530327801
:105AD0002025303278202530327820253032780069
:105AE00010B5002416E00DA20D490EA0FFF7C0FC72
:105AF000012809D10DA10EA003F002FD0E490FA04F
:105B000003F0FEFC012010BD601C84B27D20C000AB
:105B100004F04CFA032CE6DB0020F4E70D0A000049
:105B2000DC05000061742B64723D3F004C4F470060
:105B30000A5B25735D000000CCBD002025730000CA
:105B400010B5002416E00DA20D490EA0FFF790FC41
:105B5000012809D10EA10FA003F0D2FC0F4910A01B
:105B600003F0CEFC012010BD601C84B27D20C0007B
:105B700004F01CFA032CE6DB0020F4E70D0A000019
:105B8000DC05000061742B6972713D3F000000006C
:105B90004C4F47000A5B25735D000000CCBD002020
:105BA0002573000010B500241CE010A2104911A0BC
:105BB000FFF75EFC01280FD111A112A003F0A0FC99
:105BC000124913A003F09CFC12A11048FEF7BFFC81
:105BD000002801D0012010BD601C84B2FF20F530E8
:105BE00004F0E4F9032CE0DB0020F4E70D0A0000E8
:105BF000DC05000061742B6A6F696E3D3F00000098
:105C00004C4F47000A5B25735D000000CCBD0020AF
:105C1000257300002C6A6F696E65642C000000001B
:105C200010B500240CA20D490DA0FFF721FC01289E
:105C30000FD10EA10EA003F063FC0F490FA003F0DB
:105C40005FFC0FA10C48FEF782FC002801D0012068
:105C500010BD0020FCE700000D0A0000DC0500007C
:105C600061742B6A6F696E3D3F0000004C4F470026
:105C70000A5B25735D000000CCBD00202573000089
:105C80002C6A6F696E65642C0000000010B500245A
:105C900016E00DA20D490EA0FFF7EAFB012809D17D
:105CA0000EA10FA003F02CFC0F4910A003F028FC5C
:105CB000012010BD601C84B27D20C00004F076F984
:105CC000032CE6DB0020F4E70D0A0000DC050000F1
:105CD00061742B6C706370696E3D3F004C4F4700E0
:105CE0000A5B25735D000000CCBD00202573000019
:105CF00010B5002416E00DA20D490EA0FFF7B8FB69
:105D0000012809D10FA110A003F0FAFB104911A03E
:105D100003F0F6FB012010BD601C84B27D20C000A2
:105D200004F044F9032CE6DB0020F4E70D0A000040
:105D3000DC05000061742B6D61636D6F64653D3F30
:105D4000000000004C4F47000A5B25735D00000017
:105D5000CCBD00202573000010B5002416E00DA274
:105D60000D490EA0FFF784FB012809D10FA110A057
:105D700003F0C6FB104911A003F0C2FB012010BDC7
:105D8000601C84B27D20C00004F010F9032CE6DB17
:105D90000020F4E70D0A0000DC05000061742B749C
:105DA00072616E7366706F72743D3F004C4F4700B6
:105DB0000A5B25735D000000CCBD00202573000048
:105DC00010B5002416E00DA20D490EA0FFF750FB00
:105DD000012809D10EA10FA003F092FB0F4910A0DA
:105DE00003F08EFB012010BD601C84B27D20C0003A
:105DF00004F0DCF8032CE6DB0020F4E70D0A0000D9
:105E0000DC05000061742B7061726D3D3F00000085
:105E10004C4F47000A5B25735D000000CCBD00209D
:105E20002573000010B5002416E00DA20D490EA048
:105E3000FFF71EFB012809D10EA10FA003F060FBA4
:105E40000F4910A003F05CFB012010BD601C84B260
:105E50007D20C00004F0AAF8032CE6DB0020F4E764
:105E60000D0A0000DC05000061742B7278323D3FA2
:105E7000000000004C4F47000A5B25735D000000E6
:105E8000CCBD00202573000010B5002416E00DA243
:105E90000D490EA0FFF7ECFA012809D10EA10FA0C1
:105EA00003F02EFB0F4910A003F02AFB012010BDC8
:105EB000601C84B27D20C00004F078F8032CE6DB7F
:105EC0000020F4E70D0A0000DC05000061742B726D
:105ED00078313D3F000000004C4F47000A5B2573BE
:105EE0005D000000CCBD00202573000010B500242B
:105EF00016E00DA20D490EA0FFF7BAFA012809D14C
:105F00000FA110A003F0FCFA104911A003F0F8FA59
:105F1000012010BD601C84B27D20C00004F046F852
:105F2000032CE6DB0020F4E70D0A0000DC0500008E
:105F300061742B727863686578743D3F00000000DF
:105F40004C4F47000A5B25735D000000CCBD00206C
:105F50002573000010B5002416E00DA20D490EA017
:105F6000FFF786FA012809D10EA10FA003F0C8FAA5
:105F70000F4910A003F0C4FA012010BD601C84B2C8
:105F80007D20C00004F012F8032CE6DB0020F4E7CB
:105F90000D0A0000DC05000061742B736C656570F0
:105FA0003D3F00004C4F47000A5B25735D00000039
:105FB000CCBD00202573000010B5002416E00DA212
:105FC0000D490EA0FFF754FA012809D10EA10FA028
:105FD00003F096FA0F4910A003F092FA012010BDC9
:105FE000601C84B27D20C00003F0E0FF032CE6DBE0
:105FF0000020F4E70D0A0000DC05000061742B7638
:1060000065723D3F000000004C4F47000A5B25735E
:106010005D000000CCBD00202573000010B50024F9
:1060200014E00CA20C490DA0FFF722FA012807D1B9
:106030000D480078400840000B490870012010BD51
:10604000601C84B27D20C00003F0B0FF032CE8DBAD
:106050000020F4E76F6B0000DC05000061742B7218
:1060600065626F6F74000000B8DF002010B5002477
:1060700014E00CA20C490DA0FFF7FAF9012807D192
:106080000C480078400840000A490870012010BD03
:10609000601C84B27D20C00003F088FF032CE8DB85
:1060A0000020F4E76F6B0000DC05000061742B64D6
:1060B00065660000B8DF002010B58EB000241C22F9
:1060C00018A107A8FEF704FA1D48807C1C49497CEA
:1060D0001B4A127C1A4BDB7B0293039204910590BE
:1060E0001748807B1649497B009101901448037B37
:1060F000C27A14A107A806F025F90EE01CA21D49DA
:1061000007A8FFF7B5F9012801D10EB010BD601C3A
:1061100084B27D20C00003F049FF032CEEDB002099
:10612000F3E7000061742B6170706575693D464648
:106130004646464530303030303030303031000067
:10614000B8DF002061742B6170706575693D253082
:106150003278253032782530327825303278253043
:106160003278253032782530327825303278000088
:106170006F6B0000DC05000010B59AB000242C22E3
:1061800027A10FA8FEF7A4F93048C07B2F49897BCF
:106190002E4A527B2D4B133BDB7F0A930B920C91C3
:1061A0000D902A481338827F417F007F274B133B95
:1061B000DB7E069307AB07C324481338807E234950
:1061C0001339497E214A133A127E204B133BDB7D63
:1061D00002930392049105901C481338807D1B495B
:1061E0001339497D0091019018481338037DC27C12
:1061F00017490FA806F0A6F80EE016A216490FA838
:10620000FFF736F9012801D11AB010BD601C84B225
:106210007D20C00003F0CAFE032CEEDB0020F3E774
:1062200061742B6170706B65793D32423745313551
:1062300031363238414544324136414246373135B4
:10624000383830394346344633430000CBDF002032
:106250007CDC01006F6B0000DC05000008B505A0C8
:106260000068009004A2FF21F5316846FFF700F9AD
:10627000012008BD2B2B2B000D0A00001CB514A11A
:1062800003C90191009000241EE013A2134968463F
:10629000FFF7EEF8012811D111A112A003F030F997
:1062A000124913A003F02CF97D21C9000F48FEF715
:1062B00037F900200F49088301201CBD601C84B2FF
:1062C0007D20C00003F072FE032CDEDB0120F4E72A
:1062D00061742B65786974000D0A0000DC0500000C
:1062E0004C4F47000A5B25735D000000CCBD0020C9
:1062F000257300009CC1002030B585B00446002500
:1063000014216846FEF70CF9234611A214216846B1
:1063100005F0FCFF17E011A211496846FFF7A8F845
:1063200001280AD10FA110A003F0EAF810490AA031
:1063300003F0E6F8012005B030BD681C85B27D2071
:10634000C00003F033FE032DE5DB0020F3E700007F
:1063500061742B62616E643D257300006F6B0000F9
:10636000DC0500004C4F47000A5B25735D00000010
:10637000CCBD002030B589B00546002424220EA1F2
:106380006846FEF7A5F815A1684605F0DBFF0EE0AC
:1063900016A217496846FFF76BF8012801D109B02A
:1063A00030BD601C84B27D20C00003F0FFFD032CD3
:1063B000EEDB0020F3E7000061742B63683D6D6342
:1063C000682C3437303330303030302C323030308D
:1063D00030302C382C302C350000000061742B63D9
:1063E000683D65753836382C310000006F6B000051
:1063F000C40900003EB50446002515A207CA6B4635
:1064000007C3002C04D112A1684605F09BFF0CE0E5
:10641000012C04D111A1684605F094FF05E0022C7F
:1064200003D111A1684605F08DFF0DE011A21249BC
:106430006846FFF71DF8012800D13EBD681C85B2F3
:106440007D20C00003F0B2FD032DEFDB0020F4E758
:1064500061742B636C6173733D61000061742B6325
:106460006C6173733D62000061742B636C617373C4
:106470003D6300006F6B0000DC0500007CB5044646
:1064800000250EA103C90191009022460DA1684686
:1064900005F058FF0DE00EA20E496846FEF7E8FF32
:1064A000012800D17CBD681C85B27D20C00003F0AE
:1064B0007DFD032DEFDB0020F4E7000061742B6409
:1064C000723D300061742B64723D25640000000051
:1064D0006F6B0000DC0500001FB500240CA30FCB80
:1064E00003936B4607C30EE00DA20E496846FEF704
:1064F000BFFF012801D104B010BD601C84B27D2013
:10650000C00003F053FD032CEEDB0020F3E7000096
:1065100061742B6972713D726973652C35300000AE
:106520006F6B0000DC0500007FB5044600250FA35B
:106530000FCB6E460FC6002C03D010A1684605F0A5
:1065400001FF0EE011A212496846FEF791FF0128F3
:1065500001D104B070BD681C85B27D20C00003F07D
:1065600025FD032DEEDB0020F3E7000061742B6AAC
:106570006F696E3D6F7461612C31300061742B6303
:106580006C6173733D6162702C3130006F6B000081
:10659000DC0500007FB5044600250FA30FCB6E4637
:1065A0000FC6002C03D010A1684605F0CBFE0EE00C
:1065B00011A212496846FEF75BFF012801D104B021
:1065C00070BD681C85B27D20C00003F0EFFC032D78
:1065D000EEDB0020F3E7000061742B6A6F696E3D0B
:1065E0006F7461612C30000061742B636C61737394
:1065F0003D6162702C3000006F6B0000DC05000014
:1066000010B500240DE009A209490AA0FEF730FFE9
:10661000012800D110BD601C84B27D20C00003F0B1
:10662000C5FC032CEFDB0020F4E700006F6B0000DB
:10663000DC05000061742B6D6F64653D6D61630066
:1066400030B585B00446002514220EA16846FDF73A
:106650003FFF224610A1684605F074FE0EE013A22B
:1066600013496846FEF704FF012801D105B030BD8B
:10667000681C85B27D20C00003F098FC032DEEDB82
:106680000020F3E761742B7472616E7366706F7231
:10669000743D31300000000061742B7472616E73C0
:1066A00066706F72743D2564000000006F6B00001F
:1066B000DC05000070B586B004460D4600261422A5
:1066C0000EA101A8FDF704FF2B46224610A101A848
:1066D00005F038FE0EE012A2124901A8FEF7C8FE2E
:1066E000012801D106B070BD701C86B27D20C000AB
:1066F00003F05CFC032EEEDB0020F3E761742B72E9
:1067000078323D302C383639353235303030000073
:1067100061742B7278323D25642C256400000000E2
:106720006F6B0000DC05000010B586B00024182255
:106730000BA16846FDF7CCFE0EE00FA20F4968469C
:10674000FEF796FE012801D106B010BD601C84B290
:106750007D20C00003F02AFC032CEEDB0020F3E7D1
:1067600061742B727870726C656E3D6175746F2CFC
:1067700031353030000000006F6B0000DC05000098
:1067800030B595B0002434221C4908A8FDF7A0FEBE
:106790001B48007A01280ED01C221AA101A8FDF77F
:1067A00097FE01A8FDF7E7FE05462A4601A908A8BD
:1067B000FDF78EFE0EE0202219A16846FDF788FE47
:1067C0006846FDF7D8FE05462A46694608A8FDF743
:1067D0007FFE00BF0EE01AA21A4908A8FEF748FE85
:1067E000012801D115B030BD601C84B27D20C000ED
:1067F00003F0DCFB032CEEDB0020F3E7B8CC010058
:10680000D07F002061742B736C6565703D6C696787
:1068100068742C302C6C6576656C2C6C6F7700007E
:1068200061742B736C6565703D6C696768742C319D
:106830003530302C6C6576656C2C6C6F7700000001
:106840006F6B0000DC0500007FB506460D46144660
:106850006A462946304602F025F90098A84227D119
:106860006846C079002823D1E007C00F002803D173
:106870006846407900281BD1E007C00F002803D0EC
:1068800068464079012813D102202040002803D116
:106890006846807900280BD102202040002803D0D0
:1068A00068468079012803D16846007902281DD006
:1068B000029500206946C873E007C00F002801D187
:1068C000487302E0012069464873022020400028F6
:1068D00002D16946887302E001206946887302206C
:1068E0006946087302A9304602F0F8F97FBD7FB50A
:1068F00005460C466A462146284602F0D3F8009821
:10690000A0420FD16846C07900280BD16846407973
:10691000002807D168468079002803D168460079AD
:1069200003280BD0029400216846C1734173817320
:106930000321017302A9284602F0D0F97FBD0000AF
:1069400010B50120800700F0B1FA012000F09CFA98
:1069500001216B4800F07CFB01228021694802F094
:106960009FFE012240216748C03802F099FE0022B4
:106970008021654803F04AFD00220421624803F0AB
:1069800045FD00221021604802F08AFE00224021CD
:106990005D4803F03BFD40215B4802F019FA0022FC
:1069A000012189025848803802F07AFE0022FF2136
:1069B0000131554803F02AFDFF210131524802F010
:1069C00005FA012211025048403802F069FE002207
:1069D000012149024C48403803F018FD01214902C9
:1069E0004948403802F0F4F900220821454880382F
:1069F00003F00CFD002240214248803803F006FDE0
:106A0000002220213F48803803F000FD00221021A1
:106A10003C48803802F044FE20213A48803802F099
:106A2000D5F940213748803802F0D2F9082135489D
:106A3000803802F0CDF904F07FFA03F0F5FB03F0A3
:106A40005DFB0123022280212E4801F0EDFE01238F
:106A50001A4640212C48403001F0E6FE01231A4638
:106A600019022948403801F0DFFE012300221021DD
:106A7000254801F0D9FE1E20002815DBC206D20EE3
:106A800001219140214A116000BF00BF00BFBFF348
:106A90004F8F00BF00BF00BF00BF00BF00BFBFF3EC
:106AA0006F8F00BF00BF00BF00BF00211E2005F098
:106AB000EBFC1E20002806DBC206D20E012191400D
:106AC000124A803A116000BF0121082002F05AF9F1
:106AD0000121802002F056F90D48007800280ED1DF
:106AE0000B49087000220B490B4809F032FB0B4A96
:106AF0000521094809F0FAF9074809F053FB10BDD0
:106B000007000001800D0040800C004080E100E0A3
:106B1000340000209501010088B900207DA7000005
:106B20000149C8627047000000600140012806D199
:106B30000649096880221143044A116005E00349AF
:106B4000096880229143014A11607047006001404A
:106B5000012806D10649096801221143044A11603F
:106B600005E00349096849084900014A1160704776
:106B7000006001400146064A1068082302469A4315
:106B8000104608220A401043014A10607047000076
:106B900000600140012806D10649C968012211435D
:106BA000044AD16005E00349C96849084900014A1F
:106BB000D16070470060014010B500F023F8002854
:106BC00019D000F02BF80C480078401C0A490870D6
:106BD0000A480068401C0949086009480068401CD0
:106BE0000749086004480078052804DD00200249B0
:106BF000087009F0EDFA10BD660000204400002086
:106C00003800002004480069C007C00F002801D0E8
:106C1000012070470020FCE700600140012001498D
:106C2000086170470060014070B504460D460121BF
:106C3000880600F00DFA032000F0E8F9012000F0CA
:106C4000D3F90120FFF772FF0020FFF793FF681EC2
:106C500000F014F8601EFFF763FF1B2005F0C4FB73
:106C600002211B2005F04CFC1B2005F0F5FB012048
:106C7000FFF790FF0120FFF76BFF70BD01498862AD
:106C8000704700000060014070B504462046FDF7E3
:106C900072FC85B22946204600F002F870BD000063
:106CA000F8B504460D46002627460CE03046721C17
:106CB00096B2395C054805F0B9F900BF034805F004
:106CC00099F90028FAD0AE42F0DBF8BD0078014017
:106CD000012803D10A21034A116002E00521014A7B
:106CE0001160704700E0014000B50246002300201B
:106CF000D060106110605060906000F013FA0128BD
:106D000011D100F0F7F903461B0C0F2B02D14048BC
:106D1000D06008E0072B02D13E48D06003E0581C49
:106D20003D494843D06000F0C7F901280ED100F07A
:106D3000D7F903461B0C581C38494843106100F032
:106D4000C7F9082802D110694000106100F062FA0A
:106D5000034600BF002B06D0012B07D0022B08D022
:106D6000032B0DD108E0D06810600CE02A481060B9
:106D700009E01069106006E00120C003106002E025
:106D8000D068106000BF00BF00F000FA03461B0A85
:106D9000042B06D0052B08D0062B0AD0072B10D1C8
:106DA0000BE01068400850600EE0106880085060EA
:106DB0000AE01068C008506006E0106800095060E2
:106DC00002E01068506000BF00BF00F0F7F9034612
:106DD0001B0C042B06D0052B08D0062B0AD0072B42
:106DE00010D10BE05068400890600EE050688008B9
:106DF00090600AE05068C008906006E050680009A2
:106E0000906002E05068906000BF00BF00BD0000CD
:106E1000006CDC02005A620200127A0040420F004D
:106E200010B50446012C02D1164803681DE0022C5F
:106E300003D114484038C36B17E0032C03D1114829
:106E40004038836B11E0042C03D10E484038436B6B
:106E50000BE0052C02D10B48836806E0062C02D11A
:106E60000848C36801E007480368180CD94389B291
:106E7000884203D1D8B200F073F902E06B2000F031
:106E80006FF910BD40FBFF1F012806D10649096BB1
:106E9000C2071143044A116305E00349096B490025
:106EA0004908014A11637047002400400146064A20
:106EB000106B130502469A4310461A460A401043C7
:106EC000014A10637047000000240040012806D1E9
:106ED0000749096B02051143054A116306E004499D
:106EE000096B012212059143014A116370470000AA
:106EF000002400400146064A106B03231B0402468F
:106F00009A4310461A460A401043014A10637047DC
:106F100000240040012806D10749096B42051143AE
:106F2000054A116306E00449096B012252059143A9
:106F3000014A116370470000002400400146064AE0
:106F4000106B03239B0402469A4310461A460A40DC
:106F50001043014A1063704700240040012806D105
:106F60000749096B02021143054A116306E004490F
:106F7000096BFF2201329143014A116370470000FF
:106F8000002400400146054A106B800880008A07F3
:106F9000920F1043014A1063704700000024004024
:106FA000012806D10749096B42021143054A1163C2
:106FB00006E00449096B012252029143014A116320
:106FC00070470000002400400146064A106B0C2365
:106FD00002469A4310460C220A401043014A1063AD
:106FE0007047000000240040012806D10649496B83
:106FF00010221143044A516305E00349496B1022F2
:107000009143014A51637047002400400146054AFC
:10701000506B800880008A07920F1043014A50632A
:107020007047000000240040012806D10749496B41
:1070300082051143054A516306E00449496B012268
:1070400092059143014A51637047000000240040BB
:1070500030B502460B4600200F2424061440FF25BD
:107060002D066419002C09D06419002C08D064196D
:10707000002C08D06419002C0BD107E00D4809E062
:107080000C48001D06E00B48083003E009480C30AE
:1070900000E000BF00BF00280BD092B20121914058
:1070A000002B03D004680C43046002E004688C43A6
:1070B000046030BD2024004004480069C007C00FB0
:1070C000002801D0012070470020FCE70024004088
:1070D0000248006908210840704700000024004071
:1070E000024800690249084070470000002400403F
:1070F0000000FF03024840680F2109040840704760
:10710000002400400146064A50680F231B04024633
:107110009A4310461A460A401043014A506070478D
:107120000024004004484068C007C00F002801D078
:10713000012070470020FCE700240040012806D110
:107140000649496801221143044A516005E0034998
:10715000496849084900014A5160704700240040CD
:107160000146044A9068000A0002CAB21043014A6C
:10717000906070470024004010B504462068FFF777
:10718000C1FF2079FFF7DAFF10BD00000248006858
:107190000721090208407047002400400146064AC2
:1071A000106807231B0202469A4310461A460A40FB
:1071B0001043014A106070470024004002480068F4
:1071C0000721090408407047002400400146064A90
:1071D000106807231B0402469A4310461A460A40C9
:1071E0001043014A1060704700240040012806D176
:1071F0000749096842061143054A116006E004493F
:107200000968012252069143014A1160704700004B
:1072100000240040024800684007400F704700000B
:10722000002400400146054A1068C008C0004A0713
:10723000520F1043014A10607047000000240040C4
:1072400010B504462068FFF7EDFF6068FFF7A6FF62
:10725000A068FFF7BBFF207BFFF7C8FF10BD000051
:10726000F8B505460E4600240027012000900020B6
:1072700002E0295C0C19401C711E8142F9DC204699
:10728000E117090E091809120902611ACFB2701E1E
:10729000285CB8420BD007A108A002F031F9701E9B
:1072A0002A5C394607A002F02BF9002000900098D4
:1072B000F8BD00005741524E000000000A5B2573E4
:1072C0005D00000063616C206572726F72207375DF
:1072D0006D5B25642D25645D0000000010B5202144
:1072E00005200EF0C9FF0A2000F0DEF810BD70B5D1
:1072F0000A460021002300BF08E001248C402346F9
:1073000014461C40002C00D002E0491C1029F4D384
:1073100000BF046801258D40AC430460C5684E0081
:107320000324B440A543C56070BDF8B504460E46BD
:1073300015460027781E009000BF2778641C694618
:10734000384604F047FF701E061EF6D168460088D6
:10735000C04381B200916846008828706846008862
:1073600000126870F8BD032001218907486070474A
:10737000F8B505460E461746294608A002F0C0F8A3
:10738000002404E0315D0AA002F0BAF8641CBC429B
:10739000F8DB09A002F0B4F8F8BD00000A2055613E
:1073A00072742044617461205B25735D3A000000B3
:1073B00020253032780000000A00000010B58EB0A1
:1073C000342101A8FDF7ACF800200090284800798E
:1073D0000007C00F00282FD02548007908218843D6
:1073E00023490871342101A8FDF79AF801A98020EA
:1073F00011F07CFD00901F480FF090FB0446694699
:107400000878401C84420FDB01221A480FF096FCDA
:107410006846027801A917480FF090FC16480078DA
:10742000401C1549087006E014A116A002F068F887
:1074300016A002F065F800BF0D48408A002815D05C
:10744000174800681749096888420FD80848408AD9
:107450003C21484313490968401811490860044811
:107460004079802188438030014948710EB010BDB9
:10747000D07F0020C07D00201C0000204552524FCC
:10748000520000000A5B25735D0000004C777262B9
:1074900020416C72656164792046756C6C00000057
:1074A000200000204800002001B5002107E07D21D8
:1074B000890100BF08464A1E91B20028FAD16A46E7
:1074C0001088421E93B200930028F0D108BD00003E
:1074D00010B59AB0642101A8FDF722F800200090B1
:1074E000FFF76CFF4448C08D00287DD143480078E9
:1074F000C007C00F00287CD041484079C00900284F
:107500000DD03F484079802188433D494871084665
:107510000079022188433A49087100F08BF8384815
:1075200000798007C00F00282FD03548007902214C
:10753000884333490871642101A8FCF7F1FF01A9D0
:10754000032011F0D3FC00902E480FF0E7FA044618
:1075500069460878401C84420FDB012229480FF05D
:10756000EDFB6846027801A926480FF0E7FB2648A4
:107570000078401C2449087006E024A125A001F0F1
:10758000BFFF26A001F0BCFF00BF1F480078002805
:107590002FD001AC1A484079402188434030184927
:1075A000487119480078401E17490870642101A8E5
:1075B000FCF7B6FF0122694612480FF029FB684626
:1075C000027821460F480FF023FB6846017801A896
:1075D00011F090FB0C480078002809D10121090323
:1075E0001348FCF79DFF00E003E006480FF070FB36
:1075F00000BF1AB010BD00009CBD0020B8DF002005
:10760000D07F0020C07D00201C0000204552524F3A
:10761000520000000A5B25735D0000004C77726227
:1076200020416C72656164792046756C6C000000C5
:10763000C06D0020F0B58FB0342102A8FCF770FFB8
:1076400002AD0024002101910026342102A8FCF79C
:1076500067FF00210191FF216846017200214172FC
:10766000AD1C022101912946012011F03FFC044686
:107670002D19684600790019C1B20191761C29467E
:10768000032011F033FC04462D19684600790019D7
:10769000C1B20191761C29468A2011F027FC0446CC
:1076A0002D19684600790019C1B20191761C29464E
:1076B000572011F01BFC04462D196846007900196B
:1076C000C1B20191761C2946532011F00FFC0446EB
:1076D0002D19684600790019C1B20191761C29461E
:1076E000522011F003FC04462D1968460079001958
:1076F000C1B20191761C2946562011F0F7FB0446D1
:107700002D19684600790019C1B20191761C2946ED
:10771000842011F0EBFB04462D196846007900190E
:10772000C1B20191701CC6B22946862011F0DEFB61
:1077300004462D19684600790019C1B20191701CE8
:10774000C6B22946542011F0D1FB04462D196846D3
:1077500000790019C1B20191701CC6B26846467228
:1077600011480FF0DBF9074668460079401C874254
:1077700010DB012201A90C480FF0E0FA68460279FB
:1077800002A909480FF0DAFA08480078401C0749B6
:10779000087006E006A108A001F0B2FE08A001F002
:1077A000AFFE0FB0F0BD0000C07D00201C00002027
:1077B0004552524F520000000A5B25735D000000E5
:1077C0004C77726220416C72656164792046756CF9
:1077D0006C000000F0B58BB0242102A8FCF7A0FEDD
:1077E000712000030190092202A9019800F0ACFA6F
:1077F00002AE00273F4D002417E0B8003058000EBD
:107800002855B80030580002010E601C2954B800F9
:10781000305A0004010EA01C295438467F1C8000F9
:10782000315CE01C29542D1D241D042CE5D3314D61
:107830002D1D002417E0B8003058000E2855B80060
:1078400030580002010E601C2954B800305A000460
:10785000010EA01C295438467F1C8000315CE01CBE
:1078600029542D1D241D102CE5D3224D1435002440
:1078700017E0B8003058000E2855B8003058000204
:10788000010E601C2954B800305A0004010EA01CDF
:10789000295438467F1C8000315CE01C29542D1D82
:1078A000241D102CE5D31348C01EC078002804D036
:1078B0001048C01EC078FF281AD10E48C01EC079DB
:1078C000002804D00B48C01EC079FF2810D1042224
:1078D00009490848FCF7FCFD102208490548001D2D
:1078E000FCF7F6FD1022064902481430FCF7F0FDC3
:1078F0000BB0F0BDDBDF0020880000208C000020F2
:107900009C000020F0B589B0202101A8FCF708FEFA
:10791000E120C0020090082201A9009800F014FAAA
:1079200001AE00273F4D002417E0B8003058000E8C
:107930002855B80030580002010E601C2954B800C8
:10794000305A0004010EA01C295438467F1C8000C8
:10795000315CE01C29542D1D241D082CE5D3314D2C
:107960000835002417E0B8003058000E2855B8003C
:1079700030580002010E601C2954B800305A00042F
:10798000010EA01C295438467F1C8000315CE01C8D
:1079900029542D1D241D082CE5D3224D103500241B
:1079A00017E0B8003058000E2855B80030580002D3
:1079B000010E601C2954B800305A0004010EA01CAE
:1079C000295438467F1C8000315CE01C29542D1D51
:1079D000241D102CE5D31348C01EC07A002804D003
:1079E0001048C01EC07AFF2819D10E48C01EC07CA6
:1079F000002804D00B48C01EC07CFF280FD11022E5
:107A0000094908481030FCF763FD0822074905487A
:107A10000830FCF75DFD08210248FCF781FD09B044
:107A2000F0BD0000BBDF00207800002070000020C7
:107A3000F0B58FB0282105A8FCF772FD39277F0328
:107A400000240A2205A9384600F07EF94649059827
:107A500048824649079848704349089888730998AE
:107A6000C8730A98C8710B98C4B20C98087208467B
:107A7000408A2D214901884203DC3B48408A0A287C
:107A800007DA3948408A002803D02D2040013649C2
:107A9000488236484078E72803DC34484078E028BC
:107AA00002DAE720314948702F48807B032803DB46
:107AB0002D48807B1E2802DD05202B4988732A482B
:107AC000C07B642802DD64202749C8732648C0793A
:107AD000012802DD00202449C8711A2C04DD412050
:107AE00000062149086219E0192C03D120481E49DB
:107AF000086213E01A2C03D11E481B4908620DE0EE
:107B00000D2C05DA2046FDF70CF81749086205E050
:107B10000C21081BFCF7FAFF134908621248007A8F
:107B2000012802DD01201049087213A114A001F000
:107B3000E7FC0D49086AFDF747F805460A48007A50
:107B40000295039104900848C0790749C97B0091C8
:107B500001900548837B054842780348418A0A48DA
:107B600001F0CEFC0FB0F0BDD07F002028DF002058
:107B7000000060400000B040464C41534800000007
:107B80000A5B25735D000000E0DA010070B5032593
:107B90006D041C4C012149031B48FCF7C1FCA008E3
:107BA000421C1949284600F0CFF8224616491748CA
:107BB000FCF78EFC15480078652803DC1348007834
:107BC000002807D112491148001DFCF7A9FC00202C
:107BD0000E4908700D484078642803DC0B48407853
:107BE000002807D1E12109010A48FCF799FC00208F
:107BF0000649487014210848FCF792FC0FF082FDFA
:107C000070BD00003419000060990020F87F00204A
:107C10000C0B0000088B0020189900201CB5E524EF
:107C2000E40201226946204600F08EF800980128FF
:107C300006D10948807904218843001D06498871CE
:107C400006A108A001F05CFC034880794007C10F41
:107C500006A001F055FC1CBDD07F0020464C4153CE
:107C6000480000000A5B25735D00000052656164F6
:107C700020466C61736820446576696365204661BF
:107C800063746F727920466C61673A202564000046
:107C90001CB5E324E40202226946204600F054F8B1
:107CA0001449009848700198887008464078FE286A
:107CB00003DC08464078012802DA0A200D494870A2
:107CC0000C488078022802D002200A4988700AA154
:107CD0000BA001F015FC07488078002801D00AA00D
:107CE00000E00BA00246034841780BA001F008FC1D
:107CF0001CBD0000B8DF0020464C41534800000086
:107D00000A5B25735D000000436C617373204300C0
:107D1000436C6173732041005265616420466C615D
:107D2000736820446576696365204C6F52615741E2
:107D30004E20506F72743A2025642C20436C61737E
:107D4000733A20257300000070B503461C460020DE
:107D500004E0256886008D51241D401C9042F8DB0C
:107D600070BD000070B5732424030C25294611480A
:107D7000FCF7D6FB03220F492046FFF7E5FF0C2254
:107D80000C490D48FCF7A4FB0B480078032803DDE1
:107D90000C210948FCF7C4FB08A10AA001F0B0FBC4
:107DA0000548017809A001F0ABFB024804F07AFC19
:107DB00070BD0000609900202C990020464C415372
:107DC000480000000A5B25735D0000005265616495
:107DD00020466C61736820446576696365204F7046
:107DE000656E204D6F64653A2025640010B5FFF77D
:107DF0001FFEFFF787FDFFF7EDFCFFF749FFFFF7D9
:107E00000DFFFFF7C3FEFFF7ADFF10BD10B52D202E
:107E1000400113494882E720124948700520104963
:107E200088736420C8730020C8714120000608626E
:107E30000D490E48FCF774FB0C210D48FCF770FB54
:107E400000F038F900F0AAF900F0C8F805494878C0
:107E500003F0D6F808F0A2FB02F052FE10BD0000BD
:107E6000D07F002028DF002034190000F87F002098
:107E70002C990020F0B58BB0712000030A900027E8
:107E8000242101A8FCF74CFB264C002610E02078AA
:107E90000506607800044519A07800024519E078CD
:107EA0004519241D38467F1C800001A90D50361D40
:107EB000042EECD31B4C241D002610E02078050670
:107EC000607800044519A07800024519E07845194A
:107ED000241D38467F1C800001A90D50361D102E30
:107EE000ECD3104C1434002610E02078050660789E
:107EF00000044519A07800024519E0784519241DB1
:107F000038467F1C800001A90D50361D102EECD381
:107F10000A9800F0DDF9092201A90A9800F006F993
:107F20000BB0F0BDDBDF0020F0B589B0E120C0026E
:107F30000890002720216846FCF7F2FA264C00261C
:107F400010E020780506607800044519A07800024A
:107F50004519E0784519241D38467F1C8000694684
:107F60000D50361D082EECD31B4C0834002610E0B3
:107F700020780506607800044519A07800024519AC
:107F8000E0784519241D38467F1C800069460D5055
:107F9000361D082EECD3104C1034002610E020784B
:107FA0000506607800044519A07800024519E078BC
:107FB0004519241D38467F1C800069460D50361D2A
:107FC000102EECD3089800F083F90822694608982F
:107FD00000F0ACF809B0F0BDBBDF0020F0B58BB00D
:107FE00039277F032C48408A01902C484078039021
:107FF0002948807B04902848C07B05902648C0799A
:1080000006902549086AFCF7DFFD05460022244B4F
:10801000FCF7EEFD01D119242FE01F49086AFCF797
:10802000D3FD054600221F4BFCF7E2FD01D11A24C7
:1080300023E01949086A1C49FCF702FE0BD21649D5
:10804000086A0021FCF706FE05D81349086AFCF708
:1080500088FDC4B211E01049086A1449FCF7F0FD2C
:108060000BD20D49086A1249FCF738FB0121C907F8
:1080700048400546FCF775FDC4B207940648007AEF
:108080000890384600F024F90A2201A9384600F089
:108090004DF80BB0F0BD0000D07F002028DF00209D
:1080A00000000C4000001640000050410000C0419C
:1080B00000004041F8B5032676040F4C0121490326
:1080C0000E48FCF72DFA22460D490C48FCF700FA41
:1080D000E01DFF30F930470A002504E069028819E5
:1080E00000F0F6F86D1CBD42F8D3A20803493046F3
:1080F00000F01CF8F8BD0000341900006099002061
:10810000F87F00201CB5E324E40207484078009083
:10811000054880780190204600F0DAF8022269468E
:10812000204600F003F81CBDB8DF002070B50446FF
:108130000D46164601211648FEF78AFF0120FEF77C
:1081400073FF00F097F8022000F072F8114800F079
:10815000ABF8114800F0A8F80CE0022000F068F835
:1081600001CD2060241D00BF00F08CF80028FBD05A
:1081700000F094F83046761E0028EED100F094F816
:108180000020FEF751FF00210148FEF761FF70BD9E
:1081900005000002A5A5A5A5F1F1F1F170B57325C3
:1081A0002D030C24012149030848FCF7B9F92246A4
:1081B00007490648FCF78CF9284600F089F8A20820
:1081C00002492846FFF7B2FF70BD00006099002009
:1081D0002C99002038B57F242403054800902046C0
:1081E00000F076F8012269462046FFF79FFF38BD70
:1081F000785634120146054A506940084000CA07C3
:10820000D20F1043014A5061704700000010004037
:108210000146064A506903231B0202469A43104650
:108220001A460A401043014A50617047001000404E
:108230000146064A5069022302469A43104602222A
:108240000A401043014A506170470000001000408E
:108250000448006AC007C00F002801D00120704701
:108260000020FCE70010004001200149086270472F
:1082700000100040012040020149086270470000E0
:10828000001000400448006A02210840002801D084
:10829000012070470020FCE7001000400220014947
:1082A0000862704700100040014988617047000073
:1082B000001000400146054A1068800880008A07C7
:1082C000920F1043014A10607047000000100040F8
:1082D00070B5054601211A48FEF7BAFE0120FEF7E7
:1082E000A3FE0020FFF794FF0120FFF783FF15484E
:1082F000FFF7DAFF1448FFF7D7FF1448286000E0C3
:1083000000BFFFF7A5FF0128FAD1FFF7ADFF00205E
:10831000FFF7CAFF0020FEF787FE00210848FEF79E
:1083200097FE002408E0A0002858401C002801D037
:10833000002070BD601C84B2802CF4DB0120F8E7C3
:108340000500000296969696EAEAEAEACDAB341268
:1083500010B51CA001F0D4F82AA001F0D1F839A082
:1083600001F0CEF81522112144A001F0C9F8FFF761
:108370003DFD12F0A3F87F20000300684F498842BA
:1083800003D17F200003FFF7A3FF64204C4908704E
:108390000A204C49088201214B480172FCF764FE17
:1083A00028224AA14E4807F071F80446002C07D055
:1083B0004CA14EA001F0A4F821464EA001F0A0F877
:1083C00010BD00000A2A2A2A2A2A2A2A2A2A2A2A08
:1083D0002A2A2A2A2A2A2A2A2A2A2A2A2A2A2A2AFD
:1083E0002A2A2A2A2A2A2A2A2A2A2A2A2A2A2A2AED
:1083F0002A2A2A2A2A2A2A2A2A2A2A2A2A2A2A2ADD
:108400002A0A00002A2A2A2A2A2A2A2A2A2A2A2A40
:108410002A2A2A2A2A2A2A2A2A2A2A2A2A2A2A2ABC
:108420002A2A2A2A2A2A2A2A2A2A2A2A2A2A2A2AAC
:108430002A2A2A2A2A2A2A2A2A2A2A2A2A2A2A2A9C
:108440000A0000002A2A2A2A2A2A2A2A2A2A2A2A2A
:108450002A2A2A2A20484B54203A20536D617274EC
:1084600020446F6F72204C6F636B202A2A2A2A2ABD
:108470002A2A2A2A2A2A2A2A2A2A0A002A2A2A2AA6
:108480002A2A2A2A2048415244574152455F5645DC
:10849000523A20307825303478202C534F465457A8
:1084A0004152455F5645523A203078253034782085
:1084B0002A2A2A2A2A2A2A2A0A000000785634124E
:1084C00004000020D07F0020F8DF00206D61696E7D
:1084D0005F6576656E745F67726F7570000000008F
:1084E000389900204552524F520000000A5B257314
:1084F0005D0000006D61696E5F6576656E745F6733
:10850000726F7570204372656174204661696C20DA
:1085100021212120256400000107090F014AD160B3
:108520007047000000FC014010B50446204601F0F1
:10853000A7FF2046FFF7F0FF10BD30B504460D46FB
:1085400003222946204600F08DF930BDF7B50346D9
:108550000D460021002207E0012696402E40002E05
:1085600001D0114602E0521C102AF5D300BF102A98
:1085700000D1FEBD314FDE1BBB4211D008DC304EB6
:108580009E19002E09D0402E08D0802E51D106E031
:10859000402E06D0802E4CD104E000BF00BF00BFAB
:1085A00000BF00BF254E4036B34203D0234E803675
:1085B000B34202D10B2903D93CE00F2900D939E09D
:1085C000032901D800200CE0042903D3072901D88E
:1085D000012006E0082903D30B2901D8022000E07E
:1085E0000320164E803EB34200D1001D134E403E84
:1085F000B34200D10830114EB34200D10C300F4EBF
:108600004036B34200D110300C4E8036B34200D118
:1086100014300C4E3469029E012E02D18640344340
:1086200004E0012686402746B7433C46054E3461A8
:1086300000E000BF00BF00BF9BE70000C00C00408F
:1086400000F4FFBFC00D0040F0B502460D46002308
:108650000027002407E00120A0402840002801D086
:10866000234602E0641C102CF5D300BF102C01D16E
:108670003846F0BD2E4E901BB24211D008DC2D487A
:108680001018002809D0402808D080284CD106E0D6
:10869000402806D0802847D104E000BF00BF00BFBB
:1086A00000BF00BF22484030824203D020488030C3
:1086B000824202D10B2B03D937E00F2B00D934E0D3
:1086C000032B01D800210CE0042B03D3072B01D886
:1086D000012106E0082B03D30B2B01D8022100E077
:1086E000032113488038824200D1091D10484038C8
:1086F000824200D108310E48824200D10C310C4830
:108700004030824200D1103109488030824200D18D
:1087100014310948406901268E40304001268E40C0
:10872000B04200D1012700E000BF00BF3846A0E7FB
:10873000C00C004000F4FFBFC00D0040F0B5024681
:108740000C460021002307E001269E402640002E13
:1087500001D0194602E05B1C102BF5D300BF102B93
:1087600000D1F0BD2D4FD61BBA4211D008DC2C4EE3
:108770009619002E09D0402E08D0802E49D106E04F
:10878000402E06D0802E44D104E000BF00BF00BFC1
:1087900000BF00BF214E4036B24203D01F4E80368C
:1087A000B24202D10B2903D934E00F2900D931E0BC
:1087B000032901D800200CE0042903D3072901D89C
:1087C000012006E0082903D30B2901D8022000E08C
:1087D0000320124E803EB24200D1001D0F4E403E9B
:1087E000B24200D108300D4EB24200D10C300B4ED7
:1087F0004036B24200D11030084E8036B24200D12D
:108800001430084E7569012686403543054E756162
:1088100000E000BF00BF00BFA3E70000C00C0040A5
:1088200000F4FFBFC00D0040F0B505460E461746E8
:108830001C4603223146284600F014F831462846EB
:1088400000F096F83A463146284600F00BF83146DB
:108850002846FFF773FF224631462846FFF776FE8B
:10886000F0BD0000F7B5034615460021002408E0DE
:108870000126A640019F3E40002E01D0214602E085
:10888000641C102CF4D300BF102C00D1FEBD354F5A
:10889000DE1BBB4211D008DC334E9E19002E09D0DE
:1088A000402E08D0802E58D106E0402E34D0802EA5
:1088B00053D132E000BF00BF00BF0F2900D94DE007
:1088C000032901D800200CE0042903D3072901D88B
:1088D000022006E0082903D30B2901D8042000E078
:1088E0000620204E803EB34200D108301D4E403E4F
:1088F000B34200D110301B4EB34200D118301B4E92
:10890000B268032686401746B7433A462E4686404D
:108910003243164EB26021E000BF0B2900D91DE0A2
:10892000032901D8002006E0042903D3072901D830
:10893000022000E004200B4E8036B34200D1083004
:108940000A4EF268032686401746B7433A462E463B
:1089500086403243054EF26000BF00BF00BF00BF3B
:1089600094E70000C00C004000F4FFBFC00D0040C1
:10897000F0B502460D460020002407E00126A6407F
:108980002E40002E01D0204602E0641C102CF5D3AE
:1089900000BF102C00D1F0BD3F4FD61BBA4234D0DF
:1089A00008DC3E4E9619002E2CD0402E2BD0802E67
:1089B0006ED129E0402E02D0802E69D100E000BFA8
:1089C0000B2800D965E0032801D8002106E004281F
:1089D00003D3072801D8022100E004212E4E80365F
:1089E000B24200D108318007800F2D4E73680326F4
:1089F0008E401F46B7433B4606468E403343284EC3
:108A0000736046E000BF00BF00BF234EC03EB242CD
:108A100007D0214E803EB24203D01F4E403EB242AC
:108A200002D10F2800D934E01B4EB24202D10B28EC
:108A300000D92EE0032801D800210CE0042803D33C
:108A4000072801D8022106E0082803D30B2801D803
:108A5000042100E00621104E803EB24200D10831D0
:108A60000D4E403EB24200D110310B4EB24200D109
:108A700018318007800F0A4E336803268E401F4648
:108A8000B7433B4606468E403343054E336000E015
:108A900000BF00BF00BF7EE7C00C004000F4FFBF76
:108AA000C00D0040F0B504460025002307E0012674
:108AB0009E400E403546002D00D002E05B1C102B7E
:108AC000F5D300BF102B36D21D46116026680E402C
:108AD0003046E840012802D10126D67101E0002687
:108AE000D67166680E40EE403046012801D196717D
:108AF00001E000269671A6680E40EE40304601283F
:108B000001D1567101E000265671E6686F00FE4003
:108B1000B007800F002802D1002616710BE0012853
:108B200002D10126167106E0022802D10226167132
:108B300001E003261671F0BD10B580216348FFF7F0
:108B400083FD012817D180216048FFF7F7FD6048B9
:108B500040798006C00F002806D05D484079082182
:108B6000884308305A4948715948008A052802DA72
:108B700005205749088240215448C038FFF764FD5A
:108B8000012818D140215148C038FFF7D7FD50487F
:108B900040798006C00F002806D04D48007910218A
:108BA000884310304A4908714948008A052802DA8A
:108BB000052047490882102144488038FFF744FDCA
:108BC000012823D1102141488038FFF7B7FD10213B
:108BD0003E488038FFF7B1FC3D4840798006C00F21
:108BE000002807D03A4800798021884380303849EE
:108BF000087104E000220421364806F0FDFC3448E8
:108C0000008A052802DA052031490882FF21013156
:108C10003148FFF719FD012817D101022E48FFF74F
:108C20008DFD2B4840798006C00F002806D02848CB
:108C3000407940084000401C254948712448008A7A
:108C4000052802DA05202249088204211F488038BD
:108C5000FFF7FAFC012818D104211C488038FFF7DF
:108C60006DFD1B4840798006C00F002806D01848CB
:108C7000407902218843801C154948711448008AB4
:108C8000052802DA052012490882102112484030D6
:108C9000FFF7DAFC012818D110210F484030FFF708
:108CA0004DFD0B4840798006C00F002806D00848CB
:108CB000407904218843001D054948710448008A11
:108CC000052802DA05200249088210BD800D004007
:108CD000D07F0020986D0020400C0040F0B5024687
:108CE0000B4600210024002500BF2DE001268E4008
:108CF00034461E6826403546A54224D110680646F3
:108D0000A6433046DE798E403043106050680646F8
:108D1000A64330469E798E403043506090680646A8
:108D2000A64330465E798E40304390604F00032664
:108D3000BE403446D0680646A64330461E794F00F2
:108D4000BE403043D060491C1029CFD3F0BD70B570
:108D500004460D4600222946204601F057FB2946CD
:108D6000204600F035F870BD70B504460D4600226F
:108D70002946204601F04AFB2946204600F026F805
:108D800070BD0000012905D1054A12680243044B59
:108D90001A6004E0024A12688243014B1A6070476D
:108DA000000F004002460020D3690B40002B01D089
:108DB000012000E0002070470246002013690B40AC
:108DC000002B01D0012000E0002070478161704736
:108DD0004161704710B5A448007800287ED1012079
:108DE000A14908702021A148FFF7BEFF40219F48FC
:108DF000FFF7BAFF80219D48FFF7B6FF0121C902A6
:108E00009A48FFF7B1FF012109039848FFF7ACFF2B
:108E1000012149039548FFF7A7FF012193484030FE
:108E2000FFF7A2FF022191484030FFF79DFF042188
:108E30008E484030FFF798FF08218C484030FFF7FC
:108E400093FF102189484030FFF78EFF202187488B
:108E50004030FFF789FF402184484030FFF784FF0E
:108E6000802182484030FFF77FFF012189027F483F
:108E70004030FFF779FF0121C9027C484030FFF7FD
:108E800073FF04217A48FFF76FFF80217848FFF7CE
:108E90006BFF012149027648FFF766FF0121744804
:108EA0004030FFF761FF012170488030FFF75CFF21
:108EB00002216E488030FFF757FF08216B48803051
:108EC000FFF752FF202169488030FFF74DFF012155
:108ED000490266488030FFF747FF00E068E0012163
:108EE00063484038FFF740FF022161484038FFF7F0
:108EF0003BFF04215E484038FFF736FF08215C48FD
:108F00004038FFF731FF102159484038FFF72CFF58
:108F1000202157484038FFF727FF012149025448D4
:108F20004038FFF721FF0121890251484038FFF7FF
:108F30001BFF02214E484030FFF716FF04214C482A
:108F40004030FFF711FF202149484030FFF70CFF68
:108F5000402147484030FFF707FF0120FFF7E4FAC0
:108F60000220FFF7E1FA0420FFF7DEFA0820FFF7FE
:108F7000DBFA0121C9023E484030FFF7F5FE04212B
:108F80003B488030FFF7F0FE082139488030FFF77A
:108F9000EBFE402136488030FFF7E6FE10213448D2
:108FA0008030FFF7E1FE202131488030FFF7DCFE02
:108FB000012149032E484030FFF708FF01218903B2
:108FC0002B484030FFF702FF0121C90328484030F9
:108FD000FFF7FCFE0121090325484030FFF7F6FEAC
:108FE000FF2101312248FFF7F1FE80211F48803028
:108FF000FFF7EEFE20211D484030FFF7E7FEFF217E
:1090000001311A48FDF773FC012149021748FDF7A9
:109010006EFC012115488030FDF769FC02211348E0
:109020008030FDF764FC082111484030FDF75FFCFB
:1090300010210F484030FDF75AFC04210B48403006
:10904000FDF755FC082109484030FDF750FC02228D
:10905000D10107488030FDF7F7FB022211020448D6
:109060008030FDF7F1FB10BD35000020000C004002
:10907000000D004002690A40002A01D0816100E031
:109080004161704710B51346826A012B03D1144623
:109090000C43224602E014468C432246826210BDF5
:1090A00010B51346026A012B03D114460C43224625
:1090B00002E014468C432246026210BD30B50246DF
:1090C0000B4600210024002002E0155C6918401CBA
:1090D0009842FADB0846CD172D0E2D182D122D02C1
:1090E0004D1BECB2204630BD70B505460E466900FA
:1090F0003046FBF73BF90446002C00D0641E2046A6
:1091000070BD000070B50446204600F05DF934489B
:10911000844213D101213348FDF79AFF0120FDF766
:10912000D5FE0020FDF7E6FE012291032E48FDF753
:109130008BFB0122D1032C48FDF786FB2B48844290
:1091400014D101212748401CFDF782FF0120FDF7C3
:10915000E1FE0020FDF7F2FE012220212448FDF768
:1091600073FB012240212248FDF76EFB2149224872
:10917000FFF7BAFF05042946204600F0BBF81D4959
:109180001D48FFF7B1FF05462946204600F0C3F809
:10919000204600F0BBF845082946204600F0A2F919
:1091A0000121204600F0D3F81120002815DBC2066B
:1091B000D20E01219140114A116000BF00BF00BFD3
:1091C000BFF34F8F00BF00BF00BF00BF00BF00BF95
:1091D000BFF36F8F00BF00BF00BF00BF70BD0000B6
:1091E0000024014018000003000C00400050014022
:1091F000000D00400048E801A086010080E100E089
:1092000070B506460D460121304600F0B8F80A2434
:1092100008E0012005F03CFA002C03D0641E002C6D
:1092200000D104E0304600F030F90028F1D000BF52
:10923000304600F034F9304600F076F8287000200F
:1092400070BD70B505460C460121284600F073F844
:10925000002C04D0012C0DD0022C21D115E00121CD
:10926000284600F0A4F800BF284600F01BF90028AB
:10927000FAD016E00121284600F08DF800BF2846FC
:1092800000F010F90028FAD00BE00121284600F088
:109290006AF800BF284600F0EEF80028FAD000E097
:1092A00000BF00BF002070BD70B505460E463146B8
:1092B000284600F03DF80A2408E0012005F0E8F90E
:1092C000002C03D0641E002C00D104E0284600F0DE
:1092D000F3F80028F1D000BF284600F0F7F8284640
:1092E00000F0BCF8002800D170BD284600F0C0F89E
:1092F0000120F9E70A464169034B1940DB4313405B
:109300001943416170470000FFFF00FE01464869B4
:10931000C005C00D70470A464169490A4902D30594
:10932000DB0D19434161704701468869C0B270473F
:10933000CAB282617047012904D1026801231A432D
:10934000026003E00268520852000260704701297F
:1093500004D1026802231A43026003E00268022378
:109360009A4302607047012904D1426804231A43DA
:10937000426003E0426804239A4342607047012937
:1093800004D1426808231A43426003E0426808237C
:109390009A4342607047012904D1426802231A436C
:1093A000426003E0426802239A4342607047012909
:1093B00004D1426801231A43426003E04268520824
:1093C000520042607047000010B504460C4801F09E
:1093D000CFF90C48844205D1012001F083F9002027
:1093E00001F080F90848844205D1012001F068F9B4
:1093F000002001F065F9002001F0BAF910BD00006D
:10940000DF9B5713002401400050014010B5124863
:1094100000F052F8012802D10F4800F057F80E482A
:1094200000F033F8012802D10B4800F038F80A4860
:1094300000F02BF8012802D1074800F030F8064868
:1094400000F054F8012806D10121034800F053F838
:109450000148FFF757FE10BD002401400146C868CF
:1094600004221040002801D0012070470020FCE7B2
:109470000421C16070470146C868082210400028D6
:1094800001D0012070470020FCE70146C868C007F2
:10949000C00F002801D0012070470020FCE7012107
:1094A000C16070470146C86810221040002801D0F2
:1094B000012070470020FCE70146C86802221040E6
:1094C000002801D0012070470020FCE70221C16084
:1094D00070470A46016949084900D307DB0F194361
:1094E00001617047CA05D20DC26170470146086A22
:1094F0000005000D70470A05120D0262704700005A
:109500000FB438B50021C943114806F02DF904986D
:10951000002804D00498FBF72EF8002803D138BCAB
:1095200008BC04B0184705A800900A490A48009BE7
:10953000049A02F01BFF054600200090064CA9B2D9
:10954000204600F00BF8024806F052F900BFE6E7AB
:10955000DC6C0020DC0500004CD90020F8B5044686
:109560000D46002627460CE03046721C96B2395C48
:10957000054802F05BFD00BF034802F03BFD0028F8
:10958000FAD0AE42F0DBF8BD0020014001480249AC
:10959000086070475A5A34120014014010B5012176
:1095A0000448FDF755FD072003494860FFF7EEFF2B
:1095B00010BD000005000001001401401CB503208F
:1095C000000400900120694608716846FDF7D4FD4B
:1095D0000420FDF725FC1CBD1FB500200090019064
:1095E00002900120694608736846FDF729FE1FBDF9
:1095F00010B50120FEF75EFEFFF7E0FFFFF7ECFF7E
:1096000010BD000010B50F480068C02188430D4907
:10961000086001242406601E0146884200D90CE03F
:10962000601E094948610321081F02F0E1FF002084
:10963000054988610720086100BF052002490861CB
:1096400010BD00000024004000E000E010B572B63C
:10965000FFF7A4FFFFF79AFFFFF7D4FF00210A20CE
:1096600002F074F8FFF7C4FF012001F06FF800204A
:1096700001F04AF8FDF777FE01210848FDF7E8FC04
:10968000002001F081F800210448FDF7E1FC0021F1
:10969000642002F05BF862B610BD00000200000119
:1096A0007FB506460D4614466A4629463046FFF702
:1096B000F9F90098A84217D16846C079012813D15A
:1096C0006846407901280FD1002C03D16846807983
:1096D000002809D1012C03D168468079012803D1E3
:1096E00068460079002814D0029501216846C173AC
:1096F0004173002C03D100206946887302E00120E9
:109700006946887300206946087302A93046FFF74E
:10971000E5FA7FBD10B500F015F801280ED100F074
:109720001DF8074840798006C00F002806D004487D
:1097300000792021884320300149087110BD0000C4
:10974000D07F00200448406940210840002801D013
:10975000012070470020FCE700340140402001490F
:10976000486170470034014010B5264800F054F8B5
:1097700001281DD1234800F064F8012818D12148A0
:1097800000F07BF8C4B21F4800F066F81E48008B5A
:109790007D21C90088420ADA1B48018B008B401CDE
:1097A000194A10831948445464201146488300BF65
:1097B000144800F03CF801281CD1124800F050F881
:1097C000012817D111483038418D008D81420EDAC1
:1097D0000E483038408D0E4A115C0A4800F052F8AD
:1097E0000A483038408D401C0849303948850548C2
:1097F00000F040F80748008A052802DA05200549EC
:10980000088210BD004001409CC10020CCBD00205A
:10981000DCB90020D07F002001464868FF220132D9
:109820001040002801D0012070470020FCE70146CD
:109830004868C007C00F002801D0012070470020F1
:10984000FCE701468868FF2201321040002801D061
:10985000012070470020FCE7FF2101318160704743
:1098600001468868C007C00F002801D0012070475A
:109870000020FCE701218160704701460869C005AE
:10988000C00D7047CA05D20D4261704730B593B024
:10989000B3A207CA10AB07C3B4A103C90F910E90BE
:1098A00001200FF031FC0FF06DF9142000F07EFB69
:1098B000FCF7D4FCFCF7DAFBAE4800F077FBFCF7D2
:1098C000CDFCFCF797F8FCF777FB0422AA49084681
:1098D0001C30FAF7FDFD1022A849A7480C30FAF712
:1098E000F7FD0822A649A448001DFAF7F1FD04225D
:1098F000A449A1481C30FAF7EBFD1022A2499E486A
:109900002030FAF7E5FD1022A0499B483030FAF7E5
:10991000DFFD0020FCF708FEFCF7CEFBFCF72CFC7B
:109920000520FCF7ABFD9AA0FCF7E6FC9A49052060
:10993000FCF7C0FE9948FCF71DFD0220FCF75AFD1C
:109940000A20FCF77DFEFCF7C7FDFCF719FFFCF7CA
:10995000EBFEFCF755FEFCF761FB864800F026FBAA
:10996000FCF77CFCFBF762FEFBF7D6FEFBF7E6FF9D
:10997000FBF7B2FFFCF7F0F9FCF7B2F8FBF77CFF5E
:10998000FCF7E8FAFCF7DCF8FCF74CFAFBF742FFCF
:10999000FCF77CF9FCF778FAFCF7AAF9FCF7A6FAD1
:1099A000FCF70EFA142000F001FB00200FF0ACFBD6
:1099B0007BA20A2110A802F0A9FC6CA205210EA826
:1099C00002F0A4FC78A0FFF79BFD00F0CBFB04465F
:1099D00081A0807930380A2148437FA1C979401895
:1099E000014630397CA0C07830380A2250437AA230
:1099F000127980180246303A77A0007830380A236E
:109A0000584375A35B78C0180346303B75A00079B6
:109A1000202801D1002002E072A0007930380A2508
:109A2000684370A56D79303D401905930692079102
:109A300004906CA0C07930380A21484369A1097AA2
:109A4000401830380A21484366A1497A3039401815
:109A50000A21484363A1897A3039401864A10EAACB
:109A600010AB03940092019102901522112161A084
:109A7000FFF746FD4048C01F817A427A007A3E4B8C
:109A8000DB1FDB7901930392049102903A48C01FD7
:109A9000807900903848C01F43790279C17863A06B
:109AA000FFF72EFD34480C30C07B33490C31897BE5
:109AB000314A0C32527B304BDB1FDB7F09930A9219
:109AC0000B910C902C48C01F817F407F2A4AD21FE7
:109AD000127F294BDB1FDB7E0593069208910790CE
