:020000040000FA
:1040000070190120C142000085B00000E3400000AB
:1040100000000000000000000000000000000000A0
:10402000000000000000000000000000E54000006B
:1040300000000000000000000D4100001F430000D0
:10404000EB400000EB400000C1B70000EB40000077
:10405000EB400000EB400000EB400000EB400000B4
:10406000EB4000002DC60000EB400000D9C6000068
:1040700045C70000C1C7000001C80000EB400000B8
:1040800071A4000019A1000000000000EB40000036
:104090001DA40000EB400000EB400000EB400000DE
:1040A000EB400000EB400000EB400000C578000052
:1040B000EB400000EB40000039980000EB400000AE
:1040C0000448854601F0AAF800480047317B01000A
:1040D000C046C04670190120044880470448004784
:1040E000FEE7FEE7FEE7FEE7FEE7FEE73DC3000072
:1040F000C140000000202A4A106062B629482A49BF
:104100000860BFF34F8FBFF36F8FFEE72748284A41
:1041100000230168002915D00360EFF30983103BE9
:10412000F0C344464D4656465F46203BF0C3143B21
:1041300075461D608B601F4C2568002D02D08D6177
:104140000025256072B61168002914D0016062B69E
:104150004F68184C8D697F1C4F6025608B681D6807
:104160001B1DAE46F0CBBB46B246A946A046F0CBDF
:1041700083F30988704772B611680160002909D17C
:104180000FB419F06FF90FBC0FB419F079F90FBC27
:1041900062B6F0E7084F044D2F6062B6D8E7000022
:1041A000BC0300200000001004ED00E0A00300208C
:1041B000A4030020FC03002000000008026907237C
:1041C0009A43443A0B4B1360002353609360D360CF
:1041D000136153619361D361136253629362D3623B
:1041E00013635363044B9363D163044B1364826082
:1041F00070470000FDFFFFFFFFFFFFFF0000000111
:1042000023490868401C0860224B1A68002A06D01F
:10421000521E1A60002A02D11F4B012018601F494C
:1042200008680268002A03D01D4B01221A6007E0CB
:10423000001D1C4B1A68904201D11B4B1868086086
:10424000154B1A68002A03D11549086800281BD0AD
:1042500001B513490868002801D00BF013FE0E4B7E
:104260001A68002A0ED00BF0DFFC10480168002904
:1042700008D10F4801680F4A13680F480F4A994246
:1042800000D0026003BC8E46BFF34F8F7047000022
:10429000CC030020FC030020D0030020DC0300201E
:1042A000E0030020D8030020D4030020BC0300203A
:1042B000A0030020A403002004ED00E00000001093
:1042C00072B61B48004772B61A481B49091D0160A7
:1042D0001A481B4901601B481B4A104418490160D9
:1042E0001A481749096801601648194941610721B0
:1042F000016118491348184A1044016017491148D0
:10430000174A1044016017490E48174A10440160CB
:104310007047FEE7FEE701B503BC8E46704701B566
:10432000FFF76EFF03BC8E467047FEE7FEE7000016
:10433000C1400000300300207019012008ED00E0AA
:104340000040000000E000E0080D00009C03002099
:10435000FF7C000000000000180D0000000000FFBE
:104360001C0D00000000FF40200D000030B50B4682
:10437000014600202022012409E00D46D5409D423F
:1043800005D31D469540491B2546954040191546C5
:10439000521E002DF1DC30BD70B5002425460028EA
:1043A00001DA01244042002901DA01254942FFF7E0
:1043B000DDFFAC4200D04042002C00D0494270BD2D
:1043C00010B5024900F004F810BD000040F10020D3
:1043D00070B50C4600683C21FFF7C8FF21603C2106
:1043E000FFF7C4FF61601821FFF7C0FF0546A16019
:1043F0000721001DFFF7BAFFA1610F48A9000818A7
:104400000E49FFF7B3FF0246443288086261E0615B
:104410003B2802D3910700D0401C0021084B0A46DC
:104420002161995C814203D8401A521C2261F8E74D
:10443000401CE060204670BD6C0B0000B50500001C
:1044400030E6010038B50446C0681821401E4843D4
:10445000A16840183C214843616840183C2148430A
:104460002168451860690C21484321694018692179
:10447000C900401A3021FFF78FFF114A50434219FB
:10448000084600921A2902DB0E49511800910C21AE
:10449000FFF782FF0C4A5043009A801800900B48A7
:1044A00006E0491E425C074B5A43009BD21800921B
:1044B0000029F6DC21466846FFF78AFF009838BDE0
:1044C000801F8607805101008033E1013CE6010036
:1044D00010B5441A0346944209D28318891803E0A0
:1044E000491E0C785B1E1C70521EF9D210BD0C4682
:1044F0000443A40703D009E010C9121F10C3042A03
:10450000FAD203E00C781C70491C5B1C521EF9D2D5
:1045100010BDD2B201E00270401C491EFBD27047B0
:104520000022F6E710B513460A4604461946FFF77F
:10453000F0FF204610BD421E5378521C002BFBD1C9
:104540000B781370491C521C002BF9D1704730B501
:1045500005462A460B4610781C78521C5B1C002826
:1045600001D0A042F7D0002C03D0002802D06D1C4F
:10457000EFE7284630BD421C0178401C0029FBD1E2
:10458000801A704710B5002200E0521C835C8C5CDE
:10459000A34201D1002BF8D1D8B2E1B2401A10BD2C
:1045A00030B504460020034600E05B1C934203D272
:1045B000E05CCD5C401BF8D030BD30B50546002036
:1045C000034600E05B1C934205D2EC5CC85C201AF9
:1045D00001D1002CF6D130BD70B5104D002800D1AE
:1045E0002868002414E00A4602E09E4203D0521CD0
:1045F0001378002BF9D1DAB2224307D0002B06D072
:10460000002C04D000210170401C04E00446401C32
:104610000678002EE7D12860204670BD04040020F3
:104620000FB400B58DB009900B9010A90020009137
:10463000C0430A9000200C90064806900648079058
:104640006A4609A80F9900F0BFFC0DB008BC04B081
:1046500018470000E94F000009500000FFB500278F
:10466000FF4383B000205C6801909E681D46A969E5
:104670007F1C049888470090296A88470028F6D153
:104680000098401C0CD0032040028443002E19DD0A
:10469000600614D500982B2809D02D280FD103E0EF
:1046A0000020C04307B0F0BD012080020443A96987
:1046B0007F1C04988847761E0090002E02DD00982B
:1046C000302803D00598002825D035E0012040028D
:1046D0000443A969761E7F1C049888470090002E29
:1046E00003DD782805D0582803D00598002810D07D
:1046F00022E00598002801D010281DD10120400299
:104700008443A969761E7F1C049888470090102076
:1047100002E0082000E00A2005900DE00121490296
:104720000C43059A0199761E514308180190A96916
:104730007F1C049888470090002E05DD059900989D
:1047400000F02CFC0028E9DAE96904988847A00504
:1047500002D40120C043A5E7E00722D1600611D5AD
:104760006005019800D5404229680A1D2A60096841
:10477000220501D5087014E0220701D5088010E059
:1047800008600EE02868011D29600068210502D537
:104790000199017005E02107019901D5018000E030
:1047A000016038467EE7FFB5002083B00090506876
:1047B0000190916914460026976804988847054639
:1047C0000C990698084305D009E0A169761C049865
:1047D00088470546216A284688470028F5D1681C85
:1047E00003D00198C00704D017E00020C04307B0F1
:1047F000F0BD2068011D2160006800900DE0019867
:10480000C00704D1009805700098401C0090A16971
:10481000761C7F1E049888470546002F1CDD681C07
:104820001AD0069800280FD0E817C00E4019411181
:104830008A0006994009511840012A1A0968012086
:1048400090400142DBD107E00C980028D7D1216AC3
:10485000284688470028D2D0E169049888470C98F8
:10486000002807D1002E05DD0198C00702D100986D
:1048700000210170A068B84204DD0C98002804D023
:10488000002F02D00120C043B1E73046AFE770B53A
:10489000064608F091FD046805460A2200213046CC
:1048A00000F0C4FB2C6070BDF8B502464A40D40F3E
:1048B00042004B0052085B089A4202D20246084668
:1048C00011464A0023D0C30D4A00DDB2120EAD1AC4
:1048D000202D35DA49020126490AF6058A19002CED
:1048E00000D0524220214F1B1146B9402A411018D6
:1048F000C20D9A4221D0002C17D0012D08DCDA0518
:10490000801AD20F8019D207DBB200F0CFFBF8BDBE
:10491000DA05801A012340001B06C01880185A428D
:104920008018CA0F1043490007E04908C207114325
:10493000DA05801A80194008801800F0AFFBF8BD36
:1049400061000122511A001BF7E70122D2075140F2
:10495000AAE70122D2075040A6E7024670B54A40B6
:10496000D30FDB0740002DD04A002AD0010E140ED1
:10497000000212020919400A520A8418E50104468D
:104980005443000A120A2E045043A4194219200C61
:10499000C543AA18120C0125AD03521C521912046A
:1049A0007F39240400D0521C104301D44000491E1A
:1049B000C2B20C06C0092018401C4008802A02D050
:1049C00003E0002070BD40084000002900DA00200C
:1049D000184370BD70B502464A40D50F40004A00EA
:1049E000ED0740085208002814D0002A12D0C40D48
:1049F000D30D41020120C0055202490A520AE41AAD
:104A0000091812187D34914201D3641C00E049005A
:104A1000002C01DA002070BD0023914201D3891AD5
:104A20000343400849000028F7D100290AD09142E9
:104A300002D10121C90705E0914201D2012101E023
:104A40000121C943E005C018401900F027FB70BDE3
:104A5000F0B507460846584087B0C00F049048009C
:104A60000E46590040084908BC1A884105D238460C
:104A700031461E4617460B46024658004008104372
:104A80004DD0300D039040055900400D490D059063
:104A9000401A0290402873DA18030121000B09051F
:104AA0000843019004980092002806D01146019A0C
:104AB00049420020904100910190029840210A1A39
:104AC0000199009800F036FA05460C466B4607CB74
:104AD00000F051FAC0197141039A0E0D0023D71747
:104AE00056401A467A40164344D0049A002A2DD0E4
:104AF000029A012A039A15DC1205C01A9141012677
:104B00003605001C7141D20F059ED2070093019219
:104B100002962A46234600F00FFB07B0F0BD384648
:104B20003146FAE71605234A0F46B218C01AB741B4
:104B300001210905001C4F4100187F41114618183A
:104B40007941E20F10436D19644113E0E2076D08EB
:104B500015436408C2071443039A01261205C01ABC
:104B600091413605001C7141CE0740083043490889
:104B7000C01851412A46234600F0D1FACDE7FFE79D
:104B8000049801224000C117121A00238B41049897
:104B90003146C417381AA141EEE730B40124E407C6
:104BA000634030BC54E730B40124E407614030BCBA
:104BB0004EE700000000E0FFF0B51FB488B00B998D
:104BC0000998002448400999C00F490049080991F3
:104BD000C0070B990090490049080B910999089862
:104BE000A64608431CD00B990A98084318D0099888
:104BF00001244000420D4800410D0998240500039E
:104C0000000B204309900B980003000B20430B90EE
:104C100050181C494018002201901446104605E027
:104C2000002001460DB0F0BD032801DA034600E084
:104C300003239C46C11A0AAE0AE05F0008ADED5B93
:104C40004F00F75B7D430027AA187C41491C5B1E7F
:104C50006145F2DD410004AB5A522104120C0A43B3
:104C6000240C401C0828DFDB019802900099704654
:104C700001910090059B049A0799069800F05CFA50
:104C8000D0E700000DFCFFFFF0B50C465C4085B09E
:104C9000E40FE40703944C0000266408590094468E
:104CA000490802460296224321D062460A431ED09A
:104CB0006200570D4A000E032303550D01240246DE
:104CC0002C492405781B1B0B360B40182343264325
:104CD000614600901C46501AB44103D30098401C12
:104CE000009002E0921800985B41002803DA00204F
:104CF000014605B0F0BD00200121090507468646A2
:104D000011E064461D46141BB54106D36546521B8F
:104D1000B341744607430C43A646CD0740084908F3
:104D2000284392185B4105460D43EAD110461843CB
:104D300013D06046194650407140084306D0604683
:104D4000101AB34106D20122002306E000220123FB
:104D5000DB0702E00122D24353100098744601059C
:104D6000381C6141029C039D0019694100F0D7F98C
:104D7000BFE70000FD030000C217C10F504010B58F
:104D80004018CA079623002100F090F910BD10B515
:104D900000229623114600F089F910BDC20F410090
:104DA00040020123400ADB05D207090EC0187F2903
:104DB00001DA00207047962903DC9623591AC8406F
:104DC00001E096398840002AF4D040427047410003
:104DD00040020122400AD205090E80187F2901DA1B
:104DE00000207047962903DC9622511AC84070476C
:104DF00096398840704700004A0009030123090BD7
:104E00001B051943094B10B5520D9A4201DA0020D7
:104E100010BD064B34339A4203DC9A1A00F09AF81C
:104E200010BD03495118884010BD0000FF03000069
:104E3000CDFBFFFFC20FD207400040080BD0C10DD1
:104E40000723DB01C91840020905400A1143C208C3
:104E500040071143704700200146704710B50029F4
:104E600004DB0124E40740428C412146002B04DB93
:104E70001C460123DB075242A3418B4200D18242F0
:104E800010BD000010B5002904DB0124E4074042F6
:104E90008C412146002B04DB1C460123DB075242D8
:104EA000A341994200D1904210BD00000122D207D7
:104EB000002800DB101A002900DB511A81427047DC
:104EC0000122D207002800DB101A002900DB511A4A
:104ED00088427047F0B51FB40646002082B00546F0
:104EE0004024019100901BE0019922460F46304674
:104EF00000F030F8049A059B801A994110D31046AF
:104F00001946224600F016F8361A8F4101972246BC
:104F100001200021009F00F00DF838184D4100904D
:104F20002046641E0028DFDC019B0098294632469B
:104F300007B0F0BD10B5202A04DB0146203A9140AD
:104F4000002010BD914020239C1A0346E3401943E2
:104F5000904010BD10B5202A04DB0846203AD0400E
:104F6000002110BD0B46D340D0402024A21A91400E
:104F70000843194610BD10B5202A06DBCB1708469A
:104F8000203A1041C1170B4306E00B461341D040B5
:104F90002024A21A91400843194610BD3A2800D295
:104FA0003038202302469A43412A01D3104637382D
:104FB000884201D30020C043704700000268137884
:104FC000511801601846704710B5D160044951610D
:104FD0000449116200211161114600F03FF910BD32
:104FE000BD4F0000495200004268002A08D0016805
:104FF0000B78491C002B03D0521E06C01846704780
:105000000121C160881E70474268002A0BD0C36826
:105010000168002B07D183688B4204D0491E521CC3
:1050200006C0002070470020C0437047F7B5009CC1
:105030000F4600262578641C002D05D000F000F9ED
:105040000068405DC007F5D12B2D02D02D2D18D062
:10505000641E39462046029A00F09EFA002F04D0C2
:105060003968A14201D100993960710502240029F3
:105070000BDA4042002803DD08F09EF90460A00727
:10508000FEBD012080020643E3E70028F8DA08F0BD
:1050900093F904600048FEBDFFFFFF7F002904DA9A
:1050A000401C490001D140084000704770B4002402
:1050B000050C05D11024000402D1002921D01124AF
:1050C000050E01D100020834050F01D10001241D95
:1050D000850F01D18000A41C002801DB4000641C66
:1050E000002908D020252E1B0D46F540A14000D0F8
:1050F00001212943084301061B1B000ADB1D02D5C1
:10510000002070BC7047DB05181880180029F8DAF9
:10511000401C4900F5D170BC40084000704710B5F4
:10512000002B08DA0024401C614192185B411A43AD
:1051300001D14008400010BDF0B51FB482B0054653
:105140000C0003D0084607F0B7FF02E007F0B4FFF9
:1051500020300246009021462846FFF7EBFE049BD4
:10516000059A04460F4618431143084314D01846C5
:1051700010431BD0009840210A1A18460599FFF7E2
:10518000E9FE05460E46009A05990498FFF7D2FEFF
:10519000084305D0012004E02046394607B0F0BDA1
:1051A0000020C11705430E432C43374300990E9846
:1051B0006305401A7905E40A00220C43FD0A0A300F
:1051C00002D500200146E9E70105101969410C9C50
:1051D0000D9D00196941FFF7A2FFDFE74A000903AF
:1051E0000123090B1B0519430A4B10B5520D9A42B6
:1051F00002DA0020014610BD064B34339A4203DC2C
:105200009A1AFFF7A7FE10BD034BD218FFF792FEC4
:1052100010BD0000FF030000CDFBFFFF064C012581
:10522000064E05E0E36807CC2B430C3C984710344E
:10523000B442F7D3FEF748FF18F6010038F6010034
:1052400000487047CCE6010010B50446FFF7F8FFB0
:105250000068005DC007C00F10BD0000F3B58DB041
:1052600000200A9001200B90002608460C300C46C6
:1052700009906269012109989047051E2ED0252DBD
:105280002DD0216A8847002818D062690121099829
:105290009047216A88470028F7D1411E6269099822
:1052A000904700E0761CA1690D988847216A8847DD
:1052B0000028F7D1E1690D988847DAE7A1690D98D0
:1052C00088470746A84201D1761CD2E7E1690D98CC
:1052D00088477F1C02D10A98002877D04AE100272E
:1052E00062693D463946099890472A280CD162697F
:1052F000012109989047012506E00A214F433F18F4
:10530000303FEBD410200543626901210998904792
:10531000014630390A2903D29C498F42DEDCECE792
:10532000E90600D49A4F6C280AD04C2810D068287F
:1053300024D06A282ED074280CD07A280AD00DE008
:1053400062690121099890476C2823D004211CE050
:10535000202005436269012109989047A760656094
:1053600065284FD026DC582839D01ADC452849D08A
:1053700012DC252834D04128B0D143E062690121F4
:1053800009989047682802D008210D43E6E70120DC
:10539000C002DEE70220DCE7462833D047282CD1C4
:1053A00030E05B2870D061282CD063286CD0642852
:1053B00023D161E06F284FD009DC662822D067280E
:1053C00020D0692826D06E2817D12EE0CEE0702894
:1053D0004DD073286FD075284ED078280DD154E069
:1053E000A1690D9888470546252800D16CE7E16939
:1053F0000D9888476D1C00D16DE7BBE00A224CE098
:105400000A2252E0012023466A46C0430D99C04655
:10541000C046A4E02846402108436060A807234610
:1054200001D5002239E000223FE0E80700D020E764
:105430002068011D21600068290501D5067018E764
:10544000290701D5068014E7A90703D5F1170660DF
:1054500041600EE706600CE7284640210843606083
:10546000A807234601D5082217E008221DE0494974
:1054700028460840606016E02846402108436060E6
:10548000A8072346BCD5B9E715E0284640210843C4
:105490006060A80707D5234610220120C0430D995C
:1054A000C046C0465BE0234610220120C0430D9950
:1054B000FFF7D4F853E000210C910B4600916328CC
:1054C00002D05B2808D044E02079C00601D4012036
:1054D000A060012000903CE062690121099890479A
:1054E0005E2805D101200C90014662690998904719
:1054F0002169002906D10B4601AA8F00491CD3510E
:105500000829FADB002835D0216900290ED1C117FE
:10551000C90E09184A11930001AA9A1849094901AC
:10552000411A012013688840034313606269012116
:10553000099890475D28E5D10C98002808D00020F4
:1055400001AB81005A58401CD2435A500828F8DB5E
:1055500001AB01202246C0430D99FFF724F9002832
:105560000ADA401C06D10B98002803D00020C04363
:105570000FB0F0BD0A98FBE7E90702D10A99491C70
:105580000A91361800200B9073E60000CCCCCC0CAE
:10559000FFFFFF7FF1F7FFFFF7B582B0029C002706
:1055A0002078641C15460197302802D0002D15D0B4
:1055B00015E020780127641C782804D0582802D0F0
:1055C000002D09D00BE0002D01D0102D07D10027B0
:1055D00010252078641C02E0082500E00A2500263A
:1055E000009610E00099012769430818020C29462B
:1055F00080B2714300908E183804864201D3012096
:1056000001902078641C2946FFF7C8FC0028E9DADD
:105610000398002805D0002F01D0641E00E0029CF2
:1056200004600198002806D007F0C6FE0221016040
:10563000C81E05B0F0BD009930040843F9E770B505
:105640008C180578401C6B075B0F01D10378401C58
:105650002A1106D10278401C03E006780E70401C27
:10566000491C5B1EF9D12B0705D40023521E0DD413
:105670000B70491CFAE70378401CCB1A921C03E01C
:105680001D780D70491C5B1C521EF9D5A142D8D360
:10569000002070BDF0B589B094480068944909684D
:1056A000884201D909B0F0BD91480068914940187D
:1056B0008E4908600121904802F050FB0022012130
:1056C00089038E4805F030FD012189038B4804F0E1
:1056D000FFF90121C903894801F08FFF0122D1039D
:1056E000864804F055FB012002F078F907F032FCFF
:1056F000012007F041FC022007F01CFC012007F00C
:1057000007FC062000F03EF9012000F029F90020F6
:1057100000F06AF97A4800F08FF9002000F040F9B3
:10572000012000F04FF900F081F9142009F03EFE4D
:105730000026002400BF15E000F078F90020610089
:1057400003AA505200F080F9002809D100F05CF95A
:10575000610003AA5052600003A9085A861900E0AC
:1057600002E0641C0C2CE7DB00BF0C2C27D1684640
:10577000878980890290002417E0600003A9085AF5
:10578000B84201DA384602E0600003A9085A074629
:10579000600003A9095A0298814201DD029802E0E3
:1057A000600003A9085A0290641C0C2CE5DBF21B74
:1057B0000299501A0A21FEF7D9FD064607E051A1C9
:1057C00051A004F023FD214651A004F01FFD00224A
:1057D0000121C903494804F0DBFA002000F0C0F8B9
:1057E000002000F0EFF8002007F0C6FB002002F0D8
:1057F000F5F80121C903414804F036F90121890374
:105800003E4804F063F9304600F030F9FF2189008A
:10581000484349100190FEF7A9FD450042488542E2
:105820000ED3424885420BD23F49691A6422514344
:1058300008464B210901FEF799FD3D4908700CE02F
:105840003A48854206D33B48854203D26420384912
:10585000087002E0002036490870354800780A28B0
:105860000EDC3548007800280AD101203249087042
:105870003248007902218843801C3049087123E0B6
:105880002D48007800280ED02948007819280ADD14
:105890000020294908702948007902218843801C8A
:1058A0002649087110E02248007825490978884285
:1058B0000AD01F4800782249087020480079022148
:1058C0008843801C1D4908711C48007902218843C7
:1058D0001A4908710BA10CA004F098FC1448027836
:1058E000294618A004F092FC00BFDBE6240000204B
:1058F000480000208051010007000001800C00409A
:10590000FF0300004C4F47000A5B25735D00000059
:105910004765742042617474657279204661696CD0
:105920005B25645D0000000088130000381800004B
:1059300004000020581B000005000020D07F00203C
:1059400018000020476574204261747465727920E4
:1059500025646D562C204C6576656C20256400000E
:10596000012806D10649096920221143044A116120
:1059700005E00349096920229143014A11617047FA
:1059800000FA01400146054A1069000900010A07B2
:10599000120F1043014A10617047000000FA0140E5
:1059A000012806D10649096880221143044A116082
:1059B00005E00349096880229143014A116070475C
:1059C00000FA0140012806D1064909680122114365
:1059D000044A116005E00349096849084900014A81
:1059E0001160704700FA01400146064A106804231E
:1059F00002469A43104604220A401043014A1060AE
:105A00007047000000FA01400148806880B270478A
:105A100000FA01400448C068C007C00F002801D048
:105A2000012070470020FCE700FA014001200149F5
:105A3000C860704700FA01404105490D014A5160B4
:105A40007047000000FA014010B5002409E0FFF79C
:105A5000E1FF012801D1002010BD012009F0A6FCC2
:105A6000641C0A2CF3DB0120F6E7000070B5044645
:105A7000002509498988614308467D21C900FEF750
:105A800075FC064604490620085E6421FEF784FC86
:105A90003518284670BD000080FAFF1FF7B582B0A8
:105AA00004460D460026642704F0F6FB11F026FBA1
:105AB000002806D125A127A004F0A8FB27A004F008
:105AC000A5FB7D21C9002B48FEF72AFD00202A49AD
:105AD0000883204605F0FEF828A005F0FBF82548CD
:105AE000019023E026A10198FEF731FD00280AD09D
:105AF00016A118A004F08AFB214623A004F086FB1F
:105B0000002005B0F0BD38467043A84209DD24A14D
:105B100010A004F07BFB214623A004F077FB0220B9
:105B2000EFE7384605F0D0F8701C86B2049901986A
:105B3000FEF70DFD0028D5D022A106A004F066FBDB
:105B4000214621A004F062FB0120DAE74552524FC2
:105B5000520000000A5B25735D0000004C6F52612B
:105B600057414E20537461747573204552524F5201
:105B700021000000CCBD00209CC100200D000000D1
:105B80006572726F720000002225732220617420FA
:105B9000636D642065786563206572726F720000C2
:105BA0005741524E000000002225732220617420CC
:105BB000636D6420657865632074696D656F7574C5
:105BC000000000004C4F4700222573222061742002
:105BD000636D6420657865632073756363657373B3
:105BE0000000000010B586B000243EE021A222494A
:105BF00022A0FFF753FF012831D123A123A004F0F5
:105C000005FB244924A004F001FB1023214A0E3295
:105C1000082122480BF076FA1BA11CA004F0F6FA2A
:105C20001E480B38807C1D490B39497C1B4A0B3AB6
:105C3000127C1A4B0B3BDB7B019302920391049085
:105C400016480B38807B009014480B38437B027B4E
:105C5000C17A13A004F0DAFA012006B010BD601C6E
:105C600084B27D20C00005F02FF8032CBEDB00209D
:105C7000F3E700000D0A0000DC05000061742B61F1
:105C800070706575693D3F004C4F47000A5B257396
:105C90005D000000CCBD002025730000C3DF0020A4
:105CA0004150504555493A20253032782025303230
:105CB000782025303278202530327820253032780F
:105CC0002025303278202530327820253032780077
:105CD00010B58EB0002454E02CA22D492DA0FFF762
:105CE000DDFE012847D132A132A004F08FFA3349FA
:105CF00033A004F08BFA2023304A0E3210213148B1
:105D00000BF000FA2AA12BA004F080FA2D48C27BE8
:105D1000807B2C49497B2B4B133BDB7F09930C92F7
:105D20000A910B9027481338817F427F007F254BD3
:105D3000133BDB7E059307920891069021481338A8
:105D4000807E204913394A7E097E1E4B133BDB7D42
:105D500001930392029104901A481338807D0090B9
:105D600018481338437D027DC17C174804F04EFA71
:105D700001200EB010BD601C84B27D20C00004F074
:105D8000A3FF032CA8DB0020F3E700000D0A0000AE
:105D9000DC05000061742B6170706B65793D3F77A5
:105DA00077772E6C616E7665652E636F6D000000EF
:105DB0004C4F47000A5B25735D000000CCBD0020FE
:105DC00025730000CBDF00205CE7010010B5002444
:105DD00016E00DA20D490EA0FFF760FE012809D1C3
:105DE0000EA10FA004F012FA0F4910A004F00EFA51
:105DF000012010BD601C84B27D20C00004F064FF4F
:105E0000032CE6DB0020F4E70D0A0000DC050000AF
:105E100061742B62616E643D3F0000004C4F47008F
:105E20000A5B25735D000000CCBD002025730000D7
:105E300010B5002416E00DA20D490EA0FFF72EFEAE
:105E4000012809D10DA10EA004F0E0F90E490FA020
:105E500004F0DCF9012010BD601C84B27D20C0007C
:105E600004F032FF032CE6DB0020F4E70D0A00000B
:105E7000DC05000061742B63683D3F004C4F470018
:105E80000A5B25735D000000CCBD00202573000077
:105E900010B5002416E00DA20D490EA0FFF7FEFD7F
:105EA000012809D10EA10FA004F0B0F90F4910A0EC
:105EB00004F0ACF9012010BD601C84B27D20C0004C
:105EC00004F002FF032CE6DB0020F4E70D0A0000DB
:105ED000DC05000061742B636C6173733D3F00004F
:105EE0004C4F47000A5B25735D000000CCBD0020CD
:105EF0002573000038B500242CE018A2184919A019
:105F0000FFF7CCFD01281FD11AA11BA004F07EF9D8
:105F10001B491CA004F07AF90823194A0F32042106
:105F200019480BF0EFF813A113A004F06FF916480D
:105F3000C0780090144883784278C01EC17813A0BE
:105F400004F064F9012038BD601C84B27D20C000DB
:105F500004F0BAFE032CD0DB0020F4E70D0A0000A9
:105F6000DC05000061742B646576616464723D3FFA
:105F7000000000004C4F47000A5B25735D000000E5
:105F8000CCBD002025730000DBDF002044455641D6
:105F90004444523A2025303278202530327820256A
:105FA00030327820253032780000000010B586B0FD
:105FB00000243EE021A2224922A0FFF76FFD012824
:105FC00031D123A123A004F021F9244924A004F015
:105FD0001DF91023214A0E32082122480BF092F8B5
:105FE0001BA11CA004F012F91E48C01E807A1D4996
:105FF000C91E497A1B4AD21E127A1A4BDB1EDB7964
:1060000001930292039104901648C01E807900907B
:106010001448C01E43790279C17813A004F0F6F841
:10602000012006B010BD601C84B27D20C00004F0C9
:106030004BFE032CBEDB0020F3E700000D0A00003E
:10604000DC05000061742B6465766575693D3F0071
:106050004C4F47000A5B25735D000000CCBD00205B
:1060600025730000BBDF00204465764555493A2082
:10607000253032782025303278202530327820259E
:106080003032782025303278202530327820253083
:10609000327820253032780010B5002416E00DA2A9
:1060A0000D490EA0FFF7FAFC012809D10DA10EA0A1
:1060B00004F0ACF80E490FA004F0A8F8012010BDC0
:1060C000601C84B27D20C00004F0FEFD032CE6DBE2
:1060D0000020F4E70D0A0000DC05000061742B6469
:1060E000723D3F004C4F47000A5B25735D00000086
:1060F000CCBD00202573000010B5002416E00DA2D1
:106100000D490EA0FFF7CAFC012809D10EA10FA06E
:1061100004F07CF80F4910A004F078F8012010BDBD
:10612000601C84B27D20C00004F0CEFD032CE6DBB1
:106130000020F4E70D0A0000DC05000061742B6903
:1061400072713D3F000000004C4F47000A5B257311
:106150005D000000CCBD00202573000010B50024B8
:106160001CE010A2104911A0FFF798FC01280FD1E4
:1061700011A112A004F04AF8124913A004F046F845
:1061800012A11048FEF7E3F9002801D0012010BD4C
:10619000601C84B2FF20F53004F096FD032CE0DB98
:1061A0000020F4E70D0A0000DC05000061742B6A92
:1061B0006F696E3D3F0000004C4F47000A5B25733E
:1061C0005D000000CCBD0020257300002C6A6F69C3
:1061D0006E65642C0000000010B500240CA20D496F
:1061E0000DA0FFF75BFC01280FD10EA10EA004F05B
:1061F0000DF80F490FA004F009F80FA10C48FEF7A5
:10620000A6F9002801D0012010BD0020FCE7000005
:106210000D0A0000DC05000061742B6A6F696E3D99
:106220003F0000004C4F47000A5B25735D000000F3
:10623000CCBD0020257300002C6A6F696E65642C4C
:106240000000000010B5002416E00DA20D490EA0BC
:10625000FFF724FC012809D10EA10FA003F0D6FFFF
:106260000F4910A003F0D2FF012010BD601C84B2C2
:106270007D20C00004F028FD032CE6DB0020F4E7BD
:106280000D0A0000DC05000061742B6C70637069FE
:106290006E3D3F004C4F47000A5B25735D000000D8
:1062A000CCBD00202573000010B5002416E00DA21F
:1062B0000D490EA0FFF7F2FB012809D10FA110A094
:1062C00003F0A4FF104911A003F0A0FF012010BDAE
:1062D000601C84B27D20C00004F0F6FC032CE6DBD9
:1062E0000020F4E70D0A0000DC05000061742B6D4E
:1062F00061636D6F64653D3F000000004C4F4700D7
:106300000A5B25735D000000CCBD002025730000F2
:1063100010B5002416E00DA20D490EA0FFF7BEFB3C
:10632000012809D10FA110A003F070FF104911A09E
:1063300003F06CFF012010BD601C84B27D20C00002
:1063400004F0C2FC032CE6DB0020F4E70D0A000099
:10635000DC05000061742B7472616E7366706F727D
:10636000743D3F004C4F47000A5B25735D00000001
:10637000CCBD00202573000010B5002416E00DA24E
:106380000D490EA0FFF78AFB012809D10EA10FA02D
:1063900003F03CFF0F4910A003F038FF012010BDAF
:1063A000601C84B27D20C00004F08EFC032CE6DB70
:1063B0000020F4E70D0A0000DC05000061742B707A
:1063C00061726D3D3F0000004C4F47000A5B257332
:1063D0005D000000CCBD00202573000010B5002436
:1063E00016E00DA20D490EA0FFF758FB012809D1B8
:1063F0000EA10FA003F00AFF0F4910A003F006FF43
:10640000012010BD601C84B27D20C00004F05CFC43
:10641000032CE6DB0020F4E70D0A0000DC05000099
:1064200061742B7278323D3F000000004C4F4700F2
:106430000A5B25735D000000CCBD002025730000C1
:1064400010B5002416E00DA20D490EA0FFF726FBA3
:10645000012809D10EA10FA003F0D8FE0F4910A00A
:1064600003F0D4FE012010BD601C84B27D20C0006A
:1064700004F02AFC032CE6DB0020F4E70D0A000000
:10648000DC05000061742B7278313D3F0000000094
:106490004C4F47000A5B25735D000000CCBD002017
:1064A0002573000010B5002416E00DA20D490EA0C2
:1064B000FFF7F4FA012809D10FA110A003F0A6FEFE
:1064C000104911A003F0A2FE012010BD601C84B28F
:1064D0007D20C00004F0F8FB032CE6DB0020F4E78D
:1064E0000D0A0000DC05000061742B72786368659A
:1064F00078743D3F000000004C4F47000A5B257355
:106500005D000000CCBD00202573000010B5002404
:1065100016E00DA20D490EA0FFF7C0FA012809D11F
:106520000EA10FA003F072FE0F4910A003F06EFE43
:10653000012010BD601C84B27D20C00004F0C4FBAB
:10654000032CE6DB0020F4E70D0A0000DC05000068
:1065500061742B736C6565703D3F00004C4F4700C4
:106560000A5B25735D000000CCBD00202573000090
:1065700010B5002416E00DA20D490EA0FFF78EFA0B
:10658000012809D10EA10FA003F040FE0F4910A071
:1065900003F03CFE012010BD601C84B27D20C000D1
:1065A00004F092FB032CE6DB0020F4E70D0A000068
:1065B000DC05000061742B7665723D3F0000000031
:1065C0004C4F47000A5B25735D000000CCBD0020E6
:1065D0002573000010B5002414E00CA20C490DA096
:1065E000FFF75CFA012807D10D4800784008400009
:1065F0000B490870012010BD601C84B27D20C000D2
:1066000004F062FB032CE8DB0020F4E76F6B000072
:10661000DC05000061742B7265626F6F740000000E
:10662000B8DF002010B598B0002434210BA8FDF786
:1066300077FF2C48807C2B49497C2A4A127C294BC5
:10664000DB7B02930392049105902648807B2549C9
:10665000497B009101902348037BC27A22A10BA8B9
:1066600006F0FEFC142106A8FDF75AFF1D48817CA8
:10667000427C007C1B4BDB7B0293049205910390D0
:106680001848807B1749497B009101901548037B8E
:10669000C27A20A106A806F0E3FC06AA264927A094
:1066A000FFF7FCF901280AD127A128A003F0AEFDCD
:1066B00006A928A003F0AAFD002018B010BD0DE027
:1066C00031A21D490BA8FFF7E9F9012800D1F4E731
:1066D000601C84B27D20C00004F0F6FA032CEFDBCE
:1066E0000020EAE7B8DF002061742B6170706575E7
:1066F000693D2530327825303278253032782530A2
:10670000327825303278253032782530327825308D
:1067100032780000253032782530327825303278D2
:10672000253032782530327825303278253032786D
:106730002530327800000000DC05000061742B6118
:1067400070706575693D3F004C4F47000A5B2573CB
:106750005D00000043757272656E742041505045B3
:10676000554920697320616C7265616479202573D5
:106770002C206E6F206E65656420746F20636F6ED1
:1067800066696775726500006F6B000010B5A8B090
:10679000002434211BA8FDF7C3FE4A48C07B4949A9
:1067A000897B484A527B474B133BDB7F0A930B9212
:1067B0000C910D9043481338817F427F007F414BFD
:1067C000133BDB7E06930892099107903D481338EE
:1067D000827E407E3B491339097E3A4B133BDB7D79
:1067E000029305920391049036481338807D354911
:1067F0001339497D0091019032481338037DC27CE2
:1068000031491BA806F02CFC34210EA8FDF788FEA8
:106810002C48C27B807B2B49497B2A4B133BDB7F77
:106820000A930D920B910C9026481338827F407F7B
:1068300024491339097F234B133BDB7E06930992CE
:10684000079108901F481338817E427E007E1D4BC1
:10685000133BDB7D02930492059103901948133892
:10686000807D18491339497D0091019015481338EE
:10687000037DC27C15490EA806F0F2FB0EAA14494E
:1068800014A0FFF70BF9012809D119A119A003F0F1
:10689000BDFC1AA003F0BAFC002028B010BD0DE02A
:1068A00025A20B491BA8FFF7F9F8012800D1F4E74E
:1068B000601C84B27D20C00004F006FA032CEFDBDC
:1068C0000020EAE7CBDF002074EB0100C0EB010001
:1068D000DC05000061742B6170706B65793D3F775A
:1068E00077772E6C616E7665652E636F6D000000A4
:1068F0004C4F47000A5B25735D00000043757272C0
:10690000656E74204150504B455920697320616C6D
:10691000726561647920636F6E666967757265641C
:106920002C206E6F206E65656420746F20636F6E1F
:1069300066696775726500006F6B000008B505A099
:106940000068009004A2FF21F5316846FFF7A6F821
:10695000002008BD2B2B2B000D0A00001CB514A134
:1069600003C90191009000241EE013A21349684658
:10697000FFF794F8012811D111A112A003F046FCF1
:10698000124913A003F042FC7D21C9000F48FDF716
:10699000C7FD00200F49088301201CBD601C84B284
:1069A0007D20C00004F090F9032CDEDB0020F4E72A
:1069B00061742B65786974000D0A0000DC05000025
:1069C0004C4F47000A5B25735D000000CCBD0020E2
:1069D000257300009CC1002030B585B00446002519
:1069E00014216846FDF79CFD23461CA2142168462D
:1069F00006F01AFB1CA21D491DA0FFF74FF8012845
:106A000010D121461D48FDF7A2FD00280AD01CA187
:106A10001CA003F0FBFB21461CA003F0F7FB0020A9
:106A200005B030BD16E026A210496846FFF736F8DB
:106A3000012809D112A113A003F0E8FB0F4909A016
:106A400003F0E4FB0120EBE7681C85B27D20C00069
:106A500004F03AF9032DE6DB0020E1E761742B62D4
:106A6000616E643D257300000D0A0000DC05000026
:106A700061742B62616E643D3F000000CCBD00205C
:106A80004C4F47000A5B25735D000000437572722E
:106A9000656E742062616E6420697320616C72653A
:106AA0006164792025732C206E6F206E65656420EB
:106AB000746F20636F6E6669677572650000000011
:106AC0006F6B000030B59BB00546002434210EA842
:106AD000FDF726FD342101A8FDF722FD18A10EA81F
:106AE00006F0BEFA1AA101A806F0BAFA1BA21C49C8
:106AF0001CA0FEF7D3FF01280FD115A11B48FDF7FD
:106B000026FD002809D01AA11AA003F07FFB1BA0C4
:106B100003F07CFB00201BB030BD0DE026A227490E
:106B20000EA8FEF7BBFF012800D1F4E7601C84B279
:106B30007D20C00004F0C8F8032CEFDB0020EAE75A
:106B400061742B63683D65753836382C3100000060
:106B50003836373130303030300000000D0A000058
:106B6000DC05000061742B63683D3F00CCBD002054
:106B70004C4F47000A5B25735D000000437572723D
:106B8000656E742043484D41534B20697320616CFE
:106B9000726561647920636F6E666967757265649A
:106BA0002C206E6F206E65656420746F20636F6E9D
:106BB00066696775726500006F6B0000C4090000AC
:106BC00070B586B004460026142101A8FDF7A8FC84
:106BD000002C01D11EA512E0012C01D11DA50EE053
:106BE000022C01D11CA50AE01CA11EA003F00EFB83
:106BF00021461EA003F00AFB002006B070BD2A4605
:106C000021A101A806F02CFA2A46224922A0FEF76B
:106C100045FF012809D123A112A003F0F7FA294664
:106C200021A003F0F3FA0020E7E70DE02BA21949B9
:106C300001A8FEF733FF012800D1DEE7701C86B201
:106C40007D20C00004F040F8032EEFDB0020D4E7E5
:106C50006100000062000000630000004552524FD6
:106C6000520000000A5B25735D000000496E7661EA
:106C70006C696420636C61737320706172616D650F
:106C80007465723A2025640061742B636C617373C0
:106C90003D257300DC05000061742B636C61737328
:106CA0003D3F00004C4F470043757272656E742083
:106CB000636C61737320697320616C7265616479C0
:106CC0002025732C206E6F206E65656420746F2004
:106CD000636F6E6669677572650000006F6B000018
:106CE00070B596B004460025142111A8FDF718FCD4
:106CF000224620A111A806F0B3F9342104A8FDF71B
:106D00000FFC1FA104A806F0ABF91FA21F4904A89D
:106D1000FEF7C4FE01281AD10020019002900390D2
:106D200001AA1BA11E48FDF77BFC01A8FDF7AFFDE2
:106D30000646A6420AD11BA11BA003F067FA214612
:106D40001BA003F063FA002016B070BD00BF0DE079
:106D500025A20E4911A8FEF7A1FE012800D1F3E7F4
:106D6000681C85B27D20C00003F0AEFF032DEFDB71
:106D70000020E9E761742B64723D25640000000087
:106D800061742B64723D3F000D0A0000DC050000B9
:106D900061742B64723D3F0D0D0A25730D0A0000CE
:106DA000CCBD00204C4F47000A5B25735D000000FE
:106DB00043757272656E74206461746120726174CF
:106DC0006520697320616C72656164792025642C8B
:106DD000206E6F206E65656420746F20636F6E6631
:106DE00069677572650000006F6B00001FB50024B5
:106DF00017A30FCB03936B4607C319A219491AA017
:106E0000FEF74CFE01280FD11AA11C48FDF79FFB8D
:106E1000002809D01AA11BA003F0F8F91BA003F069
:106E2000F5F9002004B010BD0DE028A20D49684618
:106E3000FEF734FE012800D1F4E7601C84B27D2007
:106E4000C00003F041FF032CEFDB0020EAE7000065
:106E500061742B6972713D726973652C3530000065
:106E60000D0A0000DC05000061742B6972713D3F62
:106E700000000000726973652C353000CCBD002025
:106E80004C4F47000A5B25735D000000437572722A
:106E9000656E74204952512073657474696E672061
:106EA000697320616C726561647920636F6E6669D5
:106EB00067757265642C206E6F206E656564207442
:106EC0006F20636F6E666967757265006F6B000097
:106ED00070B586B004460026142101A8FDF720FBFA
:106EE000002C01D016A000E016A005462A4617A1E6
:106EF00001A806F0B5F82A46184919A0FEF7CEFDFC
:106F000001280AD119A11AA003F080F929461AA074
:106F100003F07CF9002006B070BD0DE024A20F49FB
:106F200001A8FEF7BBFD012800D1F4E7701C86B272
:106F30007D20C00003F0C8FE032EEFDB0020EAE74F
:106F4000616270006F7461610000000061742B6AFF
:106F50006F696E3D25732C3130000000DC050000A8
:106F600061742B6A6F696E3D3F0000004C4F470013
:106F70000A5B25735D00000043757272656E7420B4
:106F80006A6F696E206D6F646520697320616C7231
:106F9000656164792025732C206E6F206E656564B1
:106FA00020746F20636F6E666967757265000000FC
:106FB0006F6B000070B592B00446002614210DA836
:106FC000FDF7AEFA002C01D01DA000E01DA0054683
:106FD0002A461EA10DA806F043F834216846FDF7A5
:106FE0009FFA1EA1684606F03BF82A461E496846ED
:106FF000FEF754FD012810D11CA11D48FDF7A7FA8A
:1070000000280AD01BA11CA003F000F929461C4847
:1070100003F0FCF8002012B070BD0DE019A2124977
:107020000DA8FEF73BFD012800D1F4E7701C86B2E5
:107030007D20C00003F048FE032EEFDB0020EAE7CE
:10704000616270006F7461610000000061742B6AFE
:107050006F696E3D25732C300000000061742B6A4F
:107060006F696E3D3F000000DC0500002C30000021
:10707000CCBD00204C4F47000A5B25735D0000002B
:1070800030EB01006F6B000010B5002411A2124913
:1070900012A0FEF703FD012808D113A113A003F0ED
:1070A000B5F814A003F0B2F8002010BD0DE01EA248
:1070B00009491EA0FEF7F2FC012800D1F5E7601C8B
:1070C00084B27D20C00003F0FFFD032CEFDB002025
:1070D000EBE700006D616300DC05000061742B6D5F
:1070E0006F64653D3F0000004C4F47000A5B25730D
:1070F0005D00000043757272656E74206D6F64658B
:1071000020697320616C7265616479204D41432C64
:10711000206E6F206E65656420746F20636F6E66ED
:1071200069677572650000006F6B000061742B6DFC
:107130006F64653D6D61630070B588B004460025DD
:10714000142103A8FDF7ECF922461CA103A805F0C1
:1071500087FF1FA21F4920A0FEF7A0FC01281AD11B
:1071600000200090019002906A461FA12448FDF77C
:1071700057FA6846FDF78BFB0646A6420AD121A1C5
:1071800021A003F043F8214621A003F03FF800209E
:1071900008B070BD00BF0DE02AA20E4903A8FEF79B
:1071A0007DFC012800D1F3E7681C85B27D20C0007A
:1071B00003F08AFD032DEFDB0020E9E761742B74F7
:1071C00072616E7366706F72743D2564000000001A
:1071D0000D0A0000DC05000061742B7472616E738F
:1071E00066706F72743D3F0061742B7472616E73D0
:1071F00066706F72743D3F0D0D0A25730D0A000015
:10720000CCBD00204C4F47000A5B25735D00000099
:1072100043757272656E7420706F7274206973208A
:10722000616C72656164792025642C206E6F206E1C
:1072300065656420746F20636F6E6669677572653B
:10724000000000006F6B0000F0B59DB004460D46D5
:107250000026342110A8FDF763F92B4622461DA114
:1072600010A805F0FDFE1FA21F4920A0FEF716FC86
:1072700001281CD1342101A8FDF752F90EAB0FAA49
:107280001DA12248FDF7CCF90F98A0420ED10E980F
:10729000A8420BD11EA11FA002F0B8FF2A4621462A
:1072A0001E4802F0B3FF00201DB0F0BD00BF0DE08E
:1072B0001BA20D4910A8FEF7F1FB012800D1F3E74E
:1072C000701C86B27D20C00003F0FEFC032EEFDBB5
:1072D0000020E9E761742B7278323D25642C256427
:1072E000000000000D0A0000DC05000061742B7234
:1072F00078323D3F0000000061742B7278323D3FD0
:107300000D0D0A25642C25640D0A0000CCBD00205B
:107310004C4F47000A5B25735D000000ECEA01005A
:107320006F6B000010B588B0002420221649684613
:10733000FDF7CEF815A2164916A0FEF7AFFB0128FF
:107340000FD118A11948FDF702F9002809D018A19A
:1073500018A002F05BFF19A002F058FF002008B04F
:1073600010BD0DE024A20A496846FEF797FB0128EC
:1073700000D1F4E7601C84B27D20C00003F0A4FCBF
:10738000032CEFDB0020EAE708DB01000D0A000018
:10739000DC05000061742B727870726C656E3D3F85
:1073A000000000003134373100000000CCBD002067
:1073B0004C4F47000A5B25735D00000043757272F5
:1073C000656E7420527850724C656E20697320612E
:1073D0006C726561647920636F6E6669677572654A
:1073E000642C206E6F206E65656420746F20636F5F
:1073F0006E666967757265006F6B000030B595B099
:1074000000243422284908A8FDF762F82748007AAA
:1074100001280ED01C2226A101A8FDF759F801A8C9
:10742000FDF7A9F805462A4601A908A8FDF750F876
:107430000EE0202225A16846FDF74AF86846FDF7D0
:107440009AF805462A46694608A8FDF741F800BFA4
:1074500026A2274927A0FEF721FB012810D10AA95F
:1074600003312748FDF773F8002809D025A126A08D
:1074700002F0CCFE26A002F0C9FE002015B030BDFF
:107480000DE033A21A4908A8FEF708FB012800D135
:10749000F4E7601C84B27D20C00003F015FC032CCF
:1074A000EFDB0020EAE7000028DB0100D07F0020AE
:1074B00061742B736C6565703D6C696768742C3002
:1074C0002C6C6576656C2C6C6F77000061742B7387
:1074D0006C6565703D6C696768742C313530302C93
:1074E0006C6576656C2C6C6F770000000D0A0000EF
:1074F000DC05000061742B736C6565703D3F000016
:10750000CCBD00204C4F47000A5B25735D00000096
:1075100043757272656E7420736C656570206D6F53
:10752000646520697320616C726561647920636FA2
:107530006E666967757265642C206E6F206E656576
:107540006420746F20636F6E6669677572650000F2
:107550006F6B00007FB506460D4614466A46294605
:10756000304602F01FF90098A84227D16846C0793A
:10757000002823D1E007C00F002803D168464079D6
:1075800000281BD1E007C00F002803D068464079CF
:10759000012813D102202040002803D168468079B9
:1075A00000280BD102202040002803D068468079B3
:1075B000012803D16846007902281DD002950020D9
:1075C0006946C873E007C00F002801D1487302E084
:1075D00001206946487302202040002802D16946F4
:1075E000887302E0012069468873022069460873A7
:1075F00002A9304602F0F2F97FBD7FB505460C4680
:107600006A462146284602F0CDF80098A0420FD1E4
:107610006846C07900280BD168464079002807D118
:1076200068468079002803D16846007903280BD08A
:10763000029400216846C173417381730321017371
:1076400002A9284602F0CAF97FBD000010B501204A
:10765000800700F0B1FA012000F09CFA01216B488C
:1076600000F07CFB01228021694802F09DFE01228E
:1076700040216748C03802F097FE0022802165480B
:1076800003F052FD00220421624803F04DFD002268
:107690001021604802F088FE002240215D4803F07E
:1076A00043FD40215B4802F013FA002201218902C8
:1076B0005848803802F078FE0022FF2101315548F9
:1076C00003F032FDFF210131524802F001FA01229C
:1076D00011025048403802F067FE002201214902A1
:1076E0004C48403803F020FD012149024948403808
:1076F00002F0EEF9002208214548803803F014FD1D
:10770000002240214248803803F00EFD0022202153
:107710003F48803803F008FD002210213C488038A3
:1077200002F042FE20213A48803802F0CFF9402191
:107730003748803802F0CCF908213548803802F00B
:10774000C7F904F087FA03F0FDFB03F065FB0123A2
:10775000022280212E4801F0E7FE01231A46402133
:107760002C48403001F0E0FE01231A461902294856
:10777000403801F0D9FE012300221021254801F0F4
:10778000D3FE1E20002815DBC206D20E0121914037
:10779000214A116000BF00BF00BFBFF34F8F00BF81
:1077A00000BF00BF00BF00BF00BFBFF36F8F00BFAF
:1077B00000BF00BF00BF00211E2005F0F3FC1E200B
:1077C000002806DBC206D20E01219140124A803AFF
:1077D000116000BF0121082002F054F9012180202E
:1077E00002F050F90D48007800280ED10B490870BE
:1077F00000220B490B4809F03AFB0B4A05210948C6
:1078000009F002FA074809F05BFB10BD0700000110
:10781000800D0040800C004080E100E0340000203A
:10782000B10E010088B9002099B400000149C86276
:107830007047000000600140012806D10649096830
:1078400080221143044A116005E00349096880223F
:107850009143014A1160704700600140012806D140
:107860000649096801221143044A116005E00349F1
:10787000096849084900014A1160704700600140E9
:107880000146064A1068082302469A431046082219
:107890000A401043014A1060704700000060014038
:1078A000012806D10649C96801221143044AD16062
:1078B00005E00349C96849084900014AD160704799
:1078C0000060014010B500F023F8002819D000F046
:1078D0002BF80C480078401C0A4908700A480068D8
:1078E000401C0949086009480068401C07490860B5
:1078F00004480078052804DD00200249087009F0DA
:10790000F5FA10BD66000020440000203800002079
:1079100004480069C007C00F002801D0012070474B
:107920000020FCE700600140012001490861704728
:107930000060014070B504460D460121880600F044
:107940000DFA032000F0E8F9012000F0D3F901203E
:10795000FFF772FF0020FFF793FF681E00F014F896
:10796000601EFFF763FF1B2005F0CCFB02211B20EC
:1079700005F054FC1B2005F0FDFB0120FFF790FFF4
:107980000120FFF76BFF70BD01498862704700005E
:107990000060014070B504462046FCF7ECFD85B25E
:1079A0002946204600F002F870BD0000F8B50446F4
:1079B0000D46002627460CE03046721C96B2395C14
:1079C000054805F0C1F900BF034805F0A1F90028FA
:1079D000FAD0AE42F0DBF8BD00780140012803D1B7
:1079E0000A21034A116002E00521014A1160704733
:1079F00000E0014000B5024600230020D060106185
:107A000010605060906000F013FA012811D100F06E
:107A1000F7F903461B0C0F2B02D14048D06008E059
:107A2000072B02D13E48D06003E0581C3D49484333
:107A3000D06000F0C7F901280ED100F0D7F9034655
:107A40001B0C581C38494843106100F0C7F908283E
:107A500002D110694000106100F062FA034600BFD5
:107A6000002B06D0012B07D0022B08D0032B0DD101
:107A700008E0D06810600CE02A48106009E0106946
:107A8000106006E00120C003106002E0D0681060C2
:107A900000BF00BF00F000FA03461B0A042B06D00B
:107AA000052B08D0062B0AD0072B10D10BE010684D
:107AB000400850600EE01068800850600AE01068CE
:107AC000C008506006E010680009506002E01068CD
:107AD000506000BF00BF00F0F7F903461B0C042BF9
:107AE00006D0052B08D0062B0AD0072B10D10BE0AF
:107AF0005068400890600EE05068800890600AE08E
:107B00005068C008906006E050680009906002E08C
:107B10005068906000BF00BF00BD0000006CDC0238
:107B2000005A620200127A0040420F0010B504466B
:107B3000012C02D1164803681DE0022C03D1144821
:107B40004038C36B17E0032C03D111484038836BD6
:107B500011E0042C03D10E484038436B0BE0052C98
:107B600002D10B48836806E0062C02D10848C3689E
:107B700001E007480368180CD94389B2884203D151
:107B8000D8B200F073F902E06B2000F06FF910BD7D
:107B900040FBFF1F012806D10649096BC2071143AC
:107BA000044A116305E00349096B49004908014A89
:107BB00011637047002400400146064A106B13050C
:107BC00002469A4310461A460A401043014A10637F
:107BD0007047000000240040012806D10749096BC6
:107BE00002051143054A116306E00449096B0122AD
:107BF00012059143014A11637047000000240040C0
:107C00000146064A106B03231B0402469A431046A2
:107C10001A460A401043014A10637047002400408E
:107C2000012806D10749096B42051143054A116332
:107C300006E00449096B012252059143014A116390
:107C400070470000002400400146064A106B0323E1
:107C50009B0402469A4310461A460A401043014AC2
:107C60001063704700240040012806D10749096BC2
:107C700002021143054A116306E00449096BFF2221
:107C800001329143014A1163704700000024004013
:107C90000146054A106B800880008A07920F104346
:107CA000014A10637047000000240040012806D1FB
:107CB0000749096B42021143054A116306E0044972
:107CC000096B012252029143014A1163704700007F
:107CD000002400400146064A106B0C2302469A43DA
:107CE00010460C220A401043014A106370470000FE
:107CF00000240040012806D10649496B1022114397
:107D0000044A516305E00349496B10229143014A3B
:107D100051637047002400400146054A506B8008BB
:107D200080008A07920F1043014A50637047000099
:107D300000240040012806D10749496B8205114300
:107D4000054A516306E00449496B012292059143BB
:107D5000014A5163704700000024004030B50246DC
:107D60000B4600200F2424061440FF252D0664191D
:107D7000002C09D06419002C08D06419002C08D0FC
:107D80006419002C0BD107E00D4809E00C48001DD8
:107D900006E00B48083003E009480C3000E000BF63
:107DA00000BF00280BD092B201219140002B03D0DC
:107DB00004680C43046002E004688C43046030BD36
:107DC0002024004004480069C007C00F002801D0EB
:107DD000012070470020FCE70024004002480069B1
:107DE0000821084070470000002400400248006954
:107DF0000249084070470000002400400000FF03D3
:107E0000024840680F2109040840704700240040E0
:107E10000146064A50680F231B0402469A43104647
:107E20001A460A401043014A50607047002400403F
:107E300004484068C007C00F002801D001207047E7
:107E40000020FCE700240040012806D106494968CB
:107E500001221143044A516005E003494968490879
:107E60004900014A51607047002400400146044A1D
:107E70009068000A0002CAB21043014A906070473D
:107E80000024004010B504462068FFF7C1FF2079A8
:107E9000FFF7DAFF10BD0000024800680721090261
:107EA00008407047002400400146064A1068072336
:107EB0001B0202469A4310461A460A401043014AE2
:107EC0001060704700240040024800680721090440
:107ED00008407047002400400146064A1068072306
:107EE0001B0402469A4310461A460A401043014AB0
:107EF0001060704700240040012806D10749096836
:107F000042061143054A116006E00449096801224E
:107F100052069143014A116070470000002400405E
:107F2000024800684007400F7047000000240040EE
:107F30000146054A1068C008C0004A07520F1043A6
:107F4000014A1060704700000024004010B504464C
:107F50002068FFF7EDFF6068FFF7A6FFA068FFF756
:107F6000BBFF207BFFF7C8FF10BD0000F8B505463A
:107F70000E460024002701200090002002E0295C2A
:107F80000C19401C711E8142F9DC2046E117090ED4
:107F9000091809120902611ACFB2701E285CB84292
:107FA0000BD007A108A002F031F9701E2A5C3946F7
:107FB00007A002F02BF9002000900098F8BD000007
:107FC0005741524E000000000A5B25735D0000001F
:107FD00063616C206572726F722073756D5B2564CE
:107FE0002D25645D0000000010B5202105200EF055
:107FF000D1FF0A2000F0DEF810BD70B50A4600215E
:10800000002300BF08E001248C40234614461C4096
:10801000002C00D002E0491C1029F4D300BF0468F2
:1080200001258D40AC430460C5684E000324B44074
:10803000A543C56070BDF8B504460E461546002739
:10804000781E009000BF2778641C6946384604F00B
:108050004FFF701E061EF6D168460088C04381B2ED
:108060000091684600882870684600880012687091
:10807000F8BD03200121890748607047F8B505461F
:108080000E461746294608A002F0C0F8002404E076
:10809000315D0AA002F0BAF8641CBC42F8DB09A00A
:1080A00002F0B4F8F8BD00000A2055617274204453
:1080B000617461205B25735D3A0000002025303239
:1080C000780000000A00000010B58EB0342101A82D
:1080D000FCF726FA00200090284800790007C00F1E
:1080E00000282FD0254800790821884323490871AA
:1080F000342101A8FCF714FA01A9802011F05EFDDB
:1081000000901F480FF098FB044669460878401C11
:1081100084420FDB01221A480FF09EFC6846027869
:1081200001A917480FF098FC16480078401C154923
:10813000087006E014A116A002F068F816A002F07C
:1081400065F800BF0D48408A002815D01748006820
:108150001749096888420FD80848408A3C2148439B
:108160001349096840181149086004484079802182
:1081700088438030014948710EB010BDD07F002087
:10818000C07D00201C0000204552524F52000000CC
:108190000A5B25735D0000004C77726220416C72AF
:1081A000656164792046756C6C0000002000002039
:1081B0004800002001B5002107E07D21890100BFB2
:1081C00008464A1E91B20028FAD16A461088421E1B
:1081D00093B200930028F0D108BD000010B59AB00A
:1081E000642101A8FCF79CF900200090FFF76CFFC8
:1081F0004048C08D00287AD13F484079C009002806
:108200000DD03D484079802188433B49487108465C
:108210000079022188433849087100F087F8364810
:1082200000798007C00F00282FD033480079022141
:10823000884331490871642101A8FCF771F901A94B
:10824000032011F0BBFC00902C480FF0F5FA044617
:1082500069460878401C84420FDB012227480FF052
:10826000FBFB6846027801A924480FF0F5FB24487F
:108270000078401C2249087006E022A123A001F0EA
:10828000C5FF24A001F0C2FF00BF1D4800780028F0
:108290002DD001AC18484079402188434030164920
:1082A000487117480078401E15490870642101A8DC
:1082B000FCF736F90122694610480FF037FB684693
:1082C000027821460D480FF031FB6846017801A87D
:1082D00011F09EFB0A480078002807D1012109030C
:1082E0001148FCF71DF905480FF080FB00BF1AB0DC
:1082F00010BD00009CBD0020D07F0020C07D00206C
:108300001C0000204552524F520000000A5B2573AA
:108310005D0000004C77726220416C726561647987
:108320002046756C6C000000C06D0020F0B58FB069
:10833000342102A8FCF7F4F802AD002400210191D9
:108340000026342102A8FCF7EBF800210191FF215F
:108350006846017200214172AD1C0221019129463B
:10836000012011F02BFC04462D19684600790019F4
:10837000C1B20191761C2946032011F01FFC04466E
:108380002D19684600790019C1B20191761C294661
:108390008A2011F013FC04462D1968460079001953
:1083A000C1B20191761C2946572011F007FC044602
:1083B0002D19684600790019C1B20191761C294631
:1083C000532011F0FBFB04462D1968460079001973
:1083D000C1B20191761C2946522011F0EFFB0446F0
:1083E0002D19684600790019C1B20191761C294601
:1083F000562011F0E3FB04462D1968460079001958
:10840000C1B20191761C2946842011F0D7FB0446A5
:108410002D19684600790019C1B20191701CC6B2CD
:108420002946862011F0CAFB04462D1968460079BA
:108430000019C1B20191701CC6B22946542011F036
:10844000BDFB04462D19684600790019C1B201919F
:10845000701CC6B26846467211480FF0EDF9074627
:1084600068460079401C874210DB012201A90C48B4
:108470000FF0F2FA6846027902A909480FF0ECFA07
:1084800008480078401C0749087006E006A108A0CB
:1084900001F0BCFE08A001F0B9FE0FB0F0BD000075
:1084A000C07D00201C0000204552524F52000000A9
:1084B0000A5B25735D0000004C77726220416C728C
:1084C000656164792046756C6C000000F0B58BB076
:1084D000242102A8FCF724F871200003019009224E
:1084E00002A9019800F0B0FA02AE00273F4D002427
:1084F00017E0B8003058000E2855B8003058000278
:10850000010E601C2954B800305A0004010EA01C52
:10851000295438467F1C8000315CE01C29542D1DF5
:10852000241D042CE5D3314D2D1D002417E0B80087
:108530003058000E2855B80030580002010E601C5B
:108540002954B800305A0004010EA01C29543846A2
:108550007F1C8000315CE01C29542D1D241D102C33
:10856000E5D3224D1435002417E0B8003058000E32
:108570002855B80030580002010E601C2954B8007C
:10858000305A0004010EA01C295438467F1C80007C
:10859000315CE01C29542D1D241D102CE5D31348FB
:1085A000C01EC078002804D01048C01EC078FF2824
:1085B0001AD10E48C01EC079002804D00B48C01E36
:1085C000C079FF2810D1042209490848FBF780FF31
:1085D000102208490548001DFBF77AFF10220649C2
:1085E00002481430FBF774FF0BB0F0BDDBDF002056
:1085F000880000208C0000209C000020F0B589B08D
:10860000202101A8FBF78CFFE120C0020090082286
:1086100001A9009800F018FA01AE00273F4D002490
:1086200017E0B8003058000E2855B8003058000246
:10863000010E601C2954B800305A0004010EA01C21
:10864000295438467F1C8000315CE01C29542D1DC4
:10865000241D082CE5D3314D0835002417E0B8005F
:108660003058000E2855B80030580002010E601C2A
:108670002954B800305A0004010EA01C2954384671
:108680007F1C8000315CE01C29542D1D241D082C0A
:10869000E5D3224D1035002417E0B8003058000E05
:1086A0002855B80030580002010E601C2954B8004B
:1086B000305A0004010EA01C295438467F1C80004B
:1086C000315CE01C29542D1D241D102CE5D31348CA
:1086D000C01EC07A002804D01048C01EC07AFF28EF
:1086E00019D10E48C01EC07C002804D00B48C01E03
:1086F000C07CFF280FD11022094908481030FBF731
:10870000E7FE0822074905480830FBF7E1FE08218B
:108710000248FBF705FF09B0F0BD0000BBDF0020F9
:108720007800002070000020F0B58FB0282105A847
:10873000FBF7F6FE39277F0300240A2205A93846F5
:1087400000F082F9484905984882484907984870DE
:108750004549089888730998C8730A98C8710B9896
:10876000C4B20C9808720846408A2D2149018842FB
:1087700003DC3D48408A0A2807DA3B48408A002843
:1087800003D02D2040013849488238484078E728F6
:1087900003DC36484078E02802DAE72033494870A5
:1087A0003148807B032803DB2F48807B1E2802DDB5
:1087B00005202D4988732C48C07B642802DD642085
:1087C0002949C8732848C079012802DD00202649BC
:1087D000C8711A2C04DD412000062349086219E003
:1087E000192C03D122482049086213E01A2C03D126
:1087F00020481D4908620DE00D2C05DA2046FCF7E3
:10880000C6FA1949086205E00C21081BFCF7B4FA06
:10881000154908621448007A012802DD0120124936
:10882000087201201049087213A115A001F0EEFC96
:108830000D49086AFCF7FEFA05460B48007A0295D6
:10884000039104900848C0790749C97B00910190C1
:108850000548837B054842780348418A0A4801F06D
:10886000D5FC0FB0F0BD0000D07F002028DF002035
:10887000000060400000B040464C415348000000FA
:108880000A5B25735D00000050E9010070B5032507
:108890006D041C4C012149031B48FBF741FEA00855
:1088A000421C1949284600F0CFF8224616491748BD
:1088B000FBF70EFE15480078652803DC13480078A6
:1088C000002807D112491148001DFBF729FE00209E
:1088D0000E4908700D484078642803DC0B48407846
:1088E000002807D1E12109010A48FBF719FE002001
:1088F0000649487014210848FBF712FE0FF090FD5E
:1089000070BD00003419000060990020F87F00203D
:108910000C0B0000088B0020189900201CB5E524E2
:10892000E40201226946204600F08EF800980128F2
:1089300006D10948807904218843001D06498871C1
:1089400006A108A001F062FC034880794007C10F2E
:1089500006A001F05BFC1CBDD07F0020464C4153BB
:10896000480000000A5B25735D00000052656164E9
:1089700020466C61736820446576696365204661B2
:1089800063746F727920466C61673A202564000039
:108990001CB5E324E40202226946204600F054F8A4
:1089A0001449009848700198887008464078FE285D
:1089B00003DC08464078012802DA0A200D49487095
:1089C0000C488078022802D002200A4988700AA147
:1089D0000BA001F01BFC07488078002801D00AA0FA
:1089E00000E00BA00246034841780BA001F00EFC0A
:1089F0001CBD0000B8DF0020464C41534800000079
:108A00000A5B25735D000000436C617373204300B3
:108A1000436C6173732041005265616420466C6150
:108A2000736820446576696365204C6F52615741D5
:108A30004E20506F72743A2025642C20436C617371
:108A4000733A20257300000070B503461C460020D1
:108A500004E0256886008D51241D401C9042F8DBFF
:108A600070BD000070B5732424030C2529461148FD
:108A7000FBF756FD03220F492046FFF7E5FF0C22C6
:108A80000C490D48FBF724FD0B480078032803DD53
:108A90000C210948FBF744FD08A10AA001F0B6FB30
:108AA0000548017809A001F0B1FB024804F088FCF8
:108AB00070BD0000609900202C990020464C415365
:108AC000480000000A5B25735D0000005265616488
:108AD00020466C61736820446576696365204F7039
:108AE000656E204D6F64653A2025640010B5FFF770
:108AF0001BFEFFF783FDFFF7E9FCFFF749FFFFF7D8
:108B00000DFFFFF7C3FEFFF7ADFF10BD10B52D2021
:108B1000400113494882E720124948700520104956
:108B200088736420C8730020C87141200006086261
:108B30000D490E48FBF7F4FC0C210D48FBF7F0FC47
:108B400000F038F900F0AAF900F0C8F805494878B3
:108B500003F0E4F808F0B0FB02F060FE10BD000086
:108B6000D07F002028DF002034190000F87F00208B
:108B70002C990020F0B58BB0712000030A900027DB
:108B8000242101A8FBF7CCFC264C002610E020781D
:108B90000506607800044519A07800024519E078C0
:108BA0004519241D38467F1C800001A90D50361D33
:108BB000042EECD31B4C241D002610E02078050663
:108BC000607800044519A07800024519E07845193D
:108BD000241D38467F1C800001A90D50361D102E23
:108BE000ECD3104C1434002610E020780506607891
:108BF00000044519A07800024519E0784519241DA4
:108C000038467F1C800001A90D50361D102EECD374
:108C10000A9800F0DDF9092201A90A9800F006F986
:108C20000BB0F0BDDBDF0020F0B589B0E120C00261
:108C30000890002720216846FBF772FC264C00268E
:108C400010E020780506607800044519A07800023D
:108C50004519E0784519241D38467F1C8000694677
:108C60000D50361D082EECD31B4C0834002610E0A6
:108C700020780506607800044519A078000245199F
:108C8000E0784519241D38467F1C800069460D5048
:108C9000361D082EECD3104C1034002610E020783E
:108CA0000506607800044519A07800024519E078AF
:108CB0004519241D38467F1C800069460D50361D1D
:108CC000102EECD3089800F083F908226946089822
:108CD00000F0ACF809B0F0BDBBDF0020F0B58BB000
:108CE00039277F032C48408A01902C484078039014
:108CF0002948807B04902848C07B05902648C0798D
:108D000006902549086AFCF795F805460022244B91
:108D1000FCF7A4F801D119242FE01F49086AFCF7D9
:108D200089F8054600221F4BFCF798F801D11A2458
:108D300023E01949086A1C49FCF7B8F80BD2164918
:108D4000086A0021FCF7BCF805D81349086AFCF74B
:108D50003EF8C4B211E01049086A1449FCF7A6F8BD
:108D60000BD20D49086A1249FBF7EFFD0121C90733
:108D700048400546FCF72BF8C4B207940648007A31
:108D80000890384600F024F90A2201A9384600F07C
:108D90004DF80BB0F0BD0000D07F002028DF002090
:108DA00000000C4000001640000050410000C0418F
:108DB00000004041F8B5032676040F4C0121490319
:108DC0000E48FBF7ADFB22460D490C48FBF780FB34
:108DD000E01DFF30F930470A002504E069028819D8
:108DE00000F0F6F86D1CBD42F8D3A20803493046E6
:108DF00000F01CF8F8BD0000341900006099002054
:108E0000F87F00201CB5E324E40207484078009076
:108E1000054880780190204600F0DAF80222694681
:108E2000204600F003F81CBDB8DF002070B50446F2
:108E30000D46164601211648FEF790FF0120FEF769
:108E400079FF00F097F8022000F072F8114800F066
:108E5000ABF8114800F0A8F80CE0022000F068F828
:108E600001CD2060241D00BF00F08CF80028FBD04D
:108E700000F094F83046761E0028EED100F094F809
:108E80000020FEF757FF00210148FEF767FF70BD85
:108E900005000002A5A5A5A5F1F1F1F170B57325B6
:108EA0002D030C24012149030848FBF739FB224616
:108EB00007490648FBF70CFB284600F089F8A20892
:108EC00002492846FFF7B2FF70BD000060990020FC
:108ED0002C99002038B57F242403054800902046B3
:108EE00000F076F8012269462046FFF79FFF38BD63
:108EF000785634120146054A506940084000CA07B6
:108F0000D20F1043014A506170470000001000402A
:108F10000146064A506903231B0202469A43104643
:108F20001A460A401043014A506170470010004041
:108F30000146064A5069022302469A43104602221D
:108F40000A401043014A5061704700000010004081
:108F50000448006AC007C00F002801D001207047F4
:108F60000020FCE700100040012001490862704722
:108F700000100040012040020149086270470000D3
:108F8000001000400448006A02210840002801D077
:108F9000012070470020FCE700100040022001493A
:108FA0000862704700100040014988617047000066
:108FB000001000400146054A1068800880008A07BA
:108FC000920F1043014A10607047000000100040EB
:108FD00070B5054601211A48FEF7C0FE0120FEF7D4
:108FE000A9FE0020FFF794FF0120FFF783FF15483B
:108FF000FFF7DAFF1448FFF7D7FF1448286000E0B6
:1090000000BFFFF7A5FF0128FAD1FFF7ADFF002051
:10901000FFF7CAFF0020FEF78DFE00210848FEF78B
:109020009DFE002408E0A0002858401C002801D024
:10903000002070BD601C84B2802CF4DB0120F8E7B6
:109040000500000296969696EAEAEAEACDAB34125B
:1090500010B51CA001F0DAF82AA001F0D7F839A069
:1090600001F0D4F81622112144A001F0CFF8FFF747
:109070003DFD12F08BF87F20000300684F498842C5
:1090800003D17F200003FFF7A3FF64204C49087041
:109090000A204C49088201214B480172FCF7FAFA78
:1090A00028224AA14E4807F07FF80446002C07D03A
:1090B0004CA14EA001F0AAF821464EA001F0A6F85E
:1090C00010BD00000A2A2A2A2A2A2A2A2A2A2A2AFB
:1090D0002A2A2A2A2A2A2A2A2A2A2A2A2A2A2A2AF0
:1090E0002A2A2A2A2A2A2A2A2A2A2A2A2A2A2A2AE0
:1090F0002A2A2A2A2A2A2A2A2A2A2A2A2A2A2A2AD0
:109100002A0A00002A2A2A2A2A2A2A2A2A2A2A2A33
:109110002A2A2A2A2A2A2A2A2A2A2A2A2A2A2A2AAF
:109120002A2A2A2A2A2A2A2A2A2A2A2A2A2A2A2A9F
:109130002A2A2A2A2A2A2A2A2A2A2A2A2A2A2A2A8F
:109140000A0000002A2A2A2A2A2A2A2A2A2A2A2A1D
:109150002A2A2A2A20484B54203A20536D617274DF
:1091600020446F6F72204C6F636B202A2A2A2A2AB0
:109170002A2A2A2A2A2A2A2A2A2A0A002A2A2A2A99
:109180002A2A2A2A2048415244574152455F5645CF
:10919000523A20307825303478202C534F4654579B
:1091A0004152455F5645523A203078253034782078
:1091B0002A2A2A2A2A2A2A2A0A0000007856341241
:1091C00004000020D07F0020F8DF00206D61696E70
:1091D0005F6576656E745F67726F75700000000082
:1091E000389900204552524F520000000A5B257307
:1091F0005D0000006D61696E5F6576656E745F6726
:10920000726F7570204372656174204661696C20CD
:1092100021212120256400000107090F014AD160A6
:109220007047000000FC014010B50446204601F0E4
:10923000B5FF2046FFF7F0FF10BD30B504460D46E0
:1092400003222946204600F08DF930BDF7B50346CC
:109250000D460021002207E0012696402E40002EF8
:1092600001D0114602E0521C102AF5D300BF102A8B
:1092700000D1FEBD314FDE1BBB4211D008DC304EA9
:109280009E19002E09D0402E08D0802E51D106E024
:10929000402E06D0802E4CD104E000BF00BF00BF9E
:1092A00000BF00BF254E4036B34203D0234E803668
:1092B000B34202D10B2903D93CE00F2900D939E090
:1092C000032901D800200CE0042903D3072901D881
:1092D000012006E0082903D30B2901D8022000E071
:1092E0000320164E803EB34200D1001D134E403E77
:1092F000B34200D10830114EB34200D10C300F4EB2
:109300004036B34200D110300C4E8036B34200D10B
:1093100014300C4E3469029E012E02D18640344333
:1093200004E0012686402746B7433C46054E34619B
:1093300000E000BF00BF00BF9BE70000C00C004082
:1093400000F4FFBFC00D0040F0B502460D460023FB
:109350000027002407E00120A0402840002801D079
:10936000234602E0641C102CF5D300BF102C01D161
:109370003846F0BD2E4E901BB24211D008DC2D486D
:109380001018002809D0402808D080284CD106E0C9
:10939000402806D0802847D104E000BF00BF00BFAE
:1093A00000BF00BF22484030824203D020488030B6
:1093B000824202D10B2B03D937E00F2B00D934E0C6
:1093C000032B01D800210CE0042B03D3072B01D879
:1093D000012106E0082B03D30B2B01D8022100E06A
:1093E000032113488038824200D1091D10484038BB
:1093F000824200D108310E48824200D10C310C4823
:109400004030824200D1103109488030824200D180
:1094100014310948406901268E40304001268E40B3
:10942000B04200D1012700E000BF00BF3846A0E7EE
:10943000C00C004000F4FFBFC00D0040F0B5024674
:109440000C460021002307E001269E402640002E06
:1094500001D0194602E05B1C102BF5D300BF102B86
:1094600000D1F0BD2D4FD61BBA4211D008DC2C4ED6
:109470009619002E09D0402E08D0802E49D106E042
:10948000402E06D0802E44D104E000BF00BF00BFB4
:1094900000BF00BF214E4036B24203D01F4E80367F
:1094A000B24202D10B2903D934E00F2900D931E0AF
:1094B000032901D800200CE0042903D3072901D88F
:1094C000012006E0082903D30B2901D8022000E07F
:1094D0000320124E803EB24200D1001D0F4E403E8E
:1094E000B24200D108300D4EB24200D10C300B4ECA
:1094F0004036B24200D11030084E8036B24200D120
:109500001430084E7569012686403543054E756155
:1095100000E000BF00BF00BFA3E70000C00C004098
:1095200000F4FFBFC00D0040F0B505460E461746DB
:109530001C4603223146284600F014F831462846DE
:1095400000F096F83A463146284600F00BF83146CE
:109550002846FFF773FF224631462846FFF776FE7E
:10956000F0BD0000F7B5034615460021002408E0D1
:109570000126A640019F3E40002E01D0214602E078
:10958000641C102CF4D300BF102C00D1FEBD354F4D
:10959000DE1BBB4211D008DC334E9E19002E09D0D1
:1095A000402E08D0802E58D106E0402E34D0802E98
:1095B00053D132E000BF00BF00BF0F2900D94DE0FA
:1095C000032901D800200CE0042903D3072901D87E
:1095D000022006E0082903D30B2901D8042000E06B
:1095E0000620204E803EB34200D108301D4E403E42
:1095F000B34200D110301B4EB34200D118301B4E85
:10960000B268032686401746B7433A462E46864040
:109610003243164EB26021E000BF0B2900D91DE095
:10962000032901D8002006E0042903D3072901D823
:10963000022000E004200B4E8036B34200D10830F7
:109640000A4EF268032686401746B7433A462E462E
:1096500086403243054EF26000BF00BF00BF00BF2E
:1096600094E70000C00C004000F4FFBFC00D0040B4
:10967000F0B502460D460020002407E00126A64072
:109680002E40002E01D0204602E0641C102CF5D3A1
:1096900000BF102C00D1F0BD3F4FD61BBA4234D0D2
:1096A00008DC3E4E9619002E2CD0402E2BD0802E5A
:1096B0006ED129E0402E02D0802E69D100E000BF9B
:1096C0000B2800D965E0032801D8002106E0042812
:1096D00003D3072801D8022100E004212E4E803652
:1096E000B24200D108318007800F2D4E73680326E7
:1096F0008E401F46B7433B4606468E403343284EB6
:10970000736046E000BF00BF00BF234EC03EB242C0
:1097100007D0214E803EB24203D01F4E403EB2429F
:1097200002D10F2800D934E01B4EB24202D10B28DF
:1097300000D92EE0032801D800210CE0042803D32F
:10974000072801D8022106E0082803D30B2801D8F6
:10975000042100E00621104E803EB24200D10831C3
:109760000D4E403EB24200D110310B4EB24200D1FC
:1097700018318007800F0A4E336803268E401F463B
:10978000B7433B4606468E403343054E336000E008
:1097900000BF00BF00BF7EE7C00C004000F4FFBF69
:1097A000C00D0040F0B504460025002307E0012667
:1097B0009E400E403546002D00D002E05B1C102B71
:1097C000F5D300BF102B36D21D46116026680E401F
:1097D0003046E840012802D10126D67101E000267A
:1097E000D67166680E40EE403046012801D1967170
:1097F00001E000269671A6680E40EE403046012832
:1098000001D1567101E000265671E6686F00FE40F6
:10981000B007800F002802D1002616710BE0012846
:1098200002D10126167106E0022802D10226167125
:1098300001E003261671F0BD10B580216348FFF7E3
:1098400083FD012817D180216048FFF7F7FD6048AC
:1098500040798006C00F002806D05D484079082175
:10986000884308305A4948715948008A052802DA65
:1098700005205749088240215448C038FFF764FD4D
:10988000012818D140215148C038FFF7D7FD504872
:1098900040798006C00F002806D04D48007910217D
:1098A000884310304A4908714948008A052802DA7D
:1098B000052047490882102144488038FFF744FDBD
:1098C000012823D1102141488038FFF7B7FD10212E
:1098D0003E488038FFF7B1FC3D4840798006C00F14
:1098E000002807D03A4800798021884380303849E1
:1098F000087104E000220421364806F00BFD3448CC
:10990000008A052802DA052031490882FF21013149
:109910003148FFF719FD012817D101022E48FFF742
:109920008DFD2B4840798006C00F002806D02848BE
:10993000407940084000401C254948712448008A6D
:10994000052802DA05202249088204211F488038B0
:10995000FFF7FAFC012818D104211C488038FFF7D2
:109960006DFD1B4840798006C00F002806D01848BE
:10997000407902218843801C154948711448008AA7
:10998000052802DA052012490882102112484030C9
:10999000FFF7DAFC012818D110210F484030FFF7FB
:1099A0004DFD0B4840798006C00F002806D00848BE
:1099B000407904218843001D054948710448008A04
:1099C000052802DA05200249088210BD800D0040FA
:1099D000D07F0020986D0020400C0040F0B502467A
:1099E0000B4600210024002500BF2DE001268E40FB
:1099F00034461E6826403546A54224D110680646E6
:109A0000A6433046DE798E403043106050680646EB
:109A1000A64330469E798E4030435060906806469B
:109A2000A64330465E798E40304390604F00032657
:109A3000BE403446D0680646A64330461E794F00E5
:109A4000BE403043D060491C1029CFD3F0BD70B563
:109A500004460D4600222946204601F065FB2946B2
:109A6000204600F035F870BD70B504460D46002262
:109A70002946204601F058FB2946204600F026F8EA
:109A800070BD0000012905D1054A12680243044B4C
:109A90001A6004E0024A12688243014B1A60704760
:109AA000000F004002460020D3690B40002B01D07C
:109AB000012000E0002070470246002013690B409F
:109AC000002B01D0012000E0002070478161704729
:109AD0004161704710B5A748007800287ED1012069
