:020000040800F2
:10000000781C0020D9000008596B0008794B0008C3
:1000100000000000000000000000000000000000E0
:100020000000000000000000000000000171000856
:100030000000000000000000AF6C00080371000821
:10004000EB000008EB000008396F0008EB00000827
:10005000EB000008713B0008EB000008013C0008C1
:1000600000000000EB000008EB000008EB000008B7
:10007000EB000008EB00000800000000EB000008A7
:1000800000000000D576000800000000000000001D
:10009000A576000800000000EB000008EB00000857
:1000A000EB000008EB000008EB000008797700087F
:1000B000CD770008CD6000080000000000000000BF
:1000C0000448854601F054F900480047A5B80008E7
:1000D000C046C046781C00200448804704480047BA
:1000E000FEE7FEE7FEE7FEE7FEE7FEE79D7200089B
:1000F000C100000830B50B46014600202022012433
:1001000009E00D46D5409D4205D31D469540491B4B
:100110002546954040191546521E002DF1DC30BD94
:1001200070B500242546002801DA01244042002948
:1001300001DA01254942FFF7DDFFAC4200D0404221
:10014000002C00D0494270BDF0B51FB40646002017
:1001500082B005464024019100901BE0019922469F
:100160000F46304600F0E6FB049A059B801A994141
:1001700010D310461946224600F0CCFB361A8F41A8
:100180000197224601200021009F00F0C3FB381890
:100190004D4100902046641E0028DFDC019B009842
:1001A0002946324607B0F0BD0048704790D100089C
:1001B00010B50446FFF7F8FF0068005DC007C00FE8
:1001C00010BD000010B5024900F004F810BD000099
:1001D0004C15002070B50C4600683C21FFF78AFFE3
:1001E00021603C21FFF786FF61601821FFF782FF45
:1001F0000546A1600721001DFFF77CFFA1610F48A4
:10020000A90008180E49FFF775FF02464432880816
:100210006261E0613B2802D3910700D0401C0021BD
:10022000084B0A462161995C814203D8401A521C4E
:100230002261F8E7401CE060204670BD6C0B0000B6
:10024000B505000094D1000838B50446C0681821EF
:10025000401E4843A16840183C214843616840184B
:100260003C2148432168451860690C2148432169B5
:1002700040186921C900401A3021FFF751FF114A87
:1002800050434219084600921A2902DB0E495118C0
:1002900000910C21FFF744FF0C4A5043009A80184C
:1002A00000900B4806E0491E425C074B5A43009BF6
:1002B000D21800920029F6DC21466846FFF78AFF33
:1002C000009838BD801F8607805101008033E1010E
:1002D000A0D1000810B503461C460C43A40703D068
:1002E00009E010C9121F10C3042AFAD203E00C78E7
:1002F0001C70491C5B1C521EF9D210BDD2B201E029
:100300000270401C491EFBD270470022F6E710B570
:1003100013460A4604461946FFF7F0FF204610BD73
:1003200030B505462A460B4610781C78521C5B1CDB
:10033000002801D0A042F7D0002C03D0002802D022
:100340006D1CEFE7284630BD421C0178401C002997
:10035000FBD1801A704730B504460020034600E008
:100360005B1C934203D2E05CCD5C401BF8D030BDF7
:1003700003460A780270401C491C002AF9D118462D
:100380007047000070B5104D002800D12868002487
:1003900014E00A4602E09E4203D0521C1378002B60
:1003A000F9D1DAB2224307D0002B06D0002C04D0BA
:1003B00000210170401C04E00446401C0678002E19
:1003C000E7D12860204670BDD800002010B5034654
:1003D000002004E01C70401C491C521E5B1C012ABA
:1003E00002D90C78002CF5D1002A04D000221A7012
:1003F00001E0401C491C0A78002AFAD110BD10B552
:100400000346002002E0401C521E5B1C002A15D04F
:100410001C78002CF7D104E01C70401C491C521EB3
:100420005B1C012A03D90C78002CF5D101E0002ACD
:1004300004D000221A7001E0401C491C0A78002AEE
:10044000FAD110BD0FB400B58DB009900B9010A972
:1004500000200091C0430A9000200C9006480690AE
:10046000064807906A4609A80F9900F005FE0DB0EE
:1004700008BC04B01847000099100008B910000823
:1004800070B5064607F09EFB046805460A22002167
:10049000304600F075FE2C6070BD0000F0B50746D8
:1004A0000846584087B0C00F049048000E465900D7
:1004B00040084908BC1A884105D2384631461E46D4
:1004C00017460B4602465800400810434DD0300DE9
:1004D000039040055900400D490D0590401A0290C7
:1004E000402873DA18030121000B09050843019025
:1004F00004980092002806D01146019A4942002033
:10050000904100910190029840210A1A01990098A7
:1005100000F000FA05460C466B4607CB00F01BFACC
:10052000C0197141039A0E0D0023D71756401A4681
:100530007A40164344D0049A002A2DD0029A012A08
:10054000039A15DC1205C01A914101263605001CDC
:100550007141D20F059ED2070093019202962A465E
:10056000234600F093FE07B0F0BD38463146FAE767
:100570001605234A0F46B218C01AB74101210905D2
:10058000001C4F4100187F41114618187941E20FB5
:1005900010436D19644113E0E2076D0815436408C8
:1005A000C2071443039A01261205C01A9141360569
:1005B000001C7141CE07400830434908C018514122
:1005C0002A46234600F055FECDE7FFE704980122B6
:1005D0004000C117121A00238B4104983146C417FA
:1005E000381AA141EEE730B40124E407634030BC7F
:1005F00054E730B40124E407614030BC4EE700000A
:100600000000E0FFF0B51FB488B00B9909980024F2
:1006100048400999C00F490049080991C0070B9942
:100620000090490049080B9109990898A64608438B
:100630001CD00B990A98084318D00998012440004F
:10064000420D4800410D099824050003000B20438A
:1006500009900B980003000B20430B9050181C4985
:100660004018002201901446104605E00020014683
:100670000DB0F0BD032801DA034600E003239C46D9
:10068000C11A0AAE0AE05F0008ADED5B4F00F75BF0
:100690007D430027AA187C41491C5B1E6145F2DDA1
:1006A000410004AB5A522104120C0A43240C401C92
:1006B0000828DFDB019802900099704601910090B4
:1006C000059B049A0799069800F0E0FDD0E700002A
:1006D0000DFCFFFFF0B50C465C4085B0E40FE4076D
:1006E00003944C00002664085900944649080246C9
:1006F0000296224321D062460A431ED06200570D63
:100700004A000E032303550D012402462C492405FB
:10071000781B1B0B360B4018234326436146009081
:100720001C46501AB44103D30098401C009002E0CC
:10073000921800985B41002803DA0020014605B0BA
:10074000F0BD0020012109050746864611E06446F8
:100750001D46141BB54106D36546521BB341744672
:1007600007430C43A646CD07400849082843921882
:100770005B4105460D43EAD11046184313D060464D
:10078000194650407140084306D06046101AB341E4
:1007900006D20122002306E000220123DB0702E04B
:1007A0000122D2435310009874460105381C614160
:1007B000029C039D0019694100F05BFDBFE700004A
:1007C000FD0300000EB5C217C10F5040CA07401804
:1007D0000021054B0293019200910A460B4600F05E
:1007E00055FD03B000BD0000330400000EB50549FF
:1007F0000291002100910A460B46019100F046FD4E
:1008000003B000BD3304000070B5CD0F4A000903EA
:100810000123090B1B0519430B4BED070024520D57
:100820009A4201DA002070BD074B34339A4203DC50
:100830009A1A00F07FF802E00449511888402C43CE
:10084000F1D0404270BD0000FF030000CDFBFFFF70
:100850004A0009030123090B1B051943094B10B575
:10086000520D9A4201DA002010BD064B34339A42F1
:1008700003DC9A1A00F05EF810BD03495118884055
:1008800010BD0000FF030000CDFBFFFF10B50029E5
:1008900004DB0124E40740428C412146002B04DBA9
:1008A0001C460123DB075242A3418B4200D1824206
:1008B00010BD000010B5002904DB0124E40740420C
:1008C0008C412146002B04DB1C460123DB075242EE
:1008D000A341994200D1904210BD0000CB0FDB072D
:1008E000490010B5490802460A4307D00A0D0724FB
:1008F0000903E401090B121B002A01DC002010BDD2
:10090000C900440F0C43C100E018D205801800F064
:100910006FFC10BD10B5202A04DB0146203A91403F
:10092000002010BD914020239C1A0346E340194348
:10093000904010BD10B5202A04DB0846203AD04074
:10094000002110BD0B46D340D0402024A21A914074
:100950000843194610BD10B5202A06DBCB17084600
:10096000203A1041C1170B4306E00B461341D0401B
:100970002024A21A91400843194610BDFFB5002556
:10098000ED4385B00020009001909F685E681C4692
:10099000A1696D1C069888470290216A8847002843
:1009A000F6D10298401C0CD0032040028643002F51
:1009B00019DD700614D502982B2809D02D280FD1E7
:1009C00003E00020C04309B0F0BD012080020643CF
:1009D000A1696D1C069888477F1E0290002F02DDDA
:1009E0000298302803D00798002828D024E001205E
:1009F00040020643A1696D1C7F1E0698884702903D
:100A0000002F03DD782805D0582803D00798002848
:100A100010D011E00798002801D010280CD1012037
:100A200040028643A1696D1C7F1E0698884702908C
:100A3000102000E008200790C017039016E00A205D
:100A4000F9E70120400206437F1E039B079A0199A4
:100A5000009800F09FFC029AD31780185941019129
:100A60000090A1696D1C069888470290002F06DD52
:100A70000799029800F0CBFC02900028E1DAE169C6
:100A800006988847B00502D40120C0439BE7F007D1
:100A900010D1700610D5700505D50098019B002275
:100AA00041429A4101E0019A00992068031D2360A8
:100AB000006806C0284686E72068011D216000689E
:100AC000019A0099F5E7FFB50027FF4383B00020A6
:100AD0005C6801909E681D46A9697F1C0498884740
:100AE0000090296A88470028F6D10098401C0CD055
:100AF000032040028443002E19DD600614D50098BF
:100B00002B2809D02D280FD103E00020C04307B0C7
:100B1000F0BD012080020443A9697F1C0498884726
:100B2000761E0090002E02DD0098302803D0059834
:100B3000002825D035E0012040020443A969761E33
:100B40007F1C049888470090002E03DD782805D08C
:100B5000582803D00598002810D022E005980028D6
:100B600001D010281DD1012040028443A969761EBE
:100B70007F1C049888470090102002E0082000E0C5
:100B80000A2005900DE0012149020C43059A0199C4
:100B9000761E514308180190A9697F1C0498884764
:100BA0000090002E05DD0599009800F030FC00282B
:100BB000E9DAE96904988847A00502D40120C04316
:100BC000A5E7E00722D1600611D56005019800D5A0
:100BD000404229680A1D2A600968220501D508706B
:100BE00014E0220701D5088010E008600EE02868B4
:100BF000011D29600068210502D50199017005E0F9
:100C00002107019901D5018000E0016038467EE7A7
:100C1000FFB5002083B000905068019091691446A0
:100C2000002697680498884705460C99069808435B
:100C300005D009E0A169761C049888470546216A19
:100C4000284688470028F5D1681C03D00198C007C2
:100C500004D017E00020C04307B0F0BD2068011D9C
:100C60002160006800900DE00198C00704D1009851
:100C700005700098401C0090A169761C7F1E0498A6
:100C800088470546002F1CDD681C1AD006980028EE
:100C90000FD0E817C00E401941118A00069940098B
:100CA000511840012A1A0968012090400142DBD105
:100CB00007E00C980028D7D1216A284688470028E9
:100CC000D2D0E169049888470C98002807D1002EFB
:100CD00005DD0198C00702D1009800210170A068CD
:100CE000B84204DD0C98002804D0002F02D0012067
:100CF000C043B1E73046AFE7FFB5087889B0154685
:100D0000FF2805D0491C2D2804D00022002407E02C
:100D100000240BE00122F9E70A235C430419491C73
:100D20000878FF28F8D1002A00D0644200200490FF
:100D30002A7801462D2A01D02B2A0FD16D1C2D2A8D
:100D400002D00022049209E00122FBE700260A22D9
:100D500033466D1C00F01EFB381871412F78FF2FB1
:100D6000F4D10C9AA218069202460A4304D0FF233B
:100D7000069A9133DA4205DA002109980A4606C03C
:100D80000DB0F0BD0024B74AB54D2646079200F0DD
:100D90003FFD029006980391002801DA474200E0E7
:100DA000074639050020AF4A001C514101910090CF
:100DB00012E0F80707D022462B4630460799FFF786
:100DC00021FC0646079122462B4610461946FFF79E
:100DD00019FC04460D467F10002FEAD10698019BAE
:100DE0000028009A0399029806DAFFF773FC32464E
:100DF000079BFFF76FFC05E0FFF704FC3246079BFB
:100E0000FFF700FC049A002A02D00122D2075140C9
:100E1000099A03C2B4E7FFB591B0002009900025FC
:100E2000ED432E209E685C681F460190B9696D1CD9
:100E3000129888470090396A88470028F6D10098B0
:100E4000401C0AD00D20C0018443002E12DD009802
:100E50002B2809D02D280DD103E00020C04315B068
:100E6000F0BD012080020443B9696D1C12988847C7
:100E7000761E009003A9600501D52D2000E02B20EF
:100E80006A461073491C0CA80F9102900AE0B969D8
:100E90006D1C12988847009001204002044313986B
:100EA000761E0560002E02DD00983028EFD00199F3
:100EB0000098884246D18020044308E00998401EEB
:100EC00009900120400204431399681C0860B96925
:100ED0006D1C761E1298884700903028EED031E0C5
:100EE0000199884205D1200603D480200443761E50
:100EF0001EE0009806F09CFF002826D0012040024A
:100F0000044307A90F980331761E88420BD200983C
:100F10000F99303808700F98401C0F90200607D5A5
:100F20000998401E03E0200602D40998401C09904D
:100F3000A00502D51399681C0860B9696D1C129848
:100F400088470090002ECBDC59E0002E57DD00983A
:100F5000652801D0452852D1A00550D503200002B4
:100F60008443B9696D1C761E129888470090002E44
:100F70000CDD2B2804D02D2808D1FF20013004439C
:100F8000B9696D1C12988847761E0090E00501D55E
:100F90002D2100E02B21029801700298401C029044
:100FA000019025E00120400204430EA9029801317E
:100FB000761E88420ED20098029930380006000E44
:100FC000087003D10299019881420AD90298401C05
:100FD000029006E0E00501D5234801E022484042A6
:100FE0000990B9696D1C12988847009013980560A4
:100FF000002E04DD009806F01BFF0028D2D1F9690D
:10100000129888470F99FF200870029903AA087068
:1010100000200A900B900CA90AA8099BFFF76CFE10
:10102000A00502D40120C04319E72420044209D0BE
:10103000E00713D138680B9A0A99031D3B600068DA
:1010400006C00BE00B990A98FFF748FC0146E00741
:1010500004D13868021D3A60006801602846FEE647
:10106000000014400000F03FF1D8FFFF0268137841
:10107000511801601846704710B5D160044951619C
:101080000449116200211161114600F0CFF910BD31
:101090006D100008B10100084268002A08D00168FC
:1010A0000B78491C002B03D0521E06C0184670470F
:1010B0000121C160881E70474268002A0BD0C368B6
:1010C0000168002B07D183688B4204D0491E521C53
:1010D00006C0002070470020C04370470FB400B521
:1010E00089B00CA900910B990023CB60204B214AB9
:1010F00006930792042201921F4A02921F4A089205
:1011000002466B460020FFF786FE09B008BC04B01B
:10111000184770B586B006460020C04301900020F5
:1011200015460C460091029104903246694604A887
:10113000FFF7D4FF024604982118002D05D000289F
:1011400001D0084600E020462860049800280DD011
:10115000002A02DD0098884208D0081B0190009404
:1011600032466946029404A8FFF7B8FF06B070BD86
:1011700099100008B9100008FFFFFF7FB1010008B7
:10118000F7B5009C0F4600262578641C002D05D07D
:10119000FFF70AF80068405DC007F5D12B2D02D09B
:1011A0002D2D18D0641E39462046029A00F0DCFA34
:1011B000002F04D03968A14201D10099396071052E
:1011C000022400290BDA4042002803DD06F0FAFC75
:1011D0000460A007FEBD012080020643E3E700286B
:1011E000F8DA06F0EFFC04600048FEBDFFFFFF7F69
:1011F000002904DA401C490001D140084000704732
:1012000070B40024050C05D11024000402D100297B
:1012100021D01124050E01D100020834050F01D19F
:101220000001241D850F01D18000A41C002801DBD2
:101230004000641C002908D020252E1B0D46F540D7
:10124000A14000D001212943084301061B1B000ACD
:10125000DB1D02D5002070BC7047DB051818801814
:101260000029F8DA401C4900F5D170BC4008400064
:10127000704710B5002B08DA0024401C6141921819
:101280005B411A4301D14008400010BDF0B51FB4C6
:1012900082B005460C0003D0084606F033FB02E09E
:1012A00006F030FB20300246009021462846FFF72A
:1012B00031FB049B059A04460F461843114308432B
:1012C00014D0184610431BD0009840210A1A184623
:1012D0000599FFF72FFB05460E46009A05990498DD
:1012E000FFF718FB084305D0012004E020463946EB
:1012F00007B0F0BD0020C11705430E432C43374310
:1013000000990E986305401A7905E40A00220C43FF
:10131000FD0A0A3002D500200146E9E7010510194F
:1013200069410C9C0D9D00196941FFF7A2FFDFE7A1
:101330004A0009030123090B1B0519430A4B10B589
:10134000520D9A4202DA0020014610BD064B34339A
:101350009A4203DC9A1AFFF7EDFA10BD034BD2183C
:10136000FFF7D8FA10BD0000FF030000CDFBFFFF20
:10137000064C0125064E05E0E36807CC2B430C3CE8
:1013800098471034B442F7D3FEF79EFEECD600081F
:101390000CD70008F0B51FB486B000200090019073
:1013A00002900698069980B204900798090C0204EE
:1013B0000014114307900027089D099806913E46A6
:1013C0003C4603900398A9B20204000C03900498D1
:1013D0002D0C1543484300212246FFF79BFAC719FD
:1013E000714110340E46402CECDB3846029AFFF770
:1013F00091FA009A019B801800905941029801913E
:10140000103002904028CCDB00980BB0F0BD3A2899
:1014100000D23038202302469A43412A01D3104695
:101420003738884201D30020C0437047F3B58DB0F0
:1014300000200A9001200B90002608460C300C4634
:1014400009906269012109989047051E2ED0252D2B
:101450002DD0216A8847002818D062690121099897
:101460009047216A88470028F7D1411E6269099890
:10147000904700E0761CA1690D988847216A88474B
:101480000028F7D1E1690D988847DAE7A1690D983E
:1014900088470746A84201D1761CD2E7E1690D983A
:1014A00088477F1C02D10A98002877D04AE100279C
:1014B00062693D463946099890472A280CD16269ED
:1014C000012109989047012506E00A214F433F1862
:1014D000303FEBD410200543626901210998904701
:1014E000014630390A2903D29C498F42DEDCECE701
:1014F000E90600D49A4F6C280AD04C2810D06828EE
:1015000024D06A282ED074280CD07A280AD00DE076
:1015100062690121099890476C2823D004211CE0BE
:10152000202005436269012109989047A760656002
:1015300065284FD026DC582839D01ADC452849D0F8
:1015400012DC252834D04128B0D143E06269012162
:1015500009989047682802D008210D43E6E701204A
:10156000C002DEE70220DCE7462833D047282CD132
:1015700030E05B2870D061282CD063286CD06428C0
:1015800023D161E06F284FD009DC662822D067287C
:1015900020D0692826D06E2817D12EE0CEE0702802
:1015A0004DD073286FD075284ED078280DD154E0D7
:1015B000A1690D9888470546252800D16CE7E169A7
:1015C0000D9888476D1C00D16DE7BBE00A224CE006
:1015D0000A2252E0012023466A46C0430D99FFF7D4
:1015E0001AFCA4E02846402108436060A80723466F
:1015F00001D5002239E000223FE0E80700D020E7D3
:101600002068011D21600068290501D5067018E7D2
:10161000290701D5068014E7A90703D5F11706604D
:1016200041600EE706600CE72846402108436060F1
:10163000A807234601D5082217E008221DE04949E2
:1016400028460840606016E0284640210843606054
:10165000A8072346BCD5B9E715E028464021084332
:101660006060A80707D5234610220120C0430D99CA
:10167000FFF784F95BE0234610220120C0430D9957
:10168000FFF721FA53E000210C910B4600916328EB
:1016900002D05B2808D044E02079C00601D40120A4
:1016A000A060012000903CE0626901210998904708
:1016B0005E2805D101200C90014662690998904787
:1016C0002169002906D10B4601AA8F00491CD3517C
:1016D0000829FADB002835D0216900290ED1C1176D
:1016E000C90E09184A11930001AA9A18490949011B
:1016F000411A012013688840034313606269012185
:10170000099890475D28E5D10C98002808D0002062
:1017100001AB81005A58401CD2435A500828F8DBCC
:1017200001AB01202246C0430D99FFF771FA002852
:101730000ADA401C06D10B98002803D00020C043D1
:101740000FB0F0BD0A98FBE7E90702D10A99491CDE
:101750000A91361800200B9073E60000CCCCCC0C1C
:10176000FFFFFF7FF1F7FFFFF7B582B0029C002774
:101770002078641C15460197302802D0002D15D022
:1017800015E020780127641C782804D0582802D05E
:10179000002D09D00BE0002D01D0102D07D100271E
:1017A00010252078641C02E0082500E00A250026A8
:1017B000009610E00099012769430818020C294699
:1017C00080B2714300908E183804864201D3012004
:1017D00001902078641C2946FFF719FE0028E9DAF9
:1017E0000398002805D0002F01D0641E00E0029C61
:1017F00004600198002806D006F0E4F90221016097
:10180000C81E05B0F0BD009930040843F9E7000098
:101810000EB5054A02920022009213460192FFF78C
:1018200035FD03B000BD000033040000F0B585B005
:1018300020480068401C1F4908601F4988422DD875
:101840001C4909681C4A501AFEF7D0FF04460022C2
:101850001A4BFEF7D7FE06460022194BFEF73AFF59
:101860000022184B01910090FEF718FE03910290A0
:10187000FEF7EEFF1449087008460078134909780E
:10188000884215D010480078104908701048007937
:1018900002218843801C0E49087109E00C48007938
:1018A00002218843801C0A490871002006490870FB
:1018B00005B0F0BD20000020F049020000005940B2
:1018C000804F02410000E03F18000020240000206B
:1018D0006C0800203EB5044600250EA207CA6B46E0
:1018E00007C322460EA1684605F0E0FF0DE00FA2F7
:1018F0000F49684600F01EF8012800D13EBD681C63
:1019000085B27D20C00009F0C1FF032DEFDB002070
:10191000F4E7000041542B534C4545503D30000046
:1019200041542B534C4545503D2564004F4B00001E
:10193000DC050000FEB504460D461646002764206F
:101940000190FF212948FEF7E0FC00212748FA30EA
:10195000C180204601F018FF25A001F015FF2348A3
:10196000009032E023A10098FEF7DAFC002809D0AD
:1019700020A122A003F07EFA214622A003F07AFAE9
:101980000020FEBD25A10098FEF7CAFC002809D062
:1019900018A11AA003F06EFA214623A003F06AFAF8
:1019A0000020EEE701987843A84209DD25A113A0A5
:1019B00003F060FA214625A003F05CFA0220E0E77C
:1019C000019809F063FF781C87B231460098FEF752
:1019D000A7FC0028C6D024A108A003F04BFA21469A
:1019E00022A003F047FA0120CBE70000140D0020ED
:1019F0000D0A00004552524F520000000A5B257349
:101A00005D0000002225732220617420636D642034
:101A100065786563206572726F72000042414420F0
:101A20005041524D00000000222573222061742095
:101A3000636D642065786563206261642070617203
:101A40006D0000005741524E000000002225732215
:101A500020617420636D6420657865632074696D0E
:101A6000656F7574000000004C4F470022257322FB
:101A700020617420636D64206578656320737563ED
:101A80006365737300000000F7B582B00E4614461C
:101A900000276420019009F08DF9002809D13BA1AD
:101AA0003CA003F0E7F93DA003F0E4F9002005B005
:101AB000F0BD09F0B1F9002808D134A135A003F038
:101AC000D9F93BA003F0D6F90020F0E7FF213E480A
:101AD000FEF71BFC00213C48FA30C180029804F05C
:101AE000CBFF3AA004F0C8FF374D39A12046FEF7DE
:101AF00017FC002805D139A12046FEF711FC00286B
:101B000000D0ED1D32E021A12846FEF709FC002897
:101B100009D01EA11FA003F0ADF933A0029903F074
:101B2000A9F90020C3E736A12846FEF7F9FB0028F3
:101B300009D016A117A003F09DF934A0029903F073
:101B400099F90020B3E701987843B04209DD36A146
:101B500010A003F08FF936A0029903F08BF9022050
:101B6000A5E7019804F082FF781C87B22146284639
:101B7000FEF7D6FB0028C6D034A106A003F07AF900
:101B800033A0029903F076F9012090E74552524FB5
:101B9000520000000A5B25735D0000004C6F52612B
:101BA00057414E204D6F6465204552524F452100EC
:101BB0004C6F526157414E205374617475732045C8
:101BC00052524F45210000000A0B00200D0A000070
:101BD0002B4C494E4B20494E464F3A002B52544312
:101BE00020494E464F3A000022257322206174207E
:101BF000636D642065786563206572726F720000A2
:101C0000424144205041524D0000000022257322E1
:101C100020617420636D642065786563206261646F
:101C2000207061726D0000005741524E00000000AC
:101C30002225732220617420636D642065786563BA
:101C40002074696D656F7574000000004C4F47008B
:101C50002225732220617420636D6420657865639A
:101C6000207375636365737300000000F0B587B07F
:101C700000255FE031A2324932A0FFF705FF0128BD
:101C800052D133A133A003F0F5F834A13648FEF762
:101C900047FB0746394635A003F0ECF87821344875
:101CA000FEF733FB2DA13048FEF73AFB0646002035
:101CB0000690002406AB2E4A2EA1304606F0F7FF10
:101CC0000AE0611C89002A4B5A582B490819022343
:101CD000012106F075FF641C0699481E0690002934
:101CE000EFD11BA11BA003F0C5F823480B38807C63
:101CF00021490B39497C204A0B3A127C1E4B0B3B85
:101D0000DB7B01930292039104901B480B38807B8C
:101D1000009019480B38437B027BC17A17A003F06F
:101D2000A9F8012007B0F0BD681C85B27D20C00075
:101D300004F09CFE032D9DDB0020F3E74F4B0000D9
:101D4000DC05000041542B4150504555493F0000EF
:101D50004C4F47000A5B25735D0000002B4150503B
:101D60004555493A000000000A0B00202573000089
:101D70006414002020000000E7140020415050456A
:101D800055493A20253032782025303278202530C8
:101D900032782025303278202530327820253032B4
:101DA000782025303278202530327800F0B58FB099
:101DB000002578E03EA23F493FA0FFF765FE0128DD
:101DC0006BD140A140A003F055F841A14348FEF774
:101DD000A7FA0746394642A003F04CF8782141485B
:101DE000FEF793FA3AA13D48FEF79AFA064600201C
:101DF0000E9000240EAB3B4A3BA1304606F057FF45
:101E00000AE0611C8900374B5A58384908190223E7
:101E1000012106F0D5FE641C0E99481E0E90002983
:101E2000EFD128A128A003F025F83048C07B2F4926
:101E3000897B2E4A527B2D4B133BDB7F09930A9201
:101E40000B910C9029481338807F284913394A7F19
:101E5000097F264B133BDB7E059307920691089082
:101E600022481338827E407E20491339097E1F4B59
:101E7000133BDB7D01930492029103901B481338BE
:101E8000807D009019481338437D027DC17C18483D
:101E900002F0F0FF01200FB0F0BD681C85B27D207C
:101EA000C00004F0E3FD032D84DB0020F3E7000015
:101EB0004F4B0000DC05000041542B4150504B4576
:101EC000593F00004C4F47000A5B25735D0000003E
:101ED0002B4150504B45593A000000000A0B00209E
:101EE000257300006414002020000000EF1400207F
:101EF000A4D20008F0B58FB0002571E03AA23B49AA
:101F00003BA0FFF7C1FD012864D13CA13CA002F039
:101F1000B1FF3DA13F48FEF703FA074639463EA010
:101F200002F0A8FF78213D48FEF7EFF936A13948C5
:101F3000FEF7F6F9064600200E9000240EAB374A55
:101F400037A1304606F0B3FE0AE0611C8900334B2E
:101F50005A58344908190223012106F031FE641C45
:101F60000E99481E0E900029EFD124A124A002F062
:101F700081FF2C48C07B2B49897B2A4A527B294B05
:101F80001B7B09930A920B910C902648C07A254935
:101F9000897A244A527A234B1B7A05930692079139
:101FA00008902048C17980791E4A52791D4B1B79CF
:101FB00001930292049103901A48C0780090194846
:101FC00083784278C01FC179174802F053FF01207F
:101FD0000FB0F0BD681C85B27D20C00004F046FD46
:101FE000032D8BDB0020F3E74F4B0000DC050000E6
:101FF00041542B415050534B45593F004C4F4700E3
:102000000A5B25735D0000002B415050534B45592E
:102010003A0000000A0B0020257300006414002021
:10202000200000000315002058D3000870B50024DC
:102030001BE010A2104911A0FFF726FD01280ED1C8
:1020400011A112A002F016FF12A11448FEF768F9C0
:102050000546294612A002F00DFF012070BD601C4C
:1020600084B27D20C00004F001FD032CE1DB0020E0
:10207000F4E700004F4B0000DC05000041542B4208
:10208000414E443F000000004C4F47000A5B25735F
:102090005D0000002B42414E440000000A0B00206E
:1020A0002573000070B500241BE010A2104911A098
:1020B000FFF7EAFC01280ED111A112A002F0DAFE0E
:1020C00012A11448FEF72CF90546294612A002F089
:1020D000D1FE012070BD601C84B27D20C00004F0E0
:1020E000C5FC032CE1DB0020F4E700004F4B0000AF
:1020F000DC05000041542B434C4153533F0000008A
:102100004C4F47000A5B25735D0000002B434C4198
:1021100053533A000A0B00202573000070B50024C9
:102120001BE010A2104911A0FFF7AEFC01280ED150
:1021300011A112A002F09EFE12A11548FEF7F0F8C0
:102140000546294613A002F095FE012070BD601CD3
:1021500084B27D20C00004F089FC032CE1DB002068
:10216000F4E700004F4B0000DC05000041542B4316
:102170004F4E4649524D3F004C4F47000A5B257376
:102180005D0000002B434F4E4649524D3A0000007F
:102190000A0B002025730000FEB500254DE029A2A2
:1021A00029492AA0FFF770FC012840D12AA12BA0C1
:1021B00002F060FE2BA12E48FEF7B2F80746394622
:1021C0002CA002F057FE78212B48FEF79EF825A19F
:1021D0002748FEF7A5F8064600200190002401AB31
:1021E000254A26A1304606F062FD0AE0611C8900FE
:1021F000214B5A58224908190223012106F0E0FC1C
:10220000641C0199481E01900029EFD112A113A06E
:1022100002F030FE1A48C07800901948837842785E
:10222000C01EC17817A002F025FE0120FEBD681C6B
:1022300085B27D20C00004F019FC032DAFDB002027
:10224000F4E700004F4B0000DC05000041542B4434
:102250004556414444523F004C4F47000A5B2573AA
:102260005D0000002B444556414444523A000000B2
:102270000A0B0020257300006414002020000000D9
:10228000FF140020444556414444523A2025303240
:102290007820253032782025303278202530327869
:1022A00000000000F0B587B000255FE031A234499E
:1022B00034A0FFF7E9FB012852D135A135A002F087
:1022C000D9FD2CA13548FEF72BF80746394634A036
:1022D00002F0D0FD78213348FEF717F825A12F48EA
:1022E000FEF71EF8064600200690002406AB2D4A95
:1022F0002DA1304606F0DBFC0AE0611C8900294B69
:102300005A582A4908190223012106F059FC641C75
:102310000699481E06900029EFD11DA11DA002F0CC
:10232000A9FD2248C01E807A2049C91E497A1F4A49
:10233000D21E127A1D4BDB1EDB79019302920391B0
:1023400004901A48C01E807900901848C01E437936
:102350000279C17816A002F08DFD012007B0F0BD12
:10236000681C85B27D20C00004F080FB032D9DDB3E
:102370000020F3E72B4445564555493A000000003C
:10238000DC05000041542B4445564555493F0000AB
:102390004C4F47000A5B25735D0000000A0B0020CC
:1023A000257300006414002020000000DF140020CA
:1023B0004465764555493A2025303278202530321B
:1023C0007820253032782025303278202530327838
:1023D00020253032782025303278202530327800A0
:1023E00070B500241BE010A2104911A0FFF74CFBB0
:1023F00001280ED112A113A002F03CFD13A1164832
:10240000FDF78EFF0546294614A002F033FD01209A
:1024100070BD601C84B27D20C00004F027FB032C3B
:10242000E1DB0020F4E700004F4B0000DC0500007A
:1024300041542B44415441524154453F0000000057
:102440004C4F47000A5B25735D0000002B4441544C
:1024500041524154453A00000A0B00202573000008
:1024600070B500241BE010A2104911A0FFF70CFB6F
:1024700001280ED111A112A002F0FCFC12A11448F7
:10248000FDF74EFF0546294612A002F0F3FC01209D
:1024900070BD601C84B27D20C00004F0E7FA032CFC
:1024A000E1DB0020F4E700004F4B0000DC050000FA
:1024B00041542B465245513F000000004C4F47000D
:1024C0000A5B25735D0000002B465245513A00001F
:1024D0000A0B002025730000F0B58FB0002571E0D5
:1024E0003AA23B493BA0FFF7CFFA012864D13CA1B7
:1024F0003CA002F0BFFC3DA13F48FDF711FF07469D
:1025000039463EA002F0B6FC78213D48FDF7FDFEBD
:1025100036A13948FDF704FF064600200E9000243E
:102520000EAB374A37A1304606F0C1FB0AE0611C0A
:102530008900334B5A58344908190223012106F007
:102540003FFB641C0E99481E0E900029EFD124A178
:1025500024A002F08FFC2C48C07B2B49897B2A4A9F
:10256000527B294B1B7B09930A920B910C902648B6
:10257000C07A2549897A244A527A234B1B7A0593DB
:102580000692079108902048C17980791E4A5279B5
:102590001D4B1B7901930292049103901A48C07855
:1025A00000901948837842781738C17D174802F0A7
:1025B00061FC01200FB0F0BD681C85B27D20C00019
:1025C00004F054FA032D8BDB0020F3E74F4B00009F
:1025D000DC05000041542B4E574B534B45593F00EF
:1025E0004C4F47000A5B25735D0000002B4E574B94
:1025F000534B45593A0000000A0B00202573000098
:10260000641400202000000013150020FCD20008F4
:1026100070B500241BE010A2104911A0FFF734FA96
:1026200001280ED111A112A002F024FC12A114481D
:10263000FDF776FE0546294612A002F01BFC01209C
:1026400070BD601C84B27D20C00004F00FFA032C22
:10265000E1DB0020F4E700004F4B0000DC05000048
:1026600041542B504F52543F000000004C4F470044
:102670000A5B25735D0000002B504F52543A000056
:102680000A0B00202573000070B500241BE010A287
:10269000104911A0FFF7F8F901280ED110A111A0DF
:1026A00002F0E8FB11A11348FDF73AFE0546294662
:1026B00011A002F0DFFB012070BD601C84B27D2000
:1026C000C00004F0D3F9032CE1DB0020F4E70000A4
:1026D0004F4B0000DC05000041542B5258323F00A4
:1026E0004C4F47000A5B25735D0000002B525832A7
:1026F0003A0000000A0B00202573000070B500248A
:102700001BE010A2114912A0FFF7BEF901280ED15B
:1027100011A112A002F0AEFB0AA11248FDF700FEC3
:102720000546294610A002F0A5FB012070BD601CE3
:1027300084B27D20C00004F099F9032CE1DB002075
:10274000F4E700002B56455200000000DC050000B5
:1027500041542B5645523F004C4F47000A5B2573AE
:102760005D0000000A0B00202573000010B5002456
:1027700019E00FA20F4910A0FFF786F901280CD12C
:1027800010480078400840000E49087000BF08F06B
:10279000EFFA0028FBD0012010BD601C84B27D2020
:1027A000C00004F063F9032CE3DB0020F4E7000031
:1027B0004F4B0000DC05000041542B464143544F71
:1027C00052590000DC14002010B500240DE009A2CD
:1027D00009490AA0FFF758F9012800D110BD601C73
:1027E00084B27D20C00004F041F9032CEFDB00200F
:1027F000F4E700004F4B0000DC05000041542B5370
:102800004156450010B590B00024242218A107A815
:10281000FDF760FD1F48807C1E49497C1D4A127CE3
:102820001C4BDB7B02930392049105901948807B3B
:102830001849497B009101901648037BC27A16A182
:1028400007A805F033F80EE020A2214907A8FFF7FA
:102850001BF9012801D110B010BD601C84B27D208D
:10286000C00004F003F9032CEEDB0020F3E70000C6
:1028700041542B4150504555493D2046462046463F
:10288000204645203030203030203030203030207D
:1028900030310000DC14002041542B41505045558C
:1028A000493D2025303278202530327820253032BD
:1028B0007820253032782025303278202530327843
:1028C0002025303278202530327800004F4B000030
:1028D000DC05000010B59EB00024402227A10EA800
:1028E000FDF7F8FC3548C07B3449897B334A527B7D
:1028F000324B133BDB7F0A930B920C910D902F48C8
:102900001338827F417F007F2C4B133BDB7E069385
:1029100007AB07C329481338807E28491339497EFD
:10292000264A133A127E254B133BDB7D029303921A
:102930000491059021481338807D20491339497D41
:10294000009101901D481338037DC27C1C490EA8DC
:1029500004F0ACFF0EE01BA21B490EA8FFF794F891
:10296000012801D11EB010BD601C84B27D20C000C2
:1029700004F07CF8032CEEDB0020F3E741542B41FC
:1029800050504B45593D20324220374520313520AB
:102990003136203238204145204432204136204112
:1029A0004220463720313520383820303920434600
:1029B0002034462033432C3000000000EF14002068
:1029C00040D600084F4B0000DC0500003EB5044631
:1029D000002522460BA1684604F068FF0DE00CA21A
:1029E0000C496846FFF750F8012800D13EBD681C2D
:1029F00085B27D20C00004F039F8032DEFDB002004
:102A0000F4E7000041542B42414E443D2564000050
:102A10004F4B0000C40900003EB5044600250EA23D
:102A200007CA6B4607C322460EA1684604F03EFF64
:102A30000DE00FA20F496846FFF726F8012800D1E4
:102A40003EBD681C85B27D20C00004F00FF8032D48
:102A5000EFDB0020F4E7000041542B434C4153537B
:102A60003D30000041542B434C4153533D256400FD
:102A70004F4B0000DC0500007FB504460D460026E4
:102A80000FA30FCB03936B4607C32B46224610A11F
:102A9000684604F00BFF0EE012A213496846FEF7E9
:102AA000F3FF012801D104B070BD701C86B27D20F7
:102AB000C00003F0DBFF032EEEDB0020F3E7000095
:102AC00041542B434F4E4649524D3D312C3300006B
:102AD00041542B434F4E4649524D3D25642C2564AD
:102AE000000000004F4B0000DC050000F0B587B08F
:102AF00004460D461646002718220FA101A8FDF72F
:102B0000E9FB2B46224612A101A8009604F0CEFE56
:102B10000EE014A2144901A8FEF7B6FF012801D166
:102B200007B0F0BD781C87B27D20C00003F09EFF87
:102B3000032FEEDB0020F3E741542B465245513D75
:102B4000312C32302C3836383130303030300000D3
:102B500041542B465245513D25642C25642C256457
:102B6000000000004F4B0000DC05000010B5002401
:102B700016E00DA20D490EA0FEF786FF012809D12F
:102B8000FF211048FDF7C1FB00210E48FA30C1803B
:102B9000012010BD601C84B27D20C00003F066FFE0
:102BA000032CE6DB0020F4E74F4B0000DC050000BF
:102BB00041542B4A4F494E3D312C312C31322C316E
:102BC000300000000A0B002010B500240DE009A21F
:102BD00009490AA0FEF758FF012800D110BD601C6A
:102BE00084B27D20C00003F041FF032CEFDB002006
:102BF000F4E700004F4B0000DC05000041542B4F70
:102C00005441413D312C30003EB5044600250EA212
:102C100007CA6B4607C322460EA1684604F046FE6B
:102C20000DE010A210496846FEF72EFF012800D1E2
:102C30003EBD681C85B27D20C00003F017FF032D48
:102C4000EFDB0020F4E7000041542B504F52543D7D
:102C50003230000041542B504F52543D25303278D1
:102C6000000000004F4B0000DC05000070B586B08E
:102C700004460D46002614220EA101A8FDF72AFBEA
:102C80002B46224610A101A804F010FE0EE012A26D
:102C9000124901A8FEF7F8FE012801D106B070BD67
:102CA000701C86B27D20C00003F0E0FE032EEEDB38
:102CB0000020F3E741542B5258323D302C3836393E
:102CC000353235303030000041542B5258323D25DA
:102CD000642C2564000000004F4B0000DC05000060
:102CE0001CB508F0E5F86C490968884205D96B48BD
:102CF00040798007C00F002800D11CBD68480068DB
:102D000008F0E7FA002800D1F7E708F0D1F814300E
:102D100061490860084600686249884202D3002081
:102D20005D49086069465E48006808F002FA0028BC
:102D300000D1E2E769460020085E5B49884203DD76
:102D4000012040026946088069460020085E564915
:102D50004942884203DA7F2040026946088069467A
:102D60000220085E5049884203DD01204002694686
:102D7000488069460220085E4B494942884203DA8E
:102D80007F2040026946488069460420085E464923
:102D9000884203DD0120400269468880694604209C
:102DA000085E41494942884203DA7F204002694671
:102DB00088806C460022A25E002A01DB134600E0F8
:102DC000534201246402A34217DA6B460221595E82
:102DD000002901DB0B4600E04B4201246402A342C0
:102DE0000BDA6B460420185E002801DB034600E086
:102DF000434201246402A34246DB684601882B4813
:102E000000880C2250432A4A1152684641882748BC
:102E100000880C225043264A8018418068468188E9
:102E2000224800880C225043214A801881801F4884
:102E30000088401C80B21D490880052829DB00203D
:102E400008801C49104606F07AF91A491A4809F018
:102E5000E9FD1849194808F095FE19480088401CFA
:102E60001749088008460088022812DB00200880E5
:102E70001149124805F0C0FF104808F0E1FE182182
:102E80000D48FDF742FA04E00020084908800C498B
:102E9000088000BF31E70000140000206C0800200B
:102EA00008000020005C26056816000012000020C3
:102EB000180100205801002064010020E8000020D3
:102EC000100000200EB50021192008F092F92249C7
:102ED00008600846006800283DD020A120A001F02D
:102EE000C9FF21A001F0C6FF012000900190034618
:102EF0000022114602901848006808F08AF8164827
:102F0000006808F0FCF8012211461348006808F038
:102F1000D3F800211048006808F0E0FA0120009082
:102F200003460022042101900B48006808F058FA7B
:102F3000134808F085FE134840798007C00F002829
:102F400009D1012000900346002211460190024859
:102F5000006808F045FA0EBD080000204C4F4700FD
:102F60000A5B25735D0000004163632053656E7347
:102F70006F7220496E6974205375636365737300C3
:102F8000E80000206C08002010B58CB0182106A8BD
:102F9000FDF7BBF918216846FDF7B7F90120800459
:102FA00001F0E0FF022002F061FA012080020090AF
:102FB000022001900320029000200390049004203E
:102FC00005906946324802F0FBF80120C0020090EB
:102FD0000220019003200290002003900120049021
:102FE0000420059069462A4802F0EAF801211D20D4
:102FF00004F0ACFD1D2004F0E9FC4B20C00106905C
:1030000000200790089009900C200A9000200B9057
:1030100006A9204802F078FA1E4802F063FA00BFC1
:1030200000BF00BF04F004FE0446012004F03DFE92
:1030300018480068FF2101310843164908602046FE
:1030400004F033FE00BF00BF00BF01201249086238
:1030500000BF104802F046FA00BF0E480068012188
:1030600008430C49086000BF00BF00BF0948C069A1
:10307000012149050840400D0028F6D000BF054851
:10308000C06949000840800D0028EED00CB010BD8A
:1030900000040050004800400038014000B589B0ED
:1030A000002007900890182101A8FDF72EF90120B3
:1030B00002F0C0F9022002F0BDF90520000702F07D
:1030C0003DF8974802F03AF8964802F037F80120A8
:1030D000029000200390049005900120400301908D
:1030E00001A98F4802F06CF801200003019001A9AA
:1030F0008B4802F065F801214903894802F0E2F8A3
:1031000001210903864802F0DDF80120C003019087
:1031100001A90520000702F053F80121C903052089
:10312000000702F0CFF8012189037D4802F0CCF8B6
:10313000FF2101310520000702F0C6F80121090333
:103140000520000702F0C0F8012080030190012053
:103150000290002003900490059001A9704802F0AD
:103160002FF8FF200130019001A90520000702F08F
:1031700027F801200003019001A90520000702F0B3
:103180001FF80120C003019000200290059001A9C2
:10319000634802F015F80120C002019001A9052042
:1031A000000702F00DF80020029001200590019028
:1031B00001A90520000702F003F802200190002079
:1031C000059001A90520000701F0FAFF08200190F1
:1031D00001200290002003900490059001A950481E
:1031E00001F0EEFF1020019001A94D4801F0E8FF29
:1031F000012208214A4802F085F80122102148489E
:1032000002F080F82020019001A9454801F0D8FF84
:1032100001222021424802F075F80020029005901A
:103220008020019001A93E4801F0CAFF3E490120DB
:1032300002F0AEFD00228021394802F056F800224B
:103240008021374802F044F880200790012108A827
:103250000170002141700121817007A801F004FF75
:103260000021084602F094FD0122114605200007C6
:1032700002F03BF8002201210520000702F028F8A7
:1032800001200790012108A801700021417002214E
:10329000817007A801F0E8FE01218904002002F0F6
:1032A00077FD002202210520000702F01EF800220F
:1032B00002210520000702F00BF8022007900121EF
:1032C00008A80170002141700321817007A801F056
:1032D000CBFE0121052004F085FB052004F05EFBF8
:1032E0000121072004F07EFB072004F057FB002299
:1032F0000E490F4805F0FBFA0E4A03210C4805F071
:10330000C3F90D4A04210A4805F0BEF90B4A05210C
:10331000074805F0B9F9064805F010FB09B000BDF3
:10332000000400500008005001000C003189000822
:10333000A4080020093700086D360008B5360008DB
:1033400000B58DB01C2106A8FCF7DFFF18216846E8
:10335000FCF7DBFF0120800301F022FE012002F0D8
:1033600085F8012040020090022001900320029085
:103370000020039004900420059069460520000772
:1033800001F01EFF01208002009002200190032026
:1033900002900020039001200490042005906946CB
:1033A0000520000701F00CFF01211B2004F0CEFBDB
:1033B0001B2004F00BFB4B20C0010690002007905F
:1033C000089009900C200A9000200B900C9006A900
:1033D000094802F0EBFD084802F0B3FD064802F090
:1033E000BAFD054802F0CFFD034802F0B9FD0248DE
:1033F00002F0A4FD0DB000BD0038014000B58DB055
:103400001C2106A8FCF781FF18216846FCF77DFF08
:103410000120400401F0A6FD012002F027F804205D
:10342000009002200190032002900020039004905D
:103430000420059069460520000701F0C1FE082020
:1034400000900220019003200290002003900120B0
:1034500004900420059069460520000701F0B0FEA5
:1034600001211C2004F072FB1C2004F0AFFA4B2059
:103470004002069000200790089009900C200A90C6
:1034800000200B900C9006A9124802F08FFD114805
:1034900002F057FD00BF0F4880680121090308436F
:1034A0000C49886000BF00BF084680684914884303
:1034B0000849886000BF084602F04DFD054802F04B
:1034C00062FD044802F04CFD024802F037FD0DB0E9
:1034D00000BD000000440040F3B58FB0044600205A
:1034E0000B900C900D900E900790089009900A9008
:1034F000182101A8FCF709FF012001F025FD109813
:10350000401E6946888500200C90601E0D900020AA
:103510000E900BA90120800702F0A4FC00BF01203F
:103520008007006880218843C905086000BF00202B
:103530008968334A1140014301229207916000BF1C
:103540006020079001200890002009900A9007AAA7
:103550000121880702F0BEFC012292070120002809
:1035600001D000250AE0102801D1022506E0FF2540
:103570000135A84201D1042500E006252B46214D46
:10358000EE5C1546183571190D681F4EF75C042660
:10359000BE4035430D6000BF00210120800702F0CE
:1035A000C7FC0120800702F04DFC01201749C96AC1
:1035B0000143164AD1621146C96A0140009100BF19
:1035C00000BFC003019002200290002003900490ED
:1035D00005900520069001A9000701F0F1FD0121E9
:1035E0000F2004F077FA0F2004F0E4F9012081079E
:1035F000096A01438207116200BF11B0F0BD0000EB
:10360000F8BFFFFFCFD00008D6D00008001002405E
:10361000F8B505460E46C824214671430846642184
:10362000FCF768FD074620460421FFF755FF3846A2
:10363000E106486300BF084602F009FCE00602F01C
:103640000BFCA8B208F022F900BFE006C068022116
:1036500088434907C86000BF084602F0BDFB01204F
:10366000C00305210907886200BFF8BD00B50F48F7
:103670008079C007C00F002807D10C48407910217D
:1036800088431030094948710FE001220821084899
:1036900001F038FE01221021054801F033FE0348F5
:1036A0008079400840000149887100BD6C08002005
:1036B0000004005000B512488079C007C00F0028F0
:1036C00007D10F4840792021884320300C494871A8
:1036D00015E00B48407904218843001D08494871D2
:1036E0000846807940084000887101220821054879
:1036F00001F008FE01221021024801F003FE00BD86
:103700006C080020000400501B48407908218843C1
:10371000083019494871194801780078401C174A47
:103720001070002904D1164800680A301549086055
:103730001348006813490968884207D90F48007880
:10374000002803D000200D49087013E00A48407992
:103750008007C00F00280DD008480078072809DB33
:103760000020064908700448807940084000401C49
:1037700001498871704700006C0800203800002063
:103780005C0000203C00002070B504462046FCF799
:10379000DBFD85B22946204600F002F870BD00002E
:1037A000F8B504460D46002627460CE03046721C4C
:1037B00096B2395C054802F087FC00BF034802F06E
:1037C00075FC0028FAD0AE42F0DBF8BD00440040A2
:1037D000F8B505460E461746294608A001F04AFBF3
:1037E000002404E0315D0BA001F044FB641CBC42EA
:1037F000F8DB0AA001F03EFBF8BD00000A2052658C
:10380000637620556172742044617461205B257376
:103810005D3A000020253032780000000A000000E8
:1038200010B5544800798007C00F002831D05148A6
:103830000079022188434F490871DC214E48FCF78A
:1038400064FD4D49032008F0BFFF4C4908704C4807
:1038500007F0ACFE044649480078401C844210DB67
:1038600001224649464807F0B1FF444802784249E0
:10387000434807F0ABFF43480078401C41490870BB
:1038800006E041A142A001F0F5FA43A001F0F2FAEE
:1038900000BF384800790007C00F002831D03548F4
:1038A00000790821884333490871DC213248FCF74C
:1038B0002CFD3149842008F087FF304908703048DA
:1038C00007F074FE04462D480078401C844210DB4B
:1038D00001222A492A4807F079FF28480278264918
:1038E000274807F073FF27480078401C25490870D7
:1038F00006E025A126A001F0BDFA27A001F0BAFA42
:1039000000BF1C480079C006C00F002831D01948FC
:1039100000791021884317490871DC211648FCF70B
:10392000F4FC1549802008F04FFF14490870144832
:1039300007F03CFE044611480078401C844210DB2E
:1039400001220E490E4807F041FF0C4802780A494F
:103950000B4807F03BFF0B480078401C09490870F2
:1039600006E009A10AA001F085FA0BA001F082FA95
:1039700000BF10BD6C0800209C0500202600002020
:1039800070050020250000204552524F52000000D3
:103990000A5B25735D0000004C77726220416C72F7
:1039A000656164792046756C6C00000010B52E4886
:1039B0000078C007C00F002850D02C48808800280D
:1039C0004CD12B480078002826D0FF212948FCF74D
:1039D0009CFCDC212848FCF798FC274C0122274955
:1039E000274807F05DFE254802782146244807F065
:1039F00057FE08F0B7FD1E480078401EC0B21C49B3
:103A00000870002807D17D21C9001E48FCF77DFC05
:103A10001B4807F0A5FE21E01B4840794006C00F77
:103A200000280BD018484079402188431649487136
:103A300000F02EF815490D4881800FE012484079BA
:103A4000C00900280AD010484079802188430E49D7
:103A5000487100F071F80D490448818000F048FD7C
:103A6000FFF7DEFE10BD0000DC140020040B002078
:103A700025000020040A00209C05002026000020CC
:103A800070050020880100206C08002088130000C9
:103A900070B5274D0024DC212846FCF736FC0020B9
:103AA000244908702946012008F08EFE04462D198D
:103AB0002048007800191F4908702946032008F0A3
:103AC00083FE04462D191B48007800191949087017
:103AD0002946102008F078FE04462D191548007874
:103AE0000019144908702946112008F06DFE04469B
:103AF0002D191048007800190E4908702946152024
:103B000008F062FE04462D190A4800780019094998
:103B100008702946392008F057FE04462D1905483B
:103B2000007800190349087008F01CFD70BD000002
:103B30009C0500202600002070B50B4C0025DC21E0
:103B40002046FCF7E2FB002008490870214632209D
:103B500008F03AFE05466419044800784019034904
:103B6000087008F0FFFC70BD9C05002026000020B6
:103B700010B5012001F0D6FA00281CD0012001F078
:103B80002DFA1E484079C007C00F00280CD01B48F2
:103B900040794008400019494871084600794021A1
:103BA00088434030154908711448007A0A2802DA1F
:103BB0000A2012490872022001F0B4FA00281CD031
:103BC000022001F00BFA0D484079C007C00F002811
:103BD0000CD00A484079400840000849487108461E
:103BE0000079402188434030044908710348007A35
:103BF0000A2802DA0A200149087210BD6C08002068
:103C000010B5802001F08EFA002822D0802001F02B
:103C1000E5F910484079C007C00F00280CD00D48C6
:103C20004079400840000B4948710846007940211E
:103C3000884340300749087106480079802188434D
:103C40008030044908710846007A0A2801DA0A20FF
:103C5000087210BD6C08002010B501F0A7FC01200F
:103C60000649096881430143044A116000BF0020EE
:103C700001F0A6FC01F02CFC30BF10BD007000402C
:103C800000BF0020C0430749C86000BF00BF00BF9D
:103C90000448C0684021084080090028F7D000206F
:103CA000704700000028004000B500BF8020C043DE
:103CB0000249C86000BF03F0C5FD00BD00280040F8
:103CC00000210A4A51610A494968012252021143FE
:103CD000074A51601146496808221143044A51605D
:103CE0000021C209D2011160704700003415002084
:103CF0000020024010B58AB0454C042245492046B8
:103D000000F0EEF84348007800280AD14148C08905
:103D10002D214901884203DC3E48C08901284FDA41
:103D200045E03C480078012840D13A4840882D21A0
:103D30004901884213DC3748408801280FDB3548A9
:103D4000807918280BDA3348007A3C2807DA3148A2
:103D5000807A182803DA2F48007B3C2800DB26E015
:103D60002C4880882D214901884213DC294880880D
:103D700001280FDB2748C07918280BDA2548407A3C
:103D80003C2807DA2348C07A182803DA2148407B08
:103D90003C2800DB0BE01F48C0892D2149018842E7
:103DA00003DC1C48C08901280ADA00E000BF1021AA
:103DB0001848FCF7AAFA0020164908701E20C8818E
:103DC0001448C0891449C8811248C0891149497BE7
:103DD000104AD27A0F4B5B7A0593069207910890AE
:103DE0000C48C0790B4989880A4A127B094B9B7A97
:103DF00001930292039104900648007A00900548CE
:103E0000837942880178054801F034F80AB010BD82
:103E100000F800088C0500206C080020DCD40008A5
:103E20001CB5194C02226946204600F059F8174982
:103E3000009848700198887008464078FE2803DC96
:103E400008464078012802DA0A20104948700F48D5
:103E50008078002806D00D488078022802D0002003
:103E60000A4988700AA10CA001F004F8074880787C
:103E7000002801D00AA000E00BA0024603484178C8
:103E80000BA000F0F7FF1CBD00EC0008DC140020C4
:103E9000464C4153480000000A5B25735D0000005A
:103EA000436C617373204300436C61737320410062
:103EB0005265616420466C6173682044657669636D
:103EC00065204C6F526157414E20506F72743A20FA
:103ED00025642C20436C6173733A20257300000025
:103EE00070B503461C46002004E0256886008D510D
:103EF000241D401C9042F8DB70BD000010B510A0DE
:103F000000F0B8FF1EA000F0B5FF2DA000F0B2FF3A
:103F1000032204213AA000F0ADFFFFF7EBFEFFF70C
:103F20007FFF64204649087001214648017206F06F
:103F300080FF002802D101204349087410BD000011
:103F40000A2A2A2A2A2A2A2A2A2A2A2A2A2A2A2AF1
:103F50002A2A2A2A2A2A2A2A2A2A2A2A2A2A2A2AC1
:103F60002A2A2A2A2A2A2A2A2A2A2A2A2A2A2A2AB1
:103F70002A2A2A2A2A2A2A2A2A2A2A2A2A0A000015
:103F80002A2A2A2A2A2A2A2A2A2A2A2A2A2A2A2A91
:103F90002A2A2A2A2A2A2A2A2A2A2A2A2A2A2A2A81
:103FA0002A2A2A2A2A2A2A2A2A2A2A2A2A2A2A2A71
:103FB0002A2A2A2A2A2A2A2A2A2A2A2A0A000000FF
:103FC0002A2A2A2A2A2A2A2A2A2A2A2A2A2A2A205B
:103FD000484B54203A20436174746C6520416E64F0
:103FE00020536865657020547261636B202A2A2A09
:103FF0002A2A2A2A2A2A2A2A2A2A2A2A0A000000BF
:104000002A2A2A2A2A2A2A2A204841524457415237
:10401000455F5645523A20307825303278202C536F
:104020004F4654574152455F5645523A2030782505
:10403000303278202A2A2A2A2A2A2A2A0A0000002C
:10404000180000201C1500206C08002010B510215D
:104050000848FCF75AF90020064908701E20C8815C
:104060000549C881054800680549086000F0B2F9B3
:1040700010BD00008C0500206C0800205C000020B2
:1040800040000020002039498969FF220132114097
:10409000914208D13649496902221143344A51619B
:1040A000FF2101310843314989690122520211403F
:1040B000914208D12E494969012211432C4A51618C
:1040C00001214902084329498969012292021140CC
:1040D000914208D12649496908221143244A516175
:1040E000012189020843214989690122D202114034
:1040F000914208D11E494969042211431C4A516169
:104100000121C9020843194989690122520311405A
:10411000914208D11649496910221143144A51614C
:1041200001214903084311498969012252041140C0
:10413000914207D10E494969202211430C4A51612D
:104140002021084309498969012212041140914242
:1041500008D10749496940221143054A51610121AB
:1041600009040843014988617047000000200240AB
:104170003415002070B5044606F09AFE05460BE0A3
:10418000601C002808D0002C04D006F091FE401BD3
:10419000A04201D9032070BD1F488069C007C00F2D
:1041A0000028EDD11C48806902210840022801D175
:1041B0001949886118488069FF2101310840884207
:1041C00023D0154880694900084088421DD0124814
:1041D000806949000840884217D00F48806949002B
:1041E0000840884211D00C48806989000840884204
:1041F0000BD00948806909010840884205D006486B
:10420000806949100840884203D1FFF73BFF012035
:10421000C1E70020BFE7000000200240F0B58FB0EA
:1042200000200E9032480D900027242104A8FCF7AE
:104230006CF8304C002610E0207805066078000409
:104240004519A07800024519E0784519241D384623
:104250007F1C800004A90D50361D042EECD3254C84
:10426000241D002610E0207805066078000445191A
:10427000A07800024519E0784519241D38467F1CB6
:10428000800004A90D50361D102EECD3194C1434A7
:10429000002610E020780506607800044519A07813
:1042A00000024519E0784519241D38467F1C80001E
:1042B00004A90D50361D102EECD300F017FC002081
:1042C00000900D9801900120029000BF03A968465C
:1042D00000F08EFB0028F9D1092204A90D9800F006
:1042E000C1F80E9000F0CAFB0E980FB0F0BD0000B0
:1042F00000E80008FF140020F0B58FB000200E90F9
:1043000032480D900027202105A8FBF7FEFF304C16
:10431000002610E020780506607800044519A07892
:1043200000024519E0784519241D38467F1C80009D
:1043300005A90D50361D082EECD3254C0834002657
:1043400010E020780506607800044519A078000286
:104350004519E0784519241D38467F1C800005A9C1
:104360000D50361D082EECD3194C1034002610E0E9
:1043700020780506607800044519A07800024519E8
:10438000E0784519241D38467F1C800005A90D5092
:10439000361D102EECD300F0A9FB002001900D98E3
:1043A00002900120039000BF04A901A800F020FBA7
:1043B0000028F9D1082205A90D9800F053F80E90B5
:1043C00000F05CFB0E980FB0F0BD000000E40008A8
:1043D000DF1400207FB500250C4C00F087FB002087
:1043E000009001940120029000BF03A9684600F0EC
:1043F000FFFA0028F9D104220549204600F032F8DE
:10440000054600F03BFB284604B070BD00F80008EC
:104410008C05002030B587B00025104C104840783E
:1044200005900F488078069000F060FB0020019016
:1044300002940120039000BF04A901A800F0D8FA5B
:104440000028F9D1022205A9204600F00BF8054604
:1044500000F014FB284607B030BD000000EC000857
:10446000DC140020F7B582B007460D46002001900D
:104470003E46002413E0A0002A583146022000F0F6
:104480000DFB01900198002804D13068A100695803
:10449000884202D0012005B0F0BD361D641C04988E
:1044A0008442E8DB0020F6E730B585B000250E4CED
:1044B0000E484089049000F019FB00200090019400
:1044C0000120029000BF03A9684600F091FA00287D
:1044D000F9D1012204A92046FFF7C4FF054600F0E8
:1044E000CDFA284605B030BD00F400086C08002065
:1044F0001CB567488079C007C00F002875D1644893
:1045000040790007C00F002817D061484079082182
:1045100088435F4948715FA000F0ACFC5C4840797B
:104520008007C00F002804D07D20C00061490880AA
:1045300003E07D20C0006049088055484079C006EE
:10454000C00F002831D0524840791021884350498B
:1045500048715AA000F08EFC002208215F4800F04C
:10456000D1FEFF20F53007F091F9012208215B48C8
:1045700000F0C8FE00221021584800F0C3FEFF20C2
:10458000F53007F083F901221021544800F0BAFEFB
:1045900053480078C007C00F002806D03C48407937
:1045A0008021884380303A494871394840798006F3
:1045B000C00F002849D0364840792021884334492B
:1045C000487148A000F056FC314840798007C00F80
:1045D00000280BD02E484079022188432C4948718D
:1045E00032214748FFF714F814E02EE028484079BC
:1045F00002218843801C2649487132217D20C00059
:10460000FFF706F801213648403001723D48006846
:104610003D4908601E4840798007C00F00280AD134
:10462000012000900346002211460190374800689F
:1046300006F0D6FE09E00120009003460022042186
:1046400001903248006806F0CBFE114840794007DF
:10465000C00F00281BD00E484079042188430C4924
:1046600048712BA000F006FCFFF7F0FC244811492C
:104670000880114908803221C820FEF7C9FFFF20B9
:10468000F53007F003F93221C820FEF7C1FF1CBD49
:104690006C0800200A427574746F6E205072657346
:1046A000732053686F72742048616E646C65720A7F
:1046B000000000002E0000202C0000200A4275742B
:1046C000746F6E20507265737320446F75626C65F1
:1046D0002048616E646C65720A000000000400509E
:1046E000DC1400200A427574746F6E20507265737A
:1046F00073204C6F6E672048616E646C65720A00AF
:10470000B80B00005C0000204000002008000020E2
:104710000A4465766963652044656661756C740A50
:1047200000000000F8B506F0C3FB7B490968884229
:1047300005D37A4840798007C00F002800D1F8BD22
:1047400006F0B6FBFF30F530734908600846006894
:104750007349884202D300206F490860714800689D
:1047600071490968884227D86C48C0893C21484370
:104770006D49096840186B490860012149036B487D
:1047800000F0A4FD01210903684800F09FFD00200E
:10479000674A9060D060002111615161B420654981
:1047A000087065A165A000F065FB5F4802685D4880
:1047B000016864A000F05EFB5E48007800287DD0B0
:1047C0005C480078401E5B4908705BA15BA000F06C
:1047D00051FB584801786BA000F04CFB554800781D
:1047E000002811D05248002213468468C168204630
:1047F000FCF74CF808D14E48002213468468C16883
:104800002046FCF743F8DAD000204A49087001201E
:1048100040034649886200BF47A148A000F02AFB38
:10482000414802683F4801685D4800F023FB3B486F
:104830004079402188434030384948713C48002243
:1048400013468468C1682046FCF720F85DD03848DC
:1048500000221346046941692046FCF717F854D03A
:10486000334800221346046941692046FCF722F8C8
:104870000DD82F490E69496900224A4B3046FBF793
:10488000C1FE0446FBF7E4FF2449886211E0284991
:104890000E694969490049080022424B3046FBF73E
:1048A000B1FE0446FBF7D4FF0121C90708431B49A9
:1048B00088621F4800221346846800E029E0C1682E
:1048C0002046FBF7F7FF0DD819480022354B8468C6
:1048D000C1682046FBF796FE0646FBF7B9FF0F4975
:1048E000486216E012498C68C968490049080022EC
:1048F0002C4B2046FBF786FE0646FBF7A9FF01215D
:10490000C90708430549486203E0002103484162A2
:10491000816200BF13E70000440000206C08002003
:10492000005C2605400000205C00002000040050D0
:1049300038090020480000204C4F47000A5B2573CF
:104940005D0000004F70656E20477073204D6F64EE
:104950006520506F7765722C204E65787420526503
:1049600061642054696D657374616D703A202564CB
:104970002C204E6F772054696D657374616D703AA9
:10498000202564005761697420477073204D6F645F
:104990006520526573756C743A2025640000000030
:1049A0005CD5000880842E4170B500231A46044669
:1049B0000FE01546561CB2B2635D0B4DAB6200BFF3
:1049C00000BF00BF084BDB6940252B409B09002B33
:1049D000F7D08A42EDDB054B1B7A0A2B02DA0A2359
:1049E000024D2B7270BD0000004800406C08002092
:1049F000F8B504460E460127002500BF1C48007C80
:104A0000012801D10220F8BD01201949087400BF16
:104A10001848FFF7AFFB0746002F22D1401E306039
:104A2000656817E02846FFF74BF91248FFF7A2FB2D
:104A3000074611484068082188430F4948600846E6
:104A40004068491588430C494860002F01D0356003
:104A500006E08035A068C00161684018A842E1D82E
:104A600000BF00BF00200249087400BF3846CAE7F3
:104A70003415002050C30000002002400648406862
:104A80000221084304494860084640680121084360
:104A9000014948600020704700200240F8B50746F1
:104AA0000C461546012600BF0E48007C012801D1A6
:104AB0000220F8BD01200B49087400BF0A48FFF727
:104AC00059FB0646002E06D1064948612560064876
:104AD000FFF750FB064600BF00200249087400BFE4
:104AE0003046E6E73415002050C300001D484068FA
:104AF000C007C00F002816D000BFEFF3108001469A
:104B000000BF72B61848174AD0601848D06000BF7E
:104B100081F3108800BF10464068C007C00F00280E
:104B200001D0012070470F4840680222104002283F
:104B300015D100BFEFF31080014672B60C48094A48
:104B400010610C481061084680F3108800BF1046C1
:104B5000406802221040022801D10120E2E7002033
:104B6000E0E7000000200240EFCDAB89050403021E
:104B7000BFAE9D8C1615141309E0002210210448C5
:104B800000F0C0FB00220821014800F0BBFBF4E765
:104B90000004005000B58FB01C2108A8FBF7B5FB3E
:104BA000182102A8FBF7B1FB022000F051FCFF2006
:104BB0000130029002200390032004900120059010
:104BC000002006900420079002A9304800F0F8FA6F
:104BD0000120400202900220039003200490012053
:104BE0000590002006900420079002A9274800F0B5
:104BF000E7FA012040052649896B0143244A916365
:104C00001146896B0140019100BF00BF00BF2148E0
:104C100040680121490608431E49486000BF00BFA3
:104C20000846C068C91388431A49C86000BF00BF5E
:104C3000084600680121C90488431649086000BF7E
:104C400000BF0846006801214904884311490860F3
:104C500000BF00200890E120C000099000200A90C9
:104C60000B900C900D900E9008A90A4800F07CFB68
:104C700000210846074AD268074B1A400B460343F7
:104C80001A43044BDA6000BF0FB000BD00040050AF
:104C9000001002400054004001F8FFFFFEB504463A
:104CA0000E4615461F4600BF214800F0A6FB00280F
:104CB000FAD11F4800F0B4FB002802D11C4800F0D4
:104CC0002CFB1C4800210091019061002B46002222
:104CD000174800F027FB00BF154800F09BFB002899
:104CE000FAD02946304600F08FF800BF00BF1048C8
:104CF00080694021084080090028F7D00E48C90487
:104D0000009101906000411C00220948089B00F0BE
:104D100009FB3846089900F05DF800BF044800F030
:104D200073FB0028FAD0024800F0F2FAFEBD000042
:104D3000005400400020008000240080FEB504469E
:104D40000E4615461F4600BF204800F056FB0028BF
:104D5000FAD11E4800F064FB002802D11B4800F085
:104D6000DCFA1B48C1020091019061002B46002231
:104D7000164800F0D7FA00BF144800F04BFB00289B
:104D8000FAD02946304600F03FF800BF00BF0F4878
:104D9000806980210840C0090028F7D000208904DC
:104DA00000910190610002460848089B00F0BAFAA1
:104DB0003846089900F048F800BF044800F024FB8A
:104DC0000028FAD0014800F0A3FAFEBD00540040CC
:104DD0000020008010B5024600200FE000BF00BF99
:104DE000084B9B69042423409B08002BF7D000BF8D
:104DF000044B5B6ADBB21354431CD8B28842EDDB30
:104E000010BD000000540040F8B504460D46E6B25F
:104E1000FF20000220400712012D04D1314609482D
:104E200000F006FB0DE03946064800F001FB00BF2C
:104E3000044800F0EFFA0028FAD03146014800F0AB
:104E4000F7FAF8BD0054004070B505460E46002440
:104E50000BE000BF064800F0DDFA0028FAD0295D1B
:104E6000034800F0E5FA601CC4B2B442F1DB70BD47
:104E7000005400400FB438B50498002804D00498BA
:104E8000FBF762FA002803D138BC08BC04B018470D
:104E900005A80090FF21F5310748009B049A02F015
:104EA00019FD054600200090034CA9B22046FEF7EC
:104EB00077FC00BFE8E700006E12002010B51E4826
:104EC0000078002816D01C4800780A2812DA1A4800
:104ED0000078401E194909780141CA07D20F012103
:104EE0000903174800F00EFA13480078401C1249D5
:104EF000087020E01048007800280BD10022012122
:104F000009030F4800F0FEF90B480078401C0A49DD
:104F1000087010E001221103094800F0F3F90020A5
:104F20000549087000BF0748C068400840000549AF
:104F3000C86000BF00BF10BD6D0000206E000020E3
:104F4000000400500008014008B50549896B014381
:104F5000034A91631146896B0140009100BF08BD6F
:104F60000010024008B50549896B0143034A91636B
:104F70001146896B0140009100BF08BD001002403E
:104F80000249896A0143014A916270470010024058
:104F90000249896A8143014A9162704700100240C8
:104FA00008B50549496B0143034A51631146496BF2
:104FB0000140009100BF08BD001002400249496A4B
:104FC0000143014A51627047001002400249496A98
:104FD0008143014A51627047001002400149486113
:104FE0007047000000040140024949688143014ABA
:104FF0005160704700040140024909688143014A39
:105000001160704700040140024909688143014A68
:105010001160704700040140024949680143014A98
:1050200051607047000401400249C9680143014AC8
:10503000D160704700040140024909680143014AF8
:105040001160704700040140024909680143014AA8
:105050001160704700040140024989680143014A18
:10506000916070470004014070B504460025207926
:1050700000284DD02068002850D06079002804D046
:10508000012809D0022815D10DE02068FFF7ACFFF8
:105090002068FFF7D9FF0FE02068FFF7B5FF206811
:1050A000FFF7BAFF08E02068FFF7CEFF2068FFF7A0
:1050B000B3FF01E0012500BF00BFA07900282DD07B
:1050C000A079012804D002280DD003281DD115E0B5
:1050D00020681349C9688143114AD16000BF206824
:1050E000FFF7BAFF13E020680D49896881430C4A35
:1050F000916000BF2068FFF797FF08E02068FFF786
:10510000ABFF2068FFF790FF01E0012500BF05E03D
:105110002068FFF779FF2068FFF766FF284670BD1B
:10512000000401400146044840690840884201D11A
:10513000012070470020FCE70004014070B50446E0
:10514000002505200007844206D1012000F09CF9CB
:10515000012000F0A1F928E01548844206D1022080
:1051600000F092F9022000F097F91EE01148844205
:1051700006D1042000F088F9042000F08DF914E035
:105180000D48844206D1082000F07EF9082000F086
:1051900083F90AE00948844206D1802000F074F9BE
:1051A000802000F079F900E00125284670BD00005C
:1051B0000004005000080050000C0050001C00507B
:1051C000F0B502460B46002600216CE00124B440F5
:1051D000186820400146002964D05868012802D090
:1051E0005868022816D1986894680D464D436F00A0
:1051F000ED19AC430D464D4345432C43946000BF2D
:10520000DC68186855688543074667433D43556029
:1052100000BF00BF1869D4680D464D436F00ED19FB
:10522000AC430D464D4345432C43D46000BF586802
:10523000022829D1FF2911D85869146A0D464D4317
:105240004D434D432F017D1BAC430D464D434D4314
:105250004D4345432C43146200BF15E05F69080AC3
:1052600040430C0A60430C0A60430401241A506A4C
:10527000A0430C0A64430D0A6C430D0A6C437C4343
:105280002043506200BF00BF586814680D464D436C
:105290006F00ED19AC430D464D4345432C4314605C
:1052A00000BF00BF761C1868F04000288ED1F0BD0A
:1052B000024610690840704702465069084070472E
:1052C0008162704781627047816170478161704778
:1052D00030B503680C464C4365006419A3430C4683
:1052E0004C4354432343036030BD30B5C3680C4680
:1052F0004C4365006419A3430C464C435443234379
:10530000C36030BD002A01D0816100E08162704736
:10531000C16920221143C161704701680122114314
:1053200001607047F0B5069C4668650D0127BF0215
:105330003D400B4F3D4301277F03ED197F003D4367
:10534000BF02ED19074F3D43AE430D4615431F0401
:105350003D43059F3D4325432E434660F0BD00007D
:10536000FF0B00000010FF0230B5024600BF1068BE
:1053700040084000106000BFCB68886814681F2593
:105380002D02AC431D0205432C43146000BF486846
:10539000106100BF00BF106801231843106000BFF8
:1053A00000BF9068DB039843906000BF8B69086979
:1053B0009468E40AE40205461D432C43946000BF50
:1053C0000869002807D000BF90680123DB03184359
:1053D000906000BF00BF0868136803242405A3433E
:1053E0000343136000BF486953680124E403A343E7
:1053F0000343536000BF002030BD0146886901228D
:10540000D2031040C00B704701468869202210402B
:1054100040097047014688690222104040087047E1
:1054200001460868C007C00F012250405040704735
:105430008162704708B50549C96A0143034AD162D0
:105440001146C96A0140009100BF08BD001002402A
:1054500008B50549C96A0143034AD1621146C96AC0
:105460000140009100BF08BD0010024008B5054989
:10547000C96A0143034AD1621146C96A01400091D9
:1054800000BF08BD001002400249C9690143014A3A
:10549000D1617047001002400249C9698143014A45
:1054A000D16170470010024070B504467D25ED00C3
:1054B00029462046FAF71EFE401E04494861002096
:1054C00088610520086100BF70BD000000E000E0B9
:1054D000034800690421084301490861704700003E
:1054E00000ED00E070B5044600BF02F0A1FB0546E8
:1054F000012002F0DAFB20682021084320602846C2
:1055000002F0D3FB00BF70BDF0B585B004460D4678
:105510000120039000BF2068C007C00F0121484050
:10552000484000283AD1E968686808432969084377
:1055300021681C4A114008432060A8686168032262
:10554000120391430143616000BF6869A1681211B1
:1055500091430143A16000BF900000F03BF8074673
:10556000002F1BD02868002818D000200390029735
:105570002E68002E10D0FF210131029802F0D9F9D7
:105580007208002380185941324601910090FAF7C1
:10559000DBFD05490840E06000BF00BF039805B08F
:1055A000F0BD0000F3E9FFEFFFFF0F0003480068C4
:1055B000012149020843014908607047007000401A
:1055C00003490968022291430143014A116070476F
:1055D00000700040F8B50446002500BF1948C068B7
:1055E0002040002820D001218902401A04D0401A0E
:1055F00006D0401A17D10FE001F090FB05461DE0E0
:1056000000F09EF8002806D000F0A2F8002801D093
:105610000D4D00E00D4D11E000F0A2F8002801D082
:105620000125ED030AE000BF01F078FB074601F019
:105630003FFB064601F04EFB054600BF00BF284673
:10564000F8BD00004010024000093D000024F400B5
:10565000F8B504460025032C2FD1204600F066F84B
:105660002104401A1ED0012804D0022806D00328A5
:1056700017D10FE001F052FB05461DE000F060F885
:10568000002806D000F064F8002801D0254D00E085
:10569000254D11E000F064F8002801D00125ED034C
:1056A0000AE000BF01F03AFB074601F001FB0646A5
:1056B00001F022FB054600BF00BF0C2C2FD1204675
:1056C00000F034F82104401A1ED0042804D0082821
:1056D00006D00C2817D10FE001F020FB05461DE095
:1056E00000F02EF8002806D000F032F8002801D093
:1056F0000C4D00E00C4D11E000F032F8002801D014
:105700000125ED030AE000BF01F008FB074601F0A8
:10571000CFFA064601F0DEFA054600BF00BF284674
:10572000F8BD000000093D000024F40001460348D4
:10573000C06808400A04104370470000401002404F
:1057400002480068042108408008704700100240A9
:10575000024800681021084000097047001002400C
:1057600003480069012149020840400A70470000CF
:105770004010024002484068072149030840704732
:10578000001002400449C968020C914382B21143DF
:10579000014AD1607047000040100240F8B5069CF5
:1057A000F02515402D041607360B35430D43F02622
:1057B0001E4036021F073F0D3E433543F02626406C
:1057C00027073F0F3E4335430095C569024E3540DC
:1057D000009E3543C561F8BD808080FF8168FF224F
:1057E0000132914381607047F0B585B005460E46A1
:1057F0001446002E0DD1284600F0DCF9002800D018
:1058000002E00020206000BFE068002800D10EE028
:105810000DE0284600F0CEF9002800D002E000207C
:10582000206000BFE068002800D100E000BF2846EB
:1058300000F08BF9E06800281ED100BFE869012163
:1058400089078843E86100BF002E04D0217C2846E8
:1058500000F06AF821E0207C0A21FAF74BFC0701EE
:10586000207C0A21FAF746FC0F43F8B20146039068
:10587000284600F059F810E000BFE86901218907C7
:105880000843E86100BF207CE9690F2212069143BA
:1058900002061143E96100BF00BF002E08D0A079C5
:1058A00000906379227928462168FFF777FF2BE083
:1058B000A0790A21FAF71EFC0701A0790A21FAF75C
:1058C00019FC0F43F8B2039060790A21FAF712FC31
:1058D000070160790A21FAF70DFC0F43F8B2029034
:1058E00020790A21FAF706FC070120790A21FAF744
:1058F00001FC0F43F8B201900398009021682846FC
:10590000029B019AFFF74AFFA068E969054A114026
:105910000143E96100BF284600F01FF9002005B0EF
:10592000F0BD00007F7F7F7F10B5F0220A40120695
:105930000B071B091A43C3693F242406A3431A43D8
:10594000C26110BDC16880221140024A1143C1608A
:10595000704700007FFEFFFFF8B5069CF02525404C
:105960002D042607360B35434E033543F0261E40E3
:1059700036021F073F0D3E433543F02616401707FA
:105980003F0F3E43354300954568034E3540009E2A
:1059900035434560F8BD0000C00000FF014648687F
:1059A0008206920E302010400009000113071B0FE1
:1059B00018437047014648681F231B0218400246DF
:1059C000012000031040000B00010F231B021340B5
:1059D0001B0A1843704701464868072252031040CB
:1059E000400B704701464868FF231B0418400246DD
:1059F0000F2000051040000D00010F231B04134071
:105A00001B0C18437047F7B584B00D4614460120AF
:105A10000390002D09D1607810210840102804D18E
:105A20006078EF2108400A306070002D00D100E05E
:105A300000BF049800F089F8049800F091F801285C
:105A400043D0002D08D0E07800906378A2782178C8
:105A50000498FFF781FF29E0E0780A21FAF74AFB72
:105A60000701E0780A21FAF745FB0F43FEB26078A0
:105A70000A21FAF73FFB070160780A21FAF73AFB9F
:105A80000F43F8B20290A0780A21FAF733FB07011E
:105A9000A0780A21FAF72EFB0F43F8B20096019086
:105AA00021780246029B0498FFF756FF049800F005
:105AB00043F8049800F08FF8002804D1049800F00F
:105AC0001FF9039001E000200390049800F045F8CE
:105AD000039807B0F0BD000070B5044601252046CC
