:020000040000FA
:10000000880F0020AD0000006D3E000009350000A3
:10001000FFFFFFFFFFFFFFFFFFFFFFFFFFFFFFFFF0
:10002000FFFFFFFFFFFFFFFFFFFFFFFFA1420000F9
:10003000FFFFFFFFFFFFFFFFC53F00000D43000074
:1000400021010000DD40000021010000D12D000051
:10005000592E0000210100009D2E0000FFFFFFFF30
:10006000CD0B0000FFFFFFFF21010000FFFFFFFF9E
:1000700021010000210100002101000021010000F8
:1000800021010000192600002101000021010000CB
:10009000210100002101000021010000354600007F
:1000A000FFFFFFFF21010000ED4500001D488047D4
:1000B0001D4880471D4800471D480169002908D197
:1000C0004169002905D18169002902D1C16900294E
:1000D00009D01848C1680901090D00290ED0052969
:1000E0000CD006290AD0BFF34F8F13481349016083
:1000F00013491248C860BFF34F8FFEE70E480168EE
:100100000E48884200D070470E480F4901600A48E7
:100110000E4901607047FEE7FEE7FEE7FEE7FEE7F7
:10012000FEE70000B90000006D430000510100002F
:100130000003084080010840000000200400FA0588
:1001400000ED00E000810840010000000000000018
:100150000448854600F0ECFC00480047B961000007
:10016000C046C046880F002030B50B46014600202F
:100170002022012409E00D46D5409D4205D31D46AD
:100180009540491B2546954040191546521E002DA5
:10019000F1DC30BD03460B439B0703D009E008C9DF
:1001A000121F08C0042AFAD203E00B780370401C27
:1001B000491C521EF9D27047D2B201E00270401CB5
:1001C000491EFBD270470022F6E710B513460A46D7
:1001D00004461946FFF7F0FF204610BD30B505462E
:1001E0002A460B4610781C78521C5B1C002801D054
:1001F000A042F7D0002C03D0002802D06D1CEFE7FE
:10020000284630BD421C0178401C0029FBD1801AD1
:10021000704730B504460020034600E05B1C934263
:1002200003D2E05CCD5C401BF8D030BD70B5104D02
:10023000002800D12868002414E00A4602E09E420B
:1002400003D0521C1378002BF9D1DAB2224307D025
:10025000002B06D0002C04D000210170401C04E0CB
:100260000446401C0678002EE7D12860204670BD69
:100270009C000020F8B502464A40D40F42004B00D3
:1002800052085B089A4202D20246084611464A00CA
:1002900023D0C30D4A00DDB2120EAD1A202D35DA7F
:1002A00049020126490AF6058A19002C00D052425B
:1002B00020214F1B1146B9402A411018C20D9A4205
:1002C00021D0002C17D0012D08DCDA05801AD20FBE
:1002D0008019D207DBB200F0FCFAF8BDDA05801A0B
:1002E000012340001B06C01880185A428018CA0F0C
:1002F0001043490007E04908C2071143DA05801A94
:1003000080194008801800F0DCFAF8BD6100012275
:10031000511A001BF7E70122D2075140AAE7012238
:10032000D2075040A6E7024670B54A40D30FDB071C
:1003300040002DD04A002AD0010E140E00021202F5
:100340000919400A520A8418E50104465443000A78
:10035000120A2E045043A4194219200CC543AA18AE
:10036000120C0125AD03521C521912047F392404CA
:1003700000D0521C104301D44000491EC2B20C06EA
:10038000C0092018401C4008802A02D003E0002049
:1003900070BD40084000002900DA0020184370BDFD
:1003A00070B502464A40D50F40004A00ED074008AC
:1003B0005208002814D0002A12D0C40DD30D4102D7
:1003C0000120C0055202490A520AE41A09181218FB
:1003D0007D34914201D3641C00E04900002C01DA15
:1003E000002070BD0023914201D3891A03434008C5
:1003F00049000028F7D100290AD0914202D10121F9
:10040000C90705E0914201D2012101E00121C94360
:10041000E005C018401900F054FA70BDF0B5074669
:100420000846584087B0C00F049048000E46590057
:1004300040084908BC1A884105D2384631461E4654
:1004400017460B4602465800400810434DD0300D69
:10045000039040055900400D490D0590401A029047
:10046000402873DA18030121000B090508430190A5
:1004700004980092002806D01146019A49420020B3
:10048000904100910190029840210A1A0199009828
:1004900000F0F4F905460C466B4607CB00F0FEF978
:1004A000C0197141039A0E0D0023D71756401A4602
:1004B0007A40164344D0049A002A2DD0029A012A89
:1004C000039A15DC1205C01A914101263605001C5D
:1004D0007141D20F059ED2070093019202962A46DF
:1004E000234600F03CFA07B0F0BD38463146FAE743
:1004F0001605234A0F46B218C01AB7410121090553
:10050000001C4F4100187F41114618187941E20F35
:1005100010436D19644113E0E2076D081543640848
:10052000C2071443039A01261205C01A91413605E9
:10053000001C7141CE07400830434908C0185141A2
:100540002A46234600F0FEF9CDE7FFE70498012292
:100550004000C117121A00238B4104983146C4177A
:10056000381AA141EEE730B40124E407634030BCFF
:1005700054E730B40124E407614030BC4EE700008A
:100580000000E0FFF0B51FB488B00B990998002473
:1005900048400999C00F490049080991C0070B99C3
:1005A0000090490049080B9109990898A64608430C
:1005B0001CD00B990A98084318D0099801244000D0
:1005C000420D4800410D099824050003000B20430B
:1005D00009900B980003000B20430B9050181C4906
:1005E0004018002201901446104605E00020014604
:1005F0000DB0F0BD032801DA034600E003239C465A
:10060000C11A0AAE0AE05F0008ADED5B4F00F75B70
:100610007D430027AA187C41491C5B1E6145F2DD21
:10062000410004AB5A522104120C0A43240C401C12
:100630000828DFDB01980290009970460191009034
:10064000059B049A0799069800F089F9D0E7000005
:100650000DFCFFFFF0B50C465C4085B0E40FE407ED
:1006600003944C0000266408590094464908024649
:100670000296224321D062460A431ED06200570DE3
:100680004A000E032303550D012402462C4924057C
:10069000781B1B0B360B4018234326436146009002
:1006A0001C46501AB44103D30098401C009002E04D
:1006B000921800985B41002803DA0020014605B03B
:1006C000F0BD0020012109050746864611E0644679
:1006D0001D46141BB54106D36546521BB3417446F3
:1006E00007430C43A646CD07400849082843921803
:1006F0005B4105460D43EAD11046184313D06046CE
:10070000194650407140084306D06046101AB34164
:1007100006D20122002306E000220123DB0702E0CB
:100720000122D2435310009874460105381C6141E0
:10073000029C039D0019694100F004F9BFE7000025
:10074000FD0300000EB505490291002100910A4603
:100750000B46019100F003F903B000BD3304000023
:10076000C20F410040020123400ADB05D207090EF7
:10077000C0187F2901DA00207047962903DC9623F0
:10078000591AC84001E096398840002AF4D0404206
:100790007047C20FD207400040080BD0C10D07239D
:1007A000DB01C91840020905400A1143C20840078D
:1007B00011437047002001467047CB0FDB0749000B
:1007C00010B5490802460A4307D00A0D0724090359
:1007D000E401090B121B002A01DC002010BDC90036
:1007E000440F0C43C100E018D205801800F069F8EE
:1007F00010BD00000122D207002800DB101A0029DA
:1008000000DB511A814270470122D207002800DB29
:10081000101A002900DB511A88427047F0B51FB446
:100820000646002082B005464024019100901BE05E
:10083000019922460F46304600F08CF9049A059B38
:10084000801A994110D310461946224600F016F836
:10085000361A8F410197224601200021009F00F0A7
:100860000DF838184D4100902046641E0028DFDC4A
:10087000019B00982946324607B0F0BD10B5202AEA
:1008800004DB0146203A9140002010BD9140202316
:100890009C1A0346E3401943904010BD10B5202A2E
:1008A00006DBCB170846203A1041C1170B4306E080
:1008B0000B461341D0402024A21A91400843194608
:1008C00010BD002904DA401C490001D14008400055
:1008D000704770B40024050C05D11024000402D127
:1008E000002921D01124050E01D100020834050F82
:1008F00001D10001241D850F01D18000A41C002816
:1009000001DB4000641C002908D020252E1B0D4669
:10091000F540A14000D001212943084301061B1BDB
:10092000000ADB1D02D5002070BC7047DB051818DB
:1009300080180029F8DA401C4900F5D170BC400845
:100940004000704710B5002B08DA0024401C6141BC
:1009500092185B411A4301D14008400010BDF0B528
:100960001FB482B005460C0003D0084603F032FFE6
:1009700002E003F02FFF2030024600902146284677
:10098000FFF77CFF049B059A04460F46184311436A
:10099000084314D0184610431BD0009840210A1A6F
:1009A0001846059900F0D6F805460E46009A0599B6
:1009B0000498FFF763FF084305D0012004E02046B8
:1009C000394607B0F0BD0020C11705430E432C4344
:1009D000374300990E986305401A7905E40A00220E
:1009E0000C43FD0A0A3002D500200146E9E7010563
:1009F000101969410C9C0D9D00196941FFF7A2FF78
:100A0000DFE770B54B005B0803430BD04B005C0D78
:100A1000002633466542B341D417AD1AA34102DB29
:100A20000020014670BD12053018514170BD000014
:100A30000EB5C217C10F5040CA0740180021054B20
:100A40000293019200910A460B46FFF788FF03B01C
:100A500000BD00003304000070B5CD0F4A0009034B
:100A60000123090B1B0519430B4BED070024520D05
:100A70009A4201DA002070BD074B34339A4203DCFE
:100A80009A1A00F067F802E00449511888402C4394
:100A9000F1D0404270BD0000FF030000CDFBFFFF1E
:100AA0004A0009030123090B1B0519430A4B10B522
:100AB000520D9A4202DA0020014610BD064B343333
:100AC0009A4203DC9A1A00F045F810BD034BD21885
:100AD000FFF7D4FE10BD0000FF030000CDFBFFFFB9
:100AE00010B5002904DB0124E40740428C41214673
:100AF000002B04DB1C460123DB075242A3418B423F
:100B000000D1824210BD000010B5002904DB012491
:100B1000E40740428C412146002B04DB1C460123A4
:100B2000DB075242A341994200D1904210BD000020
:100B3000064C0125064E05E0E36807CC2B430C3C30
:100B400098471034B442F7D3FFF706FB8C680000D7
:100B5000AC68000010B5202A04DB0846203AD040DB
:100B6000002110BD0B46D340D0402024A21A914052
:100B70000843194610BD8C2211507047002904D03B
:100B8000026880231A43026003E0026880239A43CC
:100B9000026070473EB5044600200090019002902C
:100BA00001210906029888434018029001236846F3
:100BB00007C803F009FA3EBD024688239B580B4044
:100BC000002B01D0012000E00020704710B501216A
:100BD0000648FFF7F1FF012806D101210348FFF77E
:100BE000CAFF01200249087010BD0000000001404A
:100BF0004A00002010B5002A05D080231B580B4363
:100C00008024235004E080231B588B4380242350EE
:100C100010BD00007FB500206A4908700190029065
:100C200003900121890302988843401802908902A9
:100C3000039888434018039009120198884340188C
:100C4000019049000198884340180190012301A8B0
:100C500007C801F0F3FD01224021104600F044F9DD
:100C600002224021584802F0D1FA01224021564880
:100C700002F0B8FA01224021534802F0F2FA0A20A9
:100C800004F042FC02220121002000F02DF906218F
:100C9000102001F0F3FD0023012219464B4800F01B
:100CA000D8F82421494800F0F0F82423002202213A
:100CB000464800F0B3F80121444800F0DAF8012278
:100CC00011464248FFF796FF082001218140404A23
:100CD000116000BF01213D48FFF750FF01213B4853
:100CE00000F0D5F800BF374800780028FBD037481F
:100CF000006B0405240D204604F0B2FB3549486022
:100D000035A136A002F008FC32494868FFF741FDE2
:100D100005462A460B4633A0009402F0FDFB2D4900
:100D200048683B49FFF770FD13D22A480078C00994
:100D300000280ED1274800784021884340302549BB
:100D40000870084600788021884380302149087067
:100D500017E0204948682F49FFF74CFD11D21D4884
:100D60000078C00900280CD01A4800784021884338
:100D7000403018490870084600788021884315499A
:100D80000870124800F07CF81048FFF703FF0022BB
:100D900040210D4802F065FA01221146002000F0C2
:100DA000A3F8022201211C4802F030FA002201219E
:100DB000194802F056FA01221146174802F012FAB9
:100DC0007FBD00004A00002000200B4000000140D1
:100DD00000E100E0A40C00204C4F47000A5B2573A3
:100DE0005D000000436F76657274204E746320547A
:100DF000656D706572617475726520252E3266436B
:100E00002C204144432056616C7565202564000008
:100E100000005C420000484200000B4070B50C46E8
:100E20009510AE00051DA9599507EE0E1F25B5407A
:100E30002B460D469D4329469507EE0E2546B540A7
:100E40002B460D461D4329469510AD00061D7151D8
:100E500070BD70B5032900D100BF5C1E2404551E6F
:100E60002D022C430C430568802635402C4304603A
:100E700070BDCA06D20E02674A0952014267704726
:100E800001684022114301607047016270470029E8
:100E900004D0426F01231A43426703E0426F5208B5
:100EA000520042677047000030B50A460023002117
:100EB000072803DD01230446083CE0B29C00094DED
:100EC0006419216885000F24AC400D46A5432946CE
:100ED00085001446AC4021439C00024D64192160FA
:100EE00030BD000000200240F7B50B46009DED002C
:100EF000154EAA19002000240027002120E000241C
:100F00000027FF258D401D40002D17D000200FE049
:100F10001D46C54001268E403540002D07D0860075
:100F20000F25B5402C438600029DB5402F43401C41
:100F30000828EDD31568A5433D431560121D0831FF
:100F40000829DCDDFEBD000020200240F7B582B09C
:100F50000E46144600276420019004F0B7FD0028D7
:100F600009D13CA13DA002F0D7FA3EA002F0D4FA8C
:100F7000002005B0F0BD04F0DFFD002808D135A148
:100F800036A002F0C9FA3CA002F0C6FA0020F0E751
:100F9000FF21F5313E48FFF716F900203D49488012
:100FA00003F0CEFB029802F0A7FE3BA002F0A4FEE5
:100FB000374D3AA12046FFF711F9002805D13AA193
:100FC0002046FFF70BF9002800D0ED1D32E021A1EB
:100FD0002846FFF703F9002809D01EA11FA002F040
:100FE0009BFA34A0029902F097FA0020C1E737A1DA
:100FF0002846FFF7F3F8002809D016A117A002F041
:101000008BFA35A0029902F087FA0020B1E7019827
:101010007843B04209DD37A110A002F07DFA37A075
:10102000029902F079FA0220A3E7019802F05EFE2D
:10103000781C87B221462846FFF7D0F80028C6D092
:1010400035A106A002F068FA34A0029902F064FA11
:1010500001208EE74552524F520000000A5B257373
:101060005D0000004C6F526157414E204D6F64652A
:10107000204552524F4521004C6F526157414E203E
:10108000537461747573204552524F45210000001E
:1010900072010020640300200D0A00002B4C494E11
:1010A0004B20494E464F3A002B52544320494E465E
:1010B0004F3A00002225732220617420636D642062
:1010C00065786563206572726F720000424144204A
:1010D0005041524D000000002225732220617420EF
:1010E000636D64206578656320626164207061725D
:1010F0006D0000005741524E00000000222573226F
:1011000020617420636D6420657865632074696D67
:10111000656F7574000000004C4F47002225732254
:1011200020617420636D6420657865632073756346
:101130006365737300000000F0B587B000255FE0C1
:1011400031A2324932A0FFF701FF012852D133A169
:1011500033A002F0E1F934A13648FFF73FF8074623
:10116000394635A002F0D8F978213448FFF72BF83A
:101170002DA13048FFF732F80646002006900024E3
:1011800006AB2E4A2EA1304604F03BF90AE0611C62
:1011900089002A4B5A582B4908190223012104F0CF
:1011A000B9F8641C0699481E06900029EFD11BA1CE
:1011B0001BA002F0B1F923480B38807C21490B3980
:1011C000497C204A0B3A127C1E4B0B3BDB7B019384
:1011D0000292039104901B480B38807B00901948C1
:1011E0000B38437B027BC17A17A002F095F90120EE
:1011F00007B0F0BD681C85B27D20C00002F076FD0E
:10120000032D9DDB0020F3E74F4B0000DC050000C1
:1012100041542B4150504555493F00004C4F470029
:101220000A5B25735D0000002B4150504555493A3B
:10123000000000007201002025730000100D002046
:1012400020000000C30C00204150504555493A2071
:10125000253032782025303278202530327820250C
:1012600030327820253032782025303278202530F1
:101270003278202530327800F0B58FB0002578E044
:101280003EA23F493FA0FFF761FE01286BD140A17C
:1012900040A002F041F941A14348FEF79FFF0746F5
:1012A000394642A002F038F978214148FEF78BFF19
:1012B0003AA13D48FEF792FF064600200E9000241A
:1012C0000EAB3B4A3BA1304604F09BF80AE0611CA0
:1012D0008900374B5A58384908190223012104F074
:1012E00019F8641C0E99481E0E900029EFD128A110
:1012F00028A002F011F93048C07B2F49897B2E4A83
:10130000527B2D4B133BDB7F09930A920B910C9080
:1013100029481338807F284913394A7F097F264B93
:10132000133BDB7E05930792069108902248133801
:10133000827E407E20491339097E1F4B133BDB7DA3
:1013400001930492029103901B481338807D009012
:1013500019481338437D027DC17C184802F0DCF83F
:1013600001200FB0F0BD681C85B27D20C00002F0E6
:10137000BDFC032D84DB0020F3E700004F4B000091
:10138000DC05000041542B4150504B45593F0000B3
:101390004C4F47000A5B25735D0000002B41505005
:1013A0004B45593A000000007201002025730000EF
:1013B000100D002020000000CB0C00207C670000F6
:1013C000F0B58FB0002571E03AA23B493BA0FFF792
:1013D000BDFD012864D13CA13CA002F09DF83DA1D7
:1013E0003F48FEF7FBFE074639463EA002F094F860
:1013F00078213D48FEF7E7FE36A13948FEF7EEFEBC
:10140000064600200E9000240EAB374A37A1304626
:1014100003F0F7FF0AE0611C8900334B5A58344946
:1014200008190223012103F075FF641C0E99481E60
:101430000E900029EFD124A124A002F06DF82C48D1
:10144000C07B2B49897B2A4A527B294B1B7B099302
:101450000A920B910C902648C07A2549897A244A31
:10146000527A234B1B7A05930692079108902048E5
:10147000C17980791E4A52791D4B1B7901930292E2
:10148000049103901A48C0780090194883784278F4
:10149000C01FC179174802F03FF801200FB0F0BD1E
:1014A000681C85B27D20C00002F020FC032D8BDB80
:1014B0000020F3E74F4B0000DC05000041542B41B6
:1014C0005050534B45593F004C4F47000A5B257322
:1014D0005D0000002B415050534B45593A0000002D
:1014E0007201002025730000100D00202000000074
:1014F000DF0C00203068000070B500241BE010A253
:10150000104911A0FFF722FD01280ED111A112A050
:1015100002F002F812A11448FEF760FE05462946C3
:1015200012A001F0F9FF012070BD601C84B27D2083
:10153000C00002F0DBFB032CE1DB0020F4E700003D
:101540004F4B0000DC05000041542B42414E443F0C
:10155000000000004C4F47000A5B25735D0000004F
:101560002B42414E44000000720100202573000010
:1015700070B500241BE010A2104911A0FFF7E6FC93
:1015800001280ED111A112A001F0C6FF12A114482A
:10159000FEF724FE0546294612A001F0BDFF0120FA
:1015A00070BD601C84B27D20C00002F09FFB032C44
:1015B000E1DB0020F4E700004F4B0000DC050000F9
:1015C00041542B434C4153533F0000004C4F4700C4
:1015D0000A5B25735D0000002B434C4153533A00D6
:1015E000720100202573000070B500241BE010A2DA
:1015F000104911A0FFF7AAFC01280ED111A112A0D9
:1016000001F08AFF12A11548FEF7E8FD05462946BC
:1016100013A001F081FF012070BD601C84B27D2009
:10162000C00002F063FB032CE1DB0020F4E70000C4
:101630004F4B0000DC05000041542B434F4E464900
:10164000524D3F004C4F47000A5B25735D00000080
:101650002B434F4E4649524D3A0000007201002084
:1016600025730000FEB500254DE029A229492AA0D6
:10167000FFF76CFC012840D12AA12BA001F04CFF00
:101680002BA12E48FEF7AAFD074639462CA001F0F3
:1016900043FF78212B48FEF796FD25A12748FEF74A
:1016A0009DFD064600200190002401AB254A26A19D
:1016B000304603F0A6FE0AE0611C8900214B5A580F
:1016C000224908190223012103F024FE641C019918
:1016D000481E01900029EFD112A113A001F01CFFB8
:1016E0001A48C0780090194883784278C01EC178A3
:1016F00017A001F011FF0120FEBD681C85B27D20FE
:10170000C00002F0F3FA032DAFDB0020F4E7000085
:101710004F4B0000DC05000041542B44455641442A
:1017200044523F004C4F47000A5B25735D000000A8
:101730002B444556414444523A00000072010020B7
:1017400025730000100D002020000000DB0C00209D
:10175000444556414444523A2025303278202530C1
:101760003278202530327820253032780000000091
:10177000F0B587B000255FE031A2344934A0FFF70F
:10178000E5FB012852D135A135A001F0C5FE2CA101
:101790003548FEF723FD0746394634A001F0BCFE6C
:1017A00078213348FEF70FFD25A12F48FEF716FDDF
:1017B000064600200690002406AB2D4A2DA1304697
:1017C00003F01FFE0AE0611C8900294B5A582A4980
:1017D00008190223012103F09DFD641C0699481E8F
:1017E00006900029EFD11DA11DA001F095FE224811
:1017F000C01E807A2049C91E497A1F4AD21E127A19
:101800001D4BDB1EDB7901930292039104901A4871
:10181000C01E807900901848C01E43790279C178B3
:1018200016A001F079FE012007B0F0BD681C85B25A
:101830007D20C00002F05AFA032D9DDB0020F3E763
:101840002B4445564555493A00000000DC05000090
:1018500041542B4445564555493F00004C4F4700E5
:101860000A5B25735D0000007201002025730000F3
:10187000100D002020000000BB0C002044657645C0
:1018800055493A20253032782025303278202530CD
:1018900032782025303278202530327820253032B9
:1018A00078202530327820253032780070B5002439
:1018B0001BE010A2104911A0FFF748FB01280ED130
:1018C00012A113A001F028FE13A11648FEF786FC12
:1018D0000546294614A001F01FFE012070BD601CC2
:1018E00084B27D20C00002F001FA032CE1DB00206D
:1018F000F4E700004F4B0000DC05000041542B448E
:10190000415441524154453F000000004C4F4700B4
:101910000A5B25735D0000002B4441544152415441
:10192000453A0000720100202573000070B50024C4
:101930001BE010A2104911A0FFF708FB01280ED1EF
:1019400011A112A001F0E8FD12A11448FEF746FC17
:101950000546294612A001F0DFFD012070BD601C84
:1019600084B27D20C00002F0C1F9032CE1DB00202D
:10197000F4E700004F4B0000DC05000041542B460B
:101980005245513F000000004C4F47000A5B257351
:101990005D0000002B465245513A000072010020C4
:1019A00025730000F0B58FB0002571E03AA23B49E5
:1019B0003BA0FFF7CBFA012864D13CA13CA001F089
:1019C000ABFD3DA13F48FEF709FC074639463EA066
:1019D00001F0A2FD78213D48FEF7F5FB36A139481C
:1019E000FEF7FCFB064600200E9000240EAB374AA3
:1019F00037A1304603F005FD0AE0611C8900334B36
:101A00005A58344908190223012103F083FC641C4D
:101A10000E99481E0E900029EFD124A124A001F0B8
:101A20007BFD2C48C07B2B49897B2A4A527B294B62
:101A30001B7B09930A920B910C902648C07A25498A
:101A4000897A244A527A234B1B7A0593069207918E
:101A500008902048C17980791E4A52791D4B1B7924
:101A600001930292049103901A48C078009019489B
:101A7000837842781738C17D174801F04DFD012069
:101A80000FB0F0BD681C85B27D20C00002F02EF9B9
:101A9000032D8BDB0020F3E74F4B0000DC0500003B
:101AA00041542B4E574B534B45593F004C4F470029
:101AB0000A5B25735D0000002B4E574B534B455975
:101AC0003A0000007201002025730000100D002074
:101AD00020000000EF0C0020D467000070B5002447
:101AE0001BE010A2104911A0FFF730FA01280ED117
:101AF00011A112A001F010FD12A11448FEF76EFB17
:101B00000546294612A001F007FD012070BD601CAA
:101B100084B27D20C00002F0E9F8032CE1DB002054
:101B2000F4E700004F4B0000DC05000041542B504F
:101B30004F52543F000000004C4F47000A5B257392
:101B40005D0000002B504F52543A000072010020FB
:101B50002573000070B500241BE010A2104911A0ED
:101B6000FFF7F4F901280ED110A111A001F0D4FC67
:101B700011A11348FEF732FB0546294611A001F0DA
:101B8000CBFC012070BD601C84B27D20C00002F03F
:101B9000ADF8032CE1DB0020F4E700004F4B000020
:101BA000DC05000041542B5258323F004C4F470097
:101BB0000A5B25735D0000002B5258323A0000008A
:101BC000720100202573000070B500241BE010A2F4
:101BD000114912A0FFF7BAF901280ED111A112A0E4
:101BE00001F09AFC0AA11248FEF7F8FA05462946C8
:101BF00010A001F091FC012070BD601C84B27D201A
:101C0000C00002F073F8032CE1DB0020F4E70000D1
:101C10002B56455200000000DC05000041542B56B5
:101C200045523F004C4F47000A5B25735D000000A2
:101C3000720100202573000010B5002419E00FA2E6
:101C40000F4910A0FFF782F901280CD11048007845
:101C5000400840000E49087000BF03F013FF002841
:101C6000FBD0012010BD601C84B27D20C00002F0BA
:101C70003DF8032CE3DB0020F4E700004F4B0000AD
:101C8000DC05000041542B464143544F525900009B
:101C9000B80C002010B500240DE009A209490AA0E3
:101CA000FFF754F9012800D110BD601C84B27D20DB
:101CB000C00002F01BF8032CEFDB0020F4E700006B
:101CC0004F4B0000DC05000041542B5341564500AA
:101CD00010B590B00024242218A107A8FEF75AFAE4
:101CE0001F48807C1E49497C1D4A127C1C4BDB7BB3
:101CF00002930392049105901948807B1849497B0F
:101D0000009101901648037BC27A16A107A802F041
:101D10003BFD0EE020A2214907A8FFF717F9012893
:101D200001D110B010BD601C84B27D20C00001F054
:101D3000DDFF032CEEDB0020F3E7000041542B41D4
:101D400050504555493D20464620464620464520B0
:101D50003030203030203030203030203031000022
:101D6000B80C002041542B4150504555493D202589
:101D700030327820253032782025303278202530D6
:101D800032782025303278202530327820253032C4
:101D900078202530327800004F4B0000DC05000031
:101DA00010B59EB00024402227A10EA8FEF7F2F93C
:101DB0003548C07B3449897B334A527B324B133BD5
:101DC000DB7F0A930B920C910D902F481338827F82
:101DD000417F007F2C4B133BDB7E069307AB07C391
:101DE00029481338807E28491339497E264A133AF8
:101DF000127E254B133BDB7D0293039204910590E9
:101E000021481338807D20491339497D0091019084
:101E10001D481338037DC27C1C490EA802F0B4FC97
:101E20000EE01BA21B490EA8FFF790F8012801D174
:101E30001EB010BD601C84B27D20C00001F056FFB2
:101E4000032CEEDB0020F3E741542B4150504B456F
:101E5000593D20324220374520313520313620325D
:101E60003820414520443220413620414220463727
:101E70002031352038382030392043462034462060
:101E800033432C3000000000CB0C00201C67000006
:101E90004F4B0000DC0500003EB5044600252246FD
:101EA0000BA1684602F070FC0DE00CA20C496846DC
:101EB000FFF74CF8012800D13EBD681C85B27D209B
:101EC000C00001F013FF032DEFDB0020F4E700005A
:101ED00041542B42414E443D256400004F4B0000CD
:101EE000C40900003EB5044600250EA207CA6B4691
:101EF00007C322460EA1684602F046FC0DE00FA281
:101F00000F496846FFF722F8012800D13EBD681C42
:101F100085B27D20C00001F0E9FE032DEFDB00203B
:101F2000F4E7000041542B434C4153533D30000033
:101F300041542B434C4153533D2564004F4B00000B
:101F4000DC0500007FB504460D4600260FA30FCB2D
:101F500003936B4607C32B46224610A1684602F046
:101F600013FC0EE012A213496846FEF7EFFF0128AA
:101F700001D104B070BD701C86B27D20C00001F09C
:101F8000B5FE032EEEDB0020F3E7000041542B43A7
:101F90004F4E4649524D3D312C33000041542B43A6
:101FA0004F4E4649524D3D25642C256400000000EB
:101FB0004F4B0000DC05000010B500240DE009A225
:101FC00009490AA0FEF7C2FF012800D110BD601C1C
:101FD00084B27D20C00001F089FE032CEFDB0020DD
:101FE000F4E700004F4B0000DC05000041542B4A91
:101FF0004F494E3D312C312C31322C313000000014
:1020000010B500240DE009A209490AA0FEF79EFFC1
:10201000012800D110BD601C84B27D20C00001F0F9
:1020200065FE032CEFDB0020F4E700004F4B0000BF
:10203000DC05000041542B4F5441413D312C300010
:102040003EB5044600250EA207CA6B4607C32246CA
:102050000EA1684602F098FB0DE010A210496846F8
:10206000FEF774FF012800D13EBD681C85B27D20BB
:10207000C00001F03BFE032DEFDB0020F4E7000081
:1020800041542B504F52543D3230000041542B509C
:102090004F52543D25303278000000004F4B000075
:1020A000DC05000010B52FA001F036FA3DA001F0CC
:1020B00033FA4CA001F030FA03220E2159A001F0AE
:1020C0002BFA012167480172FF202D3066490882F2
:1020D00002F018F9FEF79EFD0121644801F0AFF807
:1020E00000280DD060484078022188435E4948703E
:1020F0005FA161A001F010FA61A001F00DFA0DE0FE
:102100005948407802218843801C5749487058A19B
:1021100059A001F001FA5FA001F0FEF940216248E8
:1021200001F08DF800280DD04F4800782021884319
:102130004D4908705DA150A001F0EEF95CA001F0DE
:10214000EBF90DE0484800782021884320304649CB
:10215000087056A148A001F0DFF95BA001F0DCF99E
:1021600010BD00000A2A2A2A2A2A2A2A2A2A2A2ACA
:102170002A2A2A2A2A2A2A2A2A2A2A2A2A2A2A2ABF
:102180002A2A2A2A2A2A2A2A2A2A2A2A2A2A2A2AAF
:102190002A2A2A2A2A2A2A2A2A2A2A2A2A2A2A2A9F
:1021A0002A0A00002A2A2A2A2A2A2A2A2A2A2A2A03
:1021B0002A2A2A2A2A2A2A2A2A2A2A2A2A2A2A2A7F
:1021C0002A2A2A2A2A2A2A2A2A2A2A2A2A2A2A2A6F
:1021D0002A2A2A2A2A2A2A2A2A2A2A2A2A2A2A2A5F
:1021E0000A0000002A2A2A2A2A2A2A2A2A2A2A2AED
:1021F0002A2A2A20484B54203A20536D6F6B6520C1
:10220000416C61726D202A2A2A2A2A2A2A2A2A2A1D
:102210002A2A2A2A2A2A2A2A2A2A2A2A2A2A2A0A3E
:10222000000000002A2A2A2A2A2A2A2A2048415263
:1022300044574152455F5645523A20307825303256
:1022400078202C534F4654574152455F5645523AD9
:1022500020307825303278202A2A2A2A2A2A2A2A47
:102260000A000000F80C0020A40C002000400B40E5
:102270005741524E000000000A5B25735D000000CC
:10228000536D6F6B652044697354616D7065722185
:1022900021212100536D6F6B652054616D70657253
:1022A000212121210000000000000B404C4F47007D
:1022B000536D6F6B652042617474657279204C6F49
:1022C0007721212121000000536D6F6B6520426151
:1022D0007474657279204E6F726D616C21212121B9
:1022E0000000000000B587B0002004900590069023
:1022F00001900290039001218903059888434018BA
:102300000590890004988843401804904900049877
:10231000884340180490490004988843401804906A
:10232000C9100598884340180590012304A807C8E0
:1023300000F084FA012240211046FEF7D5FD02226A
:1023400040219C4800F062FF00224021994800F0A3
:1023500088FF01224021974800F044FF012280219C
:102360000020FEF7C1FD02228021934800F04EFFBD
:1023700000228021904800F035FF012280218E4804
:1023800000F03AFF012240210020FEF7ADFD0222BD
:102390004021894800F03AFF00224021864800F0A1
:1023A00021FF01224021844800F026FF0122022162
:1023B0000020FEF799FD022211467F4800F026FF1B
:1023C000002202217C4800F00DFF012202217A4800
:1023D00000F012FF012211460220FEF785FD0222C5
:1023E0000121764800F012FF00220121734800F01D
:1023F000F9FE01221146714800F0FEFE7D20C0006A
:1024000003F078F800210720FEF74EFD0720019029
:10241000012168460172032141810421017301A851
:1024200000F08EFD0121072000F09AFD002106201A
:10243000FEF73AFD06200190012168460172032152
:102440004181017301A800F07BFD0121062000F00D
:1024500087FD00210120FEF727FD012001900121C9
:1024600068460172032141810421017301A800F033
:1024700067FD0121084600F073FD02210020FEF7F0
:1024800013FD002001900121684601720321418162
:102490000421017301A800F053FD0121002000F088
:1024A0005FFD042001F0EEFC062001F0EBFC0021B2
:1024B0000720FEF7F9FC00210620FEF7F5FC0021BD
:1024C0000120FEF7F1FC02210020FEF7EDFC0F21B8
:1024D000032001F0E1FC032001F0D4FC012000F016
:1024E00079FD012210211046FEF7FEFC0222102188
:1024F000304800F08BFE002210212E4800F0B1FE83
:10250000012210212B4800F06DFE012291030020D2
:10251000FEF7EAFC02225103274800F077FE002272
:1025200001218903244800F09CFE012291032248E6
:1025300000F058FE0122D1030020FEF7D5FC022254
:1025400091031D4800F062FE00220121C9031A48D0
:1025500000F087FE0122D103174800F043FE01225C
:1025600008211046FEF7C0FC02220821114800F0A5
:102570004DFE002208210F4800F034FE0122082100
:102580000C4800F039FE012204211046FEF7ACFC95
:1025900002220421074800F039FE002204210548E8
:1025A00000F020FE01220421024800F025FE07B0C1
:1025B00000BD000000200B4000000B4000400B401D
:1025C0000EB50020009001900290012109040298AC
:1025D0008843401802900123684607C800F02EF98E
:1025E0007D2189010A4800F040F80021084800F0E8
:1025F0003EF80121064800F02CF80121044800F0C3
:102600001CF8112001218140024A116000BF0EBD5B
:102610000060074000E100E010B5034800F006F854
:1026200001F064FF10BD00000060074041684908E8
:1026300049004160BFF34F8F7047002904D0026802
:1026400004231A43026003E0026804239A430260F1
:102650007047002904D0026801231A43026003E096
:1026600002685208520002607047C1607047816082
:10267000704700000146044880680840002801D0E7
:10268000012070470020FCE70080084070B5044638
:102690001F48406B4607760F00F03EF8206033007D
:1026A00002F0AFF8081605080B16160E1216206871
:1026B000606010E0174860600DE0164860600AE056
:1026C0000120C003606006E07D200002606002E03F
:1026D0000020606000BF00BF0D48056A052D02D3D1
:1026E0006068400901E06068E840A0600848806ACE
:1026F000072109040840050C072D04D10321A06817
:10270000FDF732FD01E0A068E840E06070BD000028
:102710000080084000127A00F0B517480068FF27D3
:1027200001373840040A1448C069C50F1248406890
:102730007F003840460A002E01D10020F0BD002C59
:1027400001D10E4800E00D480346012D01D1184685
:10275000F4E7094880690F27FF053840C10D0029BB
:1027600000D110210448806903277F053840420DBD
:1027700018464843D040E1E70080084000127A0044
:102780007FB50446601180000A49461800252E2CAA
:1027900000D10225E406E40E0321A1403068084080
:1027A000E04045196846FFF771FF0298E84004B021
:1027B00070BD0000388008400248406B4007400F61
:1027C0007047000000800840044909686022914376
:1027D00042011143014A11607047000040800840E7
:1027E00007490968490849000143054A1160114633
:1027F00009680222914342001143014A1160704767
:1028000040800840044949680122D2029143C20233
:102810001143014A5160704700800840002905D0EB
:10282000054A52680243044B5A6004E0024A526867
:102830008243014B5A607047008308403FB50E4CFD
:10284000606AE16A226B0446009DAC4320460C4658
:10285000019DAC4321461446029DAC432246002B09
:1028600005D0009C2043019C2143029C2243024C42
:102870006062E16222633FBD00800840054A926ABF
:10288000072383409A430B4683401A43014B9A62C5
:10289000704700000080084000B50146FF2209484B
:1028A0004068C008C0000843064B586005E0FFF7C9
:1028B00083FF884201D1012000BD501E021EF6D1C7
:1028C00000BFF9E700800840F8B505460E461746F8
:1028D000294608A000F020FE002404E0315D0AA093
:1028E00000F01AFE641CBC42F8DB09A000F014FEE4
:1028F000F8BD00000A556172742044617461205B68
:1029000025735D3A00000000202530327800000079
:102910000A00000010B570488089002872D16F4805
:10292000008A0028FAD16E480078C007C00F00283E
:1029300009D06C480078002805D168480078400626
:10294000C00F00280AD066480078C007C00F0028D2
:10295000E4D163484030C079002853D0002003F010
:102960005BFE5E480078082188435C4908700120BE
:1029700000F0C0FA062000F0BDFA072000F0BAFA15
:10298000002000F0B7FA0121574800F058FC002859
:1029900005D001221146002000F0F6FA04E00122E1
:1029A0000021084600F0F0FA0221504800F047FCF0
:1029B000002805D001221146104600F0E5FA04E097
:1029C00001220021104600F0DFFA8021474800F084
:1029D00036FC002805D001221146072000F0D4FA69
:1029E00004E001220021072000F0CEFA40213F48F8
:1029F00000F025FC002806D001221146062000F038
:102A0000C3FA05E066E001220021062000F0BCFACE
:102A1000012000F0DFFA01F093FE35A135A000F0AF
:102A20007BFD3648016836A000F076FD012001F0FC
:102A300083FA01F085FE294800780007C00F0028BE
:102A40000DD026480078082188432449087028A121
:102A500028A000F061FD39A000F05EFD36E01F48BF
:102A60000078C007C00F002807D021A121A000F0E6
:102A700053FD3AA000F050FD28E018480078800788
:102A8000C00F002807D01AA11AA000F045FD3CA0F5
:102A900000F042FD1AE0114800784007C00F0028FE
:102AA00007D013A113A000F037FD3EA000F034FDC5
:102AB0000CE00A480078C006C00F002806D00CA120
:102AC0000CA000F029FD3FA000F026FDFEF7A2F8C3
:102AD00000F0CEFB10BD000064010020A40C00201B
:102AE000B80C00204400002000400B4000000B40C8
:102AF0004C4F47000A5B25735D000000400000203A
:102B00003E3E3E3E3E3E3E3E204465766963652045
:102B1000456E74657220536C6565702C204E657827
:102B2000742057616B652054696D6520256473209E
:102B30003C3C3C3C3C3C3C3C00000000446576692D
:102B400063652057616B652055702046726F6D205C
:102B500045585449205254430000000044657669AA
:102B600063652057616B652055702046726F6D203C
:102B700045585449204441543120494F0000000039
:102B80004465766963652057616B65205570204602
:102B9000726F6D2045585449204441543220494FAA
:102BA000000000004465766963652057616B65200D
:102BB00055702046726F6D20455854492041554547
:102BC00020494F004465766963652057616B652035
:102BD00055702046726F6D20455854492054414D20
:102BE00050455220494F000010B527480078C007D3
:102BF000C00F002846D025488089002842D12448AB
:102C0000007800282AD0002120480181C821C0383E
:102C1000FDF7D9FA64211F48FDF7D5FA1D4C0122B2
:102C20001D491E4803F0D2F91B48027821461B4873
:102C300003F0CCF916480078401E1549087003F0DF
:102C400061FB13480078002807D10121890214484C
:102C5000FDF7B9FA114803F019FA13E011480078AA
:102C60004006C00F00280DD00E4800784021884350
:102C70000C490870084680683C2148430949C860EF
:102C800000F012F810BD0000B80C00206401002014
:102C900044000020400C002045000020240C0020AF
:102CA00024080020A40C002070B53C4D00246421B1
:102CB0002846FDF788FA0020394908702946012086
:102CC00003F028FC04462D193548007800193449D2
:102CD00008702946892003F01DFC04462D19304850
:102CE000007800192E4908702946272003F012FCAD
:102CF00004462D192A4800780019294908702946E8
:102D0000282003F007FC04462D19254800780019F7
:102D1000234908702946092003F0FCFB04462D19BD
:102D20001F48007800191E4908702946842003F0C6
:102D3000F1FB04462D191A4800780019184908704B
:102D40002946862003F0E6FB04462D191448007836
:102D5000001913490870134803F0BEF806461048DE
:102D60000078401C864210DB01220D490D4803F01B
:102D7000C3F90B48027809490A4803F0BDF90A482B
:102D80000078401C0849087006E008A109A000F07E
:102D9000C3FB0AA000F0C0FB70BD0000400C002087
:102DA00045000020240C0020440000204552524FD2
:102DB000520000000A5B25735D0000004C777262D0
:102DC00020416C72656164792046756C6C0000006E
:102DD00010B5012000F0A6F8002809D0012000F06D
:102DE00089F81C48007804218843001D194908709F
:102DF000062000F097F8002809D0062000F07AF8A5
:102E00001448007802218843801C1249087007206A
:102E100000F088F8002809D0072000F06BF80D4872
:102E2000007840084000401C0A490870002000F06B
:102E300079F8002809D0002000F05CF805480078F7
:102E400010218843103003490870002000F0C2F8B8
:102E500010BD0000A40C002010B5012000F054F8B3
:102E6000002809D0012000F03BF80B48007804212D
:102E70008843001D08490870002000F045F800282C
:102E800009D0002000F02CF8034800781021884376
:102E900010300149087010BDA40C002010B50620A8
:102EA00000F032F8002809D0062000F019F80B488D
:102EB000007840084000401C08490870072000F0D6
:102EC00023F8002809D0072000F00AF8034800780A
:102ED00002218843801C0149087010BDA40C002009
:102EE000014601228A401046014A506090607047B6
:102EF0004040024001218140024A9161BFF34F8F5F
:102F000070470000404002400146054840680122E9
:102F10008A401040002801D0012070470020FCE7C3
:102F20004040024001460548806901228A40104025
:102F3000002801D0012070470020FCE740400240FB
:102F40000279D207037A1B071A43C3881A43114632
:102F500002689200014BD218116070470040024095
:102F6000012907D1074A1268012383401A43054B00
:102F70001A6006E0034A1268012383409A43014B1A
:102F80001A6070474040024010B5012A18D100294C
:102F900007D10F4B5B6901248440A3430C4C636150
:102FA00006E00B4B5B69012484402343084C6361BA
:102FB000074B1B69012484402343054C236106E031
:102FC000034B1B6901248440A343014C236110BDC2
:102FD00040400240012806D106490969C207114351
:102FE000044A116105E00349096949004908014A99
:102FF000116170474040024070B50446254628469E
:1030000000F008F80646002E01D0002070BD012017
:10301000FCE7000010B5044603480460082002499C
:10302000C86000F035F810BD0000084030B5044617
:103030000D4604480460456004200249C86000F061
:1030400027F830BD0000084010B52D20400102498E
:10305000886000F087F810BDA40C002001460A4AE1
:1030600010680A4A0240084B1A60084AD21F024000
:103070000A431A601A461268044BDB4303401A43A2
:10308000014B1A607047000000020840EFEFFFFF9D
:10309000174A1848406902231843164B58611420F8
:1030A000186106E0134800690C2318400C2800D171
:1030B00003E01046521E0028F4D100BF0D4881697C
:1030C0008069022398430B4B98610120400408401B
:1030D000002801D00220704702200840002801D0BB
:1030E0000120F8E7002A01D10320F4E70020F2E7ED
:1030F000FFFF0F000000084010B5032080030468A4
:103100000A2C03D32D204001844201D9002C02D186
:103110000848846003E02D2040010649886006A12C
:1031200007A000F0F9F90348816807A000F0F4F95E
:1031300010BD0000A40C0020464C41534800000084
:103140000A5B25735D000000526561642052657062
:103150006F727420496E74657276616C2025646D9F
:10316000696E000070B50E48856803208003FFF784
:1031700043FF0446294603208003FFF757FF04401E
:1031800008A10AA000F0C8F9002C01D009A000E0B5
:103190000AA00246024881680AA000F0BDF970BD8D
:1031A000A40C0020464C4153480000000A5B2573E4
:1031B0005D00000053756363657373004661696C5D
:1031C000000000005772697465205265706F727458
:1031D00020496E74657276616C2025646D696E207D
:1031E00025730000002A03D003680B43036002E04C
:1031F00003688B4303607047002A03D043680B4386
:10320000436002E043688B4343607047002A06D165
:1032100083680B438360C3688B43C3600EE0012A5D
:1032200006D1C3680B43C36083688B43836005E0AA
:1032300083688B438360C3688B43C36070470246D7
:10324000D3690B40002B01D0012000E00020704723
:103250000246136A0B40002B01D0012000E0002041
:103260007047002A01D0416200E08162704700008F
:1032700010B57E480078C007C00F002805D17B48F4
:1032800000784007C00F002859D0784800784008DF
:103290004000764908700846007804218843734945
:1032A000087080217248FFF7CAFF002821D0022150
:1032B0006F48FFF7C4FF00281BD16C484078C00757
:1032C000C00F00283BD16948407840084000401CAE
:1032D0006649487008460078402188434030634979
:1032E000087064A165A000F017F966A000F014F959
:1032F00025E080215E48FFF7A2FF00281FD10221B0
:103300005B48FFF79CFF002819D058484078C00759
:10331000C00F002813D0554840784008400053495A
:103320004870084600784021884340304F49087073
:1033300050A152A000F0F0F856A000F0EDF84B4874
:103340000078C006C00F002841D0484800781021FE
:1033500088434649087001215348FFF770FF002851
:103360001AD0424840788007C00F00282FD03F482D
:103370004078022188433D49487008460078402142
:1033800088434030394908703AA13CA000F0C4F8A5
:1033900046A000F0C1F81AE0344840788007C00F1A
:1033A000002814D13148407802218843801C2F49DD
:1033B0004870084600784021884340302B49087007
:1033C0002CA12EA000F0A8F83DA000F0A5F82748F9
:1033D00000788007C00F002847D0244800780221D9
:1033E00088432249087040212148FFF728FF002820
:1033F0001AD01E4800788006C00F002814D01B4841
:103400000078202188431949087008460078402137
:10341000884340301549087016A118A000F07CF8C8
:103420002CA000F079F820E040211148FFF707FFB9
:1034300000281AD10D4800788006C00F002814D14A
:103440000A4800782021884320300849087008463F
:1034500000784021884340300449087005A107A046
:1034600000F05AF821A000F057F810BDA40C00207D
:1034700000000B405741524E000000000A5B2573CC
:103480005D000000536D6F6B6520416C61726D21B2
:1034900021212100536D6F6B6520446973416C617C
:1034A000726D21212121000000400B40536D6F6B94
:1034B000652044697354616D70657221212121007A
:1034C000536D6F6B652054616D70657221212121F0
:1034D00000000000536D6F6B65204261747465726B
:1034E00079204C6F7721212121000000536D6F6BF3
:1034F000652042617474657279204E6F726D616CE3
:10350000212121210000000000BF0248006800289E
:10351000FBD070474C0000200FB438B50498002849
:1035200004D00498FCF76EFE002803D138BC08BC18
:1035300004B0184705A800900748009A049901F0C4
:1035400037F9054600200090034CA9B2204600F050
:1035500005F800BFEAE7000030060020F8B5044691
:103560000D46002627460EE000BFFF210131074827
:1035700001F084F80028F8D03046721C96B2395C0D
:10358000024801F0CBF8AE42EEDBF8BD001004407B
:1035900000B587B0002004900590069001218903B2
:1035A000059888434018059089000498884340187E
:1035B000049049110598884340180590012304A8F8
:1035C00007C8FFF73BF9002220211848FFF71EFE2D
:1035D000062210210020FDF787FC06222021002072
:1035E000FDF782FCE12040020190FF210131684695
:1035F0000181002141818181C18101A90C4801F033
:1036000047F8012200210A4801F08AF801221146F8
:10361000074801F085F81A2000F02AFC0122114623
:10362000034801F06DF807B000BD000000000B403A
:103630000010044030B593B0A3A207CA10AB07C373
:10364000A4A103C90F910E90012002F0E5FF012013
:1036500002F0D4FF02F038FE142000F047FBFEF722
:10366000EBFAFEF785F8FEF7AFFA04229B4908460D
:103670001C30FCF78FFD082299499848001DFCF783
:1036800089FD1022974995480C30FCF783FD0422F0
:10369000954992481C30FCF77DFD102293498F48D4
:1036A0002030FCF777FD102291498C483030FCF730
:1036B00071FDFEF7A5FCFEF70BFBFEF771FB5D202D
:1036C000FEF7EAFB0020FEF70DFC0A20FEF7B8FC2F
:1036D00003210120FEF736FCFEF76EFCFEF7DAFA56
:1036E000142000F003FB02F0EFFDFDF7C5FDFDF730
:1036F00023FDFDF7B7FFFDF763FEFEF753F9FDF776
:1037000037FFFEF7EBF9FEF7D1F8FEF70FF9FEF7FA
:1037100021FAFDF769FFFDF7EFFE002002F07CFFC4
:1037200074A20A2110A801F013F86AA205210EA8BC
:1037300001F00EF872A0FFF7EFFE00F051FB044617
:103740007BA0807930380A21484379A1C979401893
:103750000146303976A0C07830380A22504374A22E
:10376000127980180246303A71A0007830380A2366
:1037700058436FA35B78C0180346303B6FA00079B5
:10378000202801D1002002E06CA0007930380A2501
:1037900068436AA56D79303D4019059306920791FB
:1037A000049066A0C07930380A21484363A1097AA1
:1037B000401830380A21484360A1497A303940180E
:1037C0000A2148435DA1897A303940185EA10EAACA
:1037D00010AB039400920191029003220E215BA092
:1037E000FFF79AFE3D48C01F817A427A007A3B4B30
:1037F000DB1FDB7901930392049102903748C01FCD
:10380000807900903548C01F43790279C1785DA066
:10381000FFF782FE31480C30C07B30490C31897B88
:103820002E4A0C32527B2D4BDB1FDB7F09930A9211
:103830000B910C902948C01F817F407F274AD21FDF
:10384000127F264BDB1FDB7E0593069208910790C3
:103850002248C01F807E2149C91F4A7E097E1F4B16
:10386000DB1FDB7D01930392029104901B48C01F74
:10387000807D00901948C01F437D027DC17C4C486B
:10388000FFF74AFE1548C01F807C1449C91F497CB8
:10389000124AD21F127C114BDB1FDB7B0193029279
:1038A000039104900D48C01F807B00900B48C01FFF
:1038B000437B027BC17A3FA0FFF72EFE10A0FFF7EB
:1038C0002BFE13B030BD000041533932335F4153FA
:1038D000320000004F54414100000000BF0C0020A6
:1038E0005000002058000020680000206C000020DC
:1038F0007C00002041533932335F415331000000D6
:103900000D0A2A2A2A2A2A2A2A2A2A2A2A2A2A2A54
:103910002A2A2A2A2A2A2A2A2A2A2A2A2A2A2A2A07
:103920002A2A2A2A2A2A2A2A2A2A0D0A00000000DC
:1039300031373A30303A333900000000417072209C
:103940002032203230323500410000000D0A536F22
:1039500066745665723A5625642E25645F25735F3A
:1039600025735F436C61737325735F4C49525F2508
:10397000642E25642E25645F25643A25643A256407
:103980000D0A00000D0A4465764575693A25303206
:10399000782530327825303278253032782530322B
:1039A000782530327825303278253032780D0A008B
:1039B000D06600000D0A4170704575693A253032B5
:1039C00078253032782530327825303278253032FB
:1039D000782530327825303278253032780D0A005B
:1039E00010B502F0B7F889490968884200D210BDC5
:1039F00002F0B0F8FF30F5308449086008460068EE
:103A00008349884202D90020804908608148007AB1
:103A1000030000F0F6FE0504193C7793F6007E489B
:103A200000687E49096888420DD87A48007A0028E3
:103A300009D17848C079022805D103207849088245
:103A4000012174480172DDE0724840380078400876
:103A50004000704940390870012002F0DDFD01206E
:103A600002F0CCFD02F030FC142000F03FF9002001
:103A700002F0C4FD642000F039F9002069490870A3
:103A800002216448017278206549088200BF01F074
:103A9000F9FF002811D002F041F800280DD00321D1
:103AA0005C48017203205E4908825FA15FA0FFF7B6
:103AB00033FD60A0FFF730FD23E05A480078401C3A
:103AC0005849087058A159A0FFF726FD55480178BC
:103AD00061A0FFF721FD53480078F02811DB00209A
:103AE0005049087064A151A0FFF716FD64A0FFF7CC
:103AF00013FD03204A49088202214648C17104216E
:103B000001727FE043484038007840084000401C84
:103B100040494039087000206149087041490870E7
:103B200000213C480172C1713D4800784021884322
:103B300040303B4908700320088263E0002135488B
:103B400001720221C1713448006834490968884211
:103B50004BD853480078401C5149087008460078FB
:103B6000052801DD052008704D480078030000F0AD
:103B700048FE062B040C141C242B28480068E12165
:103B8000C90040182449086025E024480068E12164
:103B900009014018204908601DE020480068E12123
:103BA000490140181C49086015E01C480068E121E3
:103BB000C9014018184908600DE0184800683949E3
:103BC00040181549086006E0144800683549401857
:103BD0001149086000BF00BF13A114A0FFF79CFCAF
:103BE0000D48016830A0FFF797FC002002F014FD9B
:103BF00035A10EA0FFF790FC35A0FFF78DFC01E08A
:103C0000FFE700BF00BF00BFF1E600009400002006
:103C1000005C2605F80C0020900000201800002011
:103C2000A40C0020980000204C4F47000A5B25732D
:103C30005D000000536D6F6B652053656E736F728E
:103C4000204C6F526120526567697374657220530E
:103C500075636365737300004C6F526157414E206A
:103C60005761697420456E74657220496E204E65F7
:103C700074202564000000005741524E00000000EF
:103C80004C6F526157414E20456E74657220496EEB
:103C9000204E65742054696D656F757421000000B5
:103CA0008C000020805101005570646174652052C1
:103CB00065636F6E6E6563742054696D65737461BE
:103CC0006D703A20256C64004552524F520000003E
:103CD0004C6F526157414E20456E74657220496E9B
:103CE000204E6574204572726F72210010B5044633
:103CF000204601F0FFFB10BD70B504462046FCF7DE
:103D000081FA85B22946204600F001F870BDF8B569
:103D100004460D46002627460FE000BFFF21013173
:103D2000880500F0ABFC0028F8D03046721C96B233
:103D3000395C0120800700F0F1FCAE42EDDBF8BDFC
:103D400000B587B0002004900590069001218903FA
:103D500005988843401805908900049888434018C6
:103D6000049009120598884340180590012304A87F
:103D700007C8FEF763FD002208211848FFF746FA3E
:103D8000062204210020FDF7AFF8062208210020BA
:103D9000FDF7AAF84B20C0010190FF2101316846D0
:103DA0000181002141818181C18101A90120800718
:103DB00000F06EFC01220021900700F0B1FC01220E
:103DC0001146900700F0ACFC172000F051F80122DA
:103DD0001146900700F094FC07B000BD00000B40B6
:103DE0001FA1897870292ED00CDC672929D004DC2A
:103DF000622918D063292ED12BE06C291FD06E299F
:103E000029D108E0722910D074291ED076291ED03D
:103E1000792920D111E012A14978612901D101202D
:103E200000E0062019E0022017E00DA14978612981
:103E300001D1032000E004200FE005200DE0072061
:103E40000BE0082009E0092007E00A2005E00B202C
:103E500003E00C2001E0002000BF00BF704700001D
:103E6000417072202032203230323500704700001D
:103E7000C206D20E01219140014A11607047000034
:103E800000E100E0C206D20E01219140014A11601A
:103E90007047000000E100E010B5002819DA1A4A66
:103EA00003071B0F083B9B089B00D2588307DC0EBF
:103EB000FF23A3409A438B071B0E8407E40EA34005
:103EC0001A43114B0407240F083CA408A4001A51FC
:103ED00018E00E4A03231B02D21883089B00D25815
:103EE0008307DC0EFF23A3409A438B071B0E840736
:103EF000E40EA3401A43054B032424021B19840833
:103F0000A4001A5110BD00001CED00E000E100E02B
:103F100001200849486000BF0648406801210903A4
:103F200088430028F8D100BF024800680028FBD170
:103F30007047000000A1064000211F4A126B520684
:103F4000D10F1D4A126B40231A431B4B1A631B4AA5
:103F500052681204D20F002A0BD1184A52688023EB
:103F60009A43164B5A601A46526880231A43134BE1
:103F70005A60124A526808239A43104B5A6000292B
:103F800005D10D4A126B40239A430B4B1A630C4A1E
:103F9000126904231A430A4B1A61002803D140BF57
:103FA00020BF20BF00E030BF054A126904239A43B6
:103FB000034B1A61704700000080084000A10640D2
:103FC00000ED00E0704700003FB50E4C6068A1684E
:103FD000E2680446009DAC4320460C46019DAC437C
:103FE00021461446029DAC432246002B05D0009C7E
:103FF0002043019C2143029C2243024C6060A1604B
:10400000E2603FBD00810840002806D0064989686B
:1040100010221143044A916005E003498968102287
:104020009143014A9160704700A0064004498968A5
:104030000222914342001143014A916070470000FF
:1040400000A00640002806D00649896801221143D5
:10405000044A916005E00349896849084900014A1A
:104060009160704700A0064010B5012001218140F9
:10407000154A116000BFFFF74BFF012000F0E2F886
:10408000012000F0BDF800BF1020FEF7F3FA002871
:10409000FAD00120FFF7CAFF0121022000F0A0F8AA
:1040A0000121480200F0ECF80F20000200F0DCF8DB
:1040B0000120FFF7A9FF0548006800F0CFF80120B4
:1040C000FFF7C0FF10BD000000E100E0400000204D
:1040D0000148C068C0B2704700A0064010B5FFF7A5
:1040E000F7FF0446394800780821884308303749EB
:1040F000087002202040002867D035480068354904
:10410000096840183249086030488068002820D08B
:104110002E48C0682F490968884207D92B48C068D3
:104120002C490968401A2949C86012E0274880686C
:104130003C2148432549C86008460078402188430F
:104140004030224908700846008A032801DA03201B
:104150000882214800681E49096888420BD81F4818
:10416000007A002807D11D48C079022803D1FF201A
:104170002D30164908823C20164908600846006820
:104180001549096888420ED9144840380078C0079C
:10419000C00F002807D110480068002803D00E483F
:1041A00000680C4908600948C0680A4909688842E3
:1041B00007D20648C068002803D00448C0680549F3
:1041C00008600448006800F049F810BDA40C002005
:1041D000180000204000002090000020F80C002073
:1041E000002905D0054A12690243044B1A6104E014
:1041F000024A12698243014B1A61704700A00640CF
:1042000000280DD10D498968082291430B4A91601D
:1042100000BF0B498968102211400029F9D10CE038
:104220000649896808221143044A916000BF044985
:104230008968102211400029F9D0704700A006407B
:1042400000800840044989682022914342011143BB
:10425000014A91607047000000A006400149486093
:104260007047000000A00640044989680F2212022E
:1042700091430143014A91607047000000A006404D
:10428000002905D0054A12690243044B1A6104E073
:10429000024A12698243014B1A61704700A006402E
:1042A00070470000042806D1064909690422114319
:1042B000044A116105E00349096904229143014A56
:1042C0001161704700E000E0002803D10021094A95
:1042D00091610EE0012806D10649096901221143C6
:1042E000044A116105E00349096949084900014A86
:1042F0001161704700E000E001494861704700002B
:1043000000E000E010B5FEF7F7FE10BD02480068BF
:10431000401C0149086070471400002000B587B0B8
:104320000120FEF76FFA0320FEF7B6FA03A8FEF7A6
:10433000ADF90020FEF748FA0120FEF751FA0120FE
:10434000FEF78CFE00200090019002904021029820
:104350008843403002900123684607C8FEF76EFA92
:1043600001210820FEF75AFA07B000BD5648006B3D
:1043700010210843544908635448554908610020F6
:104380004860084680680005000D072109034018B1
:104390004F4988604F4848604F48086001204F49A6
:1043A00008604948006B402108434749086300BF43
:1043B0004B4880682728FBD103E001204002484990
:1043C0004860474840680121490208408842F4D1CA
:1043D00002E000204249486041484068012149020A
:1043E00008400028F5D13D4908603748406A03215C
:1043F0008902884334494862084640680121C9025D
:1044000008433149486000BF2F4880680007C00F4B
:104410000028F9D02C484068C008C000C01C2A49B8
:10442000486000BF2848406B4007400F0328F9D17F
:104430002C480068C008C000401C2A4908600020C1
:104440002149086208464068491588431E4948606A
:1044500008460068891508431B49086000BF2248C8
:104460008068082108432049886008468068000762
:10447000C00F0028F3D000BF13488068C006C00FEB
:104480000028F9D01048006B402188430E4908638A
:104490000020086208464068C008C000C01C486090
:1044A00000BF0948406B4007400F0328F9D10D4871
:1044B0000068102108430B4908600348406809154B
:1044C000884301494860704700800840CA350000B1
:1044D00000800640A6AE01000100A05F00830840F6
:1044E00000A106400002084000A006402C480068D9
:1044F000401C2B4908602B480088401C2949088033
:1045000029480068401C2849086028480068401C69
:104510002649086026488088002804D024488088DE
:10452000401E2349888023488088002804D02148E1
:104530008088401E1F4988801F488089002805D038
:104540001D488089401E81B21B4881811B4800683C
:10455000002804D019480068401E18490860134814
:1045600000687D21C900884207D300200F490860F8
:1045700013480068401C12490860094800687D2102
:10458000C90088420BD30020054908600D48008A05
:10459000002804D00B48008A401E0A490882704750
:1045A0001C0000200C00002000000020080000205B
:1045B0002A0600206403002064010020100000206F
:1045C00004000020A40C002010B50420FFF76AFEB0
:1045D0000520FFF791FE0020FFF776FE0120FFF790
:1045E00073FE0148006910BD00E000E010B5202115
:1045F0000D4800F043F8002815D00B4800F08AF869
:10460000C4B20A484088FF21F53188420ADA0748D7
:1046100041884088401C054A508005484454322057
:104620001146888000BF10BD001004402A060020FB
:104630003804002010B52021480600F01FF800289B
:1046400016D00120800700F065F8C4B20948408800
:10465000FF21F53188420ADA064841884088401C2B
:10466000044A50800448445464201146888000BFA6
:1046700010BD000064030020720100200246106992
:104680000840002801D0012070470020FCE700000E
:1046900070B504460D46606816490840E98808432D
:1046A000A988084329890843698908436060012073
:1046B0008007844207D11820FEF762F80646296871
:1046C000FBF752FD60620C48844207D11C20FEF7C4
:1046D00057F806462968FBF747FD606207488442A1
:1046E00007D11E20FEF74CF806462968FBF73CFD73
:1046F000606270BDFCE0FFFF00100040001004404D
:10470000002A03D0C3680B43C36002E0C3688B4335
:10471000C36070470146086880B270470160704707
:1047200010B5002A05D0436810248C402343436011
:1047300004E0436810248C40A343436010BD000094
:1047400001480249086070470100A05F00800640F0
:104750000FB47CB50C0009AD01D0611E00E0002152
:1047600001910090074B6A462946089800F0C0F96D
:10477000002C02D0009A002111707CBC08BC04B04F
:10478000184700002D5200000FB410B504A9074BC4
:1047900002AA039800F0ACF9044602A9002000F038
:1047A00050FD204610BC08BC04B01847435200001E
:1047B00037B514460846064B6A46214600F098F97C
:1047C00004466946002000F03CFD20463EBD000046
:1047D000435200002021020C01D010211046020A91
:1047E00001D010460839020901D01046091F82087D
:1047F00001D01046891E420801D0881E7047081A51
:10480000704730B47446641E2578641CAB4204D3F0
:10481000635D5B00E31830BC18471D46F8E70000F5
:104820004900CA020243100000D004204A0D01D002
:1048300001221043044A490D914201D1022108434B
:10484000012800D105207047FF070000F8B5044695
:104850004F1EC8000838211815461E4608684968CA
:104860003A4606239A4310D02A463346FBF78AFE7F
:104870003A46D200083AA3181A687F1E5B68FBF715
:10488000CDFD06223B469343EED1022F23D0042FC9
:1048900011D0062F2FD12A463346FBF773FEE36A69
:1048A000A26AFBF7BBFD2A463346FBF76BFE636A41
:1048B000226AFBF7B3FD2A463346FBF763FEE36942
:1048C000A269FBF7ABFD2A463346FBF75BFE636943
:1048D0002269FBF7A3FD2A463346FBF753FEE36844
:1048E000A268FBF79BFD2A463346FBF74BFE636845
:1048F0002268FBF793FDF8BD002210B51346104661
:104900000149FBF7A7FE10BD0000F03F10B50122E2
:10491000FCF777F810BD002210B51346104611467B
:10492000FBF798FE10BD000010B50721024A0020D9
:104930000907FCF766F810BD01030000034A10B533
:1049400000201107FCF75DF810BD000001FDFFFF1E
:1049500002E008C8121F08C1002AFAD17047704748
:10496000002001E001C1121F002AFBD170470000A6
:104970000149086070470000A0000020F0B51FB496
:1049800086B00998089A030D0021024314D05148BB
:10499000514A1818504305141198012810981AD03C
:1049A000281A401C00264D4F4D4900960191049055
:1049B000002812DA444211E01198012449A3012889
:1049C00001D11098C1430698119A84600360C260B7
:1049D00041600BB0F0BD4042E4E7044621050020F1
:1049E0003F4A001C51410391029012E0E00707D0BA
:1049F00032463B4601990098FBF7C4FD01910090B7
:104A000032463B4610461946FBF7BCFD06460F46AC
:104A10006410002CEAD10498039B0028029A09999B
:104A2000089806DAFBF7AEFD019B009AFBF7AAFD9A
:104A300005E0FBF70FFE019B009AFBF70BFE044617
:104A40000E460022284BFCF75FF803D80020C04335
:104A5000014607E00022254B20463146FBF7DEFCED
:104A6000FCF71EF8102409E0002C0ADB0A220023C0
:104A7000FBF7D4FE079B30321A55641E02460A43E8
:104A8000F2D11122641C079B121B1C19119B012BD4
:104A900003D0012308430ED10AE0084304D01120BB
:104AA00010900020119077E71098151A6D1E0BE0FA
:104AB0001098824202DD00236D1C03E0824201DA7D
:104AC00000236D1E002BEED0069811998260C16004
:104AD00030C07EE701FCFFFF104D000000001440D5
:104AE0000000F03F300000000000F0430000E03F15
:104AF000FFB597B0064600251BE2252876D1002495
:104B00002746F749049400E00443761C32780120DC
:104B1000203A90400842F7D130782A280ED002225D
:104B2000307801463039092916D804990A235943A7
:104B3000303940181443761C0490F1E7189802C8E5
:104B400004911890002904DA0120400304434842EC
:104B5000049002200443761C30782E2814D10420BF
:104B600004437078761C2A2809D11898761C80C8CE
:104B7000189009E00A214F43303FC719761C30785E
:104B8000014630390929F5D930786C2810D006DC77
:104B90004C281AD068280ED06A2817D104E074284F
:104BA00013D07A2812D110E00120400504430CE014
:104BB0000121090501E0032109050C4371788142B7
:104BC00003D1012000052418761C761C3078662855
:104BD0000BD013DC58287DD009DC00287BD0452879
:104BE000F6D04628F4D047281AD1A9E118E0632866
:104BF00035D0642870D0652812D1A1E170286CD01E
:104C000008DC6728F1D069287DD06E280DD06F2888
:104C100006D1BCE073282ED0752873D0782859D0DF
:104C20001A9A199990476D1C82E16002400F022880
:104C300009D003280DD00428189801680DD00D6004
:104C4000001D189074E11898EA1701680D604A6019
:104C5000F6E7189801680D80F2E70D70F0E71898F4
:104C60006A4601781172001D18900020507202A847
:104C70000090012005E0189802C8189000200091CB
:104C8000C04361070ED5002101E00199491C019143
:104C9000B94213DA8142F8DB019A0099895C002954
:104CA000F3D10BE0002101E00199491C01918142FF
:104CB000FADB019A0099895C0029F5D101990498E1
:104CC0001A9B471A21463846199A00F099FA40195A
:104CD000019903E051E030E115E050E0451807E0AC
:104CE000009800990078491C00911A9A19999047E8
:104CF0000198401E0190401CF2D1214638461A9B73
:104D0000199A12E137E00A20002100900191600217
:104D1000410F022907D0189A01CA1892C217944667
:104D2000032908D00AE01898C01DC108C90005C9A8
:104D30001891944607E000B2C2179446042902D1A4
:104D400040B2C1178C4600226146944506DA0A46F5
:104D50000021404291418C462D2102E0210504D5DD
:104D60002B216A461173012103E0E10701D02021C4
:104D7000F7E7029156E00A200AE0102008E0102030
:104D800000900021042004430191082703E008203B
:104D90000021019100906002410F022907D0189A6A
:104DA00001CA189200229446032908D008E01898F6
:104DB000C01DC108C90005C91891944603E080B21E
:104DC000042900D1C0B20021029121072AD53178EF
:104DD0000D91702906D0009A1021019B4A401A4378
:104DE00005D00EE040216A461173012108E06146BA
:104DF000014306D030216A4611730D995173022187
:104E00000291009A0821019B4A401A430AD1614647
:104E1000014301D1610705D530216A461173012193
:104E20007F1E02913178582904D02EA10E910DA930
:104E30000D910DE030A1F9E76146019B009AFBF767
:104E4000EDFC0E9B8C469B5C0D9A521E0D921370CE
:104E500061460143F0D10D9805A9081A2030019050
:104E6000600703D501200004844300E00127019876
:104E7000874201DD381A00E00020019900904118B6
:104E8000029809180498401A0490E00306D42146B9
:104E90001A9B199A049800F0B3F94519002706E007
:104EA00003A81A9AC05D199990476D1C7F1C02983F
:104EB0008742F5DBE0030CD521461A9B199A04982A
:104EC00000F09EF9451904E01A9A3020199990478C
:104ED0006D1C0099481E00900029F5DC1FE00000C1
:104EE00009280100303132333435363738396162C0
:104EF0006364656600000000303132333435363784
:104F00003839414243444546000000000D980D9950
:104F10000078491C0D911A9A199990476D1C0199B6
:104F2000481E01900029F1DC4DE100F059F94519C6
:104F3000761C3078002800D0DFE528461BB0F0BD95
:104F4000600700D406271898C01DC108C90048682A
:104F50000A680831C30FDB071891190001D09CA122
:104F600008E0210501D59BA104E0E10701D09AA149
:104F700000E09AA14300109130785B0865280CD0BE
:104F800006DC452809D046281DD0472841D141E0FC
:104F9000662818D067283CD13CE00021112F01DBA6
:104FA000112000E0781C0191009008A911A8FFF7DA
:104FB000E5FC139905910021119A15927F1C129816
:104FC0000197009150E00120C0070390012001905B
:104FD00008A9009711A8FFF7D1FC139A149905921C
:104FE0000022119B009212981593059A01920029B4
:104FF00001D0104602E0791C40180190381A01D502
:10500000019804E04042401E0090781C0190C01BB3
:10501000029043E0012F00DA01270021112F01DD6A
:10502000112000E038460191009008A911A8FFF76F
:10503000A5FC13990591119A0021129815920091DF
:10504000019721070CD40599B94201DB019900E0D1
:105050000191012904DD159A491E515C302906D0C1
:10506000B84201DA011D05DA0121029115E001992A
:10507000491EEDE7002805DC0099411800910199CF
:10508000091A03E0019A411C914200DD0191009947
:10509000401A401C02900120C0070390200706D44C
:1050A00002990198814202DB0020C0430290002057
:1050B0006946C87707AF012103980337C9078842BB
:1050C00024D0022011902B201290039800280CDA93
:1050D000404203902D20129007E00A210398FBF72D
:1050E00043F830317F1E039039701199481E11909A
:1050F0000029F2DC03980028EFD1791E129808707D
:105100003078202108404530BF1E387006A8C01BEB
:10511000C01D039010980078002800D0012001994C
:1051200041180298C0170918039809180498401AE2
:10513000401E0490E00306D421461A9B199A049855
:1051400000F05EF8451910980078002803D01A9AEC
:10515000199990476D1CE00324D521461A9B199A92
:10516000049800F04DF845191CE00098002807DB72
:1051700000990598884203DD1598405C199901E073
:10518000199930201A9A904700986D1C401C009085
:105190000298401E0290002804D11A9A2E201999D4
:1051A00090476D1C0199481E01900029DDDC05E047
:1051B00038781A9A7F1C199990476D1C0399481EDC
:1051C00003900029F4DC21461A9B199A0498ACE656
:1051D0002D0000002B000000200000000000000057
:1051E000F8B5044600251E461746880404D405E099
:1051F00039462020B0476D1C641EF9D52846F8BDFD
:10520000FFB50446002581B01E46C80301D53027EE
:1052100000E02027880404D505E038460399B0470C
:105220006D1C641EF9D5284605B0F0BD4A68002AF9
:1052300006D00A68531C0B6010704868401E486016
:1052400070470A68531C0B6010707047F0B587B048
:1052500005460E4614461F4639462046FBF7A0F881
:105260007F21C9050090FBF756F80190FBF791FAF2
:105270002A46334603910290FBF784F90591049086
:105280000599049807B0F0BDF0B587B004460D4607
:105290001248134900F046F906460022114BFBF76D
:1052A00071F90391029020462946039B029AFBF76D
:1052B000D1F9064600F054FC02460B4601910090DD
:1052C00000200949FBF7C6F905910490074A084BED
:1052D00005990498FBF747F907B0F0BD10E0B7AFA8
:1052E000297F2AC0006AF84000DCAE406666666628
:1052F0006612714070B50446012503220449204618
:10530000FAF787FF002800D00025284670BD00006E
:1053100034660000FFB581B004461D46002C14D051
:10532000002A12D0002D10D0029E002E0DD028464B
:10533000EE0F361876107600AE1B06D1EE0F7619FA
:1053400077100095029EB74202DD002005B0F0BD47
:105350000021002300BF50E0505C612808DB505C56
:10536000662805DC505CC01F0007000EE05418E002
:10537000505C412808DB505C462805DC505CC01FAF
:105380000007000EE0540CE0505C302807DB505C56
:10539000392804DC505C0007000EE05401E00020D6
:1053A000D4E7481C81B2505C612808DB505C662859
:1053B00005DCE05C565C80195738E05419E0505C1D
:1053C000412808DB505C462805DCE05C565C80190F
:1053D0003738E0540DE0505C302808DB505C392849
:1053E00005DCE05C565C80193038E05401E00020B8
:1053F000ACE7581C83B2481C81B2A942ACDB18460A
:10540000A4E7FFB581B007460D4616460020009080
:10541000002F04D03846FAF7F5FE002801D105B078
:10542000F0BD002D04D02846FAF7ECFE002800D18C
:10543000F5E729463846FAF7F9FE044608E010C6B3
:105440000098401C009029460020FAF7EFFE044621
:10545000002CF4D104990098086000BFDFE7000039
:10546000F0B58DB0064600200C901B480B901B48F1
:105470000A901B4809901B48089000BF002E00D1DD
:1054800001263046FBF75EF90022174B0191009090
:10549000FBF778F80022154B03910290FBF7DAF83E
:1054A00005910490FBF789F907460B98FBF771F912
:1054B0003B460F4A07910690FFF7C8FE04460D468B
:1054C00020462946FFF7E0FE07910690FBF775F9A5
:1054D0000C900C980DB0F0BD0050C34733139543AA
:1054E00000E07645339388430070A7400000B04049
:1054F00000803B450349086000BF02490968002954
:10550000FBD1704710000020C1000D39044A5161E1
:105510000021916100BF024909690529FBD070474C
:1055200000E000E0F0B54E00864BCF0F760887B064
:1055300005460C469E422ED38348864211D3300343
:10554000000B284304D02846FFF7E0F907B0F0BD70
:10555000002F03D00020014607B0F0BD284607B059
:10556000F0BD7A4A2846FBF7CFFA06D20220FFF7B1
:10557000FFF9FFF7D9F907B0F0BD754A754B28461A
:105580002146FBF7ADFA06D20220FFF7F1F9FFF74B
:10559000D5F907B0F0BD704886424AD930466F4908
:1055A000E20FD600884215D26D48784480194368CE
:1055B000026828462146FAF7D6FF0290694803910F
:1055C000784481190868496800900120C01B019146
:1055D000C61B25E0644A654B28462146FAF7D2FFF0
:1055E000634A7A4493191A685B68FAF717FFFBF766
:1055F00033FA0646FBF71CFA07465E4A5E4B0091FB
:10560000FAF7C0FF2A462346FAF7B3FF0391029048
:105610005A4A5B4B38460099FAF7B4FF0191009063
:105620000B46009A03990298FAF79DFF05460C462F
:1056300017E05448864213D2534A544B2846214619
:10564000FAF7ECFE524E00223346FBF75DFA07D222
:105650000022334628462146FAF7E0FE07B0F0BDA7
:1056600000262A46234610461946FAF78BFF0746BE
:10567000024648480B46049105217844FFF7E6F8B6
:105680003A46049BFAF77EFF2A462346FAF771FF53
:105690000691012189070746002E23D002460020EB
:1056A000069BFAF760FF059104903A46284621468A
:1056B000069BFAF767FF059B049AFAF7CBFF019B5D
:1056C000009AFAF756FF039B029AFAF74CFF002262
:1056D0002F4BFAF74EFF304A96421EDB32058918EF
:1056E00007B0F0BD0B4600220699FAF73CFF0646CC
:1056F00000913A4628462146069BFAF743FF324678
:10570000009BFAF7A7FF2A462346FAF72CFF002250
:105710001F4BFAF72EFF07B0F0BD7D233205DB05E6
:10572000D21889181D4AFBF76CF90D460446FFF79D
:1057300077F8042801D1FFF701F92046294607B080
:10574000F0BD0000422E86400000F07FEF39FAFEE7
:1057500051302DD5104987C0422ED63FB2A2F03F1E
:105760009A10000094100000FE822B654715F73F49
:10577000521000000000E0FE422EE63F763C7935F4
:10578000EF39EA3D0000303E9C7500883CE4377EEE
:105790000000F03FEA0F000003FCFFFF18FCFFFFD2
:1057A00070470000F3B581B000250298C5B2019F93
:1057B0003846FFF79FFD00280ED148A148A0FDF70D
:1057C000ABFE494949A0FDF7A7FE4F48428846492C
:1057D0004EA0FDF779F8FEBDF878C007C00F00288D
:1057E00015D04C4E64213046FAF7EDFC3146FF20CF
:1057F00000F090FE484908700846007836180846C0
:10580000017839480E38018100F07CFD00BF33A1DA
:1058100033A0FDF781FE294640A0FDF77DFE7C1DEB
:10582000681FC5B254E0207800902CA12CA0FDF791
:1058300073FE44A00099FDF76FFE009885282DD0D7
:1058400086283FD160780002A178084306460A2ED8
:1058500003DB2D204001864201DD002E12D140489D
:10586000866000784021884340303D490870FDF74C
:1058700079FC1AA11AA0FDF74FFE314639A0FDF7B9
:105880004BFE07E015A116A0FDF746FE31463EA0EF
:10589000FDF742FEE81EC5B2E41C14E06678012E56
:1058A00004D1012143480172FDF7CEFBA81EC5B209
:1058B000A41C41A10AA0FDF72FFE314640A0FDF730
:1058C0002BFE00E087E700BFC82D00DD02E000BF2F
:1058D000002DA8D100BF00BF7DE700004C4F47005E
:1058E0000A5B25735D00000072010020526563763B
:1058F0002055617274204C6F526157414E204461B3
:1059000074613A2025730000640300204C6F5261DB
:1059100057414E00400C0020450000205265637640
:10592000204C6F526157414E20434D442C20546F00
:1059300074616C2044617461204C656E203A2025AE
:10594000642C0000416E616C79736973204461744A
:10595000612054797065203A2025303278000000AB
:10596000A40C0020557064617465204465766963F9
:10597000652053796E6320496E74657276616C3A66
:105980002025646D696E0000557064617465204463
:1059900065766963652053796E6320496E7465721C
:1059A00076616C204572726F723A2025646D696E63
:1059B00000000000F80C00205741524E000000008B
:1059C0005265637620446576696365205265737419
:1059D00020466163746F727920434D44203A20253C
:1059E0006400000010B51A488088002811D11848BA
:1059F000408800280DD016484188FF38F338FFF75B
:105A0000D1FEFF21F5311348FAF7DDFB00211048E4
:105A1000418011488088002818D10F48408800280C
:105A200014D00EA10EA0FDF777FD0F490FA0FDF7D2
:105A300073FD094841880C48FFF7B2FEFF21F5319C
:105A40000948FAF7C0FB00210348418010BD00005F
:105A500064030020720100202A0600204C4F4700FA
:105A60000A5B25735D0000003804002052656376F0
:105A7000205561727420496E666F20446174613AEA
:105A80002025730010B508210448FDF7D8FB002835
:105A900001D0012010BD0020FCE7000000200B40D9
:105AA00070B500250DE07D20C000FEF71FF9FEF760
:105AB00047FEFFF7E7FF0446002C01D0002070BD31
:105AC0006D1C0F2DEFDB0120F9E7000010B5102150
:105AD0000448FDF7BDFB002801D0012010BD0020C7
