:020000040000FA
:10000000880F0020AD000000053C0000AD3200006C
:10001000FFFFFFFFFFFFFFFFFFFFFFFFFFFFFFFFF0
:10002000FFFFFFFFFFFFFFFFFFFFFFFF3940000063
:10003000FFFFFFFFFFFFFFFF5D3D0000A540000049
:1000400021010000753E000021010000712C00001C
:10005000D92C000021010000012D0000FFFFFFFF4F
:10006000CD0B0000FFFFFFFF21010000FFFFFFFF9E
:1000700021010000210100002101000021010000F8
:10008000210100003D2500002101000021010000A8
:10009000210100002101000021010000CD430000EA
:1000A000FFFFFFFF21010000854300001D4880473E
:1000B0001D4880471D4800471D480169002908D197
:1000C0004169002905D18169002902D1C16900294E
:1000D00009D01848C1680901090D00290ED0052969
:1000E0000CD006290AD0BFF34F8F13481349016083
:1000F00013491248C860BFF34F8FFEE70E480168EE
:100100000E48884200D070470E480F4901600A48E7
:100110000E4901607047FEE7FEE7FEE7FEE7FEE7F7
:10012000FEE70000B9000000054100005101000099
:100130000003084080010840000000200400FA0588
:1001400000ED00E000810840010000000000000018
:100150000448854600F0ECFC00480047515F000071
:10016000C046C046880F002030B50B46014600202F
:100170002022012409E00D46D5409D4205D31D46AD
:100180009540491B2546954040191546521E002DA5
:10019000F1DC30BD03460B439B0703D009E008C9DF
:1001A000121F08C0042AFAD203E00B780370401C27
:1001B000491C521EF9D27047D2B201E00270401CB5
:1001C000491EFBD270470022F6E710B513460A46D7
:1001D00004461946FFF7F0FF204610BD30B505462E
:1001E0002A460B4610781C78521C5B1C002801D054
:1001F000A042F7D0002C03D0002802D06D1CEFE7FE
:10020000284630BD421C0178401C0029FBD1801AD1
:10021000704730B504460020034600E05B1C934263
:1002200003D2E05CCD5C401BF8D030BD70B5104D02
:10023000002800D12868002414E00A4602E09E420B
:1002400003D0521C1378002BF9D1DAB2224307D025
:10025000002B06D0002C04D000210170401C04E0CB
:100260000446401C0678002EE7D12860204670BD69
:100270009C000020F8B502464A40D40F42004B00D3
:1002800052085B089A4202D20246084611464A00CA
:1002900023D0C30D4A00DDB2120EAD1A202D35DA7F
:1002A00049020126490AF6058A19002C00D052425B
:1002B00020214F1B1146B9402A411018C20D9A4205
:1002C00021D0002C17D0012D08DCDA05801AD20FBE
:1002D0008019D207DBB200F0FCFAF8BDDA05801A0B
:1002E000012340001B06C01880185A428018CA0F0C
:1002F0001043490007E04908C2071143DA05801A94
:1003000080194008801800F0DCFAF8BD6100012275
:10031000511A001BF7E70122D2075140AAE7012238
:10032000D2075040A6E7024670B54A40D30FDB071C
:1003300040002DD04A002AD0010E140E00021202F5
:100340000919400A520A8418E50104465443000A78
:10035000120A2E045043A4194219200CC543AA18AE
:10036000120C0125AD03521C521912047F392404CA
:1003700000D0521C104301D44000491EC2B20C06EA
:10038000C0092018401C4008802A02D003E0002049
:1003900070BD40084000002900DA0020184370BDFD
:1003A00070B502464A40D50F40004A00ED074008AC
:1003B0005208002814D0002A12D0C40DD30D4102D7
:1003C0000120C0055202490A520AE41A09181218FB
:1003D0007D34914201D3641C00E04900002C01DA15
:1003E000002070BD0023914201D3891A03434008C5
:1003F00049000028F7D100290AD0914202D10121F9
:10040000C90705E0914201D2012101E00121C94360
:10041000E005C018401900F054FA70BDF0B5074669
:100420000846584087B0C00F049048000E46590057
:1004300040084908BC1A884105D2384631461E4654
:1004400017460B4602465800400810434DD0300D69
:10045000039040055900400D490D0590401A029047
:10046000402873DA18030121000B090508430190A5
:1004700004980092002806D01146019A49420020B3
:10048000904100910190029840210A1A0199009828
:1004900000F0F4F905460C466B4607CB00F0FEF978
:1004A000C0197141039A0E0D0023D71756401A4602
:1004B0007A40164344D0049A002A2DD0029A012A89
:1004C000039A15DC1205C01A914101263605001C5D
:1004D0007141D20F059ED2070093019202962A46DF
:1004E000234600F03CFA07B0F0BD38463146FAE743
:1004F0001605234A0F46B218C01AB7410121090553
:10050000001C4F4100187F41114618187941E20F35
:1005100010436D19644113E0E2076D081543640848
:10052000C2071443039A01261205C01A91413605E9
:10053000001C7141CE07400830434908C0185141A2
:100540002A46234600F0FEF9CDE7FFE70498012292
:100550004000C117121A00238B4104983146C4177A
:10056000381AA141EEE730B40124E407634030BCFF
:1005700054E730B40124E407614030BC4EE700008A
:100580000000E0FFF0B51FB488B00B990998002473
:1005900048400999C00F490049080991C0070B99C3
:1005A0000090490049080B9109990898A64608430C
:1005B0001CD00B990A98084318D0099801244000D0
:1005C000420D4800410D099824050003000B20430B
:1005D00009900B980003000B20430B9050181C4906
:1005E0004018002201901446104605E00020014604
:1005F0000DB0F0BD032801DA034600E003239C465A
:10060000C11A0AAE0AE05F0008ADED5B4F00F75B70
:100610007D430027AA187C41491C5B1E6145F2DD21
:10062000410004AB5A522104120C0A43240C401C12
:100630000828DFDB01980290009970460191009034
:10064000059B049A0799069800F089F9D0E7000005
:100650000DFCFFFFF0B50C465C4085B0E40FE407ED
:1006600003944C0000266408590094464908024649
:100670000296224321D062460A431ED06200570DE3
:100680004A000E032303550D012402462C4924057C
:10069000781B1B0B360B4018234326436146009002
:1006A0001C46501AB44103D30098401C009002E04D
:1006B000921800985B41002803DA0020014605B03B
:1006C000F0BD0020012109050746864611E0644679
:1006D0001D46141BB54106D36546521BB3417446F3
:1006E00007430C43A646CD07400849082843921803
:1006F0005B4105460D43EAD11046184313D06046CE
:10070000194650407140084306D06046101AB34164
:1007100006D20122002306E000220123DB0702E0CB
:100720000122D2435310009874460105381C6141E0
:10073000029C039D0019694100F004F9BFE7000025
:10074000FD0300000EB505490291002100910A4603
:100750000B46019100F003F903B000BD3304000023
:10076000C20F410040020123400ADB05D207090EF7
:10077000C0187F2901DA00207047962903DC9623F0
:10078000591AC84001E096398840002AF4D0404206
:100790007047C20FD207400040080BD0C10D07239D
:1007A000DB01C91840020905400A1143C20840078D
:1007B00011437047002001467047CB0FDB0749000B
:1007C00010B5490802460A4307D00A0D0724090359
:1007D000E401090B121B002A01DC002010BDC90036
:1007E000440F0C43C100E018D205801800F069F8EE
:1007F00010BD00000122D207002800DB101A0029DA
:1008000000DB511A814270470122D207002800DB29
:10081000101A002900DB511A88427047F0B51FB446
:100820000646002082B005464024019100901BE05E
:10083000019922460F46304600F08CF9049A059B38
:10084000801A994110D310461946224600F016F836
:10085000361A8F410197224601200021009F00F0A7
:100860000DF838184D4100902046641E0028DFDC4A
:10087000019B00982946324607B0F0BD10B5202AEA
:1008800004DB0146203A9140002010BD9140202316
:100890009C1A0346E3401943904010BD10B5202A2E
:1008A00006DBCB170846203A1041C1170B4306E080
:1008B0000B461341D0402024A21A91400843194608
:1008C00010BD002904DA401C490001D14008400055
:1008D000704770B40024050C05D11024000402D127
:1008E000002921D01124050E01D100020834050F82
:1008F00001D10001241D850F01D18000A41C002816
:1009000001DB4000641C002908D020252E1B0D4669
:10091000F540A14000D001212943084301061B1BDB
:10092000000ADB1D02D5002070BC7047DB051818DB
:1009300080180029F8DA401C4900F5D170BC400845
:100940004000704710B5002B08DA0024401C6141BC
:1009500092185B411A4301D14008400010BDF0B528
:100960001FB482B005460C0003D0084603F0FEFD1C
:1009700002E003F0FBFD20300246009021462846AD
:10098000FFF77CFF049B059A04460F46184311436A
:10099000084314D0184610431BD0009840210A1A6F
:1009A0001846059900F0D6F805460E46009A0599B6
:1009B0000498FFF763FF084305D0012004E02046B8
:1009C000394607B0F0BD0020C11705430E432C4344
:1009D000374300990E986305401A7905E40A00220E
:1009E0000C43FD0A0A3002D500200146E9E7010563
:1009F000101969410C9C0D9D00196941FFF7A2FF78
:100A0000DFE770B54B005B0803430BD04B005C0D78
:100A1000002633466542B341D417AD1AA34102DB29
:100A20000020014670BD12053018514170BD000014
:100A30000EB5C217C10F5040CA0740180021054B20
:100A40000293019200910A460B46FFF788FF03B01C
:100A500000BD00003304000070B5CD0F4A0009034B
:100A60000123090B1B0519430B4BED070024520D05
:100A70009A4201DA002070BD074B34339A4203DCFE
:100A80009A1A00F067F802E00449511888402C4394
:100A9000F1D0404270BD0000FF030000CDFBFFFF1E
:100AA0004A0009030123090B1B0519430A4B10B522
:100AB000520D9A4202DA0020014610BD064B343333
:100AC0009A4203DC9A1A00F045F810BD034BD21885
:100AD000FFF7D4FE10BD0000FF030000CDFBFFFFB9
:100AE00010B5002904DB0124E40740428C41214673
:100AF000002B04DB1C460123DB075242A3418B423F
:100B000000D1824210BD000010B5002904DB012491
:100B1000E40740428C412146002B04DB1C460123A4
:100B2000DB075242A341994200D1904210BD000020
:100B3000064C0125064E05E0E36807CC2B430C3C30
:100B400098471034B442F7D3FFF706FB1466000051
:100B50003466000010B5202A04DB0846203AD04055
:100B6000002110BD0B46D340D0402024A21A914052
:100B70000843194610BD8C2211507047002904D03B
:100B8000026880231A43026003E0026880239A43CC
:100B9000026070473EB5044600200090019002902C
:100BA00001210906029888434018029001236846F3
:100BB00007C803F0D5F83EBD024688239B580B407A
:100BC000002B01D0012000E00020704710B501216A
:100BD0000648FFF7F1FF012806D101210348FFF77E
:100BE000CAFF01200249087010BD0000000001404A
:100BF0004A00002010B5002A05D080231B580B4363
:100C00008024235004E080231B588B4380242350EE
:100C100010BD00007FB500206B4908700190029064
:100C200003900121890302988843401802908902A9
:100C3000039888434018039009120198884340188C
:100C4000019049000198884340180190012301A8B0
:100C500007C801F085FD01224021104600F046F949
:100C600002224021594802F003FA0122402157484C
:100C700002F0EAF901224021544802F024FA0A2045
:100C800004F00EFB02220121002000F02FF90621C2
:100C9000102001F085FD0023012219464C4800F088
:100CA000DAF824214A4800F0F2F824230022022135
:100CB000474800F0B5F80121454800F0DCF8012272
:100CC00011464348FFF796FF082001218140414A21
:100CD000116000BF01213E48FFF750FF01213C4851
:100CE00000F0D7F800BF384800780028FBD038481B
:100CF000006B0405240D204604F07EFA3649486056
:100D000036A137A002F0DAFA33494868FFF741FD0F
:100D100005462A460B4634A0009402F0CFFA2E492D
:100D200048683C49FFF770FD14D22B480078400614
:100D3000C00F00280ED12848007820218843203099
:100D400025490870084600784021884340302249F0
:100D5000087018E0204948682F49FFF74BFD12D270
:100D60001D4800784006C00F00280CD01A480078B3
:100D70002021884320301849087008460078402117
:100D8000884315490870124800F07CF81048FFF7B6
:100D900001FF002240210D4802F095F90122114681
:100DA000002000F0A3F8022201211C4802F060F9A3
:100DB00000220121194802F086F901221146174844
:100DC00002F042F97FBD00004A00002000200B40E5
:100DD0000000014000E100E0A40C00204C4F47005F
:100DE0000A5B25735D000000436F76657274204EC8
:100DF00074632054656D7065726174757265202529
:100E00002E3266432C204144432056616C75652088
:100E10002564000000005C420000484200000B40D6
:100E200070B50C469510AE00051DA9599507EE0E3C
:100E30001F25B5402B460D469D4329469507EE0ECE
:100E40002546B5402B460D461D4329469510AD005D
:100E5000061D715170BD70B5032900D100BF5C1E25
:100E60002404551E2D022C430C4305688026354072
:100E70002C43046070BDCA06D20E02674A095201B3
:100E80004267704701684022114301607047016268
:100E90007047002904D0426F01231A43426703E0E0
:100EA000426F5208520042677047000030B50A4650
:100EB00000230021072803DD01230446083CE0B29B
:100EC0009C00094D6419216885000F24AC400D4633
:100ED000A543294685001446AC4021439C00024DA1
:100EE0006419216030BD000000200240F7B50B46B8
:100EF000009DED00154EAA190020002400270021B6
:100F000020E000240027FF258D401D40002D17D034
:100F100000200FE01D46C54001268E403540002DC3
:100F200007D086000F25B5402C438600029DB540B2
:100F30002F43401C0828EDD31568A5433D43156099
:100F4000121D08310829DCDDFEBD00002020024012
:100F5000F7B582B00E46144600276420019004F0D5
:100F600081FC002809D13CA13DA002F0A7F93EA0D8
:100F700002F0A4F9002005B0F0BD04F0A9FC00289F
:100F800008D135A136A002F099F93CA002F096F9FB
:100F90000020F0E7FF21F5313E48FFF714F900206B
:100FA0003D49488003F098FA029802F071FD3BA099
:100FB00002F06EFD374D3AA12046FFF70FF90028E9
:100FC00005D13AA12046FFF709F9002800D0ED1D10
:100FD00032E021A12846FFF701F9002809D01EA11F
:100FE0001FA002F06BF934A0029902F067F900200B
:100FF000C1E737A12846FFF7F1F8002809D016A16C
:1010000017A002F05BF935A0029902F057F9002011
:10101000B1E701987843B04209DD37A110A002F092
:101020004DF937A0029902F049F90220A3E701988F
:1010300002F028FD781C87B221462846FFF7CEF83B
:101040000028C6D035A106A002F038F934A00299D4
:1010500002F034F901208EE74552524F5200000051
:101060000A5B25735D0000004C6F526157414E20B2
:101070004D6F6465204552524F4521004C6F5261BF
:1010800057414E20537461747573204552524F4539
:101090002100000072010020640300200D0A0000FE
:1010A0002B4C494E4B20494E464F3A002B5254434D
:1010B00020494E464F3A00002225732220617420B9
:1010C000636D642065786563206572726F720000DD
:1010D000424144205041524D00000000222573221D
:1010E00020617420636D64206578656320626164AB
:1010F000207061726D0000005741524E00000000E8
:101100002225732220617420636D642065786563F5
:101110002074696D656F7574000000004C4F4700C6
:101120002225732220617420636D642065786563D5
:10113000207375636365737300000000F0B587B0BA
:1011400000255FE031A2324932A0FFF701FF0128FC
:1011500052D133A133A002F0B1F834A13648FFF7E1
:101160003DF80746394635A002F0A8F87821344802
:10117000FFF729F82DA13048FFF730F80646002088
:101180000690002406AB2E4A2EA1304604F005F846
:101190000AE0611C89002A4B5A582B49081902237E
:1011A000012103F083FF641C0699481E0690002964
:1011B000EFD11BA11BA002F081F823480B38807CE3
:1011C00021490B39497C204A0B3A127C1E4B0B3BC0
:1011D000DB7B01930292039104901B480B38807BC8
:1011E000009019480B38437B027BC17A17A002F0AC
:1011F00065F8012007B0F0BD681C85B27D20C000F5
:1012000002F040FC032D9DDB0020F3E74F4B000074
:10121000DC05000041542B4150504555493F00002A
:101220004C4F47000A5B25735D0000002B41505076
:101230004555493A00000000720100202573000066
:10124000100D002020000000C30C0020415050452C
:1012500055493A2025303278202530327820253003
:1012600032782025303278202530327820253032EF
:10127000782025303278202530327800F0B58FB0D4
:10128000002578E03EA23F493FA0FFF761FE01281C
:101290006BD140A140A002F011F841A14348FEF7F4
:1012A0009DFF0746394642A002F008F878214148E0
:1012B000FEF789FF3AA13D48FEF790FF0646002061
:1012C0000E9000240EAB3B4A3BA1304603F065FF75
:1012D0000AE0611C8900374B5A5838490819022323
:1012E000012103F0E3FE641C0E99481E0E900029B4
:1012F000EFD128A128A001F0E1FF3048C07B2F49A1
:10130000897B2E4A527B2D4B133BDB7F09930A923C
:101310000B910C9029481338807F284913394A7F54
:10132000097F264B133BDB7E0593079206910890BD
:1013300022481338827E407E20491339097E1F4B94
:10134000133BDB7D01930492029103901B481338F9
:10135000807D009019481338437D027DC17C184878
:1013600001F0ACFF01200FB0F0BD681C85B27D20FC
:10137000C00002F087FB032D84DB0020F3E70000B0
:101380004F4B0000DC05000041542B4150504B45B1
:10139000593F00004C4F47000A5B25735D00000079
:1013A0002B4150504B45593A00000000720100207B
:1013B00025730000100D002020000000CB0C002041
:1013C00004650000F0B58FB0002571E03AA23B49FA
:1013D0003BA0FFF7BDFD012864D13CA13CA001F07A
:1013E0006DFF3DA13F48FEF7F9FE074639463EA096
:1013F00001F064FF78213D48FEF7E5FE36A139484B
:10140000FEF7ECFE064600200E9000240EAB374A95
:1014100037A1304603F0C1FE0AE0611C8900334B5E
:101420005A58344908190223012103F03FFE641C75
:101430000E99481E0E900029EFD124A124A001F09E
:101440003DFF2C48C07B2B49897B2A4A527B294B84
:101450001B7B09930A920B910C902648C07A254970
:10146000897A244A527A234B1B7A05930692079174
:1014700008902048C17980791E4A52791D4B1B790A
:1014800001930292049103901A48C0780090194881
:1014900083784278C01FC179174801F00FFF0120FF
:1014A0000FB0F0BD681C85B27D20C00002F0EAFAE2
:1014B000032D8BDB0020F3E74F4B0000DC05000021
:1014C00041542B415050534B45593F004C4F47001E
:1014D0000A5B25735D0000002B415050534B45596A
:1014E0003A0000007201002025730000100D00205A
:1014F00020000000DF0C0020B865000070B500245B
:101500001BE010A2104911A0FFF722FD01280ED107
:1015100011A112A001F0D2FE12A11448FEF75EFE46
:101520000546294612A001F0C9FE012070BD601CCD
:1015300084B27D20C00002F0A5FA032CE1DB00207C
:10154000F4E700004F4B0000DC05000041542B4243
:10155000414E443F000000004C4F47000A5B25739A
:101560005D0000002B42414E44000000720100204B
:101570002573000070B500241BE010A2104911A0D3
:10158000FFF7E6FC01280ED111A112A001F096FE92
:1015900012A11448FEF722FE0546294612A001F0CA
:1015A0008DFE012070BD601C84B27D20C00002F061
:1015B00069FA032CE1DB0020F4E700004F4B000048
:1015C000DC05000041542B434C4153533F000000C5
:1015D0004C4F47000A5B25735D0000002B434C41D4
:1015E00053533A00720100202573000070B50024A7
:1015F0001BE010A2104911A0FFF7AAFC01280ED190
:1016000011A112A001F05AFE12A11548FEF7E6FD45
:101610000546294613A001F051FE012070BD601C53
:1016200084B27D20C00002F02DFA032CE1DB002003
:10163000F4E700004F4B0000DC05000041542B4351
:101640004F4E4649524D3F004C4F47000A5B2573B1
:101650005D0000002B434F4E4649524D3A000000BA
:101660007201002025730000FEB500254DE029A27F
:1016700029492AA0FFF76CFC012840D12AA12BA000
:1016800001F01CFE2BA12E48FEF7A8FD07463946A7
:101690002CA001F013FE78212B48FEF794FD25A124
:1016A0002748FEF79BFD064600200190002401AB71
:1016B000254A26A1304603F070FD0AE0611C89002E
:1016C000214B5A58224908190223012103F0EEFC4C
:1016D000641C0199481E01900029EFD112A113A0AA
:1016E00001F0ECFD1A48C0780090194883784278E0
:1016F000C01EC17817A001F0E1FD0120FEBD681CED
:1017000085B27D20C00002F0BDF9032DAFDB0020C3
:10171000F4E700004F4B0000DC05000041542B446F
:101720004556414444523F004C4F47000A5B2573E5
:101730005D0000002B444556414444523A000000ED
:101740007201002025730000100D00202000000011
:10175000DB0C0020444556414444523A20253032A7
:1017600078202530327820253032782025303278A4
:1017700000000000F0B587B000255FE031A23449D9
:1017800034A0FFF7E5FB012852D135A135A001F0C7
:1017900095FD2CA13548FEF721FD0746394634A0BA
:1017A00001F08CFD78213348FEF70DFD25A12F486F
:1017B000FEF714FD064600200690002406AB2D4AD5
:1017C0002DA1304603F0E9FC0AE0611C8900294B99
:1017D0005A582A4908190223012103F067FC641CA6
:1017E0000699481E06900029EFD11DA11DA001F009
:1017F00065FD2248C01E807A2049C91E497A1F4AC9
:10180000D21E127A1D4BDB1EDB79019302920391EB
:1018100004901A48C01E807900901848C01E437971
:101820000279C17816A001F049FD012007B0F0BD92
:10183000681C85B27D20C00002F024F9032D9DDBD9
:101840000020F3E72B4445564555493A0000000077
:10185000DC05000041542B4445564555493F0000E6
:101860004C4F47000A5B25735D00000072010020A9
:1018700025730000100D002020000000BB0C00208C
:101880004465764555493A20253032782025303256
:101890007820253032782025303278202530327873
:1018A00020253032782025303278202530327800DB
:1018B00070B500241BE010A2104911A0FFF748FBEF
:1018C00001280ED112A113A001F0F8FC13A11648B3
:1018D000FEF784FC0546294614A001F0EFFC012028
:1018E00070BD601C84B27D20C00002F0CBF8032CD8
:1018F000E1DB0020F4E700004F4B0000DC050000B6
:1019000041542B44415441524154453F0000000092
:101910004C4F47000A5B25735D0000002B44415487
:1019200041524154453A00007201002025730000E5
:1019300070B500241BE010A2104911A0FFF708FBAE
:1019400001280ED111A112A001F0B8FC12A1144877
:10195000FEF744FC0546294612A001F0AFFC012029
:1019600070BD601C84B27D20C00002F08BF8032C97
:10197000E1DB0020F4E700004F4B0000DC05000035
:1019800041542B465245513F000000004C4F470048
:101990000A5B25735D0000002B465245513A00005A
:1019A0007201002025730000F0B58FB0002571E0B2
:1019B0003AA23B493BA0FFF7CBFA012864D13CA1F6
:1019C0003CA001F07BFC3DA13F48FEF707FC074629
:1019D00039463EA001F072FC78213D48FEF7F3FB4A
:1019E00036A13948FEF7FAFB064600200E90002487
:1019F0000EAB374A37A1304603F0CFFB0AE0611C3B
:101A00008900334B5A58344908190223012103F045
:101A10004DFB641C0E99481E0E900029EFD124A1A5
:101A200024A001F04BFC2C48C07B2B49897B2A4A1F
:101A3000527B294B1B7B09930A920B910C902648F1
:101A4000C07A2549897A244A527A234B1B7A059316
:101A50000692079108902048C17980791E4A5279F0
:101A60001D4B1B7901930292049103901A48C07890
:101A700000901948837842781738C17D174801F0E3
:101A80001DFC01200FB0F0BD681C85B27D20C00098
:101A900001F0F8FF032D8BDB0020F3E74F4B000034
:101AA000DC05000041542B4E574B534B45593F002A
:101AB0004C4F47000A5B25735D0000002B4E574BCF
:101AC000534B45593A000000720100202573000075
:101AD000100D002020000000EF0C00205C650000CD
:101AE00070B500241BE010A2104911A0FFF730FAD6
:101AF00001280ED111A112A001F0E0FB12A114489F
:101B0000FEF76CFB0546294612A001F0D7FB012029
:101B100070BD601C84B27D20C00001F0B3FF032CB7
:101B2000E1DB0020F4E700004F4B0000DC05000083
:101B300041542B504F52543F000000004C4F47007F
:101B40000A5B25735D0000002B504F52543A000091
:101B5000720100202573000070B500241BE010A264
:101B6000104911A0FFF7F4F901280ED110A111A01E
:101B700001F0A4FB11A11348FEF730FB05462946EE
:101B800011A001F09BFB012070BD601C84B27D2080
:101B9000C00001F077FF032CE1DB0020F4E7000038
:101BA0004F4B0000DC05000041542B5258323F00DF
:101BB0004C4F47000A5B25735D0000002B525832E2
:101BC0003A000000720100202573000070B5002467
:101BD0001BE010A2114912A0FFF7BAF901280ED19B
:101BE00011A112A001F06AFB0AA11248FEF7F6FA51
:101BF0000546294610A001F061FB012070BD601C64
:101C000084B27D20C00001F03DFF032CE1DB002009
:101C1000F4E700002B56455200000000DC050000F0
:101C200041542B5645523F004C4F47000A5B2573E9
:101C30005D000000720100202573000010B5002433
:101C400019E00FA20F4910A0FFF782F901280CD16B
:101C500010480078400840000E49087000BF03F0AB
:101C6000DDFD0028FBD0012010BD601C84B27D206A
:101C7000C00001F007FF032CE3DB0020F4E70000C5
:101C80004F4B0000DC05000041542B464143544FAC
:101C900052590000B80C002010B500240DE009A234
:101CA00009490AA0FFF754F9012800D110BD601CB2
:101CB00084B27D20C00001F0E5FE032CEFDB0020A4
:101CC000F4E700004F4B0000DC05000041542B53AB
:101CD0004156450010B590B00024242218A107A851
:101CE000FEF758FA1F48807C1E49497C1D4A127C29
:101CF0001C4BDB7B02930392049105901948807B77
:101D00001849497B009101901648037BC27A16A1BD
:101D100007A802F005FC0EE020A2214907A8FFF762
:101D200017F9012801D110B010BD601C84B27D20CC
:101D3000C00001F0A7FE032CEEDB0020F3E700005B
:101D400041542B4150504555493D2046462046467A
:101D500020464520303020303020303020303020B8
:101D600030310000B80C002041542B4150504555F3
:101D7000493D2025303278202530327820253032F8
:101D8000782025303278202530327820253032787E
:101D90002025303278202530327800004F4B00006B
:101DA000DC05000010B59EB00024402227A10EA83B
:101DB000FEF7F0F93548C07B3449897B334A527BC2
:101DC000324B133BDB7F0A930B920C910D902F4803
:101DD0001338827F417F007F2C4B133BDB7E0693C1
:101DE00007AB07C329481338807E28491339497E39
:101DF000264A133A127E254B133BDB7D0293039256
:101E00000491059021481338807D20491339497D7C
:101E1000009101901D481338037DC27C1C490EA817
:101E200002F07EFB0EE01BA21B490EA8FFF790F804
:101E3000012801D11EB010BD601C84B27D20C000FD
:101E400001F020FE032CEEDB0020F3E741542B4190
:101E500050504B45593D20324220374520313520E6
:101E6000313620323820414520443220413620414D
:101E7000422046372031352038382030392043463B
:101E80002034462033432C3000000000CB0C0020CF
:101E9000A46400004F4B0000DC0500003EB5044682
:101EA000002522460BA1684602F03AFB0DE00CA289
:101EB0000C496846FFF74CF8012800D13EBD681C6C
:101EC00085B27D20C00001F0DDFD032DEFDB002099
:101ED000F4E7000041542B42414E443D256400008C
:101EE0004F4B0000C40900003EB5044600250EA279
:101EF00007CA6B4607C322460EA1684602F010FBD4
:101F00000DE00FA20F496846FFF722F8012800D123
:101F10003EBD681C85B27D20C00001F0B3FD032DDD
:101F2000EFDB0020F4E7000041542B434C415353B6
:101F30003D30000041542B434C4153533D25640038
:101F40004F4B0000DC0500007FB504460D4600261F
:101F50000FA30FCB03936B4607C32B46224610A15A
:101F6000684602F0DDFA0EE012A213496846FEF759
:101F7000EFFF012801D104B070BD701C86B27D2036
:101F8000C00001F07FFD032EEEDB0020F3E7000030
:101F900041542B434F4E4649524D3D312C330000A6
:101FA00041542B434F4E4649524D3D25642C2564E8
:101FB000000000004F4B0000DC05000010B50024BD
:101FC0000DE009A209490AA0FEF7C2FF012800D1CD
:101FD00010BD601C84B27D20C00001F053FD032CB5
:101FE000EFDB0020F4E700004F4B0000DC050000B1
:101FF00041542B4A4F494E3D312C312C31322C313A
:102000003000000010B500240DE009A209490AA023
:10201000FEF79EFF012800D110BD601C84B27D2018
:10202000C00001F02FFD032CEFDB0020F4E70000DF
:102030004F4B0000DC05000041542B4F5441413D03
:10204000312C30003EB5044600250EA207CA6B466F
:1020500007C322460EA1684602F062FA0DE010A204
:1020600010496846FEF774FF012800D13EBD681C88
:1020700085B27D20C00001F005FD032DEFDB0020BF
:10208000F4E7000041542B504F52543D32300000D1
:1020900041542B504F52543D2530327800000000FF
:1020A0004F4B0000DC05000010B51EA001F006F942
:1020B0002CA001F003F93BA001F000F902220E214F
:1020C00048A001F0FBF8012156480172FF202D3095
:1020D0005549088201F0E2FFFEF79CFD402153487C
:1020E00000F0DFFF00280DD04F4800781021884312
:1020F0004D4908704EA14FA001F0E0F84FA001F04B
:10210000DDF80DE04848007810218843103046493A
:10211000087047A147A001F0D1F84EA001F0CEF819
:1021200010BD00000A2A2A2A2A2A2A2A2A2A2A2A0A
:102130002A2A2A2A2A2A2A2A2A2A2A2A2A2A2A2AFF
:102140002A2A2A2A2A2A2A2A2A2A2A2A2A2A2A2AEF
:102150002A2A2A2A2A2A2A2A2A2A2A2A2A2A2A2ADF
:102160002A0A00002A2A2A2A2A2A2A2A2A2A2A2A43
:102170002A2A2A2A2A2A2A2A2A2A2A2A2A2A2A2ABF
:102180002A2A2A2A2A2A2A2A2A2A2A2A2A2A2A2AAF
:102190002A2A2A2A2A2A2A2A2A2A2A2A2A2A2A2A9F
:1021A0000A0000002A2A2A2A2A2A2A2A2A2A2A2A2D
:1021B0002A2A2A20484B54203A20536D6F6B652001
:1021C000416C61726D202A2A2A2A2A2A2A2A2A2A5E
:1021D0002A2A2A2A2A2A2A2A2A2A2A2A2A2A2A0A7F
:1021E000000000002A2A2A2A2A2A2A2A20484152A4
:1021F00044574152455F5645523A20307825303297
:1022000078202C534F4654574152455F5645523A19
:1022100020307825303278202A2A2A2A2A2A2A2A87
:102220000A000000F80C0020A40C002000000B4065
:102230004C4F47000A5B25735D000000536D6F6BC8
:10224000652042617474657279204C6F7721212179
:1022500021000000536D6F6B6520426174746572DC
:1022600079204E6F726D616C2121212100000000E8
:1022700000B587B000200490059006900190029070
:10228000039001218903059888434018059089002F
:1022900004988843401804904900049888434018E3
:1022A000049089100598884340180590012304A8DC
:1022B00007C800F055FA012240211046FEF716FE2D
:1022C00002224021854800F0D3FE002240218348AD
:1022D00000F0F9FE01224021804800F0B5FE012205
:1022E00080210020FEF702FE022280217C4800F0BF
:1022F000BFFE002280217A4800F0A6FE0122802144
:10230000774800F0ABFE012240210020FEF7EEFDF1
:1023100002224021724800F0ABFE002240217048AA
:1023200000F092FE012240216D4800F097FE01224C
:1023300002210020FEF7DAFD02221146684800F073
:1023400097FE00220221664800F07EFE0122022153
:10235000634800F083FE7D20C00002F097FF00215B
:102360000720FEF7A3FD07200190012168460172B6
:10237000032141810421017301A800F013FD012113
:10238000072000F01FFD00210620FEF78FFD06202C
:10239000019001216846017203214181017301A866
:1023A00000F000FD0121062000F00CFD00210120BD
:1023B000FEF77CFD01200190012168460172032196
:1023C00041810421017301A800F0ECFC01210846C1
:1023D00000F0F8FC042001F021FC062001F01EFCB6
:1023E00000218020FEF762FD00214020FEF75EFD07
:1023F00000210220FEF75AFD0F21032001F018FCF6
:10240000032001F00BFC012000F016FD0122102139
:102410001046FEF76BFD02221021304800F028FE26
:10242000002210212D4800F04EFE012210212B48E1
:1024300000F00AFE012291030020FEF757FD022260
:102440005103274800F014FE00220121890324488B
:1024500000F039FE01229103214800F0F5FD012230
:10246000D1030020FEF742FD022291031C4800F038
:10247000FFFD00220121C903194800F024FE0122BA
:10248000D103174800F0E0FD012208211046FEF7B5
:102490002DFD02220821114800F0EAFD002208214A
:1024A0000E4800F0D1FD012208210C4800F0D6FDB5
:1024B000012204211046FEF719FD022204210748DB
:1024C00000F0D6FD00220421044800F0BDFD0122E9
:1024D0000421024800F0C2FD07B000BD00200B40FF
:1024E00000000B400EB500200090019002900121E9
:1024F000090402988843401802900123684607C8DF
:1025000000F02EF97D2189010A4800F040F80021F1
:10251000084800F03EF80121064800F02CF801219F
:10252000044800F01CF8112001218140024A11608A
:1025300000BF0EBD0060074000E100E010B5034899
:1025400000F006F801F09EFE10BD0000006007409C
:102550004168490849004160BFF34F8F7047002927
:1025600004D0026804231A43026003E002680423D3
:102570009A4302607047002904D0026801231A437D
:10258000026003E002685208520002607047C160B6
:102590007047816070470000014604488068084029
:1025A000002801D0012070470020FCE7008008408F
:1025B00070B504461F48406B4607760F00F03EF8A2
:1025C0002060330001F0E9FF081605080B16160E0F
:1025D00012162068606010E0174860600DE0164831
:1025E00060600AE00120C003606006E07D20000218
:1025F000606002E00020606000BF00BF0D48056A17
:10260000052D02D36068400901E06068E840A060E1
:102610000848806A072109040840050C072D04D1E9
:102620000321A068FDF7A0FD01E0A068E840E0609C
:1026300070BD00000080084000127A00F0B5174815
:102640000068FF2701373840040A1448C069C50FE5
:10265000124840687F003840460A002E01D1002011
:10266000F0BD002C01D10E4800E00D480346012DBD
:1026700001D11846F4E7094880690F27FF05384063
:10268000C10D002900D110210448806903277F056E
:102690003840420D18464843D040E1E700800840EA
:1026A00000127A007FB50446601180000A4946187E
:1026B00000252E2C00D10225E406E40E0321A140C2
:1026C00030680840E04045196846FFF771FF0298FE
:1026D000E84004B070BD0000388008400248406BFC
:1026E0004007400F70470000008008400449096817
:1026F0006022914342011143014A1160704700007A
:102700004080084007490968490849000143054AD3
:102710001160114609680222914342001143014AA7
:102720001160704740800840044949680122D20284
:102730009143C2021143014A516070470080084032
:10274000002905D0054A52680243044B5A6004E050
:10275000024A52688243014B5A6070470083084026
:102760003FB50E4C606AE16A226B0446009DAC43A3
:1027700020460C46019DAC4321461446029DAC43C5
:102780002246002B05D0009C2043019C2143029C43
:102790002243024C6062E16222633FBD0080084038
:1027A000054A926A072383409A430B4683401A43A3
:1027B000014B9A62704700000080084000B5014656
:1027C000FF2209484068C008C0000843064B586013
:1027D00005E0FFF783FF884201D1012000BD501EB4
:1027E000021EF6D100BFF9E700800840F8B50546A3
:1027F0000E461746294608A000F060FD002404E0BC
:10280000315D0AA000F05AFD641CBC42F8DB09A04F
:1028100000F054FDF8BD00000A5561727420446157
:102820007461205B25735D3A000000002025303282
:10283000780000000A00000010B55F488089002879
:102840007ED15E48008A0028FAD15D480078C00732
:10285000C00F002809D05B480078002805D15748F0
:1028600000788006C00F00280AD055480078C007BD
:10287000C00F0028E4D152484030C07900285FD012
:10288000002003F08BFD4D480078082188434B4918
:102890000870012000F060FA062000F05DFA0720C1
:1028A00000F05AFA0221484800F0FBFB002805D04E
:1028B00001221146104600F099FA04E0012200219D
:1028C000104600F093FA80213F4800F0EAFB002810
:1028D00005D001221146072000F088FA04E0012209
:1028E0000021072000F082FA4021374800F0D9FB90
:1028F000002805D001221146062000F077FA04E0F6
:1029000001220021062000F071FA012000F094FA63
:1029100001F0E2FD2DA12EA000F0D0FC2E480168B0
:102920002EA000F0CBFC012001F0D2F901F0D4FD83
:10293000224800780007C00F00280FD01F4800E091
:1029400039E00078082188431C4908701FA120A0A5
:1029500000F0B4FC30A000F0B1FC28E0174800788B
:10296000C007C00F002807D018A119A000F0A6FCCE
:1029700031A000F0A3FC1AE0104800788007C00FD7
:10298000002807D011A112A000F098FC33A000F09D
:1029900095FC0CE0094800784007C00F002806D0DD
:1029A0000AA10BA000F08AFC35A000F087FCFEF71E
:1029B00031F900F08FFB10BD64010020A40C002051
:1029C000B80C00204400002000000B404C4F470092
:1029D0000A5B25735D000000400000203E3E3E3E45
:1029E0003E3E3E3E2044657669636520456E7465D3
:1029F0007220536C6565702C204E65787420576189
:102A00006B652054696D6520256473203C3C3C3C1B
:102A10003C3C3C3C000000004465766963652057FF
:102A2000616B652055702046726F6D204558544982
:102A300020525443000000004465766963652057C6
:102A4000616B652055702046726F6D204558544962
:102A5000204441543120494F00000000446576690C
:102A600063652057616B652055702046726F6D203D
:102A700045585449204441543220494F0000000039
:102A80004465766963652057616B65205570204603
:102A9000726F6D20455854492041554520494F00DB
:102AA00010B527480078C007C00F002846D0254839
:102AB0008089002842D12448007800282AD00021AB
:102AC00020480181C821C038FDF77DFB64211F48E3
:102AD000FDF779FB1D4C01221D491E4803F042F908
:102AE0001B48027821461B4803F03CF91648007841
:102AF000401E1549087003F0D1FA134800780028E9
:102B000007D1012189021448FDF75DFB114803F04C
:102B100089F913E0114800788006C00F00280DD015
:102B20000E480078202188430C49087008468068C8
:102B30003C2148430949C86000F012F810BD00006C
:102B4000B80C00206401002044000020400C00204C
:102B500045000020240C002024080020A40C0020A4
:102B600070B5364D002464212846FDF72CFB00206B
:102B7000334908702946012003F098FB04462D19BB
:102B80002F48007800192E4908702946892003F043
:102B90008DFB04462D192A48007800192849087031
:102BA0002946272003F082FB04462D19244800788B
:102BB0000019234908702946282003F077FB0446B2
:102BC0002D191F48007800191D4908702946092051
:102BD00003F06CFB04462D191948007800191849B8
:102BE00008702946862003F061FB04462D1914481D
:102BF0000078001912490870124803F039F80646A7
:102C00000F480078401C864210DB01220C490D4819
:102C100003F03EF90A48027808490A4803F038F9F7
:102C200009480078401C0849087006E007A109A07F
:102C300000F044FB09A000F041FB70BD400C0020F7
:102C400045000020240C0020440000204552524F33
:102C5000520000000A5B25735D0000004C77726231
:102C600020416C72656164792046756C6C000000CF
:102C700010B5012000F088F8002809D0012000F0EC
:102C80006BF81448007804218843001D114908702E
:102C9000062000F079F8002809D0062000F05CF842
:102CA0000C48007802218843801C0A4908700720DC
:102CB00000F06AF8002809D0072000F04DF8054818
:102CC000007840084000401C02490870002000F0D5
:102CD000B3F810BDA40C002010B5012000F046F898
:102CE000002809D0012000F02DF8044800780421C4
:102CF0008843001D0149087010BD0000A40C00208D
:102D000010B5062000F032F8002809D0062000F0A7
:102D100019F80B48007840084000401C084908702A
:102D2000072000F023F8002809D0072000F00AF857
:102D30000348007802218843801C0149087010BDB7
:102D4000A40C0020014601228A401046014A50602E
:102D5000906070474040024001218140024A9161E9
:102D6000BFF34F8F704700004040024001460548C6
:102D7000406801228A401040002801D0012070479D
:102D80000020FCE7404002400146054880690122DE
:102D90008A401040002801D0012070470020FCE745
:102DA000404002400279D207037A1B071A43C388C6
:102DB0001A43114602689200014BD2181160704705
:102DC00000400240012907D1074A126801238340CD
:102DD0001A43054B1A6006E0034A12680123834038
:102DE0009A43014B1A6070474040024010B5012AD7
:102DF00018D1002907D10F4B5B6901248440A343FC
:102E00000C4C636106E00B4B5B6901248440234357
:102E1000084C6361074B1B69012484402343054C24
:102E2000236106E0034B1B6901248440A343014C4A
:102E3000236110BD40400240012806D106490969BE
:102E4000C2071143044A116105E0034909694900B9
:102E50004908014A116170474040024070B504467C
:102E60002546284600F008F80646002E01D000202E
:102E700070BD0120FCE7000010B504460348046063
:102E800008200249C86000F035F810BD0000084075
:102E900030B504460D4604480460456004200249EC
:102EA000C86000F027F830BD0000084010B52D20A4
:102EB00040010249886000F087F810BDA40C002092
:102EC00001460A4A10680A4A0240084B1A60084A3A
:102ED000D21F02400A431A601A461268044BDB43B1
:102EE00003401A43014B1A6070470000000208407B
:102EF000EFEFFFFF174A1848406902231843164BAB
:102F000058611420186106E0134800690C2318402A
:102F10000C2800D103E01046521E0028F4D100BF57
:102F20000D4881698069022398430B4B9861012009
:102F300040040840002801D00220704702200840C9
:102F4000002801D00120F8E7002A01D10320F4E78E
:102F50000020F2E7FFFF0F000000084010B503203B
:102F6000800304680A2C03D32D204001844201D938
:102F7000002C02D10848846003E02D20400106495E
:102F8000886006A107A000F099F90348816807A0AE
:102F900000F094F910BD0000A40C0020464C4153F1
:102FA000480000000A5B25735D0000005265616403
:102FB000205265706F727420496E74657276616C10
:102FC0002025646D696E000070B50E488568032089
:102FD0008003FFF743FF0446294603208003FFF7E1
:102FE00057FF044008A10AA000F068F9002C01D0A6
:102FF00009A000E00AA00246024881680AA000F089
:103000005DF970BDA40C0020464C415348000000FF
:103010000A5B25735D00000053756363657373007D
:103020004661696C00000000577269746520526542
:10303000706F727420496E74657276616C202564BD
:103040006D696E2025730000002A03D003680B43CE
:10305000036002E003688B4303607047002A03D0DB
:1030600043680B43436002E043688B43436070470F
:10307000002A06D183680B438360C3688B43C36017
:103080000EE0012A06D1C3680B43C36083688B43FB
:10309000836005E083688B438360C3688B43C360B0
:1030A00070470246D3690B40002B01D0012000E09D
:1030B000002070470246136A0B40002B01D001200C
:1030C00000E000207047002A01D0416200E08162E8
:1030D0007047000010B559480078C007C00F00289D
:1030E00005D1564800784007C00F002857D05348F4
:1030F00000784008400051490870084600780421D3
:1031000088434E49087080214D48FFF7CAFF0028C8
:1031100020D002214A48FFF7C4FF00281AD14748AF
:103120000078C00900283AD14448007880218843BB
:1031300080304249087008460078202188432030BA
:103140003E4908703FA141A000F0B8F841A000F04E
:10315000B5F824E080213A48FFF7A3FF00281ED1EC
:1031600002213748FFF79DFF002818D03348007828
:10317000C009002813D031480078802188432F49A6
:103180000870084600782021884320302B490870B9
:103190002CA12EA000F092F832A000F08FF8274862
:1031A00000788007C00F002847D02448007802210B
:1031B00088432249087040212148FFF772FF002808
:1031C0001AD01E480078C006C00F002814D01B4833
:1031D000007810218843194908700846007820219A
:1031E000884320301549087016A118A000F066F831
:1031F00021A000F063F820E040211148FFF751FFC3
:1032000000281AD10D480078C006C00F002814D13C
:103210000A48007810218843103008490870084691
:1032200000782021884320300449087005A107A0B8
:1032300000F044F816A000F041F810BDA40C0020E6
:1032400000000B405741524E000000000A5B2573FE
:103250005D000000536D6F6B6520416C61726D21E4
:1032600021212100536D6F6B6520446973416C61AE
:10327000726D212121210000536D6F6B6520426129
:103280007474657279204C6F772121212100000030
:10329000536D6F6B652042617474657279204E6F57
:1032A000726D616C212121210000000000BF0248E5
:1032B00000680028FBD070474C0000200FB438B5E0
:1032C0000498002804D00498FCF79CFF002803D140
:1032D00038BC08BC04B0184705A800900748009AFD
:1032E000049901F031F9054600200090034CA9B281
:1032F000204600F005F800BFEAE700003006002095
:10330000F8B504460D46002627460EE000BFFF2113
:103310000131074801F07EF80028F8D03046721CD1
:1033200096B2395C024801F0C5F8AE42EEDBF8BD5A
:103330000010044000B587B000200490059006906E
:103340000121890305988843401805908900049855
:103350008843401804904911059888434018059007
:10336000012304A807C8FFF7FBF900222021184811
:10337000FFF77EFE062210210020FDF7B7FD062292
:1033800020210020FDF7B2FDE12040020190FF2145
:10339000013168460181002141818181C18101A9FA
:1033A0000C4801F041F8012200210A4801F084F89C
:1033B00001221146074801F07FF81A2000F024FC92
:1033C00001221146034801F067F807B000BD000074
:1033D00000000B400010044030B593B0A3A207CA10
:1033E00010AB07C3A4A103C90F910E90012002F0F6
:1033F000D5FF012002F0C4FF02F032FE142000F0DD
:1034000041FBFEF71BFCFEF7B5F9FEF7DFFB0422DC
:103410009B4908461C30FCF7BDFE08229949984894
:10342000001DFCF7B7FE1022974995480C30FCF7B9
:10343000B1FE0422954992481C30FCF7ABFE1022E5
:1034400093498F482030FCF7A5FE102291498C4803
:103450003030FCF79FFEFEF7D5FDFEF73BFCFEF794
:10346000A1FC5D20FEF71AFD0020FEF73DFD0A20BD
:10347000FEF7E8FD03210120FEF766FDFEF79EFD45
:10348000FEF70AFC142000F0FDFA02F0E9FDFDF75A
:10349000F5FEFDF753FEFEF7E7F8FDF793FFFEF7A5
:1034A00083FAFEF767F8FEF71BFBFEF701FAFEF75B
:1034B0003FFAFEF751FBFEF799F8FEF71FF80020E0
:1034C00002F06CFF69A20A2110A801F00DF86AA2AF
:1034D00005210EA801F008F86FA0FFF7EFFE00F03D
:1034E0004BFB044678A0807930380A21484376A106
:1034F000C97940180146303973A0C07830380A22A3
:10350000504371A2127980180246303A6EA00078BA
:1035100030380A2358436CA35B78C0180346303B0D
:103520006CA00079202801D1002002E069A0007978
:1035300030380A25684367A56D79303D40190593F9
:1035400006920791049063A0C07930380A2148435D
:1035500060A1097A401830380A2148435DA1497AB0
:10356000303940180A2148435AA1897A3039401825
:103570005BA10EAA10AB039400920191029002226B
:103580000E2158A0FFF79AFE3D48C01F817A427A6B
:10359000007A3B4BDB1FDB7901930392049102908D
:1035A0003748C01F807900903548C01F43790279A1
:1035B000C1785AA0FFF782FE31480C30C07B3049F9
:1035C0000C31897B2E4A0C32527B2D4BDB1FDB7F6B
:1035D00009930A920B910C902948C01F817F407F6C
:1035E000274AD21F127F264BDB1FDB7E05930692F4
:1035F000089107902248C01F807E2149C91F4A7E3A
:10360000097E1F4BDB1FDB7D019303920291049027
:103610001B48C01F807D00901948C01F437D027D5C
:10362000C17C4948FFF74AFE1548C01F807C1449F9
:10363000C91F497C124AD21F127C114BDB1FDB7B56
:1036400001930292039104900D48C01F807B00906B
:103650000B48C01F437B027BC17A3CA0FFF72EFEC4
:103660000DA0FFF72BFE13B030BD000041533932DF
:10367000335F4153320000004F54414100000000CD
:10368000BF0C0020500000205800002068000020DF
:103690006C0000207C0000200D0A2A2A2A2A2A2AEF
:1036A0002A2A2A2A2A2A2A2A2A2A2A2A2A2A2A2A7A
:1036B0002A2A2A2A2A2A2A2A2A2A2A2A2A2A2A2A6A
:1036C0002A2A0D0A0000000031353A33373A3137E3
:1036D000000000004D617920313520323032340055
:1036E000410000000D0A536F66745665723A562504
:1036F000642E25645F25735F25735F436C6173736C
:1037000025735F4C49525F25642E25642E25645F26
:1037100025643A25643A25640D0A00000D0A4465C3
:10372000764575693A253032782530327825303241
:10373000782530327825303278253032782530328D
:1037400078253032780D0A00586400000D0A417067
:10375000704575693A253032782530327825303217
:10376000782530327825303278253032782530325D
:1037700078253032780D0A0010B502F0B7F8894983
:103780000968884200D210BD02F0B0F8FF30F53071
:1037900084490860084600688349884202D90020AD
:1037A000804908608148007A030000F0F6FE0504B5
:1037B000193C7793F6007E4800687E490968884284
:1037C0000DD87A48007A002809D17848C0790228B3
:1037D00005D1032078490882012174480172DDE097
:1037E00072484038007840084000704940390870FD
:1037F000012002F0D3FD012002F0C2FD02F030FCF6
:10380000142000F03FF9002002F0BAFD642000F01F
:1038100039F9002069490870022164480172782052
:103820006549088200BF01F0F9FF002811D002F0BD
:1038300041F800280DD003215C48017203205E4945
:1038400008825FA15FA0FFF739FD60A0FFF736FD9A
:1038500023E05A480078401C5849087058A159A0E4
:10386000FFF72CFD5548017861A0FFF727FD53486D
:103870000078F02811DB00205049087064A151A0A5
:10388000FFF71CFD64A0FFF719FD03204A490882D9
:1038900002214648C171042101727FE0434840384B
:1038A000007840084000401C404940390870002022
:1038B000614908704149087000213C480172C1719A
:1038C0003D4800782021884320303B490870032080
:1038D000088263E00021354801720221C171344839
:1038E00000683449096888424BD853480078401C26
:1038F0005149087008460078052801DD0520087048
:103900004D480078030000F048FE062B040C141C00
:10391000242B28480068E121C90040182449086088
:1039200025E024480068E121090140182049086089
:103930001DE020480068E121490140181C49086049
:1039400015E01C480068E121C901401818490860C9
:103950000DE018480068394940181549086006E02C
:1039600014480068354940181149086000BF00BF7D
:1039700013A114A0FFF7A2FC0D48016830A0FFF7C7
:103980009DFC002002F00AFD35A10EA0FFF796FC79
:1039900035A0FFF793FC01E0FFE700BF00BF00BFC9
:1039A000F1E6000094000020005C2605F80C0020E1
:1039B0009000002018000020A40C00209800002097
:1039C0004C4F47000A5B25735D000000536D6F6B21
:1039D000652053656E736F72204C6F526120526583
:1039E0006769737465722053756363657373000050
:1039F0004C6F526157414E205761697420456E7477
:103A0000657220496E204E65742025640000000018
:103A10005741524E000000004C6F526157414E20FA
:103A2000456E74657220496E204E65742054696D30
:103A3000656F7574210000008C000020805101002A
:103A4000557064617465205265636F6E6E65637452
:103A50002054696D657374616D703A20256C640043
:103A60004552524F520000004C6F526157414E2058
:103A7000456E74657220496E204E657420457272E1
:103A80006F72210010B50446204601F0FFFB10BD07
:103A900070B504462046FCF7B5FB85B229462046A2
:103AA00000F001F870BDF8B504460D460026274623
:103AB0000FE000BFFF210131880500F0ABFC0028BA
:103AC000F8D03046721C96B2395C0120800700F0B5
:103AD000F1FCAE42EDDBF8BD00B587B000200490EC
:103AE00005900690012189030598884340180590A8
:103AF0008900049888434018049009120598884367
:103B000040180590012304A807C8FEF729FE0022EB
:103B100008211848FFF7ACFA062204210020FDF71F
:103B2000E5F9062208210020FDF7E0F94B20C0014D
:103B30000190FF210131684601810021418181818D
:103B4000C18101A90120800700F06EFC0122002143
:103B5000900700F0B1FC01221146900700F0ACFC88
:103B6000172000F051F801221146900700F094FC54
:103B700007B000BD00000B401FA1897870292ED02E
:103B80000CDC672929D004DC622918D063292ED1E6
:103B90002BE06C291FD06E2929D108E0722910D0A2
:103BA00074291ED076291ED0792920D111E012A1C6
:103BB0004978612901D1012000E0062019E00220A6
:103BC00017E00DA14978612901D1032000E004200C
:103BD0000FE005200DE007200BE0082009E0092098
:103BE00007E00A2005E00B2003E00C2001E00020A4
:103BF00000BF00BF704700004D6179203135203291
:103C00003032340070470000C206D20E01219140CC
:103C1000014A11607047000000E100E0C206D20EC8
:103C200001219140014A11607047000000E100E06D
:103C300010B5002819DA1A4A03071B0F083B9B0826
:103C40009B00D2588307DC0EFF23A3409A438B07C7
:103C50001B0E8407E40EA3401A43114B0407240FE4
:103C6000083CA408A4001A5118E00E4A03231B02C2
:103C7000D21883089B00D2588307DC0EFF23A34091
:103C80009A438B071B0E8407E40EA3401A43054B8F
:103C9000032424021B198408A4001A5110BD00003B
:103CA0001CED00E000E100E001200849486000BF91
:103CB000064840680121090388430028F8D100BF65
:103CC000024800680028FBD17047000000A10640B0
:103CD00000211F4A126B5206D10F1D4A126B40235E
:103CE0001A431B4B1A631B4A52681204D20F002A54
:103CF0000BD1184A526880239A43164B5A601A46D1
:103D0000526880231A43134B5A60124A52680823A0
:103D10009A43104B5A60002905D10D4A126B40237B
:103D20009A430B4B1A630C4A126904231A430A4B39
:103D30001A61002803D140BF20BF20BF00E030BF80
:103D4000054A126904239A43034B1A617047000025
:103D50000080084000A1064000ED00E07047000030
:103D60003FB50E4C6068A168E2680446009DAC4314
:103D700020460C46019DAC4321461446029DAC43AF
:103D80002246002B05D0009C2043019C2143029C2D
:103D90002243024C6060A160E2603FBD00810840A8
:103DA000002806D00649896810221143044A916010
:103DB00005E00349896810229143014A91607047E8
:103DC00000A0064004498968022291434200114341
:103DD000014A91607047000000A00640002806D00C
:103DE0000649896801221143044A916005E00349AC
:103DF000896849084900014A9160704700A006405F
:103E000010B5012001218140154A116000BFFFF764
:103E10004BFF012000F0E2F8012000F0BDF800BFE8
:103E20001020FEF7B9FB0028FAD00120FFF7CAFFE7
:103E30000121022000F0A0F80121480200F0ECF876
:103E40000F20000200F0DCF80120FFF7A9FF054871
:103E5000006800F0CFF80120FFF7C0FF10BD0000A0
:103E600000E100E0400000200148C068C0B2704797
:103E700000A0064010B5FFF7F7FF04463948007868
:103E80000821884308303749087002202040002864
:103E900067D03548006835490968401832490860DC
:103EA00030488068002820D02E48C0682F49096813
:103EB000884207D92B48C0682C490968401A29490B
:103EC000C86012E0274880683C2148432549C86003
:103ED000084600782021884320302249087008468F
:103EE000008A032801DA03200882214800681E495D
:103EF000096888420BD81F48007A002807D11D485E
:103F0000C079022803D1FF202D30164908823C20B9
:103F100016490860084600681549096888420ED9A4
:103F2000144840380078C007C00F002807D1104857
:103F30000068002803D00E4800680C490860094852
:103F4000C0680A490968884207D20648C068002844
:103F500003D00448C068054908600448006800F0C0
:103F600049F810BDA40C00201800002040000020DB
:103F700090000020F80C0020002905D0054A1269A5
:103F80000243044B1A6104E0024A12698243014B66
:103F90001A61704700A0064000280DD10D498968BC
:103FA000082291430B4A916000BF0B498968102297
:103FB00011400029F9D10CE0064989680822114313
:103FC000044A916000BF0449896810221140002909
:103FD000F9D0704700A00640008008400449896875
:103FE0002022914342011143014A91607047000031
:103FF00000A00640014948607047000000A006404C
:10400000044989680F22120291430143014A9160D9
:104010007047000000A00640002905D0054A12693B
:104020000243044B1A6104E0024A12698243014BC5
:104030001A61704700A0064070470000042806D1AE
:104040000649096904221143044A116105E0034944
:10405000096904229143014A1161704700E000E0C0
:10406000002803D10021094A91610EE0012806D100
:104070000649096901221143044A116105E0034917
:10408000096949084900014A1161704700E000E0F0
:10409000014948617047000000E000E010B5FEF7FC
:1040A0005DFF10BD02480068401C01490860704770
:1040B0001400002000B587B00120FEF735FB032077
:1040C000FEF77CFB03A8FEF773FA0020FEF70EFB59
:1040D0000120FEF717FB0120FEF7F2FE0020009002
:1040E00001900290402102988843403002900123C1
:1040F000684607C8FEF734FB01210820FEF720FBC5
:1041000007B000BD5648006B1021084354490863AE
:1041100054485549086100204860084680680005F9
:10412000000D0721090340184F4988604F48486037
:104130004F48086001204F4908604948006B402102
:1041400008434749086300BF4B4880682728FBD1D4
:1041500003E0012040024849486047484068012187
:10416000490208408842F4D102E0002042494860F8
:10417000414840680121490208400028F5D13D49E5
:1041800008603748406A03218902884334494862FD
:10419000084640680121C90208433149486000BF10
:1041A0002F4880680007C00F0028F9D02C484068CD
:1041B000C008C000C01C2A49486000BF2848406BA6
:1041C0004007400F0328F9D12C480068C008C00000
:1041D000401C2A49086000202149086208464068BE
:1041E000491588431E4948600846006889150843F8
:1041F0001B49086000BF2248806808210843204905
:104200008860084680680007C00F0028F3D000BF10
:1042100013488068C006C00F0028F9D01048006B12
:10422000402188430E490863002008620846406820
:10423000C008C000C01C486000BF0948406B400770
:10424000400F0328F9D10D480068102108430B499D
:104250000860034840680915884301494860704771
:1042600000800840CA35000000800640A6AE01006C
:104270000100A05F0083084000A106400002084042
:1042800000A006402C480068401C2B4908602B48C1
:104290000088401C2949088029480068401C28499A
:1042A000086028480068401C264908602648808825
:1042B000002804D024488088401E23498880234851
:1042C0008088002804D021488088401E1F498880AB
:1042D0001F488089002805D01D488089401E81B272
:1042E0001B4881811B480068002804D019480068D9
:1042F000401E18490860134800687D21C9008842A3
:1043000007D300200F49086013480068401C124979
:104310000860094800687D21C90088420BD300204D
:10432000054908600D48008A002804D00B48008A1F
:10433000401E0A49088270471C0000200C00002023
:1043400000000020080000202A060020640300204E
:10435000640100201000002004000020A40C0020B4
:1043600010B50420FFF76AFE0520FFF791FE00203C
:10437000FFF776FE0120FFF773FE0148006910BDCC
:1043800000E000E010B520210D4800F043F80028BF
:1043900015D00B4800F08AF8C4B20A484088FF21C3
:1043A000F53188420ADA074841884088401C054AAE
:1043B00050800548445432201146888000BF10BD0B
:1043C000001004402A0600203804002010B52021E7
:1043D000480600F01FF8002816D00120800700F0E2
:1043E00065F8C4B209484088FF21F53188420ADAED
:1043F000064841884088401C044A50800448445480
:1044000064201146888000BF10BD000064030020B6
:1044100072010020024610690840002801D00120E6
:1044200070470020FCE7000070B504460D46606848
:1044300016490840E9880843A988084329890843A0
:1044400069890843606001208007844207D11820F1
:10445000FEF728F906462968FBF786FE60620C48DD
:10446000844207D11C20FEF71DF906462968FBF798
:104470007BFE60620748844207D11E20FEF712F9D6
:1044800006462968FBF770FE606270BDFCE0FFFF26
:104490000010004000100440002A03D0C3680B4302
:1044A000C36002E0C3688B43C3607047014608687D
:1044B00080B270470160704710B5002A05D043688C
:1044C00010248C402343436004E0436810248C4054
:1044D000A343436010BD00000148024908607047D3
:1044E0000100A05F008006400FB47CB50C0009AD50
:1044F00001D0611E00E0002101910090074B6A4647
:104500002946089800F0C0F9002C02D0009A00213A
:1045100011707CBC08BC04B018470000C54F0000F7
:104520000FB410B504A9074B02AA039800F0ACF928
:10453000044602A9002000F050FD204610BC08BC33
:1045400004B01847DB4F000037B514460846064B49
:104550006A46214600F098F904466946002000F0BA
:104560003CFD20463EBD0000DB4F00002021020C38
:1045700001D010211046020A01D010460839020964
:1045800001D01046091F820801D01046891E42083A
:1045900001D0881E7047081A704730B47446641EF4
:1045A0002578641CAB4204D3635D5B00E31830BC28
:1045B00018471D46F8E700004900CA0202431000F0
:1045C00000D004204A0D01D001221043044A490DB5
:1045D000914201D102210843012800D105207047F2
:1045E000FF070000F8B504464F1EC8000838211820
:1045F00015461E46086849683A4606239A4310D075
:104600002A463346FBF7BEFF3A46D200083AA318C3
:104610001A687F1E5B68FBF701FF06223B46934347
:10462000EED1022F23D0042F11D0062F2FD12A46EE
:104630003346FBF7A7FFE36AA26AFBF7EFFE2A46C1
:104640003346FBF79FFF636A226AFBF7E7FE2A46C1
:104650003346FBF797FFE369A269FBF7DFFE2A46C3
:104660003346FBF78FFF63692269FBF7D7FE2A46C3
:104670003346FBF787FFE368A268FBF7CFFE2A46C5
:104680003346FBF77FFF63682268FBF7C7FEF8BD80
:10469000002210B5134610460149FBF7DBFF10BDA1
:1046A0000000F03F10B50122FCF7ABF910BD00226D
:1046B00010B5134610461146FBF7CCFF10BD0000A5
:1046C00010B50721024A00200907FCF79AF910BD2E
:1046D00001030000034A10B500201107FCF791F90F
:1046E00010BD000001FDFFFF02E008C8121F08C155
:1046F000002AFAD170477047002001E001C1121F63
:10470000002AFBD170470000014908607047000093
:10471000A0000020F0B51FB486B00998089A030DD8
:104720000021024314D05148514A1818504305142F
:104730001198012810981AD0281A401C00264D4FB5
:104740004D49009601910490002812DA444211E08C
:104750001198012449A3012801D11098C14306985A
:10476000119A84600360C26041600BB0F0BD4042AA
:10477000E4E70446210500203F4A001C5141039113
:10478000029012E0E00707D032463B4601990098BC
:10479000FBF7F8FE0191009032463B461046194661
:1047A000FBF7F0FE06460F466410002CEAD1049891
:1047B000039B0028029A0999089806DAFBF7E2FEA3
:1047C000019B009AFBF7DEFE05E0FBF743FF019B30
:1047D000009AFBF73FFF04460E460022284BFCF7E9
:1047E00093F903D80020C043014607E00022254B7F
:1047F00020463146FBF712FEFCF752F9102409E07F
:10480000002C0ADB0A220023FCF708F8079B303251
:104810001A55641E02460A43F2D11122641C079BFA
:10482000121B1C19119B012B03D0012308430ED12D
:104830000AE0084304D0112010900020119077E77F
:104840001098151A6D1E0BE01098824202DD0023AD
:104850006D1C03E0824201DA00236D1E002BEED0B6
:10486000069811998260C16030C07EE701FCFFFFAD
:10487000104D0000000014400000F03F3000000028
:104880000000F0430000E03FFFB597B0064600256A
:104890001BE2252876D100242746F749049400E03E
:1048A0000443761C32780120203A90400842F7D128
:1048B00030782A280ED00222307801463039092972
:1048C00016D804990A235943303940181443761CEA
:1048D0000490F1E7189802C804911890002904DAAE
:1048E0000120400304434842049002200443761C04
:1048F00030782E2814D1042004437078761C2A289E
:1049000009D11898761C80C8189009E00A214F43F5
:10491000303FC719761C3078014630390929F5D95E
:1049200030786C2810D006DC4C281AD068280ED0BD
:104930006A2817D104E0742813D07A2812D110E025
:104940000120400504430CE00121090501E0032199
:1049500009050C437178814203D101200005241818
:10496000761C761C307866280BD013DC58287DD056
:1049700009DC00287BD04528F6D04628F4D047280B
:104980001AD1A9E118E0632835D0642870D06528D1
:1049900012D1A1E170286CD008DC6728F1D0692819
:1049A0007DD06E280DD06F2806D1BCE073282ED0A4
:1049B000752873D0782859D01A9A199990476D1C88
:1049C00082E16002400F022809D003280DD004289C
:1049D000189801680DD00D60001D189074E11898AA
:1049E000EA1701680D604A60F6E7189801680D80C3
:1049F000F2E70D70F0E718986A4601781172001D11
:104A000018900020507202A80090012005E018982C
:104A100002C8189000200091C04361070ED5002104
:104A200001E00199491C0191B94213DA8142F8DB96
:104A3000019A0099895C0029F3D10BE0002101E083
:104A40000199491C01918142FADB019A0099895C24
:104A50000029F5D1019904981A9B471A2146384636
:104A6000199A00F099FA4019019903E051E030E1F8
:104A700015E050E0451807E0009800990078491CBF
:104A800000911A9A199990470198401E0190401C74
:104A9000F2D1214638461A9B199A12E137E00A20D2
:104AA0000021009001916002410F022907D0189A5D
:104AB00001CA1892C2179446032908D00AE0189830
:104AC000C01DC108C90005C91891944607E000B28D
:104AD000C2179446042902D140B2C1178C46002265
:104AE0006146944506DA0A460021404291418C46CF
:104AF0002D2102E0210504D52B216A4611730121E5
:104B000003E0E10701D02021F7E7029156E00A20F7
:104B10000AE0102008E01020009000210420044347
:104B20000191082703E00820002101910090600214
:104B3000410F022907D0189A01CA18920022944600
:104B4000032908D008E01898C01DC108C90005C98C
:104B50001891944603E080B2042900D1C0B200212C
:104B6000029121072AD531780D91702906D0009A3B
:104B70001021019B4A401A4305D00EE040216A46AD
:104B80001173012108E06146014306D030216A46D5
:104B900011730D99517302210291009A0821019B12
:104BA0004A401A430AD16146014301D1610705D544
:104BB00030216A46117301217F1E029131785829F4
:104BC00004D02EA10E910DA90D910DE030A1F9E7B1
:104BD0006146019B009AFBF721FE0E9B8C469B5C75
:104BE0000D9A521E0D92137061460143F0D10D983B
:104BF00005A9081A20300190600703D501200004A0
:104C0000844300E001270198874201DD381A00E063
:104C10000020019900904118029809180498401A40
:104C20000490E00306D421461A9B199A049800F0D8
:104C3000B3F94519002706E003A81A9AC05D19992F
:104C400090476D1C7F1C02988742F5DBE0030CD572
:104C500021461A9B199A049800F09EF9451904E020
:104C60001A9A3020199990476D1C0099481E00909F
:104C70000029F5DC1FE00000092801003031323343
:104C80003435363738396162636465660000000088
:104C90003031323334353637383941424344454672
:104CA000000000000D980D990078491C0D911A9A8A
:104CB000199990476D1C0199481E01900029F1DC5B
:104CC0004DE100F059F94519761C3078002800D0E4
:104CD000DFE528461BB0F0BD600700D40627189812
:104CE000C01DC108C90048680A680831C30FDB0746
:104CF0001891190001D09CA108E0210501D59BA1C4
:104D000004E0E10701D09AA100E09AA143001091CC
:104D100030785B0865280CD006DC452809D0462889
:104D20001DD0472841D141E0662818D067283CD1E2
:104D30003CE00021112F01DB112000E0781C0191E3
:104D4000009008A911A8FFF7E5FC1399059100212F
:104D5000119A15927F1C12980197009150E0012042
:104D6000C00703900120019008A9009711A8FFF740
:104D7000D1FC139A149905920022119B009212986B
:104D80001593059A0192002901D0104602E0791C82
:104D900040180190381A01D5019804E04042401EA5
:104DA0000090781C0190C01B029043E0012F00DAB4
:104DB00001270021112F01DD112000E0384601916B
:104DC000009008A911A8FFF7A5FC13990591119A65
:104DD0000021129815920091019721070CD4059992
:104DE000B94201DB019900E00191012904DD159A26
:104DF000491E515C302906D0B84201DA011D05DA9E
:104E00000121029115E00199491EEDE7002805DC1A
:104E10000099411800910199091A03E0019A411C77
:104E2000914200DD01910099401A401C029001203E
:104E3000C0070390200706D402990198814202DB43
:104E40000020C043029000206946C87707AF0121C7
:104E500003980337C907884224D0022011902B20E1
:104E60001290039800280CDA404203902D201290F3
:104E700007E00A210398FBF777F930317F1E039092
:104E800039701199481E11900029F2DC039800280E
:104E9000EFD1791E129808703078202108404530F3
:104EA000BF1E387006A8C01BC01D03901098007864
:104EB000002800D00120019941180298C017091854
:104EC000039809180498401A401E0490E00306D481
:104ED00021461A9B199A049800F05EF8451910981B
:104EE0000078002803D01A9A199990476D1CE003A6
:104EF00024D521461A9B199A049800F04DF84519BB
:104F00001CE00098002807DB00990598884203DD23
:104F10001598405C199901E0199930201A9A904728
:104F200000986D1C401C00900298401E02900028C2
:104F300004D11A9A2E20199990476D1C0199481E88
:104F400001900029DDDC05E038781A9A7F1C199958
:104F500090476D1C0399481E03900029F4DC2146FC
:104F60001A9B199A0498ACE62D0000002B00000053
:104F70002000000000000000F8B5044600251E4691
:104F80001746880404D405E039462020B0476D1C3C
:104F9000641EF9D52846F8BDFFB50446002581B04A
:104FA0001E46C80301D5302700E02027880404D519
:104FB00005E038460399B0476D1C641EF9D52846B4
:104FC00005B0F0BD4A68002A06D00A68531C0B6081
:104FD00010704868401E486070470A68531C0B6098
:104FE00010707047F0B587B005460E4614461F4650
:104FF00039462046FBF7D4F97F21C9050090FBF71D
:105000008AF90190FBF7C5FB2A46334603910290CB
:10501000FBF7B8FA059104900599049807B0F0BD24
:10502000F0B587B004460D461248134900F046F922
:1050300006460022114BFBF7A5FA03910290204689
:105040002946039B029AFBF705FB064600F054FC39
:1050500002460B460191009000200949FBF7FAFA3D
:1050600005910490074A084B05990498FBF77BFAD1
:1050700007B0F0BD10E0B7AF297F2AC0006AF84042
:1050800000DCAE40666666666612714070B5044626
:105090000125032204492046FBF7BBF8002800D075
:1050A0000025284670BD0000B8630000FFB581B040
:1050B00004461D46002C14D0002A12D0002D10D01A
:1050C000029E002E0DD02846EE0F36187610760080
:1050D000AE1B06D1EE0F761977100095029EB742EF
:1050E00002DD002005B0F0BD0021002300BF50E02C
:1050F000505C612808DB505C662805DC505CC01FF2
:105100000007000EE05418E0505C412808DB505CBA
:10511000462805DC505CC01F0007000EE0540CE080
:10512000505C302807DB505C392804DC505C0007F9
:10513000000EE05401E00020D4E7481C81B2505C2E
:10514000612808DB505C662805DCE05C565C801951
:105150005738E05419E0505C412808DB505C462881
:1051600005DCE05C565C80193738E0540DE0505C9B
:10517000302808DB505C392805DCE05C565C80197F
:105180003038E05401E00020ACE7581C83B2481CE2
:1051900081B2A942ACDB1846A4E7FFB581B007464F
:1051A0000D46164600200090002F04D03846FBF72D
:1051B00029F8002801D105B0F0BD002D04D0284603
:1051C000FBF720F8002800D1F5E729463846FBF721
:1051D0002DF8044608E010C60098401C00902946AF
:1051E0000020FBF723F80446002CF4D10499009822
:1051F000086000BFDFE70000F0B58DB00646002074
:105200000C901B480B901B480A901B4809901B48A8
:10521000089000BF002E00D101263046FBF792FA1D
:105220000022174B01910090FBF7ACF90022154BBF
:1052300003910290FBF70EFA05910490FBF7BDFA7B
:1052400007460B98FBF7A5FA3B460F4A07910690D5
:10525000FFF7C8FE04460D4620462946FFF7E0FE4C
:1052600007910690FBF7A9FA0C900C980DB0F0BDD1
:105270000050C3473313954300E07645339388438A
:105280000070A7400000B04000803B450349086023
:1052900000BF024909680029FBD1704710000020B7
:1052A000C1000D39044A51610021916100BF0249DA
:1052B00009690529FBD0704700E000E0F0B54E0019
:1052C000864BCF0F760887B005460C469E422ED3FC
:1052D0008348864211D33003000B284304D028466C
:1052E000FFF7E0F907B0F0BD002F03D00020014622
:1052F00007B0F0BD284607B0F0BD7A4A2846FBF754
:1053000003FC06D20220FFF7FFF9FFF7D9F907B037
:10531000F0BD754A754B28462146FBF7E1FB06D2E6
:105320000220FFF7F1F9FFF7D5F907B0F0BD70489B
:1053300086424AD930466F49E20FD600884215D2DC
:105340006D48784480194368026828462146FBF777
:105350000AF90290694803917844811908684968FC
:1053600000900120C01B0191C61B25E0644A654BDB
:1053700028462146FBF706F9634A7A4493191A68CE
:105380005B68FBF74BF8FBF767FB0646FBF750FB48
:1053900007465E4A5E4B0091FBF7F4F82A46234627
:1053A000FBF7E7F8039102905A4A5B4B38460099A5
:1053B000FBF7E8F8019100900B46009A03990298D8
:1053C000FBF7D1F805460C4617E05448864213D245
:1053D000534A544B28462146FBF720F8524E0022F0
:1053E0003346FBF791FB07D200223346284621467D
:1053F000FBF714F807B0F0BD00262A4623461046F6
:105400001946FBF7BFF80746024648480B46049189
:1054100005217844FFF7E6F83A46049BFBF7B2F81B
:105420002A462346FBF7A5F806910121890707467E
:10543000002E23D002460020069BFBF794F805912E
:1054400004903A4628462146069BFBF79BF8059BAD
:10545000049AFBF7FFF8019B009AFBF78AF8039B7D
:10546000029AFBF780F800222F4BFBF782F8304AB4
:1054700096421EDB3205891807B0F0BD0B460022AC
:105480000699FBF770F8064600913A4628462146F1
:10549000069BFBF777F83246009BFBF7DBF82A46C2
:1054A0002346FBF760F800221F4BFBF762F807B0BA
:1054B000F0BD7D233205DB05D21889181D4AFBF7A4
:1054C000A0FA0D460446FFF777F8042801D1FFF74C
:1054D00001F92046294607B0F0BD0000422E864063
:1054E0000000F07FEF39FAFE51302DD5104987C00A
:1054F000422ED63FB2A2F03F8A1000008410000076
:10550000FE822B654715F73F421000000000E0FEC9
:10551000422EE63F763C7935EF39EA3D0000303ED9
:105520009C7500883CE4377E0000F03FDA0F0000F5
:1055300003FCFFFF18FCFFFF70470000F3B581B0CC
:1055400000250298C5B2019F3846FFF79FFD00284D
:105550000ED148A148A0FDF7B1FE494949A0FDF789
:10556000ADFE4F48428846494EA0FDF73FF9FEBDCB
:10557000F878C007C00F002815D04C4E6421304683
:10558000FAF721FE3146FF2000F090FE48490870EE
:105590000846007836180846017839480E380181E7
:1055A00000F07CFD00BF33A133A0FDF787FE294644
:1055B00040A0FDF783FE7C1D681FC5B254E0207833
:1055C00000902CA12CA0FDF779FE44A00099FDF7D6
:1055D00075FE009885282DD086283FD1607800027E
:1055E000A178084306460A2E03DB2D20400186429F
:1055F00001DD002E12D140488660007820218843CA
:1056000020303D490870FDF7DFFC1AA11AA0FDF714
:1056100055FE314639A0FDF751FE07E015A116A051
:10562000FDF74CFE31463EA0FDF748FEE81EC5B230
:10563000E41C14E06678012E04D101214348017274
:10564000FDF734FCA81EC5B2A41C41A10AA0FDF7B9
:1056500035FE314640A0FDF731FE00E087E700BF90
:10566000C82D00DD02E000BF002DA8D100BF00BFA3
:105670007DE700004C4F47000A5B25735D0000008A
:1056800072010020526563762055617274204C6F60
:10569000526157414E20446174613A2025730000E5
:1056A000640300204C6F526157414E00400C0020B3
:1056B0004500002052656376204C6F526157414E81
:1056C00020434D442C20546F74616C2044617461FC
:1056D000204C656E203A2025642C0000416E616CE0
:1056E0007973697320446174612054797065203A3C
:1056F0002025303278000000A40C00205570646131
:105700007465204465766963652053796E6320492A
:105710006E74657276616C3A2025646D696E000066
:1057200055706461746520446576696365205379BA
:105730006E6320496E74657276616C204572726F7B
:10574000723A2025646D696E00000000F80C00209C
:105750005741524E00000000526563762044657642
:10576000696365205265737420466163746F727952
:1057700020434D44203A20256400000010B51A480B
:105780008088002811D11848408800280DD016487C
:105790004188FF38F338FFF7D1FEFF21F531134878
:1057A000FAF711FD00211048418011488088002837
:1057B00018D10F484088002814D00EA10EA0FDF784
:1057C0007DFD0F490FA0FDF779FD094841880C4880
:1057D000FFF7B2FEFF21F5310948FAF7F4FC00218A
:1057E0000348418010BD00006403002072010020C6
:1057F0002A0600204C4F47000A5B25735D0000001D
:105800003804002052656376205561727420496E19
:10581000666F20446174613A2025730010B5082139
:105820000448FDF73EFC002801D0012010BD0020F7
:10583000FCE7000000200B4070B500250DE07D2046
:10584000C000FEF71FF9FEF747FEFFF7E7FF04462B
:10585000002C01D0002070BD6D1C0F2DEFDB01204E
:10586000F9E7000010B510210448FDF723FC0028DB
:1058700001D0012010BD0020FCE7000000200B40FB
:1058800070B57D20C000FEF7FDF800250DE000F0AA
:1058900011F80446002C01D0002070BDFEF71CFE5C
:1058A0007D20C000FEF7EEF86D1C062DEFDB012019
:1058B000F3E7000010B504210448FDF7F2FB0028CF
:1058C00001D0012010BD0020FCE7000000200B40AB
:1058D00010B50121C9030448FDF7ECFB002801D0F5
:1058E000012010BD0020FCE700000B4001480068CB
:1058F0007047000000000020F0B5C54A00248FB0BA
:1059000091420ADA4B005B08934206D801254A000F
:105910006D05EA4205D1002803D0FEF7C3FE0FB0A3
:10592000F0BD01252D05A94219DA034308D000294D
:1059300010DA0120FEF7E8FEFEF7B9FE0FB0F0BD69
:105940000220FEF7E1FEFEF7A3FE0122D20751403E
:105950000FB0F0BD3524E4433622FBF752F80A15A8
:10596000AC4B1219D4180A03120BAB49AB4B5618A7
:105970002E403146594011430192321512190B92B3
:105980000022FAF7F0FD019A0446921C1003A44E7F
:10599000000B0D467E44032860D2204673683268AF
:1059A000FBF79EF81CD10B98002815D0FBF740F8A8
:1059B00004460E469B4A9C4BFAF7E4FD0D4607460B
:1059C0009A4A9B4B20463146FAF7DCFD3A462B4675
:1059D000FAF724FD0FB0F0BD716830680FB0F0BD6C
:1059E000944A954B20462946FAF7CCFD0022934B6A
:1059F000FAF7BFFD06460F4622462B4610461946CB
:105A0000FAF7C0FD32463B46FAF7BCFD06460B9856
:105A10000F4600281DD0FBF70BF8824A824B0591F8
:105A20000490FAF7AFFD32463B46FAF7A2FD224654
:105A30002B46FAF798FD04460D467C4A7C4B0599A7
:105A40000498FAF79FFD22462B46FAF78CFD0FB01B
:105A5000F0BD0B46324620462946C4E00123002211
:105A60009B072046FAF7DAFC02460B4620462946F9
:105A7000FAF7F0FD06460F460B98FAF7D9FF3246C3
:105A80003B460591049010461946FAF77BFD0991B3
:105A90000C906B490198099B421800920C9A194688
:105AA0001046FAF76FFD024607910A906549019882
:105AB0000B1A6548019303217844079BFEF792FD7A
:105AC000079B0A9AFAF75EFD0E905F480D9104213C
:105AD0007844079B0A9AFEF785FD099B0C9AFAF712
