:020000040800F2
:10000000C8140020D9000008F94B0008E3000008DC
:1000100000000000000000000000000000000000E0
:10002000000000000000000000000000ED5000088B
:100030000000000000000000FD4B0008EF50000829
:10004000EB000008EB000008894E0008EB000008F8
:10005000EB000008EB000008EB00000899270008FF
:1000600000000000EB000008EB000008EB000008B7
:10007000890B0008EB00000800000000EB000008FE
:10008000000000008554000800000000000000008F
:10009000EB00000800000000EB000008EB00000887
:1000A000EB000008EB000008EB0000086D550008AD
:1000B000C1550008EB00000800000000000000002F
:1000C0000448854600F0E8FC00480047918A000893
:1000D000C046C046C8140020044880470448004772
:1000E000FEE7FEE7FEE7FEE7FEE7FEE7295200082F
:1000F000C100000830B50B46014600202022012433
:1001000009E00D46D5409D4205D31D469540491B4B
:100110002546954040191546521E002DF1DC30BD94
:1001200070B500242546002801DA01244042002948
:1001300001DA01254942FFF7DDFFAC4200D0404221
:10014000002C00D0494270BDF0B51FB40646002017
:1001500082B005464024019100901BE0019922469F
:100160000F46304600F07CFB049A059B801A9941AB
:1001700010D310461946224600F062FB361A8F4112
:100180000197224601200021009F00F059FB3818FA
:100190004D4100902046641E0028DFDC019B009842
:1001A0002946324607B0F0BD0549064A0868504363
:1001B000054A801808604008704701490860704788
:1001C000A40000206D4EC6413930000010B5024930
:1001D00000F004F810BD0000980E002070B50C4629
:1001E00000683C21FFF786FF21603C21FFF782FF7A
:1001F00061601821FFF77EFF0546A1600721001D01
:10020000FFF778FFA1610F48A90008180E49FFF712
:1002100071FF0246443288086261E0613B2802D3E4
:10022000910700D0401C0021084B0A462161995CCF
:10023000814203D8401A521C2261F8E7401CE0605A
:10024000204670BD6C0B0000B50500004ECC0008C8
:1002500038B50446C0681821401E4843A1684018BC
:100260003C214843616840183C21484321684518B7
:1002700060690C214843216940186921C900401A6E
:100280003021FFF74DFF114A5043421908460092B2
:100290001A2902DB0E49511800910C21FFF740FF8B
:1002A0000C4A5043009A801800900B4806E0491E03
:1002B000425C074B5A43009BD21800920029F6DC9F
:1002C00021466846FFF78AFF009838BD801F8607E1
:1002D000805101008033E1015ACC000810B503467B
:1002E0001C460C43A40703D009E010C9121F10C319
:1002F000042AFAD203E00C781C70491C5B1C521EC5
:10030000F9D210BDD2B201E00270401C491EFBD2EE
:1003100070470022F6E710B513460A460446194610
:10032000FFF7F0FF204610BD30B505462A460B46C4
:1003300010781C78521C5B1C002801D0A042F7D01A
:10034000002C03D0002802D06D1CEFE7284630BDFA
:10035000421C0178401C0029FBD1801A704730B53F
:1003600004460020034600E05B1C934203D2E05C9D
:10037000CD5C401BF8D030BD70B5064605F0CAFA1A
:10038000046805460A220021304600F08DFA2C60F0
:1003900070BD024670B54A40D30FDB0740002DD038
:1003A0004A002AD0010E140E000212020919400A56
:1003B000520A8418E50104465443000A120A2E0426
:1003C0005043A4194219200CC543AA18120C012548
:1003D000AD03521C521912047F39240400D0521C60
:1003E000104301D44000491EC2B20C06C0092018B7
:1003F000401C4008802A02D003E0002070BD400865
:100400004000002900DA0020184370BD70B5024694
:100410004A40D50F40004A00ED0740085208002826
:1004200014D0002A12D0C40DD30D41020120C00502
:100430005202490A520AE41A091812187D349142EC
:1004400001D3641C00E04900002C01DA002070BDDB
:100450000023914201D3891A034340084900002830
:10046000F7D100290AD0914202D10121C90705E044
:10047000914201D2012101E00121C943E005C018E8
:10048000401900F049FA70BDF0B5074608465840DB
:1004900087B0C00F049048000E4659004008490834
:1004A000BC1A884105D2384631461E4617460B46CF
:1004B00002465800400810434DD0300D03904005CF
:1004C0005900400D490D0590401A0290402873DAFA
:1004D00018030121000B09050843019004980092BC
:1004E000002806D01146019A49420020904100910F
:1004F0000190029840210A1A0199009800F0A0F991
:1005000005460C466B4607CB00F0BBF9C01971419C
:10051000039A0E0D0023D71756401A467A40164309
:1005200044D0049A002A2DD0029A012A039A15DC9D
:100530001205C01A914101263605001C7141D20FE7
:10054000059ED2070093019202962A46234600F0A8
:1005500031FA07B0F0BD38463146FAE71605234AAE
:100560000F46B218C01AB74101210905001C4F41BE
:1005700000187F41114618187941E20F10436D1998
:10058000644113E0E2076D0815436408C207144391
:10059000039A01261205C01A91413605001C7141CB
:1005A000CE07400830434908C01851412A46234627
:1005B00000F0F3F9CDE7FFE7049801224000C117EE
:1005C000121A00238B4104983146C417381AA141EE
:1005D000EEE730B40124E407634030BC54E730B4A4
:1005E0000124E407614030BC4EE700000000E0FF5A
:1005F000F0B51FB488B00B990998002448400999B8
:10060000C00F490049080991C0070B9900904900A3
:1006100049080B9109990898A64608431CD00B99E4
:100620000A98084318D0099801244000420D480058
:10063000410D099824050003000B204309900B98F5
:100640000003000B20430B9050181C494018002257
:1006500001901446104605E0002001460DB0F0BDA3
:10066000032801DA034600E003239C46C11A0AAEC0
:100670000AE05F0008ADED5B4F00F75B7D430027AC
:10068000AA187C41491C5B1E6145F2DD410004ABA8
:100690005A522104120C0A43240C401C0828DFDBA8
:1006A000019802900099704601910090059B049A70
:1006B0000799069800F07EF9D0E700000DFCFFFFD7
:1006C000F0B50C465C4085B0E40FE40703944C00A1
:1006D00000266408590094464908024602962243BF
:1006E00021D062460A431ED06200570D4A000E0315
:1006F0002303550D012402462C492405781B1B0BAE
:10070000360B401823432643614600901C46501A7E
:10071000B44103D30098401C009002E09218009866
:100720005B41002803DA0020014605B0F0BD00203F
:10073000012109050746864611E064461D46141B43
:10074000B54106D36546521BB341744607430C437B
:10075000A646CD0740084908284392185B41054644
:100760000D43EAD11046184313D060461946504055
:100770007140084306D06046101AB34106D20122E8
:10078000002306E000220123DB0702E00122D2431E
:100790005310009874460105381C6141029C039D6A
:1007A0000019694100F0F9F8BFE70000FD030000FF
:1007B000C217C10F504010B54018CA079623002138
:1007C00000F0B2F810BD410040020122400AD205FB
:1007D000090E80187F2901DA00207047962903DC72
:1007E0009622511AC8407047963988407047C20F08
:1007F000D207400040080BD0C10D0723DB01C91808
:1008000040020905400A1143C208400711437047DE
:10081000002001467047000010B5002904DB0124C8
:10082000E40740428C412146002B04DB1C46012397
:10083000DB075242A341994200D1904210BD000013
:1008400010B5202A04DB0146203A9140002010BD5B
:10085000914020239C1A0346E3401943904010BD69
:1008600010B5202A04DB0846203AD040002110BDF4
:100870000B46D340D0402024A21A91400843194689
:1008800010BD10B5202A06DBCB170846203A1041D0
:10089000C1170B4306E00B461341D0402024A21A97
:1008A00091400843194610BDF7B5009C0F4600263D
:1008B0002578641C002D05D000F000F90068405D2B
:1008C000C007F5D12B2D02D02D2D18D0641E39462E
:1008D0002046029A00F005F9002F04D03968A142A1
:1008E00001D1009939607105022400290BDA4042D8
:1008F000002803DD05F00EF80460A007FEBD01200E
:1009000080020643E3E70028F8DA05F003F8046004
:100910000048FEBDFFFFFF7F002904DA401C4900AC
:1009200001D140084000704770B40024050C05D187
:100930001024000402D1002921D01124050E01D178
:1009400000020834050F01D10001241D850F01D1DB
:100950008000A41C002801DB4000641C002908D092
:1009600020252E1B0D46F540A14000D00121294332
:10097000084301061B1B000ADB1D02D5002070BCCA
:100980007047DB05181880180029F8DA401C490068
:10099000F5D170BC40084000704710B5002B08DA54
:1009A0000024401C614192185B411A4301D1400868
:1009B000400010BDF0B51FB482B005460C0003D056
:1009C000084604F0B5FE02E004F0B2FE2030024614
:1009D000009021462846FFF733FF049B059A044602
:1009E0000F4618431143084314D0184610431BD038
:1009F000009840210A1A18460599FFF731FF05466D
:100A00000E46009A05990498FFF71AFF084305D08F
:100A1000012004E02046394607B0F0BD0020C11790
:100A200005430E432C43374300990E986305401A43
:100A30007905E40A00220C43FD0A0A3002D50020A1
:100A40000146E9E70105101969410C9C0D9D00194B
:100A50006941FFF7A2FFDFE74A0009030123090B01
:100A60001B0519430A4B10B5520D9A4202DA0020B9
:100A7000014610BD064B34339A4203DC9A1AFFF745
:100A8000EFFE10BD034BD218FFF7DAFE10BD0000D9
:100A9000FF030000CDFBFFFF064C0125064E05E0DD
:100AA000E36807CC2B430C3C98471034B442F7D38F
:100AB000FFF70AFB3CD000085CD0000800487047F4
:100AC000E8CC00083A2800D23038202302469A4366
:100AD000412A01D310463738884201D30020C04351
:100AE0007047F7B582B0029C00272078641C154639
:100AF0000197302802D0002D15D015E0207801276D
:100B0000641C782804D0582802D0002D09D00BE0AE
:100B1000002D01D0102D07D1002710252078641C4E
:100B200002E0082500E00A250026009610E0009962
:100B3000012769430818020C294680B271430090CE
:100B40008E183804864201D3012001902078641C5D
:100B50002946FFF7B7FF0028E9DA0398002805D0F7
:100B6000002F01D0641E00E0029C04600198002860
:100B700006D004F0CFFE02210160C81E05B0F0BD12
:100B8000009930040843F9E700BF0A4800680821CB
:100B90000840C00800280BD000BF0648006C80B297
:100BA0000549086000BF08200249086000BF00BF77
:100BB00070470000002401400400002070B57D262D
:100BC000F60000BF5248806852490840401C504916
:100BD000886000BF00BF084680684E490840001D7D
:100BE0004B49886000BF00BF00BF4948006804212E
:100BF000084080080028F7D000BF0420444908605E
:100C000000BF00BF0846006C80B24349086000BFC7
:100C10003F4880683F49084010303D49886000BF28
:100C200000BF084680683B490840801C38498860FE
:100C300000BF3A483A4908803A48058B3A49694327
:100C4000084635490968FFF755FA84B23748848663
:100C50003748201A00280DDD33486430844209DA11
:100C600033496431611A48000A21FFF759FA3149C2
:100C700008700AE02C486430844203DB64202D496C
:100C8000087002E000202B4908702A4800781428D8
:100C90000EDC2948007800280AD101202649087076
:100CA000224800791021884310302049087123E040
:100CB0002148007800280ED01E48007819280ADD47
:100CC00000201D4908701948007910218843103010
:100CD0001649087110E017480078184909788842C9
:100CE0000AD014480078154908701048007910217E
:100CF000884310300D49087111A112A002F060FB69
:100D00000C480278214611A002F05AFB70BD000089
:100D100000240140E8FFFF7F0400002060EA00009B
:100D2000020000206000F81FB80B000080070020C0
:100D3000C409000000000020010000200C00002079
:100D40004C4F47000A5B25735D0000004765742027
:100D5000426174746572792025646D562C204C654F
:100D600076656C2025640A0000B58BB0142106A8B6
:100D7000FFF7CFFA00200290039004900590012025
:100D800040023D49496B01433B4A51631146496B5F
:100D90000140019100BF00BF38483949896A4203C8
:100DA000520B1143364A916200BF0120800535493C
:100DB00009680322920591430143324A116000BF42
:100DC000002006900790089009900A9006A92C48E8
:100DD00002F042FB05202A494969C908C9000143BC
:100DE000274A516100BF002011460969490849009E
:100DF0000143116100BF00BF1146C968042291433D
:100E000001431F4AD16000BF00BF1E49096801228B
:100E10005206914301431B4A116000BF00BF1848AE
:100E20004068042188431649486000BF00BF084657
:100E30004068082188431249486000BF08050290B5
:100E4000002003900490059002A90D4802F0DCFAFE
:100E500000BF0B4880680C49084009074018084942
:100E6000886000BF00BF00BF05488068C00F002831
:100E7000F9D10BB000BD000000100240000002C418
:100E80000024014008270140E8FFFF7FF7B582B04A
:100E90000E46144600276420019007F09FFA0028B0
:100EA00006D134A135A002F08BFA36A002F088FA00
:100EB000FF213A48FFF72DFA00213848FA30C18067
:100EC000029803F025FE36A003F022FE334D35A133
:100ED0002046FFF729FA002805D135A12046FFF763
:100EE00023FA002800D0ED1D33E022A12846FFF7A9
:100EF0001BFA00280AD01FA120A002F061FA2FA03F
:100F0000029902F05DFA002005B0F0BD31A128463B
:100F1000FFF70AFA002809D016A118A002F050FA2B
:100F20002FA0029902F04CFA0020EDE701987843D7
:100F3000B04209DD31A111A002F042FA31A00299BC
:100F400002F03EFA0220DFE7019803F0DBFD781C97
:100F500087B221462846FFF7E7F90028C5D030A11F
:100F600006A002F02DFA2FA0029902F029FA012022
:100F7000CAE700004552524F520000000A5B257339
:100F80005D0000004C6F526157414E2053746174F4
:100F90007573204552524F4521000000F208002091
:100FA0000D0000002B4C494E4B20494E464F3A0055
:100FB0002B52544320494E464F3A000022257322BB
:100FC00020617420636D64206578656320657272AA
:100FD0006F720000424144205041524D0000000019
:100FE0002225732220617420636D64206578656317
:100FF00020626164207061726D0000005741524EA2
:10100000000000002225732220617420636D64209B
:10101000657865632074696D656F75740000000004
:101020004C4F47002225732220617420636D642099
:1010300065786563207375636365737300000000F2
:1010400010B5002416E00DA20D490EA0FFF71EFFFB
:10105000012809D10EA10FA002F0B2F90F4910A08A
:1010600002F0AEF9012010BD601C84B27D20C000EA
:1010700003F048FD032CE6DB0020F4E70D0A000036
:10108000DC05000061742B62616E643D3F0000006E
:101090004C4F47000A5B25735D000000F2080020FA
:1010A0002573000010B5002416E00DA20D490EA016
:1010B000FFF7ECFE012809D10DA10EA002F080F986
:1010C0000E490FA002F07CF9012010BD601C84B213
:1010D0007D20C00003F016FD032CE6DB0020F4E7C2
:1010E0000D0A0000DC05000061742B63683D3F00C1
:1010F0004C4F47000A5B25735D000000F20800209A
:101100002573000010B5002416E00DA20D490EA0B5
:10111000FFF7BCFE012809D10EA10FA002F050F983
:101120000F4910A002F04CF9012010BD601C84B2E0
:101130007D20C00003F0E6FC032CE6DB0020F4E792
:101140000D0A0000DC05000061742B636C61737391
:101150003D3F00004C4F47000A5B25735D000000D7
:10116000F20800202573000038B500242CE018A2F6
:10117000184919A0FFF78AFE01281FD11AA11BA048
:1011800002F01EF91B491CA002F01AF90823194AA3
:101190000E320421194806F035FA13A113A002F00B
:1011A0000FF91648C0780090144883784278C01E22
:1011B000C17813A002F004F9012038BD601C84B28C
:1011C0007D20C00003F09EFC032CD0DB0020F4E760
:1011D0000D0A0000DC05000061742B646576616413
:1011E00064723D3F000000004C4F47000A5B2573CE
:1011F0005D000000F2080020257300004B0E002067
:10120000444556414444523A202530327820253016
:1012100032782025303278202530327800000000E6
:1012200010B586B000243AE01FA2204920A0FFF7A5
:101230002DFE01282DD121A121A002F0C1F82249C3
:1012400022A002F0BDF810231F4A0E3208212048C8
:1012500006F0D8F919A11AA002F0B2F81C48C01E75
:10126000817A427A007A1A4BDB1EDB790193039272
:10127000049102901648C01E807900901448C01E48
:1012800043790279C17813A002F09AF8012006B0E0
:1012900010BD601C84B27D20C00003F033FC032C21
:1012A000C2DB0020F3E700000D0A0000DC050000AF
:1012B00061742B6465766575693D3F004C4F47004E
:1012C0000A5B25735D000000F20800202573000012
:1012D0002B0E00204465764555493A20253032785A
:1012E0002025303278202530327820253032782081
:1012F000253032782025303278202530327820256C
:101300003032780010B5002416E00DA20D490EA071
:10131000FFF7BCFD012809D10DA10EA002F050F885
:101320000E490FA002F04CF8012010BD601C84B2E1
:101330007D20C00003F0E6FB032CE6DB0020F4E791
:101340000D0A0000DC05000061742B64723D3F0053
:101350004C4F47000A5B25735D000000F208002037
:101360002573000010B5002416E00DA20D490EA053
:10137000FFF78CFD012809D10EA10FA002F020F883
:101380000F4910A002F01CF8012010BD601C84B2AF
:101390007D20C00003F0B6FB032CE6DB0020F4E761
:1013A0000D0A0000DC05000061742B666363643D78
:1013B0003F0000004C4F47000A5B25735D000000B2
:1013C000F20800202573000010B5002416E00DA2DD
:1013D0000D490EA0FFF75AFD012809D10EA10FA05B
:1013E00001F0EEFF0F4910A001F0EAFF012010BD4F
:1013F000601C84B27D20C00003F084FB032CE6DB7C
:101400000020F4E70D0A0000DC05000061742B6980
:1014100072713D3F000000004C4F47000A5B25738E
:101420005D000000F20800202573000010B50CA23A
:101430000C490DA0FFF72AFD01280FD10DA10EA028
:1014400001F0BEFF0E490FA001F0BAFF0EA10C483B
:10145000FEF76AFF002801D0012010BD0020FCE744
:101460000D0A0000DC05000061742B6A6F696E3D97
:101470003F0000004C4F47000A5B25735D000000F1
:10148000F2080020257300002C6A6F696E65642CD9
:101490000000000010B5002416E00DA20D490EA0BA
:1014A000FFF7F4FC012809D10EA10FA001F088FF7D
:1014B0000F4910A001F084FF012010BD601C84B210
:1014C0007D20C00003F01EFB032CE6DB0020F4E7C8
:1014D0000D0A0000DC05000061742B6C70637069FC
:1014E0006E3D3F004C4F47000A5B25735D000000D6
:1014F000F20800202573000010B5002416E00DA2AC
:101500000D490EA0FFF7C2FC012809D10FA110A0C0
:1015100001F056FF104911A001F052FF012010BD4B
:10152000601C84B27D20C00003F0ECFA032CE6DBE3
:101530000020F4E70D0A0000DC05000061742B6D4B
:1015400061636D6F64653D3F000000004C4F4700D4
:101550000A5B25735D000000F2080020257300007F
:1015600010B5002416E00DA20D490EA0FFF78EFC69
:10157000012809D10FA110A001F022FF104911A0EC
:1015800001F01EFF012010BD601C84B27D20C00050
:1015900003F0B8FA032CE6DB0020F4E70D0A0000A4
:1015A000DC05000061742B7472616E7366706F727B
:1015B000743D3F004C4F47000A5B25735D000000FF
:1015C000F20800202573000010B5002416E00DA2DB
:1015D0000D490EA0FFF75AFC012809D10EA10FA05A
:1015E00001F0EEFE0F4910A001F0EAFE012010BD4F
:1015F000601C84B27D20C00003F084FA032CE6DB7B
:101600000020F4E70D0A0000DC05000061742B7077
:1016100061726D3D3F0000004C4F47000A5B25732F
:101620005D000000F20800202573000010B50024C2
:1016300016E00DA20D490EA0FFF728FC012809D1E4
:101640000EA10FA001F0BCFE0F4910A001F0B8FEE2
:10165000012010BD601C84B27D20C00003F052FA4E
:10166000032CE6DB0020F4E70D0A0000DC05000097
:1016700061742B70777269643D3F00004C4F4700E6
:101680000A5B25735D000000F2080020257300004E
:1016900010B5002416E00DA20D490EA0FFF7F6FBD1
:1016A000012809D10EA10FA001F08AFE0F4910A058
:1016B00001F086FE012010BD601C84B27D20C000B8
:1016C00003F020FA032CE6DB0020F4E70D0A00000B
:1016D000DC05000061742B7278323D3F0000000091
:1016E0004C4F47000A5B25735D000000F2080020A4
:1016F0002573000010B5002416E00DA20D490EA0C0
:10170000FFF7C4FB012809D10EA10FA001F058FE7C
:101710000F4910A001F054FE012010BD601C84B2DE
:101720007D20C00003F0EEF9032CE6DB0020F4E797
:101730000D0A0000DC05000061742B7278313D3F1A
:10174000000000004C4F47000A5B25735D0000005D
:10175000F20800202573000010B5002416E00DA249
:101760000D490EA0FFF792FB012809D10FA110A08F
:1017700001F026FE104911A001F022FE012010BD4B
:10178000601C84B27D20C00003F0BCF9032CE6DBB2
:101790000020F4E70D0A0000DC05000061742B72E4
:1017A0007863686578743D3F000000004C4F470047
:1017B0000A5B25735D000000F2080020257300001D
:1017C00010B5002416E00DA20D490EA0FFF75EFB38
:1017D000012809D10EA10FA001F0F2FD0F4910A0C0
:1017E00001F0EEFD012010BD601C84B27D20C00020
:1017F00003F088F9032CE6DB0020F4E70D0A000073
:10180000DC05000061742B736C6565703D3F000062
:101810004C4F47000A5B25735D000000F208002072
:101820002573000010B5002416E00DA20D490EA08E
:10183000FFF72CFB012809D10EA10FA001F0C0FD7C
:101840000F4910A001F0BCFD012010BD601C84B246
:101850007D20C00003F056F9032CE6DB0020F4E7FE
:101860000D0A0000DC05000061742B7665723D3FB7
:10187000000000004C4F47000A5B25735D0000002C
:10188000F20800202573000010B5002414E00CA21B
:101890000C490DA0FFF7FAFA012807D10D4800788E
:1018A000400840000B490870012010BD601C84B244
:1018B0007D20C00003F026F9032CE8DB0020F4E7CC
:1018C0006F6B0000DC05000061742B7265626F6F46
:1018D00074000000280E002010B5002414E00CA2B3
:1018E0000C490DA0FFF7D2FA012807D10C48007867
:1018F000400840000A490870012010BD601C84B2F5
:101900007D20C00003F0FEF8032CE8DB0020F4E7A4
:101910006F6B0000DC05000061742B6465660000DD
:10192000280E00203EB50446002510A207CA6B46CB
:1019300007C3012C07D100200090019002900EA156
:10194000684603F0C9FE0DE00EA20F496846FFF796
:101950009DFA012800D13EBD681C85B27D20C000E3
:1019600003F0D0F8032DEFDB0020F4E761742B6166
:1019700064723D6F6666000061742B6164723D6F36
:101980006E0000006F6B0000DC05000010B59AB01F
:1019900000242C2227A10FA8FEF7A0FC3048C07B12
:1019A0002F49897B2E4A527B2D4B133BDB7F0A93B9
:1019B0000B920C910D902A481338827F417F007F53
:1019C000274B133BDB7E069307AB07C32448133832
:1019D000807E23491339497E214A133A127E204BD7
:1019E000133BDB7D02930392049105901C4813384E
:1019F000807D1B491339497D0091019018481338A7
:101A0000037DC27C17490FA803F066FE0EE016A204
:101A100016490FA8FFF73AFA012801D11AB010BDF4
:101A2000601C84B27D20C00003F06CF8032CEEDB58
:101A30000020F3E761742B6170706B65793D324271
:101A400037453135313632384145443241364142ED
:101A50004637313538383039434634463343000051
:101A60003B0E002000CF00086F6B0000DC0500007B
:101A700010B59AB00024302222A10EA8FEF72EFC49
:101A80002C48C07B2B49897B2A4A527B294B1B7BE4
:101A90000A930B920C910D902648C27A817A407A73
:101AA000244B1B7A069307AB07C32248C17982797E
:101AB0004079204B1B7902930492059103901D48B5
:101AC000C0781C498978009101901A484378C01F5A
:101AD000C27919490EA803F0FFFD0EE017A21849BC
:101AE0000EA8FFF7D3F9012801D11AB010BD601C70
:101AF00084B27D20C00003F005F8032CEEDB00204B
:101B0000F3E7000061742B617070736B65793D6160
:101B100062702C32423745313531363238414544D6
:101B20003241364142463731353838303943463410
:101B3000463343004F0E0020B0CE00086F6B00000C
:101B4000DC05000008B505A00068009004A2FF2194
:101B5000F5316846FFF79AF9012008BD2B2B2B00C1
:101B60000D0A00001CB514A103C9019100900024C6
:101B70001EE013A213496846FFF788F9012811D126
:101B800011A112A001F01CFC124913A001F018FCD5
:101B9000FF211048FEF7BDFB00210E48FA30C1803E
:101BA00001201CBD601C84B27D20C00002F0AAFF91
:101BB000032CDEDB0120F4E761742B657869740087
:101BC0000D0A0000DC0500004C4F47000A5B25733E
:101BD0005D000000F20800202573000030B585B0DC
:101BE0000446002514216846FEF793FB234611A204
:101BF0001421684603F054FD17E011A2114968460C
:101C0000FFF744F901280AD10FA110A001F0D8FB79
:101C100010490AA001F0D4FB012005B030BD681CBA
:101C200085B27D20C00002F06DFF032DE5DB0020B2
:101C3000F3E7000061742B62616E643D2573000060
:101C40006F6B0000DC0500004C4F47000A5B2573FA
:101C50005D000000F208002030B589B00446002580
:101C600024220EA16846FEF739FB224614A16846DD
:101C700003F032FD0EE019A219496846FFF706F994
:101C8000012801D109B030BD681C85B27D20C0009B
:101C900002F038FF032DEEDB0020F3E761742B63C5
:101CA000683D6D63682C3437303330303030302C41
:101CB0003230303030302C382C302C3500000000E1
:101CC00061742B63683D6D63682C25642C32303061
:101CD0003030302C382C302C350000006F6B000079
:101CE000C40900003EB50446002515A207CA6B468C
:101CF00007C3002C04D112A1684603F0EDFC0CE0F0
:101D0000012C04D111A1684603F0E6FC05E0022C89
:101D100003D111A1684603F0DFFC0DE011A21249C6
:101D20006846FFF7B3F8012800D13EBD681C85B2B4
:101D30007D20C00002F0E6FE032DEFDB0020F4E77B
:101D400061742B636C6173733D61000061742B637C
:101D50006C6173733D62000061742B636C6173731B
:101D60003D6300006F6B0000DC05000010B588B01B
:101D70000024182212A102A8FEF7B0FA1648C07873
:101D8000154989780091019013484378C01EC278A4
:101D900012A102A803F0A0FC0EE018A2184902A8A4
:101DA000FFF774F8012801D108B010BD601C84B29F
:101DB0007D20C00002F0A6FE032CEEDB0020F3E73E
:101DC00061742B646576616464723D307846464682
:101DD00046464530300000004B0E002061742B64F5
:101DE0006576616464723D30782530327825303212
:101DF0007825303278253032780000006F6B000093
:101E0000DC0500007CB5044600250EA103C9019144
:101E1000009022460DA1684603F05EFC0DE00EA284
:101E20000E496846FFF732F8012800D17CBD681CD6
:101E300085B27D20C00002F065FE032DEFDB00209F
:101E4000F4E7000061742B64723D300061742B6410
:101E5000723D2564000000006F6B0000DC0500008F
:101E60003EB50446002510A207CA6B4607C3002CE6
:101E700007D000200090019002900EA1684603F068
:101E80002BFC0DE00EA20F496846FEF7FFFF01286C
:101E900000D13EBD681C85B27D20C00002F032FE3C
:101EA000032DEFDB0020F4E761742B666363643D70
:101EB0006F66660061742B666363643D6F6E00003D
:101EC0006F6B0000DC0500007FB5044600250FA302
:101ED0000FCB6E460FC6002C03D010A1684603F04E
:101EE000FBFB0EE010A211496846FEF7CFFF012868
:101EF00001D104B070BD681C85B27D20C00002F025
:101F000001FE032DEEDB0020F3E7000061742B6A75
:101F10006F696E3D6F7461612C31300061742B6AA2
:101F20006F696E3D616270006F6B0000DC05000040
:101F30007FB5044600250FA30FCB6E460FC6002CBD
:101F400003D010A1684603F0C7FB0EE010A21149B0
:101F50006846FEF79BFF012801D104B070BD681CE4
:101F600085B27D20C00002F0CDFD032DEEDB002008
:101F7000F3E7000061742B6A6F696E3D6F746161F5
:101F80002C30000061742B6A6F696E3D61627000D5
:101F90006F6B0000DC05000010B500240DE009A205
:101FA00009490AA0FEF772FF012800D110BD601C8C
:101FB00084B27D20C00002F0A5FD032CEFDB0020E1
:101FC000F4E700006F6B0000DC05000061742B6D0E
:101FD0006F64653D6D61630010B59AB000243022D6
:101FE00022A10EA8FEF77AF92C48C07B2B49897BE9
:101FF0002A4A527B294B1B7B0A930B920C910D9022
:102000002648C27A817A407A244B1B7A069307AB22
:1020100007C32248C17982794079204B1B7902930A
:102020000492059103901D48C0781C49897800915D
:1020300001901A4843781738C27D19490EA803F059
:102040004BFB0EE017A218490EA8FEF71FFF012850
:1020500001D11AB010BD601C84B27D20C00002F016
:1020600051FD032CEEDB0020F3E7000061742B6EC2
:10207000776B736B65793D6162702C324237453105
:1020800035313632384145443241364142463731A6
:102090003538383039434634463343005F0E00202C
:1020A00060CE00086F6B0000DC05000030B585B025
:1020B0000446002514220EA16846FEF70FF92246B9
:1020C00010A1684603F008FB0EE013A2134968460E
:1020D000FEF7DCFE012801D105B030BD681C85B2D9
:1020E0007D20C00002F00EFD032DEEDB0020F3E7A3
:1020F00061742B7472616E7366706F72743D3130EF
:102100000000000061742B7472616E7366706F72F0
:10211000743D2564000000006F6B0000DC050000CA
:1021200070B586B004460D46002614220EA101A803
:10213000FEF7D4F82B46224610A101A803F0CCFAF2
:102140000EE012A2124901A8FEF7A0FE012801D15B
:1021500006B070BD701C86B27D20C00002F0D2FCBB
:10216000032EEEDB0020F3E761742B7278323D30F2
:102170002C383639353235303030000061742B72EE
:1021800078323D25642C2564000000006F6B000050
:10219000DC05000010B588B000241C220BA101A8AA
:1021A000FEF79CF80EE010A2104901A8FEF76EFEA3
:1021B000012801D108B010BD601C84B27D20C00090
:1021C00002F0A0FC032CEEDB0020F3E761742B731C
:1021D0006C6565703D6C696768742C302C6C657635
:1021E000656C2C6C6F7700006F6B0000DC050000E5
:1021F00010B588B000200690079018216846FEF7B9
:1022000088F80520000701F04FF9454801F04CF926
:10221000444801F049F9012001F0FAFA022001F0E6
:10222000F7FAFF2101310520000701F0FFF9012134
:1022300009030520000701F0F9F9FF2001300090A3
:10224000012001900020029003900490694605202F
:10225000000701F06BF9012000030090694605209A
:10226000000701F063F90120C003009000200190F5
:102270000220049069462A4801F058F90120C00361
:102280000090012001900020029003900490694684
:102290000520000701F04AF90121C90305200007C4
:1022A00001F0C4F9002001900220049080200090E9
:1022B00069461B4801F03AF901211B481B4A0306F5
:1022C0009B0DD258040C0F23A3409A43040C0B46D9
:1022D000A3401A43154B0406A40D1A5100BF8020D9
:1022E00002210F4AD268034643435C001B199A43FC
:1022F000034643434B431A43094BDA6000BF0021B6
:102300001A461268034643435C001B199A4303466E
:1023100043434B431A43024B1A6000BF08B010BD41
:10232000000400500008005001000C0008000140AB
:1023300000B58FB01C2108A8FDF7EBFF182102A8FB
:10234000FDF7E7FF012080032C49496B01432B4A2D
:1023500051631146496B0140019100BF00BF01204C
:1023600001F072FA01204002029002200390032043
:1023700004900020059006900420079002A90520F3
:10238000000701F0D3F801208002029002200390A0
:10239000032004900020059001200690042007905F
:1023A00002A90520000701F0C1F801211B2003F05C
:1023B00075FA1B2003F0EEF9E1204002089000209E
:1023C00009900A900B900C200C9000200D900E901C
:1023D00008A90B4801F04CFF094801F012FF08481A
:1023E00001F019FF064801F02FFF054801F018FF22
:1023F000034801F003FF0FB000BD000000100240D1
:102400000038014000B58FB01C2108A8FDF781FFFE
:10241000182102A8FDF77DFF012040043349896B94
:102420000143324A91631146896B0140019100BF1B
:1024300000BF012001F008FA04200290022003905E
:10244000032004900020059006900420079002A924
:102450000520000701F06AF808200290022003908E
:10246000032004900020059001200690042007908E
:1024700002A90520000701F059F801211C2003F0F2
:102480000DFA1C2003F086F9E1204002089000209C
:1024900009900A900B900C200C9000200D900E904B
:1024A00008A9134801F0E4FE114801F0AAFE00BF9C
:1024B0000F4880680121090308430D49886000BF67
:1024C00000BF08468068491488430949886000BFF6
:1024D000084601F0A0FE064801F0B6FE044801F0EF
:1024E0009FFE034801F08AFE0FB000BD00100240BD
:1024F00000440040F8B505460E461746294608A098
:1025000000F05EFF002404E0315D0BA000F058FFF6
:10251000641CBC42F8DB0AA000F052FFF8BD0000CA
:102520000A2052656376205561727420446174619B
:10253000205B25735D3A00002025303278000000D2
:102540000A00000001B5002105E0042100BF084693
:10255000491E0028FBD10098421E00920028F4D1A9
:1025600008BD000010B53248006832490968884249
:1025700003D93148807A052815DB30480078C00738
:10258000C00F00280FD02C4800893C21484329491E
:1025900009684018264908602748007910218843B7
:1025A00010302549087125480078C007C00F002861
:1025B0003CD023488088002838D122480078002861
:1025C00026D0FF212048FDF7A4FEDC211F48FDF79F
:1025D000A0FE1E4C01221E491E4806F057F91C4859
:1025E000027821461B4806F051F916480078401E33
:1025F000C0B214490870002807D17D21C9001648CF
:10260000FDF787FE134806F0A1F906F077FC0DE010
:1026100009480079C006C00F002807D00648007995
:10262000102188430449087100F018F810BD00001B
:10263000140000203400002080070020280E002015
:10264000EC08002010000020EC070020B00400205F
:102650001C00002094040020AC00002070B5414D07
:102660000024DC212846FDF754FE00203E49087076
:102670002946012006F0D0FD04462D193A4800787D
:1026800000193949087029464D2006F0C5FD044659
:102690002D193548007800193349087029468B20D8
:1026A00006F0BAFD04462D192F48007800192E496E
:1026B00008702946492006F0AFFD04462D192A4826
:1026C000007800192849087029464A2006F0A4FD20
:1026D00004462D192448007800192349087029461A
:1026E0004B2006F099FD04462D191F48007800196B
:1026F0001D49087029464C2006F08EFD04462D1910
:10270000194800780019184908702946862006F0F3
:1027100083FD04462D1914480078001912490870E9
:10272000124806F039F806460F480078401C8642E9
:1027300010DB01220C490D4806F03EF90A480278E8
:1027400008490A4806F038F909480078401C084949
:10275000087006E007A109A000F032FE09A000F011
:102760002FFE70BDB00400201C0000209404002047
:10277000100000204552524F520000000A5B2573A2
:102780005D0000004C77726220416C726561647973
:102790002046756C6C000000802017494969014093
:1027A000814201D1012100E00021002923D08020B5
:1027B0001149486100BF114800790007C00F002887
:1027C0000CD00E480079082188430C49087108464E
:1027D000007902218843801C084908710748007964
:1027E00004218843001D05490871084680790328A3
:1027F00001DA03208871704700040140800700203F
:1028000010B501F071F801200749096881430143BF
:10281000054A116000BF01F053F8002001F06EF886
:1028200001F044F830BF10BD0070004000BF002030
:10283000C0430749C86000BF00BF00BF0448C0686C
:102840004021084080090028F7D000207047000090
:102850000028004000B500BF8020C0430249C86086
:1028600000BF02F005FF00BD0028004000210A4A19
:1028700051610A494968012252021143074A5160D5
:102880001146496808221143044A51600021C209D7
:10289000D201116070470000800E0020002002402D
:1028A00070B503461C46002004E0256886008D5163
:1028B000241D401C9042F8DB70BD000010B50AA03A
:1028C00000F07EFD18A000F07BFD27A000F078FD51
:1028D0000522102133A000F073FD00F085F80121DE
:1028E0004048017210BD00000A2A2A2A2A2A2A2AF0
:1028F0002A2A2A2A2A2A2A2A2A2A2A2A2A2A2A2A38
:102900002A2A2A2A2A2A2A2A2A2A2A2A2A2A2A2A27
:102910002A2A2A2A2A2A2A2A2A2A2A2A2A2A2A2A17
:102920002A2A2A2A2A0A00002A2A2A2A2A2A2A2A7B
:102930002A2A2A2A2A2A2A2A2A2A2A2A2A2A2A2AF7
:102940002A2A2A2A2A2A2A2A2A2A2A2A2A2A2A2AE7
:102950002A2A2A2A2A2A2A2A2A2A2A2A2A2A2A2AD7
:102960002A2A2A2A0A0000002A2A2A2A2A2A2A2A65
:102970002A2A2A2A2A2A2A20484B54203A20536DF0
:102980006172742052756D656E20426F6C75732094
:102990002A2A2A2A2A2A2A2A2A2A2A2A2A2A2A0AB7
:1029A000000000002A2A2A2A2A2A2A2A20484152DC
:1029B00044574152455F5645523A203078253032CF
:1029C00078202C534F4654574152455F5645523A52
:1029D00020307825303278202A2A2A2A2A2A2A2AC0
:1029E0000A000000680E002038B5104C012269462C
:1029F0002046FFF755FF0E490098088108460089D8
:102A00002D214901884203DC094800890A2802DA9D
:102A10000F200749088107A108A000F0D1FC044855
:102A2000018908A000F0CCFC38BD000000F40008CB
:102A300080070020464C4153480000000A5B257384
:102A40005D0000005265616420466C61736820443B
:102A50006576696365205265706F727420496E7483
:102A6000657276616C3A2025646D696E0000000025
:102A7000002039498969FF2201321140914208D171
:102A80003649496902221143344A5161FF2101311B
:102A9000084331498969012252021140914208D10B
:102AA0002E494969012211432C4A516101214902F1
:102AB000084329498969012292021140914208D1B3
:102AC0002649496908221143244A5161012189029A
:102AD0000843214989690122D2021140914208D15B
:102AE0001E494969042211431C4A51610121C9024E
:102AF000084319498969012252031140914208D1C2
:102B00001649496910221143144A516101214903B0
:102B1000084311498969012252041140914207D1A9
:102B20000E494969202211430C4A51612021084372
:102B300009498969012212041140914208D10749CB
:102B4000496940221143054A5161012109040843A2
:102B5000014988617047000000200240800E00207B
:102B600070B5044605F06AFD05460BE0601C0028C0
:102B700008D0002C04D005F061FD401BA04201D913
:102B8000032070BD1F488069C007C00F0028EDD129
:102B90001C48806902210840022801D11949886136
:102BA00018488069FF2101310840884223D0154828
:102BB00080694900084088421DD012488069490058
:102BC0000840884217D00F48806949000840884271
:102BD00011D00C4880698900084088420BD0094810
:102BE000806909010840884205D00648806949107B
:102BF0000840884203D1FFF73BFF0120C1E70020D6
:102C0000BFE7000000200240F7B582B007460D463E
:102C1000002001903E46002413E0A0002A583146CF
:102C2000022000F08DF801900198002804D130684E
:102C3000A1006958884202D0012005B0F0BD361DC0
:102C4000641C04988442E8DB0020F6E730B585B0C8
:102C500000250E4C0E480089049000F099F80020E1
:102C6000009001940120029000BF03A9684600F083
:102C700011F80028F9D1012204A92046FFF7C4FF6A
:102C8000054600F04DF8284605B030BD00F40008B8
:102C900080070020F8B504460E460127002500BF36
:102CA0001C48007C012801D10220F8BD01201949EF
:102CB000087400BF1848FFF753FF0746002F22D1C2
:102CC000401E3060656817E02846FFF7CFFD1248C8
:102CD000FFF746FF074611484068082188430F491F
:102CE000486008464068491588430C494860002FF1
:102CF00001D0356006E08035A068C00161684018E9
:102D0000A842E1D800BF00BF00200249087400BFFC
:102D10003846CAE7800E002050C300000020024061
:102D20000648406802210843044948600846406854
:102D300001210843014948600020704700200240FB
:102D4000F8B507460C461546012600BF0E48007C24
:102D5000012801D10220F8BD01200B49087400BFF1
:102D60000A48FFF7FDFE0646002E06D106494861D7
:102D700025600648FFF7F4FE064600BF0020024922
:102D8000087400BF3046E6E7800E002050C3000004
:102D90001D484068C007C00F002816D000BFEFF3E1
:102DA0001080014600BF72B61848174AD060184814
:102DB000D06000BF81F3108800BF10464068C00794
:102DC000C00F002801D0012070470F484068022240
:102DD0001040022815D100BFEFF31080014672B6F3
:102DE0000C48094A10610C481061084680F31088AD
:102DF00000BF1046406802221040022801D1012085
:102E0000E2E70020E0E7000000200240EFCDAB89C0
:102E100005040302BFAE9D8C16151413014800690A
:102E2000704700004000F81F0148406970470000EB
:102E30004000F81F0148406A704700004000F81F3A
:102E400000B587B000BF254800684008400023490E
:102E5000086000BF012040052149896B8143204A59
:102E6000916300BF182101A8FDF753FA022000F07A
:102E7000DDFC1C4800F018FBFF2001300190012010
:102E800002900320039000200490059001A91548AA
:102E900000F04CFB01204002019001A9114800F014
:102EA00045FB012149020F4800F0BCFBFF21013125
:102EB0000C4800F0B7FB0420FFF744FBFF21013171
:102EC000084800F0B5FB01214902064800F0B0FBBC
:102ED0000420FFF737FB07B000BD0000005400409E
:102EE000001002400004005000B58FB0FFF7A8FFAB
:102EF0001C2108A8FDF70DFA182102A8FDF709FA10
:102F0000022000F093FCFF20013002900220039089
:102F1000032004900120059006900420079002A948
:102F20002F4800F003FB0120400202900220039092
:102F3000032004900120059006900420079002A928
:102F4000274800F0F3FA012040052649896B014328
:102F5000244A91631146896B0140019100BF00BF73
:102F600000BF214840680121490608431E494860C6
:102F700000BF00BF0846C068C91388431A49C8602B
:102F800000BF00BF084600680121C90488431649F4
:102F9000086000BF00BF084600680121490488435B
:102FA0001149086000BF00200890E120C00009908E
:102FB00000200A900B900C900D900E9008A90A48E2
:102FC00000F096FB00210846074AD268074B1A40DA
:102FD0000B4603431A43044BDA6000BF0FB000BD39
:102FE00000040050001002400054004001F8FFFFB0
:102FF000FFB583B005460F46164600240020029018
:103000000EE0641C3F4884420AD93FA140A000F072
:10301000D7F9414941A000F0D3F9012007B0F0BD34
:10302000424800F0AEFB0028EBD1404800F0DBFB4B
:10303000002802D13D4800F00DFB3D4800210091E1
:103040000190690033460022384800F00DFB00244F
:103050000DE0641C2B48844209D92BA12CA000F060
:10306000AFF92D492DA000F0ABF90120D6E72F488C
:1030700000F0ADFB0028ECD03146384600F038F9BE
:1030800000240DE0641C1F48844209D91EA120A021
:1030900000F096F9204921A000F092F90120BDE747
:1030A00000BF224880694021084080090028E9D0FB
:1030B0002048C904009101906800411C00221B486F
:1030C0000C9B00F0D1FA0C99069800F0D5F800247A
:1030D0000DE0641C0B48844209D90BA10CA000F040
:1030E0006FF90D490DA000F06BF9012096E70F482C
:1030F00000F061FB0028ECD00C4800F0A1FA0020A1
:103100008CE70000102700004552524F520000008B
:103110000A5B25735D0000009F9B00082573204912
:1031200032435F54494D454F555400000054004010
:103130000020008000240080FFB583B005460F46C4
:1031400016460024002002900EE0641C3E48844293
:103150000AD93EA13FA000F033F9404940A000F059
:103160002FF9012007B0F0BD414800F00AFB00280C
:10317000EBD13F4800F037FB002802D13C4800F07B
:1031800069FA3C48C102009101906900334600226F
:10319000374800F069FA00240DE0641C2A48844294
:1031A00009D92AA12BA000F00BF92C492CA000F082
:1031B00007F90120D6E72E4800F009FB0028ECD0E3
:1031C0003146384600F094F800240DE0641C1E4897
:1031D000844209D91DA11FA000F0F2F81F4920A0C8
:1031E00000F0EEF80120BDE700BF21488069802192
:1031F0000840C0090028E9D000208904009101900E
:10320000690002461A480C9B00F02EFA0C990698A9
:1032100000F09AF800240DE0641C0B48844209D9A0
:103220000AA10CA000F0CCF80C490DA000F0C8F8E1
:10323000012097E70E4800F0BEFA0028ECD00C48B9
:1032400000F0FEF900208DE7102700004552524F94
:10325000520000000A5B25735D0000008E9B000891
:103260002573204932435F54494D454F5554000062
:103270000054004000200080F8B505460E460027A7
:1032800000241BE000270DE07F1C0E48874209D96F
:103290000DA10FA000F094F80F4910A000F090F8D5
:1032A0000120F8BD114800F07AFA0028ECD000BFE8
:1032B0000E48406AC0B22855601CC4B2B442E1D383
:1032C0000020EEE7102700004552524F5200000048
:1032D0000A5B25735D000000789B00082573204978
:1032E00032435F54494D454F55540000005400404F
:1032F000F8B504460D460026E7B2FF200002204044
:1033000000120090012D04D139460D4800F07BFADF
:1033100014E00B48009900F076FA002605E0761CD0
:103320000848864201D90120F8BD054800F04FFA4F
:103330000028F4D03946024800F065FA00BFF3E7F0
:103340000054004010270000F8B505460E4600273F
:1033500000241AE000270DE07F1C0E48874209D99F
:103360000DA10FA000F02CF80F4910A000F028F8D4
:103370000120F8BD114800F02AFA0028ECD0295DA0
:103380000E4800F040FA601CC4B2B442E2D3002000
:10339000EFE70000102700004552524F5200000096
:1033A0000A5B25735D000000619B000825732049BE
:1033B00032435F54494D454F55540000005400407E
:1033C0000FB438B50498002804D00498FCF7C0FF67
:1033D000002803D138BC08BC04B0184705A80090E9
:1033E000FF21F5310748009B049A02F089F9054650
:1033F00000200090034CA9B2204602F021F900BF42
:10340000E8E70000000C002070B504460D460026D9
:10341000204600F019F8002810D1A9686868084310
:10342000E9680843E168074A11400843E060206901
:103430008000800829680843206100E001263046AA
:1034400070BD0000C73FFFFF01468868C007C00F7E
:10345000012250405040704770B505460C4600268A
:103460002846FFF7F1FF00280ED161682068084365
:10347000A1680843E168084321690843E968044AF0
:1034800011400843E86000E00126304670BD0000AE
:103490003CC2FEFF03490968490849000143014A4B
:1034A000116070470020024070B5044600250520D9
:1034B0000007844206D1012000F0D4F9012000F079
:1034C000D9F928E01548844206D1022000F0CAF953
:1034D000022000F0CFF91EE01148844206D10420FA
:1034E00000F0C0F9042000F0C5F914E00D48844252
:1034F00006D1082000F0B6F9082000F0BBF90AE078
:103500000948844206D1802000F0ACF9802000F008
:10351000B1F900E00125284670BD0000000400500C
:1035200000080050000C0050001C0050F0B502468E
:103530000B46002600216CE00124B44018682040AE
:103540000146002964D05868012802D05868022832
:1035500016D1986894680D464D436F00ED19AC4341
:103560000D464D4345432C43946000BFDC6818680A
:1035700055688543074667433D43556000BF00BF1C
:103580001869D4680D464D436F00ED19AC430D46E4
:103590004D4345432C43D46000BF5868022829D1CD
:1035A000FF2911D85869146A0D464D434D434D43C8
:1035B0002F017D1BAC430D464D434D434D434543C9
:1035C0002C43146200BF15E05F69080A40430C0AEF
:1035D00060430C0A60430401241A506AA0430C0A99
:1035E00064430D0A6C430D0A6C437C4320435062D4
:1035F00000BF00BF586814680D464D436F00ED19B9
:10360000AC430D464D4345432C43146000BF00BFFF
:10361000761C1868F04000288ED1F0BD0246506933
:1036200008407047816270478161704781617047CF
:1036300081617047002A01D0816100E0816270479A
:10364000C16920221143C1617047C1692022114321
:10365000C161704701680122114301607047016830
:103660000122114301607047F0B5069C4668650D64
:103670000127BF023D400B4F3D4301277F03ED195A
:103680007F003D43BF02ED19074F3D43AE430D465A
:1036900015431F043D43059F3D4325432E4346608C
:1036A000F0BD0000FF0B00000010FF02F0B5069C0B
:1036B0004668650D0127BF023D400B4F3D43012782
:1036C0007F03ED197F003D43BF02ED19074F3D43D6
:1036D000AE430D4615431F043D43059F3D4325431F
:1036E0002E434660F0BD0000FF0B00000010FF02FB
:1036F00030B5024600BF106840084000106000BFAF
:10370000CB68886814681F252D02AC431D02054351
:103710002C43146000BF4868106100BF00BF1068F0
:1037200001231843106000BF00BF9068DB0398437B
:10373000906000BF8B6908699468E40AE40205465A
:103740001D432C43946000BF0869002807D000BFC8
:1037500090680123DB031843906000BF00BF086836
:10376000136803242405A3430343136000BF48697F
:1037700053680124E403A3430343536000BF0020C4
:1037800030BD014688690122D2031040C00B70474A
:10379000014688690122D2031040C00B70470146E0
:1037A0008869042210408008704701468869042215
:1037B0001040800870470146886920221040400967
:1037C0007047014688692022104040097047014631
:1037D0008869022210404008704701468869022229
:1037E00010404008704701460868C007C00F01221A
:1037F00050405040704701460868C007C00F012282
:1038000050405040704781627047816270470000AD
:1038100008B50549C96A0143034AD1621146C96A1C
:103820000140009100BF08BD0010024008B50549E5
:10383000C96A0143034AD1621146C96A0140009135
:1038400000BF08BD0010024008B50549C96A014320
:10385000034AD1621146C96A0140009100BF08BD08
:10386000001002400249C9690143014AD161704711
:10387000001002400249C9698143014AD161704781
:103880000010024070B504467D25ED002946204613
:10389000FCF730FC401E0449486100208861052087
:1038A000086100BF70BD000000E000E0034800694F
:1038B00004210843014908617047000000ED00E061
:1038C000034800680421084301490860704700006C
:1038D0000070004003480068FF210131084301499E
:1038E00008607047007000400348006801214902E9
:1038F00008430149086070470070004003490968A7
:10390000022291430143014A116070470070004058
:10391000044909680322D20291430143014A11601C
:10392000704700000070004002480069032109044C
:1039300008407047401002400248C0680C2108400F
:103940007047000000100240F8B504460025032C23
:103950002FD1204600F066F82104401A1ED001281D
:1039600004D0022806D0032817D10FE001F07EF919
:1039700005461DE000F072F8002806D000F082F83D
:10398000002801D0254D00E0254D11E000F082F81F
:10399000002801D00125ED030AE000BF01F066F91F
:1039A000074601F02DF9064601F04EF9054600BF25
:1039B00000BF0C2C2FD1204600F034F82104401A0F
:1039C0001ED0042804D0082806D00C2817D10FE0F8
:1039D00001F04CF905461DE000F040F8002806D043
:1039E00000F050F8002801D00C4D00E00C4D11E023
:1039F00000F050F8002801D00125ED030AE000BFD7
:103A000001F034F9074601F0FBF8064601F00AF927
:103A1000054600BF00BF2846F8BD000000093D0074
:103A20000024F40001460348C06808400A0410431B
:103A3000704700004010024003480068012108431D
:103A40000149086070470000001002400248006809
:103A500004210840800870470010024002480068B6
:103A6000042108408008704700100240044949685A
:103A70001F221202914302021143014A5160704712
:103A800000100240024800681021084000097047F9
:103A90000010024003480069012149020840400A21
:103AA0007047000040100240024840680721490367
:103AB00008407047001002400349C968F022914352
:103AC0000143014AD1607047001002400449C968AF
:103AD0000722120291430143014AD160704700005E
:103AE000001002400449C9680722D20291430143F1
:103AF000014AD16070470000001002400449C968C3
:103B00000122D20391430143014AD1607047000072
:103B1000001002400649C9680209FF231B031A402E
:103B2000914302011A401143014AD16070470000DD
:103B3000401002400449C9680322920291430143A4
:103B4000014AD16070470000401002400349C96833
:103B5000890889000143014AD16070470010024082
:103B60000449C968020C914382B21143014AD160F1
:103B70007047000040100240F8B5069CF025154043
:103B80002D041607360B35430D43F0261E40360232
:103B90001F073F0D3E433543F026264027073F0FC2
:103BA0003E4335430095C569024E3540009E35437E
:103BB000C561F8BD808080FF8168FF22013291439A
:103BC00081607047F0B585B005460E461446002E5C
:103BD0000DD1284600F0DCF9002800D002E00020DA
:103BE000206000BFE068002800D10EE00DE028460C
:103BF00000F0CEF9002800D002E00020206000BFD5
:103C0000E068002800D100E000BF284600F08BF9F2
:103C1000E06800281ED100BFE869012189078843B8
:103C2000E86100BF002E04D0217C284600F06AF82D
:103C300021E0207C0A21FCF75DFA0701207C0A21A3
:103C4000FCF758FA0F43F8B201460390284600F0FB
:103C500059F810E000BFE869012189070843E861CD
:103C600000BF207CE9690F2212069143020611432E
:103C7000E96100BF00BF002E08D0A07900906379F1
:103C8000227928462168FFF777FF2BE0A0790A21E7
:103C9000FCF730FA0701A0790A21FCF72BFA0F4351
:103CA000F8B2039060790A21FCF724FA07016079E1
:103CB0000A21FCF71FFA0F43F8B2029020790A217B
:103CC000FCF718FA070120790A21FCF713FA0F43D1
:103CD000F8B201900398009021682846029B019A4F
:103CE000FFF74AFFA068E969054A11400143E9610D
:103CF00000BF284600F01FF9002005B0F0BD00000D
:103D00007F7F7F7F10B5F0220A4012060B071B0948
:103D10001A43C3693F242406A3431A43C26110BD5A
:103D2000C16880221140024A1143C16070470000FF
:103D30007FFEFFFFF8B5069CF02525402D042607E1
:103D4000360B35434E033543F0261E4036021F071F
:103D50003F0D3E433543F026164017073F0F3E43C5
:103D6000354300954568034E3540009E3543456018
:103D7000F8BD0000C00000FF014648688206920EB0
:103D8000302010400009000113071B0F1843704733
:103D9000014648681F231B02184002460120000309
:103DA0001040000B00010F231B0213401B0A184395
:103DB000704701464868072252031040400B704785
:103DC00001464868FF231B04184002460F200005E7
:103DD0001040000D00010F231B0413401B0C18435F
:103DE0007047F7B584B00D46144601200390002DAE
:103DF00009D1607810210840102804D16078EF21A3
:103E000008400A306070002D00D100E000BF049827
:103E100000F089F8049800F091F8012843D0002DB3
:103E200008D0E07800906378A27821780498FFF7B2
:103E300081FF29E0E0780A21FCF75CF90701E078CE
:103E40000A21FCF757F90F43FEB260780A21FCF70C
:103E500051F9070160780A21FCF74CF90F43F8B2D9
:103E60000290A0780A21FCF745F90701A0780A2101
:103E7000FCF740F90F43F8B2009601902178024612
:103E8000029B0498FFF756FF049800F043F804984B
:103E900000F08FF8002804D1049800F01FF9039077
:103EA00001E000200390049800F045F8039807B063
:103EB000F0BD000070B504460125204600F033F83F
:103EC000204600F03BF8012819D0002020600E4861
:103ED00060610E486060A0684007400FA0600C4819
:103EE00020610020E0612062E062E0636064A06421
:103EF000E0602064E064204600F0F0F805462046CB
:103F000000F019F8284670BDFFFF000001210000F5
:103F1000FF007F008021C943C1607047CA21416210
:103F2000532141627047CA21416253214162704767
:103F3000FF2141627047FF2141627047F8B5054695
:103F40007D20C00000900026284600F026F80028BA
:103F50001CD100BF401EE86000BF284600F01DF8DD
:103F600004460EE000F002F9012802D10098401E3C
:103F70000090284600F011F804460098002800D16F
:103F800001260098002801D0012CEBD13046F8BD65
:103F9000014688684022104070470146C8684022A8
:103FA0001040800970470146C8682022104040092F
:103FB0007047014688682022104040097047000081
:103FC000F8B5069CF02515402D041607360B354331
:103FD0000D43F0261E4036021F073F0D3E4335437A
:103FE000F026264027073F0F3E43354300950568DE
:103FF000024E3540009E35430560F8BD808080FF4D
:10400000F7B584B00D46144601200390002D09D168
:104010000498FFF7BDFF002800D002E000202060D8
:1040200000BF09E00498FFF7B3FF002800D002E0CA
:104030000020206000BF00BF0498FFF774FF0498C1
:10404000FFF77CFF012843D0002D08D0A079009015
:104050006379227921680498FFF7B2FF29E0A079FB
:104060000A21FCF747F80701A0790A21FCF742F87A
:104070000F43FEB260790A21FCF73CF80701607932
:104080000A21FCF737F80F43F8B2029020790A2191
:10409000FCF730F8070120790A21FCF72BF80F43D1
:1040A000F8B20096019021680246029B0498FFF73F
:1040B00087FF0498FFF72EFF0498FFF77AFF002888
:1040C00004D1049800F00AF8039001E00020039066
:1040D0000498FFF730FF039807B0F0BDF8B5044629
:1040E0007D20C0000090002500BFE06880210840CE
:1040F000A021C9430843E06000BF2046FFF753FFFB
:1041000006460EE000F032F8012802D10098401E69
:1041100000902046FFF747FF06460098002800D190
:1041200001250098002801D0002EEBD1012D1BD0D5
:104130007D20C00000902046FFF735FF06460EE0C8
:1041400000F014F8012802D10098401E009020468B
:10415000FFF729FF06460098002800D101250098A6
:10416000002801D0012EEBD12846F8BD0348006994
:10417000012109040840000C7047000000E000E045
:1041800001490860704700004800002010B5024651
:10419000136801208007824205D01648824202D06F
:1041A0001548824205D118467024A0434C6820432C
:1041B000034601208007824205D00E48824202D089
:1041C0000D48824206D1184603242402A043CC683D
:1041D0002043034613608868D06200BF088890625D
:1041E00000BF00BF506901242043506100BF002080
:1041F00010BD0000000801400014014001210162CF
:10420000704741680922D2029143416081682A22A5
:10421000914381607047016801221143016070473A
:1042200070B5044600BF00BFEFF3108005460120C3
:1042300001F083FB2068FF210131084320602846FC
:1042400001F07BFB00BF70BD70B5044600BF00BF2E
:10425000EFF310800546012001F06FFB206820215C
:1042600008432060284601F068FB00BF70BD0000D5
:10427000F0B585B004460D4601200490002003905F
:10428000204600F07BF8002858D1E96868680843A8
:1042900029690843A969084321682A4A114008434B
:1042A0002060A868616803221203914301436160A2
:1042B00000BF6869A168121191430143A16000BF6A
:1042C0002148844204D10320FFF73EFB039006E01F
:1042D0001E48844203D10C20FFF736FB039003985D
:1042E00000282BD02868002828D000200490039FA5
:1042F000A86902902E680121C9030298884214D14E
:104300007900720888183146FBF7F4FE80B20190FC
:104310000F4901980840009001980007400F00994C
:10432000084300900098E06006E07108C819314623
:10433000FBF7E0FE80B2E06000BF00BF049805B06C
:10434000F0BD0000F369FFEF003801400044004079
:10435000F0FF00000146C869C007C00F01225040AD
:10436000504070470146C8692022104040097047FC
:104370000146C8694022104080097047014608681C
:10438000C007C00F01225040504070478162704703
:1043900010B50D480088002814D00B480088401E36
:1043A000094908800120C00305210907886200BF70
:1043B00005480088002805D10121C9030520000710
:1043C000FFF732F910BD000022000020F8B5FEF71B
:1043D00025FD0546FEF728FD0646FEF72BFD0746A0
:1043E000A919C819FBF7E9FEFBF7DEFE0446200E0B
:1043F000694608702002010E684641702004010ED3
:1044000068468170C470042269460248FBF766FF63
:10441000F8BD00004B0E002030B593B0C3A207CA10
:1044200010AB07C3C4A103C90F910E90012004F083
:104430009BFF04F045FD142000F064FBFDF782FBB8
:10444000FDF74AFABE4800F05DFBFDF77BFBFCF789
:10445000E7FEFDF7E7F91022BA49BB48FBF73EFF3C
:104460000822BA49B8480838FBF738FF0422B8498F
:10447000B5481030FBF732FF1022B649B24814306D
:10448000FBF72CFF1022B449AF482430FBF726FF7E
:10449000FFF79CFF0120FDF717FDFDF777FAFDF709
:1044A00065FCFDF7E5FAFDF797FD0020FDF73AFA08
:1044B0000520FDF7A7FCA9A0FDF790FBA949052061
:1044C000FDF72EFEA848FDF7C7FB0020FDF70AFC0C
:1044D0000A20FDF7EBFDFDF75DFE0120FDF7C0FCB6
:1044E000FDF75AFDFDF7D0F9954800F00BFBFDF7FD
:1044F00029FBFCF739FEFCF705FEFDF731F8FCF768
:1045000001FFFCF7CFFDFDF791F8FDF759F9FCF736
:104510005BFFFDF7BDF8FCF793FDFCF7BBFFFDF774
:10452000E9F8FCF7E9FFFDF717F9FCF71BFFFDF7CA
:104530004BF8142000F0E6FA002004F015FF8BA2DF
:104540000A2110A801F0ACF88AA205210EA801F0FA
:10455000A7F889A0FEF734FF00F008FB044692A0FC
:10456000807930380A2148438FA1C9794018014623
:1045700030398DA0C07830380A2250438AA212798F
:1045800080180246303A88A0007830380A23584311
:1045900085A35B78C0180346303B86A000792028AD
:1045A00001D1002002E083A0007930380A25684359
:1045B00080A56D79303D40190593069207910490CE
:1045C0007CA0C07930380A2148437AA1097A401882
:1045D00030380A21484377A1497A303940180A21F6
:1045E000484374A1897A3039401875A10EAA10ABDE
:1045F00003940092019102900522102171A0FEF710
:10460000DFFE51481338827A407A4F491339097ACC
:104610004D4B133BDB7901930492029103904A487E
:104620001338807900904848133843790279C1786B
:1046300072A0FEF7C5FE44481030C0780090424892
:10464000103083784278C01EC17877A0FEF7B8FE9C
:104650003D481430C07B3C491431897B3A4A1432BE
:10466000527B394B14331B7B09930A920B910C90AC
:1046700035481430C27A817A407A334B14331B7A2E
:10468000059306AB07C330481430C279817940796D
:104690002D4B14331B79019302AB07C32A48143006
:1046A000C07800902848143083784278C01FC179C0
:1046B0006548FEF785FE24482430C17B827B407B21
:1046C000214B24331B7B09930B920C910A901E48BB
:1046D0002430C17A827A407A1B4B24331B7A0593AB
:1046E00007920891069018482430C0791649243161
:1046F0008979154A24325279134B24331B7901935B
:1047000002920391049010482430C07800900E4823
:104710002430837842781738C17D4C48FEF750FE2C
:1047200015A0FEF74DFE13B030BD000041533932E5
:10473000335F4153320000004F54414100000000FC
:10474000B80B0000580000203B0E00205000002055
:10475000680000206C0000207C000020636E34376D
:104760003000000020184F1E6035081C434E3437BF
:10477000305F3000414250000D0A2A2A2A2A2A2A94
:104780002A2A2A2A2A2A2A2A2A2A2A2A2A2A2A2A89
:104790002A2A2A2A2A2A2A2A2A2A2A2A2A2A2A2A79
:1047A0002A2A0D0A0000000031343A30343A3334FA
:1047B000000000004A756C20313120323032350063
:1047C000410000000D0A536F66745665723A562513
:1047D000642E25645F25735F25735F436C6173737B
:1047E00025735F4F435F25642E25642E25645F2566
:1047F000643A25643A25640D0A0000000D0A4465F8
:10480000764575693A253032782530327825303250
:10481000782530327825303278253032782530329C
:1048200078253032780D0A000D0A446576416464BB
:10483000723A25303278253032782530327825307A
:1048400032780D0A000000009CCF00084CCF000811
:1048500010B503F0F3FE81490968884200D210BD0B
:1048600003F0ECFE7D21C90040187C4908607C48BB
:10487000007A030000F073FF05041D3A6C8FED0011
:104880007848006878490968884211D87448007AE5
:1048900000280DD17248C079022809D10121704841
:1048A0000172724880793C2802DA3C206F49887195
:1048B000D0E06B48403800784008400068494039F3
:1048C0000870012004F050FDFDF73CF90120FDF7D0
:1048D000FBFA67A000F01CF9142000F013F9002087
:1048E0006649088002215E480172B3E0FCF79EFD34
:1048F000002805D003215A480172FDF733F926E05C
:104900005E480088401C5D4908805DA15DA0FEF7FF
:1049100057FD5A4801885DA0FEF752FD57480088B0
:10492000782814DB00205549088060A155A0FEF7C7
:1049300047FD60A0FEF744FD02214948C1710421F2
:1049400001720320494988710120FDF7F1FA81E0E5
:1049500043484038007840084000401C40494039F6
:10496000087000205B4908704449088000213C48D9
:104970000172C17103203D498871084600791021F8
:1049800088431030394908715349544881800020C8
:1049900004F0EAFC5EE003203449887100213048CD
:1049A00001720221C1712F4800682F4909688842AD
:1049B0004BD848480078401C4649087008460078A3
:1049C000052801DD0520087042480078030000F04A
:1049D000C6FE062B040C141C242B23480068E1217E
:1049E000C90040181F49086025E01F480068E12100
:1049F000090140181B4908601DE01B480068E121BF
:104A0000490140181749086015E017480068E1217E
:104A1000C9014018134908600DE013480068304987
:104A200040181049086006E00F4800682C494018FB
:104A30000C49086000BF00BF11A112A0FEF7C0FC26
:104A40000848016827A0FEF7BBFC002004F08CFC9E
:104A500000E000BF00BF00BF01E700009C00002095
:104A6000680E0020980000203400002080070020FD
:104A700061742B6A6F696E0D00000000A0000020B9
:104A80004C4F47000A5B25735D0000004C6F52617C
:104A900057414E205761697420456E7465722049F4
:104AA0006E204E6574202564000000005741524E70
:104AB000000000004C6F526157414E20456E7465F6
:104AC0007220496E204E65742054696D656F75744F
:104AD000210000009400002070170000EC08002066
:104AE00080510100557064617465205265636F6E7A
:104AF0006E6563742054696D657374616D703A20DE
:104B0000256C640010B50446A0B203F0B5FF10BDDB
:104B100070B504462046FBF71BFC85B229462046AB
:104B200000F002F870BD0000F8B504460D460026FE
:104B300027460CE03046721C96B2395C0948FFF7F4
:104B400025FC00BF0748FFF713FC0028FAD0AE424F
:104B5000F0DB05488079032802DA032002498871D6
:104B6000F8BD000000380140800700201FA18978AF
:104B700070292ED00CDC672929D004DC622918D0DA
:104B800063292ED12BE06C291FD06E2929D108E092
:104B9000722910D074291ED076291ED0792920D1EF
:104BA00011E012A14978612901D1012000E006201D
:104BB00019E0022017E00DA14978612901D10320F5
:104BC00000E004200FE005200DE007200BE00820A6
:104BD00009E0092007E00A2005E00B2003E00C2093
:104BE00001E0002000BF00BF704700004A756C2044
:104BF000313120323032350000BFFEE7704700000F
:104C0000014600BF0548C068F0221040104000096E
:104C1000034A125C0846D040704700000010024072
:104C200027B40008014600BF0548C06807221202E9
:104C30001040000A034A125C0846D040704700004A
:104C40000010024037B40008014600BF0548C068A4
:104C50000722D2021040C00A034A125C0846D04024
:104C6000704700000010024037B4000810B500BFC4
:104C70001648C0680C210840002806D004280CD033
:104C8000082812D00C2816D111E0FEF70DFF400BBA
:104C9000401C01218140CC0315E0FEF7F3FE002803
:104CA00001D00B4C00E00B4C0DE00B4C0BE000F086
:104CB00015F8044607E0FEF7F7FE400B401C012103
:104CC0008140CC0300BF00BF204610BD0010024051
:104CD00000093D000024F40000127A00F8B500BF7E
:104CE0001448C0680121090408400546002D07D179
:104CF000FEF7C8FE002801D00F4C00E00F4C01E089
:104D00000F4C00BF00BF00BF0A48C06803218905DF
:104D10000840800D461C0748C0680F2189040840E0
:104D2000800C0849085C604307463146FBF7E2F90E
:104D3000F8BD00000010024000093D000024F4000E
:104D400000127A003FB4000830B58BB004464748E3
:104D5000FFF7E4F84548FEF72FFF00BF434880689F
:104D60000121090388434149886000BF0846FFF7D5
:104D7000DFF8002006900A21A068FBF7BBF90501C7
:104D80000A21A068FBF7B6F90D43684605770A21AA
:104D90006068FBF7AFF905010A216068FBF7AAF923
:104DA0000D43684645770A212068FBF7A3F9050102
:104DB0000A212068FBF79EF90D436846857701209C
:104DC000C007089006AA01212848FEF7FBFE2748E5
:104DD000FFF7A4F800BF25488068FF210131084390
:104DE0002249886000BF0846FEF79AFF00BF1F48AF
:104DF00080680121090308431C49886000BF012025
:104E000040041B4909680143194A116000BF00BFF3
:104E1000114689680143916000BF0F21022000F014
:104E200001FD022000F0AAFC1048FFF781F811A153
:104E300011A0FEF7C5FA1248006811494968104AE6
:104E400092680F4BDB6802930392049105900C4823
:104E50000069401C0A49496900910190094823688A
:104E60006268A168FEF7ACFA0BB030BD00280040C4
:104E7000000401404C4F47000A5B25735D000000B1
:104E8000C007002014CE000810B500BF1448806889
:104E9000012109030840000B00281AD000BF104868
:104EA000C06809110840000A002812D00D48007996
:104EB00040084000401C0B4908710948FEF730FFCC
:104EC0000748FFF72BF80648FEF776FE0448FFF781
:104ED0002FF8012040040449486100BF10BD0000C4
:104EE0000028004080070020000401403EB55448DF
:104EF000FEF7E0FF01200004524909690322120471
:104F0000914301434F4A116100BF00BF1046006941
:104F10000121890408431146086100BF4848FEF793
:104F2000FDFFFDF783FC002045498968402291433D
:104F30000143434A916000BF7F2011460969020482
:104F40009143020411433E4A116100BFFF20114604
:104F50000969C90BC9030143116100BF3A48017EC9
:104F6000684601723849C8680A21FBF7C3F8040192
:104F70003549C8680A21FBF7BDF80C4368468472BE
:104F800031490969481C0A21FBF7B4F804012E498C
:104F90000969481C0A21FBF7ADF80C4368464472C6
:104FA000294949697D221201881A0A21FBF7A2F8D2
:104FB0000401254949697D221201881A0A21FBF75B
:104FC00099F80C436846C47202AA01211C48FEF7F6
:104FD00008FF002000901C4988680A21FBF78AF826
:104FE0000401194988680A21FBF784F80C436846D4
:104FF0000471154948680A21FBF77CF8040112493D
:1050000048680A21FBF776F80C43684644710E495C
:1050100008680A21FBF76EF804010B4908680A21A9
:10502000FBF768F80C43684684716A46012104481E
:10503000FEF7E6FFFDF70EFC0148FEF779FF3EBDE7
:105040000028004040100240C007002038B500246E
:1050500004F008F8442003F041FB684604F020FA0D
:105060000446002C08D009A10AA0FEF7A9F92146A0
:105070000AA0FEF7A5F907E013A106A0FEF7A0F924
:1050800012A00099FEF79CF938BD00004552524F1E
:10509000520000000A5B25735D0000005348543441
:1050A00030582F5354533430204765742053657261
:1050B00069616C204E756D626572204552524F5287
:1050C0003A202564000000004C4F470053485434F8
:1050D00030582F53545334302053657269616C201B
:1050E0004E756D6265723A20256400007047704706
:1050F00010B50020FEF7CEF900BF00BF474800689A
:10510000C007C00F0028F8D10120C002FEF700FC44
:10511000FEF792FC00BFFEF799FC0128FBD110209E
:10512000FEF7A4FCFEF7D6FBFEF7FEFB0121090407
:10513000884211D000BF3A480069C9000843384985
:10514000086100BF00BF084600690121C904884307
:105150003349086100BF00BF0020314909690322BB
:10516000D202914301432E4A116100BF00BF104695
:105170000069911508431146086100BF00BF00BFD8
:1051800027480069012149020840400A0028F6D05A
:10519000FEF7CAFB0121090488420AD008462049CB
:1051A000096903221204914301431D4A116100BFA2
:1051B00000BF00BF1A48006901218904084318494B
:1051C000086100BF9020FEF777FC0020FEF77EFC10
:1051D0000020FEF787FC0120FEF7B8FC00BFFEF7B9
:1051E000ABFB0428FBD10F48FEF74CFB0D48FEF744
:1051F000C7FF03200004FEF7B3FC03208004FEF782
:10520000AFFC0020FEF796FC03200004FEF782FCB2
:105210000120C003FEF772FC10BD00000020024018
:105220004010024000093D007047000010B53948A9
:105230000068401C3749086037480068401C364900
:105240000860344800683B2863DD0020314908606D
:1052500008464068401C4860084640683B2858DDC6
:105260000020486008468068401C886008468068C6
:1052700017284EDD002088600846C068401CC860C2
:1052800008468069401C886108468069062801DD5F
:10529000002088611F48006980002049085C20497F
:1052A00008701C484469E017800F001980108000C6
:1052B000201A06D1174948696421FAF731FF0029FD
:1052C00007D114494869FF219131FAF729FF0029D4
:1052D00008D110480069012804D111480078401C09
:1052E0000F4908700B48C0680D490978884210DDE5
:1052F00001200849C86008460069401C086108464A
:1053000000690B2805DD0020086108464069401C43
:10531000486110BDC007002034000020D49B000865
:105320003800002010B53A480068401C3849086031
:1053300038480088401C3749088037480068401CBE
:105340003549086035480068401C344908603448D5
:105350000089002805D032480089401E81B23048BB
:10536000018130480089002805D02E480089401E60
:1053700081B22C4801812C488088002805D02A4819
:105380008088401E81B228488180284800880028F3
:1053900004D026480088401E244908801F48006821
:1053A0007D21C900884207D300201C49086020489D
:1053B0000068401C1E4908601E480078401C1D49BA
:1053C000087008460078052803DD0020087002F008
:1053D000FBF80F4800687D21C900884215D30020E2
:1053E0000B490860FFF722FF0F48808800280CD186
:1053F00011488079002808D010480078002804D18E
:105400000D488079401E0C498871FEF7C1FF10BD20
:105410003C00002030000020240000202C00002050
:10542000F60B0020EC090020EC0800200200002010
:105430002800002040000020800700201D000020E0
:1054400008B501200E49496B01430D4A51631146CD
:10545000496B0140009100BF00BF00071146896BF6
:10546000014391631146896B0140009100BF00BF69
:10547000FEF730FA0321081F00F098F908BD00007C
:105480000010024010B500BF08480069C007C00FF7
:10549000012148404840002806D000BFC81E0349EB
:1054A000086100BFFFF73EFF10BD00000010004084
:1054B00030B585B004460D4600200190029003905F
:1054C000049010202749896B0143264A91631146B5
:1054D000896B0140009100BF00BF0121112000F045
:1054E000A1F9112000F04AF9681E69468880002061
:1054F0000290601E039001A91B48FEF747FE00BF03
:1055000019480068802108431749086000BF00203F
:105510004968702291430143134A516000BF00BFA4
:1055200010468068802188431146886000BF00BF14
:1055300008460068012108431146086000BF00BF0B
:1055400008460068022188431146086000BF00BF7A
:105550000846C068012108431146C86000BF05B075
:1055600030BD0000001002400010004010B512488D
:10557000FEF7F8FE002815D000BF0F49496AC9B2EE
:1055800008460E49C988FF290BDA0C49CA88C98820
:10559000491C8BB20949CB80FA3988541422FA315C
:1055A0000A8100BF0448FEF7D5FE002802D0024859
:1055B000FEF724FE10BD000000380140EC09002079
:1055C00010B51C48FEF7CEFE002815D000BF1949C3
:1055D000496AC9B208461849C988FF290BDA164931
:1055E000CA88C988491C8BB21349CB80FA398854C0
:1055F0001422FA310A8100BF0E48FEF7ABFE0028E4
:1056000002D00C48FEF7FAFD00BF0A48C069082125
:105610000840C008002805D000BF082005490862DE
:1056200000BF00BF05488079032802DA0320034940
:10563000887110BD00440040F60B00208007002058
:10564000F8B504460D46002627460CE03046721C8D
:1056500096B2395C0548FEF799FE00BF0348FEF795
:1056600087FE0028FAD0AE42F0DBF8BD00440040CF
:1056700000BF0A48C06880210840A021C9430843F0
:105680000649C86000BF00BF00BF0448C0682021B1
:10569000084040090028F7D000207047002800404B
:1056A0000FB47CB50C0009AD01D0611E00E00021F3
:1056B00001910090074B6A462946089800F0FAF9D4
:1056C000002C02D0009A002111707CBC08BC04B0F0
:1056D00018470000F16100080FB410B504A9074B8A
:1056E00002AA039800F0E6F9044602A9002000F09F
:1056F0008AFD204610BC08BC04B0184707620008A9
:105700007CB51D4616460C0001D0611E00E000214C
:1057100001910090054B6A462946304600F0CAF9CF
:10572000002C02D0009A002111707CBDF1610008AC
:105730002021020C01D010211046020A01D010468F
:105740000839020901D01046091F820801D010460D
:10575000891E420801D0881E7047081A704730B46D
:105760007446641E2578641CAB4204D3635D5B0001
:10577000E31830BC18471D46F8E70000002805DB99
:10578000C206D20E01219140014A1160704700000B
:1057900000E100E0002805DBC206D20E01219140A5
:1057A000014A11607047000000E100E010B50028D8
:1057B00019DB1A4A03231B02D21883089B00D25814
:1057C0008307DC0EFF23A3409A438B071B0E84073D
:1057D000E40EA3401A43114B032424021B1984082E
:1057E000A4001A5118E00E4A03071B0F083B9B0840
:1057F0009B00D2588307DC0EFF23A3409A438B07FC
:105800001B0E8407E40EA3401A43054B0407240F24
:10581000083CA408A4001A5110BD000000E100E0FB
:105820001CED00E010B5002819DB1A4A03231B0207
:10583000D21883089B00D2588307DC0EFF23A340B5
:105840009A438B071B0E8407E40EA3401A43114BA7
:10585000032424021B198408A4001A5118E00E4ADC
:1058600003071B0F083B9B089B00D2588307DC0EE5
:10587000FF23A3409A438B071B0E8407E40EA3402B
:105880001A43054B0407240F083CA408A4001A512E
:1058900010BD000000E100E01CED00E010B50028A4
:1058A00019DB1A4A03231B02D21883089B00D25823
:1058B0008307DC0EFF23A3409A438B071B0E84074C
:1058C000E40EA3401A43114B032424021B1984083D
:1058D000A4001A5118E00E4A03071B0F083B9B084F
:1058E0009B00D2588307DC0EFF23A3409A438B070B
:1058F0001B0E8407E40EA3401A43054B0407240F34
:10590000083CA408A4001A5110BD000000E100E00A
:105910001CED00E000487047A800002002E008C825
:10592000121F08C1002AFAD170477047002001E019
:1059300001C1121F002AFBD1704780F31088704705
:10594000F0B51FB486B00998089A030D00210243F0
:1059500014D05148514A1818504305141198012881
:1059600010981AD0281A401C00264D4F4D49009619
:1059700001910490002812DA444211E011980124A8
:1059800049A3012801D11098C1430698119A846057
:105990000360C26041600BB0F0BD4042E4E70446E2
:1059A000210500203F4A001C51410391029012E062
:1059B000E00707D032463B4601990098FAF718FEF7
:1059C0000191009032463B4610461946FAF710FE08
:1059D00006460F466410002CEAD10498039B002869
:1059E000029A0999089806DAFAF702FE019B009AD2
:1059F000FAF7FEFD05E0FAF763FE019B009AFAF75D
:105A00005FFE04460E460022284BFAF705FF03D836
:105A10000020C043014607E00022254B20463146C6
:105A2000FAF732FDFBF718F8102409E0002C0ADB26
:105A30000A220023FAF788FB079B30321A55641EAE
:105A400002460A43F2D11122641C079B121B1C1947
:105A5000119B012B03D0012308430ED10AE0084318
:105A600004D0112010900020119077E71098151A9B
:105A70006D1E0BE01098824202DD00236D1C03E0D6
:105A8000824201DA00236D1E002BEED00698119998
:105A90008260C16030C07EE701FCFFFF104D000056
:105AA000000014400000F03F300000000000F04310
:105AB0000000E03FFFB597B0064600251BE2252811
:105AC00076D100242746F749049400E00443761C6D
:105AD00032780120203A90400842F7D130782A28C5
