:020000040800F2
:10400000A01E0020A541000865AC0008698B0008CF
:1040100061AC00084D690008CDC000080000000038
:10402000000000000000000000000000E5B60008ED
:104030001D6A00080000000001B1000857BA00081E
:10404000BF410008BF410008BF410008BF41000850
:10405000BF410008BF410008BD710008BF41000812
:1040600045720008BF41000875720008BF41000892
:10407000BF410008BF410008BF410008BF41000820
:10408000BF410008BF410008BF410008BF41000810
:10409000BF410008BF410008BF4100081973000874
:1040A000BF410008C5BF0008BF410008BF4100086C
:1040B000BF4100080000000000000000BF410008F0
:1040C000BF410008BF410008BF410008BF410008D0
:1040D000BF410008EDBF0008BF41000851C0000803
:1040E00005720008F9B3000800000000000000009D
:1040F00000000000000000000000000000000000C0
:1041000000000000BF41000800000000BF4100089F
:104110000000000000000000BF410008BF4100088F
:10412000BF410008BF410008BF410008BF4100086F
:10413000BF41000800000000000000000000000077
:10414000BF41000855A30008BF410008000000005F
:10415000BF410008BF4100088DA30008BF4100080F
:10416000BF410008BF410008BF4100080000000037
:10417000BF410008BF41000800000000000000002F
:10418000BF410008BF410008BF410008DFF810D060
:1041900000F078FC0048004769360108AFF3008062
:1041A000A01E00200648804706480047FEE7FEE7BD
:1041B000FEE7FEE7FEE7FEE7FEE7FEE7FEE7FEE7D7
:1041C000DDBB00088D4100082DE9F05F05460020A9
:1041D00092469B4688460646814640241BE0284678
:1041E00041464746224600F07EFB53465A46C01AD7
:1041F000914110D311461846224600F065FB2D1A56
:1042000067EB01084F4622460120002100F05CFBCD
:1042100017EB00094E41201EA4F10104DFDC4846E3
:1042200031462A46434600F000B830BCBDE8C09F86
:10423000014900F003B800007016002010B50068B6
:104240003C22B0FBF2F302FB1303B0FBF2F00B6075
:10425000B0FBF2F302FB1303B0FBF2F018224B6049
:10426000B0FBF2F302FB1303B0FBF2F0021D8B6014
:104270000723B2FBF3F403FB1422800040F2B55392
:1042800000F66C308A61B0FBF3F2B0FBF3F403FB91
:104290001400443280084A61C8613B2802D3920767
:1042A00000D0401C0022074C13460A61E25C8242A7
:1042B00003D8801A5B1C0B61F8E7401CC8600846F5
:1042C00010BD0000E477010838B5D0E90221491E8D
:1042D00001EB410102EBC1014268C1EB011102EBAC
:1042E00081010268C1EB011102EB8102D0E90431C6
:1042F00001EB410103EB81013023A1F5527191FBE8
:10430000F3F4174D6C4302EBC41291FBF3F403FB7F
:10431000141100921A2902DB124B1A4400920C224B
:1043200091FBF2F3104C6343009C04EBC313009326
:1043300091FBF2F302FB13110C4A08E0491E40F214
:10434000A324535C6343009C04EBC3130093002934
:10435000F4DC01466846FFF771FF009838BD0000A5
:104360003F0C0F008051010067C20300F077010885
:1043700010B540EA01040346A40703D009E010C9C0
:10438000121F10C3042AFAD203E011F8014B03F8FC
:10439000014B521EF9D210BDD2B201E000F8012B40
:1043A000491EFBD270470022F6E710B513460A46B5
:1043B00004461946FFF7F0FF204610BD30B505460C
:1043C0002A460B4612F8010B13F8014B08B1A04224
:1043D000F8D01CB1002802D06D1CF1E7284630BD92
:1043E000421C10F8011B0029FBD1801A704710B540
:1043F000002200E0521C835C8C5CA34201D1002BA4
:10440000F8D1D8B2E1B2401A10BD30B50446002050
:10441000034600E05B1C934203D2E05CCD5C401B92
:10442000F8D030BD30B505460020034600E05B1CE7
:10443000934205D2EC5CC85C201A01D1002CF6D165
:1044400030BD000070B50F4D00B92868002412E09F
:104450000A4602E09E4203D0521C1378002BF9D189
:10446000DAB2224305D02BB124B1002100F8011BA0
:1044700004E00446401C0678002EE9D1286020465E
:1044800070BD00005402002070B5064607F03AFFE8
:10449000046805460A220021304600F046FA2C60E6
:1044A00070BD2DE9FE4F804681EA0300C00F0C4627
:1044B000009021F0004123F00045B8EB0200A94133
:1044C00005D24046214690461C460B46024623F044
:1044D0000040104347D0270DC7F30A00C3F30A5129
:1044E0000290401A019040286BDAC3F3130040F4A5
:1044F000801B0098924620B10023D2EB030A63EBA5
:104500000B0B01985946C0F14002504600F0DCF90F
:1045100006460D4650465946019A00F0F4F910EB54
:1045200008006141002487EA115284EAE7731A43C4
:1045300040D0009A62B3019A012A4FEA075215DC73
:10454000001B61EB02014FF0004202EA0752CDE985
:104550000042001C41F5801132462B4600F02CFA37
:1045600003B000F045B840462146F9E7001B61EB77
:104570000201001C41F5801300185B412018A2F5D0
:10458000001747EB030140EAD570B6196D4111E001
:104590006D084FEA360645EAC0754FEA0752001B20
:1045A00061EB0201001C41F5801149084FEA30001F
:1045B0000019514132462B4603B000F01CB800F000
:1045C000ECB90098012240000023D0EB020263EB1B
:1045D000E073009821464FEAE074B8EB000061EB0D
:1045E0000401E9E783F000435BE781F0004158E70D
:1045F00030BCBDE8C08F30BCBDE8C04FFFF7DFBFA7
:104600002DE9FE4F81EA030404F0004421F000414B
:1046100000944FF0000B23F0004350EA01045ED0F9
:1046200052EA03045BD0C3F30A54C1F30A552C4485
:10463000A4F2F3340194A0FB0254C1F3130141F43A
:104640008011C3F3130343F4801301FB024400FB06
:10465000034E840A970A44EA815447EA8357A4FB2D
:10466000076802958D0A05FB07854FEA932C04FB2A
:104670000C542705029D4FEA065847EA1637B5EB5A
:1046800008056EEB070C870E920E47EA811742EA87
:104690008312A7FB0201B6EB0B0164EB00042B0DA8
:1046A00043EA0C335E1844EB1C50DA465146E7FBF4
:1046B0000201C5F313044FEA0B3343EA14534FEAE4
:1046C0000432019C43EA0603A4F10C040294009C0A
:1046D000CDE900B400F070F903B000F003B8002099
:1046E0000146F9E730BCBDE8C08F2DE9F04D81EA05
:1046F000030404F0004B21F0004514464FF0000A7B
:1047000023F0004150EA050220D054EA01021DD0F6
:10471000C5F30A570246C5F31303C1F31300C1F3EF
:104720000A5640F4801543F48013A7EB0608101BCB
:10473000D64608F2FD3873EB050002D308F10108F4
:1047400001E092185B41B8F1000F03DA0020014646
:10475000BDE8F08D00204FF48011064684460EE03F
:10476000171B73EB050705D3121B63EB0503064309
:104770004CEA010C49084FEA300092185B4150EABC
:104780000107EDD152EA030012D082EA040083EA65
:104790000501084305D0101BAB4106D201220023BE
:1047A00006E000224FF0004302E06FF001025310D8
:1047B0001AEB06004CEB085110EB0A0041EB0B0121
:1047C000BDE8F04D00F0E9B80EB540F2334102917A
:1047D0000021CDE900110A460B4600F0EDF803B0C8
:1047E00000BDC1F30A5210B5C1F3130140F2FF330B
:1047F00041F480119A4201DA002010BD40F23343A7
:104800009A42A2F2334203DC524200F06CF810BD2F
:10481000904010BD00F0004230F000400AD0C10DC1
:1048200001F56071C0F3160042EA0151C208400769
:1048300011437047002001467047000030B5041E48
:1048400071F1000404DB4FF00044404264EB0101CD
:10485000141E73F1000405DB1C464FF00043524266
:1048600063EB04038B4208BF824230BD30B5041EA7
:1048700071F1000404DB4FF00044404264EB01019D
:10488000141E73F1000405DB1C464FF00043524236
:1048900063EB0403994208BF904230BD30B50B462C
:1048A000014600202022012409E021FA02F59D4260
:1048B00005D303FA02F5491B04FA02F52844151E34
:1048C000A2F10102F1DC30BD202A04DB203A00FA1B
:1048D00002F1002070479140C2F1200320FA03F357
:1048E000194390407047202A04DB203A21FA02F055
:1048F0000021704721FA02F3D040C2F1200291401A
:10490000084319467047202A06DBCB17203A41FAA4
:1049100002F043EAE07306E041FA02F3D040C2F14C
:10492000200291400843194670472DE9F04791460F
:104930000F4680460446002614F8015B2DB100F0B6
:10494000B3F80068405DC007F6D12B2D02D02D2DA5
:1049500018D0641E4A463946204600F0B7F827B101
:104960003968A14201D1C7F8008071054FF00204F7
:104970000BD54042002803DD07F0C4FC0460A0070B
:10498000BDE8F08746F48066E4E70028F8DA07F02F
:10499000B9FC04606FF00040F2E710B5141E73F12B
:1049A000000408DA401C41F1000192185B411A43EF
:1049B00001D120F0010010BD2DE9F04D92469B463B
:1049C00011B1B1FA81F202E0B0FA80F220329046E1
:1049D000FFF77AFF04460F4640EA0A0041EA0B015E
:1049E00053465A46084313D0114653EA010019D0E2
:1049F000C8F140025046FFF776FF05460E46504686
:104A000059464246FFF760FF084305D0012004E005
:104A100020463946BDE8F08D0020054346EAE076A1
:104A20002C4337430A986305E40AA0EB08000022F0
:104A3000FD0A44EA47540A3002D500200146E9E75E
:104A4000010510196941DDE9084500196941BDE812
:104A5000F04DA2E7C1F30A52C1F3130140F2FF3354
:104A600041F480119A4202DA00200146704740F278
:104A700033439A42A2F2334202DC5242FFF733BF81
:104A8000FFF722BF064C074D06E0E06840F0010347
:104A900094E8070098471034AC42F6D3FFF77AFB4E
:104AA00010860108308601080048704780780108A8
:104AB0003A2800D2303820F02002412A01D3A2F156
:104AC0003700884201D34FF0FF3070472DE9F05F87
:104AD00082460078002715468B460AF10104B94644
:104AE000302801D09DB113E014F8010B012778287C
:104AF00003D0582801D045B10AE00DB1102D07D1DF
:104B00000027102514F8010B02E0082500E00A2513
:104B10000026B0460EE005FB080005FB06F1012764
:104B200001EB10461FFA80F8B6F5803F00D3B94676
:104B300014F8010B2946FFF7BBFF0028EBDABBF1A5
:104B4000000F05D00FB1641E00E05446CBF80040C2
:104B5000B9F1000F06D007F0D5FB02210160C81E95
:104B600000F003B848EA0640FAE730BCBDE8C09F51
:104B700070B58C1810F8015B15F0070301D110F81F
:104B8000013B2A1106D110F8012B03E010F8016B4C
:104B900001F8016B5B1EF9D12B0705D40023521ECF
:104BA0000DD401F8013BFAE710F8013BCB1A921C37
:104BB00003E013F8015B01F8015B521EF9D5A14235
:104BC000D8D3002070BD000010B52DED088B1E4815
:104BD0000068401C1C4908601C4988422ED81A49AC
:104BE00009681A4A501AFFF7EFFD41EC1B0B9FEDC5
:104BF000180B53EC102BFFF703FD41EC1A0B9FED44
:104C0000160B53EC102BFFF770FD41EC190B9FEDC9
:104C1000140B53EC102BFFF744FC41EC180BFFF77F
:104C2000E0FD11490870084600781049097888426B
:104C300007D00D4800780D49087002E000200A49AD
:104C40000870BDEC088B10BD08000020F049020080
:104C5000000000000000594000000000804F0241A9
:104C6000000000000000E03F000000200C000020D9
:104C70002DE9F04706460F4614464FF000084FF066
:104C800064090DF0D3F930B932A134A004F0DEF894
:104C900034A004F0DBF8FF213848FFF784FB002044
:104CA0003749A1F80602304605F06CFF35A005F043
:104CB00069FF324D34A12046FFF780FB20B935A1B2
:104CC0002046FFF77BFB00B1ED1D33E021A1284614
:104CD000FFF774FB50B11FA120A004F0B7F83146D4
:104CE0002FA004F0B3F80020BDE8F08732A12846D9
:104CF000FFF764FB48B117A118A004F0A7F83146EC
:104D000030A004F0A3F80020EEE709FB08F0B84259
:104D100009DD33A111A004F099F8314632A004F066
:104D200095F80220E0E7484605F026FF08F101006B
:104D30001FFA80F821462846FFF740FB0028C5D01F
:104D400030A106A004F082F831462FA004F07EF8CE
:104D50000120C9E74552524F520000000A5B2573FB
:104D60005D0000004C6F526157414E2053746174D6
:104D70007573204552524F4521000000FE0B002064
:104D8000F80A00200D0000002B4C494E4B20494EE4
:104D9000464F3A002B52544320494E464F3A0000AA
:104DA0002225732220617420636D64206578656319
:104DB000206572726F720000424144205041524D92
:104DC000000000002225732220617420636D64209E
:104DD0006578656320626164207061726D00000017
:104DE0005741524E0000000022257322206174209A
:104DF000636D6420657865632074696D656F757493
:104E0000000000004C4F47002225732220617420CF
:104E1000636D642065786563207375636365737380
:104E20000000000010B586B000243DE020A240F252
:104E3000DC5120A0FFF71CFF01282FD120A121A0C9
:104E400004F004F8214922A004F000F810231F4ABE
:104E50000E3208211F4808F0E7FE19A119A003F03F
:104E6000F5FF1C480B38827C407C1A490B39097CC1
:104E7000184B0B3BDB7BCDE90131CDE90302154833
:104E80000B38807B009013480B38437B027BC17A40
:104E900011A003F0DBFF012006B010BD601C84B23E
:104EA0004FF47A7005F068FE032CBFDB0020F3E7B7
:104EB0000D0A000061742B6170706575693D3F00DB
:104EC0004C4F47000A5B25735D000000FE0B00207D
:104ED000257300001B1400204150504555493A20CD
:104EE0002530327820253032782025303278202540
:104EF0003032782025303278202530327820253025
:104F0000327820253032780010B58EB000245EE073
:104F100031A240F2DC5131A0FFF7AAFE012850D1A6
:104F200035A136A003F092FF364937A003F08EFF7B
:104F30002023344A0E321021344808F075FE2EA189
:104F40002EA003F083FF3148133890F8221090F818
:104F5000212090F820002D4B133BDB7FCDE9093059
:104F6000CDE90B2129481338807F28491339497F1F
:104F7000264A133A127F254B133BDB7ECDE90532DF
:104F8000CDE9071021481338807E20491339497E26
:104F90001E4A133A127E1D4B133BDB7DCDE90132D5
:104FA000CDE9031019481338807D00901748133855
:104FB000437D027DC17C164803F048FF01200EB0FE
:104FC00010BD601C84B24FF47A7005F0D5FD032C3F
:104FD0009EDB0020F3E700000D0A000061742B61E6
:104FE00070706B65793D3F7777772E6C616E766573
:104FF000652E636F6D0000004C4F47000A5B257300
:105000005D000000FE0B002025730000231400202B
:10501000C878010810B5002417E00EA240F2DC5158
:105020000DA0FFF725FE012809D10EA10EA003F067
:105030000DFF0F490FA003F009FF012010BD601CF8
:1050400084B24FF47A7005F097FD032CE5DB002065
:10505000F4E700000D0A000061742B62616E643D8C
:105060003F0000004C4F47000A5B25735D000000C5
:10507000FE0B00202573000010B5002417E00EA2DF
:1050800040F2DC510DA0FFF7F3FD012809D10DA17D
:105090000DA003F0DBFE0E490EA003F0D7FE0120A9
:1050A00010BD601C84B24FF47A7005F065FD032CCE
:1050B000E5DB0020F4E700000D0A000061742B63BB
:1050C000683D3F004C4F47000A5B25735D000000C0
:1050D000FE0B00202573000010B5002417E00EA27F
:1050E00040F2DC510DA0FFF7C3FD012809D10EA14C
:1050F0000EA003F0ABFE0F490FA003F0A7FE0120A6
:1051000010BD601C84B24FF47A7005F035FD032C9D
:10511000E5DB0020F4E700000D0A000061742B635A
:105120006C6173733D3F00004C4F47000A5B257371
:105130005D000000FE0B00202573000038B5002440
:1051400032E01BA240F2DC511AA0FFF791FD0128CA
:1051500024D11CA11CA003F079FE1D491DA003F061
:1051600075FE08231A4A0F3204211B4808F05CFD23
:1051700014A115A003F06AFE1748233890F8260002
:1051800000901548233890F8253090F8242090F8A6
:10519000231012A003F05AFE012038BD601C84B217
:1051A0004FF47A7005F0E8FC032CCADB0020F4E72A
:1051B0000D0A000061742B646576616464723D3F82
:1051C000000000004C4F47000A5B25735D000000A3
:1051D000FE0B002025730000331400204445564187
:1051E0004444523A20253032782025303278202528
:1051F00030327820253032780000000010B586B0BB
:1052000000243DE020A240F2DC5120A0FFF730FD59
:1052100001282FD120A121A003F018FE214922A0AE
:1052200003F014FE10231F4A0E3208211F4808F015
:10523000FBFC19A119A003F009FE1C48C01E827ACC
:10524000407A1A49C91E097A184BDB1EDB79CDE971
:105250000131CDE903021548C01E80790090134842
:10526000C01E43790279C17811A003F0EFFD01203F
:1052700006B010BD601C84B24FF47A7005F07CFC5F
:10528000032CBFDB0020F3E70D0A000061742B64E0
:1052900065766575693D3F004C4F47000A5B257395
:1052A0005D000000FE0B0020257300001314002099
:1052B0004465764555493A202530327820253032EC
:1052C0007820253032782025303278202530327809
:1052D0002025303278202530327820253032780071
:1052E00010B5002417E00EA240F2DC510DA0FFF72C
:1052F000BFFC012809D10DA10DA003F0A7FD0E49A7
:105300000EA003F0A3FD012010BD601C84B24FF479
:105310007A7005F031FC032CE5DB0020F4E7000097
:105320000D0A000061742B64723D3F004C4F470032
:105330000A5B25735D000000FE0B00202573000052
:1053400010B5002417E00EA240F2DC510DA0FFF7CB
:105350008FFC012809D10EA10EA003F077FD0F49A3
:105360000FA003F073FD012010BD601C84B24FF448
:105370007A7005F001FC032CE5DB0020F4E7000067
:105380000D0A000061742B6972713D3F000000003E
:105390004C4F47000A5B25735D000000FE0B0020A8
:1053A0002573000010B500241CE010A240F2DC516F
:1053B0000FA0FFF75DFC01280ED110A110A003F093
:1053C00045FD114911A003F041FD11A10E48FEF762
:1053D000F5FF08B1012010BD601C84B24FF4FA70D3
:1053E00005F0CAFB032CE0DB0020F4E70D0A000007
:1053F00061742B6A6F696E3D3F0000004C4F47009F
:105400000A5B25735D000000FE0B00202573000081
:105410002C6A6F696E65642C0000000010B50CA248
:1054200040F2DC510BA0FFF723FC01280ED10CA1A8
:105430000CA003F00BFD0D490DA003F007FD0DA11D
:105440000A48FEF7BBFF08B1012010BD0020FCE7B1
:105450000D0A000061742B6A6F696E3D3F00000009
:105460004C4F47000A5B25735D000000FE0B0020D7
:10547000257300002C6A6F696E65642C00000000C3
:1054800010B5002417E00EA240F2DC510DA0FFF78A
:10549000EFFB012809D10EA10EA003F0D7FC0F49A4
:1054A0000FA003F0D3FC012010BD601C84B24FF4A8
:1054B0007A7005F061FB032CE5DB0020F4E70000C7
:1054C0000D0A000061742B6C706370696E3D3F00C3
:1054D0004C4F47000A5B25735D000000FE0B002067
:1054E0002573000010B5002417E00EA240F2DC5135
:1054F0000DA0FFF7BDFB012809D10FA10FA003F0FC
:10550000A5FC104910A003F0A1FC012010BD601CF7
:1055100084B24FF47A7005F02FFB032CE5DB0020FA
:10552000F4E700000D0A000061742B6D61636D6F7C
:1055300064653D3F000000004C4F47000A5B257347
:105540005D000000FE0B00202573000010B5002454
:1055500017E00EA240F2DC510DA0FFF789FB0128F5
:1055600009D10FA10FA003F071FC104910A003F0A6
:105570006DFC012010BD601C84B24FF47A7005F000
:10558000FBFA032CE5DB0020F4E700000D0A000025
:1055900061742B7472616E7366706F72743D3F003C
:1055A0004C4F47000A5B25735D000000FE0B002096
:1055B0002573000010B5002417E00EA240F2DC5164
:1055C0000DA0FFF755FB012809D10EA10EA003F095
:1055D0003DFC0F490FA003F039FC012010BD601CF9
:1055E00084B24FF47A7005F0C7FA032CE5DB002093
:1055F000F4E700000D0A000061742B7061726D3DCC
:105600003F0000004C4F47000A5B25735D0000001F
:10561000FE0B00202573000010B5002417E00EA239
:1056200040F2DC510DA0FFF723FB012809D10EA1A8
:105630000EA003F00BFC0F490FA003F007FC0120A4
:1056400010BD601C84B24FF47A7005F095FA032CFB
:10565000E5DB0020F4E700000D0A000061742B7206
:1056600078323D3F000000004C4F47000A5B257335
:105670005D000000FE0B00202573000010B5002423
:1056800017E00EA240F2DC510DA0FFF7F1FA01285D
:1056900009D10EA10EA003F0D9FB0F490FA003F012
:1056A000D5FB012010BD601C84B24FF47A7005F068
:1056B00063FA032CE5DB0020F4E700000D0A00008C
:1056C00061742B7278313D3F000000004C4F470061
:1056D0000A5B25735D000000FE0B002025730000AF
:1056E00010B5002417E00EA240F2DC510DA0FFF728
:1056F000BFFA012809D10FA10FA003F0A7FB1049A1
:1057000010A003F0A3FB012010BD601C84B24FF475
:105710007A7005F031FA032CE5DB0020F4E7000095
:105720000D0A000061742B727863686578743D3FE0
:10573000000000004C4F47000A5B25735D0000002D
:10574000FE0B00202573000010B5002417E00EA208
:1057500040F2DC510DA0FFF78BFA012809D10EA110
:105760000EA003F073FB0F490FA003F06FFB0120A5
:1057700010BD601C84B24FF47A7005F0FDF9032C63
:10578000E5DB0020F4E700000D0A000061742B73D4
:105790006C6565703D3F00004C4F47000A5B257308
:1057A0005D000000FE0B00202573000010B50024F2
:1057B00017E00EA240F2DC510DA0FFF759FA0128C4
:1057C00009D10EA10EA003F041FB0F490FA003F079
:1057D0003DFB012010BD601C84B24FF47A7005F0CF
:1057E000CBF9032CE5DB0020F4E700000D0A0000F4
:1057F00061742B7665723D3F000000004C4F4700FE
:105800000A5B25735D000000FE0B0020257300007D
:1058100010B5002415E00DA240F2DC510CA0FFF7FA
:1058200027FA012807D10D48007820F001000B4924
:105830000870012010BD601C84B24FF47A7005F02E
:105840009BF9032CE7DB0020F4E700006F6B0000FE
:1058500061742B7265626F6F740000001014002079
:1058600010B5002415E00DA240F2DC510CA0FFF7AA
:10587000FFF9012807D10C48007820F001000A49FF
:105880000870012010BD601C84B24FF47A7005F0DE
:1058900073F9032CE7DB0020F4E700006F6B0000D6
:1058A00061742B64656600001014002010B58EB082
:1058B00000241C2218A107A8FEF75AFD1D48807C71
:1058C0001C49497C1B4A127C1A4BDB7BCDE9023216
:1058D000CDE904101748807B1649497BCDE90010BB
:1058E0001448037BC27A14A107A806F00BFC0FE052
:1058F0001CA240F2DC5107A8FFF7BAF9012801D138
:105900000EB010BD601C84B24FF47A7005F034F90B
:10591000032CEDDB0020F3E761742B61707065757B
:10592000693D4646464646453030303030303030AE
:10593000303100001014002061742B6170706575A7
:10594000693D25303278253032782530327825305F
:10595000327825303278253032782530327825304B
:10596000327800006F6B000010B59AB000242C2232
:1059700025A10FA8FEF7FCFC2E4890F822002D4927
:1059800091F821102B4A92F820202A4BDB7FCDE999
:105990000A32CDE90C102748807F2649497F254AE5
:1059A000127F244BDB7ECDE90632CDE90810214879
:1059B000827E407E1F49097E1E4BDB7DCDE9023190
:1059C000CDE904021B48807D1A49497DCDE90010CC
:1059D0001848037DC27C18490FA806F093FB0FE01E
:1059E00016A240F2DC510FA8FFF742F9012801D1BD
:1059F0001AB010BD601C84B24FF47A7005F0BCF888
:105A0000032CEDDB0020F3E761742B6170706B6594
:105A1000793D3242374531353136323841454432AD
:105A200041364142463731353838303943463446BD
:105A30003343000010140020907D01086F6B0000BC
:105A400008B505A00068009004A24FF4FA716846FA
:105A5000FFF70EF9012008BD2B2B2B000D0A0000CB
:105A60001CB515A103C9CDE9000100241FE014A253
:105A700040F2DC516846FFF7FBF8012811D111A173
:105A800011A003F0E3F9124912A003F0DFF9FF219E
:105A90000F48FEF788FC00200F49A1F806020120FC
:105AA0001CBD601C84B24FF47A7005F065F8032CBD
:105AB000DDDB0120F4E7000061742B657869740078
:105AC0000D0A00004C4F47000A5B25735D00000083
:105AD000FE0B002025730000F80A002030B585B0C9
:105AE0000446002514216846FEF75DFC234611A2FA
:105AF0001421684606F0ECFA18E011A240F2DC51DD
:105B00006846FFF7B5F801280AD10EA10EA003F0F0
:105B10009DF90F4909A003F099F9012005B030BDA6
:105B2000681C85B24FF47A7005F026F8032DE4DB8B
:105B30000020F3E761742B62616E643D2573000001
:105B40006F6B00004C4F47000A5B25735D0000003F
:105B5000FE0B002030B589B00546002424220EA19A
:105B60006846FEF705FC15A1684606F0CBFA0FE083
:105B700016A240F6C4116846FFF77AF8012801D151
:105B800009B030BD601C84B24FF47A7004F0F4FFA9
:105B9000032CEDDB0020F3E761742B63683D6D633C
:105BA000682C3437303330303030302C32303030B5
:105BB00030302C382C302C350000000061742B6301
:105BC000683D65753836382C310000006F6B000079
:105BD0003EB50446002515A207CA8DE8070024B982
:105BE00012A1684606F08EFA0CE0012C04D112A135
:105BF000684606F087FA05E0022C03D111A1684639
:105C000006F080FA0EE012A240F2DC516846FFF77F
:105C10002FF8012800D13EBD681C85B24FF47A7080
:105C200004F0AAFF032DEEDB0020F4E761742B6380
:105C30006C6173733D61000061742B636C617373FD
:105C40003D62000061742B636C6173733D630000FF
:105C50006F6B00007CB5044600250EA103C9CDE999
:105C6000000122460DA1684606F04CFA0EE00EA295
:105C700040F2DC516846FEF7FBFF012800D17CBDF5
:105C8000681C85B24FF47A7004F076FF032DEEDBCA
:105C90000020F4E761742B64723D300061742B6462
:105CA000723D2564000000006F6B00001FB50024EA
:105CB0000CA30FCB8DE80F000FE00EA240F2DC51D9
:105CC0006846FEF7D5FF012801D104B010BD601C65
:105CD00084B24FF47A7004F04FFF032CEDDB002008
:105CE000F3E7000061742B6972713D726973652C72
:105CF000353000006F6B00007FB5044600250FA310
:105D00000FCB8DE80F001CB110A1684606F0FAF920
:105D10000FE012A240F2DC516846FEF7A9FF01280D
:105D200001D104B070BD681C85B24FF47A7004F0E4
:105D300023FF032DEDDB0020F3E7000061742B6AE5
:105D40006F696E3D6F7461612C31300061742B633B
:105D50006C6173733D6162702C3130006F6B0000B9
:105D60007FB5044600250FA30FCB8DE80F001CB1B3
:105D700010A1684606F0C6F90FE012A240F2DC510D
:105D80006846FEF775FF012801D104B070BD681C9C
:105D900085B24FF47A7004F0EFFE032DEDDB0020A6
:105DA000F3E7000061742B6A6F696E3D6F74616187
:105DB0002C30000061742B636C6173733D61627001
:105DC0002C3000006F6B000010B500240EE009A21B
:105DD00040F2DC5108A0FEF74BFF012800D110BDB6
:105DE000601C84B24FF47A7004F0C6FE032CEEDB24
:105DF0000020F4E76F6B000061742B6D6F64653DEC
:105E00006D61630030B585B00446002514220FA1F2
:105E10006846FEF7ADFA224611A1684606F072F90F
:105E20000FE014A240F2DC516846FEF721FF012882
:105E300001D105B030BD681C85B24FF47A7004F012
:105E40009BFE032DEDDB0020F3E7000061742B7453
:105E500072616E7366706F72743D313000000000C5
:105E600061742B7472616E7366706F72743D256419
:105E7000000000006F6B000070B586B004460D4650
:105E8000002614220FA101A8FEF772FA2B46224623
:105E900011A101A806F036F90FE013A240F2DC517F
:105EA00001A8FEF7E5FE012801D106B070BD701C07
:105EB00086B24FF47A7004F05FFE032EEDDB002013
:105EC000F3E7000061742B7278323D302C3836399C
:105ED000353235303030000061742B7278323D2518
:105EE000642C2564000000006F6B000010B586B0C4
:105EF000002418220CA16846FEF73AFA0FE010A21F
:105F000040F2DC516846FEF7B3FE012801D106B02D
:105F100010BD601C84B24FF47A7004F02DFE032C87
:105F2000EDDB0020F3E7000061742B727870726C77
:105F3000656E3D6175746F2C3135303000000000A6
:105F40006F6B000010B588B0002420220CA16846B9
:105F5000FEF70EFA0FE012A240F2DC516846FEF79F
:105F600087FE012801D108B010BD601C84B24FF437
:105F70007A7004F001FE032CEDDB0020F3E7000053
:105F800061742B736C6565703D6C696768742C3146
:105F90003530302C6C6576656C2C6C6F77000000AA
:105FA0006F6B000030B58DB0182107A8FEF7FBF924
:105FB000182101A8FEF7F7F900204049096821F4EB
:105FC000406101433D4A883AC2F8881000BF012071
:105FD0001146C96D0143D1651146C96D014000915B
:105FE00000BF00BF022002F0DBFF4FF440600190D1
:105FF00002200290032003900020049001200590CD
:106000000820069001A92E4803F07AF906F0F6F868
:1060100005460022114604F047FE0446214646206C
:1060200006F01CF9462006F0CFF84FF4E130079057
:106030000020089009900A900C200B9000200C90F2
:1060400007A9204803F0CCFA1E4800BF00BF00BFDC
:1060500050E8002F42F0200140E80012002AF7D15A
:1060600000BF00BF174800BF00BF00BF50E8002FAF
:1060700042F4807140E80012002AF7D100BF00BF4F
:1060800000BF01200F49086200BF00BF084600683A
:1060900040F00100086000BF00BF00BF0948C069B0
:1060A000C0F340500028F8D000BF0648C069C0F3D4
:1060B00080500028F1D00DB030BD000088100240A3
:1060C000000400480080004000B589B00DF05AFD82
:1060D000002006900790089018216846FEF763F9A3
:1060E000012002F04FFF022002F04CFF042002F0DA
:1060F00049FF0120019003200290002003900490AA
:106100004FF4004000906946FE4803F0F9F8102073
:1061100000906946FB4803F0F3F8012000906946BF
:10612000F84803F0EDF8022000906946F54803F0C6
:10613000E7F8082000906946F34803F0E1F80220F0
:1061400000906946F04803F0DBF8042000906946AF
:10615000ED4803F0D5F84FF4804000906946E948D7
:1061600003F0CEF84FF4805000906946E54803F004
:10617000C7F84FF4005000906946E24803F0C0F8B9
:10618000082000906946DF4803F0BAF84FF48070A9
:1061900000906946DB4803F0B3F84FF400700090BC
:1061A0006946D84803F0ACF80220009069464FF0E9
:1061B000904003F0A5F84FF40041D24803F039F9BC
:1061C0004FF40041CF4803F034F90121CD4803F0EA
:1061D00030F90221CB4803F02CF90821CA4803F01A
:1061E00028F90221C84803F024F90421C64803F025
:1061F00020F94FF48041C34803F01BF94FF480515C
:10620000C04803F016F94FF40051BE4803F011F9ED
:106210000821BC4803F00DF94FF48071B94803F030
:1062200008F94FF40071B74803F003F902214FF069
:10623000904003F0FEF800200190049001200090AF
:1062400069464FF0904003F05BF802200490042070
:1062500000906946AB4803F053F8002004904020BA
:10626000009069464FF0904003F04AF8802000907B
:1062700069464FF0904003F043F8102000906946C3
:106280004FF0904003F03CF82020009069464FF01A
:10629000904003F035F840219B4803F0D2F84FF4CA
:1062A00080714FF0904003F0CCF801200190002065
:1062B000029003900490402000906946924803F0B9
:1062C0001FF84FF48070009069464FF0904003F043
:1062D00017F84FF400600090002001900490694688
:1062E0004FF0904003F00CF88849002003F010FEB6
:1062F00000224FF400614FF0904003F0BCF8002200
:106300004FF400614FF0904003F0A1F84FF40060AB
:10631000069001208DF8200000208DF82100032038
:106320008DF8220006A802F027FF0021282005F0A2
:106330006DFF282005F026FF4FF47021002003F0A8
:10634000E7FD002201214FF0904003F094F8002275
:1063500001214FF0904003F07AF8012006908DF86B
:10636000200000208DF8210003208DF8220006A8CF
:1063700002F002FF4FF07061012003F0C9FD02221C
:106380000421604803F077F8002204215D4803F0FF
:106390005EF80420069001208DF8200000208DF882
:1063A000210003208DF8220006A802F0E5FE5849DE
:1063B000002003F0ADFD012240214FF0904003F09A
:1063C0005AF8002240214FF0904003F040F840205E
:1063D000069001208DF8200000208DF82100032078
:1063E0008DF8220006A802F0C7FE4849491E002089
:1063F00003F08EFD012280214FF0904003F03BF826
:10640000002280214FF0904003F021F88020069078
:1064100001208DF8200000208DF8210003208DF848
:10642000220006A802F0A8FE3A49002003F070FD01
:10643000022210214FF0904003F01DF8002210219D
:106440004FF0904003F003F81020069001208DF8E3
:10645000200000208DF8210002208DF8220006A8DF
:1064600002F08AFE2C49002003F052FD0222202176
:106470004FF0904002F0FFFF002220214FF09040AB
:1064800002F0E5FF2020069001208DF8200000207A
:106490008DF8210002208DF8220006A802F06CFE83
:1064A0000021062005F0B2FE062005F06BFE00215B
:1064B000082005F0ABFE082005F064FE00210A204C
:1064C00005F0A4FE0A2005F05DFE0021172005F06E
:1064D0009DFE172005F056FE01221049104807F0D6
:1064E0006AF9104A03210E4807F04AF80C4807F0F1
:1064F0007BF901220C490D4807F05DF90C4A032194
:106500000A4817E00004004800080048020000F0B4
:106510000100000F01000F000100F000813C0108A4
:10652000540A0020F1AF00088D3C01087C0A0020CD
:1065300079B0000807F024F8024807F055F909B0CF
:1065400000BD00007C0A002030B58FB01C2108A8D7
:10655000FDF729FF182102A8FDF725FF4FF4403071
:1065600003F0A4F94FF480402749096E0143264AFD
:1065700011661146096E0140019100BF00BF012064
:1065800002F00EFD4FF4C060029002200390032041
:10659000049000200590012006900720079002A992
:1065A0004FF0904002F0ACFE05F028FE05460122B7
:1065B000002104F079FB04462146252005F04EFE1B
:1065C000252005F001FE4FF4E130089000200990ED
:1065D0000A900B900C200C9000200D900E9008A9B2
:1065E0000A4803F033FE094803F0D1FD074803F0E1
:1065F0000FFE064803F01DFE044803F00EFE03489C
:1066000003F0C2FD0FB030BD001002400038014061
:1066100030B58FB01C2108A8FDF7C5FE182102A8CF
:10662000FDF7C1FE4FF4401003F040F94FF4802015
:106630002E49896D01432D4A91651146896D0140AE
:10664000019100BF00BF042002F0AAFC302002909C
:106650000220039003200490002005900120069062
:106660000720079002A9224802F04AFE05F0C6FD65
:1066700005460022012104F017FB0446214627208D
:1066800005F0ECFD272005F09FFD4FF4E130089068
:10669000002009900A900B900C200C9000200D9087
:1066A0000E9008A9134803F0D1FD124803F06FFDC6
:1066B00000BF1048806840F480500E49886000BFD9
:1066C00000BF0846806820F40050886000BF08467C
:1066D00003F09EFD074803F0ACFD064803F09DFD66
:1066E000044803F051FD0FB030BD0000001002401F
:1066F000000800480048004000B587B0224803F079
:106700004FFD00BF2048006820F001001E490860CE
:1067100000BF4FF480201D49896C81431B4A91645E
:1067200000BF2720002817DB00F01F020121914045
:10673000174A430942F8231000BF00BF00BFBFF350
:106740004F8F00BF00BF00BF00BF00BF00BFBFF33F
:106750006F8F00BF00BF00BF00BF182101A8FDF769
:1067600022FE042002F01CFC302001900320029045
:106770000020059001A9074802F0C2FD302005491C
:10678000886200BF07B000BD004800400010024012
:1067900080E100E00008004830B595B004460D46A1
:1067A000142110A8FDF7FFFD202108A8FDF7FBFD2F
:1067B000182102A8FDF7F7FD012002F01BFC681E5E
:1067C00080B2ADF8400000201190601E12900020B1
:1067D000139010A94FF0804003F016FC00BF4FF05B
:1067E0008040006820F080004FF08041086000BFCA
:1067F000002089682A4A114001434FF0804291608D
:1068000000BF602008900120099000200A900B90A2
:106810000C9008AA1021880603F072FC102188064B
:1068200003F034FC00204FF08041496821F07001F2
:1068300001434FF08042516000BF00BF10468068A6
:1068400020F080001146886000BF01201549C96C06
:106850000143144AD1641146C96C0140019100BF43
:1068600000BF0220029003900320049000200590B6
:1068700006900120079002A94FF0904002F040FDE1
:1068800001211C2005F0D6FC1C2005F08CFC1020FA
:106890008106096A01438206116200BF15B030BD4E
:1068A000F8BFFEFF001002402DE9F04105460E46FC
:1068B0004FF4FA6404FB06F06421B0FBF1F72046C4
:1068C0000421FFF769FF3846A106886300BF084628
:1068D00003F090FBA00603F092FBA8B20CF0B8FE08
:1068E00000BFA006C06820F00400A106C86000BF79
:1068F000084603F02FFB02204FF09041886200BF52
:10690000BDE8F08170B504462046FDF769FD85B20B
:106910002946204600F002F870BD0000F0B50022C4
:1069200005460EE0084B1646571CBAB2AC5D1C85F6
:1069300000BF00BF00BF044BDB69C3F38013002B13
:10694000F8D08A42EEDBF0BD0080004000BFFEE7D9
:106950002DE9F04105460E4600240027A046002000
:1069600002E0295C0C44401C711E8142F9DC204687
:10697000E11704EB11610912A4EB0121CFB2701EE3
:10698000285CB8420BD007A108A002F05FFA701E85
:106990002A5C394607A002F059FA4FF00108404638
:1069A000BDE8F0815741524E000000000A5B25739C
:1069B0005D00000063616C206572726F72207375F8
:1069C0006D5B25642D25645D000000002DE9F0411C
:1069D00005460E461746294608A002F037FA00245D
:1069E00004E0315D0AA002F031FA641CBC42F8DB1D
:1069F00009A002F02BFABDE8F08100000A5561728F
:106A0000742044617461205B25735D3A00000000CE
:106A100020253032780000000A000000704701B5E0
:106A2000002106E0642100BF081EA1F1010291B21D
:106A3000FAD1BDF80000421E92B200920028F1D1B6
:106A400008BD000010B5AA480079C0F380100028E6
:106A500036D0A748007920F04000A54908710846C3
:106A60008079C0F3C000A3490968C1F3800188425E
:106A700026D014200CF0ECFD9D488079C0F3C000B6
:106A80009C490968C1F38001884219D0994800687F
:106A900080089749897960F3C30195488171807BAB
:106AA000052802DA05209249887393A193A002F089
:106AB000CDF98F488079C0F3C00192A002F0C6F9E9
:106AC0008B480079C0F3001000283FD08848007937
:106AD00020F010008649087108468079C0F3001044
:106AE0004FF090410969C1F3801188422ED01420E3
:106AF0000CF0AEFD7E488079C0F300104FF090415D
:106B00000969C1F38011884220D04FF0904000699C
:106B100080097749897960F304117548817180791A
:106B200020F00100401C724988710846807B0528CE
:106B300001DA0520887370A170A002F087F96C4813
:106B40008079C0F3001177A002F080F968480079DD
:106B5000C0F3401000283FD06548007920F02000A5
:106B60006349087108468079C0F340104FF09041A6
:106B70000969C1F3C01188422ED014200CF068FDC1
:106B80005B488079C0F340104FF090410969C1F330
:106B9000C011884220D04FF090400069C00954498C
:106BA000897960F3451152488171807920F00100A4
:106BB000401C4F4988710846807B052801DA052072
:106BC00088734DA14DA002F041F949488079C0F386
:106BD00040115DA002F03AF945488079C0F30010F9
:106BE0004FF090410969C1F38011884206D04048B6
:106BF000007920F0100010303D4908713C48807940
:106C0000C0F340104FF090410969C1F3C0118842B0
:106C100006D03748007920F0200020303449087130
:106C20003348807A002838D031488079C0F300108A
:106C300020B92F488079C0F34010C0B12C4880792A
:106C4000C0F38000002828D12948807920F0040072
:106C5000001D2749887128A128A002F0F7F82448D0
:106C60008079C0F3800141A002F0F0F815E02048DF
:106C70008079C0F3800080B11D48807920F0040045
:106C80001B4988711CA11DA002F0E0F8184880790A
:106C9000C0F3800135A002F0D9F83B4800683B49B9
:106CA0000968884210D81248408AC0EB0010374962
:106CB000096801EB8000344908600D48807920F0B4
:106CC0000100401C0A4988710948C07A78B1002047
:106CD0000749C87208A109A002F0B8F82CA002F078
:106CE000B5F80BF0B3FE002001498882C88210BDC0
:106CF000340A0020100400484C4F47000A5B2573FB
:106D00005D000000424C4520436F6E6E6563742049
:106D10005374617465204368616E676520546F2009
:106D200025640000496E736572743120436F6E6E86
:106D3000656374205374617465204368616E676590
:106D400020546F2025640000496E736572743220F0
:106D5000436F6E6E6563742053746174652043687D
:106D6000616E676520546F2025640000506F776561
:106D700072205374617465204368616E67652054A6
:106D80006F20256400000000140000204400002053
:106D9000446576696365205A65726F204576656E35
:106DA0007400000010B52848007800F001000028A9
:106DB00044D02648B0F8040100283FD12448007888
:106DC00028B3FF212148FDF7EEFADC212148FDF729
:106DD000EAFA204C0122204920480CF055FB1E48BD
:106DE000027821461D480CF04FFB0EF043F818487E
:106DF0000078401EC0B21649087038B94FF47A7155
:106E00001748FDF7D0FA15480CF098FB16E0154826
:106E1000807900F0010088B11248807920F00100EB
:106E20001049887100F024F80E48408AC0EB001029
:106E30000D49096801EB80000C49086001F058F920
:106E4000FFF700FE10BD000010140020F80A00201B
:106E500010000020640700201C00002044060020D1
:106E60005C020020340A00204400002014000020AE
:106E700070B5474D0024DC212846FDF794FA002028
:106E800044490870294601200EF0F2F804462544D2
:106E90004048007820443F490870294603200EF0FE
:106EA000E7F8044625443B480078204439490870F7
:106EB00029463C200EF0DCF804462544354800788D
:106EC000204434490870294640200EF0D1F8044689
:106ED00025443048007820442E4908702946412036
:106EE0000EF0C6F8044625442A4800782044294973
:106EF0000870294642200EF0BBF804462544254878
:106F00000078204423490870294643200EF0B0F849
:106F1000044625441F48007820441E49087029462D
:106F200086200EF0A5F8044625441A48007820442F
:106F30001849087029468A200EF09AF8044625441C
:106F40001448007820441349087013480CF02CFAB8
:106F5000064610480078401C864210DB01220D498D
:106F60000D480CF01BFB0B48027809490A480CF04D
:106F700015FB0A480078401C0849087006E008A183
:106F800009A001F063FF0AA001F060FF70BD0000DE
:106F9000640700201C000020440600201000002090
:106FA0004552524F520000000A5B25735D000000FD
:106FB0004C77726220416C72656164792046756C11
:106FC0006C0000002DE9F04102250026DC216D480F
:106FD000FDF7E9F900206C4908706C480CF0E4F901
:106FE00007463D20674908700024A4E004EB4401F3
:106FF000674800EB8100007A00287DD0701CC6B283
:1070000004EB4401624810F821202846691CCDB2E7
:107010005C490A5404EB44015D4800EB810042786E
:107020002846691CCDB257490A5404EB440158481C
:1070300000EB810082782846691CCDB251490A5480
:1070400004EB4401524800EB81004089020A2846C3
:10705000691CCDB24B490A5404EB44014C4800EB87
:107060008100827A2846691CCDB246490A5404EB55
:107070004401474800EB8100C2782846691CCDB224
:1070800040490A5404EB4401414800EB8100027975
:107090002846691CCDB23B490A5404EB44013C48E4
:1070A00000EB810042792846691CCDB235490A546B
:1070B00004EB4401364800EB810082792846691CC4
:1070C000CDB230490A5404EB4401314800EB810051
:1070D000C2792846691CCDB22A490A54042E28D107
:1070E000084646702848057028480CF05DF90746A8
:1070F00025480078401C00E01BE0874210DB01229D
:10710000214922480CF04AFA1F4802781D491F48BD
:107110000CF044FA1F480078401C1E49087006E035
:107120001DA11FA001F092FE1FA001F08FFE0225FD
:107130000026601CC4B2102CFFF658AF002E1FDDD5
:1071400010484670104805700078401C874210DBDC
:1071500001220D490D480CF021FA0B48027809492B
:107160000A480CF01BFA0B480078401C09490870CB
:1071700006E009A10AA001F069FE0BA001F066FE7D
:10718000BDE8F081640700201C00002044060020B8
:1071900064060020100000204552524F52000000AB
:1071A0000A5B25735D0000004C77726220416C72AF
:1071B000656164792046756C6C00000010B5012093
:1071C00002F092F8D0B1012001F070FF0C48407934
:1071D000C0F3400058B10A48407920F00200084945
:1071E00048710846007920F00200801C08710448AC
:1071F000807B052802DA05200149887310BD000054
:10720000340A002010B54FF4006002F06DF8B0B100
:107210004FF4006001F04AFF09484079C0F3400094
:1072200030B10748407920F00100401C0449487102
:107230000348807B052802DA05200149887310BDC8
:10724000340A002010B5042002F04EF878B1042072
:1072500001F02CFF0648007920F04000403004493E
:1072600008710846807B052801DA0520887310BD67
:10727000340A002010B5102002F036F8002843D060
:10728000102001F013FF21484079C0F34000A0B363
:107290001E48407920F002001C49487108460079D8
:1072A00020F00400001D087119480068408958B199
:1072B00017480068407A012806D11548B0F8E80060
:1072C000401C1349A1F8E8001248807838B11148F1
:1072D000808820B10F48C088401C0E49C8800B48E8
:1072E000007A00F0010020B90848808A401C074954
:1072F00088824FF4FA70054908820448807B05288B
:1073000002DA05200149887310BD0000340A00200C
:10731000600600205407002010B5202001F0E4FF93
:10732000002843D0202001F0C1FE35484079C0F349
:107330004000A0B33248407920F002003049487143
:107340000846007920F00800083008712D480068D0
:10735000408958B12B480068407A012806D1294855
:10736000B0F8E800401C2749A1F8E80026488078DA
:1073700038B12548808820B12348C088401C224964
:10738000C8801F48007A00F0020020B91C48C08A5B
:10739000401C1B49C8824FF4FA70194908821848EA
:1073A000807B052802DA052015498873402001F00A
:1073B0009BFF78B1402001F079FE1148007920F060
:1073C000100010300E4908710846807B052801DA4C
:1073D00005208873802001F087FF78B1802001F0BC
:1073E00065FE0748007920F020002030044908712C
:1073F0000846807B052801DA0520887310BD00004F
:10740000340A0020600600205407002010B54FF019
:10741000805001F0FDFD4FF400400D49896821F4D2
:10742000004101430A4A916000BF022009490968EE
:1074300021F007010143074A116000BF00BF064861
:10744000006840F004000449086000BF30BF10BD70
:10745000001002400070004010ED00E030B587B031
:107460000025164C16490020CDE90410012204A97C
:10747000204600F0ABFADDE9041070EA010119D0F2
:107480000020009001900290039000900120019054
:10749000A4F10060C00A02900120039001F03AFBC1
:1074A00000BF06A9684601F0ADF90028F9D101F046
:1074B00099FA00BF284607B030BD000000F8030865
:1074C000785634121B49087F012801D0032816D1B1
:1074D0001949096821F40071174A116000BF11466B
:1074E000096841F4006111601146096821F40061E6
:1074F000116000BF1146096841F400711160022853
:1075000001D0032811D100BF0B49096841F4805113
:10751000094A11601146096821F48051116000BFC9
:107520001146096841F4806111600021014A117718
:1075300070470000640100200020024000F00101BB
:1075400029B10649496941F00401044A51610349DE
:10755000496941F48031014A51617047002002407D
:1075600070B54FF00064057805F0010575B10B4D5D
:107570006D6AC5F30E0304EBC3050D60074DAD6ADC
:10758000C5F30E0304EBC305ED1D1560034E05683E
:10759000B66A06F000463543056070BD0020024023
:1075A0000648006AC1B2AA2903D0CC2901D0BB2069
:1075B00070470248006AC0B2FAE7000000200240AB
:1075C0000249086A20F0FF007047000000200240D6
:1075D00050B90C4BDB6A03F07F030B60094BDB6A8D
:1075E000C3F3064313600BE0012809D1054B1B6B65
:1075F00003F07F030B60034B1B6BC3F30643136065
:1076000070470000002002402DE9F04704460E4676
:1076100017464CF2503000F09DFB8046B8F1000F49
:1076200030D14FF0006504F00100A0B1701B4FEAAB
:10763000D0091648406A6FF30E0040EA090013496A
:107640004862781B4FEAD0090846806A6FF30E0043
:1076500040EA090088620D48816A204661F31E00F5
:107660000A4988620846406940F4003048614CF29B
:10767000503000F06FFB80460448406920F4003031
:10768000024948614046BDE8F08700000020024002
:1076900070B504464CF2503000F05CFB0546B5B9BD
:1076A0000C48006A20F0FF0020430A49086208469F
:1076B000406940F4003048614CF2503000F04AFB21
:1076C00005460448406920F40030024948612846D4
:1076D00070BD0000002002402DE9F04104460D4637
:1076E000002600274CF2503000F034FB8046B8F101
:1076F000000F7FD104F0010020B105F4E0600643E3
:1077000047F4E06704F0020020B105F4805006431E
:1077100047F4805704F0040020B105F400500643FC
:1077200047F4005704F4805020B105F4804006432C
:1077300047F4804704F0080020B105F48030064388
:1077400047F4803704F0100020B105F40030064300
:1077500047F4003704F0200020B105F480200643F0
:1077600047F4802704F0400020B105F400200643D0
:1077700047F4002704F4007020B105F4000006432C
:1077800047F4000704F4806020B105F080700643E0
:1077900047F0807704F4006020B105F000700643E4
:1077A00047F0007704F4005020B105F080600643F4
:1077B00047F0806704F4804020B105F00060064384
:1077C00047F000670D48006AB84330430B49086230
:1077D0000846406940F4003048614CF2503000F0F7
:1077E000B9FA80460548406920F40030034900E0BA
:1077F00000E048614046BDE8F08100000020024002
:107800002DE9F04104460D4616464CF2503000F08A
:10781000A1FA074637BB4CB91448C06A20F07F1064
:1078200045EA064108431149C8620AE0012C08D123
:107830000E48006B20F07F1045EA064108430B49D3
:1078400008630A48406940F40030084948614CF236
:10785000503000F07FFA07460448406920F40030B9
:10786000024948613846BDE8F0810000002002402E
:10787000094A526922F47E72C3B242EAC302064B3D
:107880005A611A46526942F002025A611A46526916
:1078900042F480325A6170470020024010B5084916
:1078A000496941F00101064C6161026000BF00BFFF
:1078B00000BFBFF36F8F00BF00BF00BF436010BDAC
:1078C00000200240F0B50246402314460D460C4EFF
:1078D000766946F480260A4F7E6100BFEFF310867A
:1078E000304672B600BF2E682660241D2D1D5E1E18
:1078F000F3B2002BF7D100BF80F3108800BFF0BDBA
:107900000020024010B596B01D4C0A2202A9204664
:1079100000F05CF81A23DDE90210594001430FD151
:1079200018490498C87106980872089848720A980D
:10793000887289790C9860F38201124881710CE099
:1079400000201049C87108722820487200208872EF
:107950000846807920F0040088710BA10CA001F08A
:1079600075FA08488079C0F3800000900548437A92
:10797000027AC179084801F069FA16B010BD00001A
:1079800000100308340A0020464C41534800000010
:107990000A5B25735D000000247C010810B5094CCA
:1079A00018220949204600F011F80748001F007905
:1079B000FF2803D1C0210448FCF7F5FC0BF046F882
:1079C00010BD00000008030864060020F0B503465F
:1079D0001C46002006E02568666801EBC00760C70A
:1079E0000834401C9042F6DBF0BD000010B52DA01D
:1079F00001F02CFA3BA001F029FA4AA001F026FA86
:107A00000D22114657A001F021FA00F01DF90DF0EA
:107A10001FF90CF0E7FD0EF0C7FE00F0D3F8FFF7FA
:107A2000BDFFFFF76FFFFFF719FD10225D495E48AC
:107A3000FCF79EFC5C4808385C490A6802604968AB
:107A400041600B385A490968C0F82310102259497F
:107A50002730FCF78DFC1022574953482430FCF79F
:107A600087FC56488079C0F3800020B101204E4940
:107A7000133981F848000020514908704F480079B7
:107A800020F0400040304D4908710846007920F050
:107A90001000103008710846007920F020002030D6
:107AA000087110BD0A2A2A2A2A2A2A2A2A2A2A2AB8
:107AB0002A2A2A2A2A2A2A2A2A2A2A2A2A2A2A2A26
:107AC0002A2A2A2A2A2A2A2A2A2A2A2A2A2A2A2A16
:107AD0002A2A2A2A2A2A2A2A2A2A2A2A2A2A2A2A06
:107AE0002A0A00002A2A2A2A2A2A2A2A2A2A2A2A6A
:107AF0002A2A2A2A2A2A2A2A2A2A2A2A2A2A2A2AE6
:107B00002A2A2A2A2A2A2A2A2A2A2A2A2A2A2A2AD5
:107B10002A2A2A2A2A2A2A2A2A2A2A2A2A2A2A2AC5
:107B20000A0000002A2A2A2A2A2A2A2A2A2A2A2A53
:107B30002A2A20484B543A20536F6C656E6F696453
:107B40002056616C766520436F6E74726F6C6C6545
:107B500072202A2A2A2A2A2A2A2A2A2A2A2A2A2A47
:107B60000A0000002A2A2A2A2A2A2A2A2A204841E8
:107B70005244574152455F5645523A20307825309D
:107B80003258202C534F4654574152455F56455268
:107B90003A20307825303258202A2A2A2A2A2A2ABE
:107BA0002A2A0A0014010020231400200C010020BE
:107BB000240100202801002038010020340A002080
:107BC0001D0000201CB50F4C012269462046FFF71E
:107BD000FDFE0D49009848820846408AB0F5B46F12
:107BE00003DC0846408A012802DA3C200649488224
:107BF00006A108A001F02AF90348418A07A001F074
:107C000025F91CBD00000308340A0020464C4153EE
:107C1000480000000A5B25735D0000005265616446
:107C200020466C61736820446576696365205265FF
:107C3000706F727420496E74657276616C203A20A0
:107C400025646D696E0D0A0030B52DED028B83B091
:107C5000244D012269462846FFF7B8FE009C1A2CE5
:107C600005DDB2EE000A204880ED060A22E0192C5C
:107C700005D1B0EE0C0A1C4880ED060A1AE01A2C59
:107C800005D1B1EE060A184880ED060A12E00D2C67
:107C900007DA00EE104AB8EEC00A134880ED060A73
:107CA00008E0C4F10C0000EE100AB8EEC00A0E485D
:107CB00080ED060A0DA10FA001F0C8F80A4890ED6A
:107CC000060A10EE101A0846FCF7A4FD41EC180B4A
:107CD00053EC182B09A001F0B9F803B0BDEC028BEE
:107CE00030BD000000180308340A0020464C415300
:107CF000480000000A5B25735D0000005265616466
:107D000020466C6173682054696D65205A6F6E65FA
:107D10003A20252E3166000010B53C200B494882E0
:107D20000020C87108722820487200208872F4214F
:107D30000748FCF738FB00200549086000F0F2F81E
:107D400000F09AF800F04EF810BD0000340A002050
:107D50006006002070B5054600F0F4FE064608E017
:107D6000681C30B100F0EEFE801BA84201D3032056
:107D700070BD1948006900F480300028F0D1164821
:107D80000069164900EA0104CCB115484068204357
:107D90001349486000BF04F0404030B10E4880698C
:107DA00004F0404108430C49886124F0404018B178
:107DB00024F040400849086100BF0120D8E7064888
:107DC000006900F0010020B100BF012002490861F4
:107DD00000BF0020CCE7000000200240FAC30200F0
:107DE0006401002030B59BB00025214C502106A82D
:107DF000FCF7D9FA1A210020CDE906101D48C079F8
:107E00000021CDE908011B48007ACDE90A01194893
:107E1000407ACDE90C011748807ACDE90E0115486A
:107E20008079C0F38000CDE910010020019002901C
:107E300003900490019001200290A4F10060C00A18
:107E400003900120049000F065FE00BF05A901A881
:107E500000F0D8FC0028F9D10A2206A9204600F03B
:107E600035F8054600F0BEFD28461BB030BD0000C9
:107E700000100308340A002030B585B00025114CED
:107E8000002000900190029003900090012001904A
:107E9000A4F10060C00A02900120039000F03AFEB5
:107EA00000BF04A9684600F0ADFC0028F9D11822F3
:107EB0000549204600F00AF8054600F093FD2846E3
:107EC00005B030BD00080308640600202DE9F05F0E
:107ED00081460D4692464FF0000B4E4600241AE0B4
:107EE00005EBC400D0E900733A463146002000F0AB
:107EF000B1FD8346BBF1000F08D13168706805EB16
:107F0000C4030CCB51405840014302D0012000F083
:107F100006B80836641C5445E2DB0020F7E730BCA5
:107F2000BDE8C09F30B589B00025144C1448408A84
:107F30000021CDE9060100200190029003900490F9
:107F4000019001200290A4F10060C00A039001207A
:107F5000049000F0DFFD00BF05A901A800F052FC6D
:107F60000028F9D1012206A92046FFF7AFFF0546F8
:107F700000F038FD284609B030BD000000000308BD
:107F8000340A002070B52DED028B88B000263B4DE1
:107F900000243B4890ED060A10EE101A0846FCF744
:107FA00039FC41EC180B9FED370B53EC102BFCF711
:107FB00045FC01D119243BE0314890ED060A10EE52
:107FC000101A0846FCF726FC41EC180B9FED2F0B0E
:107FD00053EC102BFCF732FC01D11A2428E028487E
:107FE00090ED060AF2EE0A0AB4EEE00AF1EE10FA9B
:107FF00007D290ED060ABCEEC00A10EE100AC4B219
:1080000016E01F4890ED060AF3EE080AB4EEE00A07
:10801000F1EE10FA0CD290ED060AF2EE080A30EEFC
:10802000600AB1EE400ABCEEC00A10EE100AC4B2FB
:108030000020CDE906400190029003900490019049
:1080400001200290A5F10060C00A03900120049075
:1080500000F060FD00BF05A901A800F0D3FB0028D7
:10806000F9D1012206A92846FFF730FF064600F0A5
:10807000B9FC304608B0BDEC028B70BD0018030897
:10808000340A00200000000000000C400000000046
:108090000000164030B589B00025134C134900206C
:1080A000CDE9061001900290039004900190012008
:1080B0000290A4F10060C00A03900120049000F037
:1080C00029FD00BF05A901A800F09CFB0028F9D1FB
:1080D000012206A92046FFF7F9FE054600F082FCC2
:1080E000284609B030BD000000F803087856341265
:1080F00010B5FE488079C0F34000002879D1FB48D4
:108100004079C0F3C00060B1F848407920F0080021
:10811000F6494871F6A000F099FE4FF47A70FC49D8
:108120000880F2484079C0F30010A0B1EF484079D0
:1081300020F01000ED494871F6A000F087FEFD48E0
:10814000007800F0010030B1E848807920F00100AB
:10815000401CE6498871E5484079C0F3401048B3B7
:10816000E248407920F02000E0494871F2A000F098
:108170006DFEDE488079C0F3800058B1DB4880791D
:1081800020F00400D9498871322140F6B830FEF75A
:108190008BFB0FE0D548807920F00400001DD34907
:1081A000887132214FF47A70FEF77EFB0120E1499D
:1081B00081F84800CD484079C0F3801050B3CB48D7
:1081C000407920F04000C9494871E2A000F03EFE2D
:1081D000C6488079C0F3800060B1C448807920F03F
:1081E0000400C2498871322140F6B830FEF75CFBCA
:1081F00010E04BE0BD48807920F00400001DBB4931
:10820000887132214FF47A70FEF74EFB0120C94984
:1082100081F84800B5484079C0F3801048B3B348AE
:10822000407920F04000B1494871CAA000F00EFE2C
:10823000AE488079C0F3800058B1AC48807920F016
:108240000400AA498871322140F6B830FEF72CFBB1
:108250000FE0A648807920F00400001DA349887132
:1082600032214FF47A70FEF71FFB0120B14981F8EB
:1082700048009E484079C00940B19C48407920F0B0
:1082800080009A494871B9A000F0E0FD9748407914
:10829000C0F38000D0B19548407920F004009349A4
:1082A0004871B9A000F0D2FDFFF736FD40F6B830B6
:1082B000974908803221C820FEF7F6FA4FF4FA7089
:1082C0000BF0C6F93221C820FEF7EEFA8748007A93
:1082D00000287DD08548007A81287AD006DC0128E4
:1082E00009D0022832D0032874D158E0822872D0F5
:1082F0008328F9D1C9E17D488079C0F380104FF01F
:1083000090410969C1F3001188421ED04FF4FA7000
:108310000BF09EF975488079C0F380104FF09041C2
:108320000969C1F3001188420FD04FF090400069F5
:1083300000096E49897960F386116C4881718079F2
:1083400020F00100401C694988714DE24FF09040D7
:108350000069C0F3401065498979B0EBD11F1DD089
:108360004FF4FA700BF074F94FF090400069C0F3CD
:1083700040105E498979B0EBD11F0FD04FF090408B
:10838000006940095949897960F3C71157488171DB
:10839000807920F00100401C5449887124E2534840
:1083A0008079C0F380104FF090410969C1F300114A
:1083B000884223D04FF4FA700BF04AF94B48807989
:1083C000C0F380104FF090410969C1F3001103E040
:1083D0000BE23CE007E2FAE088420FD04FF0904019
:1083E000006900094149897960F386113F4881712C
:1083F000807920F00100401C3C4988714FF090408A
:108400000069C0F3401039498979B0EBD11F1DD004
:108410004FF4FA700BF01CF94FF090400069C0F374
:10842000401032498979B0EBD11F0FD04FF0904006
:10843000006940092D49897960F3C7112B48817182
:10844000807920F00100401C28498871CCE14FF070
:1084500090400069C0F3001050490978884207D164
:1084600022488079C0F380104C490978884202D0B4
:1084700003201E4988734FF090400069C0F300103C
:1084800046490978884212D014200BF0E1F84FF0E9
:1084900090400069C0F3001040490978884206D036
:1084A0004FF090400069C0F300103C49087009F09B
:1084B00019FE3B490968884276D909F013FE00F598
:1084C0007A703749086009488079C0F380103349D1
:1084D000097888427AD033480078401CC0B23149CC
:1084E00008700249497A884270DB5EE0340A002055
:1084F0000A427574746F6E205072657373205368EE
:108500006F72742048616E646C65720A000000002E
:10851000200000200A427574746F6E2050726573DB
:108520007320446F75626C652048616E646C65727F
:108530000A000000101400200A427574746F6E2047
:108540005072657373204C6F6E672048616E646C67
:1085500065720A000A53656E7365204C6F6E672062
:1085600048616E646C65720A000000000A4275740E
:10857000746F6E20507265737320486F6C6420486E
:10858000616E646C65720A000A44657669636520F1
:1085900044656661756C740A0000000032000020BA
:1085A0002C0000203000002010E090480178904816
:1085B000807961F386108E4988710846807920F0B1
:1085C0000100401C887100208A4908700CE14FF0BE
:1085D00090400069C0F3401087490978884206D16D
:1085E0008348807984490978B1EBD01F02D00320F9
:1085F0007F4988734FF090400069C0F340107E4976
:108600000978884212D014200BF022F84FF09040E5
:108610000069C0F3401078490978884206D04FF0CD
:1086200090400069C0F340107349087009F05AFD8A
:1086300072490968884227D909F054FD00F57A701B
:108640006E4908606A4880796B490978B1EBD01FA0
:108650001AD06B480078401CC0B269490870644960
:10866000497A884210DB644801786148807961F377
:10867000C7105F4988710846807920F00100401CCE
:10868000887100205E490870AEE04FF090400069AC
:10869000C0F3001055490978884217D154488079B1
:1086A000C0F380105149097888420FD14FF09040B3
:1086B0000069C0F3401050490978884206D14C48FF
:1086C00080794D490978B1EBD01F02D00320484989
:1086D00088734FF090400069C0F300104349097857
:1086E000884212D014200AF0B3FF4FF09040006986
:1086F000C0F300103D490978884206D04FF0904001
:108700000069C0F30010394908704FF090400069CB
:10871000C0F3401038490978884212D014200AF07A
:1087200097FF4FF090400069C0F34010324909783C
:10873000884206D04FF090400069C0F340102E49A7
:10874000087009F0CFFC2D49096888424AD909F020
:10875000C9FC00F57A702949086025488079C0F382
:1087600080102249097888421AD022480078401C9B
:10877000C0B2204908701E49497A884210DB1B4864
:1087800001781B48807961F3861019498871084681
:10879000807920F00100401C887100201549087084
:1087A0001348807914490978B1EBD01F1AD01448C6
:1087B0000078401CC0B2124908700D49497A8842BD
:1087C00010DB0D4801780A48807961F3C710084929
:1087D00088710846807920F00100401C88710020D3
:1087E0000749087000E000BF00BF10BD3200002044
:1087F000340A002030000020330000202C0000202C
:10880000310000202DE9F04104460F4600BF3C48EE
:108810000078012802D10220BDE8F081012038490A
:10882000087000BF4CF25030FFF794FA0646002E55
:108830005ED1334948603348006800F4007090B15D
:108840003048006800F4806048B12E48006820F489
:1088500080602C49086003202949087715E0012031
:108860002749087711E02748006800F4806048B184
:108870002448006820F480602249086002202049D2
:10888000087702E000201E490877206801280ED1F1
:108890006068FEF753FE4CF25030FFF75BFA064675
:1088A0001848406920F00400164948611EE04FF066
:1088B000FF303860A56813E028466168FEF7D8FFEE
:1088C0004CF25030FFF746FA06460E48406940F237
:1088D000FA3188430B4948610EB13D6005E06D1CDB
:1088E000D4E902010844A842E6D800BFFEF7EAFD39
:1088F00000BF00200249087000BF30468CE700002E
:10890000640100200020024010B5044606202060CB
:10891000606810B16068012809D1206840F001004A
:10892000206004F10C02111F6068FEF751FEFEF793
:1089300037FE2061FEF744FEA061E069012809D1FD
:10894000206840F00800206004F12402111F081F75
:10895000FEF706FE10BD000070B50446002500BFFE
:108960001F480078012801D1022070BD01201C4958
:10897000087000BF00204860207800F0010028B196
:10898000201D07C8FEF73CFF00B10125207800F04C
:10899000020020B12069FEF77BFE00B1012520789E
:1089A00000F0040028B1D4E90501FEF795FE00B1FE
:1089B0000125207800F0080050B1D4E90801884270
:1089C00006D0D4E90812E069FEF71EFE00B10125C9
:1089D00000BF00200249087000BF2846C5E700001C
:1089E000640100200348406940F0004001494861AB
:1089F000002070470020024010B50548406940F053
:108A00000060034948614CF25030FFF7A3F910BDF4
:108A1000002002400348406940F08040014948611D
:108A200000207047002002400748406900F0804065
:108A300028B106480449C8600548C86001E0012023
:108A400070470020FCE70000002002403B2A190884
:108A50007F6E5D4C2DE9F0470446884615461E465C
:108A60004FF0000900BF29480078012802D10220F8
:108A7000BDE8F08701202549087000BF4CF2503056
:108A8000FFF768F90746002F38D120494860204891
:108A9000006800F4806048B11D48006820F48060E0
:108AA0001B49086002201949087702E00020174995
:108AB00008773CB92A4633464046FEF7EFFE4FF0B2
:108AC00001090BE0012C01D0022C07D129464046B8
:108AD000FEF7F8FE022C01D14FF480294CF2503001
:108AE000FFF738F90746B9F1000F05D0084840698B
:108AF00020EA090006494861FEF7E4FC00BF0020B7
:108B00000249087000BF3846B2E700006401002047
:108B10000020024000200849496901F0004151B19C
:108B20000649054A9160064991601146496901F07C
:108B3000004101B101207047002002402301674538
:108B4000AB89EFCD01480068704700005801002054
:108B500003480068034909780844014908607047E0
:108B6000580100206001002000BFFEE710B58EB064
:108B70001C2107A8FBF717FC182101A8FBF713FC21
:108B80004FF44020344A02EB10610A68040C0323BE
:108B9000A3409A43C3B2040CA3401A430A6000BF27
:108BA000022000F019FA4FF400102B498839896D22
:108BB0000143294A883A91651146896D0140009127
:108BC00000BF00BFC020019002200290032003904C
:108BD00001200490002005900420069001A91F4860
:108BE00000F08EFB00BF1E48406840F000701C493A
:108BF000486000BF00BF0846C06820F40040C8605D
:108C000000BF00BF0846006820F40020086000BFD5
:108C100000BF0846006820F40030086000BF002054
:108C2000079010480890002009900A900B900C9033
:108C30000D9007A90A4800F05CFC00210846084A8C
:108C4000D26840F2FE739A4341EA00031A43044B90
:108C5000DA6000BF0EB010BD88100240000400486A
:108C6000005400405B3D30002DE9FC4104460E46B7
:108C700015461F46DDF8208000BF224800F07DFC2D
:108C80000028FAD11F4800F091FC10B91D4800F0EF
:108C90000BFC1D480021CDE9001061002B4600228D
:108CA000184800F006FC00BF164800F075FC0028CC
:108CB000FAD02946304600F093F800BF00BF1148B3
:108CC0008069C0F380100028F8D010484FF0007180
:108CD000CDE90010012000EB440143460022094881
:108CE00000F0E7FB4146384600F062F800BF054857
:108CF00000F04DFC0028FAD0024800F0D0FBBDE89F
:108D0000FC8100000054004000200080002400800E
:108D10002DE9FC4104460E4615461F46DDF820802D
:108D200000BF214800F029FC0028FAD11E4800F0BD
:108D30003DFC10B91C4800F0B7FB1C48C102CDE94E
:108D4000001061002B460022174800F0B2FB00BF64
:108D5000154800F021FC0028FAD02946304600F0E2
:108D60003FF800BF00BF10488069C0F3C010002862
:108D7000F8D000204FF00071CDE9001061004346AB
:108D80000246094800F095FB4146384600F048F895
:108D900000BF054800F0FBFB0028FAD0024800F0B5
:108DA0007EFBBDE8FC8100000054004000200080F4
:108DB00070B505460E4600240CE000BF074800F0E1
:108DC000E1FB0028FAD000BF0448406AC0B2285531
:108DD000601CC4B2B442F0DB70BD0000005400401F
:108DE0002DE9F04104460D46E6B2C4F30727012DF4
:108DF00004D13146094800F0DEFB0DE03946074852
:108E000000F0D9FB00BF054800F0CBFB0028FAD0EA
:108E10003146024800F0CFFBBDE8F081005400402D
:108E200070B505460E4600240BE000BF064800F072
:108E3000B8FB0028FAD0295D034800F0BCFB601C99
:108E4000C4B2B442F1DB70BD005400400FB438B579
:108E5000049818B10498FBF7C3FA10B938BC5DF850
:108E600014FB05A800900748009A049903F078F9CC
:108E7000054600200090034CA9B2204600F004F8FB
:108E800000BFEBE7161100202DE9F04104460D4626
:108E9000002627460CE03046721C96B2395C064824
:108EA00001F056FA00BF044801F048FA0028FAD051
:108EB000AE42F0DBBDE8F0810048004000B58BB069
:108EC00000BF4CF6CC402C49086000BF00BF45F203
:108ED0005550086000BF0620486000BF4FF6FF7085
:108EE000C0F30B01244A916000BF00BF00BF2248BD
:108EF000C06800F0070008B9012000E00020012848
:108F0000F4D100BF4AF6AA201B49086000BF1B48E5
:108F1000806840F40060194988600846806840F421
:108F20008050886001A8FFF7EFFC079800F44030FC
:108F300000B30420019018200690079820F44030D8
:108F40000790FFF7E7FD00BF4FF400400C490861B0
:108F500000BFFFF769FD01A8FFF7FEFC08B103F0B1
:108F6000B1F9FFF749FD08B103F0ACF9FFF752FD85
:108F7000FFF738FD0BB000BD00300040002004E0DA
:108F80000020024008B50549C96C0143034AD16479
:108F90001146C96C0140009100BF08BD001002409D
:108FA00008B50549C96C0143034AD1641146C96C2F
:108FB0000140009100BF08BD0010024008B50549FE
:108FC000C96C0143034AD1641146C96C0140009148
:108FD00000BF08BD0010024008B50549C96C014337
:108FE000034AD1641146C96C0140009100BF08BD1D
:108FF0000010024008B50549896D0143034A916597
:109000001146896D0140009100BF08BD001002406B
:1090100008B50549896D0143034A91651146896D7B
:109020000140009100BF08BD001002400249896B59
:109030000143014A91637047001002400249896B65
:109040000143014A91637047001002400249896B55
:109050000143014A91637047001002400249896B45
:109060008143014A91637047001002400249896BB5
:109070008143014A91637047001002400249896BA5
:109080008143014A91637047001002400249096C14
:109090000143014A11647047001002400249096C03
:1090A0008143014A11647047001002400149086081
:1090B0007047000014040140024909688143014AD5
:1090C0001160704704040140024909688143014A64
:1090D0001160704724040140024909688143014A34
:1090E0001160704700040140024909688143014A48
:1090F0001160704720040140024909680143014A98
:109100001160704704040140024909680143014AA3
:109110001160704724040140024909680143014A73
:10912000116070470C040140024909680143014A7B
:10913000116070472C040140024909680143014A4B
:109140001160704700040140024909680143014A67
:109150001160704720040140024909680143014A37
:109160001160704708040140024909680143014A3F
:10917000116070472804014070B504460025207A2C
:1091800000287BD0206800284BD0607A20B10128CD
:1091900009D0022815D10DE02068FFF78DFF206867
:1091A000FFF7CAFF0FE02068FFF796FF2068FFF780
:1091B000A3FF08E02068FFF7BFFF2068FFF79CFFD0
:1091C00001E0012500BF00BFA07A50B3A07A0128BA
:1091D00004D002280DD003281FD117E02068414990
:1091E000096881433F4A116000BF2068FFF7B4FF60
:1091F00016E020683B49091F09688143394A121F5C
:10920000116000BF2068FFF787FF09E02068FFF7C3
:10921000A3FF2068FFF780FF02E045F0020500BFD2
:1092200000BF606800285AD0607A20B1012809D0B8
:10923000022815D10DE06068FFF746FF6068FFF770
:1092400083FF10E06068FFF74FFF6068FFF75CFF87
:1092500009E06068FFF778FF6068FFF755FF02E0FC
:1092600045F0040500BF00BFA07A58B3A07A0128DA
:1092700005D0022810D0032822D11AE023E060682C
:109280001849203109688143164A2032116000BF15
:109290006068FFF769FF15E0606812491C310968D2
:1092A0008143104A1C32116000BF6068FFF73CFF29
:1092B00008E06068FFF758FF6068FFF735FF01E0DE
:1092C000012500BF0BE02068FFF706FF2068FFF7CD
:1092D000F3FE6068FFF708FF6068FFF7F5FE2846B9
:1092E00070BD00000C0401400146044800680840BD
:1092F000884201D1012070470020FCE7140401409E
:10930000F0B502460B46186890FAA0F0B0FA80F467
:1093100087E00120A0401D6805EA000100297FD0F8
:109320005868012802D0586802281DD198689568AD
:1093300091FAA1F6B6FA86F677000326BE40B54349
:1093400091FAA1F6B6FA86F6760000FA06F63543EB
:10935000956000BFDD6818685668864300FB05F716
:109360003E43566000BF00BF1869D56891FAA1F668
:10937000B6FA86F677000326BE40B54391FAA1F609
:10938000B6FA86F6760000FA06F63543D56000BFD9
:10939000586802282DD1FF2914D85869156A91FA06
:1093A000A1F6B6FA86F6B7000F26BE40B54391FA8D
:1093B000A1F6B6FA86F6B60000FA06F6354315624F
:1093C00000BF16E05869556A0E0A96FAA6F6B6FA74
:1093D00086F6B7000F26BE40B5430E0A96FAA6F6EB
:1093E000B6FA86F6B60000FA06F63543556200BFB7
:1093F00000BF5868156891FAA1F6B6FA86F67700AC
:109400000326BE40B54391FAA1F6B6FA86F6760079
:1094100000FA06F63543156000BF00E000E000BF2B
:10942000641C1868E04000287FF473AFF0BD8162CF
:1094300070478162704781627047816270478161C5
:10944000704781617047816170478161704730B5B5
:10945000036891FAA1F4B4FA84F465000324AC40E3
:10946000A34391FAA1F4B4FA84F4640002FA04F478
:109470002343036030BD30B5C36891FAA1F4B4FA58
:1094800084F465000324AC40A34391FAA1F4B4FA38
:1094900084F4640002FA04F42343C36030BDC1695C
:1094A00041F02001C1617047016841F00101016094
:1094B0007047F0B5DDE9055446684FF4806707EA68
:1094C000545740F6FF3C47EA0C0747F4C04747F0C3
:1094D000807747F47F0747F0007747F48057BE4313
:1094E00041EA020747EA03472F4327433E434660CA
:1094F000F0BD30B5024600BF106820F001001060DA
:1095000000BFD1E90203146824F4F85440EA0325AB
:109510002C43146000BF4868106100BF00BF106892
:1095200040F00100106000BF00BF906820F40040D0
:10953000906000BF8B69086994686FF30A0440EA81
:1095400003052C43946000BF086930B100BF9068E8
:1095500040F40040906000BF00BF0868136823F427
:1095600040130343136000BF4869536823F400436A
:109570000343536000BF002030BD01468869C0F33B
:10958000C030704701468869C0F3800070470146CB
:109590008869C0F3401070470146886900F00100F7
:1095A000704701468869C0F340007047014608686B
:1095B00000F001007047816270474FF47A71B0FB90
:1095C000F1F2521E4FF0E0235A6100229A61052207
:1095D0001A6100BF7047416841F002014160704765
:1095E0002DE9F05F04460D464FF0010B00BF2068E7
:1095F00000F00100002838D1E9686868084329694B
:10960000084321681A4A114008432060A86861682D
:1096100021F440510143616000BF6869A16821F4F1
:1096200040710143A16000BF4FF4406000F030F88A
:109630008146B9F1000F18D02868B0B14FF0000B87
:10964000CA462E687EB14FF48070AAFB00307108C4
:109650005F1840F10001324600233846FAF7B4FDA6
:1096600004490840E06000BF00BF584600F004B85D
:10967000F3E9FFEFFFFF0F0030BCBDE8C09F000023
:1096800002480068C0F300207047000000700040EE
:109690002DE9F0410446002500BF1648006820402F
:1096A000C0B1B0F5806F06D0B0F5006F07D0B0F54F
:1096B000406F19D108E001F059FD054615E000F0B2
:1096C000B5F800B10C4D10E000F0B8F808B14FF457
:1096D00000450AE001F04AFD074601F013FD064689
:1096E00001F020FD054600E000BF00BF2846BDE8B0
:1096F000F0810000881002400024F4002DE9F041C0
:1097000004460025032C29D1204600F085F8B0F549
:10971000403F17D06FF44031084420B1012806D0F3
:10972000022819D108E001F021FD054615E000F0FE
:109730007DF800B1374D10E000F080F808B14FF42B
:1097400000450AE001F012FD074601F0DBFC064689
:1097500001F0FAFC054600E000BF57E00C2C29D1CF
:10976000204600F059F8B0F5402F17D0A0F5402062
:10977000001F20B1042806D0082819D108E001F004
:10978000F5FC054615E000F051F800B1214D10E060
:1097900000F054F808B14FF400450AE001F0E6FC8F
:1097A000074601F0AFFC064601F0BCFC054600E0B0
:1097B00000BF2BE0302C29D1204600F02DF8B0F569
:1097C000401F17D0A0F54010103820B1102806D047
:1097D000202819D108E001F0C9FC054615E000F089
:1097E00025F800B10B4D10E000F028F808B14FF457
:1097F00000450AE001F0BAFC074601F083FC06468A
:1098000001F090FC054600E000BF00BF2846BDE81F
:10981000F08100000024F40001460348006808407D
:1098200040EA01407047000088100240024800688A
:10983000C0F380207047000000100240024800681A
:10984000C0F34000704700009010024002480068DA
:1098500000F0F0007047000000100240024800686D
:1098600000F47060704700009410024002480068E5
:10987000C0F3C00070470000001002400248C068FA
:1098800000F0700070470000001002400248C068FD
:1098900000F0030070470000001002400248C0685A
:1098A000C0F3062070470000001002400549096817
:1098B00021EA104182B21143024A883AC2F8881064
:1098C0007047000088100240F0B5059C002502F0AA
:1098D000F006360402F00F0746EA07460E4303F08F
:1098E000F0073F0203F00F0C47EA0C273E4304F059
:1098F000F00704F00F0C47EA0C0746EA0705C669B3
:10990000024F3E402E43C661F0BD0000808080FFC4
:10991000816821F48071816070472DE9F843054624
:109920000E4614465EB9284600F080F900B102E008
:109930000020206000BFE06800B90CE00BE0284682
:1099400000F074F900B102E00020206000BFE06880
:1099500000B900E000BF284600F039F9E068E8B936
:1099600000BFE86920F08040E86100BF26B1217C9B
:10997000284600F069F820E0207C0A21B0FBF1F2D3
:1099800001FB1200217C0A22B1FBF2F140EA011036
:10999000C7B23946284600F057F80EE000BFE86924
:1099A00040F08040E86100BF207CE96921F07061EF
:1099B00041EA0061E96100BF00BF46B1A0790090B3
:1099C0006379227928462168FFF77EFF2FE0A0798E
:1099D0000A21B0FBF1F201FB1200A1790A22B1FBCE
:1099E000F2F140EA0110C7B260791146B0FBF1F222
:1099F00001FB120061790A22B1FBF2F140EA011089
:109A000000F0FF0820791146B0FBF1F201FB1200D3
:109A100021790A22B1FBF2F140EA011000F0FF09BE
:109A2000009743464A4628462168FFF74DFFA06845
:109A3000E96901F07F310143E96100BF284600F088
:109A4000CBF80020BDE8F88301F0F002120601F027
:109A50000F0342EA0362C36923F07C531A43C261D5
:109A60007047C16801F0800161F4C071C160704746
:109A7000F0B5059C002504F0F006360404F00F074D
:109A800046EA074646EA413603F0F0073F0203F094
:109A90000F0C47EA0C273E4302F0F00702F00F0CD0
:109AA00047EA0C0746EA07054668024F3E402E4348
:109AB0004660F0BDC00000FF0146486800F03F006E
:109AC000704701464868C0F3042070470146486863
:109AD000C0F34230704701464868C0F30740704702
