:020000040800F2
:10400000D8290020A541000845BE0008619D000890
:1040100041BE0008D97C0008C9D300080000000098
:10402000000000000000000000000000B1C5000812
:104030002D7D000800000000C9BE0008B3CB0008B9
:10404000BF410008BF410008BF410008BF41000850
:10405000BF410008BF410008E9830008BF410008D4
:1040600031840008BF410008BF410008BF4100087B
:10407000BF410008BF410008BF410008BF41000820
:10408000BF410008BF41000875560008BF41000845
:10409000BF410008BF410008BF410008618400081B
:1040A000BF41000839D10008BF410008BF410008E6
:1040B000BF4100080000000000000000BF410008F0
:1040C000BF410008BF410008BF410008BF410008D0
:1040D000BF41000881D20008EDD2000859D3000882
:1040E000BF41000829C200080000000000000000D5
:1040F00000000000000000000000000000000000C0
:1041000000000000BF41000800000000BF4100089F
:104110000000000000000000BF4100085DD1000861
:10412000BF410008BF410008BF410008BF4100086F
:10413000BF41000800000000000000000000000077
:10414000BF41000889B50008BF4100080000000019
:10415000BF410008BF410008C1B50008BF410008C9
:10416000BF410008BF410008BF4100080000000037
:10417000BF410008BF41000800000000000000002F
:10418000BF410008BF410008BF410008DFF810D060
:1041900001F03AF80048004791520108AFF300805F
:1041A000D82900200648804706480047FEE7FEE77A
:1041B000FEE7FEE7FEE7FEE7FEE7FEE7FEE7FEE7D7
:1041C00019CD00088D4100082DE9F05F054600205B
:1041D00092469B4688460646814640241BE0284678
:1041E00041464746224600F094FC53465A46C01AC0
:1041F000914110D311461846224600F07BFC2D1A3F
:1042000067EB01084F4622460120002100F072FCB6
:1042100017EB00094E41201EA4F10104DFDC4846E3
:1042200031462A46434600F000B830BCBDE8C09F86
:1042300000487047749A010810B50446FFF7F8FF6C
:104240000068005D00F0010010BD0000014900F0B1
:1042500003B80000AC1F002010B500683C22B0FB82
:10426000F2F302FB1303B0FBF2F00B60B0FBF2F3CE
:1042700002FB1303B0FBF2F018224B60B0FBF2F329
:1042800002FB1303B0FBF2F0021D8B600723B2FBAD
:10429000F3F403FB1422800040F2B55300F66C30B7
:1042A0008A61B0FBF3F2B0FBF3F403FB1400443279
:1042B00080084A61C8613B2802D3920700D0401CA5
:1042C0000022074C13460A61E25C824203D8801A3E
:1042D0005B1C0B61F8E7401CC860084610BD00007D
:1042E000789A010838B5D0E90221491E01EB410155
:1042F00002EBC1014268C1EB011102EB81010268CE
:10430000C1EB011102EB8102D0E9043101EB410163
:1043100003EB81013023A1F5527191FBF3F4174DAA
:104320006C4302EBC41291FBF3F403FB14110092F3
:104330001A2902DB124B1A4400920C2291FBF2F371
:10434000104C6343009C04EBC313009391FBF2F306
:1043500002FB13110C4A08E0491E40F2A324535CEF
:104360006343009C04EBC31300930029F4DC014673
:104370006846FFF771FF009838BD00003F0C0F0042
:104380008051010067C20300849A010810B540EA19
:1043900001040346A40703D009E010C9121F10C38B
:1043A000042AFAD203E011F8014B03F8014B521E24
:1043B000F9D210BDD2B201E000F8012B491EFBD2A8
:1043C00070470022F6E710B513460A460446194620
:1043D000FFF7F0FF204610BD30B505462A460B46D4
:1043E00012F8010B13F8014B08B1A042F8D01CB130
:1043F000002802D06D1CF1E7284630BD421C10F8A1
:10440000011B0029FBD1801A704710B5002200E083
:10441000521C835C8C5CA34201D1002BF8D1D8B232
:10442000E1B2401A10BD30B504460020034600E05A
:104430005B1C934203D2E05CCD5C401BF8D030BDE6
:1044400030B505460020034600E05B1C934205D2D0
:10445000EC5CC85C201A01D1002CF6D130BD000004
:1044600070B50F4D00B92868002412E00A4602E03A
:104470009E4203D0521C1378002BF9D1DAB22243AA
:1044800005D02BB124B1002100F8011B04E0044643
:10449000401C0678002EE9D12860204670BD00003F
:1044A000780200200FB400B58DB010A909900B90D0
:1044B00000914FF0FF300A9000200C9005480690C4
:1044C000054807906A4609A80F9900F00DFD0DB048
:1044D0005DF814FB054F0008234F00082DE9FF5F2E
:1044E0001D464FF0FF3BD5E9014691465F464FF030
:1044F0000008A9697F1C01988847296A8246884775
:104500000028F6D1BAF1FF3F0CD024F4C064002E8D
:1045100019DD600614D5BAF12B0F09D0BAF12D0FB1
:104520000ED103E0584604B000F07EB844F4806435
:10453000A9697F1C01988847761E8246002E02DDFD
:10454000BAF1300F03D0B9F1000F26D032E0A969DB
:10455000761E44F400747F1C019888478246002E22
:1045600005DDBAF1780F06D0BAF1580F03D0B9F1D2
:10457000000F10D01EE0B9F1000F02D0B9F1100FFA
:1045800018D1A969761E24F400747F1C019888470D
:104590008246102002E0082000E00A20814609E05F
:1045A00008FB0908A969761E44F400747F1C019871
:1045B00088478246002E05DD4946504600F0CBFA7A
:1045C0000028EDDAE96901988847A00502D46FF068
:1045D0000100A8E7E00725D1600613D5600502D5E4
:1045E000C8F1000000E0404629680A1D2A600968F9
:1045F000220501D5087015E0220701D5088011E0D9
:1046000008600FE02868011D29600068210502D5B7
:1046100080F8008006E0210702D5A0F8008001E0C4
:10462000C0F8008038467EE730BCBDE8C09F70B55A
:10463000064608F0E9FF046805460A2200213046D4
:1046400000F0CEFC2C6070BD2DE9FE4F804681EA63
:104650000300C00F0C46009021F0004123F00045FC
:10466000B8EB0200A94105D24046214690461C46BF
:104670000B46024623F00040104347D0270DC7F3F6
:104680000A00C3F30A510290401A019040286BDAE5
:10469000C3F3130040F4801B0098924620B100231E
:1046A000D2EB030A63EB0B0B01985946C0F14002B1
:1046B000504600F01FFA06460D4650465946019AEC
:1046C00000F037FA10EB08006141002487EA11522C
:1046D00084EAE7731A4340D0009A62B3019A012A30
:1046E0004FEA075215DC001B61EB02014FF000425C
:1046F00002EA0752CDE90042001C41F58011324622
:104700002B4600F0EBFC03B000F045B840462146D4
:10471000F9E7001B61EB0201001C41F58013001852
:104720005B412018A2F5001747EB030140EAD57062
:10473000B6196D4111E06D084FEA360645EAC075BD
:104740004FEA0752001B61EB0201001C41F580118A
:1047500049084FEA30000019514132462B4603B058
:1047600000F01CB800F0ABBC009801224000002310
:10477000D0EB020263EBE073009821464FEAE0744D
:10478000B8EB000061EB0401E9E783F000435BE76D
:1047900081F0004158E730BCBDE8C08F30BCBDE8B7
:1047A000C04FFFF7DFBF2DE9FE4F81EA030404F09D
:1047B000004421F0004100944FF0000B23F000432F
:1047C00050EA01045ED052EA03045BD0C3F30A54FA
:1047D000C1F30A552C44A4F2F3340194A0FB025413
:1047E000C1F3130141F48011C3F3130343F48013A5
:1047F00001FB024400FB034E840A970A44EA8154F9
:1048000047EA8357A4FB076802958D0A05FB0785D5
:104810004FEA932C04FB0C542705029D4FEA0658DF
:1048200047EA1637B5EB08056EEB070C870E920EBC
:1048300047EA811742EA8312A7FB0201B6EB0B019C
:1048400064EB00042B0D43EA0C335E1844EB1C5060
:10485000DA465146E7FB0201C5F313044FEA0B3376
:1048600043EA14534FEA0432019C43EA0603A4F1DD
:104870000C040294009CCDE900B400F02FFC03B0BE
:1048800000F003B800200146F9E730BCBDE8C08F56
:104890002DE9F04D81EA030404F0004B21F00045BE
:1048A00014464FF0000A23F0004150EA050220D0E0
:1048B00054EA01021DD0C5F30A570246C5F313039B
:1048C000C1F31300C1F30A5640F4801543F480137A
:1048D000A7EB0608101BD64608F2FD3873EB05005F
:1048E00002D308F1010801E092185B41B8F1000F12
:1048F00003DA00200146BDE8F08D00204FF480115E
:10490000064684460EE0171B73EB050705D3121B02
:1049100063EB050306434CEA010C49084FEA3000FB
:1049200092185B4150EA0107EDD152EA030012D020
:1049300082EA040083EA0501084305D0101BAB415D
:1049400006D20122002306E000224FF0004302E0DD
:104950006FF0010253101AEB06004CEB085110EBFC
:104960000A0041EB0B01BDE8F04D00F0A8BB30B4EC
:10497000044696230800214604D0B62330BC00220A
:1049800000F06FBB20460021F8E70EB5C10F80EAAA
:10499000E0700844CA07002140F233438DE80E005E
:1049A0000A460B4600F09AFB03B000BD20F0004021
:1049B000C20DC0F3160040F400007F2A02DA002086
:1049C000014670470021962A03DCC2F19602D040CE
:1049D0007047963A00F08EB8C1F30A5210B5C1F391
:1049E000130140F2FF3341F480119A4201DA0020B2
:1049F00010BD40F233439A42A2F2334203DC5242EA
:104A000000F087F810BD904010BD00F0004230F07B
:104A100000400AD0C10D01F56071C0F3160042EAF2
:104A20000151C208400711437047002001467047FA
:104A300030B5041E71F1000404DB4FF00044404225
:104A400064EB0101141E73F1000405DB1C464FF0FA
:104A50000043524263EB04038B4208BF824230BDE5
:104A600030B5041E71F1000404DB4FF000444042F5
:104A700064EB0101141E73F1000405DB1C464FF0CA
:104A80000043524263EB0403994208BF904230BD99
:104A900001F0004330B421F0004150EA010206D099
:104AA0000A0DA2F56072C1F31301002A02DC30BCCA
:104AB00000207047440F44EAC104C100E01830BC34
:104AC00000EBC25000F0C4BA30B50B4601460020DE
:104AD0002022012409E021FA02F59D4205D303FAC0
:104AE00002F5491B04FA02F52844151EA2F1010241
:104AF000F1DC30BD202A04DB203A00FA02F100206C
:104B000070479140C2F1200320FA03F3194390400B
:104B10007047202A04DB203A21FA02F00021704776
:104B200021FA02F3D040C2F1200291400843194615
:104B30007047202A06DBCB17203A41FA02F043EAFD
:104B4000E07306E041FA02F3D040C2F12002914046
:104B50000843194670473A2800D2303820F0200226
:104B6000412A01D3A2F13700884201D34FF0FF3030
:104B7000704700002DE9FF4F087883B09946FF2861
:104B800005D0491C2D2804D00024002008E0002076
:104B90000BE00124F9E700EB800003EB4000491C27
:104BA0000B78FF2BF7D104B1404200230293147815
:104BB00019461D462D2C01D02B2C04D1521C2D2C16
:104BC00013D000240294AA461478FF2C0FD00A2593
:104BD000A3FB057801FB05814FF0000C03FB0C11D2
:104BE000521CE3194AEB0101EEE70124EAE7814494
:104BF00053EA010002D019F5C87F06DA03980021B4
:104C0000C0E9001107B000F065B90025AE4E2F468F
:104C1000DFF8B882184600F0F6FCCDE90001B9F1E2
:104C2000000002DAC9F1000400E004460023A74AAC
:104C30001AEB030B42EB045A12E0E00707D02A46B6
:104C4000334638464146FFF7AEFD074688462A46BA
:104C5000334610461946FFF7A6FD05460E4664107A
:104C6000002CEAD1DDE90001B9F1000F5A465346A4
:104C700006DAFFF70DFE3A464346FFF709FE05E068
:104C8000FFF791FD3A464346FFF78DFD029A0AB1C0
:104C900081F00041039AC2E90001B3E72DE9FF4F1B
:104CA0001F468DB0D7E901464FF0FF382E2045460C
:104CB0004FF000090B90B9696D1C0E988847396A4E
:104CC000824688470028F6D1BAF1FF3F0AD024F483
:104CD000D064002E11DDBAF12B0F08D0BAF12D0FE0
:104CE0000BD102E0404611B08DE744F48064B9690D
:104CF0006D1C0E9888478246761E6946600501D570
:104D00002D2000E02B208DF8000001F1010B0DF1AA
:104D1000200809E0B9696D1C0E98884782460F98F3
:104D200044F40074761E0560002E02DDBAF1300FE7
:104D3000F0D00B998A453ED144F0800406E00F99EB
:104D4000681CA9F1010944F400740860B9696D1C7C
:104D5000761E0E98884782463028F0D02BE00B99BB
:104D60008A4505D1200603D444F08004761E18E05D
:104D7000504609F026FC08B30DF11301761E44F4E9
:104D800000748B4508D2AAF130000BF8010B200605
:104D900007D5A9F1010003E0200602D409F10100C2
:104DA0008146A00502D50F99681C0860B9696D1C81
:104DB0000E9888478246002ED1DC53E0002E51DD4C
:104DC000BAF1650F02D0BAF1450F4BD1A00549D514
:104DD000B9696D1C24F44074761E0E98884782468B
:104DE000002E0CDD2B2804D0BAF12D0F07D144F48E
:104DF0008074B9696D1C0E9888478246761EE0055E
:104E000001D52D2100E02B2108F8011BCDF82C80C5
:104E100021E00DF12901761E44F4007488450CD27E
:104E2000AAF1300010F0FF0088F8000002D10B99C1
:104E3000884509D908F1010806E0E00501D52448B4
:104E400001E042F20F708146B9696D1C0E988847E7
:104E500082460F980560002E04DD504609F0B1FB34
:104E60000028D6D1F9690E988847FF208BF80000FA
:104E700088F800000020069007904B466A4608A973
:104E800006A8FFF777FEA00502D46FF001002AE71D
:104E900014F0240F0AD0E00714D1DDE906123868B7
:104EA000031D3B600068C0E900120BE0DDE906016C
:104EB000FFF7EEFD0146E00704D13868021D3A60B5
:104EC0000068016028460EE7000014400000F03F33
:104ED000F1D8FFFF30BCBDE8C08F0000026811446C
:104EE0001378016018467047D16004495161044944
:104EF000116200211161114600F098B9DD4E0008E1
:104F000039420008426842B1016811F8013B23B1FF
:104F1000521EC0E90012184670470121C160881E68
:104F2000704742685AB1C368016843B983688B42CD
:104F300005D0491E521CC0E90012002070474FF0F6
:104F4000FF3070470FB4002300B589B00CA9009161
:104F50000B996FF00042CB601E4B06931E4B0793DC
:104F60000423CDE901321D4A089202466B46002017
:104F7000FFF794FE09B05DF814FB70B586B00646E5
:104F80004FF0FF300091CDE90101002015460C469D
:104F900004903246694604A8FFF7D4FF02460498FD
:104FA000211825B108B1084600E020462860049881
:104FB00000280DD0002A02DD0098884208D0081B86
:104FC0000094CDE901043246694604A8FFF7BAFF10
:104FD00006B070BD054F0008234F00083942000895
:104FE0002DE9F04791460F4680460446002614F806
:104FF000015B2DB1FFF71CF90068405DC007F6D1D9
:105000002B2D02D02D2D18D0641E4A46394620463D
:1050100000F0A7FA27B13968A14201D1C7F8008092
:1050200071054FF002040BD54042002803DD08F063
:10503000EBFA0460A007BDE8F08746F48066E4E779
:105040000028F8DA08F0E0FA04606FF00040F2E7B8
:105050000029A8BF7047401C490008BF20F001008C
:10506000704710B4B0FA80FC00FA0CF050EA01046A
:1050700004BF10BC704749B1CCF1200421FA04F4FC
:1050800011FA0CF118BF012121430843A3EB0C01D5
:10509000CB1D4FEA00614FEA102042BF002010BC38
:1050A000704700EBC35010440029A4BF10BC7047E8
:1050B000401C490008BF20F0010010BC704710B52B
:1050C000141E73F1000408DA401C41F1000192182B
:1050D0005B411A4301D120F0010010BD2DE9F04DD4
:1050E00092469B4611B1B1FA81F202E0B0FA80F229
:1050F00020329046FFF7FEFC04460F4640EA0A00C5
:1051000041EA0B0153465A46084313D0114653EA6D
:10511000010019D0C8F140025046FFF7FAFC0546DD
:105120000E46504659464246FFF7E4FC084305D078
:10513000012004E020463946BDE8F08D00200543FB
:1051400046EAE0762C4337430A986305E40AA0EB6D
:1051500008000022FD0A44EA47540A3002D5002024
:105160000146E9E7010510196941DDE90845001923
:105170006941BDE8F04DA2E7C1F30A52C1F3130142
:1051800040F2FF3341F480119A4202DA00200146D6
:10519000704740F233439A42A2F2334202DC524259
:1051A000FFF7B7BCFFF7A6BC70B5044601F0004599
:1051B0000020054304D14FF00045644265EB010136
:1051C00003F00045284305D118464FF000435242F2
:1051D00063EB0003101B73EB010002D24FF00040A1
:1051E00009E082EA040283EA01034FF000501A4307
:1051F00001D14FF0C0404FEA2062EFF3008162F32B
:105200001F6181F3008870BD064C074D06E0E06821
:1052100040F0010394E8070098471034AC42F6D3FD
:10522000FEF7B8FF2CA801084CA801082DE9F34FA0
:105230008BB04FF0000801F10C000C464FF0010B51
:1052400046460DF1080A01906269012101989047D4
:10525000051E2DD0252D2CD0216A8847C0B162694A
:10526000012101989047216A88470028F7D1411E03
:1052700062690198904700E0761CA1690B98884705
:10528000216A88470028F7D1E1690B988847DBE756
:10529000A1690B9888470746A84201D1761CD3E73D
:1052A000E1690B9888477F1C02D1B8F1000F6FD0DD
:1052B00047E1002762693D463946019890472A2810
:1052C00004D162690121019890470125DFF8889295
:1052D0006269012101989047A0F130010A290AD2A0
:1052E0004F45E5DC07EB870100EB4107303FDFD49A
:1052F00045F01005ECE7E90601D46FF000476C2893
:105300000AD04C2814D0682815D06A280DD07428EB
:105310001CD07A281AD01DE06269012101989047BB
:105320006C2802D045F0040514E045F002050DE0BC
:1053300045F020050AE0626901210198904768283C
:1053400002D045F0080505E045F4006562690121D9
:1053500001989047C4E9015765283DD019DC5828C9
:105360007AD00CDC452837D004DC252826D041280B
:1053700031D131E046282FD047282CD12CE05B28B2
:1053800077D0612828D063287CD0642823D15AE0C4
:10539000D1E06F2848D008DC66281DD067281BD0D4
:1053A000692821D06E2816D127E0702845D07328AF
:1053B00068D0752847D078280DD14DE0A1690B98A9
:1053C0008847054625283FF469AFE1690B9888476F
:1053D0006D1C3FF46AAFB4E023466A466FF00100EB
:1053E0000B99FFF75BFC9FE045F040006060A80769
:1053F00023464FF0000236D43EE0E8077FF447AF83
:105400002068011D21600068290501D506701BE791
:10541000290701D5068017E7A90703D5F117C0E9C9
:10542000006111E706600FE745F040006060A807E3
:1054300023464FF0080216D41EE040F60E0125EA7E
:105440000100606016E045F040006060A807234658
:105450004FF00A0207D40FE045F040006060A80753
:1054600008D5234610226FF001000B99AFF300809E
:105470005AE007E0234610226FF001000B99FFF776
:105480002DF851E04FF000094F464B46632802D0FB
:105490005B2807D041E02079C00601D40120A0603C
:1054A00001273AE062690121019890475E2805D101
:1054B0004FF001096269494601989047216939B95D
:1054C00000210A46534643F82120491C0829FADBEB
:1054D000B0B3216969B9C11700EBD16253110AEB6E
:1054E000830122F01F02821A01200B6890400343BF
:1054F0000B6062690121019890475D28E8D1B9F1FC
:10550000000F09D00020514651F82020D24341F825
:105510002020401C0828F7DB02AB224600976FF0E2
:1055200001000B99AFF3008000280CDA401C08D171
:10553000BBF1000F05D04FF0FF300DB000F00EB8FA
:10554000FFE74046F9E7E90701D108F10108064401
:105550004FF0000B78E60000CCCCCC0C30BCBDE8A2
:10556000C08F2DE9F05F82460078002715468B46F4
:105570000AF10104B946302801D09DB113E014F8B6
:10558000010B0127782803D0582801D045B10AE043
:105590000DB1102D07D10027102514F8010B02E0E2
:1055A000082500E00A250026B0460EE005FB0800AD
:1055B00005FB06F1012701EB10461FFA80F8B6F54E
:1055C000803F00D3B94614F8010B2946FFF7C3FA10
:1055D0000028EBDABBF1000F05D00FB1641E00E02C
:1055E0005446CBF80040B9F1000F06D008F00CF893
:1055F00002210160C81E00F003B848EA0640FAE73D
:1056000030BCBDE8C09F0EB540F23342029200228A
:10561000CDE900221346FFF761FD03B000BD70B570
:105620008C1810F8015B15F0070301D110F8013B4D
:105630002A1106D110F8012B03E010F8016B01F8D4
:10564000016B5B1EF9D12B0705D40023521E0DD42C
:1056500001F8013BFAE710F8013BCB1A921C03E07A
:1056600013F8015B01F8015B521EF9D5A142D8D3B2
:10567000002070BD00BF09480068C0F3C00058B1E9
:1056800000BF0648006C80B20549086000BF0820D2
:105690000249086000BF00BF7047000000000450CE
:1056A000040000202DE9F04790B006F00FFC002028
:1056B0000D900E900F90182107A8FEF782FE002093
:1056C000069018216846FEF77CFECA4804F08CFC60
:1056D0004FF08050C849096821F040510143C64A43
:1056E000883AC2F8881000BFC01304F0D7FD01202B
:1056F00004F0D4FD8020009003200190002004904D
:1057000069464FF0904004F093FF1221BB4B1B6899
:10571000C3F30220002637460346C3F10709B9F157
:10572000040F02D94FF0040901E0C3F10709C8468C
:1057300003F10409B9F1070F02D24FF0000901E0AB
:10574000A3F10309CC464FF0010909FA08F9A9F1C0
:10575000010909EA060909FA0CF94FF0010A0AFAE7
:105760000CFAAAF1010A0AEA070A49EA0A0200BF8A
:10577000002904DB1007030EA148435407E010077B
:10578000060E9E480C3001F00F031B1FC65400BFCD
:10579000122000280DDB00BF00BF00F01F02012116
:1057A00091404209920002F1E022C2F8001100BFCC
:1057B00000BF00BF00200D900E900F900DA98D48E6
:1057C00004F013FD00200790089009900A900B90B8
:1057D0000C9007A9874804F025FD4FF4801006902F
:1057E00006A9884804F0EAFB00208649896821F070
:1057F000E0710143834A916000BF00BF7D4880682B
:10580000814908407B49886000BF00BF0846806826
:105810007E49084040F080507649886000BF7C484F
:1058200000687C49B0FBF1F000EB800080000A21A9
:10583000B0FBF1F400E0641E002CFCD16D490620A1
:10584000754A01F13006070A06EB87031E681F2719
:105850008740BE43970E87403E431E6000BF104600
:10586000042201F11406C0F3406706EB87031E68AB
:10587000C0F3045C072707FA0CF7BE43C0F30457D4
:1058800002FA07F73E431E6000BF7F21594AB0323B
:105890001268C0F312039A4301F018065F4BF340FD
:1058A00003401A43534BC3F8B02000BF7F20194672
:1058B00089685B4A1140C20711431A46916000BFD4
:1058C00000BF00BF4B488068C00F0028F9D04020BF
:1058D0004FF09041886100BF00BF08204549086033
:1058E00000BF00BF0846406840F00800486000BFA5
:1058F00000BF0846806845490840401C3D49886013
:1059000000BF00BF00BF3B48006800F00100002856
:10591000F8D000204349086000BF042035490860E2
:1059200000BF00BF0846806838490840001D314963
:10593000886000BF00BF3B4800680028FBD000BF64
:105940002C48006C80B23749086000BF2948806845
:105950002E49084040F010002649886000BF00BF73
:105960000846806829490840801C2249886000BF99
:1059700000BF084680682C4908401E49886000BF67
:1059800040204FF09041886200BF00BF1A4888381D
:10599000006920F0807018498839086100BF00BF95
:1059A0000846006820F08060086000BF80200090FA
:1059B000002001900220049069464FF0904004F0CE
:1059C00037FE184800684FF461614843400040F6D4
:1059D000FF71B0FBF1F05C3085B21448058514A16D
:1059E00014A004F03FFA294614A004F03BFA10B0CA
:1059F000BDE8F08700000450881002400CED00E084
:105A000000E400E000030450C0FFFF5FC0FFFF7F21
:105A100024010020400D030000106032FFFF07004A
:105A2000C0FFFF3F04000020C0FFFF6F500A0020AE
:105A30004C4F47000A5B25735D00000047657420EA
:105A40004261747465727920566F6C746167653A4F
:105A50002025646D560A00002DE9F04706460F46E2
:105A600014464FF000084FF064090EF029FB48B9C6
:105A700039A13BA004F0F6F93BA004F0F3F90020B3
:105A8000BDE8F0870EF04AFB40B933A134A004F022
:105A9000E9F93AA004F0E6F90020F1E7FF213D48DA
:105AA000FEF78FFC00203C49A1F80602304606F0C4
:105AB0005BF93AA006F058F9364D39A12046FEF7B9
:105AC0008BFC20B939A12046FEF786FC00B1ED1D04
:105AD00032E021A12846FEF77FFC48B11EA120A09C
:105AE00004F0C0F9314634A004F0BCF90020C7E747
:105AF00037A12846FEF770FC48B117A118A004F0A2
:105B0000B1F9314635A004F0ADF90020B8E709FB42
:105B100008F0B84209DD38A111A004F0A3F931461C
:105B200037A004F09FF90220AAE7484606F00EF9D4
:105B300008F101001FFA80F821462846FEF74CFCC8
:105B40000028C6D035A106A004F08CF9314634A057
:105B500004F088F9012093E74552524F52000000AB
:105B60000A5B25735D0000004C6F526157414E2067
:105B70004D6F6465204552524F4521004C6F526174
:105B800057414E20537461747573204552524F45EE
:105B900021000000EA0B0020E40A00200D0A0000AA
:105BA0002B4C494E4B20494E464F3A002B52544302
:105BB00020494E464F3A000022257322206174206E
:105BC000636D642065786563206572726F72000092
:105BD000424144205041524D0000000022257322D2
:105BE00020617420636D6420657865632062616460
:105BF000207061726D0000005741524E000000009D
:105C00002225732220617420636D642065786563AA
:105C10002074696D656F7574000000004C4F47007B
:105C20002225732220617420636D6420657865638A
:105C3000207375636365737300000000F0B587B06F
:105C4000002560E032A240F2DC5132A0FFF704FFF1
:105C5000012852D132A133A004F004F933A136480F
:105C6000FEF7BAFB0746394634A004F0FBF878216A
:105C70003348FEF7A6FB2DA12F48FEF7ADFB0646E5
:105C800000200690002406AB2D4A2EA130460AF0D3
:105C9000AEFA0AE02A4B611C53F821202A49081960
:105CA000022301210AF030FA641C0699481E06906E
:105CB0000029EFD11AA11BA004F0D4F822480B3818
:105CC000807C21490B39497C1F4A0B3A127C1E4BC0
:105CD0000B3BDB7BCDE90132CDE903101A480B38D1
:105CE000807B009018480B38437B027BC17A17A059
:105CF00004F0B8F8012007B0F0BD681C85B24FF47D
:105D00007A7006F023F8032D9CDB0020F3E70000F7
:105D10004F4B000041542B4150504555493F000026
:105D20004C4F47000A5B25735D0000002B4150502B
:105D30004555493A00000000EA0B00202573000099
:105D4000C81C0020200000004B1D00204150504581
:105D500055493A20253032782025303278202530B8
:105D600032782025303278202530327820253032A4
:105D7000782025303278202530327800F0B58FB089
:105D800000257EE041A240F2DC5141A0FFF764FE15
:105D9000012870D141A142A004F064F842A1454815
:105DA000FEF71AFB0746394643A004F05BF878215A
:105DB0004248FEF706FB3CA13E48FEF70DFB0646B7
:105DC00000200E9000240EAB3C4A3DA130460AF064
:105DD0000EFA0AE0394B611C53F8212039490819A1
:105DE000022301210AF090F9641C0E99481E0E90BE
:105DF0000029EFD129A12AA004F034F83148133842
:105E000090F822002F49133991F821102D4A133AA6
:105E100092F820202B4B133BDB7FCDE90932CDE9F3
:105E20000B1028481338807F264913394A7F097F91
:105E3000244B133BDB7ECDE90531CDE9072021481A
:105E40001338817E427E007E1E4B133BDB7DCDE905
:105E50000130CDE903211B481338807D009019489B
:105E60001338437D027DC17C174803F0FBFF0120FE
:105E70000FB0F0BDFFE7681C85B24FF47A7005F0F3
:105E800065FF032DFFF67EAF0020F1E74F4B0000CA
:105E900041542B4150504B45593F00004C4F470057
:105EA0000A5B25735D0000002B4150504B45593A69
:105EB00000000000EA0B002025730000C81C002031
:105EC00020000000531D0020309B0108F0B58FB06A
:105ED00000258BE048A240F2DC5148A0FFF7BCFD52
:105EE00001287DD148A149A003F0BCFF49A14C483D
:105EF000FEF772FA074639464AA003F0B3FF78214D
:105F00004948FEF75EFA43A14548FEF765FA0646A2
:105F100000200E9000240EAB434A44A130460AF004
:105F200066F90AE0404B611C53F8212040490819EA
:105F3000022301210AF0E8F8641C0E99481E0E9015
:105F40000029EFD130A131A003F08CFF3848273869
:105F500090F836003649273991F83510344A273AF7
:105F600092F83420324B273B93F83330CDE9093295
:105F7000CDE90B102E48273890F832002C492739EC
:105F800091F8312091F83010294B273B93F82F30AE
:105F9000CDE90531CDE907202548273890F82E10A6
:105FA00090F82D2090F82C00214B273B93F82B30B4
:105FB000CDE90130CDE903211D48273890F82A00AA
:105FC00000901B48273890F8293090F8282090F846
:105FD0002710184803F046FF01200FB0F0BDFFE77F
:105FE000681C85B24FF47A7005F0B0FE032DFFF601
:105FF00071AF0020F1E700004F4B000041542B41EE
:106000005050534B45593F004C4F47000A5B257396
:106010005D0000002B415050534B45593A000000A1
:10602000EA0B002025730000C81C0020200000009F
:10603000671D0020E49B010870B500241CE010A23D
:1060400040F2DC510FA0FFF707FD01280ED110A18F
:1060500010A003F007FF11A11248FEF7BDF9054695
:10606000294611A003F0FEFE012070BD601C84B221
:106070004FF47A7005F06AFE032CE0DB0020F4E7B1
:106080004F4B000041542B42414E443F0000000062
:106090004C4F47000A5B25735D0000002B42414EC8
:1060A00044000000EA0B00202573000070B50024B6
:1060B0001CE010A240F2DC510FA0FFF7CDFC01283C
:1060C0000ED110A110A003F0CDFE11A11248FEF7D1
:1060D00083F90546294611A003F0C4FE012070BDD6
:1060E000601C84B24FF47A7005F030FE032CE0DBC4
:1060F0000020F4E74F4B000041542B434C415353D5
:106100003F0000004C4F47000A5B25735D00000014
:106110002B434C4153533A00EA0B002025730000F7
:1061200070B500241CE010A240F2DC510FA0FFF774
:1061300093FC01280ED110A110A003F093FE11A131
:106140001348FEF749F90546294612A003F08AFED6
:10615000012070BD601C84B24FF47A7005F0F6FD2A
:10616000032CE0DB0020F4E74F4B000041542B43AD
:106170004F4E4649524D3F004C4F47000A5B257336
:106180005D0000002B434F4E4649524D3A0000003F
:10619000EA0B0020257300002DE9FC41002554E0A6
:1061A0002CA240F2DC512CA0FFF756FC012846D16E
:1061B0002CA12DA003F056FE2DA13048FEF70CF9BE
:1061C000074639462EA003F04DFE78212D48FEF7F4
:1061D000F8F827A12948FEF7FFF8064600200190AD
:1061E000002401AB274A28A130460AF000F80AE053
:1061F000244B611C53F82120244908190223012152
:1062000009F082FF641C0199481E01900029EFD11A
:1062100014A115A003F026FE1C48233890F8260090
:1062200000901A48233890F8253090F8242090F8F0
:10623000231017A003F016FE0120BDE8FC81681CA6
:1062400085B24FF47A7005F081FD032DA8DB0020A4
:10625000F3E700004F4B000041542B4445564144A6
:1062600044523F004C4F47000A5B25735D0000001D
:106270002B444556414444523A000000EA0B0020AA
:1062800025730000C81C002020000000631D0020B2
:10629000444556414444523A202530327820253036
:1062A0003278202530327820253032780000000006
:1062B000F0B587B0002560E032A240F2DC5134A096
:1062C000FFF7CAFB012852D134A135A003F0CAFD63
:1062D0002CA13548FEF780F80746394633A003F075
:1062E000C1FD78213248FEF76CF826A12E48FEF752
:1062F00073F8064600200690002406AB2C4A2DA118
:10630000304609F074FF0AE0294B611C53F8212044
:10631000294908190223012109F0F6FE641C069997
:10632000481E06900029EFD11CA11DA003F09AFD84
:106330002148C01E807A2049C91E497A1E4AD21EB1
:10634000127A1D4BDB1EDB79CDE90132CDE903105A
:106350001948C01E807900901748C01E4379027901
:10636000C17816A003F07EFD012007B0F0BD681CC7
:1063700085B24FF47A7005F0E9FC032D9CDB002018
:10638000F3E700002B4445564555493A000000000C
:1063900041542B4445564555493F00004C4F47005A
:1063A0000A5B25735D000000EA0B002025730000E6
:1063B000C81C002020000000431D002044657645D5
:1063C00055493A2025303278202530327820253042
:1063D000327820253032782025303278202530322E
:1063E00078202530327820253032780070B50024AE
:1063F0001CE010A240F2DC510FA0FFF72DFB01289A
:106400000ED111A111A003F02DFD12A11448FDF72A
:10641000E3FF0546294613A003F024FD012070BDCB
:10642000601C84B24FF47A7005F090FC032CE0DB22
:106430000020F4E74F4B000041542B44415441529B
:106440004154453F000000004C4F47000A5B257354
:106450005D0000002B44415441524154453A000034
:10646000EA0B00202573000070B500241CE010A288
:1064700040F2DC510FA0FFF7EFFA01280ED110A176
:1064800010A003F0EFFC11A11248FDF7A5FF05468F
:10649000294611A003F0E6FC012070BD601C84B207
:1064A0004FF47A7005F052FC032CE0DB0020F4E797
:1064B0004F4B000041542B465245513F0000000015
:1064C0004C4F47000A5B25735D0000002B46524588
:1064D000513A0000EA0B002025730000F0B58FB0A0
:1064E00000258BE048A240F2DC5148A0FFF7B4FA47
:1064F00001287DD148A149A003F0B4FC49A14C4832
:10650000FDF76AFF074639464AA003F0ABFC782145
:106510004948FDF756FF43A14548FDF75DFF064694
:1065200000200E9000240EAB434A44A1304609F0EF
:106530005EFE0AE0404B611C53F8212040490819D7
:106540000223012109F0E0FD641C0E99481E0E9003
:106550000029EFD130A131A003F084FC384837384E
:1065600090F846003649373991F84510344A373AA1
:1065700092F84420324B373B93F84330CDE909324F
:10658000CDE90B102E48373890F842002C493739A6
:1065900091F8412091F84010294B373B93F83F3058
:1065A000CDE90531CDE907202548373890F83E1070
:1065B00090F83D2090F83C00214B373B93F83B305E
:1065C000CDE90130CDE903211D48373890F83A0074
:1065D00000901B48373890F8393090F8382090F800
:1065E0003710184803F03EFC01200FB0F0BDFFE764
:1065F000681C85B24FF47A7005F0A8FB032DFFF6F6
:1066000071AF0020F1E700004F4B000041542B4ECA
:10661000574B534B45593F004C4F47000A5B25737E
:106620005D0000002B4E574B534B45593A0000007C
:10663000EA0B002025730000C81C00202000000089
:10664000771D0020889B010870B500241CE010A273
:1066500040F2DC510FA0FFF7FFF901280ED110A185
:1066600010A003F0FFFB11A11248FDF7B5FE05468F
:10667000294611A003F0F6FB012070BD601C84B216
:106680004FF47A7005F062FB032CE0DB0020F4E7A6
:106690004F4B000041542B504F52543F000000001C
:1066A0004C4F47000A5B25735D0000002B504F5292
:1066B000543A0000EA0B00202573000070B5002456
:1066C0001CE010A240F2DC510FA0FFF7C5F9012831
:1066D0000ED10FA10FA003F0C5FB10A11148FDF7CB
:1066E0007BFE0546294610A003F0BCFB012070BDCF
:1066F000601C84B24FF47A7005F028FB032CE0DBB9
:106700000020F4E74F4B000041542B5258323F0019
:106710004C4F47000A5B25735D0000002B52583236
:106720003A000000EA0B00202573000070B5002439
:106730001CE010A240F2DC5111A0FFF78DF90128F6
:106740000ED112A112A003F08DFB0AA11248FDF791
:1067500043FE0546294611A003F084FB012070BDCD
:10676000601C84B24FF47A7005F0F0FA032CE0DB81
:106770000020F4E72B5354415455533A00000000D5
:1067800041542B5354415455533F00004C4F470044
:106790000A5B25735D000000EA0B002025730000F2
:1067A00070B500241CE010A240F2DC5110A0FFF7ED
:1067B00053F901280ED110A110A003F053FB0AA138
:1067C0001048FDF709FE054629460FA003F04AFBD5
:1067D000012070BD601C84B24FF47A7005F0B6FAE7
:1067E000032CE0DB0020F4E72B56455200000000AC
:1067F00041542B5645523F004C4F47000A5B2573CE
:106800005D000000EA0B00202573000010B5002495
:106810001AE00FA240F2DC510EA0FFF71DF901288B
:106820000CD10F48007820F001000D49087000BF1E
:106830000DF024FC0028FBD0012010BD601C84B2A8
:106840004FF47A7005F082FA032CE2DB0020F4E7C3
:106850004F4B000041542B464143544F52590000C6
:10686000401D002010B500240EE009A240F2DC51CA
:1068700008A0FFF7F1F8012800D110BD601C84B218
:106880004FF47A7005F062FA032CEEDB0020F4E797
:106890004F4B000041542B534156450010B590B06A
:1068A0000024242218A107A8FDF770FD1F48807C52
:1068B0001E49497C1D4A127C1C4BDB7BCDE9023210
:1068C000CDE904101948807B1849497BCDE90010B7
:1068D0001648037BC27A16A107A806F091FD0FE0C7
:1068E00020A240F2DC5107A8FFF7B6F8012801D139
:1068F00010B010BD601C84B24FF47A7005F026FA17
:10690000032CEDDB0020F3E741542B41505045555B
:10691000493D20464620464620464520303020301E
:10692000302030302030302030310000401D002039
:1069300041542B4150504555493D20253032782057
:1069400025303278202530327820253032782025C5
:1069500030327820253032782025303278202530AA
:10696000327800004F4B000010B59EB0002440224A
:1069700025A10EA8FDF70AFD334890F82200324900
:1069800091F82110304A92F820202F4BDB7FCDE97F
:106990000A32CDE90C102C48807F2B49497F2A4AC6
:1069A000127F294BDB7ECDE90632CDE9081026485F
:1069B000827E407E2449097E234BDB7DCDE9023176
:1069C000CDE904022048807D1F49497DCDE90010B2
:1069D0001D48037DC27C1D490EA806F011FD0FE085
:1069E0001BA240F2DC510EA8FFF736F8012801D1B6
:1069F0001EB010BD601C84B24FF47A7005F0A6F989
:106A0000032CEDDB0020F3E741542B4150504B4564
:106A1000593D203242203745203135203136203251
:106A2000382041452044322041362041422046371B
:106A30002031352038382030392043462034462054
:106A400033432C3000000000401D0020989F0108B7
:106A50004F4B00003EB5044600250EA207CA8DE844
:106A6000070022460EA1684606F0CAFC0EE00FA2FF
:106A700040F2DC516846FEF7EFFF012800D13EBD31
:106A8000681C85B24FF47A7005F060F9032DEEDBD7
:106A90000020F4E741542B434C4153533D30000058
:106AA00041542B434C4153533D2564004F4B000050
:106AB0007FB504460D4600260FA30FCB8DE80F00CF
:106AC0002B46224610A1684606F09AFC0FE013A25E
:106AD00040F2DC516846FEF7BFFF012801D104B047
:106AE00070BD701C86B24FF47A7005F02FF9032E3A
:106AF000EDDB0020F3E7000041542B434F4E4649A5
:106B0000524D3D312C33000041542B434F4E4649EA
:106B1000524D3D25642C2564000000004F4B0000C1
:106B2000F0B587B004460D4616460027182210A17E
:106B300001A8FDF72BFC2B46224613A101A80096C5
:106B400006F05EFC0FE015A240F2DC5101A8FEF752
:106B500083FF012801D107B0F0BD781C87B24FF444
:106B60007A7005F0F3F8032FEDDB0020F3E7000067
:106B700041542B465245513D312C32302C38363859
:106B8000313030303030000041542B465245513DB9
:106B900025642C25642C2564000000004F4B000068
:106BA00010B5002417E00EA240F2DC510DA0FEF754
:106BB00053FF012809D1FF210F48FDF702FC0020F7
:106BC0000E49A1F80602012010BD601C84B24FF4EA
:106BD0007A7005F0BBF8032CE5DB0020F4E7000039
:106BE0004F4B000041542B4A4F494E3D312C312C24
:106BF00031322C3130000000EA0B0020E40A002082
:106C000010B500240EE009A240F2DC5108A0FEF706
:106C100023FF012800D110BD601C84B24FF47A70AC
:106C200005F094F8032CEEDB0020F4E74F4B000056
:106C300041542B4F5441413D312C30003EB5044668
:106C400000250EA207CA8DE8070022460EA168465D
:106C500006F0D6FB0EE010A240F2DC516846FEF7CB
:106C6000FBFE012800D13EBD681C85B24FF47A704E
:106C700005F06CF8032DEEDB0020F4E741542B50B7
:106C80004F52543D3230000041542B504F52543D2E
:106C900025303278000000004F4B000070B586B000
:106CA00004460D46002614220FA101A8FDF76EFB35
:106CB0002B46224611A101A806F0A2FB0FE013A269
:106CC00040F2DC5101A8FEF7C7FE012801D106B051
:106CD00070BD701C86B24FF47A7005F037F8032E41
:106CE000EDDB0020F3E7000041542B5258323D30D9
:106CF0002C383639353235303030000041542B5283
:106D000058323D25642C2564000000004F4B0000E4
:106D100010B52DED088B98B008F00AF908F072FA5A
:106D2000FB484079C0F3401018B918B0BDEC088B8F
:106D300010BDF84800680DF05BFF80F0010414A955
:106D4000F44800680DF0C7FE80F00100044004B173
:106D5000EBE73221F048006809F054F900B9E4E7A4
:106D60000DF026FAEC490860BDF85000EB4991F8A7
:106D7000441001EB4101E94A22F81100BDF852002C
:106D8000114691F8441001EB410102EB41014880AA
:106D9000BDF85400114691F8441001EB410102EB9B
:106DA00041018880104690F84400401C114681F84B
:106DB0004400084690F8440009287DDB00201BE0D1
:106DC00000EB4001D54A32F811100DAA22F810103C
:106DD00000EB4001D14A02EB4101498808AA22F8A0
:106DE000101000EB4001CD4A02EB4101898803AA53
:106DF00022F81010411CC8B20A28E1DB0020C74964
:106E000081F84400092200210DA80EF0F1FE0922AC
:106E1000002108A80EF0ECFE0922002103A80EF0C4
:106E2000E7FE0A210DA80DF0C1F8ADF848000A21CF
:106E300008A80DF0BBF8ADF84A000A2103A80DF030
:106E4000B5F8ADF84C00BDF94800001100EE100A8D
:106E5000B8EEC00AF7EE000A20EE200ABDEEC00A26
:106E600010EE100A00B2ADF85800BDF94A0000114A
:106E700000EE100AB8EEC00AF7EE000A20EE200A73
:106E8000BDEEC00A10EE100A00B2ADF85A00BDF90E
:106E90004C00001100EE100AB8EEC00AF7EE000A2E
:106EA00020EE200ABDEEC00A10EE100A00B2ADF8C6
:106EB0005C00BDF95C0000E08EE1FDF766FD41EC91
:106EC0001A0BBDF9580000EE100AB8EEC00A10EE19
:106ED000101A0846FDF799FD41EC1B0BB0EE4A1A5B
:106EE000F0EE6A1AB0EE4B0AF0EE6B0A06F02CFDDB
:106EF000B0EE409AF0EE609A9FED890B53EC102BA8
:106F000051EC190BFDF74FFC41EC180BFDF7C0FDE0
:106F10008249C863BDF95C00FDF737FD41EC1A0BEF
:106F2000BDF95A0000EE100AB8EEC00A10EE101AB1
:106F30000846FDF76AFD41EC1B0BB0EE4A1AF0EE75
:106F40006A1AB0EE4B0AF0EE6B0A06F0FDFCB0EEEA
:106F5000409AF0EE609A9FED720B53EC102B51ECBF
:106F6000190BFDF720FC41EC180BFDF791FD6B4967
:106F70000864084690ED0F0AB5EEC00AF1EE10FA6B
:106F800007D290ED0F0ADFED680A30EE200A80ED9F
:106F90000F0A624890ED100AB5EEC00AF1EE10FA41
:106FA00007D290ED100ADFED600A30EE200A80ED86
:106FB000100A5A4890ED0F0A554880ED0B0A5B48BD
:106FC00090ED060AB5EEC00AF1EE10FA07D290ED88
:106FD000060ADFED550A30EE200A80ED060A534816
:106FE00090ED070AB5EEC00AF1EE10FA07D290ED67
:106FF000070ADFED4D0A30EE200A80ED070A44480B
:1070000090ED0B0A4948D0ED060A30EE600A10EE0A
:10701000101A0846FDF7F9FC41EC190BB0EE490ACD
:10702000F0EE690A06F0ACFDB0EE408AF0EE608A40
:107030009FED3F0B53EC102B51EC180BFDF710FD9F
:1070400064D2334890ED0B0A3848D0ED060A30EE92
:10705000600A10EE101A0846FDF7D7FC41EC190B38
:10706000B0EE490AF0EE690A06F08AFDB0EE408AF9
:10707000F0EE608A9FED300B53EC102B51EC180BA7
:10708000FDF7D6FC66D22E480088401C2C490880AB
:107090001F4890ED0B0A2B48D0ED000A30EE600A35
:1070A00010EE101A0846FDF7B0FC41EC190BB0EEDB
:1070B000490AF0EE690A06F063FDB0EE408AF0EE90
:1070C000608A9FED210B53EC102B51EC180BFDF750
:1070D000C7FC61D21A48008806285DDB0C48C079DD
:1070E000A8B901200A49C8710846407920F0040077
:1070F000001D4871084690ED0B0A124880ED000A09
:1071000040F6B8301249A1F8040145E022E043E01E
:10711000500A00200401002008010020981A0020D5
:1071200000C2631ADCA54C400000B443E01A002002
:1071300000000000000034400000000000407540E6
:107140000C0100201001002000000000000014408D
:10715000E40A002021480088F0B120480088401E41
:107160001E49088008460088B0B91D48C07998B10A
:1071700000201B49C8710846407920F00400001D1A
:107180004871084690ED0B0A164880ED000A40F65B
:10719000B8301549A1F8040110480088062802DB20
:1071A00006200E49088011A111A002F05BFE0C48D8
:1071B00090ED0B0A10EE101A0846FDF726FC41EC84
:1071C000180B064801880648C07953EC182BCDE906
:1071D000000109A002F046FE00BFA6E50C01002058
:1071E000500A002010010020E40A00204C4F470004
:1071F0000A5B25735D000000636F6E766572742014
:10720000616E676C6520252E32662C20736C616E72
:10721000745B25645D2C20636F756E745B25645D03
:107220000000000000B589B03A48006828B9002184
:1072300019200DF06FFC37490860364800680028B7
:1072400066D035A135A002F00DFE36A002F00AFE90
:1072500002208DF818000A208DF8190001208DF801
:107260001A008DF81B008DF81C008DF81D008DF89C
:107270001E008DF81F0000208DF821008DF82000E1
:1072800000900190034602460146029021480068A2
:107290000DF06EFA1F4800680DF050FB00221146F9
:1072A0001C4800680DF0A4FA00211A4800680DF08F
:1072B0008FFD012000900346002204210190154813
:1072C00000680DF01BFD00231A46032111480068D9
:1072D0000DF0AFFA00200590049005A90D48006854
:1072E0000DF043FB002204A90A4800680DF080FB62
:1072F00012484079C0F3401048B90120009003467D
:10730000002211460190034800680DF0F7FC00BF11
:1073100009B000BD040100204C4F47000A5B2573F3
:107320005D0000004163632053656E736F722049F6
:107330006E6974205375636365737300500A00208F
:1073400010B52DED0C8B86B07B4800680DF050FC1D
:1073500080F0010402A9784800680DF0BCFB80F0C1
:10736000010004401CB106B000F00AB910BDBDF91F
:107370000800001100EE100AB8EEC00AF7EE000A8D
:1073800020EE200ABDEEC00A10EE100A00B2ADF8E1
:107390001000BDF90A00001100EE100AB8EEC00A94
:1073A000F7EE000A20EE200ABDEEC00A10EE100A29
:1073B00000B2ADF81200BDF90C00001100EE100A89
:1073C000B8EEC00AF7EE000A20EE200ABDEEC00AB1
:1073D00010EE100A00B2ADF81400BDF91400FDF76C
:1073E000D4FA41EC1C0BBDF9100000EE100AB8EE07
:1073F000C00A10EE101A0846FDF707FB41EC1D0B02
:10740000B0EE4C1AF0EE6C1AB0EE4D0AF0EE6D0ACA
:1074100006F09AFAB0EE40BAF0EE60BA9FED470B74
:1074200053EC102B51EC1B0BFDF7BDF941EC1A0B83
:10743000FDF72EFB08EE100ABDF91400FDF7A5FAC2
:1074400041EC1C0BBDF9120000EE100AB8EEC00AA8
:1074500010EE101A0846FDF7D8FA41EC1D0BB0EEFD
:107460004C1AF0EE6C1AB0EE4D0AF0EE6D0A06F012
:107470006BFAB0EE40BAF0EE60BA9FED300B53EC11
:10748000102B51EC1B0BFDF78EF941EC1A0BFDF79D
:10749000FFFA08EE900AB5EEC08AF1EE10FA05D2B6
:1074A0009FED280A38EE000AB0EE408AF5EEC08A59
:1074B000F1EE10FA05D29FED230A38EE800AF0EEC5
:1074C000408AB0EE489A204890ED000A39EE400A12
:1074D00010EE101A0846FDF798FA41EC1B0BB0EEBF
:1074E0004B0AF0EE6B0A06F04BFBB0EE40AAF0EE52
:1074F00060AA9FED160B53EC102B51EC1A0BFDF705
:10750000AFFA02D20320134988720F4880ED009A27
:1075100011A112A002F0A6FC19EE100AFDF775FAEF
:1075200041EC1A0B0F4853EC1A2B00900EA002F0FE
:1075300099FC00BF17E700000401002000C2631A95
:10754000DCA54C400000B443140100200000000002
:1075500000001440500A00204C4F47000A5B25737E
:107560005D000000508E0108526573756C743A20FE
:10757000252E32662C2046756E633A202573000056
:10758000BDEC088BBDEC04CBFFF7F0BE30B58DB081
:10759000182107A8FCF715FF182101A8FCF711FF17
:1075A00000204049096821F4406101433D4A883A7E
:1075B000C2F8881000BF01201146C96D0143D16592
:1075C0001146C96D0140009100BF00BF022002F0CA
:1075D00081FE4FF44060019002200290032003904E
:1075E00000200490012005900820069001A92E4853
:1075F00003F01EF805F0A4FF05460022114604F032
:1076000043FC04462146462005F0CAFF462005F00B
:107610007DFF4FF4E13007900020089009900A9018
:107620000C200B9000200C9007A9204803F070F963
:107630001E4800BF00BF00BF50E8002F42F02001ED
:1076400040E80012002AF7D100BF00BF174800BF72
:1076500000BF00BF50E8002F42F4807140E80012E4
:10766000002AF7D100BF00BF00BF01200F49086208
:1076700000BF00BF0846006840F00100086000BF7E
:1076800000BF00BF0948C069C0F340500028F8D0CF
:1076900000BF0648C069C0F380500028F1D00DB08B
:1076A00030BD000088100240000400480080004007
:1076B00000B589B00EF00AF90020069007900890F6
:1076C00018216846FCF77DFE012002F0F5FD02203E
:1076D00002F0F2FD042002F0EFFD012001900320F2
:1076E00002900020039004900220009069468D488B
:1076F00002F09EFF02218B4803F033F8C020009077
:107700006946894802F094FF4021874803F029F830
:107710008021854803F025F80420009069468148BF
:1077200002F086FF04217F4803F01BF84020009000
:1077300069464FF0904002F07BFF40214FF09040AF
:1077400003F00FF8012000906946774802F070FFBF
:107750000121754803F005F8102000906946724831
:1077600002F066FF1021704803F005F80020019038
:1077700001200490009069464FF0904002F058FFBD
:10778000202000900020049069464FF0904002F0C5
:107790004FFF02200490042000906946624802F0E6
:1077A00047FF80215F4802F0E6FF40215D4802F07C
:1077B000E2FF4FF480714FF0904002F0DCFF802038
:1077C00000900120019000200290039004906946EF
:1077D000544802F02DFF402000906946514802F0C5
:1077E00027FF4FF48070009069464FF0904002F000
:1077F0001FFF4FF4807000900020019004906946B4
:10780000484802F015FF4FF4007000906946454863
:1078100002F00EFF4FF47021002003F035FD01222D
:1078200011464FF0904002F0C2FF002201214FF0BC
:10783000904002F0A8FF012006908DF82000002063
:107840008DF8210002208DF8220006A802F02CFEFF
:107850003649002003F018FD002220214FF090400F
:1078600002F0A5FF002220214FF0904002F08BFF94
:107870002020069001208DF8200000208DF82100A6
:1078800001208DF8220006A802F00EFE4FF0706174
:10789000012003F0F9FC02220421234802F087FFB3
:1078A00000220421204802F06EFF042006900120EF
:1078B0008DF8200000208DF8210003208DF8220093
:1078C00006A802F0F1FD0021062005F041FE062089
:1078D00005F0FAFD0021082005F03AFE082005F029
:1078E000F3FD0021172005F033FE172005F0ECFD15
:1078F00000220F490F4807F0E7FF0F4A03210D4808
:1079000007F0C7FE0D4A04210A4807F0C2FE0C4AE0
:107910000521084807F0BDFE064807F0F5FF09B04D
:1079200000BD000000080048000400480100F0000D
:10793000FBF80008900A0020497C0008D17B000871
:10794000E57B000830B58FB01C2108A8FCF739FD95
:10795000182102A8FCF735FD4FF4403003F03EF942
:107960004FF480402749096E0143264A11661146AB
:10797000096E0140019100BF00BF012002F0AAFC86
:107980004FF4C06002900220039003200490002076
:107990000590012006900720079002A94FF0904023
:1079A00002F046FE05F0CCFD05460122002104F060
:1079B0006BFA04462146252005F0F2FD252005F04E
:1079C000A5FD4FF416500890002009900A900B90E6
:1079D0000C200C9000200D900E9008A90A4803F08E
:1079E00049FD094803F016FD074803F026FD064847
:1079F00003F034FD044803F025FD034803F007FDC0
:107A00000FB030BD001002400038014030B58DB0DD
:107A10001C2106A8FCF7D5FC18216846FCF7D1FC10
:107A20004FF4402003F0DAF84FF4003002F07CFC11
:107A3000012002F04FFC0C20009002200190032056
:107A400002900020039001200490072005906946D1
:107A50004FF0904002F0ECFD05F072FD054600226B
:107A6000012104F011FA04462146262005F098FD74
:107A7000262005F04BFD4FF416500690002007908D
:107A8000089009900C200A9000200B900C9006A9F9
:107A90000C4803F0EFFC0B4803F0BCFC094803F072
:107AA000C7FC084803F0BFFC064803F0C6FC0548C5
:107AB00003F0D4FC034803F0C5FC024803F0A7FC24
:107AC0000DB030BD0044004030B58DB01C2106A87B
:107AD000FCF777FC18216846FCF773FC4FF4401064
:107AE00003F07CF84FF4802002F01EFC042002F02A
:107AF000F1FB302000900220019003200290002032
:107B00000390012004900720059069461C4802F06C
:107B10008FFD05F015FD05460022012104F0B4F9A2
:107B200004462146272005F03BFD272005F0EEFC0A
:107B30004FF41650069000200790089009900C20F2
:107B40000A9000200B900C9006A90E4803F092FCBE
:107B50000C4803F05FFC0B4803F06AFC094803F093
:107B600062FC084803F069FC064803F077FC05480E
:107B700003F068FC034803F04AFC0DB030BD000080
:107B8000000800480048004070B504462046FCF755
:107B900035FC85B22946204600F002F870BD000091
:107BA000F0B5002205460EE0084B1646571CBAB247
:107BB000AC5D1C8500BF00BF00BF044BDB69C3F395
:107BC0008013002BF8D08A42EEDBF0BD008000402D
:107BD0000348407920F00100401C0149487170477A
:107BE000500A002014484079C0F3401080B1124878
:107BF000407920F02000104948711048007820F0AA
:107C000001000E4908704FF47A700D4908800EE0AB
:107C10000948407920F020002030074948710120B0
:107C2000064981F8480040F6B8300549088001202F
:107C30000449087070470000500A0020401D0020D1
:107C400018000020290000201E48007920F0800044
:107C500080301C49087108464079C0F3401018B1C3
:107C60004FF4FA7018490880184801780078401CD1
:107C7000164A107021B9164800680A301549086084
:107C80001348006813490968884206D90F480078EC
:107C900018B100200D49087012E00A484079C0F37D
:107CA000401068B109480078072809DB002007491F
:107CB00008700448407920F01000103001494871E4
:107CC00070470000500A0020180000202800002003
:107CD000440000202C00002000BFFEE72DE9F04109
:107CE00005460E461746294608A002F0BBF80024B8
:107CF00004E0315D0AA002F0B5F8641CBC42F8DB78
:107D000009A002F0AFF8BDE8F08100000A556172E9
:107D1000742044617461205B25735D3A00000000AB
:107D200020253032780000000A000000704701B5BD
:107D3000002106E0642100BF081EA1F1010291B2FA
:107D4000FAD1BDF80000421E92B200920028F1D193
:107D500008BD000010B525480079C0F3C000002818
:107D600036D02248007920F00800204908710846E2
:107D70004079C0F380101E490968C1F38001884230
:107D800026D014200DF078FA18484079C0F38010FE
:107D900017490968C1F38001884219D01448006866
:107DA00080081249497960F3861110484171807A40
:107DB000032802DA03200D4988720EA10EA002F0FA
:107DC00051F80A484079C0F380110DA002F04AF83A
:107DD0001348006813490968884206D80348407967
:107DE00020F00400001D0149487110BD500A002018
:107DF000100400484C4F47000A5B25735D000000EB
:107E0000424C4520436F6E6E6563742053746174F9
:107E100065204368616E676520546F20256400000B
:107E20000C0000204400002010B501F02FFBFFF7EC
:107E300091FF3048007800F0010060B32E48B0F8A0
:107E4000040140BB2D48007828B3FF212A48FCF7E5
:107E5000B8FADC212A48FCF7B4FA294C0122294956
:107E600029480DF025F927480278214626480DF0CB
:107E70001FF90FF007F821480078401EC0B21F49D3
:107E8000087038B94FF480612048FCF79AFA1E4810
:107E90000DF068F900BF1E484079C0F3800088B13A
:107EA0001B48407920F00400194948710846808930
:107EB000C0EB00101749096801EB80001649086003
:107EC00000F0B8F812484079C0F3C00088B11048FB
:107ED000407920F008000E4948710846C089C0EB7F
:107EE00000100C49096801EB80000C49086000F0A3
:107EF00017F810BD401D0020E40A002008000020F3
:107F0000A40600201400002088060020880200201B
:107F1000500A0020440000200C000020180100201E
:107F2000F8B5364D0024DC212846FCF74AFA00203B
:107F300033490870294610200FF018FA04462544EA
:107F40002F48007820442E490870294611200FF050
:107F50000DFA044625442A48007820442849087030
:107F60000020009027480DF033F80646244800789A
:107F7000401C864210DB0122214922480DF022F9E3
:107F80001F4802781D491F480DF01CF91E48007853
:107F9000401C1D49087030E01CA11EA001F062FFCA
:107FA0001EA001F05FFF00BF17480078401E164971
:107FB00008700122694613480DF07AF89DF80020F8
:107FC0001B4910480DF074F80E480DF001F80646F4
:107FD0000B480078401C8642E6DB0122084909482C
:107FE0000DF0F0F806480278044906480DF0EAF86A
:107FF00005480078401C04490870F8BDA40600201C
:108000001400002088060020080000204552524F2E
:10801000520000000A5B25735D0000004C7772621D
:1080200020416C72656164792046756C6C000000BB
:1080300080070020F8B5694D0024DC212846FCF7B4
:10804000C0F9002066490870294601200FF08EF91A
:108050000446254462480078204461490870294656
:108060008B200FF083F9044625445D4800782044B6
:108070005B490870294609200FF078F90446254429
:108080005748007820445649087029460A200FF0C6
:108090006DF9044625445248007820445049087040
:1080A00029460E200FF062F9044625444C4800781A
:1080B00020444B490870294644200FF057F90446E4
:1080C0002544474800782044454908702946452002
:1080D0000FF04CF9044625444148007820444049BB
:1080E00008704048C079A8B9294646200FF03EF9EB
:1080F000044625443A480078204439490870294606
:1081000047200FF033F904462544354800782044D1
:1081100033490870294648200FF028F904462544C1
:108120002F48007820442E490870294686200FF0F9
:108130001DF9044625442A4800782044284908703F
:108140000020009028480CF043FF064624480078A1
:10815000401C864210DB0122214923480DF032F8F1
:108160001F4802781D4920480DF02CF81F48007860
:10817000401C1E49087030E01DA11FA001F072FED6
:108180001FA001F06FFE00BF18480078401E17497D
:1081900008700122694614480CF08AFF9DF80020FF
:1081A0001C4911480CF084FF0F480CF011FF0646E3
:1081B0000B480078401C8642E6DB012208490A4849
:1081C0000DF000F806480278044907480CF0FAFF61
:1081D00006480078401C05490870F8BDA406002038
:1081E00014000020500A002088060020080000200B
:1081F0004552524F520000000A5B25735D0000009B
:108200004C77726220416C72656164792046756CAE
:108210006C0000008007002030B52DED048B85B088
:108220004F48006800F596704E49086008F078F8ED
:1082300004464D48C07900284FD1601C00B9002485
:1082400049490C820846008A1E2805DB0846008A38
:1082500041F29411884206DDFF2044490870002055
:10826000414908821AE04048008A3F49498A8842C9
:1082700003DA01203D49087010E03B48008A3A4982
:10828000898A884207DD3848808A002803DD022079
:108290003649087002E00020344908703248007AFC
:1082A0003249097888420ED0304800782E49087249
:1082B0000846407920F00400001D487140F6B830AF
:1082C0002B49A1F804012BA12BA001F0CBFD2648DE
:1082D000027A21462AA001F0C5FD03A904A807F0EF
:1082E000E5FF002838D10498002803DB1E490498D4
:1082F000886105E00498404240F400001A49886112
:1083000019490398C8611BA11BA001F0ABFD9DEDAD
:10831000030AB8EEC00ADFED260A80EE201A11EE3D
:10832000105A2846FCF771FB41EC180B9DED040A2E
:10833000B8EEC00ADFED1E0A80EE201A11EE105AC8
:108340002846FCF762FB41EC190B8DED008B53ECDA
:10835000192B18A001F086FD05B0BDEC048B30BDD3
:108360004400002010000020500A002024000020BB
:10837000E40A00204C4F47000A5B25735D000000B3
:10838000436F6E766572742055442044697374613E
:108390006E63653A2025646D6D2C20546872657398
:1083A000686F6C642053746174653A202564000022
:1083B00000007A4453485434305820526561642098
:1083C00054656D70657261747572653A2025302E42
:1083D0003266432C2048756D69646974793A2025AA
:1083E000302E32662552480010B5012002F014F9F3
:1083F000D0B1012001F0F2FF0C480079C0F3401029
:1084000058B10A48007920F0200008490871084650
:10841000007920F00200801C08710448807A03284B
:1084200002DA03200149887210BD0000500A0020C2
:1084300010B5042002F0F0F878B1042001F0CEFF6E
:108440000648007920F00800083004490871084601
:10845000807A032801DA0320887210BD500A0020B8
:1084600010B5202002F0D8F878B1202001F0B6FF36
:108470000648007920F00400001D044908710846F0
:10848000807A032801DA0320887210BD500A002088
:1084900010B54FF0805001F063FF4FF400400D49DC
:1084A000896821F4004101430A4A916000BF02201B
:1084B0000949096821F007010143074A116000BF1B
:1084C00000BF0648006840F004000449086000BF8F
:1084D00030BF10BD001002400070004010ED00E001
:1084E00030B587B00025164C16490020CDE90410A0
:1084F000012204A9204600F0E3FBDDE9041070EA44
:10850000010119D00020009001900290039000908A
:1085100001200190A4F10060C00A029001200390A4
:1085200001F0F4FB00BF06A9684601F067FA0028D5
:10853000F9D101F053FB00BF284607B030BD000061
:1085400000F80308785634121B49087F012801D02F
:10855000032816D11949096821F40071174A1160DE
:1085600000BF1146096841F40061116011460968B5
:1085700021F40061116000BF1146096841F40071E7
:108580001160022801D0032811D100BF0B490968EE
:1085900041F48051094A11601146096821F4805163
:1085A000116000BF1146096841F48061116000212B
:1085B000014A11777047000084010020002002402A
:1085C00000F0010129B10649496941F00401044A5A
:1085D00051610349496941F48031014A5161704751
:1085E0000020024070B54FF00064057805F00105E9
:1085F00075B10B4D6D6AC5F30E0304EBC3050D6039
:10860000074DAD6AC5F30E0304EBC305ED1D156000
:10861000034E0568B66A06F000463543056070BD36
:10862000002002400648006AC1B2AA2903D0CC2922
:1086300001D0BB2070470248006AC0B2FAE70000D0
:10864000002002400249086A20F0FF007047000045
:108650000020024050B90C4BDB6A03F07F030B6033
:10866000094BDB6AC3F3064313600BE0012809D111
:10867000054B1B6B03F07F030B60034B1B6BC3F3BA
:108680000643136070470000002002402DE9F047C8
:1086900004460E4617464CF2503000F0E3FC80468C
:1086A000B8F1000F30D14FF0006504F00100A0B127
:1086B000701B4FEAD0091648406A6FF30E0040EA7B
:1086C000090013494862781B4FEAD0090846806ABE
:1086D0006FF30E0040EA090088620D48816A204667
:1086E00061F31E000A4988620846406940F4003080
:1086F00048614CF2503000F0B5FC804604484069B7
:1087000020F40030024948614046BDE8F08700008F
:108710000020024070B504464CF2503000F0A2FC3C
:108720000546B5B90C48006A20F0FF0020430A490D
:1087300008620846406940F4003048614CF250300D
:1087400000F090FC05460448406920F400300249DE
:108750004861284670BD0000002002402DE9F0412C
:1087600004460D46002600274CF2503000F07AFCFB
:108770008046B8F1000F7FD104F0010020B105F46C
:10878000E060064347F4E06704F0020020B105F41E
:108790008050064347F4805704F0040020B105F4EC
:1087A0000050064347F4005704F4805020B105F40C
:1087B0008040064347F4804704F0080020B105F4E8
:1087C0008030064347F4803704F0100020B105F4F0
:1087D0000030064347F4003704F0200020B105F4D0
:1087E0008020064347F4802704F0400020B105F4C0
:1087F0000020064347F4002704F4007020B105F47C
:108800000000064347F4000704F4806020B105F03F
:108810008070064347F0807704F4006020B105F0D3
:108820000070064347F0007704F4005020B105F0D3
:108830008060064347F0806704F4804020B105F073
:108840000060064347F000670D48006AB8433043B4
:108850000B4908620846406940F4003048614CF218
:10886000503000F0FFFB80460548406920F400309E
:10887000034900E000E048614046BDE8F0810000A7
:10888000002002402DE9F04104460D4616464CF208
:10889000503000F0E7FB074637BB4CB91448C06ABC
:1088A00020F07F1045EA064108431149C8620AE0FA
:1088B000012C08D10E48006B20F07F1045EA0641DC
:1088C00008430B4908630A48406940F400300849EE
:1088D00048614CF2503000F0C5FB0746044840693F
:1088E00020F40030024948613846BDE8F0810000BC
:1088F00000200240094A526922F47E72C3B242EA61
:10890000C302064B5A611A46526942F002025A618A
:108910001A46526942F480325A6170470020024080
:1089200010B50849496941F00101064C61610260D6
:1089300000BF00BF00BFBFF36F8F00BF00BF00BF0D
:10894000436010BD00200240F0B5024640231446AB
:108950000D460C4E766946F480260A4F7E6100BFB4
:10896000EFF31086304672B600BF2E682660241DD5
:108970002D1D5E1EF3B2002BF7D100BF80F31088CF
:1089800000BFF0BD0020024070B52DED108BA2B0ED
:1089900050210EA8FBF715FD794C0A220EA920469E
:1089A00000F08EF94FF47A720023DDE90E5128466B
:1089B000FBF70AFC0022D0F101008A4104D22021F9
:1089C0007048FBF7FEFC6FE0DDE90E211046FBF777
:1089D000CEFF00EE100ADFED6C0A80EE201A694827
:1089E00080ED001ADDE910211046FBF7C0FF00EE14
:1089F000100ADFED650A80EE201A624880ED011A48
:108A0000DDE912211046FBF7B2FF00EE100ADFEDA0
:108A10005E0A80EE201A5B4880ED021ADDE914211F
:108A20001046FBF7A4FF00EE100ADFED570A80EEB8
:108A3000201A544880ED031ADDE916211046FBF791
:108A400096FF00EE100ADFED500A80EE201A4D4826
:108A500080ED041ADDE918211046FBF788FF00EECF
:108A6000100ADFED490A80EE201A464880ED051A0B
:108A7000DDE91A211046FBF77AFF00EE100ADFED60
:108A8000420A80EE201A3F4880ED061ADDE91C21DB
:108A90001046FBF76CFF00EE100ADFED3B0A80EE9C
:108AA000201A384880ED071A38A13AA001F0DAF907
:108AB000344890ED070A10EE101A0846FBF7A5FFA0
:108AC00041EC180B2F4890ED060A10EE101A0846DC
:108AD000FBF79BFF41EC190B2A4890ED050A10EEBD
:108AE000101A0846FBF791FF41EC1A0B254890ED50
:108AF000040A10EE101A0846FBF787FF41EC1B0B27
:108B0000204890ED030A10EE101A0846FBF77DFF8F
:108B100041EC1C0B1B4890ED020A10EE101A08469F
:108B2000FBF773FF41EC1D0B164890ED010A10EEA8
:108B3000101A0846FBF769FF41EC1E0B114890ED37
:108B4000000A10EE101A0846FBF75FFF41EC1F0BFE
:108B50008DED0C8B8DED0A9B8DED08AB8DED06BB7D
:108B60008DED04CB8DED02DB8DED00EB53EC1F2B77
:108B70000A4801F077F922B000F012B870BD000089
:108B800000100308E01A002000007A44464C4153CC
:108B9000480000000A5B25735D000000709D01081D
:108BA000BDEC088BBDEC08CBFFF7E8BF10B594B067
:108BB000134C0A226946204600F082F81A23DDE9A8
:108BC00000105940014307D10E4949790A9860F3D2
:108BD00045110C48417105E00A48407920F0200019
:108BE0000849487108A10AA001F03CF905484079FC
:108BF000C0F3401108A001F035F914B010BD000019
:108C000000200308500A0020464C41534800000051
:108C10000A5B25735D0000005265616420466C614B
:108C200073682044657669636520506172616D20C8
:108C3000506F776572204F4E3A2025640000000087
:108C40001CB5114C01226946204600F039F80F4945
:108C50000098C8810846C089B0F5B46F06DC0846A4
:108C6000C0890A2806DA0846C08918B14FF4B460F2
:108C70000649C88106A108A001F0F4F80348C1899B
:108C800007A001F0EFF81CBD00080308500A0020FF
:108C9000464C4153480000000A5B25735D0000000C
:108CA0005265616420466C61736820477073205080
:108CB0006572696F643A2025646D696E000000007A
:108CC000F0B503461C46002006E02568666801EB07
:108CD000C00760C70834401C9042F6DBF0BD0000BE
:108CE00010B52FA001F0BEF83DA001F0BBF84CA0DC
:108CF00001F0B8F80822022159A001F0B3F80FF0F2
:108D000047FEFFF753FF00F0EFF8FFF799FFFFF77B
:108D10003BFE00F02BF9FFF7E3FB102260496148AE
:108D2000FBF734FB5F4808385F490A68026049680E
:108D300041600B385D490968C0F8231010225C4976
:108D40002730FBF723FB10225A4956482430FBF703
:108D50001DFB59484079C0F3401020B10120514912
:108D6000133981F8480000205449087054480068BD
:108D700080085149497960F386114F484171007963
:108D800020F008004C4908714EA14FA001F06AF88C
:108D900049484079C0F380114DA001F063F810BD3F
:108DA0000A2A2A2A2A2A2A2A2A2A2A2A2A2A2A2A43
:108DB0002A2A2A2A2A2A2A2A2A2A2A2A2A2A2A2A13
:108DC0002A2A2A2A2A2A2A2A2A2A2A2A2A2A2A2A03
:108DD0002A2A2A2A2A2A2A2A2A2A2A2A2A0A000067
:108DE0002A2A2A2A2A2A2A2A2A2A2A2A2A2A2A2AE3
:108DF0002A2A2A2A2A2A2A2A2A2A2A2A2A2A2A2AD3
:108E00002A2A2A2A2A2A2A2A2A2A2A2A2A2A2A2AC2
:108E10002A2A2A2A2A2A2A2A2A2A2A2A0A00000050
:108E20002A2A2A2A2A2A2A2A2A2A2A2A2A20484B6D
:108E3000543A204C6F526157414E20556C74726108
:108E4000736F6E69632044697374616E6365202A71
:108E50002A2A2A2A2A2A2A2A2A2A2A2A0A00000010
:108E60002A2A2A2A2A2A2A2A204841524457415289
:108E7000455F5645523A20307825303258202C53E1
:108E80004F4654574152455F5645523A2030782557
:108E9000303258202A2A2A2A2A2A2A2A0A0000009E
:108EA00034010020531D00202C010020440100202B
:108EB0004801002058010020500A00201500002021
:108EC000100400484C4F47000A5B25735D0000000A
:108ED000424C4520436F6E6E656374205374617419
:108EE00065202564000000001CB50F4C0122694676
:108EF0002046FFF7E5FE0D490098888108468089E5
:108F0000B0F5B46F03DC08468089012802DA1E2020
:108F10000649888106A108A000F0A4FF03488189C2
:108F200007A000F09FFF1CBD00000308500A0020AE
:108F3000464C4153480000000A5B25735D00000069
:108F40005265616420466C6173682044657669638C
:108F500065205265706F727420496E746572766117
:108F60006C203A2025646D696E00000010B594B045
:108F700050216846FBF725FA124C0A226946204622
:108F8000FFF79EFE41F294130020DDE900219A1ABA
:108F9000884105D264200C4948820020888204E080
:108FA0000949009848820298888208A109A000F027
:108FB00059FF0548828A418A08A000F053FF14B087
:108FC00010BD000000180308500A0020464C415311
:108FD000480000000A5B25735D0000005265616473
:108FE00020466C6173682055642052656665726521
:108FF0006E63653A206C6F77207468726573686F72
:109000006C645B25646D6D5D2C207468726573689B
:109010006F6C645B25646D6D5D00000010B51E20F3
:109020000E4988814FF4B460C881642048820020D2
:10903000888208720846407920F00400001D4871BB
:1090400048210748FBF7BDF900F08AF900F02CF938
:1090500000F050F800F0B4F910BD0000500A0020F4
:10906000981A002070B5054600F068FE064608E034
:10907000681C30B100F062FE801BA84201D30320BF
:1090800070BD1948006900F480300028F0D11648FE
:109090000069164900EA0104CCB115484068204334
:1090A0001349486000BF04F0404030B10E48806969
:1090B00004F0404108430C49886124F0404018B155
:1090C00024F040400849086100BF0120D8E7064865
:1090D000006900F0010020B100BF012002490861D1
:1090E00000BF0020CCE7000000200240FAC30200CD
:1090F0008401002030B59BB000254B4C502106A8C0
:10910000FBF75FF9494890ED000ADFED490A20EED0
:10911000200A10EE101A0846FBF748FCCDE90601BC
:10912000424890ED010ADFED420A20EE200A10EEDF
:10913000101A0846FBF73AFCCDE908013B4890EDD0
:10914000020ADFED3B0A20EE200A10EE101A084654
:10915000FBF72CFCCDE90A01344890ED030ADFED62
:10916000340A20EE200A10EE101A0846FBF71EFC07
:10917000CDE90C012D4890ED040ADFED2D0A20EE1B
:10918000200A10EE101A0846FBF710FCCDE90E017C
:10919000264890ED050ADFED260A20EE200A10EEA3
:1091A000101A0846FBF702FCCDE910011F4890EDAC
:1091B000060ADFED1F0A20EE200A10EE101A0846FC
:1091C000FBF7F4FBCDE91201184890ED070ADFED3B
:1091D000180A20EE200A10EE101A0846FBF7E6FBEC
:1091E000CDE91401002001900290039004900190B9
:1091F00001200290A4F10060C00A039001200490B5
:1092000000F084FD00BF05A901A800F0F7FB0028CD
:10921000F9D10A2206A9204600F076F8054600F0AA
:10922000DDFC28461BB030BD00100308E01A00200A
:1092300000007A4430B59BB00025194C502106A897
:10924000FBF7BFF81A210020CDE906101548407938
:10925000C0F340100021CDE91001002001900290E0
:1092600003900490019001200290A4F10060C00AD4
:1092700003900120049000F049FD00BF05A901A85A
:1092800000F0BCFB0028F9D10A2206A9204600F014
:109290003BF8054600F0A2FC28461BB030BD00009C
:1092A00000200308500A002030B589B00025144C76
:1092B0001448C0890021CDE90601002001900290E8
:1092C00003900490019001200290A4F10060C00A74
:1092D00003900120049000F019FD00BF05A901A82A
:1092E00000F08CFB0028F9D1012206A9204600F0ED
:1092F0000BF8054600F072FC284609B030BD0000AE
:1093000000080308500A00202DE9F05F81460D4651
:1093100092464FF0000B4E4600241AE005EBC400C5
:10932000D0E900733A463146002000F08FFC8346B6
:10933000BBF1000F08D13168706805EBC4030CCB9A
:1093400051405840014302D0012000F006B80836D1
:10935000641C5445E2DB0020F7E730BCBDE8C09F49
:1093600030B589B00025144C144880890021CDE91E
:1093700006010020019002900390049001900120CA
:109380000290A4F10060C00A03900120049000F054
:10939000BDFC00BF05A901A800F030FB0028F9D1F1
:1093A000012206A92046FFF7AFFF054600F016FC94
:1093B000284609B030BD000000000308500A002014
:1093C00030B59BB00025184C502106A8FAF7F9FFDC
:1093D0001648408A0021CDE906011448808ACDE96B
:1093E0000801002001900290039004900190012058
:1093F0000290A4F10060C00A03900120049000F0E4
:1094000085FC00BF05A901A800F0F8FA0028F9D1F1
:109410000A2206A92046FFF777FF054600F0DEFB8B
:1094200028461BB030BD000000180308500A002079
:1094300030B589B00025134C13490020CDE9061042
:109440000190029003900490019001200290A4F1F9
:109450000060C00A03900120049000F057FC00BF98
:1094600005A901A800F0CAFA0028F9D1012206A92D
:109470002046FFF749FF054600F0B0FB284609B03B
:1094800030BD000000F803087856341210B52648A5
:109490004079C0F30010002827D123480079C00983
:1094A00060B12148007920F080001F4908711FA099
:1094B00000F0D8FC4FF47A70244908801A484079AB
:1094C00000F00100C8B11848407920F001001649A9
:1094D00048711FA000F0C6FC254800781249497960
:1094E00060F382011048417107E00F48407920F095
:1094F00010000D494871FFF791FD0B480079C0F34A
:10950000800040B10848007920F004000649087145
:1095100018A000F0A7FC1B48007820B100201949D2
:109520000870FFF787FE10BD500A00200A427574CC
:10953000746F6E2050726573732053686F7274205D
:1095400048616E646C65720A00000000180000201B
:109550000A427574746F6E20507265737320446F85
:1095600075626C652048616E646C65720A0000006B
:10957000401D00200A41636320496E7420457665D2
:109580006E740A002900002010B52DED048BF348FD
:109590004079C0F3401010B1F048C08910B9BDEC5B
:1095A000048B10BD4FF4FA71ED48006806F02AFDF7
:1095B00000B9F4E70AF0FCFDE9490860E9480068F1
:1095C000E9490968884222D8E448C089C0EB001004
:1095D000E549096801EB8000E24908600221E3489F
:1095E00001F0CDF89FEDE20BE34880ED040B80ED38
:1095F000020BB420E1490870E1A1E2A000F032FCC6
:10960000D9480268D7480168E0A000F02BFCDB488D
:10961000007800287ED0D9480078401ED7490870CD
:10962000CE48807A032802DA0320CC498872D4A17C
:10963000D4A000F017FCD1480178E4A000F012FC9F
:10964000CD4890ED021BB0EE410AF0EE610A9FEDAD
:10965000C81B53EC112B51EC100BFBF7E9F911D09F
:10966000C54890ED041BB0EE410AF0EE610A9FED93
:10967000C01B53EC112B51EC100BFBF7D9F901D0A7
:10968000012000E000200446BC48007808B1002C0E
:109690007ED0B248C0893C282BDAD3480078E8B99C
:1096A000B6480078002819DDD0480078401CC0B2C8
:1096B000CE4908701E2810DB0120CB49087000201D
:1096C000CA490870AD480078A02801DAA02001E05E
:1096D000AA480078A949087000E060E74CB1A748A3
:1096E00000788C2801DA002001E0BF480078BE49EC
:1096F00008700020A149087002219C4801F035F84B
:109700009FA1A0A000F0AEFB9748026895480168B1
:10971000B74800E074E000F0A5FB9048407920F0E5
:10972000080008308D4948719CB3934890ED041BA4
:10973000B0EE410AF0EE610A04F022FAB0EE409A6F
:10974000F0EE609A9FEDAB0B53EC102B51EC190B24
:10975000FBF729F841EC180BFBF73EF97F4948620B
:10976000854890ED021BB0EE410AF0EE610A04F06C
:1097700007FAB0EE409AF0EE609A9FED9E0B53EC24
:10978000102B51EC190BFBF70EF841EC180B01E014
:1097900030E030E0FBF720F970490862764890ED40
:1097A000041BB0EE410AF0EE610A9FED711B53EC11
:1097B000112B51EC100BFBF73BF905D26748406ABF
:1097C00040F00040654948626B4890ED021BB0EEE6
:1097D000410AF0EE610A9FED661B53EC112B51EC30
:1097E000100BFBF725F90AD25C48006A40F00040F4
:1097F0005A49086203E00020584948620862AAE01A
:1098000056484079C0F38010002874D0574814306F
:109810000068C0F3400050B90221544800F0AFFF87
:109820009FED530B544880ED040B80ED020B524822
:1098300090ED021BB0EE410AF0EE610A9FED4C1B69
:1098400053EC112B51EC100BFBF7F2F811D04A48F6
:1098500090ED041BB0EE410AF0EE610A9FED441B4F
:1098600053EC112B51EC100BFBF7E2F801D0012067
:1098700000E000200446ECB33F4890ED041BB0EE3E
:10988000410AF0EE610A04F07BF9B0EE409AF0EE86
:10989000609A9FED580B53EC102B51EC190BFAF713
:1098A00082FF41EC180BFBF797F82C4948623248CD
:1098B00090ED021BB0EE410AF0EE610A04F060F98F
:1098C000B0EE409AF0EE609A9FED4A0B53EC102BED
:1098D00051EC190BFAF767FF41EC180BFBF77CF81A
:1098E0001E490862244890ED041BB0EE410AF0EED8
:1098F000610A01E026E02AE09FED1D1B53EC112BCD
:1099000051EC100BFBF794F805D21448406A40F074
:10991000004012494862184890ED021BB0EE410A1F
:10992000F0EE610A9FED121B53EC112B51EC100B62
:10993000FBF77EF80AD20948006A40F00040074968
:10994000086203E0002005494862086203E0022142
:10995000064800F00AFF00BF21E60000500A002080
:109960001C010020180100204400002000080048CD
:109970000000000000000000681B00202001002003
:109980004C4F47000A5B25735D0000004F70656E09
:1099900020477073204D6F646520506F7765722C7F
:1099A000204E65787420526561642054696D65733A
:1099B00074616D703A2025642C204E6F77205469B5
:1099C0006D657374616D703A202564005761697428
:1099D00020477073204D6F646520526573756C74F9
:1099E0003A2025640000000021010020220100200F
:1099F000B89E01080000000080842E412DE9F0414E
:109A000004460F4600BF3C480078012802D10220DE
:109A1000BDE8F08101203849087000BF4CF2503099
:109A2000FFF720FB0646002E5ED1334948603348DD
:109A3000006800F4007090B13048006800F4806065
:109A400048B12E48006820F480602C49086003204B
:109A50002949087715E001202749087711E02748B0
:109A6000006800F4806048B12448006820F48060F9
:109A70002249086002202049087702E000201E49A0
:109A80000877206801280ED16068FEF799FD4CF236
:109A90005030FFF7E7FA06461848406920F0040006
:109AA000164948611EE04FF0FF303860A56813E0AA
:109AB00028466168FEF71EFF4CF25030FFF7D2FADD
:109AC00006460E48406940F2FA3188430B49486126
:109AD0000EB13D6005E06D1CD4E902010844A842C6
