:020000040800F2
:10000000B8140020D9000008A534000825230008F2
:1000100000000000000000000000000000000000E0
:10002000000000000000000000000000F53500089E
:100030000000000000000000A9340008F7350008A7
:10004000EB000008EB000008EB000008EB000008E4
:10005000EB00000851220008EB0000089122000884
:1000600000000000EB000008EB000008EB000008B7
:10007000EB000008EB00000800000000EB000008A7
:1000800000000000813900080000000000000000AE
:10009000EB00000800000000EB000008EB00000887
:1000A000EB000008EB000008EB000008793A0008BC
:1000B000CD3A0008ED2B0008000000000000000011
:1000C0000448854600F084FA004800471D4D0008AA
:1000D000C046C046B8140020044880470448004782
:1000E000FEE7FEE7FEE7FEE7FEE7FEE70D38000865
:1000F000C100000830B50B46014600202022012433
:1001000009E00D46D5409D4205D31D469540491B4B
:100110002546954040191546521E002DF1DC30BD94
:10012000F0B51FB40646002082B005464024019178
:1001300000901BE0019922460F46304600F06FF810
:10014000049A059B801A994110D3104619462246FD
:1001500000F055F8361A8F41019722460120002100
:10016000009F00F04CF838184D4100902046641E66
:100170000028DFDC019B00982946324607B0F0BD1D
:1001800003460B439B0703D009E008C9121F08C0B0
:10019000042AFAD203E00B780370401C491C521E5B
:1001A000F9D27047D2B201E00270401C491EFBD266
:1001B00070470022F6E710B513460A460446194672
:1001C000FFF7F0FF204610BD30B505462A460B4626
:1001D00010781C78521C5B1C002801D0A042F7D07C
:1001E000002C03D0002802D06D1CEFE7284630BD5C
:1001F000421C0178401C0029FBD1801A704710B5C1
:10020000202A04DB0146203A9140002010BD914095
:1002100020239C1A0346E3401943904010BD10B5BB
:10022000202A04DB0846203AD040002110BD0B46AE
:10023000D340D0402024A21A91400843194610BD53
:10024000F0B507460846584087B0C00F04904800F4
:100250000E46590040084908BC1A884105D2384664
:1002600031461E4617460B460246580040081043CA
:100270004DD0300D039040055900400D490D0590BB
:10028000401A0290402873DA18030121000B090577
:100290000843019004980092002806D01146019A64
:1002A00049420020904100910190029840210A1A91
:1002B00001990098FFF7A3FF05460C466B4607CB54
:1002C00000F098F9C0197141039A0E0D0023D71759
:1002D00056401A467A40164344D0049A002A2DD03C
:1002E000029A012A039A15DC1205C01A91410126CF
:1002F0003605001C7141D20F059ED2070093019272
:1003000002962A46234600F095F907B0F0BD38461C
:100310003146FAE71605234A0F46B218C01AB7410C
:1003200001210905001C4F4100187F411146181892
:100330007941E20F10436D19644113E0E2076D0843
:1003400015436408C2071443039A01261205C01A14
:1003500091413605001C7141CE07400830434908E1
:10036000C01851412A46234600F057F9CDE7FFE770
:10037000049801224000C117121A00238B410498EF
:100380003146C417381AA141EEE730B40124E4071E
:10039000634030BC54E730B40124E407614030BC12
:1003A0004EE700000000E0FFF0B51FB488B00B99E5
:1003B0000998002448400999C00F4900490809914B
:1003C000C0070B990090490049080B9109990898BA
:1003D000A64608431CD00B990A98084318D00998E0
:1003E00001244000420D4800410D099824050003F6
:1003F000000B204309900B980003000B20430B9047
:1004000050181C494018002201901446104605E07F
:10041000002001460DB0F0BD032801DA034600E0DC
:1004200003239C46C11A0AAE0AE05F0008ADED5BEB
:100430004F00F75B7D430027AA187C41491C5B1ED7
:100440006145F2DD410004AB5A522104120C0A430B
:10045000240C401C0828DFDB0198029000997046AC
:1004600001910090059B049A0799069800F0E2F824
:10047000D0E700000DFCFFFFF0B50C465C4085B0F6
:10048000E40FE40703944C000026640859009446E6
:10049000490802460296224321D062460A431ED0F2
:1004A0006200570D4A000E032303550D0124024636
:1004B0002C492405781B1B0B360B4018234326437D
:1004C000614600901C46501AB44103D30098401C6A
:1004D000009002E0921800985B41002803DA0020A7
:1004E000014605B0F0BD00200121090507468646FA
:1004F00011E064461D46141BB54106D36546521BE8
:10050000B341744607430C43A646CD07400849084B
:10051000284392185B4105460D43EAD11046184323
:1005200013D06046194650407140084306D06046DB
:10053000101AB34106D20122002306E00022012353
:10054000DB0702E00122D2435310009874460105F4
:10055000381C6141029C039D0019694100F05DF85F
:10056000BFE70000FD0300004A0009030123090B57
:100570001B0519430A4B10B5520D9A4202DA0020AE
:10058000014610BD064B34339A4203DC9A1AFFF73A
:1005900046FE10BD034BD218FFF731FE10BD000020
:1005A000FF030000CDFBFFFF10B5002904DB012491
:1005B000E40740428C412146002B04DB1C4601230A
:1005C000DB075242A341994200D1904210BD000086
:1005D000064C0125064E05E0E36807CC2B430C3C96
:1005E00098471034B442F7D3FFF76EFDC4520008A9
:1005F000E452000810B5202A06DBCB170846203A43
:100600001041C1170B4306E00B461341D040202494
:10061000A21A91400843194610BD10B5002B08DA04
:100620000024401C614192185B411A4301D14008EB
:10063000400010BDF0B51FB482B005460C0003D0D9
:10064000084603F0AFFA02E003F0ACFA20300246AD
:10065000009021462846FFF7D2FD049B059A0446E8
:100660000F4618431143084314D0184610431BD0BB
:10067000009840210A1A18460599FFF7D0FD054653
:100680000E46009A05990498FFF7B9FD084305D076
:10069000012004E02046394607B0F0BD0020C11714
:1006A00005430E432C43374300990E986305401AC7
:1006B0007905E40A00220C43FD0A0A3002D5002025
:1006C0000146E9E70105101969410C9C0D9D0019CF
:1006D0006941FFF7A2FFDFE7F7B582B00E46144687
:1006E00000276420019004F077F9002806D134A196
:1006F00035A001F019FE36A001F016FEC8213A48D7
:10070000FFF757FD00213848B230C182029802F04D
:100710005FFE36A002F05CFE334D35A12046FFF7A8
:1007200053FD002805D135A12046FFF74DFD0028D7
:1007300000D0ED1D33E022A12846FFF745FD00283B
:100740000AD01FA120A001F0EFFD2FA0029901F017
:10075000EBFD002005B0F0BD31A12846FFF734FDC8
:10076000002809D016A118A001F0DEFD2FA00299E3
:1007700001F0DAFD0020EDE701987843B04209DD91
:1007800031A111A001F0D0FD31A0029901F0CCFD02
:100790000220DFE7019802F015FE781C87B221469F
:1007A0002846FFF711FD0028C5D030A106A001F0B2
:1007B000BBFD2FA0029901F0B7FD0120CAE70000A0
:1007C0004552524F520000000A5B25735D00000045
:1007D0004C6F526157414E205374617475732045BC
:1007E00052524F45210000003E0100200D00000044
:1007F0002B4C494E4B20494E464F3A002B52544306
:1008000020494E464F3A0000222573222061742071
:10081000636D642065786563206572726F72000095
:10082000424144205041524D0000000022257322D5
:1008300020617420636D6420657865632062616463
:10084000207061726D0000005741524E00000000A0
:100850002225732220617420636D642065786563AE
:100860002074696D656F7574000000004C4F47007F
:100870002225732220617420636D6420657865638E
:1008800020737563636573730000000010B586B054
:1008900000243AE01FA2204920A0FFF71DFF0128F5
:1008A0002DD121A121A001F03FFD224922A001F07C
:1008B0003BFD10231F4A0E320821204803F038FF69
:1008C00019A11AA001F030FD1C480B38817C427C34
:1008D000007C1A4B0B3BDB7B01930392049102904B
:1008E00016480B38807B009014480B38437B027B02
:1008F000C17A13A001F018FD012006B010BD601CE4
:1009000084B27D20C00002F05DFD032CC2DB00201C
:10091000F3E700000D0A0000DC05000061742B61A4
:1009200070706575693D3F004C4F47000A5B257349
:100930005D0000003E01002025730000670C0020D0
:100940004150504555493A202530327820253032E3
:1009500078202530327820253032782025303278C2
:10096000202530327820253032782025303278002A
:1009700010B58EB0002456E02DA22E492EA0FFF710
:10098000ABFE012849D133A133A001F0CDFC34499D
:1009900034A001F0C9FC2023314A0E321021324824
:1009A00003F0C6FE2BA12CA001F0BEFC2E48C17B9B
:1009B000807B2D4A527B2C4B133BDB7F09930A92A1
:1009C0000C910B9028481338807F274913394A7FB0
:1009D000097F254B133BDB7E059307920691089018
:1009E00021481338817E407E1F4A133A127E1E4BE7
:1009F000133BDB7D01930292049103901A48133854
:100A0000807D009018481338437D027DC17C1748D3
:100A100001F08AFC01200EB010BD601C84B27D2064
:100A2000C00002F0CFFC032CA6DB0020F3E700009F
:100A30000D0A0000DC05000061742B6170706B65AD
:100A4000793D3F7777772E6C616E7665652E636FA3
:100A50006D0000004C4F47000A5B25735D000000ED
:100A60003E010020257300006F0C0020D4510008C7
:100A700010B5002416E00DA20D490EA0FFF72CFEC4
:100A8000012809D10EA10FA001F04EFC0F4910A0C2
:100A900001F04AFC012010BD601C84B27D20C00022
:100AA00002F090FC032CE6DB0020F4E70D0A0000C6
:100AB000DC05000061742B62616E643D3F00000044
:100AC0004C4F47000A5B25735D0000003E0100208B
:100AD0002573000010B5002416E00DA20D490EA0EC
:100AE000FFF7FAFD012809D10DA10EA001F01CFCB1
:100AF0000E490FA001F018FC012010BD601C84B24B
:100B00007D20C00002F05EFC032CE6DB0020F4E751
:100B10000D0A0000DC05000061742B63683D3F0096
:100B20004C4F47000A5B25735D0000003E0100202A
:100B30002573000010B5002416E00DA20D490EA08B
:100B4000FFF7CAFD012809D10EA10FA001F0ECFBAF
:100B50000F4910A001F0E8FB012010BD601C84B219
:100B60007D20C00002F02EFC032CE6DB0020F4E721
:100B70000D0A0000DC05000061742B636C61737367
:100B80003D3F00004C4F47000A5B25735D000000AD
:100B90003E0100202573000038B500242CE018A287
:100BA000184919A0FFF798FD01281FD11AA11BA011
:100BB00001F0BAFB1B491CA001F0B6FB0823194A3F
:100BC0000F320421194803F0B3FD13A113A001F063
:100BD000ABFB1648C0780090144883784278C01E5A
:100BE000C17813A001F0A0FB012038BD601C84B2C5
:100BF0007D20C00002F0E6FB032CD0DB0020F4E7F0
:100C00000D0A0000DC05000061742B6465766164E8
:100C100064723D3F000000004C4F47000A5B2573A3
:100C20005D0000003E010020257300007F0C0020C5
:100C3000444556414444523A2025303278202530EC
:100C400032782025303278202530327800000000BC
:100C500010B586B000243AE01FA2204920A0FFF77B
:100C60003BFD01282DD121A121A001F05DFB2249EE
:100C700022A001F059FB10231F4A0E320821204800
:100C800003F056FD19A11AA001F04EFB1C48C01E2E
:100C9000817A427A007A1A4BDB1EDB790193039248
:100CA000049102901648C01E807900901448C01E1E
:100CB00043790279C17813A001F036FB012006B018
:100CC00010BD601C84B27D20C00002F07BFB032CB1
:100CD000C2DB0020F3E700000D0A0000DC05000085
:100CE00061742B6465766575693D3F004C4F470024
:100CF0000A5B25735D0000003E01002025730000A3
:100D00005F0C00204465764555493A2025303278FD
:100D10002025303278202530327820253032782056
:100D20002530327820253032782025303278202541
:100D30003032780010B5002416E00DA20D490EA047
:100D4000FFF7CAFC012809D10DA10EA001F0ECFAB1
:100D50000E490FA001F0E8FA012010BD601C84B21A
:100D60007D20C00002F02EFB032CE6DB0020F4E720
:100D70000D0A0000DC05000061742B64723D3F0029
:100D80004C4F47000A5B25735D0000003E010020C8
:100D90002573000010B5002416E00DA20D490EA029
:100DA000FFF79AFC012809D10EA10FA001F0BCFAAF
:100DB0000F4910A001F0B8FA012010BD601C84B2E8
:100DC0007D20C00002F0FEFA032CE6DB0020F4E7F1
:100DD0000D0A0000DC05000061742B6972713D3F53
:100DE000000000004C4F47000A5B25735D000000C7
:100DF0003E0100202573000010B500241CE010A265
:100E0000104911A0FFF768FC01280FD111A112A011
:100E100001F08AFA124913A001F086FA12A11048D3
:100E2000FFF7D2F9002801D0012010BD601C84B268
:100E3000FF20F53002F0C6FA032CE0DB0020F4E7D7
:100E40000D0A0000DC05000061742B6A6F696E3DBD
:100E50003F0000004C4F47000A5B25735D00000017
:100E60003E010020257300002C6A6F696E65642CBA
:100E70000000000010B50CA20C490DA0FFF72CFCDF
:100E800001280FD10DA10EA001F04EFA0E490FA0BE
:100E900001F04AFA0EA10C48FFF796F9002801D09C
:100EA000012010BD0020FCE70D0A0000DC05000059
:100EB00061742B6A6F696E3D3F0000004C4F470024
:100EC0000A5B25735D0000003E01002025730000D1
:100ED0002C6A6F696E65642C0000000010B5002458
:100EE00016E00DA20D490EA0FFF7F6FB012809D16F
:100EF0000EA10FA001F018FA0F4910A001F014FA8A
:100F0000012010BD601C84B27D20C00002F05AFA9E
:100F1000032CE6DB0020F4E70D0A0000DC050000EE
:100F200061742B6C706370696E3D3F004C4F4700DD
:100F30000A5B25735D0000003E0100202573000060
:100F400010B5002416E00DA20D490EA0FFF7C4FB5A
:100F5000012809D10FA110A001F0E6F9104911A054
:100F600001F0E2F9012010BD601C84B27D20C000B8
:100F700002F028FA032CE6DB0020F4E70D0A00005B
:100F8000DC05000061742B6D61636D6F64653D3F2E
:100F9000000000004C4F47000A5B25735D00000015
:100FA0003E0100202573000010B5002416E00DA2BC
:100FB0000D490EA0FFF790FB012809D10FA110A049
:100FC00001F0B2F9104911A001F0AEF9012010BDF5
:100FD000601C84B27D20C00002F0F4F9032CE6DB33
:100FE0000020F4E70D0A0000DC05000061742B749A
:100FF00072616E7366706F72743D3F004C4F4700B4
:101000000A5B25735D0000003E010020257300008F
:1010100010B5002416E00DA20D490EA0FFF75CFBF1
:10102000012809D10EA10FA001F07EF90F4910A0EF
:1010300001F07AF9012010BD601C84B27D20C0004F
:1010400002F0C0F9032CE6DB0020F4E70D0A0000F3
:10105000DC05000061742B7061726D3D3F00000083
:101060004C4F47000A5B25735D0000003E010020E5
:101070002573000010B5002416E00DA20D490EA046
:10108000FFF72AFB012809D10EA10FA001F04CF9AE
:101090000F4910A001F048F9012010BD601C84B276
:1010A0007D20C00002F08EF9032CE6DB0020F4E77F
:1010B0000D0A0000DC05000061742B7278323D3FA0
:1010C000000000004C4F47000A5B25735D000000E4
:1010D0003E0100202573000010B5002416E00DA28B
:1010E0000D490EA0FFF7F8FA012809D10EA10FA0B3
:1010F00001F01AF90F4910A001F016F9012010BDF6
:10110000601C84B27D20C00002F05CF9032CE6DB99
:101110000020F4E70D0A0000DC05000061742B726A
:1011200078313D3F000000004C4F47000A5B2573BB
:101130005D0000003E0100202573000010B5002472
:1011400016E00DA20D490EA0FFF7C6FA012809D13D
:101150000FA110A001F0E8F8104911A001F0E4F887
:10116000012010BD601C84B27D20C00002F02AF96D
:10117000032CE6DB0020F4E70D0A0000DC0500008C
:1011800061742B727863686578743D3F00000000DD
:101190004C4F47000A5B25735D0000003E010020B4
:1011A0002573000010B5002416E00DA20D490EA015
:1011B000FFF792FA012809D10EA10FA001F0B4F8AF
:1011C0000F4910A001F0B0F8012010BD601C84B2DE
:1011D0007D20C00002F0F6F8032CE6DB0020F4E7E7
:1011E0000D0A0000DC05000061742B736C656570EE
:1011F0003D3F00004C4F47000A5B25735D00000037
:101200003E0100202573000010B5002416E00DA259
:101210000D490EA0FFF760FA012809D10EA10FA019
:1012200001F082F80F4910A001F07EF8012010BDF6
:10123000601C84B27D20C00002F0C4F8032CE6DB01
:101240000020F4E70D0A0000DC05000061742B7635
:1012500065723D3F000000004C4F47000A5B25735C
:101260005D0000003E0100202573000010B5002441
:1012700014E00CA20C490DA0FFF72EFA012807D1AB
:101280000D480078400840000B490870012010BD4F
:10129000601C84B27D20C00002F094F8032CE8DBCF
:1012A0000020F4E76F6B0000DC05000061742B7216
:1012B00065626F6F740000005C0C002010B50024A4
:1012C00014E00CA20C490DA0FFF706FA012807D183
:1012D0000C480078400840000A490870012010BD01
:1012E000601C84B27D20C00002F06CF8032CE8DBA7
:1012F0000020F4E76F6B0000DC05000061742B64D4
:10130000656600005C0C00203EB50446002510A276
:1013100007CA6B4607C3012C07D10020009001903B
:1013200002900EA1684602F017FC0DE00EA20F49D4
:101330006846FFF7D1F9012800D13EBD681C85B28F
:101340007D20C00002F03EF8032DEFDB0020F4E723
:1013500061742B6164723D6F6666000061742B617D
:1013600064723D6F6E0000006F6B0000DC050000D2
:1013700010B58EB000241C2218A107A8FEF700FFAC
:101380001D48807C1C49497C1B4A127C1A4BDB7B24
:1013900002930392049105901748807B1649497B7C
:1013A000009101901448037BC27A14A107A802F0AF
:1013B000D3FB0EE01CA21D4907A8FFF78DF90128F9
:1013C00001D10EB010BD601C84B27D20C00001F0C0
:1013D000F9FF032CEEDB0020F3E7000061742B61C2
:1013E00070706575693D464646464645303030303A
:1013F00030303030303100005C0C002061742B61E3
:1014000070706575693D2530327825303278253029
:1014100032782530327825303278253032782530D0
:1014200032782530327800006F6B0000DC05000058
:1014300010B59AB000242C2227A10FA8FEF7A0FE19
:101440003048C07B2F49897B2E4A527B2D4B133B62
:10145000DB7F0A930B920C910D902A481338827F00
:10146000417F007F274B133BDB7E069307AB07C30F
:1014700024481338807E23491339497E214A133A80
:10148000127E204B133BDB7D029303920491059067
:101490001C481338807D1B491339497D0091019008
:1014A00018481338037DC27C17490FA802F054FB7B
:1014B0000EE016A216490FA8FFF70EF9012801D178
:1014C0001AB010BD601C84B27D20C00001F07AFF0C
:1014D000032CEEDB0020F3E761742B6170706B6509
:1014E000793D324237453135313632384145443223
:1014F0004136414246373135383830394346344633
:10150000334300006F0C00202C5200086F6B00006A
:10151000DC05000008B505A00068009004A2FF21CA
:10152000F5316846FFF7D8F8012008BD2B2B2B00BA
:101530000D0A00001CB514A103C9019100900024FC
:101540001EE013A213496846FFF7C6F8012811D11F
:1015500011A112A000F0E8FE124913A000F0E4FE71
:10156000C8211048FEF725FE00210E48B230C18286
:1015700001201CBD601C84B27D20C00001F022FF50
:10158000032CDEDB0120F4E761742B6578697400BD
:101590000D0A0000DC0500004C4F47000A5B257374
:1015A0005D0000003E0100202573000030B585B0CD
:1015B0000446002514216846FEF7FBFD234611A2D0
:1015C0001421684602F0ACFA17E011A211496846EE
:1015D000FFF782F801280AD10FA110A000F0A4FEA5
:1015E00010490AA000F0A0FE012005B030BD681C23
:1015F00085B27D20C00001F0E5FE032DE5DB002073
:10160000F3E7000061742B62616E643D2573000096
:101610006F6B0000DC0500004C4F47000A5B257330
:101620005D0000003E01002030B589B00446002571
:1016300024220EA16846FEF7A3FD224614A16846A7
:1016400002F08AFA0EE019A219496846FFF744F839
:10165000012801D109B030BD681C85B27D20C000D1
:1016600001F0B0FE032DEEDB0020F3E761742B6385
:10167000683D6D63682C3437303330303030302C77
:101680003230303030302C382C302C350000000017
:1016900061742B63683D6D63682C25642C32303097
:1016A0003030302C382C302C350000006F6B0000AF
:1016B000C40900003EB50446002515A207CA6B46C2
:1016C00007C3002C04D112A1684602F045FA0CE0D1
:1016D000012C04D111A1684602F03EFA05E0022C6B
:1016E00003D111A1684602F037FA0DE011A21249A8
:1016F0006846FEF7F1FF012800D13EBD681C85B2A7
:101700007D20C00001F05EFE032DEFDB0020F4E73A
:1017100061742B636C6173733D61000061742B63B2
:101720006C6173733D62000061742B636C61737351
:101730003D6300006F6B0000DC0500007CB50446D3
:1017400000250EA103C90191009022460DA1684613
:1017500002F002FA0DE00EA20E496846FEF7BCFF49
:10176000012800D17CBD681C85B27D20C00001F03D
:1017700029FE032DEFDB0020F4E7000061742B64E9
:10178000723D300061742B64723D256400000000DE
:101790006F6B0000DC0500001FB500240CA30FCB0D
:1017A00003936B4607C30EE00DA20E496846FEF791
:1017B00093FF012801D104B010BD601C84B27D20CC
:1017C000C00001F0FFFD032CEEDB0020F3E700007A
:1017D00061742B6972713D726973652C353000003C
:1017E0006F6B0000DC0500007FB5044600250FA3E9
:1017F0000FCB6E460FC6002C03D010A1684602F036
:10180000ABF90EE011A212496846FEF765FF012808
:1018100001D104B070BD681C85B27D20C00001F00C
:10182000D1FD032DEEDB0020F3E7000061742B6A8D
:101830006F696E3D6F7461612C31300061742B6390
:101840006C6173733D6162702C3130006F6B00000E
:10185000DC0500007FB5044600250FA30FCB6E46C4
:101860000FC6002C03D010A1684602F075F90EE0F7
:1018700011A212496846FEF72FFF012801D104B0DA
:1018800070BD681C85B27D20C00001F09BFD032D5A
:10189000EEDB0020F3E7000061742B6A6F696E3D98
:1018A0006F7461612C30000061742B636C61737321
:1018B0003D6162702C3000006F6B0000DC050000A1
:1018C00010B5002416E00DA20D490EA0FEF704FF8E
:1018D000012809D10FA110A000F026FD104911A088
:1018E00000F022FD012010BD601C84B27D20C000EC
:1018F00001F068FD032CE6DB0020F4E70D0A000090
:10190000DC05000061742B6A6F696E6164723D6F63
:10191000666600004C4F47000A5B25735D000000BF
:101920003E0100202573000010B500240DE009A23F
:1019300009490AA0FEF7D0FE012800D110BD601CA5
:1019400084B27D20C00001F03DFD032CEFDB0020C0
:10195000F4E700006F6B0000DC05000061742B6D84
:101960006F64653D6D61630030B585B00446002548
:1019700014220EA16846FEF703FC224610A1684619
:1019800002F0EAF80EE013A213496846FEF7A4FE3F
:10199000012801D105B030BD681C85B27D20C00092
:1019A00001F010FD032DEEDB0020F3E761742B74D2
:1019B00072616E7366706F72743D313000000000AA
:1019C00061742B7472616E7366706F72743D2564FE
:1019D000000000006F6B0000DC05000070B586B0F1
:1019E00004460D46002614220EA101A8FEF7C8FBEE
:1019F0002B46224610A101A802F0AEF80EE012A27A
:101A0000124901A8FEF768FE012801D106B070BD99
:101A1000701C86B27D20C00001F0D4FC032EEEDBEA
:101A20000020F3E761742B7278323D302C38363960
:101A3000353235303030000061742B7278323D25FC
:101A4000642C2564000000006F6B0000DC050000C2
:101A500010B586B0002418220BA16846FEF790FB53
:101A60000EE00FA20F496846FEF736FE012801D1AD
:101A700006B010BD601C84B27D20C00001F0A2FC45
:101A8000032CEEDB0020F3E761742B727870726C2C
:101A9000656E3D6175746F2C31353030000000008B
:101AA0006F6B0000DC05000010B588B00024202218
:101AB0000BA16846FEF764FB0EE011A211496846CF
:101AC000FEF70AFE012801D108B010BD601C84B2E7
:101AD0007D20C00001F076FC032CEEDB0020F3E754
:101AE00061742B736C6565703D6C696768742C312B
:101AF0003530302C6C6576656C2C6C6F770000008F
:101B00006F6B0000DC05000010B518A000F00CFCA5
:101B100026A000F009FC35A000F006FC02221146C8
:101B20003EA000F001FC10224C494D48FEF728FB76
:101B300008224C494A480838FEF722FB04224A4949
:101B400047481030FEF71CFB102248494448143027
:101B5000FEF716FB1022464941482430FEF710FBE1
:101B600001213F482D30017210BD00000A2A2A2AA7
:101B70002A2A2A2A2A2A2A2A2A2A2A2A2A2A2A2AC5
:101B80002A2A2A2A2A2A2A2A2A2A2A2A2A2A2A2AB5
:101B90002A2A2A2A2A2A2A2A2A2A2A2A2A2A2A2AA5
:101BA0002A2A2A2A2A2A2A2A2A0A00002A2A2A2A09
:101BB0002A2A2A2A2A2A2A2A2A2A2A2A2A2A2A2A85
:101BC0002A2A2A2A2A2A2A2A2A2A2A2A2A2A2A2A75
:101BD0002A2A2A2A2A2A2A2A2A2A2A2A2A2A2A2A65
:101BE0002A2A2A2A2A2A2A2A0A0000002A2A2A2AF3
:101BF0002A2A2A2A2A2A2A2A2A2A2A20484B5420F0
:101C00003A20436172204C6F636B202A2A2A2A2AC9
:101C10002A2A2A2A2A2A2A2A2A2A0A002A2A2A2A6E
:101C20002A2A2A2A2048415244574152455F5645A4
:101C3000523A20307825303278202C534F46545772
:101C40004152455F5645523A20307825303278204F
:101C50002A2A2A2A2A2A2A2A0A0000002C000020DE
:101C60006F0C0020240000203C00002040000020D9
:101C70005000002010B58CB0182106A8FEF799FA84
:101C800018216846FEF795FA0120800400F086FBD3
:101C9000022000F021FD012080020090022001902E
:101CA00003200290002003900490042005906946D0
:101CB0003E4800F063FC0120C00200900220019029
:101CC00003200290002003900490042005906946B0
:101CD000364800F053FC00211D2002F031F81D2091
:101CE00001F0AAFF4B20C001069000200790089049
:101CF00009900C200A9000200B9006A92C4800F0B7
:101D00001DFD012040052A498968032212059143DF
:101D10000143274A916000BF00BF00BF00BF02F02F
:101D200087F80446012002F095F821480068202138
:101D300008431F490860204602F08CF800BF00BF2E
:101D400000BF00BF00BF02F073F80446012002F09C
:101D500081F817480068FF210131084314490860E1
:101D6000204602F077F800BF00BF00BF01201049F5
:101D7000086200BF00BF08460068012108430C4903
:101D8000086000BF00BF00BF0948C06901214905C4
:101D90000840400D0028F6D000BF0548C069490042
:101DA0000840800D0028EED00CB010BD000400509B
:101DB0000048004000B589B0002007900890182125
:101DC00001A8FEF7F6F9012000F078FC022000F0EF
:101DD00075FC0520000700F08FFB534800F08CFBDA
:101DE000524800F089FB012002900220039000205D
:101DF000049005900820019001A94B4800F0BEFB1B
:101E0000FF200130019001A9474800F0B7FB0120F5
:101E10004002019001A9444800F0B0FB082142486B
:101E200000F02EFCFF2101313F4800F023FC01218E
:101E300049023D4800F01EFCFF200130019001A93D
:101E40000520000700F09AFB01200003019001A982
:101E50000520000700F092FBFF210131052000075B
:101E600000F00EFC012109030520000700F008FC2A
:101E7000012000030190002002900220059001A99A
:101E8000294800F07BFB01200190059001A9052065
:101E9000000700F073FB0321012000F08DFD0222FA
:101EA000D102214800F0FDFB0022012109031E4858
:101EB00000F0EAFB012000030790012108A801704F
:101EC000002141700121817007A800F0ABFA0021C8
:101ED000084600F071FD012211460520000700F0C0
:101EE000E0FB002201210520000700F0CDFB0120CE
:101EF0000790012108A80170002141700221817022
:101F000007A800F08FFA0121052001F0A1FE0520AD
:101F100001F086FE0121072001F09AFE072001F062
:101F20007FFE09B000BD0000000400500008005012
:101F300000B58FB01C2108A8FEF73BF9182102A8B4
:101F4000FEF737F9012080032C49496B01432B4AE6
:101F500051631146496B0140019100BF00BF012050
:101F600000F0BAFB012040020290022003900320FF
:101F700004900020059006900420079002A90520F7
:101F8000000700F0FBFA012080020290022003907B
:101F90000320049000200590012006900420079063
:101FA00002A90520000700F0E9FA01211B2001F039
:101FB000C7FE1B2001F040FEE120400208900020F7
:101FC00009900A900B900C200C9000200D900E9020
:101FD00008A90B4800F07AFD094800F042FD0848C6
:101FE00000F049FD064800F05EFD054800F048FDA0
:101FF000034800F033FD0FB000BD000000100240A8
:102000000038014000B58DB01C2106A8FEF7D1F8BC
:1020100018216846FEF7CDF80120400400F0BEF913
:10202000012000F059FB04200090022001900320C1
:10203000029000200390049004200590694605203A
:10204000000700F09BFA0820009002200190032076
:10205000029000200390012004900420059069461E
:102060000520000700F08AFA01211C2001F068FE1B
:102070001C2001F0E1FDE1204002069000200790C5
:10208000089009900C200A9000200B900C9006A953
:10209000124800F01BFD114800F0E3FC00BF0F48A0
:1020A00080680121090308430C49886000BF00BF14
:1020B00008468068491488430849886000BF08467C
:1020C00000F0D9FC054800F0EEFC044800F0D8FC14
:1020D000024800F0C3FC0DB000BD00000044004009
:1020E00070B5044608A109A000F01EF9214609A018
:1020F00000F01AF92046FEF77BF885B22946204603
:1021000000F012F870BD00004C4F47000A5B2573C9
:102110005D00000053656E64204254204461746188
:102120003A2025730000000070B500231A460446CB
:102130000FE01546561CB2B2635D0B4DAB6200BF9B
:1021400000BF00BF084BDB6940252B409B09002BDB
:10215000F7D08A42EDDB054BDB880A2B02DA0A2333
:10216000024DEB8070BD000000480040500C002084
:10217000F8B505460E461746294608A000F0D4F8E3
:10218000002404E0315D0AA000F0CEF8641CBC42DB
:10219000F8DB09A000F0C8F8F8BD00000A5561722C
:1021A000742044617461205B25735D3A0000000077
:1021B00020253032780000000A00000010B51D48CC
:1021C0000078C007C00F002833D01B488089002842
:1021D0002FD11A48007800282BD000211648018101
:1021E000C821C038FDF7E5FFFF2101311448FDF794
:1021F000E0FF134C01221349134802F08DFC1148F3
:1022000002782146104802F087FC0C480078401EF6
:102210000A49087002F026FE08480078002807D115
:10222000012189020948FDF7C4FF074802F0D4FCE8
:1022300000BF10BD5C0C0020300100200000002019
:10224000500B002001000020340B00203407002038
:1022500010B5012000F044F9002816D0012000F04C
:10226000ABF80A4800790007C00F002806D00748DD
:10227000007902218843801C044908710348C08802
:102280000A2802DA0A200149C88010BD500C00203B
:1022900010B50120000300F023F9002817D0012019
:1022A000000300F089F80A4800790007C00F0028F1
:1022B00006D00748007904218843001D04490871AD
:1022C0000348C0880A2802DA0A200149C88010BDE4
:1022D000500C002000BF114800680121490208434A
:1022E0000E49086000BF01200968814301430B4A81
:1022F000116000BF0020114609680222914301438A
:10230000064A116000BF00BF054800690421084368
:102310000349086100BF30BF7047000000700040F3
:1023200000ED00E000BFFEE70FB438B504980028C8
:1023300004D00498FDF75CFF002803D138BC08BC2A
:1023400004B0184705A800900748009A049901F0C6
:1023500017FC054600200090034CA9B2204600F06F
:1023600005F800BFEAE700003E050020F8B5044686
:102370000D46002627460CE03046721C96B2395CAA
:10238000054800F031FC00BF034800F01FFC0028A6
:10239000FAD0AE42F0DBF8BD0044004008B5054974
:1023A000896B0143034A91631146896B0140009197
:1023B00000BF08BD0010024001494861704700009D
:1023C00000040140024949688143014A5160704755
:1023D00000040140024909688143014A11607047C5
:1023E00000040140024949680143014A51607047B5
:1023F000000401400249C9680143014AD1607047A5
:1024000000040140024909680143014A1160704714
:1024100000040140024989680143014A9160704704
:102420000004014070B504460025207900284DD0F5
:102430002068002850D06079002804D0012809D0F5
:10244000022815D10DE02068FFF7BCFF2068FFF7D8
:10245000D9FF0FE02068FFF7BDFF2068FFF7C2FF3C
:1024600008E02068FFF7CEFF2068FFF7BBFF01E020
:10247000012500BF00BFA07900282DD0A079012838
:1024800004D002280DD003281DD115E0206813497F
:10249000C9688143114AD16000BF2068FFF7BAFFC5
:1024A00013E020680D49896881430C4A916000BFA0
:1024B0002068FFF79FFF08E02068FFF7ABFF206868
:1024C000FFF798FF01E0012500BF05E02068FFF756
:1024D00081FF2068FFF776FF284670BD00040140A9
:1024E0000146044840690840884201D101207047F4
:1024F0000020FCE70004014070B5044600250520DB
:102500000007844206D1012000F0F4F8012000F019
:10251000F9F828E01548844206D1022000F0EAF8D4
:10252000022000F0EFF81EE01148844206D104209A
:1025300000F0E0F8042000F0E5F814E00D488442D3
:1025400006D1082000F0D6F8082000F0DBF80AE0F9
:102550000948844206D1802000F0CCF8802000F0A9
:10256000D1F800E00125284670BD000000040050AD
:1025700000080050000C0050001C0050F0B502464E
:102580000B46002600216CE00124B440186820406E
:102590000146002964D05868012802D058680228F2
:1025A00016D1986894680D464D436F00ED19AC4301
:1025B0000D464D4345432C43946000BFDC681868CA
:1025C00055688543074667433D43556000BF00BFDC
:1025D0001869D4680D464D436F00ED19AC430D46A4
:1025E0004D4345432C43D46000BF5868022829D18D
:1025F000FF2911D85869146A0D464D434D434D4388
:102600002F017D1BAC430D464D434D434D43454388
:102610002C43146200BF15E05F69080A40430C0AAE
:1026200060430C0A60430401241A506AA0430C0A58
:1026300064430D0A6C430D0A6C437C432043506293
:1026400000BF00BF586814680D464D436F00ED1978
:10265000AC430D464D4345432C43146000BF00BFBF
:10266000761C1868F04000288ED1F0BD02465069F3
:10267000084070478162704781627047816270478D
:10268000816170478161704730B503680C464C43E7
:1026900065006419A3430C464C4354432343036031
:1026A00030BD30B5C3680C464C4365006419A34384
:1026B0000C464C4354432343C36030BD08B5054921
:1026C000C96A0143034AD1621146C96A01400091B7
:1026D00000BF08BD0010024008B50549C96A0143A2
:1026E000034AD1621146C96A0140009100BF08BD8A
:1026F000001002400249C9690143014AD161704793
:10270000001002400249C9698143014AD161704702
:102710000010024070B504467D25ED002946204694
:10272000FDF7E8FC401E044948610020886105204F
:10273000086100BF70BD000000E000E0F0B585B0AA
:1027400004460D460120039000BF2068C007C00F5B
:1027500001214840484000283AD1E96868680843A8
:102760002969084321681C4A114008432060A86871
:1027700061680322120391430143616000BF6869ED
:10278000A168121191430143A16000BF900000F0C5
:1027900027F80746002F1BD02868002818D00020F3
:1027A000039002972E68002E10D0FF21013102986D
:1027B00001F00FFA72080023801859413246019146
:1027C0000090FDF7ADFC05490840E06000BF00BF88
:1027D000039805B0F0BD0000F3E9FFEFFFFF0F0025
:1027E000F8B50446002500BF1948C06820400028FD
:1027F00020D001218902401A04D0401A06D0401A84
:1028000017D10FE000F088FE05461DE000F0A6F8A5
:10281000002806D000F0AAF8002801D00D4D00E0F5
:102820000D4D11E000F0AAF8002801D00125ED03BC
:102830000AE000BF00F070FE074600F037FE0646D3
:1028400000F046FE054600BF00BF2846F8BD000068
:102850004010024000093D000024F40002480069D5
:10286000032109040840704740100240F8B50446AF
:102870000025032C2FD1204600F066F82104401AD1
:102880001ED0012804D0022806D0032817D10FE05B
:1028900000F042FE05461DE000F060F8002806D07A
:1028A00000F064F8002801D0254D00E0254D11E02E
:1028B00000F064F8002801D00125ED030AE000BF14
:1028C00000F02AFE074600F0F1FD064600F012FE79
:1028D000054600BF00BF0C2C2FD1204600F034F875
:1028E0002104401A1ED0042804D0082806D00C2841
:1028F00017D10FE000F010FE05461DE000F02EF8A5
:10290000002806D000F032F8002801D00C4D00E07D
:102910000C4D11E000F032F8002801D00125ED0344
:102920000AE000BF00F0F8FD074600F0BFFD0646D4
:1029300000F0CEFD054600BF00BF2846F8BD0000F0
:1029400000093D000024F40001460348C068084027
:102950000A0410437047000040100240024800681B
:1029600004210840800870470010024002480068B7
:102970001021084000097047001002400348006918
:10298000012149020840400A7047000040100240FF
:102990000248406807214903084070470010024080
:1029A0000449C968020C914382B21143014AD160C3
:1029B000704700004010024010B5084A0B069B0DFE
:1029C000D2580C0C0F23A3409A430C0C0346A3408F
:1029D0001A43024B0C06A40D1A5110BD0800014009
:1029E00001490860704700002000002010B5024631
:1029F000136801208007824205D01648824202D027
:102A00001548824205D118467024A0434C682043E3
:102A1000034601208007824205D00E48824202D040
:102A20000D48824206D1184603242402A043CC68F4
:102A30002043034613608868D06200BF0888906214
:102A400000BF00BF506901242043506100BF002037
:102A500010BD000000080140001401400121016286
:102A6000704741680922D2029143416081682A225D
:102A700091438160704701680122114301607047F2
:102A800070B5044600BF01F0D3F90546012001F0FE
:102A9000E1F92068FF21013108432060284601F058
:102AA000D9F900BF70BD70B5044600BF01F0C0F990
:102AB0000546012001F0CEF920682021084320605E
:102AC000284601F0C7F900BF70BD0000F0B585B021
:102AD00004460D460120049000200390204600F09B
:102AE0007BF8002858D1E9686868084329690843D9
:102AF000A969084321682A4A114008432060A86850
:102B000061680322120391430143616000BF686959
:102B1000A168121191430143A16000BF2148844282
:102B200004D10320FFF7A2FE039006E01E48844272
:102B300003D10C20FFF79AFE0390039800282BD0B6
:102B40002868002828D000200490039FA8690290DC
:102B50002E680121C9030298884214D179007208B5
:102B600088183146FDF7C6FA80B201900F490198E6
:102B70000840009001980007400F0099084300901A
:102B80000098E06006E07108C8193146FDF7B2FA16
:102B900080B2E06000BF00BF049805B0F0BD000047
:102BA000F369FFEF0038014000440040F0FF0000EF
:102BB0000146C869C007C00F01225040504070470D
:102BC0000146C86920221040400970470146C86983
:102BD000402210408009704701460868C007C00FB6
:102BE00001225040504070478162704770B500BF6D
:102BF0004948C069012109050840000D002838D066
:102C000000BF4548806889000840800D002830D00A
:102C100000BF00BF00BF01F00BF90546012001F025
:102C200019F93D4880680121890588433A4988603F
:102C3000284601F00FF900BF00BF00BF01200005CA
:102C40003549086200BF00BF0846406AC4B200BFF1
:102C50003248C08AC8280BDA3048C18AC08A401C72
:102C600082B22E48C282B23844543221B23001833B
:102C700000BF00BF2848C069202108404009002843
:102C800024D000BF2449496AC9B208462349C98AE9
:102C9000C8290BDA2149CA8AC98A491C8BB21F4943
:102CA000CB82B23988543222B2310A831B49C98A95
:102CB00001290AD11949C039897B002905D1174951
:102CC000C98A491E8AB21549CA8200BF00BF12488C
:102CD000C069C007C00F012148404840002805D006
:102CE00000BF01200C49086200BF00BF00BF0A48B6
:102CF000C06908210840C008002805D000BF08208E
:102D00000549086200BF00BF0548C0880A2802DAEA
:102D10000A200349C88070BD004800408A03002093
:102D2000500C002030B593B0B3A207CA10AB07C354
:102D3000B4A103C90F910E90012002F047F902F0EF
:102D400073F8142000F03EFBFEF7E4FBFEF7B6FA42
:102D5000AE4800F037FBFEF7DDFBFDF779FFFEF72D
:102D600053FA0422AA4908461C30FDF709FA10223A
:102D7000A849A7480C30FDF703FA0822A649A44841
:102D8000001DFDF7FDF90422A449A1481C30FDF700
:102D9000F7F91022A2499E482030FDF7F1F91022E0
:102DA000A0499B483030FDF7EBF90020FEF71CFDF1
:102DB000FEF7DEFAFEF73CFB9BA0FEF7F7FB9C4913
:102DC0000220FEF70BFE9A48FEF72EFC0320FEF7CA
:102DD000B5FC0020FEF798FAFEF772FD0220FEF720
:102DE00069FC0A20FEF7C0FDFEF7D6FCFEF75CFE8C
:102DF000FEF72EFEFEF798FDFEF738FA834800F046
:102E0000E1FAFEF787FBFDF741FDFDF7B1FDFDF7A8
:102E1000C3FEFDF78FFEFEF7C7F8FDF78BFFFDF74A
:102E200059FEFEF7BFF9FDF7B5FFFEF723F9FDF7F1
:102E30001FFEFEF753F8FEF74FF9FEF781F8FEF795
:102E40007DF9FEF7E5F8142000F0BCFA002002F04E
:102E5000BDF878A20A2110A800F062FE69A205213F
:102E60000EA800F05DFE76A0FFF75EFA00F0D4FA3F
:102E700004467FA0807930380A2148437CA1C97973
:102E80004018014630397AA0C07830380A225043C1
:102E900077A2127980180246303A75A0007830384F
:102EA0000A23584372A35B78C0180346303B73A0D3
:102EB0000079202801D1002002E070A0007930388C
:102EC0000A2568436DA56D79303D4019059306923A
:102ED0000791049069A0C07930380A21484367A15E
:102EE000097A401830380A21484364A1497A3039B8
:102EF00040180A21484361A1897A3039401862A1FB
:102F00000EAA10AB03940092019102900222114686
:102F10005EA0FFF709FA3E48C01F817A427A007A24
:102F20003B4BDB1FDB7901930392049102903848FD
:102F3000C01F807900903648C01F43790279C1785C
:102F400060A0FFF7F1F932480C30C07B30490C31FA
:102F5000897B2F4A0C32527B2D4BDB1FDB7F099381
:102F60000A920B910C902A48C01F817F407F284A0B
:102F7000D21F127F264BDB1FDB7E05930692089142
:102F800007902348C01F807E2149C91F4A7E097EC1
:102F90001F4BDB1FDB7D01930392029104901C48C1
:102FA000C01F807D00901A48C01F437D027DC17CF8
:102FB0004F48FFF7B9F91648C01F807C1449C91F54
:102FC000497C134AD21F127C114BDB1FDB7B019320
:102FD0000292039104900E48C01F807B00900C4821
:102FE000C01F437B027BC17A42A0FFF79DF914A06A
:102FF000FFF79AF913B030BD41533932335F415373
:10300000320000004F54414100000000B80B0000A6
:10301000630C00202C000020240000203C00002035
:10302000400000205000002061733932330000005E
:1030300000EA063741533932335F41533100000013
:103040000D0A2A2A2A2A2A2A2A2A2A2A2A2A2A2A1D
:103050002A2A2A2A2A2A2A2A2A2A2A2A2A2A2A2AD0
:103060002A2A2A2A2A2A2A2A2A2A0D0A00000000A5
:1030700031353A35393A313100000000536570205E
:103080003237203230323400430000000D0A536FD3
:1030900066745665723A5625642E25645F25735F03
:1030A00025735F436C61737325735F4F435F2564C2
:1030B0002E25642E25645F25643A25643A25640D27
:1030C0000A0000000D0A4465764575693A253032DC
:1030D00078253032782530327825303278253032F4
:1030E000782530327825303278253032780D0A0054
:1030F000785200080D0A4170704575693A253032E2
:1031000078253032782530327825303278253032C3
:10311000782530327825303278253032780D0A0023
:1031200010B501F067FC7D490968884200D210BDE6
:1031300001F060FC7D21C90040187849086078489A
:10314000007A030000F05DFD05041D3A6C88E6007E
:103150007448006874490968884211D87048007A38
:1031600000280DD16E48C079022809D101216C4890
:1031700001726E48C088962802DA96206B49C88092
:10318000C9E0674840380078400840006449403949
:103190000870012001F01AFFFEF7BCF90020FEF7CD
:1031A00023FB63A000F014F9142000F00BF90020B9
:1031B0006249088002215A480172ACE0FDF75AFECC
:1031C000002805D0032156480172FEF7B3F926E026
:1031D0005A480088401C5949088059A159A0FFF756
:1031E000A3F85648018859A0FFF79EF85348008875
:1031F000782814DB0020514908805CA151A0FFF71A
:1032000093F85CA0FFF790F802214548C1710421B2
:1032100001720A204549C8800020FEF71BFB7AE0B6
:103220003F484038007840084000401C3C49403945
:10323000087000205749087040490880002138482C
:103240000172C1710A203949C880534953488181AC
:10325000002001F0BBFE5EE00A203449C880002156
:103260002F4801720221C1712E4800682E49096859
:1032700088424BD847480078401C464908700846A9
:103280000078052801DD0520087042480078030019
:1032900000F0B7FC062B040C141C242B22480068F9
:1032A000E121C90040181F49086025E01E48006858
:1032B000E121090140181B4908601DE01A48006817
:1032C000E121490140181749086015E016480068D7
:1032D000E121C9014018134908600DE01248006857
:1032E0002F4940180F49086006E00F4800682C4934
:1032F00040180C49086000BF00BF11A111A0FFF7E2
:1033000013F80848016827A0FFF70EF8002001F025
:103310005DFE00E000BF00BF00BF08E768000020BE
:103320009C0C00206400002014000020500C0020A1
:1033300061742B6A6F696E0D000000006C00002044
:103340004C4F47000A5B25735D0000004C6F5261D3
:1033500057414E205761697420456E74657220494B
:103360006E204E6574202564000000005741524EC7
:10337000000000004C6F526157414E20456E74654D
:103380007220496E204E65742054696D656F7574A6
:1033900021000000600000207017000030010020B4
:1033A00080510100557064617465205265636F6ED1
:1033B0006E6563742054696D657374616D703A2035
:1033C000256C640010B50446A0B201F09BFC10BD52
:1033D00070B504462046FCF70BFF85B2294620460F
:1033E00000F002F870BD0000F8B504460D46002656
:1033F00027460CE03046721C96B2395C0548FFF750
:10340000F3FB00BF0348FFF7E1FB0028FAD0AE4210
:10341000F0DBF8BD003801401FA1897870292ED05B
:103420000CDC672929D004DC622918D063292ED14D
:103430002BE06C291FD06E2929D108E0722910D009
:1034400074291ED076291ED0792920D111E012A12D
:103450004978612901D1012000E0062019E002200D
:1034600017E00DA14978612901D1032000E0042073
:103470000FE005200DE007200BE0082009E00920FF
:1034800007E00A2005E00B2003E00C2001E000200B
:1034900000BF00BF704700005365702032372032F4
:1034A0003032340000BFFEE770470000014600BF25
:1034B0000548C068F022104010400009034A125C21
:1034C0000846D0407047000000100240B05100088C
:1034D000014600BF0548C068072212021040000ADA
:1034E000034A125C0846D0407047000000100240BA
:1034F000C0510008014600BF0548C0680722D2023B
:103500001040C00A034A125C0846D04070470000D1
:1035100000100240C051000810B500BF1648C06836
:103520000C210840002806D004280CD0082812D00E
:103530000C2816D111E0FFF72BFA400B401C01219B
:103540008140CC0315E0FFF711FA002801D00B4CA5
:1035500000E00B4C0DE00B4C0BE000F015F80446BE
:1035600007E0FFF715FA400B401C01218140CC0316
:1035700000BF00BF204610BD0010024000093D0002
:103580000024F40000127A00F8B500BF1448C068A7
:103590000121090408400546002D07D1FFF7E6F98F
:1035A000002801D00F4C00E00F4C01E00F4C00BF91
:1035B00000BF00BF0A48C068032189050840800D8C
:1035C000461C0748C0680F2189040840800C084940
:1035D000085C604307463146FCF78CFDF8BD0000EF
:1035E0000010024000093D000024F40000127A009F
:1035F000C85100087047704708B501207F49496BE2
:1036000001437E4A51631146496B0140009100BF5E
:1036100000BF00071146896B014391631146896B16
:103620000140009100BF00BF012075490968814336
:103630000143734A116000BF00BF00BF70480068BB
:10364000C007C00F0028F8D0012000036D490968A9
:103650000322D202914301436A4A116000BF00BFB6
:1036600066480068012108436449086000BF00BF44
:1036700000BF624800680421084080080028F7D095
:1036800010205E4949681F22120291430202114331
:103690005A4A516000BF00BF5A480068911508435C
:1036A0005849086000BFFFF7D9F801210904884292
:1036B00014D000BF514840300069C90008434F4949
:1036C0004031086100BF00BF084600690121C904FC
:1036D00088434A494031086100BF00BF0020474984
:1036E000403109690322D20291430143434A4032E7
:1036F000116100BF00BF10460069911508431146D3
:10370000086100BF00BF00BF3C4840300069012194
:1037100049020840400A0028F5D0FFF79FF8012130
:10372000090488420CD00846344940310969032213
:10373000120491430143314A4032116100BF00BF7E
:1037400000BF2E480068082108432C49086000BFCC
:103750000020C968F02291430143284AD16000BF8C
:1037600000BF1146C9680722120291430143234A50
:10377000D16000BF00BF1146C9680722D202914341
:1037800001431E4AD16000BF01201146C968890863
:1037900089000143D16000BF00BF00BF1748C06867
:1037A0000C2108400428F8D11748FEF7B3FF16484B
:1037B000FFF716F90321081F00F0FEFA03200004AA
:1037C000FFF7EEF803208004FFF7EAF803208002F9
:1037D0000A494031C968024691430143074A4032D1
:1037E000D16000BF0120C0030449C968024691436B
:1037F0000143024AD16000BF08BD00000010024032
:10380000002002400070004000093D0070470000A9
:1038100010B54E480068401C4C4908604C48008870
:10382000401C4B4908804B480068401C49490860CF
:1038300049480068401C484908604848008B0028F7
:1038400005D04648008B401E81B24448018344485D
:10385000008B002805D04248008B401E81B24048B2
:1038600001833F48C0388089002807D03C48C038D1
:103870008089401E81B23A48C03881813948008B26
:10388000002805D03748008B401E81B2354801839F
:103890003448C0388089002807D03248C038808931
:1038A000401E81B22F48C03881812B4800687D219D
:1038B000C900884207D30020274908602A480068C9
:1038C000401C29490860214800687D21C9008842C0
:1038D00010D300201D4908602448C088002804D067
:1038E0002248C088401E2149C88021480068401CE9
:1038F0001F4908601F480078C007C00F002820D16A
:103900001D4801880088401C1B4A1080FF20F530AC
:10391000814204D108201949886100BF15E016488A
:1039200001880088401C144A10807D20C00081421C
:103930000BD100201146088008211048FEF79CFE9C
:1039400003E008210D48FEF797FE10BD1800002087
:1039500010000020040000200C000020240500209E
:10396000F00100208A03002008000020500C0020F5
:10397000140000205C0C00201C00002000040050FB
:1039800010B500BF08480069C007C00F01214840BA
:103990004840002806D000BFC81E0349086100BF88
:1039A000FFF736FF10BD00000010004030B585B0B5
:1039B00004460D46002001900290039004901020D0
:1039C0002A49896B0143294A91631146896B014059
:1039D000009100BF00BF0021112000F075F91120F7
:1039E000002805DBC206D20E01219140204A116059
:1039F00000BF681E6946888000200290601E039008
:103A000001A91C48FEF7F2FF00BF1A480068802198
:103A100008431849086000BF00204968702291439C
:103A20000143144A516000BF00BF104680688021E6
:103A300088431146886000BF00BF08460068012126
:103A400008431146086000BF00BF08460068022115
:103A500088431146086000BF00BF0846C0680121C6
:103A600008431146C86000BF05B030BD00100240D9
:103A700000E100E00010004010B51248FFF7A0F888
:103A8000002815D000BF0F49496AC9B208460E493F
:103A9000C98AC8290BDA0C49CA8AC98A491C8BB25F
:103AA0000949CB82B23988541422B2310A8300BF4B
:103AB0000448FFF77DF8002802D00248FEF7CEFF49
:103AC00010BD000000380140F001002010B5124880
:103AD000FFF776F8002815D000BF0F49496AC9B230
:103AE00008460E49C98AC8290BDA0C49CA8AC98A0C
:103AF000491C8BB20949CB82B23988541422B231A5
:103B00000A8300BF0448FFF753F8002802D0024898
:103B1000FEF7A4FF10BD0000004400402405002073
:103B20000FB47CB50C0009AD01D0611E00E000218E
:103B300001910090074B6A462946089800F04AFA1E
:103B4000002C02D0009A002111707CBC08BC04B08B
:103B500018470000114700080FB410B504A9074B1F
:103B600002AA039800F036FA044602A9002000F0E9
:103B7000DAFD204610BC08BC04B0184727470008EF
:103B800037B514460846064B6A46214600F022FA2D
:103B900004466946002000F0C6FD20463EBD0000F8
:103BA000274700082021020C01D010211046020AEC
:103BB00001D010460839020901D01046091F8208B9
:103BC00001D01046891E420801D0881E7047081A8D
:103BD0007047F8B582B28BB2040C0D0C10465843F6
:103BE000002126465E43370C36048019794116467B
:103BF0006E43370C36048019794126466E43891985
:103C0000F8BD30B47446641E2578641CAB4204D3FE
:103C1000635D5B00E31830BC18471D46F8E7000001
:103C2000002805DBC206D20E01219140014A116035
:103C30007047000000E100E0002805DBC206D20E5C
:103C400001219140014A11607047000000E100E04D
:103C500010B5002819DB1A4A03231B02D218830867
:103C60009B00D2588307DC0EFF23A3409A438B07A7
:103C70001B0E8407E40EA3401A43114B03242402B5
:103C80001B198408A4001A5118E00E4A03071B0FE1
:103C9000083B9B089B00D2588307DC0EFF23A34000
:103CA0009A438B071B0E8407E40EA3401A43054B6F
:103CB0000407240F083CA408A4001A5110BD0000FA
:103CC00000E100E01CED00E010B5002819DB1A4A05
:103CD00003231B02D21883089B00D2588307DC0EF3
:103CE000FF23A3409A438B071B0E8407E40EA340D7
:103CF0001A43114B032424021B198408A4001A51EF
:103D000018E00E4A03071B0F083B9B089B00D25884
:103D10008307DC0EFF23A3409A438B071B0E840707
:103D2000E40EA3401A43054B0407240F083CA408E3
:103D3000A4001A5110BD000000E100E01CED00E0FD
:103D400010B5002819DB1A4A03231B02D218830876
:103D50009B00D2588307DC0EFF23A3409A438B07B6
:103D60001B0E8407E40EA3401A43114B03242402C4
:103D70001B198408A4001A5118E00E4A03071B0FF0
:103D8000083B9B089B00D2588307DC0EFF23A3400F
:103D90009A438B071B0E8407E40EA3401A43054B7E
:103DA0000407240F083CA408A4001A5110BD000009
:103DB00000E100E01CED00E010B5002819DB1A4A14
:103DC00003231B02D21883089B00D2588307DC0E02
:103DD000FF23A3409A438B071B0E8407E40EA340E6
:103DE0001A43114B032424021B198408A4001A51FE
:103DF00018E00E4A03071B0F083B9B089B00D25894
:103E00008307DC0EFF23A3409A438B071B0E840716
:103E1000E40EA3401A43054B0407240F083CA408F2
:103E2000A4001A5110BD000000E100E01CED00E00C
:103E3000EFF31080704702E008C8121F08C1002A83
:103E4000FAD170477047002001E001C1121F002A1B
:103E5000FBD1704780F31088704780F3108870475B
:103E6000F0B51FB486B00998089A030D00210243EB
:103E700014D05148514A181850430514119801287C
:103E800010981AD0281A401C00264D4F4D49009614
:103E900001910490002812DA444211E011980124A3
:103EA00049A3012801D11098C1430698119A846052
:103EB0000360C26041600BB0F0BD4042E4E70446DD
:103EC000210500203F4A001C51410391029012E05D
:103ED000E00707D032463B4601990098FCF764FAA8
:103EE0000191009032463B4610461946FCF75CFAB9
:103EF00006460F466410002CEAD10498039B002864
:103F0000029A0999089806DAFCF74EFA019B009A82
:103F1000FCF74AFA05E0FCF7AFFA019B009AFCF7C0
:103F2000ABFA04460E460022284BFCF73DFB03D8B3
:103F30000020C043014607E00022254B20463146C1
:103F4000FCF77EF9FCF710FB102409E0002C0ADBDB
:103F50000A220023FCF7E4F8079B30321A55641E4E
:103F600002460A43F2D11122641C079B121B1C1942
:103F7000119B012B03D0012308430ED10AE0084313
:103F800004D0112010900020119077E71098151A96
:103F90006D1E0BE01098824202DD00236D1C03E0D1
:103FA000824201DA00236D1E002BEED00698119993
:103FB0008260C16030C07EE701FCFFFF104D000051
:103FC000000014400000F03F300000000000F0430B
:103FD0000000E03FFFB597B0064600251BE225280C
:103FE00076D100242746F749049400E00443761C68
:103FF00032780120203A90400842F7D130782A28C0
:104000000ED00222307801463039092916D8049999
:104010000A235943303940181443761C0490F1E7C1
:10402000189802C804911890002904DA012040036E
:1040300004434842049002200443761C30782E2822
:1040400014D1042004437078761C2A2809D11898CA
:10405000761C80C8189009E00A214F43303FC719E9
:10406000761C3078014630390929F5D930786C282A
:1040700010D006DC4C281AD068280ED06A2817D138
:1040800004E0742813D07A2812D110E001204005F2
:1040900004430CE00121090501E0032109050C435B
:1040A0007178814203D1012000052418761C761C0A
:1040B000307866280BD013DC58287DD009DC002826
:1040C0007BD04528F6D04628F4D047281AD1A9E15C
:1040D00018E0632835D0642870D0652812D1A1E19A
:1040E00070286CD008DC6728F1D069287DD06E2854
:1040F0000DD06F2806D1BCE073282ED0752873D060
:10410000782859D01A9A199990476D1C82E160025B
:10411000400F022809D003280DD004281898016800
:104120000DD00D60001D189074E11898EA17016811
:104130000D604A60F6E7189801680D80F2E70D708F
:10414000F0E718986A4601781172001D1890002057
:10415000507202A80090012005E0189802C818903B
:1041600000200091C04361070ED5002101E00199B4
:10417000491C0191B94213DA8142F8DB019A009996
:10418000895C0029F3D10BE0002101E00199491C71
:1041900001918142FADB019A0099895C0029F5D1ED
:1041A000019904981A9B471A21463846199A00F03B
:1041B00099FA4019019903E051E030E115E050E02F
:1041C000451807E0009800990078491C00911A9A58
:1041D000199990470198401E0190401CF2D1214648
:1041E00038461A9B199A12E137E00A200021009004
:1041F00001916002410F022907D0189A01CA189252
:10420000C2179446032908D00AE01898C01DC108B7
:10421000C90005C91891944607E000B2C217944638
:10422000042902D140B2C1178C4600226146944550
:1042300006DA0A460021404291418C462D2102E0D7
:10424000210504D52B216A461173012103E0E10702
:1042500001D02021F7E7029156E00A200AE0102061
:1042600008E0102000900021042004430191082759
:1042700003E008200021019100906002410F022913
:1042800007D0189A01CA189200229446032908D030
:1042900008E01898C01DC108C90005C918919446C6
:1042A00003E080B2042900D1C0B2002102912107AD
:1042B0002AD531780D91702906D0009A1021019BE2
:1042C0004A401A4305D00EE040216A46117301218D
:1042D00008E06146014306D030216A4611730D990A
:1042E000517302210291009A0821019B4A401A430E
:1042F0000AD16146014301D1610705D530216A46E3
:10430000117301217F1E02913178582904D02EA10A
:104310000E910DA90D910DE030A1F9E76146019BC9
:10432000009AFBF7FDFE0E9B8C469B5C0D9A521E7D
:104330000D92137061460143F0D10D9805A9081A3A
:1043400020300190600703D501200004844300E081
:1043500001270198874201DD381A00E00020019909
:1043600000904118029809180498401A0490E0033C
:1043700006D421461A9B199A049800F0B3F94519FE
:10438000002706E003A81A9AC05D199990476D1C92
:104390007F1C02988742F5DBE0030CD521461A9B6F
:1043A000199A049800F09EF9451904E01A9A3020F1
:1043B000199990476D1C0099481E00900029F5DC62
:1043C0001FE0000009280100303132333435363720
:1043D0003839616263646566000000003031323351
:1043E00034353637383941424344454600000000F1
:1043F0000D980D990078491C0D911A9A19999047BA
:104400006D1C0199481E01900029F1DC4DE100F07E
:1044100059F94519761C3078002800D0DFE5284688
:104420001BB0F0BD600700D406271898C01DC10856
:10443000C90048680A680831C30FDB0718911900E2
:1044400001D09CA108E0210501D59BA104E0E10772
:1044500001D09AA100E09AA14300109130785B0846
:1044600065280CD006DC452809D046281DD04728F1
:1044700041D141E0662818D067283CD13CE00021BA
:10448000112F01DB112000E0781C0191009008A998
:1044900011A8FFF7E5FC139905910021119A1592D7
:1044A0007F1C12980197009150E00120C0070390F3
:1044B0000120019008A9009711A8FFF7D1FC139AD9
:1044C000149905920022119B009212981593059A57
:1044D0000192002901D0104602E0791C4018019099
:1044E000381A01D5019804E04042401E0090781C23
:1044F0000190C01B029043E0012F00DA0127002148
:10450000112F01DD112000E038460191009008A92B
:1045100011A8FFF7A5FC13990591119A0021129893
:1045200015920091019721070CD40599B94201DB3E
:10453000019900E00191012904DD159A491E515CA1
:10454000302906D0B84201DA011D05DA01210291B5
:1045500015E00199491EEDE7002805DC0099411896
:1045600000910199091A03E0019A411C914200DD72
:1045700001910099401A401C02900120C00703904D
:10458000200706D402990198814202DB0020C04333
:10459000029000206946C87707AF012103980337CE
:1045A000C907884224D0022011902B201290039832
:1045B00000280CDA404203902D20129007E00A21D7
:1045C0000398FBF797FD30317F1E039039701199E6
:1045D000481E11900029F2DC03980028EFD1791EC3
:1045E000129808703078202108404530BF1E38707E
:1045F00006A8C01BC01D039010980078002800D0AA
:104600000120019941180298C01709180398091848
:104610000498401A401E0490E00306D421461A9BD9
:10462000199A049800F05EF845191098007800284F
:1046300003D01A9A199990476D1CE00324D521469E
:104640001A9B199A049800F04DF845191CE000983F
:10465000002807DB00990598884203DD1598405C27
:10466000199901E0199930201A9A904700986D1C09
:10467000401C00900298401E0290002804D11A9A13
:104680002E20199990476D1C0199481E0190002910
:10469000DDDC05E038781A9A7F1C199990476D1C6B
:1046A0000399481E03900029F4DC21461A9B199AAD
:1046B0000498ACE62D0000002B0000002000000054
:1046C00000000000F8B5044600251E461746880481
:1046D00004D405E039462020B0476D1C641EF9D58E
:1046E0002846F8BDFFB50446002581B01E46C80324
:1046F00001D5302700E02027880404D505E038469E
:104700000399B0476D1C641EF9D5284605B0F0BD6D
:104710004A68002A06D00A68531C0B60107048686B
:10472000401E486070470A68531C0B601070704749
:10473000FFB581B004461D46002C14D0002A12D0CB
:10474000002D10D0029E002E0DD02846EE0F3618F8
:1047500076107600AE1B06D1EE0F76197710009515
:10476000029EB74202DD002005B0F0BD002100230B
:1047700000BF50E0505C612808DB505C662805DC17
:10478000505CC01F0007000EE05418E0505C412848
:1047900008DB505C462805DC505CC01F0007000E9B
:1047A000E0540CE0505C302807DB505C392804DC16
:1047B000505C0007000EE05401E00020D4E7481CE4
:1047C00081B2505C612808DB505C662805DCE05C47
:1047D000565C80195738E05419E0505C412808DBDA
:1047E000505C462805DCE05C565C80193738E054A4
:1047F0000DE0505C302808DB505C392805DCE05CBB
:10480000565C80193038E05401E00020ACE7581CB9
:1048100083B2481C81B2A942ACDB1846A4E7000071
:1048200070B505460C46FF2101311048FBF7C1FC6D
:10483000FF2C02DDFF200E4908700D490C70084660
:10484000027829460948FBF79BFC012208490948E0
:1048500000F0F8F9064802780449064800F0F2F939
:1048600005480078401C0449087070BD500B0020BA
:1048700001000020340B00200000002070B5044629
:104880000D462046FDF72CFC01A0FDF729FC70BD6C
:104890000D0A000070B504460D4606480078C007B2
:1048A000C00F002805D02046FDF71AFC02A0FDF736
:1048B00017FC70BD5C0C00200D0A000010B52D48DF
:1048C000008B002819D12B48C08A002815D02AA1B6
:1048D0002AA0FDF729FD2749B2392AA0FDF724FDBA
:1048E0002448C18AB238FFF7D5FFC8212148B23821
:1048F000FBF75FFC00211F48C1822948008B00287C
:1049000019D12748C08A002815D01BA11BA0FDF78C
:104910000BFD2349B23923A0FDF706FD2048C18ACB
:10492000B238FFF77DFFC8211D48B238FBF741FCC4
:1049300000211B48C1822148008B002819D11F4843
:10494000C08A002815D00CA10CA0FDF7EDFC1B4976
:10495000B2391BA0FDF7E8FC1848C18AB238FFF74E
:104960008DFFC8211548B238FBF723FC00211348FE
:10497000C18210BDF00100204C4F47000A5B257337
:104980005D000000526563762055617274204C6FA3
:10499000526157414E20446174613A2025730000F2
:1049A0008A03002052656376205561727420425458
:1049B00020446174613A2025730000002405002022
:1049C00052656376205561727420496E666F20448B
:1049D0006174613A2025730010B501210903052097
:1049E0000007FDF743FE002801D0012010BD002084
:1049F000FCE7000001480068704700000400002048
:104A000010B5012292020449044800F06BF80449F1
:104A1000024800F003F910BD34070020340B0020D9
:104A20005D4D00081CB5014600290DD0144B0868E7
:104A3000984209D1DB438869984205D1486800282B
:104A400002D08868002801D100201CBD08690190AF
:104A5000C8680090009B0198984201D18A680CE0D8
:104A6000019B0098984203D9019B0098C21A04E068
:104A70008868009C019B1B1BC21A501EE5E70000C2
:104A8000EFBEADDE1CB5014600290DD0144B086801
:104A9000984209D1DB438869984205D148680028CB
:104AA00002D08868002801D100201CBD086901904F
:104AB000C8680090009B0198984201D100220CE048
:104AC000009B0198984203D9009B0198C21A04E008
:104AD0008868019C009B1B1BC21A1046E5E700007A
:104AE000EFBEADDE70B504460D461646002C03D071
:104AF000002D01D0002E01D1002070BD1C212046C8
:104B0000FBF757FBA660656002482060C043A061C8
:104B10000120F2E7EFBEADDEFEB504460F461546B6
:104B20000097002C11D02B49206888420DD1C94331
:104B3000A069884209D16068002806D0A0680028D2
:104B400003D0002F01D0002D01D10020FEBD204652
:104B5000FFF798FF02900298A84201D2029800E065
:104B600028460546002D00D1F0E7E0680190A068D6
:104B70000199401AA84203D2A0680199401A00E0A6
:104B8000284606466068019A811832460098FBF76D
:104B9000F7FA019880190190AD1B002D06D06168CD
:104BA000009A90192A46FBF7EBFA0195A068019943
:104BB000884201D8002001900198E06000BF606940
:104BC000002804D07219002120466369984700BF6D
:104BD0007019BBE7EFBEADDE10B50446002C1AD04D
:104BE0000D492068884216D1C943A069884212D174
:104BF000606800280FD0A06800280CD00020206139
:104C0000E06000BF6069002804D000220221204635
:104C10006369984700BF10BDEFBEADDE00280ED01F
:104C2000074B02689A420AD1DB4382699A4206D155
:104C30004268002A03D08268002A00D04161704790
:104C4000EFBEADDEFEB504460F4615460097002CBC
:104C500011D02B49206888420DD1C943A0698842F0
:104C600009D16068002806D0A068002803D0002F72
:104C700001D0002D01D10020FEBD2046FFF7D2FE5D
:104C800002900298A84201D2029800E02846054608
:104C9000002D00D1F0E720690190A0680199401A29
:104CA000A84203D2A0680199401A00E028460646AF
:104CB0006168019A881832460099FBF761FA0198F9
:104CC00080190190AD1B002D06D0009A91192A463B
:104CD0006068FBF755FA0195A0680199884201D8F0
:104CE000002001900198206100BF6069002804D075
:104CF0007219012120466369984700BF7019BBE70C
:104D0000EFBEADDE01460022034B1A8000BF024A0F
:104D100012888A42FBDB704710000020FEF76CFC13
:104D200004217D20C000FEF741FEFDF743F8FDF7AA
:104D3000FFF8FDF767F9FCF79DFFFCF7E5FEFDF7CF
:104D4000F1FFFFF75DFE07E0FEF7EAF9FFF7B6FDBA
:104D5000FDF734FA00F050F9F6E7000070B50646AA
:104D60000C461546002C0BD0012C12D0022C19D168
:104D70000EA110A0FDF7D8FA10A0FDF7D5FA12E0A9
:104D80000AA10CA0FDF7D0FA294613A0FDF7CCFA32
:104D900009E006A107A0FDF7C7FA294618A0FDF70C
:104DA000C3FA00E000BF00BF70BD00004C57524284
:104DB000000000000A5B25735D0000005B4556544F
:104DC0005D20427566666572207265736574206544
:104DD00076656E74210000005B4556545D20427577
:104DE000666665722072656164206576656E743AE8
:104DF0002025642062797465287329210000000051
:104E00005B4556545D20427566666572207772690F
:104E10007465206576656E743A2025642062797425
:104E2000652873292100000010B5FF2101310520FC
:104E30000007FDF723FC0520FEF7C4FAFF2101312E
:104E400005200007FDF71EFC1920C001FEF7BAFA85
:104E500003480078400840000149087010BD000078
:104E60005C0C002010B5FFF7B7FD002802D101202F
:104E700000F0ACF838480178384801810289384997
:104E8000C038FBF77DF9FCF745FBFBF7B5FF0028C1
:104E900015D0FCF74FFB1420FFF734FF2F48018992
:104EA000C038FEF7A1FA2D4802890146C0392DA06D
:104EB000FDF75EF9FF20F530FFF724FF36E0FCF741
:104EC00039FB002000F082F82848007840084000B4
:104ED00026490870022125484030C1710021017225
:104EE00023480068E121C90040182249086022A136
:104EF00022A0FDF719FA1F48016822A0FDF714FA55
:104F00002849164881810122014608312648FFF7C9
:104F100099FE124802890146C0392348FFF792FEE4
:104F200022480078401C2149087010BD002000F084
:104F30004DF811A111A0FDF7F7F91DA0FDF7F4F947
:104F40001849064881812048C0880A2802DA0A20C8
:104F50001D49C88000BFE8E70100002030010020A3
:104F6000500B002053656E64000000005C0C0020B4
:104F700014000020640000204C4F47000A5B25739A
:104F80005D000000557064617465205265636F6E4A
:104F90006E6563742054696D657374616D703A2039
:104FA000256C640070170000340B00200000002006
:104FB0004C6F52612053656E644461746120537577
:104FC0006363657373000000500C002010B5044645
:104FD000002C06D10121090305200007FDF74EFB37
:104FE00005E00121090305200007FDF74BFB052023
:104FF000FEF7E8F910BD000010B550488089002880
:105000007DD14F48C0880028FAD14E480078C007AB
:10501000C00F002803D04C48007800280AD0494827
:105020000078C007C00F0028EAD146484030C07958
:10503000002864D00020FFF7C9FF00BF0120000551
:105040004249086200BF00BF00BF00BF00BFEFF3CE
:10505000108004460120FEF700FF3C4880680121D3
:1050600089050843394988602046FEF7F6FE00BFEF
:1050700000BF00BF00BF00BF00BFEFF310800446B9
:105080000120FEF7EAFE31480068022108432F495B
:1050900008602046FEF7E1FE00BF00BF2CA12DA056
:1050A000FDF742F92DA0FDF73FF90820314988614D
:1050B00000BF23480079082188430830204908713F
:1050C000FDF708F91E4800794007C00F002805D1F8
:1050D0001B4800798007C00F00282ED0184800799F
:1050E0004007C00F00280ED01548007904218843DE
:1050F0001349087116A117A0FDF716F900E01CE08E
:105100001DA0FDF711F90E4800798007C00F002897
:105110000CD00FA10FA0FDF707F91EA0FDF704F9B1
:105120000748007902218843054908710448C0886E
:105130000A2802DA0A200249C88010BD3001002086
:10514000500C00205C0C00200000002000480040B3
:105150004C4F47000A5B25735D000000446576698B
:10516000636520456E7465722053746F70204D6FB7
:10517000646500000004005044657669636520574B
:10518000616B652055702046726F6D204C6F5261C7
:10519000000000004465766963652057616B6520F7
:1051A00055702046726F6D2045585449000000002C
:1051B00000000000000000000102030406070809C7
:1051C0000000000001020304030406080C1018206C
:1051D000300000004150504B45593A20253032787C
:1051E0002025303278202530327820253032782042
:1051F000253032782025303278202530327820252D
:105200003032782025303278202530327820253011
:1052100032782025303278202530327820253032FF
:1052200078202530327820253032780061742B6167
:1052300070706B65793D25303278253032782530B5
:105240003278253032782530327825303278253062
:105250003278253032782530327825303278253052
:105260003278253032782530327825303278253042
:1052700032782530327800000D0A4170704B657924
:105280003A25303278253032782530327825303260
:105290007825303278253032782530327825303212
:1052A0007825303278253032782530327825303202
:1052B00078253032782530327825303278253032F2
:1052C000780D0A00E4520008000000207000000081
:1052D000363E0008545300087000002048140000B7
:1052E000463E000800000000000000000000000032
:1052F00000000000000000000000000000000000AE
:105300000000000000002000083FBC006500000114
:105310002D35C7963275D743B4E73BEA91681A3BFF
:10532000416464722D35C7963275D743B4E73BEAC2
:1053300091681A3B2D35C7963275D743B4E73BEADF
:1053400091681A3B0000000000000000000000000F
:045350000000000059
:04000005080000D916
:00000001FF
