:020000040800F2
:10000000E8140020D9000008514D00080134000810
:1000100000000000000000000000000000000000E0
:10002000000000000000000000000000C5540008AF
:100030000000000000000000554D0008C7540008F3
:10004000EB000008EB00000809530008EB00000873
:10005000EB00000835250008EB0000086D250008BE
:1000600000000000EB000008EB000008EB000008B7
:10007000EB000008EB00000800000000EB000008A7
:10008000000000004D5900080000000000000000C2
:10009000EB00000800000000EB000008EB00000887
:1000A000EB000008EB000008EB000008EB00000884
:1000B000315A0008B54200080000000000000000AE
:1000C0000448854600F036FC00480047B98C00081B
:1000D000C046C046E8140020044880470448004752
:1000E000FEE7FEE7FEE7FEE7FEE7FEE7B1560008A3
:1000F000C100000830B50B46014600202022012433
:1001000009E00D46D5409D4205D31D469540491B4B
:100110002546954040191546521E002DF1DC30BD94
:1001200070B500242546002801DA01244042002948
:1001300001DA01254942FFF7DDFFAC4200D0404221
:10014000002C00D0494270BDF0B51FB40646002017
:1001500082B005464024019100901BE0019922469F
:100160000F46304600F0B4FA049A059B801A994174
:1001700010D310461946224600F09AFA361A8F41DB
:100180000197224601200021009F00F091FA3818C3
:100190004D4100902046641E0028DFDC019B009842
:1001A0002946324607B0F0BD38B50446C06818216C
:1001B000401E4843A16840183C21484361684018EC
:1001C0003C2148432168451860690C214843216956
:1001D00040186921C900401A3021FFF7A1FF114AD8
:1001E00050434219084600921A2902DB0E49511861
:1001F00000910C21FFF794FF0C4A5043009A80189D
:1002000000900B4806E0491E425C074B5A43009B96
:10021000D21800920029F6DC2146684600F084FAE4
:10022000009838BD801F8607805101008033E101AE
:10023000DD95000803460B439B0703D009E008C97E
:10024000121F08C0042AFAD203E00B780370401C86
:10025000491C521EF9D27047D2B201E00270401C14
:10026000491EFBD270470022F6E710B513460A4636
:1002700004461946FFF7F0FF204610BD30B505468D
:100280002A460B4610781C78521C5B1C002801D0B3
:10029000A042F7D0002C03D0002802D06D1CEFE75D
:1002A000284630BD421C0178401C0029FBD1801A31
:1002B000704730B504460020034600E05B1C9342C3
:1002C00003D2E05CCD5C401BF8D030BD70B5104D62
:1002D000002800D12868002414E00A4602E09E426B
:1002E00003D0521C1378002BF9D1DAB2224307D085
:1002F000002B06D0002C04D000210170401C04E02B
:100300000446401C0678002EE7D12860204670BDC8
:10031000C800002070B5064605F048FD0468054693
:100320000A220021304600F039FA2C6070BD00002E
:10033000F0B507460846584087B0C00F0490480003
:100340000E46590040084908BC1A884105D2384673
:1003500031461E4617460B460246580040081043D9
:100360004DD0300D039040055900400D490D0590CA
:10037000401A0290402873DA18030121000B090586
:100380000843019004980092002806D01146019A73
:1003900049420020904100910190029840210A1AA0
:1003A0000199009800F084F905460C466B4607CB8E
:1003B00000F09FF9C0197141039A0E0D0023D71761
:1003C00056401A467A40164344D0049A002A2DD04B
:1003D000029A012A039A15DC1205C01A91410126DE
:1003E0003605001C7141D20F059ED2070093019281
:1003F00002962A46234600F016FA07B0F0BD3846AA
:100400003146FAE71605234A0F46B218C01AB7411B
:1004100001210905001C4F4100187F4111461818A1
:100420007941E20F10436D19644113E0E2076D0852
:1004300015436408C2071443039A01261205C01A23
:1004400091413605001C7141CE07400830434908F0
:10045000C01851412A46234600F0D8F9CDE7FFE7FE
:10046000049801224000C117121A00238B410498FE
:100470003146C417381AA141EEE730B40124E4072D
:10048000634030BC54E730B40124E407614030BC21
:100490004EE700000000E0FFF0B51FB488B00B99F4
:1004A0000998002448400999C00F4900490809915A
:1004B000C0070B990090490049080B9109990898C9
:1004C000A64608431CD00B990A98084318D00998EF
:1004D00001244000420D4800410D09982405000305
:1004E000000B204309900B980003000B20430B9056
:1004F00050181C494018002201901446104605E08F
:10050000002001460DB0F0BD032801DA034600E0EB
:1005100003239C46C11A0AAE0AE05F0008ADED5BFA
:100520004F00F75B7D430027AA187C41491C5B1EE6
:100530006145F2DD410004AB5A522104120C0A431A
:10054000240C401C0828DFDB0198029000997046BB
:1005500001910090059B049A0799069800F063F9B1
:10056000D0E700000DFCFFFFF0B50C465C4085B005
:10057000E40FE40703944C000026640859009446F5
:10058000490802460296224321D062460A431ED001
:100590006200570D4A000E032303550D0124024645
:1005A0002C492405781B1B0B360B4018234326438C
:1005B000614600901C46501AB44103D30098401C79
:1005C000009002E0921800985B41002803DA0020B6
:1005D000014605B0F0BD0020012109050746864609
:1005E00011E064461D46141BB54106D36546521BF7
:1005F000B341744607430C43A646CD07400849085B
:10060000284392185B4105460D43EAD11046184332
:1006100013D06046194650407140084306D06046EA
:10062000101AB34106D20122002306E00022012362
:10063000DB0702E00122D243531000987446010503
:10064000381C6141029C039D0019694100F0DEF8ED
:10065000BFE70000FD0300000EB50549029100212F
:1006600000910A460B46019100F0DDF803B000BD91
:10067000330400004A0009030123090B1B05194339
:10068000094B10B5520D9A4201DA002010BD064BFD
:1006900034339A4203DC9A1A00F01AF810BD034969
:1006A0005118884010BD0000FF030000CDFBFFFF84
:1006B00010B5202A04DB0146203A9140002010BDED
:1006C000914020239C1A0346E3401943904010BDFB
:1006D00010B5202A04DB0846203AD040002110BD86
:1006E0000B46D340D0402024A21A9140084319461B
:1006F00010BD10B5202A06DBCB170846203A104162
:10070000C1170B4306E00B461341D0402024A21A28
:1007100091400843194610BD10B5024900F004F895
:1007200010BD0000B80C002070B50C4600683C21DC
:10073000FFF7E0FC21603C21FFF7DCFC6160182141
:10074000FFF7D8FC0546A1600721001DFFF7D2FC8A
:10075000A1610F48A90008180E49FFF7CBFC02461B
:10076000443288086261E0613B2802D3910700D0DF
:10077000401C0021084B0A462161995C814203D844
:10078000401A521C2261F8E7401CE060204670BD10
:100790006C0B0000B5050000E9950008F7B5009C5A
:1007A0000F4600262578641C002D05D000F0D4F8F3
:1007B0000068405DC007F5D12B2D02D02D2D18D03B
:1007C000641E39462046029A00F0CAF8002F04D071
:1007D0003968A14201D100993960710502240029CC
:1007E0000BDA4042002803DD05F0E0FA0460A007C0
:1007F000FEBD012080020643E3E70028F8DA05F099
:10080000D5FA04600048FEBDFFFFFF7F10B5002B46
:1008100008DA0024401C614192185B411A4301D15F
:100820004008400010BDF0B51FB482B005460C0072
:1008300003D0084605F080F902E005F07DF920308C
:100840000246009021462846FFF732FF049B059A96
:1008500004460F4618431143084314D0184610436A
:100860001BD0009840210A1A18460599FFF730FF5F
:1008700005460E46009A05990498FFF719FF0843AC
:1008800005D0012004E02046394607B0F0BD002025
:10089000C11705430E432C43374300990E98630557
:1008A000401A7905E40A00220C43FD0A0A3002D5F9
:1008B00000200146E9E70105101969410C9C0D9DD6
:1008C00000196941FFF7A2FFDFE700004A000903B2
:1008D0000123090B1B0519430A4B10B5520D9A420F
:1008E00002DA0020014610BD064B34339A4203DC85
:1008F0009A1AFFF7EDFE10BD034BD218FFF7D8FE92
:1009000010BD0000FF030000CDFBFFFF10B5002964
:1009100004DB0124E40740428C412146002B04DB28
:100920001C460123DB075242A341994200D1904269
:1009300010BD0000064C0125064E05E0E36807CC1B
:100940002B430C3C98471034B442F7D3FFF7BCFB61
:10095000549A0008749A0008004870477896000876
:10096000F7B582B0029C00272078641C15460197D9
:10097000302802D0002D15D015E020780127641C06
:10098000782804D0582802D0002D09D00BE0002D83
:1009900001D0102D07D1002710252078641C02E01B
:1009A000082500E00A250026009610E0009901279E
:1009B00069430818020C294680B2714300908E18D2
:1009C0003804864201D3012001902078641C294616
:1009D00000F019F80028E9DA0398002805D0002F64
:1009E00001D0641E00E0029C04600198002806D03B
:1009F00005F0DCF902210160C81E05B0F0BD0099C8
:100A000030040843F9E73A2800D230382023024660
:100A10009A43412A01D310463738884201D3002037
:100A2000C0437047F0B589B037480068401C36496C
:100A3000086009680A01501AFFF70EFE06460F46C5
:100A400032490968324A51430846FFF705FE044619
:100A50000022304BFFF717FD32463B4601910090D4
:100A6000FFF70BFD00222C4B03910290FFF714FDC2
:100A70000022284B05910490FFF776FD0791069020
:100A80000022264B07990698FFF752FC0446FFF711
:100A9000F1FD234908700846007822490978884208
:100AA0000AD01F4800781F4908701F4800790221AA
:100AB0008843801C1C4908711948007814280EDCF2
:100AC0001A48007800280AD10120184908701648F1
:100AD000007902218843801C1349087111E01348F2
:100AE000007800280DD00E480078192809DD002074
:100AF0000E4908700C48007902218843801C0A497D
:100B0000087109B0F0BD000010000020580000205E
:100B10003E03000080845E41000059400000E03F39
:100B2000000000200C000020D00000200100002068
:100B3000F7B582B00E46144600276420019007F0F6
:100B40007FFE002809D13BA13CA002F05BFC3DA048
:100B500002F058FC002005B0F0BD07F0A3FE00280D
:100B600008D134A135A002F04DFC3BA002F04AFCB4
:100B70000020F0E7FF21F5313D48FFF774FB00202E
:100B80003C49C885029804F073F83BA004F070F863
:100B9000374D3AA12046FFF771FB002805D13AA155
:100BA0002046FFF76BFB002800D0ED1D32E021A1AD
:100BB0002846FFF763FB002809D01EA11FA002F002
:100BC00021FC34A0029902F01DFC0020C3E737A1EC
:100BD0002846FFF753FB002809D016A117A002F002
:100BE00011FC35A0029902F00DFC0020B3E701983A
:100BF0007843B04209DD37A110A002F003FC37A012
:100C0000029902F0FFFB0220A5E7019804F02AF800
:100C1000781C87B221462846FFF730FB0028C6D053
:100C200035A106A002F0EEFB34A0029902F0EAFB27
:100C3000012090E74552524F520000000A5B257395
:100C40005D0000004C6F526157414E204D6F64654E
:100C5000204552524F5221004C6F526157414E2055
:100C6000537461747573204552524F522100000035
:100C700002030020C80400200D0A00002B4C494E3E
:100C80004B20494E464F3A002B52544320494E4682
:100C90004F3A00002225732220617420636D642086
:100CA00065786563206572726F720000424144206E
:100CB0005041524D00000000222573222061742013
:100CC000636D642065786563206261642070617281
:100CD0006D0000005741524E000000002225732293
:100CE00020617420636D6420657865632074696D8C
:100CF000656F7574000000004C4F47002225732279
:100D000020617420636D642065786563207375636A
:100D10006365737300000000F0B587B000255FE0E5
:100D200031A2324932A0FFF703FF012852D133A18B
:100D300033A002F067FB34A13648FFF79FFA07465D
:100D4000394635A002F05EFB78213448FFF78BFA74
:100D50002DA13048FFF792FA0646002006900024A5
:100D600006AB2E4A2EA1304605F029FD0AE0611C93
:100D700089002A4B5A582B4908190223012105F0F2
:100D8000A7FC641C0699481E06900029EFD11BA100
:100D90001BA002F037FB23480B38807C21490B391C
:100DA000497C204A0B3A127C1E4B0B3BDB7B0193A8
:100DB0000292039104901B480B38807B00901948E5
:100DC0000B38437B027BC17A17A002F01BFB01208A
:100DD00007B0F0BD681C85B27D20C00003F042FF63
:100DE000032D9DDB0020F3E74F4B0000DC050000E6
:100DF00041542B4150504555493F00004C4F47004E
:100E00000A5B25735D0000002B4150504555493A5F
:100E1000000000000203002025730000D00B00201A
:100E200020000000530C00204150504555493A2005
:100E30002530327820253032782025303278202530
:100E40003032782025303278202530327820253015
:100E50003278202530327800F0B58FB0002578E068
:100E60003EA23F493FA0FFF763FE01286BD140A19E
:100E700040A002F0C7FA41A14348FFF7FFF9074637
:100E8000394642A002F0BEFA78214148FFF7EBF95B
:100E90003AA13D48FFF7F2F9064600200E900024E3
:100EA0000EAB3B4A3BA1304605F089FC0AE0611CD1
:100EB0008900374B5A58384908190223012105F097
:100EC00007FC641C0E99481E0E900029EFD128A142
:100ED00028A002F097FA3048C07B2F49897B2E4A20
:100EE000527B2D4B133BDB7F09930A920B910C90A5
:100EF00029481338807F284913394A7F097F264BB8
:100F0000133BDB7E05930792069108902248133825
:100F1000827E407E20491339097E1F4B133BDB7DC7
:100F200001930492029103901B481338807D009036
:100F300019481338437D027DC17C184802F062FADB
:100F400001200FB0F0BD681C85B27D20C00003F009
:100F500089FE032D84DB0020F3E700004F4B0000E7
:100F6000DC05000041542B4150504B45593F0000D7
:100F70004C4F47000A5B25735D0000002B41505029
:100F80004B45593A00000000020300202573000081
:100F9000D00B0020200000005B0C0020D896000839
:100FA000F0B58FB0002571E03AA23B493BA0FFF7B6
:100FB000BFFD012864D13CA13CA002F023FA3DA171
:100FC0003F48FFF75BF9074639463EA002F01AFAA0
:100FD00078213D48FFF747F936A13948FFF74EF928
:100FE000064600200E9000240EAB374A37A130464B
:100FF00005F0E5FB0AE0611C8900334B5A5834497F
:1010000008190223012105F063FB641C0E99481E98
:101010000E900029EFD124A124A002F0F3F92C486E
:10102000C07B2B49897B2A4A527B294B1B7B099326
:101030000A920B910C902648C07A2549897A244A55
:10104000527A234B1B7A0593069207910890204809
:10105000C17980791E4A52791D4B1B790193029206
:10106000049103901A48C078009019488378427818
:10107000C01FC179174802F0C5F901200FB0F0BDBB
:10108000681C85B27D20C00003F0ECFD032D8BDBD6
:101090000020F3E74F4B0000DC05000041542B41DA
:1010A0005050534B45593F004C4F47000A5B257346
:1010B0005D0000002B415050534B45593A00000051
:1010C0000203002025730000D00B00202000000048
:1010D0006F0C00208C97000870B500241BE010A254
:1010E000104911A0FFF724FD01280ED111A112A073
:1010F00002F088F912A11448FFF7C0F80546294606
:1011000012A002F07FF9012070BD601C84B27D2026
:10111000C00003F0A7FD032CE1DB0020F4E7000092
:101120004F4B0000DC05000041542B42414E443F30
:10113000000000004C4F47000A5B25735D00000073
:101140002B42414E440000000203002025730000A2
:1011500070B500241BE010A2104911A0FFF7E8FCB5
:1011600001280ED111A112A002F04CF912A11448CD
:10117000FFF784F80546294612A002F043F9012042
:1011800070BD601C84B27D20C00003F06BFD032C99
:10119000E1DB0020F4E700004F4B0000DC0500001D
:1011A00041542B43484D41534B3F00004C4F4700A7
:1011B0000A5B25735D0000002B43484D41534B00F3
:1011C000020300202573000070B500241BE010A26C
:1011D000104911A0FFF7ACFC01280ED111A112A0FB
:1011E00002F010F912A11448FFF748F80546294605
:1011F00012A002F007F9012070BD601C84B27D20AE
:10120000C00003F02FFD032CE1DB0020F4E7000019
:101210004F4B0000DC05000041542B434C4153531D
:101220003F0000004C4F47000A5B25735D00000043
:101230002B434C4153533A00020300202573000016
:1012400070B500241BE010A2104911A0FFF770FC3C
:1012500001280ED111A112A002F0D4F812A1154854
:10126000FFF70CF80546294613A002F0CBF8012041
:1012700070BD601C84B27D20C00003F0F3FC032C21
:10128000E1DB0020F4E700004F4B0000DC0500002C
:1012900041542B434F4E4649524D3F004C4F47005F
:1012A0000A5B25735D0000002B434F4E4649524DAB
:1012B0003A0000000203002025730000FEB500255F
:1012C0004DE029A229492AA0FFF732FC012840D18C
:1012D0002AA12BA002F096F82BA12E48FEF7CEFFF4
:1012E000074639462CA002F08DF878212B48FEF7EE
:1012F000BAFF25A12748FEF7C1FF0646002001904E
:10130000002401AB254A26A1304605F058FA0AE030
:10131000611C8900214B5A582249081902230121D6
:1013200005F0D6F9641C0199481E01900029EFD1FF
:1013300012A113A002F066F81A48C078009019486C
:1013400083784278C01EC17817A002F05BF80120B4
:10135000FEBD681C85B27D20C00003F083FC032D18
:10136000AFDB0020F4E700004F4B0000DC0500007D
:1013700041542B444556414444523F004C4F470092
:101380000A5B25735D0000002B44455641444452DE
:101390003A0000000203002025730000D00B00205B
:1013A000200000006B0C0020444556414444523A52
:1013B00020253032782025303278202530327820B0
:1013C0002530327800000000F0B587B000255FE0DE
:1013D00031A2344934A0FFF7ABFB012852D135A12B
:1013E00035A002F00FF82CA13548FEF747FF07465D
:1013F000394634A002F006F878213348FEF733FF6F
:1014000025A12F48FEF73AFF06460020069000244B
:1014100006AB2D4A2DA1304605F0D1F90AE0611C3A
:101420008900294B5A582A4908190223012105F03D
:101430004FF9641C0699481E06900029EFD11DA1A2
:101440001DA001F0DFFF2248C01E807A2049C91E7E
:10145000497A1F4AD21E127A1D4BDB1EDB7901939B
:101460000292039104901A48C01E80790090184897
:10147000C01E43790279C17816A001F0C3FF012094
:1014800007B0F0BD681C85B27D20C00003F0EAFB08
:10149000032D9DDB0020F3E72B4445564555493A83
:1014A00000000000DC05000041542B444556455522
:1014B000493F00004C4F47000A5B25735D00000068
:1014C0000203002025730000D00B00202000000044
:1014D0004B0C00204465764555493A20253032783A
:1014E000202530327820253032782025303278207F
:1014F000253032782025303278202530327820256A
:101500003032780070B500241BE010A2104911A001
:10151000FFF70EFB01280ED112A113A001F072FFFC
:1015200013A11648FEF7AAFE0546294614A001F0AD
:1015300069FF012070BD601C84B27D20C00003F0F3
:1015400091FB032CE1DB0020F4E700004F4B00008F
:10155000DC05000041542B44415441524154453F65
:10156000000000004C4F47000A5B25735D0000003F
:101570002B44415441524154453A0000020300209B
:101580002573000070B500241BE010A2104911A0C3
:10159000FFF7CEFA01280ED111A112A001F032FFFF
:1015A00012A11448FEF76AFE0546294612A001F072
:1015B00029FF012070BD601C84B27D20C00003F0B3
:1015C00051FB032CE1DB0020F4E700004F4B00004F
:1015D000DC05000041542B465245513F00000000FD
:1015E0004C4F47000A5B25735D0000002B465245B7
:1015F000513A00000203002025730000F0B58FB0BF
:10160000002571E03AA23B493BA0FFF791FA01287F
:1016100064D13CA13CA001F0F5FE3DA13F48FEF79E
:101620002DFE074639463EA001F0ECFE78213D48EC
:10163000FEF719FE36A13948FEF720FE06460020C7
:101640000E9000240EAB374A37A1304605F0B7F8AC
:101650000AE0611C8900334B5A58344908190223A7
:10166000012105F035F8641C0E99481E0E900029E2
:10167000EFD124A124A001F0C5FE2C48C07B2B494A
:10168000897B2A4A527B294B1B7B09930A920B9137
:101690000C902648C07A2549897A244A527A234BED
:1016A0001B7A05930692079108902048C1798079AA
:1016B0001E4A52791D4B1B790193029204910390AB
:1016C0001A48C07800901948837842781738C17D4D
:1016D000174801F097FE01200FB0F0BD681C85B2DD
:1016E0007D20C00003F0BEFA032D8BDB0020F3E762
:1016F0004F4B0000DC05000041542B4E574B534B21
:1017000045593F004C4F47000A5B25735D000000C0
:101710002B4E574B534B45593A0000000203002013
:1017200025730000D00B0020200000007F0C00205B
:101730003097000870B500241BE010A2104911A0DA
:10174000FFF7F6F901280ED111A112A001F05AFEFF
:1017500012A11448FEF792FD0546294612A001F099
:1017600051FE012070BD601C84B27D20C00003F0DA
:1017700079FA032CE1DB0020F4E700004F4B000076
:10178000DC05000041542B504F52543F0000000034
:101790004C4F47000A5B25735D0000002B504F52F1
:1017A000543A0000020300202573000070B50024A5
:1017B0001BE010A2104911A0FFF7BAF901280ED1C1
:1017C00010A111A001F01EFE11A11348FEF756FD55
:1017D0000546294611A001F015FE012070BD601CD0
:1017E00084B27D20C00003F03DFA032CE1DB002031
:1017F000F4E700004F4B0000DC05000041542B5281
:1018000058323F004C4F47000A5B25735D000000D3
:101810002B5258323A0000000203002025730000CA
:1018200070B500241BE010A2114912A0FFF780F947
:1018300001280ED111A112A001F0E4FD0AA1124865
:10184000FEF71CFD0546294610A001F0DBFD012036
:1018500070BD601C84B27D20C00003F003FA032C2D
:10186000E1DB0020F4E700002B56455200000000A9
:10187000DC05000041542B5645523F004C4F4700B9
:101880000A5B25735D000000020300202573000041
:1018900010B5002419E00FA20F4910A0FFF748F976
:1018A00001280CD110480078400840000E4908700B
:1018B00000BF06F0A3FF0028FBD0012010BD601C74
:1018C00084B27D20C00003F0CDF9032CE3DB0020BF
:1018D000F4E700004F4B0000DC05000041542B46AC
:1018E0004143544F52590000480C002010B50024C9
:1018F0000DE009A209490AA0FFF71AF9012800D151
:1019000010BD601C84B27D20C00003F0ABF9032C35
:10191000EFDB0020F4E700004F4B0000DC05000087
:1019200041542B534156450010B590B00024242259
:1019300018A107A8FEF77EFC1F48807C1E49497C41
:101940001D4A127C1C4BDB7B029303920491059091
:101950001948807B1849497B009101901648037B08
:10196000C27A16A107A804F0C1F80EE020A221490E
:1019700007A8FFF7DDF8012801D110B010BD601CE9
:1019800084B27D20C00003F06DF9032CEEDB002053
:10199000F3E7000041542B4150504555493D204646
:1019A000462046462046452030302030302030301A
:1019B0002030302030310000480C002041542B41B1
:1019C00050504555493D2025303278202530327819
:1019D000202530327820253032782025303278208A
:1019E00025303278202530327820253032780000BA
:1019F0004F4B0000DC05000010B59EB000244022D3
:101A000027A10EA8FEF716FC3548C07B3449897B18
:101A1000334A527B324B133BDB7F0A930B920C9180
:101A20000D902F481338827F417F007F2C4B133B52
:101A3000DB7E069307AB07C329481338807E28490D
:101A40001339497E264A133A127E254B133BDB7D20
:101A5000029303920491059021481338807D204918
:101A60001339497D009101901D481338037DC27CD4
:101A70001C490EA804F03AF80EE01BA21B490EA860
:101A8000FFF756F8012801D11EB010BD601C84B2CA
:101A90007D20C00003F0E6F8032CEEDB0020F3E726
:101AA00041542B4150504B45593D2032422037453F
:101AB0002031352031362032382041452044322033
:101AC00041362041422046372031352038382030F9
:101AD000392043462034462033432C300000000098
:101AE0005B0C0020A89900084F4B0000DC050000AB
:101AF0003EB50446002522460BA1684603F0F6FFDA
:101B00000DE00CA20C496846FFF712F8012800D13D
:101B10003EBD681C85B27D20C00003F0A3F8032DF4
:101B2000EFDB0020F4E7000041542B42414E443DDE
:101B3000256400004F4B0000C409000030B585B09B
:101B40000446002514216846FEF78DFB22460CA1B1
:101B5000684603F0CBFF0EE00DA20E496846FEF783
:101B6000E7FF012801D105B030BD681C85B27D209A
:101B7000C00003F077F8032DEEDB0020F3E7000050
:101B800041542B43484D41534B3D253034580000C0
:101B90004F4B0000C40900003EB5044600250EA2CC
:101BA00007CA6B4607C322460EA1684603F09EFF94
:101BB0000DE00FA20F496846FEF7BAFF012800D1D9
:101BC0003EBD681C85B27D20C00003F04BF8032D9C
:101BD000EFDB0020F4E7000041542B434C4153530A
:101BE0003D30000041542B434C4153533D2564008C
:101BF0004F4B0000DC0500007FB504460D46002673
:101C00000FA30FCB03936B4607C32B46224610A1AD
:101C1000684603F06BFF0EE012A213496846FEF718
:101C200087FF012801D104B070BD701C86B27D20F1
:101C3000C00003F017F8032EEEDB0020F3E70000EE
:101C400041542B434F4E4649524D3D312C330000F9
:101C500041542B434F4E4649524D3D25642C25643B
:101C6000000000004F4B0000DC05000010B5002410
:101C700016E00DA20D490EA0FEF75AFF012809D16A
:101C8000FF21F5310F48FEF7EEFA00200E49C88516
:101C9000012010BD601C84B27D20C00002F0E2FF74
:101CA000032CE6DB0020F4E74F4B0000DC050000CE
:101CB00041542B4A4F494E3D312C312C31322C317D
:101CC0003000000002030020C804002010B50024EA
:101CD0000DE009A209490AA0FEF72AFF012800D158
:101CE00010BD601C84B27D20C00002F0BBFF032C3D
:101CF000EFDB0020F4E700004F4B0000DC050000A4
:101D000041542B4F5441413D312C30003EB50446E7
:101D100000250EA207CA6B4607C322460EA16846DD
:101D200003F0E4FE0DE010A210496846FEF700FF44
:101D3000012800D13EBD681C85B27D20C00002F0A4
:101D400091FF032DEFDB0020F4E7000041542B50FE
:101D50004F52543D3230000041542B504F52543DAD
:101D600025303278000000004F4B0000DC050000F9
:101D700010B58CB0182106A8FEF775FA1821684630
:101D8000FEF771FA0120800401F078FB022001F0D7
:101D900017FD012080020090022001900320029094
:101DA00000200390012004900420059069463348E8
:101DB00001F054FC0120C002009002200190032099
:101DC00002900020039001200490042005906946B1
:101DD0002A4801F043FC00211D2003F06FFF1D2065
:101DE00003F0E8FE4B20C001069000200790089009
:101DF00009900C200A9000200B9006A9204801F0C1
:101E000023FD1F4801F00EFD00BF00BF00BF03F01F
:101E1000D1FF0446012003F0DFFF19480068FF21CD
:101E20000131084316490860204603F0D5FF00BF82
:101E300000BF00BF01201349086200BF104801F035
:101E4000F1FC00BF0E480068012108430C490860FE
:101E500000BF00BF00BF0A48C06901214905084012
:101E6000400D0028F6D000BF0548C0694900084071
:101E7000800D0028EED00CB010BD00000004005012
:101E8000004800400038014000B589B000200790AC
:101E90000890182101A8FEF7E6F90520000701F0D7
:101EA0009BFB7B4801F098FB7A4801F095FB0120F1
:101EB00001F078FC022001F075FC4021744801F02B
:101EC0004DFC2021724801F049FC1021704801F0BE
:101ED00045FC08216E4801F041FC402001900120A2
:101EE0000290002003900490059001A9684801F039
:101EF000B5FB2020019001A9654801F0AFFB10203F
:101F0000019001A9624801F0A9FB0820019001A9F4
:101F10005F4801F0A3FB012189035D4801F020FC2B
:101F2000FF2101310520000701F01AFC01210903FE
:101F30000520000701F014FC01208003019001201E
:101F40000290002003900490059001A9504801F0F0
:101F500085FBFF200130019001A90520000701F059
:101F60007DFB01200003019001A90520000701F07D
:101F700075FB0120C003019000200290059001A98B
:101F8000434801F06BFB0120C002019001A905202C
:101F9000000701F063FB0021084602F0B5F80022BB
:101FA00001210520000701F0EAFB002201210520A4
:101FB000000701F0D7FB01200790012108A801705C
:101FC000002141700121817007A801F09BFA32497C
:101FD000002002F099F83149002002F095F8012222
:101FE00040210520000701F0CAFB012280210520C5
:101FF000000701F0C4FB002240210520000701F08A
:10200000B1FB002280210520000701F0ABFB40203E
:102010000790012108A80170002141700121817001
:1020200007A801F06FFA8020079007A801F06AFA6C
:102030000021072003F0CAFD0720002815DBC20697
:10204000D20E01219140164A116000BF00BF00BFAF
:10205000BFF34F8F00BF00BF00BF00BF00BF00BF76
:10206000BFF36F8F00BF00BF00BF00BF002105207E
:1020700003F0ACFD0520002806DBC206D20E0121CC
:102080009140074A803A116000BF09B000BD0000CE
:1020900000040050000800500100080001000C007E
:1020A00080E100E010B58EB01C2107A8FEF7DBF838
:1020B000182101A8FEF7D7F80120400401F0DEF94D
:1020C000012001F07DFB04200190022002900320FA
:1020D000039000200490012005900420069001A99F
:1020E0000520000701F0BAFA0820019002200290B2
:1020F0000320039000200490012005900420069006
:1021000001A90520000701F0A9FA00211C2003F015
:10211000D5FD1C2003F04EFDE12040020790002079
:10212000089009900A900C200B9000200C900D90C4
:1021300007A9254802F044F800BF23484068092158
:10214000C902884320494860084680682A2188439C
:102150001D49886000BF00BF084600680121084390
:102160001949086000BF00BF00BF00BF03F022FE96
:102170000446012003F030FE134800682021084384
:1021800011490860204603F027FE00BF00BF00BFD2
:1021900000BF00BF03F00EFE0446012003F01CFE4A
:1021A00009480068FF2101310843074908602046BB
:1021B00003F012FE00BF00BF00BF01200249086209
:1021C00000BF0EB010BD000000440040F8B5054649
:1021D0000E461746294608A001F014F9002404E031
:1021E000315D0BA001F00EF9641CBC42F8DB0AA0C3
:1021F00001F008F9F8BD00000A55617274204461CD
:102200007461205B25735D3A2025642C200000005A
:1022100020253032780000000A00000010B5254863
:1022200000798007C00F00281ED0224800790221C3
:10223000884320490871DC211F48FEF714F81E4925
:10224000032006F079FF1D49087001221C4806F0A2
:10225000C7FC1A4802781849194806F0C1FC194809
:102260000078401C17490870124800794007C00FD9
:1022700000281ED00F480079042188430D490871B9
:10228000DC210D48FDF7EFFF0B49832006F054FFDA
:102290000A49087001220A4806F0A2FC07480278A1
:1022A0000549074806F09CFC06480078401C054993
:1022B000087010BDD0000020C00800203D000020A4
:1022C000A40800203C00002010B53E48008F0028E4
:1022D00074D13D480078C007C00F00286ED03B483D
:1022E0000078002844D0002136488186FF21F5314E
:1022F000FF38C138FDF7B7FFDC213548FDF7B3FFE4
:10230000334C23E001223349334806F0D3FB3148F4
:1023100002782146304806F0CDFB2A48808E2D49B0
:1023200009784018642810DA2A48007824182748C9
:102330000078401E254908702248808E254909787A
:10234000401881B21F48818600E003E01F480078F2
:102350000028D7D100BF06F089FD00201B49087076
:10236000E6211E48FDF77FFF1B4806F003FC25E031
:102370001B4800790007C00F00280BD018480079CF
:10238000082188431649087100F030F815490D48B6
:10239000018713E0124800794006C00F00280DD0D5
:1023A0000F480079402188430D49087100200E49EB
:1023B000086000F03DF80B4902480187FFF72EFF47
:1023C00010BD0000C8020020480C00203C00002086
:1023D000C00800203D000020A4080020BC07002009
:1023E000D0000020881300005C00002010B50D4CC8
:1023F000DC212046FDF737FF00210B48818621466E
:10240000072006F099FE094908700846007824184C
:102410000548808E0978401881B20348818606F00D
:1024200025FD10BDC0080020C80200203D0000208E
:1024300010B53D4CDC212046FDF715FF00213B483F
:1024400081862146012006F077FE3949087008464A
:10245000007824183548808E0978401881B23348B6
:1024600081862146032006F067FE31490870084640
:10247000007824182D48808E0978401881B22B48A6
:1024800081862146862006F057FE294908700846B5
:10249000007824182548808E0978401881B2234896
:1024A00081862146042006F047FE2149087008462F
:1024B000007824181D48808E0978401881B21B4886
:1024C00081862146052006F037FE19490870084626
:1024D000007824181548808E0978401881B2134876
:1024E00081862146062006F027FE1149087008461D
:1024F000007824180D48808E0978401881B20B4866
:1025000081862146832006F017FE09490870084697
:10251000007824180548808E0978401881B2034855
:10252000818606F0A3FC10BDC0080020C802002070
:102530003D00002010B5012001F042F800280DD028
:10254000012000F0A9FF06480078002806D10121EB
:1025500004480174044803492039886110BD000013
:102560003E000020F000002060EA000010B540208E
:1025700001F026F800280DD0402000F08DFF0F4814
:10258000808D7D21C900884204DA0C48808D401C72
:102590000A498885802001F013F800280DD080209A
:1025A00000F07AFF0548C08D7D21C900884204DA19
:1025B0000248C08D401C0149C88510BDD0000020D4
:1025C00000210A4A51610A49496801225202114315
:1025D000074A51601146496808221143044A516074
:1025E0000021C209D201116070470000A00C002038
:1025F00000200240F0B589B024216846FDF733FE83
:102600003A4F09226946384600F094F96C46002595
:10261000374E28466D1C80002158304606F04EFF8C
:10262000361D28466D1C80002158304606F046FFB6
:10263000361D28466D1C80002158304606F03EFFAE
:10264000361D28466D1C80002158304606F036FFA6
:10265000361D28466D1C80002158304606F02EFF9E
:10266000361D28466D1C80002158304606F026FF96
:10267000361D28466D1C80002158304606F01EFF8E
:10268000361D28466D1C80002158304606F016FF86
:10269000361DA8002158304606F010FF304623387A
:1026A000C078002804D030462338C078FF281AD1DB
:1026B0000F48C01EC079002804D00D48C01EC07944
:1026C000FF2810D104220B490948FDF7B3FD102261
:1026D00009490748001DFDF7ADFD102207490448D0
:1026E0001430FDF7A7FD09B0F0BD000000C80008D8
:1026F0006B0C00209400002098000020A80000200F
:10270000F0B589B0202101A8FDF7ADFD334F0822B7
:1027100001A9384600F00EF901AC0025304E2846DC
:102720006D1C80002158304606F0C8FE361D284634
:102730006D1C80002158304606F0C0FE361D28462C
:102740006D1C80002158304606F0B8FE361D284624
:102750006D1C80002158304606F0B0FE361D28461C
:102760006D1C80002158304606F0A8FE361D284614
:102770006D1C80002158304606F0A0FE361D28460C
:102780006D1C80002158304606F098FE361DA800CA
:102790002158304606F092FE30461F38C07A002895
:1027A00004D030461F38C07AFF2815D10C48C01E0F
:1027B000C07C002804D00A48C01EC07CFF280BD172
:1027C0001022084906481030FDF734FD082206495A
:1027D00003480830FDF72EFD09B0F0BD00C4000825
:1027E0004B0C0020840000207C00002038B5104CE9
:1027F00001226946204600F09DF80E490098888124
:10280000084680892D214901884203DC09488089D6
:10281000012802DA1E200749888107A108A000F0DC
:10282000F1FD0448818908A000F0ECFD38BD0000EE
:1028300000D80008D0000020464C4153480000005A
:102840000A5B25735D0000005265616420466C617F
:10285000736820446576696365205265706F727491
:10286000204952496E74657276616C203A20256465
:102870006D696E001CB5194C02226946204600F0B5
:1028800059F81749009848700198887008464078B0
:10289000FE2803DC08464078012802DA0A201049A5
:1028A00048700F488078002806D00D4880780228AC
:1028B00002D000200A4988700AA10CA000F0A2FDF5
:1028C00007488078002801D00AA000E00BA002464B
:1028D000034841780BA000F095FD1CBD00CC00081A
:1028E000480C0020464C4153480000000A5B257309
:1028F0005D000000436C617373204300436C61739F
:10290000732041005265616420466C617368204405
:102910006576696365204C6F526157414E20506F58
:1029200072743A2025642C20436C6173733A20251D
:102930007300000070B503461C46002004E02568C3
:1029400086008D51241D401C9042F8DB70BD0000B4
:1029500010B517A000F056FD25A000F053FD34A0DF
:1029600000F050FD0822012141A000F04BFD00F0D5
:10297000F1F800F0A5F8FFF739FF00F029F9FFF7AB
:10298000BFFEFFF737FEFFF775FF00F061F948481B
:1029900000798021884346490871642045490870C0
:1029A00001214548017200204449087010BD000013
:1029B0000A2A2A2A2A2A2A2A2A2A2A2A2A2A2A2A97
:1029C0002A2A2A2A2A2A2A2A2A2A2A2A2A2A2A2A67
:1029D0002A2A2A2A2A2A2A2A2A2A2A2A2A2A2A2A57
:1029E0002A2A2A2A2A2A2A2A2A2A2A2A2A0A0000BB
:1029F0002A2A2A2A2A2A2A2A2A2A2A2A2A2A2A2A37
:102A00002A2A2A2A2A2A2A2A2A2A2A2A2A2A2A2A26
:102A10002A2A2A2A2A2A2A2A2A2A2A2A2A2A2A2A16
:102A20002A2A2A2A2A2A2A2A2A2A2A2A0A000000A4
:102A30002A2A2A2A2A2A2A2A2A2A2A2A2A2A2A2AF6
:102A400020484B54203A2050656F706C6520436FCE
:102A5000756E7465722053656E736F72202A2A2A10
:102A60002A2A2A2A2A2A2A2A2A2A2A2A0A00000064
:102A70002A2A2A2A2A2A2A2A2048415244574152DD
:102A8000455F5645523A20307825303278202C5315
:102A90004F4654574152455F5645523A20307825AB
:102AA000303278202A2A2A2A2A2A2A2A0A000000D2
:102AB000D000002000000020880C00203E000020F4
:102AC00038B5134C012269462046FFF733FF114900
:102AD0000098488100980A2804D32D2149010098C4
:102AE000884202D90098002803D10A4900984881F9
:102AF00003E0FF20E1300749488107A108A000F06A
:102B000081FC0448418908A000F07CFC38BD00002D
:102B100000D40008D0000020464C4153480000007B
:102B20000A5B25735D0000005265616420466C619C
:102B3000736820446576696365205265706F7274AE
:102B400020496E74657276616C203A2025646D6947
:102B50006E00000038B50F4C012269462046FFF791
:102B6000E9FE0D490098887108468079072803DC42
:102B700008468079012802DA01200749887107A1F7
:102B800008A000F03FFC0448817908A000F03AFC5E
:102B900038BD000000D00008D0000020464C415352
:102BA000480000000A5B25735D0000005265616407
:102BB00020466C61736820446576696365205265C0
:102BC000706F7274204D6F6465203A202564000098
:102BD00038B50F4C012269462046FFF7ABFE0D4980
:102BE0000098C8810846C0890B49884203DC09481F
:102BF000C089012802DA64200649C88107A109A01A
:102C000000F000FC0348C18908A000F0FBFB38BDC0
:102C100000DC0008D000002010270000464C415383
:102C2000480000000A5B25735D0000005265616486
:102C300020466C617368204465766963652052653F
:102C4000706F727420436F756E74203A2025640093
:102C50003EB5104C032269462046FFF76BFE0E4935
:102C6000009808720846007A012811D1029AD1B260
:102C7000019AD0B206F00EFA08A10AA000F0C2FB39
:102C80000A48437902790448017A09A000F0BAFBA6
:102C90003EBD000000E40008D0000020464C415337
:102CA000480000000A5B25735D000000BC0B00209B
:102CB0005265616420466C6173682054696D6520BB
:102CC0004576656E74203A202564202C416C6D6138
:102CD00054696D653A20253032643A2530326400FB
:102CE00010B5012008498871FF20E13048811E207D
:102CF00088816420C88100F043FA00F01DFA00F0DA
:102D0000ADF900F061FA10BDD00000200020394973
:102D10008969FF2201321140914208D1364949693F
:102D200002221143344A5161FF21013108433149E4
:102D30008969012252021140914208D12E49496904
:102D4000012211432C4A51610121490208432949BA
:102D50008969012292021140914208D126494969AC
:102D600008221143244A5161012189020843214963
:102D700089690122D2021140914208D11E49496954
:102D8000042211431C4A51610121C9020843194917
:102D90008969012252031140914208D116494969BB
:102DA00010221143144A516101214903084311497A
:102DB0008969012252041140914207D10E494969A3
:102DC000202211430C4A5161202108430949896995
:102DD000012212041140914208D107494969402259
:102DE0001143054A516101210904084301498861E1
:102DF0007047000000200240A00C002070B504467F
:102E000005F0C6FD05460BE0601C002808D0002C2C
:102E100004D005F0BDFD401BA04201D9032070BDC8
:102E20001F488069C007C00F0028EDD11C48806989
:102E300002210840022801D1194988611848806997
:102E4000FF2101310840884223D01548806949009C
:102E5000084088421DD012488069490008408842D5
:102E600017D00F48806949000840884211D00C48AB
:102E700080698900084088420BD0094880690901AF
:102E80000840884205D006488069491008408842B9
:102E900003D1FFF73BFF0120C1E70020BFE700009F
:102EA00000200240F0B58FB000200E9032480D9007
:102EB0000027242104A8FDF7D6F9304C002610E0A5
:102EC00020780506607800044519A07800024519AD
:102ED000E0784519241D38467F1C800004A90D5058
:102EE000361D042EECD3254C241D002610E020783E
:102EF0000506607800044519A07800024519E078BD
:102F00004519241D38467F1C800004A90D50361D2C
:102F1000102EECD3194C1434002610E0207805064E
:102F2000607800044519A07800024519E078451939
:102F3000241D38467F1C800004A90D50361D102E1C
:102F4000ECD300F017FA002000900D9801900120BA
:102F5000029000BF03A9684600F08EF90028F9D15D
:102F6000092204A90D9800F0C5F80E9000F0CAF9E6
:102F70000E980FB0F0BD000000C800086B0C0020D8
:102F8000F0B58FB000200E9032480D900027202120
:102F900005A8FDF768F9304C002610E020780506FA
:102FA000607800044519A07800024519E0784519B9
:102FB000241D38467F1C800005A90D50361D082EA3
:102FC000ECD3254C0834002610E020780506607804
:102FD00000044519A07800024519E0784519241D20
:102FE00038467F1C800005A90D50361D082EECD3F5
:102FF000194C1034002610E0207805066078000493
:103000004519A07800024519E0784519241D384675
:103010007F1C800005A90D50361D102EECD300F04A
:10302000A9F9002001900D9802900120039000BFA3
:1030300004A901A800F020F90028F9D1082205A967
:103040000D9800F057F80E9000F05CF90E980FB054
:10305000F0BD000000C400084B0C002030B585B066
:1030600000250E4C0E488089049000F083F9002062
:10307000009001940120029000BF03A9684600F06F
:10308000FBF80028F9D1012204A9204600F032F80B
:10309000054600F037F9284605B030BD00D80008D5
:1030A000D000002030B587B00025104C1048407883
:1030B00005900F488078069000F05CF900200190A0
:1030C00002940120039000BF04A901A800F0D4F8E5
:1030D0000028F9D1022205A9204600F00BF8054688
:1030E00000F010F9284607B030BD000000CC000801
:1030F000480C0020F7B582B007460D46002001902D
:103100003E46002413E0A0002A583146022000F079
:1031100009F901900198002804D13068A10069588C
:10312000884202D0012005B0F0BD361D641C049811
:103130008442E8DB0020F6E730B585B000250E4C70
:103140000E484089049000F015F900200090019489
:103150000120029000BF03A9684600F08DF8002806
:10316000F9D1012204A92046FFF7C4FF054600F06B
:10317000C9F8284605B030BD00D40008D0000020B2
:1031800030B585B000250E4C0E488079049000F0D3
:10319000F1F80020009001940120029000BF03A9E3
:1031A000684600F069F80028F9D1012204A92046F8
:1031B000FFF7A0FF054600F0A5F8284605B030BD92
:1031C00000D00008D000002030B585B000250E4C9E
:1031D0000E48C089049000F0CDF8002000900194C2
:1031E0000120029000BF03A9684600F045F80028BE
:1031F000F9D1012204A92046FFF77CFF054600F023
:1032000081F8284605B030BD00DC0008D000002061
:1032100030B587B00025154C1548007A0490144845
:10322000007A012806D113480079059011484079A9
:10323000069002E000200590069000F09BF8002028
:10324000009001940120029000BF03A9684600F09D
:1032500013F80028F9D1032204A92046FFF74AFFFA
:10326000054600F04FF8284607B030BD00E40008DE
:10327000D0000020BC0B0020F8B504460E46012704
:10328000002500BF1C48007C012801D10220F8BDA8
:1032900001201949087400BF1848FFF7AFFD074621
:1032A000002F22D1401E3060656817E02846FFF7E6
:1032B00087F91248FFF7A2FD074611484068082128
:1032C00088430F49486008464068491588430C49BF
:1032D0004860002F01D0356006E08035A068C0014D
:1032E00061684018A842E1D800BF00BF0020024931
:1032F000087400BF3846CAE7A00C002050C3000085
:103300000020024006484068022108430449486002
:103310000846406801210843014948600020704781
:1033200000200240F8B507460C461546012600BFAE
:103330000E48007C012801D10220F8BD01200B4974
:10334000087400BF0A48FFF759FD0646002E06D153
:103350000649486125600648FFF750FD064600BF54
:1033600000200249087400BF3046E6E7A00C0020A8
:1033700050C300001D484068C007C00F002816D089
:1033800000BFEFF31080014600BF72B61848174A1D
:10339000D0601848D06000BF81F3108800BF10468D
:1033A0004068C007C00F002801D0012070470F48B7
:1033B000406802221040022815D100BFEFF31080B0
:1033C000014672B60C48094A10610C481061084663
:1033D00080F3108800BF1046406802221040022887
:1033E00001D10120E2E70020E0E7000000200240D8
:1033F000EFCDAB8905040302BFAE9D8C16151413E7
:1034000000BFFEE70FB438B50498002804D0049834
:10341000FCF748FF002803D138BC08BC04B01847AB
:1034200005A800900748009A049902F073FB05462E
:1034300000200090034CA9B2204600F005F800BF20
:10344000EAE70000C805002070B500231A460446CC
:103450000FE01546561CB2B2635D074DAB6200BF6C
:1034600000BF00BF044BDB6940252B409B09002BAC
:10347000F7D08A42EDDB70BD0044004008B5054935
:10348000896B0143034A91631146896B01400091A6
:1034900000BF08BD001002400149486170470000AC
:1034A00000040140024949688143014A5160704764
:1034B00000040140024909688143014A11607047D4
:1034C00000040140024949680143014A51607047C4
:1034D000000401400249C9680143014AD1607047B4
:1034E00000040140024909680143014A1160704724
:1034F00000040140024989680143014A9160704714
:103500000004014070B504460025207900284DD004
:103510002068002850D06079002804D0012809D004
:10352000022815D10DE02068FFF7BCFF2068FFF7E7
:10353000D9FF0FE02068FFF7BDFF2068FFF7C2FF4B
:1035400008E02068FFF7CEFF2068FFF7BBFF01E02F
:10355000012500BF00BFA07900282DD0A079012847
:1035600004D002280DD003281DD115E0206813498E
:10357000C9688143114AD16000BF2068FFF7BAFFD4
:1035800013E020680D49896881430C4A916000BFAF
:103590002068FFF79FFF08E02068FFF7ABFF206877
:1035A000FFF798FF01E0012500BF05E02068FFF765
:1035B00081FF2068FFF776FF284670BD00040140B8
:1035C0000146044840690840884201D10120704703
:1035D0000020FCE70004014070B5044600250520EA
:1035E0000007844206D1012000F0F8F8012000F025
:1035F000FDF828E01548844206D1022000F0EEF8DC
:10360000022000F0F3F81EE01148844206D10420A5
:1036100000F0E4F8042000F0E9F814E00D488442DA
:1036200006D1082000F0DAF8082000F0DFF80AE000
:103630000948844206D1802000F0D0F8802000F0B4
:10364000D5F800E00125284670BD000000040050B8
:1036500000080050000C0050001C0050F0B502465D
:103660000B46002600216CE00124B440186820407D
:103670000146002964D05868012802D05868022801
:1036800016D1986894680D464D436F00ED19AC4310
:103690000D464D4345432C43946000BFDC681868D9
:1036A00055688543074667433D43556000BF00BFEB
:1036B0001869D4680D464D436F00ED19AC430D46B3
:1036C0004D4345432C43D46000BF5868022829D19C
:1036D000FF2911D85869146A0D464D434D434D4397
:1036E0002F017D1BAC430D464D434D434D43454398
:1036F0002C43146200BF15E05F69080A40430C0ABE
:1037000060430C0A60430401241A506AA0430C0A67
:1037100064430D0A6C430D0A6C437C4320435062A2
:1037200000BF00BF586814680D464D436F00ED1987
:10373000AC430D464D4345432C43146000BF00BFCE
:10374000761C1868F04000288ED1F0BD0246106942
:1037500008407047024650690840704781627047D0
:103760008161704730B503680C464C4365006419AD
:10377000A3430C464C4354432343036030BD30B550
:10378000C3680C464C4365006419A3430C464C4384
:1037900054432343C36030BD002A01D0816100E05F
:1037A0008162704708B50549C96A0143034AD1627D
:1037B0001146C96A0140009100BF08BD00100240D7
:1037C00008B50549C96A0143034AD1621146C96A6D
:1037D0000140009100BF08BD001002400249C969C4
:1037E0000143014AD1617047001002400249C96992
:1037F0008143014AD16170470010024070B5044610
:103800007D25ED0029462046FCF774FC401E044946
:103810004861002088610520086100BF70BD00007C
:1038200000E000E070B5044600BF02F0C3FA0546B0
:10383000012002F0D1FA20682021084320602846A8
:1038400002F0CAFA00BF70BDF0B585B004460D465F
:103850000120039000BF2068C007C00F012148402D
:10386000484000283AD1E968686808432969084354
:1038700021681C4A114008432060A868616803223F
:10388000120391430143616000BF6869A16812118E
:1038900091430143A16000BF900000F03BF8074650
:1038A000002F1BD02868002818D000200390029712
:1038B0002E68002E10D0FF210131029802F053F93A
:1038C0007208002380185941324601910090FCF79C
:1038D0003BFC05490840E06000BF00BF039805B00D
:1038E000F0BD0000F3E9FFEFFFFF0F0003480068A1
:1038F000FF21013108430149086070470070004012
:10390000034800690121890408430149086170479F
:1039100040100240F8B50446002500BF1948C068B1
:103920002040002820D001218902401A04D0401AEA
:1039300006D0401A17D10FE001F078FC05461DE0D3
:1039400000F0A6F8002806D000F0AAF8002801D060
:103950000D4D00E00D4D11E000F0AAF8002801D057
:103960000125ED030AE000BF01F060FC074601F00D
:1039700027FC064601F036FC054600BF00BF28467E
:10398000F8BD00004010024000093D000024F40092
:1039900002480069032109040840704740100240B2
:1039A000F8B504460025032C2FD1204600F066F818
:1039B0002104401A1ED0012804D0022806D0032872
:1039C00017D10FE001F032FC05461DE000F060F871
:1039D000002806D000F064F8002801D0254D00E052
:1039E000254D11E000F064F8002801D00125ED0319
:1039F0000AE000BF01F01AFC074601F0E1FB0646B1
:103A000001F002FC054600BF00BF0C2C2FD1204660
:103A100000F034F82104401A1ED0042804D00828ED
:103A200006D00C2817D10FE001F000FC05461DE080
:103A300000F02EF8002806D000F032F8002801D05F
:103A40000C4D00E00C4D11E000F032F8002801D0E0
:103A50000125ED030AE000BF01F0E8FB074601F095
:103A6000AFFB064601F0BEFB054600BF00BF28467F
:103A7000F8BD000000093D000024F40001460348A1
:103A8000C06808400A04104370470000401002401C
:103A90000248006804210840800870470010024076
:103AA00002480068102108400009704700100240D9
:103AB00003480069012149020840400A704700009C
:103AC00040100240024840680721490308407047FF
:103AD00000100240F8B5069CF02515402D0416078D
:103AE000360B35430D43F0261E4036021F073F0DAF
:103AF0003E433543F026264027073F0F3E433543DC
:103B00000095C569024E3540009E3543C561F8BD3C
:103B1000808080FFF0B585B005460E461446002E25
:103B20000DD1284600F0A8F9002800D002E00020BE
:103B3000206000BFE068002800D10EE00DE02846BC
:103B400000F09AF9002800D002E00020206000BFB9
:103B5000E068002800D100E000BF284600F05AF9D4
:103B6000E06800281ED100BFE86901218907884369
:103B7000E86100BF002E04D0217C284600F06AF8DE
:103B800021E0207C0A21FCF7B5FA0701207C0A21FC
:103B9000FCF7B0FA0F43F8B201460390284600F054
:103BA00059F810E000BFE869012189070843E8617E
:103BB00000BF207CE9690F221206914302061143DF
:103BC000E96100BF00BF002E08D0A07900906379A2
:103BD000227928462168FFF77DFF2BE0A0790A2192
:103BE000FCF788FA0701A0790A21FCF783FA0F4352
:103BF000F8B2039060790A21FCF77CFA070160793A
:103C00000A21FCF777FA0F43F8B2029020790A21D3
:103C1000FCF770FA070120790A21FCF76BFA0F43D1
:103C2000F8B201900398009021682846029B019AFF
:103C3000FFF750FFA068E969054A11400143E961B7
:103C400000BF284600F0EBF8002005B0F0BD0000F2
:103C50007F7F7F7F10B5F0220A4012060B071B09F9
:103C60001A43C3693F242406A3431A43C26110BD0B
:103C7000C16880221140024A1143C16070470000B0
:103C80007FFEFFFFF8B5069CF02525402D04260792
:103C9000360B35434E033543F0261E4036021F07D0
:103CA0003F0D3E433543F026164017073F0F3E4376
:103CB000354300954568034E3540009E35434560C9
:103CC000F8BD0000C00000FF014648688206920E61
:103CD000302010400009000113071B0F18437047E4
:103CE000014648681F231B021840024601200003BA
:103CF0001040000B00010F231B0213401B0A184346
:103D0000704701464868072252031040400B704735
:103D100001464868FF231B04184002460F20000597
:103D20001040000D00010F231B0413401B0C18430F
:103D30007047F7B584B00D46144601200390002D5E
:103D400009D1607810210840102804D16078EF2153
:103D500008400A306070002D00D100E000BF0498D8
:103D600000F058F8049800F05DF8012843D0002DC9
:103D700008D0E07800906378A27821780498FFF763
:103D800081FF29E0E0780A21FCF7B4F90701E07827
:103D90000A21FCF7AFF90F43FEB260780A21FCF765
:103DA000A9F9070160780A21FCF7A4F90F43F8B2DA
:103DB0000290A0780A21FCF79DF90701A0780A215A
:103DC000FCF798F90F43F8B200960190217802466B
:103DD000029B0498FFF756FF049800F012F804982D
:103DE00000F087F8002804D1049800F045F903900A
:103DF00001E000200390049800F011F8039807B048
:103E0000F0BD8021C943C1607047CA21416253217E
:103E100041627047CA214162532141627047FF21CC
:103E200041627047F8B505467D20C000009000262D
:103E3000284600F052F800281CD100BF401EE86060
:103E400000BF284600F049F804460EE000F070F983
:103E5000012802D10098401E0090284600F03DF84D
:103E600004460098002800D101260098002801D0BF
:103E7000012CEBD13046F8BD014688684022104045
:103E8000704770B504460D4601262046FFF7C2FF75
:103E90002046FFF7C7FF01281AD02868A1684022F2
:103EA00091430143A16000BFA8682169C90BC90300
:103EB0000143216100BF686821697F221204914398
:103EC00002041143216100BF2046FFF79AFF00263C
:103ED0002046FFF7A4FF304670BD0146C868402267
:103EE0001040800970470146C868202210404009F0
:103EF0007047014688682022104040097047000042
:103F0000F8B5069CF02515402D041607360B3543F1
:103F10000D43F0261E4036021F073F0D3E4335433A
:103F2000F026264027073F0F3E433543009505689E
:103F3000024E3540009E35430560F8BD808080FF0D
:103F4000014608683F231B04184002460320000571
:103F50001040000D00010F231B0413401B0C1843DD
:103F60007047014608687F231B021840024607205D
:103F700000031040000B00010F231B0213401B0A1B
:103F800018437047014608684206520E70201040E0
:103F90000009000113071B0F18437047F7B584B0E1
:103FA0000D46144601200390002D09D10498FFF717
:103FB00063FF002800D002E00020206000BF09E07D
:103FC0000498FFF759FF002800D002E0002020608D
:103FD00000BF00BF0498FFF71DFF0498FFF722FF02
:103FE000012843D0002D08D0A07900906379227970
:103FF00021680498FFF784FF29E0A0790A21FCF7E3
:1040000079F80701A0790A21FCF774F80F43FEB292
:1040100060790A21FCF76EF8070160790A21FCF744
:1040200069F80F43F8B2029020790A21FCF762F890
:10403000070120790A21FCF75DF80F43F8B20096DA
:10404000019021680246029B0498FFF759FF0498EB
:10405000FFF7D7FE0498FFF74CFF002804D104981F
:1040600000F00AF8039001E0002003900498FFF7A5
:10407000D6FE039807B0F0BDF8B504467D20C00019
:104080000090002500BFE06880210840A021C943BE
:104090000843E06000BF2046FFF725FF06460EE01C
:1040A00000F046F8012802D10098401E00902046FA
:1040B000FFF719FF06460098002800D10125009857
:1040C000002801D0002EEBD1012D1BD07D20C00097
:1040D00000902046FFF707FF06460EE000F028F8A4
:1040E000012802D10098401E00902046FFF7FBFEF9
:1040F00006460098002800D101250098002801D02C
:10410000012EEBD12846F8BD10B5084A0B069B0DD1
:10411000D2580C0C0F23A3409A430C0C0346A34027
:104120001A43024B0C06A40D1A5110BD08000140A1
:1041300003480069012109040840000C7047000091
:1041400000E000E0014908607047000078000020AE
:1041500010B50246136801208007824205D0164838
:10416000824202D01548824205D118467024A043ED
:104170004C682043034601208007824205D00E4848
:10418000824202D00D48824206D1184603242402FE
:10419000A043CC682043034613608868D06200BF08
:1041A0000888906200BF00BF50690124204350611D
:1041B00000BF002010BD00000008014000140140B5
:1041C000F0B585B004460D46012004900020039010
:1041D000204600F067F8002858D1E968686808436D
:1041E00029690843A969084321682A4A11400843FC
:1041F0002060A86861680322120391430143616053
:1042000000BF6869A168121191430143A16000BF1A
:104210002148844204D10320FFF7C2FB039006E04B
:104220001E48844203D10C20FFF7BAFB0390039889
:1042300000282BD02868002828D000200490039F55
:10424000A86902902E680121C9030298884214D1FE
:104250007900720888183146FBF74CFF80B2019054
:104260000F4901980840009001980007400F0099FD
:10427000084300900098E06006E07108C8193146D4
:10428000FBF738FF80B2E06000BF00BF049805B0C4
:10429000F0BD0000F369FFEF00380140004400402A
:1042A000F0FF000001460868C007C00F012250401F
:1042B0005040704710B500BF2448C0692021084015
:1042C0004009002823D000BF2049496AC9B20846E6
:1042D0001F49C98DFF22F532914217DA1C49CA8D58
:1042E000C98D491C1A4BD9851A49885432211A465E
:1042F00011861146C98D012908D116491A39897EBE
:10430000002903D11146C98D491ED18500BF00BFC8
:104310000E48C069C007C00F01214840484000282E
:1043200005D000BF01200949086200BF00BF00BFDF
:104330000648C06908210840C008002805D000BF11
:1043400008200249086200BF00BF10BD00480040BD
:10435000C80400200203002010B54048008800284F
:1043600012D03E480088401E3C490880012240216E
:104370003B48FFF711FA39480088002804D1002291
:1043800040213748FFF708FA36480088002812D045
:1043900034480088401E33490880012220213048DB
:1043A000FFF7FAF92F480088002804D100222021C5
:1043B0002B48FFF7F1F92C480088002812D02A4832
:1043C0000088401E28490880012208212448FFF760
:1043D000E3F925480088002804D10022082120485C
:1043E000FFF7DAF92148007800281FD0204800683C
:1043F000401C1F49086008460068E121C900884246
:104400000EDD012210211648FFF7C6F91848006892
:104410007D210901884220DD0020154908601CE04B
:10442000002210210E48FFF7B7F916E01148008866
:10443000002812D00F480088401E0E490880012233
:1044400010210748FFF7A8F90A480088002804D17E
:10445000002210210248FFF79FF910BD1400002030
:1044600000040050160000201A0000200100002067
:10447000380000201800002030B593B0A7A207CA6A
:1044800010AB07C3A8A103C90F910E90012004F03F
:1044900017FF012004F006FF04F0CAFC142000F00E
:1044A000E1FBFDF7F5F9FCF78FFFFDF7B9F9042201
:1044B0009F4908461C30FBF7BDFE10229D499C48D1
:1044C0000C30FBF7B7FE08229B499948001DFBF70B
:1044D000B1FE0422994996481C30FBF7ABFE10222E
:1044E000974993482030FBF7A5FE10229549904844
:1044F0003030FBF79FFEFDF7E9FBFDF715FAFDF7FE
:104500007BFA5A20FDF7F4FA0020FDF745FB0A205C
:10451000FDF7FCFB03210120FDF76EFBFDF7A6FB79
:10452000FF20FDF70BFBFDF7E1F9142000F09AFBEB
:10453000FCF70EFEFCF790FCFCF7EEFBFCF7BEFE72
:10454000FCF72EFDFDF75AF8FCF73EFEFDF7F2F8FA
:10455000FCF7D8FFFDF716F8FDF728F9FCF770FE19
:10456000FCF7BAFDFDF7C2F9142000F07BFB002038
:1045700004F0A6FE74A20A2110A801F09BFA6AA218
:1045800005210EA801F096FA71A0FEF73BFF00F09E
:1045900099FB04467AA0807930380A21484378A1F3
:1045A000C97940180146303975A0C07830380A22E0
:1045B000504373A2127980180246303A70A00078F6
:1045C00030380A2358436EA35B78C0180346303B4B
:1045D0006EA00079202801D1002002E06BA00079B4
:1045E00030380A25684369A56D79303D4019059337
:1045F00006920791049065A0C07930380A2148439B
:1046000062A1097A401830380A2148435FA1497AEB
:10461000303940180A2148435CA1897A3039401862
:104620005DA10EAA10AB03940092019102900822A2
:1046300001215AA0FEF7E6FE3D48C01F817A427A6A
:10464000007A3B4BDB1FDB790193039204910290CC
:104650003748C01F807900903548C01F43790279E0
:10466000C1785CA0FEF7CEFE31480C30C07B3049EB
:104670000C31897B2E4A0C32527B2D4BDB1FDB7FAA
:1046800009930A920B910C902948C01F817F407FAB
:10469000274AD21F127F264BDB1FDB7E0593069233
:1046A000089107902248C01F807E2149C91F4A7E79
:1046B000097E1F4BDB1FDB7D019303920291049067
:1046C0001B48C01F807D00901948C01F437D027D9C
:1046D000C17C4B48FEF796FE1548C01F807C1449EC
:1046E000C91F497C124AD21F127C114BDB1FDB7B96
:1046F00001930292039104900D48C01F807B0090AB
:104700000B48C01F437B027BC17A3EA0FEF77AFEB6
:104710000FA0FEF777FE13B030BD000041533932D1
:10472000335F4153320000004F544141000000000C
:104730004F0C0020840000207C000020940000200A
:1047400098000020A80000205553393135000000A2
:104750000D0A2A2A2A2A2A2A2A2A2A2A2A2A2A2AF6
:104760002A2A2A2A2A2A2A2A2A2A2A2A2A2A2A2AA9
:104770002A2A2A2A2A2A2A2A2A2A0D0A000000007E
:1047800031343A34343A3432000000004175672045
:104790002037203230323300410000000D0A536FC1
:1047A00066745665723A5625642E25645F25735FDC
:1047B00025735F436C61737325735F4C49525F25AA
:1047C000642E25642E25645F25643A25643A2564A9
:1047D0000D0A00000D0A4465764575693A253032A8
:1047E00078253032782530327825303278253032CD
:1047F000782530327825303278253032780D0A002D
:10480000089A00080D0A4170704575693A253032E2
:10481000782530327825303278253032782530329C
:10482000782530327825303278253032780D0A00FC
:1048300010B504F0ADF8A2490968884200D210BD55
:1048400004F0A6F8FF30F5309D4908609D48007AD5
:10485000030001F0A0F9050416369CD5FC009A4827
:1048600000689A49096888420AD89648007A002860
:1048700006D19448C079022802D1012191480172E1
:104880001BE1904840380078400840008D4940398D
:104890000870012004F014FD012004F003FD04F071
:1048A000C7FA142000F0DEF9002004F0FBFC6420BD
:1048B00000F0D8F900208649088002218148017261
:1048C000FBE003F09BFF00281ED003F0DEFF002872
:1048D0001AD003217B4801727E48007800280BD053
:1048E000FF20F53000F0BEF97BA17CA0FEF78AFD29
:1048F0007CA0FEF787FD49E089A178A0FEF782FD44
:1049000088A0FEF77FFD41E071480088401C704997
:10491000088083A171A0FEF775FD6D4801888CA009
:10492000FEF770FD6A480088F0282FDB00206849F8
:1049300008806848007800281CD0FF20F53000F07F
:1049400091F965A165A0FEF75DFD89A0FEF75AFD0E
:10495000FF20F53000F086F95FA160A0FEF752FD60
:1049600092A0FEF74FFD04215648017200205949DC
:1049700008700BE098A159A0FEF744FD98A0FEF73F
:1049800041FD02214F48C1710421017295E0514857
:104990000078002811D000204E4908707D20C0000A
:1049A00000F060F94CA14DA0FEF72CFD94A0FEF79D
:1049B00029FDFF20F53000F055F9424840380078D5
:1049C00040084000401C3F49403908700020984989
:1049D00008703F49088000213A480172C1710022E5
:1049E00020219448FEF7D8FE7D20000192490880DE
:1049F00092480079402188434030904908715CE03A
:104A00000021304801720221C1712F4800682F49EE
:104A1000096888424CD886480078401C8449087050
:104A200008460078052801DD0520087080480078D8
:104A3000030001F0B0F8062C040D151D252C2348A9
:104A40000068E121C90040181F49086026E033E0F2
:104A50001E480068E121090140181B4908601DE05B
:104A60001A480068E121490140181749086015E01B
:104A700016480068E121C9014018134908600DE09B
:104A8000124800686E4940180F49086006E00F4858
:104A900000686B4940180C49086000BF00BF20A1A6
:104AA0000EA0FEF7AFFC0848016866A0FEF7AAFC5E
:104AB000002004F005FC00E000BF00BF00BFBEE620
:104AC000C0000020880C0020BC00002060000020F6
:104AD000C40000203E00002041434B000A5B2573C8
:104AE0005D000000666163746F72794D6F646520CC
:104AF00050656F706C6520436F756E7465722053DE
:104B0000656E736F7220537465703A4C6F526120FA
:104B100052656769737465722053756365737300BA
:104B20004C4F47002050656F706C6520436F756E69
:104B30007465722053656E736F72204C6F526120E2
:104B4000526567697374657220537563657373008A
:104B50004C6F526157414E205761697420456E7405
:104B6000657220496E204E657420256400000000A7
:104B7000666163746F72794D6F64652050656F7004
:104B80006C6520436F756E7465722053656E736F2C
:104B90007220537465703A4C6F5261205265676998
:104BA00073746572204661696C000000666163740D
:104BB0006F72794D6F64652050656F706C6520432E
:104BC0006F756E7465722053656E736F72205374C7
:104BD00065703A45786974005741524E00000000F4
:104BE0004C6F526157414E20456E74657220496E7C
:104BF000204E65742054696D656F75742100000046
:104C0000666163746F72794D6F64652050656F7073
:104C10006C6520436F756E7465722053656E736F9B
:104C20007220537465703A46696E697368000000BB
:104C3000B80000200004005016000020D000002022
:104C400080510100557064617465205265636F6E18
:104C50006E6563742054696D657374616D703A207C
:104C6000256C640010B50446A0B204F019F810BD1C
:104C700070B504462046FBF715FB85B22946204651
:104C800000F002F870BD0000F8B504460D4600269D
:104C90002746FBF7C7FE0FE03146721C96B2785CE0
:104CA0000749886200BF00BF00BF0548C0694021B6
:104CB000084080090028F7D0AE42EDDBF8BD0000C7
:104CC000004800401FA1897870292ED00CDC67298C
:104CD00029D004DC622918D063292ED12BE06C295D
:104CE0001FD06E2929D108E0722910D074291ED056
:104CF00076291ED0792920D111E012A149786129A5
:104D000001D1012000E0062019E0022017E00DA1EA
:104D10004978612901D1032000E004200FE005203B
:104D20000DE007200BE0082009E0092007E00A2039
:104D300005E00B2003E00C2001E0002000BF00BFD5
:104D40007047000041756720203720323032330031
:104D500000BFFEE77047000010B503F019FE1549CB
:104D60000968884200D210BD03F012FEFF30F53012
:104D7000104908601048808DFA2803DB0E48C08D6A
:104D8000FA2803DAC8200D49088003E07D20C0001E
:104D90000B4908800BA10CA0FEF734FB0648C28D1E
:104DA000818D0BA0FEF72EFB002003498885C88566
:104DB00000BFD8E730000020D00000201A000020FB
:104DC000140000204C4F47000A5B25735D00000073
:104DD0005B416C69676E6D656E74206D6F64655DB7
:104DE00020496E6672617265642053656E7365203A
:104DF000436F756E7420413A2025642C20436F75F3
:104E00006E7420423A2025640A00000010B503F0B9
:104E100049FD012816D11A48008F002812D11948DF
:104E20000078C007C00F002809D116484030C0796B
:104E3000022807D113484030007A002802D1002010
:104E400004F03EFA10488079C007C00F002816D041
:104E50000D482030007C032811D10B4880893C216B
:104E600048430949896A884209D80020064988626E
:104E7000084600790821884308300349087110BDAD
:104E8000C8020020480C0020D000002010B5A04827
:104E90000068401C9E4908609E48007C012802DC96
:104EA0000020086032E10A2199480068FBF722F9E6
:104EB0000029F7D196480068974988423DD997481C
:104EC00000689749884203D39648006888421FD2F9
:104ED000904820380079C009002810D18D4820382A
:104EE00000798021884380308A492039087108463A
:104EF000007904218843001D8649203908718848BB
:104F000089490860002089490870894908700DE0C6
:104F1000804820380079C009002807D07D48203813
:104F20000079802188437B49203908710020784925
:104F300008607A4908607B4908607B48006800285F
:104F400005D079480068401E77490860C9E0774875
:104F50000078002821D16F482038808D04280BDA92
:104F60006C482038C08D6B492039898D884203DD1B
:104F700001206E4908703BE066482038C08D042847
:104F800036DA64482038808D62492039C98D8842DC
:104F90002EDD0220654908702AE05E482038C08D69
:104FA000042810DA5B482038808D5A492039C98D91
:104FB000884208DD5D480078012804D15B4800780C
:104FC0005B49087014E053482038808D04280FDABC
:104FD00050482038C08D4F492039898D884207DDDF
:104FE00052480078022803D1504800785049087090
:104FF00048482038808D042873DD46482038C08D0D
:1050000004286EDD4A480078002865D014204649FF
:10501000086047480078012813D1C8204549088016
:10502000454908803B482038C08B401C394920390D
:10503000C8830846406A401C4862002135484174D4
:1050400016E03B480078022812D1C8203A4908806F
:105050003A4908802F482038808B401C2D49203940
:1050600088830846006A401C08620121294841746F
:105070002848203800790007C00F00282CD1254887
:10508000007C032828D1234820388079042809DBB4
:105090002048203800790821884308301D492039EC
:1050A000087119E01B4820388079022814DB194860
:1050B0002038808B17492039C98B40181549203971
:1050C000C989884208DB13482038007908218843C1
:1050D000083010492039087100201449087014491B
:1050E00008700C482038808D0C49096840180B491D
:1050F000086008482038C08D0A49096840180949E5
:1051000008600020034920398885C88510BD00004B
:1051100020000020F00000202F7500002400002057
:10512000B80B0000280000201C0000202C000020EC
:105130002D00002014000020160000201A0000207E
:105140001C488069002834D01A488069401E1949DB
:1051500088610846806900282BD108462030007CF1
:10516000012804D002280DD003281CD11AE0022106
:1051700010482030017410480E498861002088834F
:10518000C88315E003210B48203001747D20000105
:105190000A490880074800790821884308300549F2
:1051A000087105E004E0032102482030017400BFCB
:1051B00000BF7047D0000020C0D4010016000020BE
:1051C000014600BF0548C068F022104010400009A9
:1051D000034A125C0846D0407047000000100240AD
:1051E000BC950008014600BF0548C06807221202AE
:1051F0001040000A034A125C0846D0407047000085
:1052000000100240CC950008014600BF0548C06868
:105210000722D2021040C00A034A125C0846D0405E
:105220007047000000100240CC95000810B500BF88
:105230001648C0680C210840002806D004280CD06D
:10524000082812D00C2816D111E0FEF73BFC400BC9
:10525000401C01218140CC0315E0FEF721FC002811
:1052600001D00B4C00E00B4C0DE00B4C0BE000F0C0
:1052700015F8044607E0FEF725FC400B401C012111
:105280008140CC0300BF00BF204610BD001002408B
:1052900000093D000024F40000127A00F8B500BFB8
:1052A0001448C0680121090408400546002D07D1B3
:1052B000FEF7F6FB002801D00F4C00E00F4C01E098
:1052C0000F4C00BF00BF00BF0A48C068032189051A
:1052D0000840800D461C0748C0680F21890408401B
:1052E000800C0849085C604307463146FAF702FF24
:1052F000F8BD00000010024000093D000024F40049
:1053000000127A00D49500081FB5012040041A4904
:10531000486100BF00BF1948C06889150840000AED
:10532000002828D01548FEF7A3FC1548007A01286C
:1053300021D100201249086248621249124803F044
:10534000E1F912A112A0FEF75DF80F4800780D49AF
:1053500089790C4A52790B4B1B7900930192029187
:105360000390094883784278C0787D24240101198C
:105370000948FEF747F81FBD00040140002800401F
:10538000D000002068000020640000204C4F47003F
:105390000A5B25735D0000001099000800B587B016
:1053A0000020049005900690029003900190FEF773
:1053B000A7FA0021022000F0BDFC0220002805DB36
:1053C000C206D20E01219140194A116000BF01208E
:1053D0004004184909680143164A116000BF00BF24
:1053E000114689680143916000BF002004907F202E
:1053F0000590FF20069004A90F48FEF742FD00210A
:10540000684601734173817302AA01210A48FEF7BD
:10541000C5FD012168460171417181712221C1716F
:1054200001AA01210448FEF784FC07B000BD00007A
:1054300000E100E0000401400028004008B51848E1
:105440000078002803D117480078002800D008BD54
:105450001548007C012802D1FFF77EFC01E0FFF730
:10546000D5FC1248006812490968884200D9EEE765
:105470000F480068C01C0D4908600EA10EA0FDF782
:10548000C1FF09482038406A009007482038C38B84
:10549000026A818B0A48FDF7B5FF00BFD7E700001D
:1054A0003E0000203F000020F000002034000020DB
:1054B00060000020495200000A5B25735D00000077
:1054C0007C9600087047704710B500207349096842
:1054D000490849000143714A116000BF00BF00BF85
:1054E0006E480068C007C00F0028F8D10320C00232
:1054F0006B490968024691430143694A116000BF44
:1055000000BF68480068911508436649086000BFFD
:1055100000BF00BF63480068012149020840400AFB
:105520000028F6D0052040035E494968072252034F
:10553000914301435B4A516000BF00201146496816
:105540000902090A02061143564A516000BFFEF7DC
:10555000CDF9FEF71DFA01210904884214D000BFDD
:10556000504840300069C90008434E494031086145
:1055700000BF00BF084600690121C90488434949AA
:105580004031086100BF00BF002046494031096931
:105590000322D20291430143424A4032116100BFCB
:1055A00000BF10460069911508431146086100BF0D
:1055B00000BF00BF3B48403000690121490208405C
:1055C000400A0028F5D0FEF7E3F9012109048842DA
:1055D0000CD0084633494031096903221204914333
:1055E0000143304A4032116100BF00BFFEF788F925
:1055F00000202C49C968F02291430143294AD16017
:1056000000BF00BF1146C96807221202914301433F
:10561000244AD16000BF00BF1146C9680722D202E8
:10562000914301431F4AD16000BF00BF1146C968C2
:10563000890889000143D16000BF00BF00BF19483D
:10564000C0680C2108400028F8D11748FEF7D6F8AA
:105650001548FEF777FD154812494031C968020C1C
:10566000914382B211430F4A4032D16000BF002003
:105670001146C9680322920291430143094A40320C
:10568000D16000BF00BF0749C9680122D20391431E
:105690000143044AD16000BF10BD00000020024059
:1056A000007000400010024068FF1F0004000C0062
:1056B0007047000010B549480068401C4749086021
:1056C00047480068401C464908601E2003F06AFEF7
:1056D000424800683B287FDD0020404908600846BA
:1056E0004068401C48603F480068401C3D490860D5
:1056F0003D49498988420DD33B484089002809D05B
:1057000000203849086038480079402188434030FB
:1057100035490871314840683B285DDD00202F493C
:10572000486008468068401C886030480068401C1B
:105730002E4908602948806817284DDD0020274938
:1057400088600846C068401CC86008468069401CE4
:10575000886108468069062801DD002088611F48AD
:10576000006980002249085C224908701B4844698E
:10577000E017800F001980108000201A06D1174909
:1057800048696421FAF7CCFC002907D1134948691C
:10579000FF219131FAF7C4FC002904D115480078A3
:1057A000401C144908700D48C068124909788842A5
:1057B00012DD01200949C86008460069401C0861E3
:1057C000084600690B2807DD00200861084640698B
:1057D000401C00E000E0486110BD0000900B00207C
:1057E000600000205C000020D00000205800002055
:1057F0008C9500087000002010B539480068401CE6
:105800003749086037480088401C364908803648C8
:105810000068401C3449086034480068401C334923
:10582000086033488089002805D031488089401EAF
:1058300081B22F4881812F48008E002804D02D4846
:10584000008E401E2B4908862B48008F002805D06B
:105850002948008F401E81B22748018727480088C9
:10586000002804D025480088401E244908801F488D
:1058700000687D21C900884207D300201B490860C9
:105880001F480068401C1E490860154800687D21BB
:10589000C90088421CD3002011490860194880794A
:1058A000C007C00F002805D01648806A401C154963
:1058B000886202E00020134988621248406900288B
:1058C00004D010484069401E0E494861FFF7F2FEBF
:1058D000FFF7DCFAFEF740FDFFF732FC10BD0000D9
:1058E00074000020540000204800002050000020D8
:1058F000BA050020C8040020C802002002000020D1
:105900004C000020D000002008B501200E49496B52
:1059100001430D4A51631146496B0140009100BF9C
:1059200000BF00071146896B014391631146896BE3
:105930000140009100BF00BFFDF7D8FF0321081F01
:1059400000F0F8F908BD00000010024010B500BFDB
:105950000120C0430249086100BFFFF74DFF10BDA1
:105960000010004030B585B004460D46002001907F
:1059700002900390049010202A49896B0143294A20
:1059800091631146896B0140009100BF00BF002167
:10599000112000F057F91120002805DBC206D20EB5
:1059A00001219140204A116000BF681E694688802D
:1059B00000200290601E039001A91C48FEF7C8FB5E
:1059C00000BF1A480068802108431849086000BFDA
:1059D00000204968702291430143144A516000BF7E
:1059E00000BF10468068802188431146886000BF50
:1059F00000BF08460068012108431146086000BF47
:105A000000BF08460068022188431146086000BFB5
:105A100000BF0846C068012108431146C86000BFA6
:105A200005B030BD0010024000E100E00010004071
:105A300000BF1E48C069202108404009002815D039
:105A400000BF1A49496AC9B20846194949896429F7
:105A50000BDA17494A894989491C8BB214494B8191
:105A60005A39885414225A318A8100BF00BF0F4826
:105A7000C069C007C00F012148404840002805D038
:105A800000BF01200949086200BF00BF00BF0748EE
:105A9000C06908210840C008002805D000BF0820C0
:105AA0000249086200BF00BF704700000044004088
:105AB000BA0500200FB47CB50C0009AD01D0611E01
:105AC00000E0002101910090074B6A4629460898A2
:105AD00000F040FA002C02D0009A002111707CBC2A
