:020000040800F2
:10000000401D0020D5000008E97C00087D6F000835
:1000100000000000000000000000000000000000E0
:100020000000000000000000000000003D8000080B
:100030000000000000000000E3000008E5000008E8
:10004000E7000008E7000008797E0008E7000008E4
:10005000E700000825300008E7000008E700000876
:1000600000000000E7000008E7000008E7000008C3
:10007000E7000008E70000080000000041850008D4
:100080000000000051850008000000000000000092
:100090003185000800000000E7000008E7000008C4
:1000A000E7000008E7000008E7000008F98B0008F7
:1000B0004D8C0008C5720008000000000000000020
:1000C0000348854601F072F800480047BDBE0008AD
:1000D000401D00200448804704480047FEE7FEE733
:1000E000FEE7FEE7FEE7FEE7B5830008C100000873
:1000F00030B50B46014600202022012409E00D46C0
:10010000D5409D4205D31D469540491B2546954047
:1001100040191546521E002DF1DC30BD70B500248B
:100120002546002801DA01244042002901DA012590
:100130004942FFF7DDFFAC4200D04042002C00D026
:10014000494270BDF0B51FB40646002082B0054696
:100150004024019100901BE0019922460F46304651
:1001600000F0B6FE049A059B801A994110D3104600
:100170001946224600F09CFE361A8F41019722460E
:1001800001200021009F00F093FE38184D4100909F
:100190002046641E0028DFDC019B00982946324679
:1001A00007B0F0BD00487047A0CE000810B5044667
:1001B000FFF7F8FF0068005DC007C00F10BD00002A
:1001C00010B5024900F004F810BD00001015002021
:1001D00070B50C4600683C21FFF78AFF21603C2186
:1001E000FFF786FF61601821FFF782FF0546A160D7
:1001F0000721001DFFF77CFFA1610F48A900081827
:100200000E49FFF775FF0246443288086261E061DB
:100210003B2802D3910700D0401C0021084B0A461E
:100220002161995C814203D8401A521C2261F8E78F
:10023000401CE060204670BD6C0B0000B50500005E
:10024000A4CE000838B50446C0681821401E4843B3
:10025000A16840183C214843616840183C2148434C
:100260002168451860690C214843216940186921BB
:10027000C900401A3021FFF751FF114A504342197B
:10028000084600921A2902DB0E49511800910C21F0
:10029000FFF744FF0C4A5043009A801800900B4827
:1002A00006E0491E425C074B5A43009BD21800925D
:1002B0000029F6DC21466846FFF78AFF009838BD22
:1002C000801F8607805101008033E101B0CE000815
:1002D00070B50546002900D10721541AFF206E3061
:1002E000241D844209DB286800F03DF9A04204DCAB
:1002F0002868401C2860012070BD002C05DA2868A1
:10030000401E286000F02FF9041907212046FFF74E
:1003100005FF401C70BDFFB589B009981D4600243B
:1003200002920890A20002AB99580878491C995093
:1003300000280DD0252810D00A9901290AD9099939
:1003400008700998401C09900A98401E0A90F6E02F
:10035000641EF4E000200DB0F0BD0878491C9950EF
:100360000028F5D03021022607915A28EFD020DC52
:100370004D287BD014DC442842D008DC2528DBD073
:1003800041282AD042282ED04328E0D130E0462808
:100390003DD047284ED0482857D04928D7D156E0DD
:1003A0005238030008F0EFFC087779A1838693A107
:1003B000A3CB6138030008F0E6FC190E14192125BF
:1003C000C22F14C253C2C2565BC261C26CC27274E5
:1003D000C287969BC2006FA000E075A0A969069134
:1003E000BCE082A000E08D482969F8E78CA140E0DC
:1003F00064216869FFF792FE13307CE0E8687AE0D8
:100400008BA105E0E86806902020079074E08BA19E
:10041000641CA200995092E08B4869690818069004
:1004200006A8EA69A969FFF753FF64210698FFF758
:1004300075FE12E08448696904260818069006A82B
:10044000EA69A969FFF744FF56E0A86853E0A86885
:100450000C211730FFF762FE491C06914CE005E0C5
:100460000326E86900E02869401C44E0686842E02F
:1004700076A1641CA20002A8815060E0A8680C2844
:1004800001DA73A000E073A0641CA20002A98850E6
:1004900055E071A1EDE773A1EBE728682BE073A1AC
:1004A000E7E7A8690126002825D1072023E0A969EC
:1004B000E86912E0644869690818069006A8EA69C4
:1004C000A969FFF705FF16E00126A86913E0A869EE
:1004D0000721801DFFF722FEE869401A0721C01D91
:1004E000FFF71CFE07E052A1C3E761A1C1E70426A4
:1004F000554869690818069000206946087101AFDF
:1005000015E00A210698FFF709FE30317F1E397089
:100510000A210698FFF702FE0690002807D102E0A4
:100520007F1E079838703046761E0028F8DC30466B
:10053000761E0028E5DC641CA10002A84750002CB0
:1005400000DBEFE609990020087008990998401A25
:1005500001E70178401C0029FBD106994A1E06924A
:100560000029F6DC90E710B5044681070BD1642121
:10057000FFF7D4FD00290AD1FF2191312046FFF772
:10058000CDFD002903D00020FF306E3010BD0120CA
:10059000FAE7000053756E004D6F6E0054756500EC
:1005A00057656400546875004672690053617400B1
:1005B00053756E646179004D6F6E64617900547596
:1005C0006573646179005765646E65736461790071
:1005D0005468757273646179004672696461790068
:1005E0005361747572646179000000004A616E00A5
:1005F000466562004D617200417072004D61790084
:100600004A756E004A756C0041756700536570004D
:100610004F6374004E6F760044656300BCCE0008E3
:1006200025612025622025652025542025590000BC
:10063000256D2F25642F25790000000025592D25D3
:100640006D2D2564000000006C0700000A0000000A
:10065000414D0000504D000025493A254D3A2553A3
:100660002025700025483A254D00000009000000B3
:1006700025483A254D3A25530000000003460B4318
:100680009B0703D009E008C9121F08C0042AFAD248
:1006900003E00B780370401C491C521EF9D27047CE
:1006A000D2B201E00270401C491EFBD2704700220A
:1006B000F6E710B513460A4604461946FFF7F0FF61
:1006C000204610BD421E5378521C002BFBD10B78E4
:1006D0001370491C521C002BF9D1704730B50546E8
:1006E0002A460B4610781C78521C5B1C002801D04F
:1006F000A042F7D0002C03D0002802D06D1CEFE7F9
:10070000284630BD421C0178401C0029FBD1801ACC
:10071000704730B504460020034600E05B1C93425E
:1007200003D2E05CCD5C401BF8D030BD10B5044670
:1007300000E0401C0378002BFBD100E0401C521E5F
:1007400004D30B78491C0370002BF7D100210170F2
:10075000204610BD70B5104D002800D12868002437
:1007600014E00A4602E09E4203D0521C1378002B8C
:10077000F9D1DAB2224307D0002B06D0002C04D0E6
:1007800000210170401C04E00446401C0678002E45
:10079000E7D12860204670BDBC00002010B503469C
:1007A000002004E01C70401C491C521E5B1C012AE6
:1007B00002D90C78002CF5D1002A04D000221A703E
:1007C00001E0401C491C0A78002AFAD110BD10B57E
:1007D0000346002002E0401C521E5B1C002A15D07C
:1007E0001C78002CF7D104E01C70401C491C521EE0
:1007F0005B1C012A03D90C78002CF5D101E0002AFA
:1008000004D000221A7001E0401C491C0A78002A1A
:10081000FAD110BD70B5064608F0F6FA0468054630
:100820000A220021304600F0C9FB2C6070BDF8B5EB
:1008300002464A40D40F42004B0052085B089A42DD
:1008400002D20246084611464A0023D0C30D4A0090
:10085000DDB2120EAD1A202D35DA49020126490A01
:10086000F6058A19002C00D0524220214F1B114658
:10087000B9402A411018C20D9A4221D0002C17D03D
:10088000012D08DCDA05801AD20F8019D207DBB2FD
:1008900000F0D4FBF8BDDA05801A012340001B06E6
:1008A000C01880185A428018CA0F1043490007E048
:1008B0004908C2071143DA05801A801940088018D8
:1008C00000F0B4FBF8BD61000122511A001BF7E7EC
:1008D0000122D2075140AAE70122D2075040A6E7E1
:1008E000024670B54A40D30FDB0740002DD04A00C6
:1008F0002AD0010E140E000212020919400A520AEF
:100900008418E50104465443000A120A2E04504399
:10091000A4194219200CC543AA18120C0125AD03D5
:10092000521C521912047F39240400D0521C104367
:1009300001D44000491EC2B20C06C0092018401C58
:100940004008802A02D003E0002070BD400840002B
:10095000002900DA0020184370BD70B502464A40F5
:10096000D50F40004A00ED0740085208002814D077
:10097000002A12D0C40DD30D41020120C00552023D
:10098000490A520AE41A091812187D34914201D317
:10099000641C00E04900002C01DA002070BD002337
:1009A000914201D3891A0343400849000028F7D136
:1009B00000290AD0914202D10121C90705E09142E4
:1009C00001D2012101E00121C943E005C01840190D
:1009D00000F02CFB70BD420005D04200120E5242C6
:1009E0008A4201DB00207047C905081870470000E3
:1009F000F0B507460846584087B0C00F049048003D
:100A00000E46590040084908BC1A884105D23846AC
:100A100031461E4617460B46024658004008104312
:100A20004CD0300D039040055900400D490D059004
:100A3000401A0290402872DA18030121000B0905C0
:100A40000843019004980092002805D00199524271
:100A50000020884100920190029840210A1A0199D1
:100A6000009800F025FA05460C466B4607CB00F0CF
:100A700040FAC0197141039A0E0D0023D717564052
:100A80001A467A40164344D0049A002A2DD0029A7E
:100A9000012A039A15DC1205C01A91410126360578
:100AA000001C7141D20F059ED2070093019202965D
:100AB0002A46234600F008FB07B0F0BD3846314611
:100AC000FAE71605224A0F46B218C01AB7410121AB
:100AD0000905001C4F4100187F4111461818794143
:100AE000E20F10436D19644113E0E2076D081543EE
:100AF0006408C2071443039A01261205C01A9141E3
:100B00003605001C7141CE07400830434908C01823
:100B100051412A46234600F0CAFACDE7FFE7049880
:100B200001224000C117121A00238B41049831465C
:100B3000C417381AA141EEE730B40124E40763403A
:100B400030BC55E730B40124E407614030BC4FE7C6
:100B50000000E0FFF0B51FB488B00B99099800249D
:100B600048400999C00F490049080991C0070B99ED
:100B70000090490049080B9109990898A646084336
:100B80001CD00B990A98084318D0099801244000FA
:100B9000420D4800410D099824050003000B204335
:100BA00009900B980003000B20430B9050181C4930
:100BB0004018002201901446104605E0002001462E
:100BC0000DB0F0BD032801DA034600E003239C4684
:100BD000C11A0AAE0AE05F0008ADED5B4F00F75B9B
:100BE0007D430027AA187C41491C5B1E6145F2DD4C
:100BF000410004AB5A522104120C0A43240C401C3D
:100C00000828DFDB0198029000997046019100905E
:100C1000059B049A0799069800F056FAD0E7000061
:100C20000DFCFFFFF0B50C465C4085B0E40FE40717
:100C300003944C0000266408590094464908024673
:100C40000296224321D062460A431ED06200570D0D
:100C50004A000E032303550D012402462C492405A6
:100C6000781B1B0B360B401823432643614600902C
:100C70001C46501AB44103D30098401C009002E077
:100C8000921800985B41002803DA0020014605B065
:100C9000F0BD0020012109050746864611E06446A3
:100CA0001D46141BB54106D36546521BB34174461D
:100CB00007430C43A646CD0740084908284392182D
:100CC0005B4105460D43EAD11046184313D06046F8
:100CD000194650407140084306D06046101AB3418F
:100CE00006D20122002306E000220123DB0702E0F6
:100CF0000122D2435310009874460105381C61410B
:100D0000029C039D0019694100F0D1F9BFE7000082
:100D1000FD030000C217C10F504010B54018CA07AC
:100D20009623002100F08AF910BD10B50022962309
:100D3000114600F083F910BD0EB5C217C10F504027
:100D4000CA0740180021054B0293019200910A4600
:100D50000B4600F0B9F903B000BD000033040000F9
:100D60000EB505490291002100910A460B460191FA
:100D700000F0AAF903B000BD3304000070B5CD0F38
:100D80004A0009030123090B1B0519430B4BED070F
:100D90000024520D9A4201DA002070BD074B343313
:100DA0009A4203DC9A1A00F093F802E004495118C1
:100DB00088402C43F1D0404270BD0000FF0300008A
:100DC000CDFBFFFF4A0009030123090B1B05194353
:100DD000094B10B5520D9A4201DA002010BD064BA6
:100DE00034339A4203DC9A1A00F072F810BD0349BA
:100DF0005118884010BD0000FF030000CDFBFFFF2D
:100E0000C20FD207400040080BD0C10D0723DB0101
:100E1000C91840020905400A1143C208400711439E
:100E2000704700200146704710B5002904DB0124FB
:100E3000E40740428C412146002B04DB1C46012381
:100E4000DB075242A3418B4200D1824210BD000019
:100E500010B5002904DB0124E40740428C412146FF
:100E6000002B04DB1C460123DB075242A3419942BD
:100E700000D1904210BD0000CB0FDB07490010B538
:100E8000490802460A4307D00A0D07240903E40172
:100E9000090B121B002A01DC002010BDC900440F01
:100EA0000C43C100E018D205801800F0BFF810BD57
:100EB00010B5202A04DB0146203A9140002010BDE5
:100EC000914020239C1A0346E3401943904010BDF3
:100ED00010B5202A04DB0846203AD040002110BD7E
:100EE0000B46D340D0402024A21A91400843194613
:100EF00010BD10B5202A06DBCB170846203A10415A
:100F0000C1170B4306E00B461341D0402024A21A20
:100F100091400843194610BD0FB400B589B00CA923
:100F200000910B990023CB60204B214A0693079236
:100F3000042201921F4A02921F4A089202466B46FF
:100F4000002000F0D4F909B008BC04B0184770B50F
:100F500086B006460020C0430190002015460C468E
:100F60000091029104903246694604A8FFF7D4FF2D
:100F7000024604982118002D05D0002801D008460B
:100F800000E020462860049800280DD0002A02DDE9
:100F90000098884208D0081B0190009432466946A8
:100FA000029404A8FFF7B8FF06B070BD451500080D
:100FB00065150008FFFFFF7FAD010008F7B5009C35
:100FC0000F4600262578641C002D05D0FFF7EAF8AF
:100FD0000068405DC007F5D12B2D02D02D2D18D013
:100FE000641E39462046029A00F0CEFA002F04D043
:100FF0003968A14201D100993960710502240029A4
:101000000BDA4042002803DD07F0FEFE0460A00773
:10101000FEBD012080020643E3E70028F8DA07F06E
:10102000F3FE04600048FEBDFFFFFF7F002904DAE5
:10103000401C490001D140084000704770B40024B2
:10104000050C05D11024000402D1002921D011245F
:10105000050E01D100020834050F01D10001241D45
:10106000850F01D18000A41C002801DB4000641C16
:10107000002908D020252E1B0D46F540A14000D0A8
:1010800001212943084301061B1B000ADB1D02D571
:10109000002070BC7047DB05181880180029F8DAAA
:1010A000401C4900F5D170BC40084000704710B5A5
:1010B000002B08DA0024401C614192185B411A435E
:1010C00001D14008400010BDF0B51FB482B0054604
:1010D0000C0003D0084607F027FE02E007F024FECC
:1010E00020300246009021462846FFF7E1FE049B8F
:1010F000059A04460F4618431143084314D0184676
:1011000010431BD0009840210A1A18460599FFF792
:10111000DFFE05460E46009A05990498FFF7C8FEC3
:10112000084305D0012004E02046394607B0F0BD51
:101130000020C11705430E432C43374300990E98F6
:101140006305401A7905E40A00220C43FD0A0A30BF
:1011500002D500200146E9E70105101969410C9C00
:101160000D9D00196941FFF7A2FFDFE74A0009035F
:101170000123090B1B0519430A4B10B5520D9A4266
:1011800002DA0020014610BD064B34339A4203DCDC
:101190009A1AFFF79DFE10BD034BD218FFF788FE89
:1011A00010BD0000FF030000CDFBFFFF064C012532
:1011B000064E05E0E36807CC2B430C3C98471034FF
:1011C000B442F7D3FEF780FF10D4000830D40008F3
:1011D000FFB5087889B01546FF2805D0491C2D2891
:1011E00004D00022002407E000240BE00122F9E7EC
:1011F0000A235C430419491C0878FF28F8D1002A07
:1012000000D06442002004902A7801462D2A01D0A3
:101210002B2A0FD16D1C2D2A02D00022049209E046
:101220000122FBE700260A2233466D1C00F0FFF97D
:10123000381871412F78FF2FF4D10C9AA21806921A
:1012400002460A4304D0FF23069A9133DA4205DAB4
:10125000002109980A4606C00DB0F0BD0024B74A27
:10126000B54D2646079200F02FFA0290069803919A
:10127000002801DA474200E0074639050020AF4A5E
:10128000001C51410191009012E0F80707D022465E
:101290002B4630460799FFF75DFC0646079122462C
:1012A0002B4610461946FFF755FC04460D467F10A5
:1012B000002FEAD10698019B0028009A0399029812
:1012C00006DAFFF7AFFC3246079BFFF7ABFC05E001
:1012D000FFF740FC3246079BFFF73CFC049A002ACC
:1012E00002D00122D2075140099A03C2B4E7FFB5E8
:1012F00091B0002009900025ED432E209E685C6887
:101300001F460190B9696D1C129888470090396A90
:1013100088470028F6D10098401C0AD00D20C00153
:101320008443002E12DD00982B2809D02D280DD1E2
:1013300003E00020C04315B0F0BD0120800204434B
:10134000B9696D1C12988847761E009003A9600544
:1013500001D52D2000E02B206A461073491C0CA8F3
:101360000F9102900AE0B9696D1C129888470090AD
:101370000120400204431398761E0560002E02DD12
:1013800000983028EFD001990098884246D18020FB
:10139000044308E00998401E0990012040020443DC
:1013A0001399681C0860B9696D1C761E12988847ED
:1013B00000903028EED031E00199884205D1200616
:1013C00003D480200443761E1EE0009807F002FE3E
:1013D000002826D001204002044307A90F980331BA
:1013E000761E88420BD200980F99303808700F98FB
:1013F000401C0F90200607D50998401E03E02006E8
:1014000002D40998401C0990A00502D51399681CC4
:101410000860B9696D1C129888470090002ECBDCDB
:1014200059E0002E57DD0098652801D0452852D19B
:10143000A00550D5032000028443B9696D1C761EB7
:10144000129888470090002E0CDD2B2804D02D2800
:1014500008D1FF2001300443B9696D1C12988847F8
:10146000761E0090E00501D52D2100E02B21029889
:1014700001700298401C0290019025E0012040027A
:1014800004430EA902980131761E88420ED20098BC
:10149000029930380006000E087003D102990198B5
:1014A00081420AD90298401C029006E0E00501D56D
:1014B000234801E0224840420990B9696D1C129806
:1014C0008847009013980560002E04DD009807F00F
:1014D00081FD0028D2D1F969129888470F99FF2021
:1014E0000870029903AA087000200A900B900CA9BA
:1014F0000AA8099BFFF76CFEA00502D40120C04397
:1015000019E72420044209D0E00713D138680B9A68
:101510000A99031D3B60006806C00BE00B990A980E
:10152000FFF7AAFC0146E00704D13868021D3A60C3
:10153000006801602846FEE6000014400000F03F0D
:10154000F1D8FFFF4268002A08D001680B78491CD7
:10155000002B03D0521E06C0184670470121C160FF
:10156000881E70474268002A0BD0C3680168002BB0
:1015700007D183688B4204D0491E521C06C000204C
:1015800070470020C0437047F7B582B0029C002727
:101590002078641C15460197302802D0002D15D004
:1015A00015E020780127641C782804D0582802D040
:1015B000002D09D00BE0002D01D0102D07D1002700
:1015C00010252078641C02E0082500E00A2500268A
:1015D000009610E00099012769430818020C29467B
:1015E00080B2714300908E183804864201D30120E6
:1015F00001902078641C294600F056F80028E9DAAA
:101600000398002805D0002F01D0641E00E0029C42
:1016100004600198002806D007F0F6FB0221016063
:10162000C81E05B0F0BD009930040843F9E7F0B5D5
:101630001FB486B000200090019002900698069991
:1016400080B204900798090C02040014114307901B
:101650000027089D099806913E463C460390039852
:10166000A9B20204000C039004982D0C15434843C2
:1016700000212246FFF71CFCC719714110340E46A9
:10168000402CECDB3846029AFFF712FC009A019BD3
:101690008018009059410298019110300290402822
:1016A000CCDB00980BB0F0BD3A2800D230382023B4
:1016B00002469A43412A01D310463738884201D363
:1016C0000020C043704700000EB5054A0292002278
:1016D000009213460192FFF7F7FC03B000BD000033
:1016E0003304000070B5134E144D7168124A481C43
:1016F00070602C7902231C43914216D8101A642181
:101700004843FFF72DFB00220D4BFFF78BFA002219
:101710000C4BFFF76DF9FFF755FBC0B270703178D5
:10172000884201D030702C7170BD2C710020707017
:1017300070BD000000000020409C00005405002007
:101740000088E3400000E03F70B5044620688168EF
:10175000490724D5816810254907002905DA8168E1
:10176000890702D481682943816003F01FF9064686
:1017700011E003F01BF9801B0A280CD9206880684F
:10178000400708D5606D28436065A06D01210843BE
:10179000A065012070BD206880684007E9D4002062
:1017A00070BD000038B50446084807490068FEF7D8
:1017B0009FFC6043009002E00098401E009000985B
:1017C0000028F9D138BD000040420F004800002039
:1017D000F8B50446206881688907890F012931D14D
:1017E0000168C9072ED08168052211401025012605
:1017F000012907D0606D28436065A06D3043A06566
:101800000120F8BD81680222114381602168032014
:10181000086003F0CBF8074610E003F0C7F8C01BE0
:101820000A280BD920688068C00707D0606D28435C
:101830006065A06D3043A0650120F8BD2068806818
:10184000C007EAD10020F8BDF8B5044620688168D9
:101850008907890F012902D10168C9072FD1816841
:10186000184A102611400125002907D0606D304329
:101870006065A06D2843A0650120F8BD81682943FB
:1018800081600120FFF78EFF03F090F8074611E01A
:1018900003F08CF8C01B0A280CD920680068C043EC
:1018A000C00707D0606D30436065A06D2843A06518
:1018B0000120F8BD20680068C043C007E8D10020BF
:1018C000F8BD000017000080F7B50F46002464251E
:1018D00009F02AFD002819D009F04AFD00281ED081
:1018E0003948FF210646FEF7E2FE37480021FA306C
:1018F000C180009806F034F834A006F031F834A125
:101900000298FEF7EBFE002818D111E033A135A0B4
:1019100005F0B2FC35A005F0AFFC0020FEBD2FA104
:1019200030A005F0A9FC36A005F0A6FC0020FEBD05
:1019300039A10298FEF7D2FE002834D0F61D32E01D
:1019400026A13046FEF7CAFE002809D023A125A013
:1019500005F092FC33A0009905F08EFC0020FEBD3E
:1019600036A13046FEF7BAFE002809D01BA11DA003
:1019700005F082FC34A0009905F07EFC0020FEBD3D
:1019800028466043B84209DD36A116A005F074FC74
:1019900036A0009905F070FC0220FEBD284605F037
:1019A000DBFF641CA4B230460299FEF797FE0028C4
:1019B000C6D035A10BA005F05FFC34A0009905F05E
:1019C0005BFC0120FEBD0000D20C00200D0A0000CF
:1019D0002B4C494E4B20494E464F3A004552524FF0
:1019E000520000000A5B25735D0000004C6F5261DD
:1019F00057414E204D6F6465204552524F4521009E
:101A00004C6F526157414E20537461747573204579
:101A100052524F45210000002B52544320494E465C
:101A20004F3A00002225732220617420636D6420E8
:101A300065786563206572726F72000042414420D0
:101A40005041524D00000000222573222061742075
:101A5000636D6420657865632062616420706172E3
:101A60006D0000005741524E0000000022257322F5
:101A700020617420636D6420657865632074696DEE
:101A8000656F7574000000004C4F470022257322DB
:101A900020617420636D64206578656320737563CD
:101AA000636573730000000070B586B000242C4D90
:101AB0007D26F6002BA229462BA0FFF705FF012863
:101AC00009D0641CA4B2304605F046FF032CF1D3C4
:101AD000002006B070BD27A127A005F0CDFB2B4844
:101AE00027A10446FEF7FAFD014629A005F0C4FB34
:101AF00078212848FEF7DBFD21A12046FEF7EEFD08
:101B000000210591002405AB224A23A108F038F9F1
:101B1000224D204E09E0601C8000325828190B30FD
:101B20000223012108F0DAF8641C0598401E059094
:101B3000401CF0D10FA110A005F09EFBA87C697C91
:101B40002A7CEB7B0193029203910490A87B009086
:101B50006B7B2A7BE97A12A005F08EFB0120B8E7A7
:101B6000DC0500004F4B000041542B4150504555BF
:101B7000493F00004C4F47000A5B25735D000000A1
:101B80002B4150504555493A00000000D20C00202E
:101B900025730000E81300202000000060140020DE
:101BA0004150504555493A20253032782025303271
:101BB0007820253032782025303278202530327850
:101BC00020253032782025303278202530327800B8
:101BD00070B58EB00024354D7D26F60034A229461E
:101BE00034A0FFF771FE012809D0641CA4B230466E
:101BF00005F0B2FE032CF1D300200EB070BD30A171
:101C000030A005F039FB344830A10446FEF766FDEC
:101C1000014632A005F030FB78213148FEF747FD40
:101C20002AA12046FEF75AFD00210D9100240DAB9C
:101C30002B4A2CA108F0A4F82B4D294E09E0601C7A
:101C400080003258281913300223012108F046F889
:101C5000641C0D98401E0D90401CF0D118A119A0D5
:101C600005F00AFB2048EB7F20308178427800782D
:101C700009930B920C910A90A87F697F2A7FEB7ED3
:101C80000593069207910890AA7E687E297EEB7DD7
:101C90000193049202910390A87D00906B7D2A7DB0
:101CA000E97C124805F0E8FA0120A6E7DC0500000F
:101CB0004F4B000041542B4150504B45593F0000C1
:101CC0004C4F47000A5B25735D0000002B415050CC
:101CD0004B45593A00000000D20C0020257300004B
:101CE000E813002020000000601400205CCF0008F2
:101CF00070B58EB00024354D7D26F60034A22946FD
:101D000034A0FFF7E1FD012809D0641CA4B23046DD
:101D100005F022FE032CF1D300200EB070BD30A1DF
:101D200030A005F0A9FA344830A10446FEF7D6FCED
:101D3000014632A005F0A0FA78213148FEF7B7FC41
:101D40002AA12046FEF7CAFC00210D9100240DAB0C
:101D50002B4A2CA108F014F8294D2B4E09E0601CE9
:101D600080002A58301927300223012107F0B6FFDE
:101D7000641C0D98401E0D90401CF0D118A119A0B4
:101D800005F07AFA20482030817D427D037DC47CB5
:101D900009940A930B920C91817C427C037CC47B56
:101DA0000594069307920891817B427B037BC47A5A
:101DB0000194029303920491817A0091437A027A0A
:101DC000C179124805F058FA0120A6E7DC050000A9
:101DD0004F4B000041542B415050534B45593F004D
:101DE0004C4F47000A5B25735D0000002B415050AB
:101DF000534B45593A000000D20C002025730000D7
:101E0000E8130020200000006014002010D000081B
:101E100070B50024104D7D26F60010A2294610A0B2
:101E2000FFF752FD012808D0641CA4B2304605F02B
:101E300093FD032CF1D3002070BD0CA10CA005F084
:101E40001BFA0DA10E48FEF749FC01460DA005F056
:101E500013FA012070BD0000DC0500004F4B0000AC
:101E600041542B42414E443F000000004C4F47007C
:101E70000A5B25735D0000002B42414E44000000C8
:101E8000D20C00202573000070B50024104D7D2673
:101E9000F60010A2294610A0FFF716FD012808D071
:101EA000641CA4B2304605F057FD032CF1D300208A
:101EB00070BD0CA10CA005F0DFF90DA10E48FEF7D6
:101EC0000DFC01460DA005F0D7F9012070BD000002
:101ED000DC0500004F4B000041542B434C41535351
:101EE0003F0000004C4F47000A5B25735D00000077
:101EF0002B434C4153533A00D20C00202573000071
:101F000070B50024104D7D26F60010A2294610A0C1
:101F1000FFF7DAFC012808D0641CA4B2304605F0B3
:101F20001BFD032CF1D3002070BD0CA10CA005F00B
:101F3000A3F90DA10F48FEF7D1FB01460EA005F055
:101F40009BF9012070BD0000DC0500004F4B000034
:101F500041542B434F4E4649524D3F004C4F470092
:101F60000A5B25735D0000002B434F4E4649524DDE
:101F70003A000000D20C0020257300007CB500243C
:101F8000284D7D26F60028A2294628A0FFF79CFCB4
:101F9000012808D0641CA4B2304605F0DDFC032CF7
:101FA000F1D300207CBD24A124A005F065F92848C8
:101FB00024A10446FEF792FB014626A005F05CF939
:101FC00078212548FEF773FB1EA12046FEF786FB0D
:101FD00000210191002401AB1F4A20A107F0D0FE8F
:101FE0001D4D1F4E09E0601C80002A583019233017
:101FF0000223012107F072FE641C0198401E01902B
:10200000401CF0D10CA10DA005F036F91448203089
:102010008179009143790279C17812A005F02CF9F9
:1020200001207CBDDC0500004F4B000041542B44D7
:102030004556414444523F004C4F47000A5B2573CC
:102040005D0000002B444556414444523A000000D4
:10205000D20C002025730000E813002020000000AF
:1020600060140020444556414444523A2025303201
:10207000782025303278202530327820253032788B
:102080000000000070B586B000242C4D7D26F600BF
:102090002BA229462DA0FFF717FC012809D0641CAC
:1020A000A4B2304605F058FC052CF1D3002006B050
:1020B00070BD29A129A005F0DFF82A4820A1044617
:1020C000FEF70CFB014628A005F0D6F8782127483A
:1020D000FEF7EDFA1AA12046FEF700FB002105915C
:1020E000002405AB214A22A107F04AFE214D1F4ED4
:1020F00009E0601C800032582819C01C022301210D
:1021000007F0ECFD641C0598401E0590401CF0D1C2
:1021100011A112A005F0B0F8A87A697A2A7AEB79B1
:102120000193029203910490A87900906B792A7927
:10213000E97811A005F0A0F80120B8E7DC0500005F
:102140002B4445564555493A0000000041542B4464
:1021500045564555493F00004C4F47000A5B2573E3
:102160005D000000D20C002025730000E813002061
:1021700020000000601400204465764555493A204F
:1021800025303278202530327820253032782025CD
:1021900030327820253032782025303278202530B2
:1021A000327820253032780070B50024104D7D261D
:1021B000F60010A2294610A0FFF786FB012808D0E0
:1021C000641CA4B2304605F0C7FB032CF1D30020F9
:1021D00070BD0DA10DA005F04FF80EA11048FEF73F
:1021E0007DFA01460FA005F047F8012070BD000000
:1021F000DC0500004F4B000041542B444154415238
:102200004154453F000000004C4F47000A5B2573D6
:102210005D0000002B44415441524154453A0000B6
:10222000D20C00202573000070B58EB00024364D0E
:102230007D26F60035A2294635A0FFF745FB01288B
:1022400009D0641CA4B2304605F086FB032CF1D300
:1022500000200EB070BD31A131A005F00DF8354859
:1022600031A10446FEF73AFA014633A005F004F81E
:1022700078213248FEF71BFA2BA12046FEF72EFAF2
:1022800000210D9100240DAB2C4A2DA107F078FD03
:102290002A4D2C4E09E0601C80002A583019373036
:1022A0000223012107F01AFD641C0D98401E0D90B9
:1022B000401CF0D119A11AA004F0DEFF21484030E3
:1022C000817942790379C47809940A930B920C912D
:1022D0008178427803782038C47F0594069307926A
:1022E0000891817F427F037FC47E01940293039211
:1022F0000491817E0091437E027EC17D124804F0EC
:10230000BBFF0120A5E70000DC0500004F4B0000EB
:1023100041542B4E574B534B45593F004C4F4700B0
:102320000A5B25735D0000002B4E574B534B4559FC
:102330003A000000D20C002025730000E8130020B2
:102340002000000060140020B4CF000870B5002405
:10235000104D7D26F60010A2294610A0FFF7B4FA12
:10236000012808D0641CA4B2304605F0F5FA032C0D
:10237000F1D3002070BD0CA10CA004F07DFF0DA1D5
:102380000E48FEF7ABF901460DA004F075FF0120E1
:1023900070BD0000DC0500004F4B000041542B5085
:1023A0004F52543F000000004C4F47000A5B25731A
:1023B0005D0000002B504F52543A0000D20C002018
:1023C0002573000070B50024104D7D26F60010A284
:1023D000294610A0FFF778FA012808D0641CA4B29F
:1023E000304605F0B9FA032CF1D3002070BD0BA1E3
:1023F0000BA004F041FF0CA10D48FEF76FF9014658
:102400000CA004F039FF012070BD0000DC050000C5
:102410004F4B000041542B5258323F004C4F470065
:102420000A5B25735D0000002B5258323A00000011
:10243000D20C00202573000070B50024104D7D26BD
:10244000F60010A2294611A0FFF73EFA012808D095
:10245000641CA4B2304605F07FFA032CF1D30020AF
:1024600070BD0CA10CA004F007FF06A10C48FEF7FC
:1024700035F901460BA004F0FFFE012070BD0000FD
:10248000DC0500002B5645520000000041542B563D
:1024900045523F004C4F47000A5B25735D0000002A
:1024A000D20C00202573000070B500240E4D7D264F
:1024B000F6000EA229460EA0FFF706FA012808D062
:1024C000641CA4B2304605F047FA032CF1D3002077
:1024D00070BD0A48017849084900017008F008FFFA
:1024E0000028FBD0012070BDDC0500004F4B000030
:1024F00041542B464143544F525900006014002070
:1025000070B500240A4D7D26F6000AA229460AA0CD
:10251000FFF7DAF9012808D0641CA4B2304605F0B0
:102520001BFA032CF1D3002070BD012070BD000008
:10253000DC0500004F4B000041542B534156450031
:1025400070B590B00024242216A107A8FEF796F8D3
:102550001D48817C427C037CC57B029503930492D9
:102560000591817B427B01910092037BC27A17A186
:1025700007A806F0B3FB7D26214DF6000BE021A253
:10258000294607A8FFF7A0F9012809D0641CA4B2C6
:10259000304605F0E1F9032CF1D3002010B070BDF6
:1025A0000120FBE741542B4150504555493D204601
:1025B00046204646204645203030203030203030FE
:1025C00020303020303100006014002041542B4175
:1025D00050504555493D20253032782025303278FD
:1025E000202530327820253032782025303278206E
:1025F000253032782025303278202530327800009E
:10260000DC0500004F4B000070B59EB00024402256
:102610001FA10EA8FEF732F82D4881784278037882
:102620002038C57F0A950B930C920D91837F417FD3
:10263000027FC57E0695099307920891817E437EAD
:10264000027EC57D0295049303920591817D427DB2
:1026500001910092037DC27C1E490EA806F03EFB4C
:102660007D261D4DF6000BE01CA229460EA8FFF7A3
:102670002BF9012809D0641CA4B2304605F06CF98E
:10268000032CF1D300201EB070BD0120FBE7000039
:1026900041542B4150504B45593D20324220374543
:1026A0002031352031362032382041452044322037
:1026B00041362041422046372031352038382030FD
:1026C000392043462034462033432C30000000009C
:1026D0008014002064D30008DC0500004F4B00008C
:1026E00070B586B005460024142101A8FDF7DFFF70
:1026F0002A460DA101A806F0F1FA7D260E4DF6003E
:102700000BE00EA2294601A8FFF7DEF8012809D048
:10271000641CA4B2304605F01FF9032CF1D300204D
:1027200006B070BD0120FBE741542B43484D415397
:102730004B3D253034580000C40900004F4B0000C9
:10274000FEB5002410A14D680B68896801950093BF
:10275000029102460FA1684606F0C0FA7D26104D90
:10276000F6000BE00FA229466846FFF7ADF80128F6
:1027700008D0641CA4B2304605F0EEF8032CF1D367
:102780000020FEBD0120FEBD41542B434C4153535C
:102790003D30000041542B434C4153533D256400D0
:1027A000DC0500004F4B0000F0B585B0002413A5F8
:1027B0006F682E68EB68AA680197009603930292EF
:1027C0000B46024611A1684606F088FA7D26144D94
:1027D000F6000BE013A229466846FFF775F80128BA
:1027E00009D0641CA4B2304605F0B6F8032CF1D32E
:1027F000002005B0F0BD0120FBE7000041542B4351
:102800004F4E4649524D3D312C33000041542B432D
:102810004F4E4649524D3D25642C25640000000072
:10282000DC0500004F4B0000FEB5002410A14D68F0
:102830000B68896801950093029102460FA16846D2
:1028400006F04CFA7D26104DF6000BE00FA229464B
:102850006846FFF739F8012808D0641CA4B2304656
:1028600005F07AF8032CF1D30020FEBD0120FEBD57
:1028700041542B44454255473D31000041542B44BF
:10288000454255473D256400DC0500004F4B0000E4
:1028900070B500240E4D7D26F6000EA229460EA02E
:1028A000FFF712F8012808D0641CA4B2304605F0E6
:1028B00053F8032CF1D3002070BDFF210B48FDF726
:1028C000F6FE0A480021FA30C180012070BD0000E8
:1028D000DC0500004F4B000041542B4A4F494E3D50
:1028E000312C312C31322C3130000000D20C002040
:1028F00070B500240A4D7D26F6000AA229460AA0DA
:10290000FEF7E2FF012808D0641CA4B2304605F0AF
:1029100023F8032CF1D3002070BD012070BD00000E
:10292000DC0500004F4B000041542B4F5441413D0A
:10293000312C3000FEB5002410A14D680B68896869
:1029400001950093029102460FA1684606F0C6F970
:102950007D26114DF6000BE010A229466846FEF7D1
:10296000B3FF012808D0641CA4B2304604F0F4FF81
:10297000032CF1D30020FEBD0120FEBD41542B509D
:102980004F52543D3230000041542B504F52543D71
:102990002530327800000000DC0500004F4B0000BD
:1029A00070B500240E4D7D26F6000EA229460EA01D
:1029B000FEF78AFF012808D0641CA4B2304604F058
:1029C000CBFF032CF1D3002070BDFF210948FDF798
:1029D0006EFE08480021FA30C180012070BD000061
:1029E000B80B00004F4B000041542B524553455447
:1029F00000000000D20C002030B58BB01546284AEC
:102A0000936B01242343936300240794089409944F
:102A10000A94059406940194029403940494214B1F
:102A200092041A60491E59609C60401ED8601C6167
:102A300080205861184603F031FE002801D000F0D4
:102A400007FB01200003079007A9164803F0C6FE04
:102A5000002801D000F0FCFA124803F0F2FF002831
:102A600001D000F0F5FA0594069405A90D4803F08D
:102A7000CDFD002801D000F0EBFA60200190029516
:102A800003940494002201A9064803F0FBFF0028E8
:102A900001D000F0DDFA034803F0ACFF0BB030BD0D
:102AA000001002407403002070B505460846FF245C
:102AB0007334214648436421FDF71AFB82B2042196
:102AC0002046FFF799FF0021094804F04DF82846F9
:102AD00001F018FD0021064804F08CF8044803F0CA
:102AE0006DFE01210022C903024801F058FF70BDAC
:102AF000740300200004005070B501F04DFD002467
:102B0000074D01267602A00041190022022001F0A3
:102B100015FD641CB442F6DB01F03EFD70BD000003
:102B2000000008080348C1790A2901D20A21C171AD
:102B30007047000054050020044901200870044833
:102B4000C1790A2901D20A21C17170471A000020F7
:102B5000540500200348C1790A2901D20A21C17114
:102B6000704700005405002070B50F4D0F4E696886
:102B70003068814216D80E4C3C22218951430818F6
:102B8000686000F08DF805F03DFB20798021084356
:102B9000207108A108A004F06FFB3268084869683A
:102BA00004F06AFB70BD00000C0000204000002013
:102BB000540500204C4F47000A5B25735D00000060
:102BC00014CF000870B5FFF7CFFF134CA088002882
:102BD0000AD11249124D0879C20906D04006400EAA
:102BE000087100F021F8A58070BD4879C20707D0B0
:102BF000400840004871152009F0A2FBA58070BD77
:102C0000084A1278D207FAD04207F8D5FB221040C2
:102C1000487100F035FA70BDCC0C0020540500203E
:102C2000102700006014002010B5012009F088FB77
:102C300010BD70B504460D46164601F0ADFC03E02C
:102C400001CC01C501F070FC3046761EB6B20028FA
:102C5000F6D170BDF8B505460E46174601F09CFC4E
:102C6000002407E0A00032584119022001F066FC60
:102C7000641CA4B2BC42F5D301F08EFCF8BDC001C7
:102C80000121C905892212047F23184304E001426F
:102C900000D05040490852080B02DB0BF7D17047B7
:102CA000FEB51249081F00F077F811A111A004F039
:102CB000E3FA0E4F203F386AFEF72CF80F4E3146EC
:102CC000FDF74BFEFEF79CF804460D46F869FEF74B
:102CD00021F83146FDF741FEFEF792F802460B4619
:102CE00007A00195009404F0C7FAFEBD740500200A
:102CF0004C4F47000A5B25735D00000000007A44DA
:102D0000436F6E766572742054656D707465726180
:102D1000747572653A20252E32662C2048756D69CF
:102D200064697469793A20252E32660070B50D46C3
:102D300084B2E41E0E4928464843002804DD3230A0
:102D40006421FDF7EBF903E032386421FDF7E6F981
:102D50006C43002C05DD2034E117890E0919891117
:102D600004E0203CE117890E09198911081A70BD89
:102D7000B36A000080B24843002806DDFF3001300E
:102D8000C117C90D081840127047FF380138C11724
:102D9000C90D081840127047FEB504460D460020C4
:102DA00001900090294E01222021304601F0F7FDCC
:102DB00000F09CF8032000F0F5F8002803D024A0D0
:102DC00004F05AFAFEBD822005F06AFF694601A8A8
:102DD00000F004F9002803D025A004F04DFAFEBD50
:102DE000019800F0C1F87D27FF0000281ED001984F
:102DF00000F0C7F800281DD039460198FFF796FF6C
:102E00002060009800F0B0F8002817D0009800F07B
:102E1000B8F8002816D039460098FFF7ABFF2860B5
:102E200000222021304601F0BAFDFEBD17A004F0BB
:102E300023FAE6E71BA004F01FFAE2E71FA004F064
:102E40001BFAEDE723A004F017FAE9E700040050AD
:102E5000454E533231305F53656E735374617274F3
:102E60005F536574204661696C65640A0000000068
:102E7000454E533231305F544856616C5F4765743C
:102E8000204661696C65640A00000000542072618C
:102E900077206461746120435243206572726F72BF
:102EA0002E0A000054207261772064617461204E04
:102EB0004F542076616C69642E0A000048207261CC
:102EC00077206461746120435243206572726F728F
:102ED0002E0A000048207261772064617461204EE0
:102EE0004F542076616C69642E0A000010B52820CA
:102EF00005F0D6FE802000F063F80146080004D0FB
:102F000009A004F0B9F9002010BD042005F0C8FEA6
:102F1000002000F039F8002804D00AA004F0ACF931
:102F2000002010BD012010BD454E533231303A25EE
:102F300064205265736574204661696C65642E0A6D
:102F400000000000454E533231303A20536574740E
:102F5000696E672072756E206D6F646520666169A9
:102F60006C65642E0A00000010B501024C0EC0030F
:102F7000C00BFFF784FEA04201D1012010BD00204C
:102F800010BDC003C00F704708B505A109680091C6
:102F9000694648700222862004F05CF908BD0000F2
:102FA0002100000008B505A1096800916946487034
:102FB0000222862004F04EF908BD00002200000025
:102FC00008B505A10968009169464870022286206B
:102FD00004F040F908BD0000100000007FB5044671
:102FE0000D460FA0006801900620009002AB012260
:102FF00001A9862004F01CF86B46997A0A04597AD4
:1030000009020A43197A0A432260597B1A7B090490
:1030100012021143DA7A1143296004B070BD000036
:103020003000000010B505200121000701F0B0FCC0
:10303000012801D101F0F2FB0221044801F0A8FCB3
:10304000012802D1022001F0E9FB10BD000400506C
:1030500072B6FEE710B5084900234B6107494A687C
:103060004C1522434A604A68082422434A60C0093A
:10307000C001036010BD0000B81400200020024011
:10308000F0B5B1B03C2121A8FDF711FB14211CA81B
:10309000FDF70DFB00201B90642102A8FDF707FB44
:1030A000884D012230A92846FFF7C3FD012201A95E
:1030B000281DFFF7BEFD84A185A004F0DDF886A0E1
:1030C000019A309904F0D8F8309E002E7DD02A2E37
:1030D00001D92A2602E07B480830019008238C4A57
:1030E00010211CA806F0CEFD0024CCE0642102A82B
:1030F000FDF7DDFA3C2121A8FDF7D9FA85A102A848
:10310000FDF7E0FA10221CA902A8FDF70FFB82A12F
:1031100002A8FDF7D7FA282280A11BA805F0DEFD42
:103120001BA902A8FDF7CEFA7D490A88501C088029
:103130007AA11BA805F0D2FD1BA902A8FDF7C2FACF
:10314000162276A11BA805F0C9FD1BA902A8FDF750
:10315000B9FA5DA15EA004F08FF8214671A0019A32
:1031600004F08AF80C2279490198FFF762FD019872
:10317000303001907649884202D952480830019097
:10318000002321AF714998000958C01905F0F3FADE
:103190005B1C9BB20C2BF5D321A902A8FDF792FA78
:1031A0006CA14BA004F068F802A96BA004F064F8CD
:1031B00008F0BAF8012802D1002009F0F5FA08F069
:1031C000D7F8002804D1012000E03FE009F0FAFA26
:1031D00008F08EF80028FBD0142001F093F902A823
:1031E00004F0BEFB08F08EF8002806D060A138A0DD
:1031F00004F042F860A004F03FF808F09FF80028BF
:1032000026D05BA132A004F037F861A004F034F8B6
:10321000674904224879104348718879401CC0B23C
:103220008871052812D300228A713948C01E01789E
:1032300049084900017002214030C17102725D48A5
:10324000E1210068C90040185B49086031B0F0BD59
:103250005749002088713FA11DA004F00DF857A028
:1032600004F00AF807F0E8FF3098401E3090012281
:1032700030A92846FFF7EEFC012201A9281DFFF71F
:10328000E9FC641CA4B2B44200D22FE7534852496F
:103290008180FFF731FC00203090281D0190012231
:1032A00030A92846FFF7D6FC012201A9281DFFF707
:1032B000D1FC05A106A003F0DFFF49A003F0DCFF6D
:1032C000C4E7000000000808464C415348000000D5
:1032D0000A5B25735D0000005265616420466C61E5
:1032E00073682043616368652044617461204C65A4
:1032F0006E3A2025642C2043616368652044617424
:103300006120416464723A203078253038780000BA
:1033100063140020542C53312C00000025642C0031
:103320000E000020456570726F6D2052656164204B
:103330004361636865204461746120416464725B29
:1033400025645D3A2030782530387800A8050020C3
:10335000CF0708084C4F47004C6F52612053656EF1
:10336000644361636865446174613A2025730000B9
:103370005741524E00000000576169742042757336
:103380007920494F2054696D656F75740000000005
:103390004C6F52612053656E64436163686544619C
:1033A0007461204661696C2C20457869740D0A00AF
:1033B0005405002040000020A00000204C6F526106
:1033C0002053656E64436163686544617461205392
:1033D000756363657373000010270000CC0C002038
:1033E000436C65617220466C617368204361636859
:1033F000652044617461200038B50C48012269469B
:1034000000F038F800980A4C80B2A0812D21401EAF
:103410004901884200D3A18106A108A003F02CFF36
:10342000A18908A003F028FF38BD000000F80008BB
:1034300054050020464C4153480000000A5B2573A8
:103440005D0000005265616420466C617368204431
:10345000657669636520477073204C6F636174659E
:1034600020496E74657276616C203A2025646D691E
:103470006E00000030B5002303E010C89D004C51E1
:103480005B1C9342F9DB30BD7CB535A003F0F4FE44
:1034900043A003F0F1FE52A003F0EEFE2822032128
:1034A0005CA003F0E9FE00F0FDF8FFF7A5FF102295
:1034B00068496948FDF7E2F8674808226749083813
:1034C000FDF7DCF86448042265491030FDF7D6F8B2
:1034D0006148102263491430FDF7D0F85E4810228D
:1034E00061492430FDF7CAF800F018F9002401946E
:1034F0005E4E012201A93046FFF79BFB7D2001991A
:10350000C0005B4D814217D9FFF7F6FA0194574886
:1035100008300090012201A93046FFF79BFB0122F1
:103520006946301DFFF796FB52A154A003F0A4FE9C
:1035300054A003F0A1FE05E0002903D0687904211E
:10354000084368715549642008706879022108436E
:103550006871414801212D300172514804707CBDD1
:103560000A2A2A2A2A2A2A2A2A2A2A2A2A2A2A2ADB
:103570002A2A2A2A2A2A2A2A2A2A2A2A2A2A2A2AAB
:103580002A2A2A2A2A2A2A2A2A2A2A2A2A2A2A2A9B
:103590002A2A2A2A2A2A2A2A2A2A2A2A2A0A0000FF
:1035A0002A2A2A2A2A2A2A2A2A2A2A2A2A2A2A2A7B
:1035B0002A2A2A2A2A2A2A2A2A2A2A2A2A2A2A2A6B
:1035C0002A2A2A2A2A2A2A2A2A2A2A2A2A2A2A2A5B
:1035D0002A2A2A2A2A2A2A2A2A2A2A2A0A000000E9
:1035E0002A2A2A2A2A2A2A2A2A2A2A2A2A2A2A2045
:1035F000484B54203A20544854422053656E736F10
:1036000072202A2A2A2A2A2A2A2A2A2A2A2A2A2ADC
:103610002A0A00002A2A2A2A2A2A2A2A204841522B
:1036200044574152455F5645523A20307825303252
:1036300078202C534F4654574152455F5645523AD5
:1036400020307825303278202A2A2A2A2A2A2A2A43
:103650000A000000600000207314002058000020C1
:103660007000002074000020840000200000080882
:1036700054050020464C4153480000000A5B257366
:103680005D000000436C65617220466C61736820C8
:10369000436163686520446174612000010000207B
:1036A0000C00002038B50C4801226946FFF7E2FE05
:1036B00000980A4C80B220812D21401E4901884289
:1036C00001D33C20208106A107A003F0D5FD21896C
:1036D00007A003F0D1FD38BD00F400085405002018
:1036E000464C4153480000000A5B25735D00000012
:1036F0005265616420466C61736820446576696335
:1037000065205265706F727420496E7465727661BF
:103710006C203A2025646D696E00000010B51F48CA
:1037200008221F49FFF7A6FE1D4CE068002801D0C3
:103730005A280CDD012020606060A0601921E16042
:103740001D21C943216163216161A061E1612022E2
:1037500013491448FCF792FF13A115A003F08CFD48
:1037600015A003F089FD1BA0216803F085FD20A0B2
:10377000616803F081FD26A0A16803F07DFD2BA008
:10378000E16803F079FD31A06269216903F074FDFD
:1037900039A0E269A16903F06FFD10BD00F00008D7
:1037A000D805002084050020464C41534800000005
:1037B0000A5B25735D0000005265616420466C6100
:1037C00073682053797374656D20436F6E66696703
:1037D000000000000D0A0973797374656D2072751D
:1037E0006E20656E61626C653A2025640000000001
:1037F0000D0A096261747465727920646563657489
:10380000696F6E20656E61626C653A202564000008
:103810000D0A096D6F7665206465636574696F6E66
:1038200020656E61626C653A202564000D0A0961AD
:103830006E676C6520616C61726D2074687265736F
:10384000686F6C643A202564000000000D0A09745A
:10385000656D7020616C61726D207468726573684B
:103860006F6C642C206C6F773A2025642C2068697B
:1038700067683A20256400000D0A0968756D6920A3
:10388000616C61726D207468726573686F6C642C12
:10389000206C6F773A2025642C20686967683A208D
:1038A0002564000010B50D483C2101812D214901FE
:1038B000818101210163416381631922C2631D2259
:1038C000D2430264632242648164C26400F03AFA23
:1038D00000F0D8F900F058FA10BD0000540500209F
:1038E00010B50020204A9169CB05204904D54869CC
:1038F000022318434861901593699B0505D54B69D0
:10390000012423434B616302184393695B0505D58A
:103910004B69082423434B61E301184393691B055A
:1039200005D54B69042423434B6163021843936913
:103930009B0405D54B69102423434B616302184354
:1039400093699B0304D54C6920231C434C611843A5
:103950009369DB0305D54B69402423434B61A102E6
:103960000843906110BD000000200240B814002000
:1039700070B5044601F01AF80546184E0AE0601CBE
:1039800008D0002C04D001F011F8401BA04201D94E
:10399000032070BDB069C007F1D1B069800701D5BF
:1039A0000220B061B069C00511D4B06980050ED4A1
:1039B000B06940050BD4B069000508D4B069800433
:1039C00005D4B069800302D4B069C00303D5FFF702
:1039D00087FF012070BD002070BD00000020024064
:1039E000F3B58FB00C46314E00210D91302101A866
:1039F000FCF75DFE01220DA93046FFF71AF90122FE
:103A00000EA9301DFFF715F929490E98274F4018C8
:103A1000F921C9000837884204D30D983021484362
:103A2000C0190E900D9D2A2D08D32A212846FCF797
:103A30005FFB30204143C8190E9003E030206843FB
:103A4000C0190E906D1C0D950023A508A00701D08C
:103A50006D1CADB201AF07E00F989C00201804F078
:103A600092FE38515B1C9BB2AB42F5D301220DA9EB
:103A70003046FFF7EFF801220EA9301DFFF7EAF8F4
:103A80000C2201A90E98FFF7E5F80A4804224179B3
:103A90001143417108A10AA003F0EEFB0AA00E9A9F
:103AA0000D9903F0E9FB11B0F0BD0000000008081B
:103AB000F8FFF7F754050020464C4153480000003A
:103AC0000A5B25735D000000456570726F6D2057BD
:103AD0007269746520436163686520446174612084
:103AE000416464725B25645D3A2030782530387813
:103AF0000000000070B58EB02E4D0024242105A8D2
:103B0000FCF7D5FD2C49002005AA0B781B064E7842
:103B10003604F3188E783602F318CE78F318091DA0
:103B20002646641CB6009351001D0428EDD322499B
:103B3000091D00200B781B064E783604F3188E788A
:103B40003602F318CE78F318091D2646641CB60019
:103B50009351001D1028EDD317481430002103782D
:103B60001B0646783604F31886783602F318C678B2
:103B7000F318001D2646641CB6009351091D102938
:103B8000EDD300F089FD0020019002950120039003
:103B900004A901A800F01AFD0028F9D1092205A9FD
:103BA000284600F0B5F8044600F04AFD20460EB065
:103BB00070BD000000E800088314002070B58CB0D0
:103BC0002E4D0024202104A8FCF771FD2C49002073
:103BD00004AA0B781B064E783604F3188E7836024A
:103BE000F318CE78F318091D2646641CB6009351CD
:103BF000001D0828EDD32249083100200B781B0650
:103C00004E783604F3188E783602F318CE78F3180F
:103C1000091D2646641CB6009351001D0828EDD3EB
:103C200017481030002103781B0646783604F31835
:103C300086783602F318C678F318001D2646641CF1
:103C4000B6009351091D1029EDD300F025FD002089
:103C5000009001950120029003A9684600F0B6FC8F
:103C60000028F9D1082204A9284600F051F804469A
:103C700000F0E6FC20460CB070BD000000E4000837
:103C80006314002010B586B00D4C0E488089059055
:103C900000F002FD0020019002940120039004A98D
:103CA00001A800F093FC0028F9D1012205A92046C3
:103CB00000F02EF8044600F0C3FC204606B010BD0C
:103CC00000F800085405002010B586B00E4C0F48CF
:103CD000417804918078059000F0DEFC002000908F
:103CE00001940120029003A9684600F06FFC0028AF
:103CF000F9D1022204A9204600F00AF8044600F097
:103D00009FFC204606B010BD00EC000860140020A7
:103D1000F7B505460F4600240FE0A600BA5929461C
:103D2000022000F09BFC002803D12868B959884282
:103D300001D00120FEBD2D1D641C02988442ECDBE5
:103D40000020FEBD10B586B00D4C0E4800890590D0
:103D500000F0A2FC0020019002940120039004A92D
:103D600001A800F033FC0028F9D1012205A9204662
:103D7000FFF7CEFF044600F063FC204606B010BDFE
:103D800000F40008540500201FB50C4C00F084FC22
:103D90000020009001940120029003A9684600F0E1
:103DA00015FC0028F9D1082205492046FFF7B0FF8D
:103DB000044600F045FC204604B010BD00F00008A9
:103DC00084050020F8B507F029FB3B4DA96888421F
:103DD00070D307F023FBFF30F530A860374EE96859
:103DE0003068374C374F814202D96179490622D574
:103DF0006179BF2211406171A1893C2251430818A9
:103E0000E86001225103304800F0C9FD012211038E
:103E10002D4800F0C4FD0021B960F9603961796175
:103E2000B420288029A12AA003F026FA32682A4863
:103E3000E96803F021FA288800283BD0401E28803A
:103E400022A123A003F018FA298824A0326803F0E5
:103E500013FAE0790A2801D20A20E07128880028A4
:103E60000DD000221346F968B868FCF7DDFF21D0B9
:103E70000022134679693869FCF7D6FF1AD0002072
:103E800028800121002249030F4800F088FDA08905
:103E90003C21484331684018E8600CA10CA003F0B5
:103EA000EBF932681A48E96803F0E6F96079012114
:103EB00008436071F8BD00001C0000204000002095
:103EC0005405002088060020000400504C4F470095
:103ED0000A5B25735D000000E0D10008436F6E7639
:103EE00065727420477073204D6F6465205265734E
:103EF000756C7420436E743A2025642C204E6F77C5
:103F00002054696D657374616D703A2025640000FA
:103F10009CD1000810B50A467D230146DB00054808
:103F200002F0B8FF0448C1790A2901D20A21C171FF
:103F300010BD00006C01002054050020F8B50446B7
:103F4000002625464035287C012808D00120287409
:103F5000206881688907890F01290ED101E00220BC
:103F6000F8BD0168C90708D0606D2021084360656D
:103F70000126002028743046F8BD616DFF22013211
:103F80009143022211436165C1688907890F00913D
:103F9000C16889088900C16020688168920711435F
:103FA000816000F003FD074612E000F0FFFCC01B3B
:103FB0000A280DD920688068002809DA606D02217E
:103FC0008843102108436065002028740120F8BD53
:103FD000206880680028E8DB2068C168009A1143E7
:103FE000C160606D80088000401C6065C1E7000012
:103FF000F8B50C4605464035297C01290DD0012134
:10400000297401688A68520709D5416D202211433D
:104010004165002028740120F8BD0220F8BD194B2D
:104020006268D8054710184E9A4215D08A6A2368EC
:104030005B035B0B1A438A622168490305D5B168AB
:104040000143B1600A20FDF7ADFB2068800315D560
:10405000B0683843B06011E08A6A23685B035B0B89
:104060009A438A622168490302D5B1688143B160ED
:104070002068800302D5B068B843B060002028747F
:10408000F8BD0000011000000027014070B5044693
:10409000002C0AD0606D0221084360652046FDF7C0
:1040A00053FB0546280002D009E0012070BD2046E0
:1040B000FDF78EFB0546012D01D00120606500262D
:1040C000012D32D0206841681A4A114041602168B0
:1040D000D043086020688168012212079143816003
:1040E0002068C168144A1140C16020680169134A00
:1040F0001140016120684169C908C9004161206817
:10410000016A0F4A1140016220688030416BC90981
:10411000C901416320688030416BC909C90141630D
:10412000204600F0FBF8A6656665403426742846F4
:1041300070BD000060F7FFFF00023E8302FCFF3FFE
:1041400000F000F0406D70470068006C70470000A0
:1041500070B50446002C06D0606D2646002540361A
:10416000002802D006E0012070BDA5653574204608
:1041700000F0EAF8606DC00603D420688168490742
:1041800006D5606D1021084360653574012070BD4F
:10419000616DFF2201329143022211436165816802
:1041A0005C4A8907890F012902D10168C9072BD10F
:1041B000032361689B07994205D05B42994202D074
:1041C0005B00994209D10169890089080161206871
:1041D00001696368194301610CE00169890089087C
:1041E000016190680F21890488439060906861683C
:1041F000084390602068C16818239943C160206813
:10420000C168A3681943C1609068012149068843C9
:1042100090609068A18E490608439060206881688C
:10422000C90004D48168012212071143816020680B
:10423000C168394A1140C1602069E268022825D06E
:1042400000200243204620300178037B49035B00B5
:1042500019430A43216B0A43A16989030A43E169AF
:10426000C9030A432168CB681A43CA60616A0A46D7
:10427000FF3AC23A05D0A26A11432268D3681943B3
:10428000D16042780121012A02D00BE00420D8E756
:104290000078002823D0606D202210436065A06D57
:1042A0000843A065E06B012820D020680169C90798
:1042B00003D0016949084900016120684169C908C2
:1042C000C900416120684169A26B11434161A56544
:1042D000606D80088000401C6065002070BD206813
:1042E000C26801231B041A43C260DBE7206802692D
:1042F000FF239B009A43026120680269236CA66C2D
:104300001A43636C33431A430261206802690A430B
:104310000261D2E7002701401902FEFF10B50068D4
:104320000649884208D10648416B421591434163D2
:104330000121044800F0E0F910BD00000024014014
:10434000001002400004005010B586B0044614214D
:1043500001A8FCF7ACF90E492068884215D10D4838
:10436000416B421511434163C26A02210A43C26292
:10437000C06A0840009001200190032002900020B4
:10438000039001A9044800F055FA06B010BD0000E2
:10439000002401400010024000040050F8B504461B
:1043A0000D4627466069403708280BD02068C06852
:1043B000C00709D0606D2021084360650020387473
:1043C0000120F8BD082600E00C2600F0EFFA00906E
:1043D00015E0681C13D0002D05D000F0E7FA009915
:1043E000401AA8420BD920680068304207D1606D9E
:1043F000042108436065002038740320F8BD20685C
:1044000000683042E5D0606D0121490208436065D3
:104410002068C1680C220905890F00291BD12021C1
:10442000095D002917D10168090714D581680123A6
:104430004907002908DB416891434160606D19021A
:1044400088431843606506E0606D2021084360657D
:10445000A06D1843A065A069002801D12068026002
:104460000020F8BD70B5044600202168896849071E
:1044700023D425464035297C01291CD001212974EB
:10448000E169012902D02046FDF7DEF9002811D1AB
:10449000616D0B4A1140FF22013211436165002119
:1044A000A165297422681C21116021688A6804238F
:1044B0001A438A6070BD022070BD022070BD0000EA
:1044C000FEF1FFFF70B5044625464035287C0128E3
:1044D00007D001262E742046FDF736F9002802D0B9
:1044E0000CE0022070BD2046FDF772F9002805D1CE
:1044F000616DFF22013291433143616500212974CE
:1045000070BD000070B5044600F050FA0546601C0E
:1045100002D004480078241800F048FA401BA0425A
:10452000FAD370BDB0000020034841680122114356
:10453000416000207047000000200240F8B50546A9
:104540000E461446124F387C012807D001203874DB
:104550001048FFF70DFA002802D00FE00220F8BD46
:1045600000217961022D0CD0012D0CD0002D0CD032
:104570000120002802D00748FFF7FAF9002139741A
:10458000F8BD3460F5E73480F3E73470F1E70000FC
:10459000B814002050C3000009484168C9070DD075
:1045A000EFF3108172B6074AC260074AC26081F316
:1045B00010884068C00701D0012070470020704774
:1045C00000200240EFCDAB8905040302F8B5054693
:1045D0000E46184F387C012807D001203874164841
:1045E000FFF7C6F9002802D020E00220F8BD002124
:1045F000C94331606C6813E02046FEF72BFD0E487E
:10460000FFF7B6F90D494A6808239A434A604A6899
:104610004B159A434A60002801D0346006E080348C
:10462000A9686A68C9018918A142E5D800213974CE
:10463000F8BD0000B814002050C300000020024064
:10464000054841680222114341604168012211433B
:10465000416000207047000000200240F8B50E467F
:1046600017460B4C207C012808D0012020740948F3
:10467000FFF77EF90025002802D006E00220F8BDF1
:10468000656137600348FFF773F92574F8BD0000D2
:10469000B814002050C3000012484168C9070DD06B
:1046A000EFF3108172B6104AC260104AC26081F303
:1046B00010884168C90701D0012070474168890707
:1046C0000DD5EFF3108172B6094A0261094A026101
:1046D00081F310884068800701D5012070470020D1
:1046E0007047000000200240EFCDAB8905040302B3
:1046F000BFAE9D8C16151413F0B5002259E00123AE
:1047000093409E460B40002B52D095082B4CAD0099
:104710002D19AC689607370F0F26BE403440A446CB
:1047200005242407A04201D1002414E0244CA04217
:1047300001D101240FE0234CA04201D102240AE060
:10474000214CA04201D1032405E0204CA04201D11C
:10475000052400E00624BC4064450FD11C4C2768AA
:104760009F43276067689F436760A7689F43A76070
:10477000E7689F43E760AB68B343AB6004685500EC
:104780000323AB401C430460D408A4002418266A09
:104790005507EF0E0F25BD40AE432662C4689C430B
:1047A000C46044687546AC43446084689C4384603C
:1047B000521C0B46D340A2D1F0BD000000000140C6
:1047C0000004005000080050000C0050001C005075
:1047D0000004014010B50A4C022806D1627920215C
:1047E0000A43627122790A432271012802D105A08D
:1047F00002F042FDE0790A2801D20A20E07110BDE2
:10480000540500200D0A524545442053574954434E
:104810004820455854490D0A0000000010B50449CD
:104820004A69024202D04861FFF7D4FF10BD000080
:1048300000040140F0B5002296E0012797403B407C
:10484000002B6ED00C79A407A40F012C01D0022CF0
:1048500010D1856854000326A640B543CE68A64013
:104860002E4386604468BC430D79ED06ED0F9540FC
:10487000254345600C79E443A40708D0C56854007B
:104880000326A640B5438E68A6402E43C6600C7929
:10489000A407A40F022C0CD1D408A40027183D6A49
:1048A0005407E40E0F26A640B5430E69A6402E43DA
:1048B0003E62056854000326A640B5430E79B6074C
:1048C000B60FA6402E4306604C68A403A40F4AD03E
:1048D000284C666B01252E4366639508264CAD0077
:1048E0002F19BD689407240F0F26A640B54305264F
:1048F0003607B04201D1002615E0204EB04201D16A
:10490000012610E01E4EB04201D102260BE01D4EE2
:10491000B04201D1032606E01B4EB04202D105266B
:1049200001E020E00626A6402E43BE60174D2C680D
:104930009C434E68F60300D51C432C606C689C4376
:104940004E68B60300D51C436C60AC689C434E684F
:10495000F60200D51C43AC60EC689C434E68B6027E
:1049600000D51C43EC60521C0B681C46D44000D0A0
:1049700063E7F0BD00100240000001400004005059
:1049800000080050000C0050001C005000040140C2
:104990000069084201D00120704700207047002ABA
:1049A00001D08161704781627047000001488068D2
:1049B00070470000B000002070B5024640325378C6
:1049C000202B01D0022070BD1378012B19D00124B7
:1049D00014702423537003681D68A5431D60036889
:1049E0001D682603B5431D6003681D680D431D60E7
:1049F0000068016821430160202050700020107081
:104A000070BD022070BD70B5024640325378202B35
:104A100001D0022070BD1378012B18D0012515702C
:104A20002423537003681C68AC431C6003681C6833
:104A30000F263602B4430902214319600068016859
:104A400029430160202050700020107070BD0220AA
:104A500070BD000004494A6B01231A434A630349AD
:104A60004A6802434A60704700100240000001405B
:104A700070B50446002C12D02420254640356870BD
:104A800020680168490849000160204600F0D8F913
:104A90000020606468702063A870287070BD0120D9
:104AA00070BD000070B50446002C06D02546403588
:104AB00068780026002802D005E0012070BD2E7025
:104AC000204600F0D9F92420687020680168490860
:104AD000490001600F216068090688432168086168
:104AE000206882680121C9038A438260E068012846
:104AF00009D02122A0689202104322689060E068E9
:104B0000022805D008E0A068226808439060F6E714
:104B100001202268C0025060206842680F4B1A438F
:104B200042602068C2688A43C260616920690843A4
:104B3000A169090208432168C860216AE069084345
:104B400021680860206801680122114301606664E1
:104B5000202068702663AE70002070BD00800002C7
:104B6000FFB583B00446254640356878202802D03A
:104B7000022007B0F0BD0C98002815D00D98002831
:104B800012D02878012814D001202870FFF70EFFDA
:104B9000064601221923D1032046009602F0E2FACC
:104BA000002808D00120E4E70120400260640120D1
:104BB000DFE70220DDE7222068704020A870002790
:104BC00067640C9860620D98608567630E9800902A
:104BD000019604A90EC9204602F03CFA002802D032
:104BE0002F700120C5E7618D3848FF2909D9FF22C0
:104BF0002285012300901B062046049902F09EFAAC
:104C00000AE0618D21850090208D0123C2B25B06F0
:104C10002046049902F092FA0096002204212046D0
:104C20000E9B02F09FFA002801D00120A1E7206826
:104C3000406A616A0870606A401C6062208D401E94
:104C400080B22085618D491E6185618D002924D047
:104C5000002822D100960022802120460E9B02F0DF
:104C600081FA002801D0012083E7608DFF2809D94F
:104C7000FF22228501231B0600972046049902F09B
:104C80005DFA0AE0608D20850097208D0123C2B275
:104C90005B062046049902F051FA608D0028BBD1D2
:104CA000324620460E9902F084FA002801D00120F5
:104CB0005FE720682021C16120684268044B1A40E8
:104CC00042606970AF702F70002052E700240080AE
:104CD00000E800FEFFB583B00446254640356878FD
:104CE000202802D0022007B0F0BD0C98002815D073
:104CF0000D98002812D02878012814D0012028709F
:104D0000FFF754FE074601221923D10320460097DE
:104D100002F028FA002808D00120E4E70120400230
:104D200060640120DFE70220DDE721206870402079
:104D3000A870002666640C9860620D9860856663B2
:104D40000E980090019704A90EC9204602F0BCF904
:104D5000002802D02E700120C5E7608DFF2809D9F8
:104D6000FF22228501231B0600962046049902F0AB
:104D7000E5F90AE0608D20850096208D0123C2B2FE
:104D80005B062046049902F0D9F93A4620460E996E
:104D900002F036FA002801D00120A4E7606A2168F9
:104DA00000788862606A401C6062608D401E608589
:104DB000208D401E80B22085618D002924D00028DE
:104DC00022D100970022802120460E9B02F0CAF9D2
:104DD000002801D0012086E7608DFF2809D9FF2235
:104DE000228501231B0600962046049902F0A6F9AD
:104DF0000AE0608D20850096208D0123C2B25B06FB
:104E00002046049902F09AF9608D0028BDD13A46F7
:104E100020460E9902F0CDF9002801D0012062E76A
:104E200020682021C16120684268044B1A4042601A
:104E30006970AE702E70002055E7000000E800FE9B
:104E400010B50068094988420FD10948816B0122D9
:104E5000520591438163074C81152046FFF74CFCB6
:104E6000012149022046FFF747FC10BD00540040D5
:104E7000001002400004005010B586B00446142112
:104E800001A8FBF714FC14492068884221D1134C77
:104E9000E16A02200143E162E16A014000910320DE
:104EA0000002019012200290002003900320049041
:104EB0000420059001A90A48FFF7BCFC2015FFF764
:104EC000C9FDE014FFF7C6FDA06B012149050843A9
:104ED000A06306B010BD0000005400400010024066
:104EE0000004005002488168027889188160704788
:104EF000B000002010B5002407480168402211438B
:104F00000160032000F00AF8002801D0012401E02C
:104F100000F054F8204610BD0020024030B587B0A4
:104F2000054600222946142000F070F8142000F0F5
:104F300061F81C48416B04221143416301A902A896
:104F400000F048FA0698002815D000F079FA4000E1
:104F50001549FBF7CDF8411E1548144A0260154A61
:104F6000C260416000210161816001F097FB04464D
:104F7000002C03D013E000F063FAE9E70C4801F0DD
:104F8000F3FB0446002C0AD1042D07D20022294647
:104F9000142000F03BF80848056000E0012420469A
:104FA00007B030BD0010024040420F000008014031
:104FB000D0140020E7030000B40000200448416B37
:104FC000012211434163816B0204114381637047E5
:104FD00000100240002809DBC106C90E01208840EC
:104FE00003490860BFF34F8FBFF36F8F7047000016
:104FF00080E100E0002805DBC106C90E01208840E1
:10500000014908607047000000E100E010B503F0BE
:10501000D9FE10BD024801680215114301607047B6
:10502000007000400248016842151143016070475A
:1050300000700040F0B5154E326874152240144BD4
:105040001B6ADB07DB0F002A04D0002B02D0356877
:10505000A54335603568AD08AD00054335600D4F9B
:105060003D69042005433D6101290DD040BF20BFAB
:1050700020BF396981433961002A04D0002B02D056
:10508000306820433060F0BD30BFF2E70070004070
:105090000000014000ED00E0F8B50446002620784D
:1050A000584D80067CD557484038806BC00006D4E8
:1050B00054484038816B02041143816301265248F1
:1050C0000168C90512D40168821511430160FFF718
:1050D0006DFC074606E0FFF769FCC01B642801D998
:1050E0000320F8BD48480068C005F4D5454840385D
:1050F0000168032212051140606802408A420AD00A
:105100008103890F032906D13E4940390968890383
:1051100001D50120F8BD2A69032109040A40002AAB
:1051200021D0084090421ED0207880061BD52869E7
:1051300088432A690121C9040A432A612A698A43EA
:105140002A612861C0050ED5FFF730FC074607E04D
:10515000FFF72CFCC11B2D48814201D90320F8BD6B
:1051600028698005F4D560688103890F032908D177
:10517000244B403B19680322120591431040014320
:1051800019602869032261681204114008432861EC
:10519000012E05D11B484038826B01048A4382638B
:1051A0002078C00705D0E868A1688008800008431F
:1051B000E8602078800705D5E8680C218843E1681D
:1051C0000843E8602078400706D5E8680321890293
:1051D000884321690843E8602078000706D5E8681D
:1051E00003210903884361690843E86020780006C9
:1051F00006D5E868032189048843A1690843E8606B
:105200000020F8BD401002400070004088130000EC
:10521000F8B504460E46002C0FD068480068C00759
:10522000C00FB04218D2654F386840084000304384
:105230003860FFF7BBFB054609E00120F8BDFFF72A
:10524000B5FB411B5E48814201D90320F8BD386897
:10525000C007C00FB042F2D120785A4F800705D561
:10526000F868F0218843A1680843F8602078C007F7
:1052700060D06068022808D003280BD001280ED027
:105280003968890510D40120F8BD396889030BD429
:105290000120F8BD3968890106D40120F8BD3968BC
:1052A000490701D40120F8BDF96889088900014344
:1052B000F960FFF77BFB0546606802280CD00328E5
:1052C00018D0012824D031E0FFF770FB411B3C4887
:1052D000814201D90320F8BDF8680007800F022839
:1052E000F2D127E0FFF762FB411B3548814201D92B
:1052F0000320F8BDF8680007800F0328F2D119E0F9
:10530000FFF754FB411B2E48814201D90320F8BD11
:10531000F8680007800F0128F2D10BE0FFF746FB89
:10532000411B2748814201D90320F8BDF8680007D6
:10533000800FF3D121480168C907C90FB14217D9BD
:10534000014608684008400030430860FFF72EFB24
:10535000054607E0FFF72AFB411B1948814201D9A6
:105360000320F8BD15480068C007C00FB042F1D156
:105370002078400706D5F868072109028843E168CC
:105380000843F8602078000707D5F8680721C902AC
:1053900088432169C9000843F86000F061F8F968A2
:1053A000094A0906090F515CC840084908600848C5
:1053B0000068FFF7B3FD0028D3D1F8BD00200240FC
:1053C0008813000000100240F0CD000848000020C3
:1053D000B400002010B50F2202600C4AD3689B076E
:1053E0009B0F4360D368F02423408360D368072475
:1053F00024022340C360D268E3001A40D20802614D
:1054000003480068C007C00F086010BD00100240CC
:10541000002002400148006870470000480000205A
:1054200000B5FFF7F7FF0449C968044A4905490F69
:10543000515CC84000BD00000010024009CE0008C9
:1054400000B5FFF7E7FF0449C968044A8904490F1A
:10545000515CC84000BD00000010024009CE0008A9
:1054600070B5214EF2680C21104608401F498B0090
:1054700004280CD04D00082810D00C2810D07068DB
:105480000004410F491C0120C003884070BD3068F2
:10549000C00601D5084670BD184670BD284670BDCF
:1054A0009002134C000F205C1202940F641CF268EF
:1054B000D20307D5294603F04EFC22460023FAF713
:1054C00041FE70BD3268D20606D503F044FC224688
:1054D0000023FAF737FE70BD194603F03CFC224664
:1054E0000023FAF72FFE70BD0010024000093D00B6
:1054F00000CE0008FEB50446002C0FD0FE4DEE682D
:105500000C200640EF680120000407402078C00707
:1055100053D0082E08D00C2E02D00DE00120FEBD85
:1055200001200004874207D12868800345D56068C0
:10553000002842D10120FEBD0120616800048142A3
:1055400003D129680143296015E0052301221B04CA
:105550009204994206D129681143296029680143C0
:10556000296008E029688143296029680140009189
:10557000286890432860606800280FD0FFF716FA6B
:10558000019007E0FFF712FA0199401A642801D947
:105590000320FEBD28688003F4D50EE0FFF706FA6D
:1055A000019007E0FFF702FA0199401A642801D937
:1055B0000320FEBD28688003F4D4207880075AD5E4
:1055C000E0680921042E0DD00C2E01D1002F09D046
:1055D00000283ED02A688A4302432A60FFF7E6F992
:1055E00007462AE02A68520701D500281CD06A68BD
:1055F0001F231B029A4323691B021A436A602A680D
:105600008A4302432A60FFF72BFFE96809060A0F65
:10561000BA49895CC840BA490860BA480068FFF7CF
:105620007DFC0028C5D126E00120FEBDFFF7BEF9B4
:10563000C01B022801D90320FEBD28684007F5D50C
:1056400068681F21090288432169090208436860CC
:1056500011E02868400840002860FFF7A7F90746D6
:1056600006E0FFF7A3F9C01B022801D90320FEBD05
:1056700028684007F5D42078C00664D5002E0BD0EA
:10568000A06900284CD02868FF2101310843286018
:10569000FFF78CF9074631E02868800502D5A0693C
:1056A000002822D06868072149038843216A0843FB
:1056B00068606868217F0002000A09060843686084
:1056C000206A410B491C0120C0038840E968090693
:1056D0000A0F8A49895CC84089490860894800687E
:1056E000FFF71CFC0028C2D12DE00120FEBDFFF712
:1056F0005DF9C01B022801D90320FEBD2868800582
:10570000F5D56868072149038843216A0843686022
:105710006868217F0002000A09060843686012E0F9
:105720002968FF20013081432960FFF73FF90746D0
:1057300006E0FFF73BF9C01B022801D90320FEBD9C
:1057400028688005F5D420786F4F000729D5606957
:10575000002813D03869012108433861FFF726F982
:10576000019007E0FFF722F90199401A022801D9B8
:105770000320FEBD38698007F4D512E0386940087F
:1057800040003861FFF712F9019007E0FFF70EF9CA
:105790000199401A022801D90320FEBD386980070B
:1057A000F4D42078400775D500200090A86BC00085
:1057B00006D4A86B012109070843A86301200090C3
:1057C00052480168C90514D4014608688A15104377
:1057D0000860FFF7EBF8019007E0FFF7E7F80199A1
:1057E000401A642801D90320FEBD48480068C0055E
:1057F000F3D5FF20A2680130824203D13969014309
:1058000039611BE001218902002A0AD005231B020D
:105810009A420DD13A690A433A61396901433961C3
:105820000CE03A6982433A6138698843386105E09F
:105830003A6982433A61386988433861A068002830
:1058400010D0FFF7B3F8019008E0FFF7AFF8019927
:10585000411A2F48814201D90320FEBD38698005D5
:10586000F3D50FE0FFF7A2F8019008E0FFF79EF8EC
:105870000199411A2648814201D90320FEBD3869A9
:105880008005F3D40098012804D1A86B01210907F1
:105890008843A863606A00286DD00C2E52D001277F
:1058A0003F06022806D02868B8432860FFF77EF834
:1058B000044643E02868B8432860FFF777F80646B7
:1058C00006E0FFF773F8801B022801D90320FEBD14
:1058D00028688001F5D4E16AA06AEA680843216B70
:1058E000FD231B049A4311430843E86028683843AA
:1058F0002860FFF75BF80DE000100240F0CD0008D3
:1059000048000020B4000020401002400070004019
:1059100088130000044606E0FFF748F8001B022841
:1059200001D90320FEBD28688001F5D523E0FFF7EB
:105930003DF8001B022801D90320FEBD2868800124
:10594000F5D418E0012814D0E86801210904A26AFE
:10595000014091420BD10F218904E26A014091423A
:1059600005D1032189050840216B884203D001201D
:10597000FEBD0120FEBD0020FEBD7047024801684B
:10598000491C0160704700004400002010B5044627
:105990002068C068400509D52046FFF7EFFF206862
:1059A000C16880221140054A8918C160012004495C
:1059B0000005486101202034607010BD7FFBFFFFAF
:1059C0000004014002480168491C01607047000062
:1059D0004400002070B50446206881688025C90411
:1059E00000290BDAC068C00508D52046FFF7EAFF9A
:1059F0002068C1682940FF398239C1602068816808
:105A000089040BD5C068800508D52046FFF7B5FF8F
:105A10002068C168054A29408918C16001200449ED
:105A20004004486101202034607070BD7FFDFFFF9D
:105A30000004014010B50B46006841680D48014064
:105A4000080CD870CC04E40E5C708C06A40E9C701C
:105A50000904490F1970002A0AD102F0DDF9D87043
:105A6000587802F0D9F95870987802F0D5F9987002
:105A7000002010BD3FFFFF0010B50B460168896A8A
:105A80005960016809694904490C99600068016816
:105A90000E4801408802800E18704C04640E5C7041
:105AA0004C06640E9C70090C40242140D970002AD9
:105AB0000AD102F0B1F91870587802F0ADF95870B7
:105AC000987802F0A9F99870002010BD7F7F7F00C0
:105AD000F8B50446002C05D0254620356878002806
